{
	"Bibek_pay_original.sol": {
		"Payment": {
			"abi": [
				{
					"inputs": [],
					"stateMutability": "nonpayable",
					"type": "constructor"
				},
				{
					"inputs": [],
					"name": "depositamount",
					"outputs": [
						{
							"internalType": "uint256",
							"name": "",
							"type": "uint256"
						}
					],
					"stateMutability": "view",
					"type": "function"
				},
				{
					"inputs": [],
					"name": "getBalance",
					"outputs": [
						{
							"internalType": "uint256",
							"name": "",
							"type": "uint256"
						}
					],
					"stateMutability": "view",
					"type": "function"
				},
				{
					"inputs": [],
					"name": "owner",
					"outputs": [
						{
							"internalType": "address",
							"name": "",
							"type": "address"
						}
					],
					"stateMutability": "view",
					"type": "function"
				},
				{
					"inputs": [],
					"name": "payRent",
					"outputs": [],
					"stateMutability": "payable",
					"type": "function"
				},
				{
					"inputs": [],
					"name": "paySecurityDeposit",
					"outputs": [],
					"stateMutability": "payable",
					"type": "function"
				},
				{
					"inputs": [],
					"name": "rentcollected",
					"outputs": [
						{
							"internalType": "uint256",
							"name": "",
							"type": "uint256"
						}
					],
					"stateMutability": "view",
					"type": "function"
				},
				{
					"inputs": [],
					"name": "tenant",
					"outputs": [
						{
							"internalType": "address",
							"name": "",
							"type": "address"
						}
					],
					"stateMutability": "view",
					"type": "function"
				},
				{
					"inputs": [],
					"name": "withdrawRent",
					"outputs": [],
					"stateMutability": "payable",
					"type": "function"
				}
			],
			"devdoc": {
				"kind": "dev",
				"methods": {},
				"version": 1
			},
			"evm": {
				"assembly": "    /* \"Bibek_pay_original.sol\":69:1406  contract Payment {... */\n  mstore(0x40, 0x80)\n    /* \"Bibek_pay_original.sol\":144:186  0x5B38Da6a701c568545dCfcB03FcB875f56beddC4 */\n  0x5b38da6a701c568545dcfcb03fcb875f56beddc4\n    /* \"Bibek_pay_original.sol\":120:186  address public tenant = 0x5B38Da6a701c568545dCfcB03FcB875f56beddC4 */\n  0x01\n  exp(0x0100, 0x00)\n  dup2\n  sload\n  dup2\n  0xffffffffffffffffffffffffffffffffffffffff\n  mul\n  not\n  and\n  swap1\n  dup4\n  0xffffffffffffffffffffffffffffffffffffffff\n  and\n  mul\n  or\n  swap1\n  sstore\n  pop\n    /* \"Bibek_pay_original.sol\":253:260  1 ether */\n  0x0de0b6b3a7640000\n    /* \"Bibek_pay_original.sol\":225:260  uint public depositamount = 1 ether */\n  0x03\n  sstore\n    /* \"Bibek_pay_original.sol\":269:317  constructor(){... */\n  callvalue\n  dup1\n  iszero\n  tag_1\n  jumpi\n  0x00\n  dup1\n  revert\ntag_1:\n  pop\n    /* \"Bibek_pay_original.sol\":299:309  msg.sender */\n  caller\n    /* \"Bibek_pay_original.sol\":293:298  owner */\n  0x00\n  dup1\n    /* \"Bibek_pay_original.sol\":293:309  owner=msg.sender */\n  0x0100\n  exp\n  dup2\n  sload\n  dup2\n  0xffffffffffffffffffffffffffffffffffffffff\n  mul\n  not\n  and\n  swap1\n  dup4\n  0xffffffffffffffffffffffffffffffffffffffff\n  and\n  mul\n  or\n  swap1\n  sstore\n  pop\n    /* \"Bibek_pay_original.sol\":69:1406  contract Payment {... */\n  dataSize(sub_0)\n  dup1\n  dataOffset(sub_0)\n  0x00\n  codecopy\n  0x00\n  return\nstop\n\nsub_0: assembly {\n        /* \"Bibek_pay_original.sol\":69:1406  contract Payment {... */\n      mstore(0x40, 0x80)\n      jumpi(tag_1, lt(calldatasize, 0x04))\n      shr(0xe0, calldataload(0x00))\n      dup1\n      0x6322182e\n      gt\n      tag_10\n      jumpi\n      dup1\n      0x6322182e\n      eq\n      tag_6\n      jumpi\n      dup1\n      0x8da5cb5b\n      eq\n      tag_7\n      jumpi\n      dup1\n      0xa709c4fe\n      eq\n      tag_8\n      jumpi\n      dup1\n      0xadf07791\n      eq\n      tag_9\n      jumpi\n      jump(tag_1)\n    tag_10:\n      dup1\n      0x12065fe0\n      eq\n      tag_2\n      jumpi\n      dup1\n      0x322e4d2d\n      eq\n      tag_3\n      jumpi\n      dup1\n      0x42c63dae\n      eq\n      tag_4\n      jumpi\n      dup1\n      0x4b7851f7\n      eq\n      tag_5\n      jumpi\n    tag_1:\n      0x00\n      dup1\n      revert\n        /* \"Bibek_pay_original.sol\":823:914  function getBalance() view public returns(uint){... */\n    tag_2:\n      callvalue\n      dup1\n      iszero\n      tag_11\n      jumpi\n      0x00\n      dup1\n      revert\n    tag_11:\n      pop\n      tag_12\n      tag_13\n      jump\t// in\n    tag_12:\n      mload(0x40)\n      tag_14\n      swap2\n      swap1\n      tag_15\n      jump\t// in\n    tag_14:\n      mload(0x40)\n      dup1\n      swap2\n      sub\n      swap1\n      return\n        /* \"Bibek_pay_original.sol\":225:260  uint public depositamount = 1 ether */\n    tag_3:\n      callvalue\n      dup1\n      iszero\n      tag_16\n      jumpi\n      0x00\n      dup1\n      revert\n    tag_16:\n      pop\n      tag_17\n      tag_18\n      jump\t// in\n    tag_17:\n      mload(0x40)\n      tag_19\n      swap2\n      swap1\n      tag_15\n      jump\t// in\n    tag_19:\n      mload(0x40)\n      dup1\n      swap2\n      sub\n      swap1\n      return\n        /* \"Bibek_pay_original.sol\":638:787  function paySecurityDeposit() public payable onlyTenant() {... */\n    tag_4:\n      tag_20\n      tag_21\n      jump\t// in\n    tag_20:\n      stop\n        /* \"Bibek_pay_original.sol\":193:218  uint public rentcollected */\n    tag_5:\n      callvalue\n      dup1\n      iszero\n      tag_22\n      jumpi\n      0x00\n      dup1\n      revert\n    tag_22:\n      pop\n      tag_23\n      tag_24\n      jump\t// in\n    tag_23:\n      mload(0x40)\n      tag_25\n      swap2\n      swap1\n      tag_15\n      jump\t// in\n    tag_25:\n      mload(0x40)\n      dup1\n      swap2\n      sub\n      swap1\n      return\n        /* \"Bibek_pay_original.sol\":1221:1397  function withdrawRent() public payable onlyOwner{... */\n    tag_6:\n      tag_26\n      tag_27\n      jump\t// in\n    tag_26:\n      stop\n        /* \"Bibek_pay_original.sol\":93:113  address public owner */\n    tag_7:\n      callvalue\n      dup1\n      iszero\n      tag_28\n      jumpi\n      0x00\n      dup1\n      revert\n    tag_28:\n      pop\n      tag_29\n      tag_30\n      jump\t// in\n    tag_29:\n      mload(0x40)\n      tag_31\n      swap2\n      swap1\n      tag_32\n      jump\t// in\n    tag_31:\n      mload(0x40)\n      dup1\n      swap2\n      sub\n      swap1\n      return\n        /* \"Bibek_pay_original.sol\":1123:1213  function payRent() public payable onlyTenant(){... */\n    tag_8:\n      tag_33\n      tag_34\n      jump\t// in\n    tag_33:\n      stop\n        /* \"Bibek_pay_original.sol\":120:186  address public tenant = 0x5B38Da6a701c568545dCfcB03FcB875f56beddC4 */\n    tag_9:\n      callvalue\n      dup1\n      iszero\n      tag_35\n      jumpi\n      0x00\n      dup1\n      revert\n    tag_35:\n      pop\n      tag_36\n      tag_37\n      jump\t// in\n    tag_36:\n      mload(0x40)\n      tag_38\n      swap2\n      swap1\n      tag_32\n      jump\t// in\n    tag_38:\n      mload(0x40)\n      dup1\n      swap2\n      sub\n      swap1\n      return\n        /* \"Bibek_pay_original.sol\":823:914  function getBalance() view public returns(uint){... */\n    tag_13:\n        /* \"Bibek_pay_original.sol\":865:869  uint */\n      0x00\n        /* \"Bibek_pay_original.sol\":884:905  address(this).balance */\n      selfbalance\n        /* \"Bibek_pay_original.sol\":877:905  return address(this).balance */\n      swap1\n      pop\n        /* \"Bibek_pay_original.sol\":823:914  function getBalance() view public returns(uint){... */\n      swap1\n      jump\t// out\n        /* \"Bibek_pay_original.sol\":225:260  uint public depositamount = 1 ether */\n    tag_18:\n      sload(0x03)\n      dup2\n      jump\t// out\n        /* \"Bibek_pay_original.sol\":638:787  function paySecurityDeposit() public payable onlyTenant() {... */\n    tag_21:\n        /* \"Bibek_pay_original.sol\":378:384  tenant */\n      0x01\n      0x00\n      swap1\n      sload\n      swap1\n      0x0100\n      exp\n      swap1\n      div\n      0xffffffffffffffffffffffffffffffffffffffff\n      and\n        /* \"Bibek_pay_original.sol\":364:384  msg.sender == tenant */\n      0xffffffffffffffffffffffffffffffffffffffff\n      and\n        /* \"Bibek_pay_original.sol\":364:374  msg.sender */\n      caller\n        /* \"Bibek_pay_original.sol\":364:384  msg.sender == tenant */\n      0xffffffffffffffffffffffffffffffffffffffff\n      and\n      eq\n        /* \"Bibek_pay_original.sol\":356:450  require(msg.sender == tenant, \"Only the tenant has to pay the security deposit and the rent \") */\n      tag_41\n      jumpi\n      mload(0x40)\n      0x08c379a000000000000000000000000000000000000000000000000000000000\n      dup2\n      mstore\n      0x04\n      add\n      tag_42\n      swap1\n      tag_43\n      jump\t// in\n    tag_42:\n      mload(0x40)\n      dup1\n      swap2\n      sub\n      swap1\n      revert\n    tag_41:\n        /* \"Bibek_pay_original.sol\":728:741  depositamount */\n      sload(0x03)\n        /* \"Bibek_pay_original.sol\":715:724  msg.value */\n      callvalue\n        /* \"Bibek_pay_original.sol\":715:741  msg.value == depositamount */\n      eq\n        /* \"Bibek_pay_original.sol\":707:775  require(msg.value == depositamount, \"Deposit amount does not match\") */\n      tag_45\n      jumpi\n      mload(0x40)\n      0x08c379a000000000000000000000000000000000000000000000000000000000\n      dup2\n      mstore\n      0x04\n      add\n      tag_46\n      swap1\n      tag_47\n      jump\t// in\n    tag_46:\n      mload(0x40)\n      dup1\n      swap2\n      sub\n      swap1\n      revert\n    tag_45:\n        /* \"Bibek_pay_original.sol\":638:787  function paySecurityDeposit() public payable onlyTenant() {... */\n      jump\t// out\n        /* \"Bibek_pay_original.sol\":193:218  uint public rentcollected */\n    tag_24:\n      sload(0x02)\n      dup2\n      jump\t// out\n        /* \"Bibek_pay_original.sol\":1221:1397  function withdrawRent() public payable onlyOwner{... */\n    tag_27:\n        /* \"Bibek_pay_original.sol\":525:530  owner */\n      0x00\n      dup1\n      sload\n      swap1\n      0x0100\n      exp\n      swap1\n      div\n      0xffffffffffffffffffffffffffffffffffffffff\n      and\n        /* \"Bibek_pay_original.sol\":511:530  msg.sender == owner */\n      0xffffffffffffffffffffffffffffffffffffffff\n      and\n        /* \"Bibek_pay_original.sol\":511:521  msg.sender */\n      caller\n        /* \"Bibek_pay_original.sol\":511:530  msg.sender == owner */\n      0xffffffffffffffffffffffffffffffffffffffff\n      and\n      eq\n        /* \"Bibek_pay_original.sol\":503:567  require(msg.sender == owner, \"Only the owner can withdraw rent\") */\n      tag_49\n      jumpi\n      mload(0x40)\n      0x08c379a000000000000000000000000000000000000000000000000000000000\n      dup2\n      mstore\n      0x04\n      add\n      tag_50\n      swap1\n      tag_51\n      jump\t// in\n    tag_50:\n      mload(0x40)\n      dup1\n      swap2\n      sub\n      swap1\n      revert\n    tag_49:\n        /* \"Bibek_pay_original.sol\":1305:1306  0 */\n      0x00\n        /* \"Bibek_pay_original.sol\":1289:1302  rentcollected */\n      sload(0x02)\n        /* \"Bibek_pay_original.sol\":1289:1306  rentcollected > 0 */\n      gt\n        /* \"Bibek_pay_original.sol\":1280:1340  require (rentcollected > 0, \"No rent available to withdraw\") */\n      tag_53\n      jumpi\n      mload(0x40)\n      0x08c379a000000000000000000000000000000000000000000000000000000000\n      dup2\n      mstore\n      0x04\n      add\n      tag_54\n      swap1\n      tag_55\n      jump\t// in\n    tag_54:\n      mload(0x40)\n      dup1\n      swap2\n      sub\n      swap1\n      revert\n    tag_53:\n        /* \"Bibek_pay_original.sol\":1359:1364  owner */\n      0x00\n      dup1\n      sload\n      swap1\n      0x0100\n      exp\n      swap1\n      div\n      0xffffffffffffffffffffffffffffffffffffffff\n      and\n        /* \"Bibek_pay_original.sol\":1351:1374  payable(owner).transfer */\n      0xffffffffffffffffffffffffffffffffffffffff\n      and\n        /* \"Bibek_pay_original.sol\":1351:1389  payable(owner).transfer(rentcollected) */\n      0x08fc\n        /* \"Bibek_pay_original.sol\":1375:1388  rentcollected */\n      sload(0x02)\n        /* \"Bibek_pay_original.sol\":1351:1389  payable(owner).transfer(rentcollected) */\n      swap1\n      dup2\n      iszero\n      mul\n      swap1\n      mload(0x40)\n      0x00\n      mload(0x40)\n      dup1\n      dup4\n      sub\n      dup2\n      dup6\n      dup9\n      dup9\n      call\n      swap4\n      pop\n      pop\n      pop\n      pop\n      iszero\n      dup1\n      iszero\n      tag_57\n      jumpi\n      returndatasize\n      0x00\n      dup1\n      returndatacopy\n      revert(0x00, returndatasize)\n    tag_57:\n      pop\n        /* \"Bibek_pay_original.sol\":1221:1397  function withdrawRent() public payable onlyOwner{... */\n      jump\t// out\n        /* \"Bibek_pay_original.sol\":93:113  address public owner */\n    tag_30:\n      0x00\n      dup1\n      sload\n      swap1\n      0x0100\n      exp\n      swap1\n      div\n      0xffffffffffffffffffffffffffffffffffffffff\n      and\n      dup2\n      jump\t// out\n        /* \"Bibek_pay_original.sol\":1123:1213  function payRent() public payable onlyTenant(){... */\n    tag_34:\n        /* \"Bibek_pay_original.sol\":378:384  tenant */\n      0x01\n      0x00\n      swap1\n      sload\n      swap1\n      0x0100\n      exp\n      swap1\n      div\n      0xffffffffffffffffffffffffffffffffffffffff\n      and\n        /* \"Bibek_pay_original.sol\":364:384  msg.sender == tenant */\n      0xffffffffffffffffffffffffffffffffffffffff\n      and\n        /* \"Bibek_pay_original.sol\":364:374  msg.sender */\n      caller\n        /* \"Bibek_pay_original.sol\":364:384  msg.sender == tenant */\n      0xffffffffffffffffffffffffffffffffffffffff\n      and\n      eq\n        /* \"Bibek_pay_original.sol\":356:450  require(msg.sender == tenant, \"Only the tenant has to pay the security deposit and the rent \") */\n      tag_59\n      jumpi\n      mload(0x40)\n      0x08c379a000000000000000000000000000000000000000000000000000000000\n      dup2\n      mstore\n      0x04\n      add\n      tag_60\n      swap1\n      tag_43\n      jump\t// in\n    tag_60:\n      mload(0x40)\n      dup1\n      swap2\n      sub\n      swap1\n      revert\n    tag_59:\n        /* \"Bibek_pay_original.sol\":1196:1205  msg.value */\n      callvalue\n        /* \"Bibek_pay_original.sol\":1180:1193  rentcollected */\n      0x02\n      0x00\n        /* \"Bibek_pay_original.sol\":1180:1205  rentcollected +=msg.value */\n      dup3\n      dup3\n      sload\n      tag_62\n      swap2\n      swap1\n      tag_63\n      jump\t// in\n    tag_62:\n      swap3\n      pop\n      pop\n      dup2\n      swap1\n      sstore\n      pop\n        /* \"Bibek_pay_original.sol\":1123:1213  function payRent() public payable onlyTenant(){... */\n      jump\t// out\n        /* \"Bibek_pay_original.sol\":120:186  address public tenant = 0x5B38Da6a701c568545dCfcB03FcB875f56beddC4 */\n    tag_37:\n      0x01\n      0x00\n      swap1\n      sload\n      swap1\n      0x0100\n      exp\n      swap1\n      div\n      0xffffffffffffffffffffffffffffffffffffffff\n      and\n      dup2\n      jump\t// out\n        /* \"#utility.yul\":7:84   */\n    tag_64:\n        /* \"#utility.yul\":44:51   */\n      0x00\n        /* \"#utility.yul\":73:78   */\n      dup2\n        /* \"#utility.yul\":62:78   */\n      swap1\n      pop\n        /* \"#utility.yul\":7:84   */\n      swap2\n      swap1\n      pop\n      jump\t// out\n        /* \"#utility.yul\":90:208   */\n    tag_65:\n        /* \"#utility.yul\":177:201   */\n      tag_82\n        /* \"#utility.yul\":195:200   */\n      dup2\n        /* \"#utility.yul\":177:201   */\n      tag_64\n      jump\t// in\n    tag_82:\n        /* \"#utility.yul\":172:175   */\n      dup3\n        /* \"#utility.yul\":165:202   */\n      mstore\n        /* \"#utility.yul\":90:208   */\n      pop\n      pop\n      jump\t// out\n        /* \"#utility.yul\":214:436   */\n    tag_15:\n        /* \"#utility.yul\":307:311   */\n      0x00\n        /* \"#utility.yul\":345:347   */\n      0x20\n        /* \"#utility.yul\":334:343   */\n      dup3\n        /* \"#utility.yul\":330:348   */\n      add\n        /* \"#utility.yul\":322:348   */\n      swap1\n      pop\n        /* \"#utility.yul\":358:429   */\n      tag_84\n        /* \"#utility.yul\":426:427   */\n      0x00\n        /* \"#utility.yul\":415:424   */\n      dup4\n        /* \"#utility.yul\":411:428   */\n      add\n        /* \"#utility.yul\":402:408   */\n      dup5\n        /* \"#utility.yul\":358:429   */\n      tag_65\n      jump\t// in\n    tag_84:\n        /* \"#utility.yul\":214:436   */\n      swap3\n      swap2\n      pop\n      pop\n      jump\t// out\n        /* \"#utility.yul\":442:568   */\n    tag_66:\n        /* \"#utility.yul\":479:486   */\n      0x00\n        /* \"#utility.yul\":519:561   */\n      0xffffffffffffffffffffffffffffffffffffffff\n        /* \"#utility.yul\":512:517   */\n      dup3\n        /* \"#utility.yul\":508:562   */\n      and\n        /* \"#utility.yul\":497:562   */\n      swap1\n      pop\n        /* \"#utility.yul\":442:568   */\n      swap2\n      swap1\n      pop\n      jump\t// out\n        /* \"#utility.yul\":574:670   */\n    tag_67:\n        /* \"#utility.yul\":611:618   */\n      0x00\n        /* \"#utility.yul\":640:664   */\n      tag_87\n        /* \"#utility.yul\":658:663   */\n      dup3\n        /* \"#utility.yul\":640:664   */\n      tag_66\n      jump\t// in\n    tag_87:\n        /* \"#utility.yul\":629:664   */\n      swap1\n      pop\n        /* \"#utility.yul\":574:670   */\n      swap2\n      swap1\n      pop\n      jump\t// out\n        /* \"#utility.yul\":676:794   */\n    tag_68:\n        /* \"#utility.yul\":763:787   */\n      tag_89\n        /* \"#utility.yul\":781:786   */\n      dup2\n        /* \"#utility.yul\":763:787   */\n      tag_67\n      jump\t// in\n    tag_89:\n        /* \"#utility.yul\":758:761   */\n      dup3\n        /* \"#utility.yul\":751:788   */\n      mstore\n        /* \"#utility.yul\":676:794   */\n      pop\n      pop\n      jump\t// out\n        /* \"#utility.yul\":800:1022   */\n    tag_32:\n        /* \"#utility.yul\":893:897   */\n      0x00\n        /* \"#utility.yul\":931:933   */\n      0x20\n        /* \"#utility.yul\":920:929   */\n      dup3\n        /* \"#utility.yul\":916:934   */\n      add\n        /* \"#utility.yul\":908:934   */\n      swap1\n      pop\n        /* \"#utility.yul\":944:1015   */\n      tag_91\n        /* \"#utility.yul\":1012:1013   */\n      0x00\n        /* \"#utility.yul\":1001:1010   */\n      dup4\n        /* \"#utility.yul\":997:1014   */\n      add\n        /* \"#utility.yul\":988:994   */\n      dup5\n        /* \"#utility.yul\":944:1015   */\n      tag_68\n      jump\t// in\n    tag_91:\n        /* \"#utility.yul\":800:1022   */\n      swap3\n      swap2\n      pop\n      pop\n      jump\t// out\n        /* \"#utility.yul\":1028:1197   */\n    tag_69:\n        /* \"#utility.yul\":1112:1123   */\n      0x00\n        /* \"#utility.yul\":1146:1152   */\n      dup3\n        /* \"#utility.yul\":1141:1144   */\n      dup3\n        /* \"#utility.yul\":1134:1153   */\n      mstore\n        /* \"#utility.yul\":1186:1190   */\n      0x20\n        /* \"#utility.yul\":1181:1184   */\n      dup3\n        /* \"#utility.yul\":1177:1191   */\n      add\n        /* \"#utility.yul\":1162:1191   */\n      swap1\n      pop\n        /* \"#utility.yul\":1028:1197   */\n      swap3\n      swap2\n      pop\n      pop\n      jump\t// out\n        /* \"#utility.yul\":1203:1451   */\n    tag_70:\n        /* \"#utility.yul\":1343:1377   */\n      0x4f6e6c79207468652074656e616e742068617320746f20706179207468652073\n        /* \"#utility.yul\":1339:1340   */\n      0x00\n        /* \"#utility.yul\":1331:1337   */\n      dup3\n        /* \"#utility.yul\":1327:1341   */\n      add\n        /* \"#utility.yul\":1320:1378   */\n      mstore\n        /* \"#utility.yul\":1412:1443   */\n      0x65637572697479206465706f73697420616e64207468652072656e7420000000\n        /* \"#utility.yul\":1407:1409   */\n      0x20\n        /* \"#utility.yul\":1399:1405   */\n      dup3\n        /* \"#utility.yul\":1395:1410   */\n      add\n        /* \"#utility.yul\":1388:1444   */\n      mstore\n        /* \"#utility.yul\":1203:1451   */\n      pop\n      jump\t// out\n        /* \"#utility.yul\":1457:1823   */\n    tag_71:\n        /* \"#utility.yul\":1599:1602   */\n      0x00\n        /* \"#utility.yul\":1620:1687   */\n      tag_95\n        /* \"#utility.yul\":1684:1686   */\n      0x3d\n        /* \"#utility.yul\":1679:1682   */\n      dup4\n        /* \"#utility.yul\":1620:1687   */\n      tag_69\n      jump\t// in\n    tag_95:\n        /* \"#utility.yul\":1613:1687   */\n      swap2\n      pop\n        /* \"#utility.yul\":1696:1789   */\n      tag_96\n        /* \"#utility.yul\":1785:1788   */\n      dup3\n        /* \"#utility.yul\":1696:1789   */\n      tag_70\n      jump\t// in\n    tag_96:\n        /* \"#utility.yul\":1814:1816   */\n      0x40\n        /* \"#utility.yul\":1809:1812   */\n      dup3\n        /* \"#utility.yul\":1805:1817   */\n      add\n        /* \"#utility.yul\":1798:1817   */\n      swap1\n      pop\n        /* \"#utility.yul\":1457:1823   */\n      swap2\n      swap1\n      pop\n      jump\t// out\n        /* \"#utility.yul\":1829:2248   */\n    tag_43:\n        /* \"#utility.yul\":1995:1999   */\n      0x00\n        /* \"#utility.yul\":2033:2035   */\n      0x20\n        /* \"#utility.yul\":2022:2031   */\n      dup3\n        /* \"#utility.yul\":2018:2036   */\n      add\n        /* \"#utility.yul\":2010:2036   */\n      swap1\n      pop\n        /* \"#utility.yul\":2082:2091   */\n      dup2\n        /* \"#utility.yul\":2076:2080   */\n      dup2\n        /* \"#utility.yul\":2072:2092   */\n      sub\n        /* \"#utility.yul\":2068:2069   */\n      0x00\n        /* \"#utility.yul\":2057:2066   */\n      dup4\n        /* \"#utility.yul\":2053:2070   */\n      add\n        /* \"#utility.yul\":2046:2093   */\n      mstore\n        /* \"#utility.yul\":2110:2241   */\n      tag_98\n        /* \"#utility.yul\":2236:2240   */\n      dup2\n        /* \"#utility.yul\":2110:2241   */\n      tag_71\n      jump\t// in\n    tag_98:\n        /* \"#utility.yul\":2102:2241   */\n      swap1\n      pop\n        /* \"#utility.yul\":1829:2248   */\n      swap2\n      swap1\n      pop\n      jump\t// out\n        /* \"#utility.yul\":2254:2433   */\n    tag_72:\n        /* \"#utility.yul\":2394:2425   */\n      0x4465706f73697420616d6f756e7420646f6573206e6f74206d61746368000000\n        /* \"#utility.yul\":2390:2391   */\n      0x00\n        /* \"#utility.yul\":2382:2388   */\n      dup3\n        /* \"#utility.yul\":2378:2392   */\n      add\n        /* \"#utility.yul\":2371:2426   */\n      mstore\n        /* \"#utility.yul\":2254:2433   */\n      pop\n      jump\t// out\n        /* \"#utility.yul\":2439:2805   */\n    tag_73:\n        /* \"#utility.yul\":2581:2584   */\n      0x00\n        /* \"#utility.yul\":2602:2669   */\n      tag_101\n        /* \"#utility.yul\":2666:2668   */\n      0x1d\n        /* \"#utility.yul\":2661:2664   */\n      dup4\n        /* \"#utility.yul\":2602:2669   */\n      tag_69\n      jump\t// in\n    tag_101:\n        /* \"#utility.yul\":2595:2669   */\n      swap2\n      pop\n        /* \"#utility.yul\":2678:2771   */\n      tag_102\n        /* \"#utility.yul\":2767:2770   */\n      dup3\n        /* \"#utility.yul\":2678:2771   */\n      tag_72\n      jump\t// in\n    tag_102:\n        /* \"#utility.yul\":2796:2798   */\n      0x20\n        /* \"#utility.yul\":2791:2794   */\n      dup3\n        /* \"#utility.yul\":2787:2799   */\n      add\n        /* \"#utility.yul\":2780:2799   */\n      swap1\n      pop\n        /* \"#utility.yul\":2439:2805   */\n      swap2\n      swap1\n      pop\n      jump\t// out\n        /* \"#utility.yul\":2811:3230   */\n    tag_47:\n        /* \"#utility.yul\":2977:2981   */\n      0x00\n        /* \"#utility.yul\":3015:3017   */\n      0x20\n        /* \"#utility.yul\":3004:3013   */\n      dup3\n        /* \"#utility.yul\":3000:3018   */\n      add\n        /* \"#utility.yul\":2992:3018   */\n      swap1\n      pop\n        /* \"#utility.yul\":3064:3073   */\n      dup2\n        /* \"#utility.yul\":3058:3062   */\n      dup2\n        /* \"#utility.yul\":3054:3074   */\n      sub\n        /* \"#utility.yul\":3050:3051   */\n      0x00\n        /* \"#utility.yul\":3039:3048   */\n      dup4\n        /* \"#utility.yul\":3035:3052   */\n      add\n        /* \"#utility.yul\":3028:3075   */\n      mstore\n        /* \"#utility.yul\":3092:3223   */\n      tag_104\n        /* \"#utility.yul\":3218:3222   */\n      dup2\n        /* \"#utility.yul\":3092:3223   */\n      tag_73\n      jump\t// in\n    tag_104:\n        /* \"#utility.yul\":3084:3223   */\n      swap1\n      pop\n        /* \"#utility.yul\":2811:3230   */\n      swap2\n      swap1\n      pop\n      jump\t// out\n        /* \"#utility.yul\":3236:3418   */\n    tag_74:\n        /* \"#utility.yul\":3376:3410   */\n      0x4f6e6c7920746865206f776e65722063616e2077697468647261772072656e74\n        /* \"#utility.yul\":3372:3373   */\n      0x00\n        /* \"#utility.yul\":3364:3370   */\n      dup3\n        /* \"#utility.yul\":3360:3374   */\n      add\n        /* \"#utility.yul\":3353:3411   */\n      mstore\n        /* \"#utility.yul\":3236:3418   */\n      pop\n      jump\t// out\n        /* \"#utility.yul\":3424:3790   */\n    tag_75:\n        /* \"#utility.yul\":3566:3569   */\n      0x00\n        /* \"#utility.yul\":3587:3654   */\n      tag_107\n        /* \"#utility.yul\":3651:3653   */\n      0x20\n        /* \"#utility.yul\":3646:3649   */\n      dup4\n        /* \"#utility.yul\":3587:3654   */\n      tag_69\n      jump\t// in\n    tag_107:\n        /* \"#utility.yul\":3580:3654   */\n      swap2\n      pop\n        /* \"#utility.yul\":3663:3756   */\n      tag_108\n        /* \"#utility.yul\":3752:3755   */\n      dup3\n        /* \"#utility.yul\":3663:3756   */\n      tag_74\n      jump\t// in\n    tag_108:\n        /* \"#utility.yul\":3781:3783   */\n      0x20\n        /* \"#utility.yul\":3776:3779   */\n      dup3\n        /* \"#utility.yul\":3772:3784   */\n      add\n        /* \"#utility.yul\":3765:3784   */\n      swap1\n      pop\n        /* \"#utility.yul\":3424:3790   */\n      swap2\n      swap1\n      pop\n      jump\t// out\n        /* \"#utility.yul\":3796:4215   */\n    tag_51:\n        /* \"#utility.yul\":3962:3966   */\n      0x00\n        /* \"#utility.yul\":4000:4002   */\n      0x20\n        /* \"#utility.yul\":3989:3998   */\n      dup3\n        /* \"#utility.yul\":3985:4003   */\n      add\n        /* \"#utility.yul\":3977:4003   */\n      swap1\n      pop\n        /* \"#utility.yul\":4049:4058   */\n      dup2\n        /* \"#utility.yul\":4043:4047   */\n      dup2\n        /* \"#utility.yul\":4039:4059   */\n      sub\n        /* \"#utility.yul\":4035:4036   */\n      0x00\n        /* \"#utility.yul\":4024:4033   */\n      dup4\n        /* \"#utility.yul\":4020:4037   */\n      add\n        /* \"#utility.yul\":4013:4060   */\n      mstore\n        /* \"#utility.yul\":4077:4208   */\n      tag_110\n        /* \"#utility.yul\":4203:4207   */\n      dup2\n        /* \"#utility.yul\":4077:4208   */\n      tag_75\n      jump\t// in\n    tag_110:\n        /* \"#utility.yul\":4069:4208   */\n      swap1\n      pop\n        /* \"#utility.yul\":3796:4215   */\n      swap2\n      swap1\n      pop\n      jump\t// out\n        /* \"#utility.yul\":4221:4400   */\n    tag_76:\n        /* \"#utility.yul\":4361:4392   */\n      0x4e6f2072656e7420617661696c61626c6520746f207769746864726177000000\n        /* \"#utility.yul\":4357:4358   */\n      0x00\n        /* \"#utility.yul\":4349:4355   */\n      dup3\n        /* \"#utility.yul\":4345:4359   */\n      add\n        /* \"#utility.yul\":4338:4393   */\n      mstore\n        /* \"#utility.yul\":4221:4400   */\n      pop\n      jump\t// out\n        /* \"#utility.yul\":4406:4772   */\n    tag_77:\n        /* \"#utility.yul\":4548:4551   */\n      0x00\n        /* \"#utility.yul\":4569:4636   */\n      tag_113\n        /* \"#utility.yul\":4633:4635   */\n      0x1d\n        /* \"#utility.yul\":4628:4631   */\n      dup4\n        /* \"#utility.yul\":4569:4636   */\n      tag_69\n      jump\t// in\n    tag_113:\n        /* \"#utility.yul\":4562:4636   */\n      swap2\n      pop\n        /* \"#utility.yul\":4645:4738   */\n      tag_114\n        /* \"#utility.yul\":4734:4737   */\n      dup3\n        /* \"#utility.yul\":4645:4738   */\n      tag_76\n      jump\t// in\n    tag_114:\n        /* \"#utility.yul\":4763:4765   */\n      0x20\n        /* \"#utility.yul\":4758:4761   */\n      dup3\n        /* \"#utility.yul\":4754:4766   */\n      add\n        /* \"#utility.yul\":4747:4766   */\n      swap1\n      pop\n        /* \"#utility.yul\":4406:4772   */\n      swap2\n      swap1\n      pop\n      jump\t// out\n        /* \"#utility.yul\":4778:5197   */\n    tag_55:\n        /* \"#utility.yul\":4944:4948   */\n      0x00\n        /* \"#utility.yul\":4982:4984   */\n      0x20\n        /* \"#utility.yul\":4971:4980   */\n      dup3\n        /* \"#utility.yul\":4967:4985   */\n      add\n        /* \"#utility.yul\":4959:4985   */\n      swap1\n      pop\n        /* \"#utility.yul\":5031:5040   */\n      dup2\n        /* \"#utility.yul\":5025:5029   */\n      dup2\n        /* \"#utility.yul\":5021:5041   */\n      sub\n        /* \"#utility.yul\":5017:5018   */\n      0x00\n        /* \"#utility.yul\":5006:5015   */\n      dup4\n        /* \"#utility.yul\":5002:5019   */\n      add\n        /* \"#utility.yul\":4995:5042   */\n      mstore\n        /* \"#utility.yul\":5059:5190   */\n      tag_116\n        /* \"#utility.yul\":5185:5189   */\n      dup2\n        /* \"#utility.yul\":5059:5190   */\n      tag_77\n      jump\t// in\n    tag_116:\n        /* \"#utility.yul\":5051:5190   */\n      swap1\n      pop\n        /* \"#utility.yul\":4778:5197   */\n      swap2\n      swap1\n      pop\n      jump\t// out\n        /* \"#utility.yul\":5203:5383   */\n    tag_78:\n        /* \"#utility.yul\":5251:5328   */\n      0x4e487b7100000000000000000000000000000000000000000000000000000000\n        /* \"#utility.yul\":5248:5249   */\n      0x00\n        /* \"#utility.yul\":5241:5329   */\n      mstore\n        /* \"#utility.yul\":5348:5352   */\n      0x11\n        /* \"#utility.yul\":5345:5346   */\n      0x04\n        /* \"#utility.yul\":5338:5353   */\n      mstore\n        /* \"#utility.yul\":5372:5376   */\n      0x24\n        /* \"#utility.yul\":5369:5370   */\n      0x00\n        /* \"#utility.yul\":5362:5377   */\n      revert\n        /* \"#utility.yul\":5389:5580   */\n    tag_63:\n        /* \"#utility.yul\":5429:5432   */\n      0x00\n        /* \"#utility.yul\":5448:5468   */\n      tag_119\n        /* \"#utility.yul\":5466:5467   */\n      dup3\n        /* \"#utility.yul\":5448:5468   */\n      tag_64\n      jump\t// in\n    tag_119:\n        /* \"#utility.yul\":5443:5468   */\n      swap2\n      pop\n        /* \"#utility.yul\":5482:5502   */\n      tag_120\n        /* \"#utility.yul\":5500:5501   */\n      dup4\n        /* \"#utility.yul\":5482:5502   */\n      tag_64\n      jump\t// in\n    tag_120:\n        /* \"#utility.yul\":5477:5502   */\n      swap3\n      pop\n        /* \"#utility.yul\":5525:5526   */\n      dup3\n        /* \"#utility.yul\":5522:5523   */\n      dup3\n        /* \"#utility.yul\":5518:5527   */\n      add\n        /* \"#utility.yul\":5511:5527   */\n      swap1\n      pop\n        /* \"#utility.yul\":5546:5549   */\n      dup1\n        /* \"#utility.yul\":5543:5544   */\n      dup3\n        /* \"#utility.yul\":5540:5550   */\n      gt\n        /* \"#utility.yul\":5537:5573   */\n      iszero\n      tag_121\n      jumpi\n        /* \"#utility.yul\":5553:5571   */\n      tag_122\n      tag_78\n      jump\t// in\n    tag_122:\n        /* \"#utility.yul\":5537:5573   */\n    tag_121:\n        /* \"#utility.yul\":5389:5580   */\n      swap3\n      swap2\n      pop\n      pop\n      jump\t// out\n\n    auxdata: 0xa2646970667358221220d37a4c2ded21ac86baf25c2f90e59137f9aff43a06e163611adcf84ec237cf5d64736f6c63430008120033\n}\n",
				"bytecode": {
					"linkReferences": {},
					"object": "6080604052735b38da6a701c568545dcfcb03fcb875f56beddc4600160006101000a81548173ffffffffffffffffffffffffffffffffffffffff021916908373ffffffffffffffffffffffffffffffffffffffff160217905550670de0b6b3a764000060035534801561007157600080fd5b50336000806101000a81548173ffffffffffffffffffffffffffffffffffffffff021916908373ffffffffffffffffffffffffffffffffffffffff1602179055506107a2806100c16000396000f3fe60806040526004361061007b5760003560e01c80636322182e1161004e5780636322182e1461010b5780638da5cb5b14610115578063a709c4fe14610140578063adf077911461014a5761007b565b806312065fe014610080578063322e4d2d146100ab57806342c63dae146100d65780634b7851f7146100e0575b600080fd5b34801561008c57600080fd5b50610095610175565b6040516100a291906104ab565b60405180910390f35b3480156100b757600080fd5b506100c061017d565b6040516100cd91906104ab565b60405180910390f35b6100de610183565b005b3480156100ec57600080fd5b506100f5610259565b60405161010291906104ab565b60405180910390f35b61011361025f565b005b34801561012157600080fd5b5061012a61039d565b6040516101379190610507565b60405180910390f35b6101486103c1565b005b34801561015657600080fd5b5061015f61046c565b60405161016c9190610507565b60405180910390f35b600047905090565b60035481565b600160009054906101000a900473ffffffffffffffffffffffffffffffffffffffff1673ffffffffffffffffffffffffffffffffffffffff163373ffffffffffffffffffffffffffffffffffffffff1614610213576040517f08c379a000000000000000000000000000000000000000000000000000000000815260040161020a906105a5565b60405180910390fd5b6003543414610257576040517f08c379a000000000000000000000000000000000000000000000000000000000815260040161024e90610611565b60405180910390fd5b565b60025481565b60008054906101000a900473ffffffffffffffffffffffffffffffffffffffff1673ffffffffffffffffffffffffffffffffffffffff163373ffffffffffffffffffffffffffffffffffffffff16146102ed576040517f08c379a00000000000000000000000000000000000000000000000000000000081526004016102e49061067d565b60405180910390fd5b600060025411610332576040517f08c379a0000000000000000000000000000000000000000000000000000000008152600401610329906106e9565b60405180910390fd5b60008054906101000a900473ffffffffffffffffffffffffffffffffffffffff1673ffffffffffffffffffffffffffffffffffffffff166108fc6002549081150290604051600060405180830381858888f1935050505015801561039a573d6000803e3d6000fd5b50565b60008054906101000a900473ffffffffffffffffffffffffffffffffffffffff1681565b600160009054906101000a900473ffffffffffffffffffffffffffffffffffffffff1673ffffffffffffffffffffffffffffffffffffffff163373ffffffffffffffffffffffffffffffffffffffff1614610451576040517f08c379a0000000000000000000000000000000000000000000000000000000008152600401610448906105a5565b60405180910390fd5b34600260008282546104639190610738565b92505081905550565b600160009054906101000a900473ffffffffffffffffffffffffffffffffffffffff1681565b6000819050919050565b6104a581610492565b82525050565b60006020820190506104c0600083018461049c565b92915050565b600073ffffffffffffffffffffffffffffffffffffffff82169050919050565b60006104f1826104c6565b9050919050565b610501816104e6565b82525050565b600060208201905061051c60008301846104f8565b92915050565b600082825260208201905092915050565b7f4f6e6c79207468652074656e616e742068617320746f2070617920746865207360008201527f65637572697479206465706f73697420616e64207468652072656e7420000000602082015250565b600061058f603d83610522565b915061059a82610533565b604082019050919050565b600060208201905081810360008301526105be81610582565b9050919050565b7f4465706f73697420616d6f756e7420646f6573206e6f74206d61746368000000600082015250565b60006105fb601d83610522565b9150610606826105c5565b602082019050919050565b6000602082019050818103600083015261062a816105ee565b9050919050565b7f4f6e6c7920746865206f776e65722063616e2077697468647261772072656e74600082015250565b6000610667602083610522565b915061067282610631565b602082019050919050565b600060208201905081810360008301526106968161065a565b9050919050565b7f4e6f2072656e7420617661696c61626c6520746f207769746864726177000000600082015250565b60006106d3601d83610522565b91506106de8261069d565b602082019050919050565b60006020820190508181036000830152610702816106c6565b9050919050565b7f4e487b7100000000000000000000000000000000000000000000000000000000600052601160045260246000fd5b600061074382610492565b915061074e83610492565b925082820190508082111561076657610765610709565b5b9291505056fea2646970667358221220d37a4c2ded21ac86baf25c2f90e59137f9aff43a06e163611adcf84ec237cf5d64736f6c63430008120033",
					"opcodes": "PUSH1 0x80 PUSH1 0x40 MSTORE PUSH20 0x5B38DA6A701C568545DCFCB03FCB875F56BEDDC4 PUSH1 0x1 PUSH1 0x0 PUSH2 0x100 EXP DUP2 SLOAD DUP2 PUSH20 0xFFFFFFFFFFFFFFFFFFFFFFFFFFFFFFFFFFFFFFFF MUL NOT AND SWAP1 DUP4 PUSH20 0xFFFFFFFFFFFFFFFFFFFFFFFFFFFFFFFFFFFFFFFF AND MUL OR SWAP1 SSTORE POP PUSH8 0xDE0B6B3A7640000 PUSH1 0x3 SSTORE CALLVALUE DUP1 ISZERO PUSH2 0x71 JUMPI PUSH1 0x0 DUP1 REVERT JUMPDEST POP CALLER PUSH1 0x0 DUP1 PUSH2 0x100 EXP DUP2 SLOAD DUP2 PUSH20 0xFFFFFFFFFFFFFFFFFFFFFFFFFFFFFFFFFFFFFFFF MUL NOT AND SWAP1 DUP4 PUSH20 0xFFFFFFFFFFFFFFFFFFFFFFFFFFFFFFFFFFFFFFFF AND MUL OR SWAP1 SSTORE POP PUSH2 0x7A2 DUP1 PUSH2 0xC1 PUSH1 0x0 CODECOPY PUSH1 0x0 RETURN INVALID PUSH1 0x80 PUSH1 0x40 MSTORE PUSH1 0x4 CALLDATASIZE LT PUSH2 0x7B JUMPI PUSH1 0x0 CALLDATALOAD PUSH1 0xE0 SHR DUP1 PUSH4 0x6322182E GT PUSH2 0x4E JUMPI DUP1 PUSH4 0x6322182E EQ PUSH2 0x10B JUMPI DUP1 PUSH4 0x8DA5CB5B EQ PUSH2 0x115 JUMPI DUP1 PUSH4 0xA709C4FE EQ PUSH2 0x140 JUMPI DUP1 PUSH4 0xADF07791 EQ PUSH2 0x14A JUMPI PUSH2 0x7B JUMP JUMPDEST DUP1 PUSH4 0x12065FE0 EQ PUSH2 0x80 JUMPI DUP1 PUSH4 0x322E4D2D EQ PUSH2 0xAB JUMPI DUP1 PUSH4 0x42C63DAE EQ PUSH2 0xD6 JUMPI DUP1 PUSH4 0x4B7851F7 EQ PUSH2 0xE0 JUMPI JUMPDEST PUSH1 0x0 DUP1 REVERT JUMPDEST CALLVALUE DUP1 ISZERO PUSH2 0x8C JUMPI PUSH1 0x0 DUP1 REVERT JUMPDEST POP PUSH2 0x95 PUSH2 0x175 JUMP JUMPDEST PUSH1 0x40 MLOAD PUSH2 0xA2 SWAP2 SWAP1 PUSH2 0x4AB JUMP JUMPDEST PUSH1 0x40 MLOAD DUP1 SWAP2 SUB SWAP1 RETURN JUMPDEST CALLVALUE DUP1 ISZERO PUSH2 0xB7 JUMPI PUSH1 0x0 DUP1 REVERT JUMPDEST POP PUSH2 0xC0 PUSH2 0x17D JUMP JUMPDEST PUSH1 0x40 MLOAD PUSH2 0xCD SWAP2 SWAP1 PUSH2 0x4AB JUMP JUMPDEST PUSH1 0x40 MLOAD DUP1 SWAP2 SUB SWAP1 RETURN JUMPDEST PUSH2 0xDE PUSH2 0x183 JUMP JUMPDEST STOP JUMPDEST CALLVALUE DUP1 ISZERO PUSH2 0xEC JUMPI PUSH1 0x0 DUP1 REVERT JUMPDEST POP PUSH2 0xF5 PUSH2 0x259 JUMP JUMPDEST PUSH1 0x40 MLOAD PUSH2 0x102 SWAP2 SWAP1 PUSH2 0x4AB JUMP JUMPDEST PUSH1 0x40 MLOAD DUP1 SWAP2 SUB SWAP1 RETURN JUMPDEST PUSH2 0x113 PUSH2 0x25F JUMP JUMPDEST STOP JUMPDEST CALLVALUE DUP1 ISZERO PUSH2 0x121 JUMPI PUSH1 0x0 DUP1 REVERT JUMPDEST POP PUSH2 0x12A PUSH2 0x39D JUMP JUMPDEST PUSH1 0x40 MLOAD PUSH2 0x137 SWAP2 SWAP1 PUSH2 0x507 JUMP JUMPDEST PUSH1 0x40 MLOAD DUP1 SWAP2 SUB SWAP1 RETURN JUMPDEST PUSH2 0x148 PUSH2 0x3C1 JUMP JUMPDEST STOP JUMPDEST CALLVALUE DUP1 ISZERO PUSH2 0x156 JUMPI PUSH1 0x0 DUP1 REVERT JUMPDEST POP PUSH2 0x15F PUSH2 0x46C JUMP JUMPDEST PUSH1 0x40 MLOAD PUSH2 0x16C SWAP2 SWAP1 PUSH2 0x507 JUMP JUMPDEST PUSH1 0x40 MLOAD DUP1 SWAP2 SUB SWAP1 RETURN JUMPDEST PUSH1 0x0 SELFBALANCE SWAP1 POP SWAP1 JUMP JUMPDEST PUSH1 0x3 SLOAD DUP2 JUMP JUMPDEST PUSH1 0x1 PUSH1 0x0 SWAP1 SLOAD SWAP1 PUSH2 0x100 EXP SWAP1 DIV PUSH20 0xFFFFFFFFFFFFFFFFFFFFFFFFFFFFFFFFFFFFFFFF AND PUSH20 0xFFFFFFFFFFFFFFFFFFFFFFFFFFFFFFFFFFFFFFFF AND CALLER PUSH20 0xFFFFFFFFFFFFFFFFFFFFFFFFFFFFFFFFFFFFFFFF AND EQ PUSH2 0x213 JUMPI PUSH1 0x40 MLOAD PUSH32 0x8C379A000000000000000000000000000000000000000000000000000000000 DUP2 MSTORE PUSH1 0x4 ADD PUSH2 0x20A SWAP1 PUSH2 0x5A5 JUMP JUMPDEST PUSH1 0x40 MLOAD DUP1 SWAP2 SUB SWAP1 REVERT JUMPDEST PUSH1 0x3 SLOAD CALLVALUE EQ PUSH2 0x257 JUMPI PUSH1 0x40 MLOAD PUSH32 0x8C379A000000000000000000000000000000000000000000000000000000000 DUP2 MSTORE PUSH1 0x4 ADD PUSH2 0x24E SWAP1 PUSH2 0x611 JUMP JUMPDEST PUSH1 0x40 MLOAD DUP1 SWAP2 SUB SWAP1 REVERT JUMPDEST JUMP JUMPDEST PUSH1 0x2 SLOAD DUP2 JUMP JUMPDEST PUSH1 0x0 DUP1 SLOAD SWAP1 PUSH2 0x100 EXP SWAP1 DIV PUSH20 0xFFFFFFFFFFFFFFFFFFFFFFFFFFFFFFFFFFFFFFFF AND PUSH20 0xFFFFFFFFFFFFFFFFFFFFFFFFFFFFFFFFFFFFFFFF AND CALLER PUSH20 0xFFFFFFFFFFFFFFFFFFFFFFFFFFFFFFFFFFFFFFFF AND EQ PUSH2 0x2ED JUMPI PUSH1 0x40 MLOAD PUSH32 0x8C379A000000000000000000000000000000000000000000000000000000000 DUP2 MSTORE PUSH1 0x4 ADD PUSH2 0x2E4 SWAP1 PUSH2 0x67D JUMP JUMPDEST PUSH1 0x40 MLOAD DUP1 SWAP2 SUB SWAP1 REVERT JUMPDEST PUSH1 0x0 PUSH1 0x2 SLOAD GT PUSH2 0x332 JUMPI PUSH1 0x40 MLOAD PUSH32 0x8C379A000000000000000000000000000000000000000000000000000000000 DUP2 MSTORE PUSH1 0x4 ADD PUSH2 0x329 SWAP1 PUSH2 0x6E9 JUMP JUMPDEST PUSH1 0x40 MLOAD DUP1 SWAP2 SUB SWAP1 REVERT JUMPDEST PUSH1 0x0 DUP1 SLOAD SWAP1 PUSH2 0x100 EXP SWAP1 DIV PUSH20 0xFFFFFFFFFFFFFFFFFFFFFFFFFFFFFFFFFFFFFFFF AND PUSH20 0xFFFFFFFFFFFFFFFFFFFFFFFFFFFFFFFFFFFFFFFF AND PUSH2 0x8FC PUSH1 0x2 SLOAD SWAP1 DUP2 ISZERO MUL SWAP1 PUSH1 0x40 MLOAD PUSH1 0x0 PUSH1 0x40 MLOAD DUP1 DUP4 SUB DUP2 DUP6 DUP9 DUP9 CALL SWAP4 POP POP POP POP ISZERO DUP1 ISZERO PUSH2 0x39A JUMPI RETURNDATASIZE PUSH1 0x0 DUP1 RETURNDATACOPY RETURNDATASIZE PUSH1 0x0 REVERT JUMPDEST POP JUMP JUMPDEST PUSH1 0x0 DUP1 SLOAD SWAP1 PUSH2 0x100 EXP SWAP1 DIV PUSH20 0xFFFFFFFFFFFFFFFFFFFFFFFFFFFFFFFFFFFFFFFF AND DUP2 JUMP JUMPDEST PUSH1 0x1 PUSH1 0x0 SWAP1 SLOAD SWAP1 PUSH2 0x100 EXP SWAP1 DIV PUSH20 0xFFFFFFFFFFFFFFFFFFFFFFFFFFFFFFFFFFFFFFFF AND PUSH20 0xFFFFFFFFFFFFFFFFFFFFFFFFFFFFFFFFFFFFFFFF AND CALLER PUSH20 0xFFFFFFFFFFFFFFFFFFFFFFFFFFFFFFFFFFFFFFFF AND EQ PUSH2 0x451 JUMPI PUSH1 0x40 MLOAD PUSH32 0x8C379A000000000000000000000000000000000000000000000000000000000 DUP2 MSTORE PUSH1 0x4 ADD PUSH2 0x448 SWAP1 PUSH2 0x5A5 JUMP JUMPDEST PUSH1 0x40 MLOAD DUP1 SWAP2 SUB SWAP1 REVERT JUMPDEST CALLVALUE PUSH1 0x2 PUSH1 0x0 DUP3 DUP3 SLOAD PUSH2 0x463 SWAP2 SWAP1 PUSH2 0x738 JUMP JUMPDEST SWAP3 POP POP DUP2 SWAP1 SSTORE POP JUMP JUMPDEST PUSH1 0x1 PUSH1 0x0 SWAP1 SLOAD SWAP1 PUSH2 0x100 EXP SWAP1 DIV PUSH20 0xFFFFFFFFFFFFFFFFFFFFFFFFFFFFFFFFFFFFFFFF AND DUP2 JUMP JUMPDEST PUSH1 0x0 DUP2 SWAP1 POP SWAP2 SWAP1 POP JUMP JUMPDEST PUSH2 0x4A5 DUP2 PUSH2 0x492 JUMP JUMPDEST DUP3 MSTORE POP POP JUMP JUMPDEST PUSH1 0x0 PUSH1 0x20 DUP3 ADD SWAP1 POP PUSH2 0x4C0 PUSH1 0x0 DUP4 ADD DUP5 PUSH2 0x49C JUMP JUMPDEST SWAP3 SWAP2 POP POP JUMP JUMPDEST PUSH1 0x0 PUSH20 0xFFFFFFFFFFFFFFFFFFFFFFFFFFFFFFFFFFFFFFFF DUP3 AND SWAP1 POP SWAP2 SWAP1 POP JUMP JUMPDEST PUSH1 0x0 PUSH2 0x4F1 DUP3 PUSH2 0x4C6 JUMP JUMPDEST SWAP1 POP SWAP2 SWAP1 POP JUMP JUMPDEST PUSH2 0x501 DUP2 PUSH2 0x4E6 JUMP JUMPDEST DUP3 MSTORE POP POP JUMP JUMPDEST PUSH1 0x0 PUSH1 0x20 DUP3 ADD SWAP1 POP PUSH2 0x51C PUSH1 0x0 DUP4 ADD DUP5 PUSH2 0x4F8 JUMP JUMPDEST SWAP3 SWAP2 POP POP JUMP JUMPDEST PUSH1 0x0 DUP3 DUP3 MSTORE PUSH1 0x20 DUP3 ADD SWAP1 POP SWAP3 SWAP2 POP POP JUMP JUMPDEST PUSH32 0x4F6E6C79207468652074656E616E742068617320746F20706179207468652073 PUSH1 0x0 DUP3 ADD MSTORE PUSH32 0x65637572697479206465706F73697420616E64207468652072656E7420000000 PUSH1 0x20 DUP3 ADD MSTORE POP JUMP JUMPDEST PUSH1 0x0 PUSH2 0x58F PUSH1 0x3D DUP4 PUSH2 0x522 JUMP JUMPDEST SWAP2 POP PUSH2 0x59A DUP3 PUSH2 0x533 JUMP JUMPDEST PUSH1 0x40 DUP3 ADD SWAP1 POP SWAP2 SWAP1 POP JUMP JUMPDEST PUSH1 0x0 PUSH1 0x20 DUP3 ADD SWAP1 POP DUP2 DUP2 SUB PUSH1 0x0 DUP4 ADD MSTORE PUSH2 0x5BE DUP2 PUSH2 0x582 JUMP JUMPDEST SWAP1 POP SWAP2 SWAP1 POP JUMP JUMPDEST PUSH32 0x4465706F73697420616D6F756E7420646F6573206E6F74206D61746368000000 PUSH1 0x0 DUP3 ADD MSTORE POP JUMP JUMPDEST PUSH1 0x0 PUSH2 0x5FB PUSH1 0x1D DUP4 PUSH2 0x522 JUMP JUMPDEST SWAP2 POP PUSH2 0x606 DUP3 PUSH2 0x5C5 JUMP JUMPDEST PUSH1 0x20 DUP3 ADD SWAP1 POP SWAP2 SWAP1 POP JUMP JUMPDEST PUSH1 0x0 PUSH1 0x20 DUP3 ADD SWAP1 POP DUP2 DUP2 SUB PUSH1 0x0 DUP4 ADD MSTORE PUSH2 0x62A DUP2 PUSH2 0x5EE JUMP JUMPDEST SWAP1 POP SWAP2 SWAP1 POP JUMP JUMPDEST PUSH32 0x4F6E6C7920746865206F776E65722063616E2077697468647261772072656E74 PUSH1 0x0 DUP3 ADD MSTORE POP JUMP JUMPDEST PUSH1 0x0 PUSH2 0x667 PUSH1 0x20 DUP4 PUSH2 0x522 JUMP JUMPDEST SWAP2 POP PUSH2 0x672 DUP3 PUSH2 0x631 JUMP JUMPDEST PUSH1 0x20 DUP3 ADD SWAP1 POP SWAP2 SWAP1 POP JUMP JUMPDEST PUSH1 0x0 PUSH1 0x20 DUP3 ADD SWAP1 POP DUP2 DUP2 SUB PUSH1 0x0 DUP4 ADD MSTORE PUSH2 0x696 DUP2 PUSH2 0x65A JUMP JUMPDEST SWAP1 POP SWAP2 SWAP1 POP JUMP JUMPDEST PUSH32 0x4E6F2072656E7420617661696C61626C6520746F207769746864726177000000 PUSH1 0x0 DUP3 ADD MSTORE POP JUMP JUMPDEST PUSH1 0x0 PUSH2 0x6D3 PUSH1 0x1D DUP4 PUSH2 0x522 JUMP JUMPDEST SWAP2 POP PUSH2 0x6DE DUP3 PUSH2 0x69D JUMP JUMPDEST PUSH1 0x20 DUP3 ADD SWAP1 POP SWAP2 SWAP1 POP JUMP JUMPDEST PUSH1 0x0 PUSH1 0x20 DUP3 ADD SWAP1 POP DUP2 DUP2 SUB PUSH1 0x0 DUP4 ADD MSTORE PUSH2 0x702 DUP2 PUSH2 0x6C6 JUMP JUMPDEST SWAP1 POP SWAP2 SWAP1 POP JUMP JUMPDEST PUSH32 0x4E487B7100000000000000000000000000000000000000000000000000000000 PUSH1 0x0 MSTORE PUSH1 0x11 PUSH1 0x4 MSTORE PUSH1 0x24 PUSH1 0x0 REVERT JUMPDEST PUSH1 0x0 PUSH2 0x743 DUP3 PUSH2 0x492 JUMP JUMPDEST SWAP2 POP PUSH2 0x74E DUP4 PUSH2 0x492 JUMP JUMPDEST SWAP3 POP DUP3 DUP3 ADD SWAP1 POP DUP1 DUP3 GT ISZERO PUSH2 0x766 JUMPI PUSH2 0x765 PUSH2 0x709 JUMP JUMPDEST JUMPDEST SWAP3 SWAP2 POP POP JUMP INVALID LOG2 PUSH5 0x6970667358 0x22 SLT KECCAK256 0xD3 PUSH27 0x4C2DED21AC86BAF25C2F90E59137F9AFF43A06E163611ADCF84EC2 CALLDATACOPY 0xCF 0x5D PUSH5 0x736F6C6343 STOP ADDMOD SLT STOP CALLER "
				},
				"gasEstimates": {
					"creation": {
						"codeDepositCost": "390800",
						"executionCost": "71069",
						"totalCost": "461869"
					},
					"external": {
						"depositamount()": "2452",
						"getBalance()": "340",
						"owner()": "2533",
						"payRent()": "infinite",
						"paySecurityDeposit()": "4746",
						"rentcollected()": "2496",
						"tenant()": "2580",
						"withdrawRent()": "infinite"
					}
				},
				"methodIdentifiers": {
					"depositamount()": "322e4d2d",
					"getBalance()": "12065fe0",
					"owner()": "8da5cb5b",
					"payRent()": "a709c4fe",
					"paySecurityDeposit()": "42c63dae",
					"rentcollected()": "4b7851f7",
					"tenant()": "adf07791",
					"withdrawRent()": "6322182e"
				}
			},
			"storageLayout": {
				"storage": [
					{
						"astId": 3,
						"contract": "Bibek_pay_original.sol:Payment",
						"label": "owner",
						"offset": 0,
						"slot": "0",
						"type": "t_address"
					},
					{
						"astId": 6,
						"contract": "Bibek_pay_original.sol:Payment",
						"label": "tenant",
						"offset": 0,
						"slot": "1",
						"type": "t_address"
					},
					{
						"astId": 8,
						"contract": "Bibek_pay_original.sol:Payment",
						"label": "rentcollected",
						"offset": 0,
						"slot": "2",
						"type": "t_uint256"
					},
					{
						"astId": 11,
						"contract": "Bibek_pay_original.sol:Payment",
						"label": "depositamount",
						"offset": 0,
						"slot": "3",
						"type": "t_uint256"
					}
				],
				"types": {
					"t_address": {
						"encoding": "inplace",
						"label": "address",
						"numberOfBytes": "20"
					},
					"t_uint256": {
						"encoding": "inplace",
						"label": "uint256",
						"numberOfBytes": "32"
					}
				}
			},
			"userdoc": {
				"kind": "user",
				"methods": {},
				"version": 1
			}
		}
	}
}