{
	"contract git.sol": {
		"RealEstate": {
			"abi": [
				{
					"inputs": [],
					"stateMutability": "nonpayable",
					"type": "constructor"
				},
				{
					"anonymous": false,
					"inputs": [
						{
							"indexed": true,
							"internalType": "address",
							"name": "owner",
							"type": "address"
						},
						{
							"indexed": true,
							"internalType": "address",
							"name": "spender",
							"type": "address"
						},
						{
							"indexed": false,
							"internalType": "uint256",
							"name": "value",
							"type": "uint256"
						}
					],
					"name": "Approval",
					"type": "event"
				},
				{
					"anonymous": false,
					"inputs": [
						{
							"indexed": true,
							"internalType": "address",
							"name": "from",
							"type": "address"
						},
						{
							"indexed": true,
							"internalType": "address",
							"name": "to",
							"type": "address"
						},
						{
							"indexed": false,
							"internalType": "uint256",
							"name": "value",
							"type": "uint256"
						}
					],
					"name": "Transfer",
					"type": "event"
				},
				{
					"inputs": [
						{
							"internalType": "address",
							"name": "_property",
							"type": "address"
						}
					],
					"name": "DecideNetRentmonth",
					"outputs": [],
					"stateMutability": "nonpayable",
					"type": "function"
				},
				{
					"inputs": [
						{
							"internalType": "address",
							"name": "_property",
							"type": "address"
						}
					],
					"name": "DecideNetRentyear",
					"outputs": [],
					"stateMutability": "nonpayable",
					"type": "function"
				},
				{
					"inputs": [
						{
							"internalType": "address",
							"name": "_property",
							"type": "address"
						}
					],
					"name": "DecideTokenprice",
					"outputs": [],
					"stateMutability": "nonpayable",
					"type": "function"
				},
				{
					"inputs": [
						{
							"internalType": "address",
							"name": "_property",
							"type": "address"
						}
					],
					"name": "DecideTotalInvestment",
					"outputs": [],
					"stateMutability": "nonpayable",
					"type": "function"
				},
				{
					"inputs": [
						{
							"internalType": "address",
							"name": "",
							"type": "address"
						}
					],
					"name": "PropertykiDetails",
					"outputs": [
						{
							"internalType": "string",
							"name": "Fulladress",
							"type": "string"
						},
						{
							"internalType": "string",
							"name": "PropertyManager",
							"type": "string"
						},
						{
							"internalType": "uint256",
							"name": "OfferingPercent",
							"type": "uint256"
						}
					],
					"stateMutability": "view",
					"type": "function"
				},
				{
					"inputs": [
						{
							"internalType": "address",
							"name": "",
							"type": "address"
						}
					],
					"name": "PropertykiFinances",
					"outputs": [
						{
							"internalType": "uint256",
							"name": "Tokenprice",
							"type": "uint256"
						},
						{
							"internalType": "uint256",
							"name": "TokensNumbers",
							"type": "uint256"
						},
						{
							"internalType": "uint256",
							"name": "MonthlyCosts",
							"type": "uint256"
						},
						{
							"internalType": "uint256",
							"name": "NetRentyear",
							"type": "uint256"
						},
						{
							"internalType": "uint256",
							"name": "NetRentmonth",
							"type": "uint256"
						},
						{
							"internalType": "uint256",
							"name": "TotalInvestment",
							"type": "uint256"
						},
						{
							"internalType": "uint256",
							"name": "Interiorsize",
							"type": "uint256"
						},
						{
							"internalType": "uint256",
							"name": "Bedroom",
							"type": "uint256"
						},
						{
							"internalType": "uint256",
							"name": "Bathroom",
							"type": "uint256"
						},
						{
							"internalType": "uint256",
							"name": "LotSizeinsqft",
							"type": "uint256"
						}
					],
					"stateMutability": "view",
					"type": "function"
				},
				{
					"inputs": [
						{
							"internalType": "address",
							"name": "owner",
							"type": "address"
						},
						{
							"internalType": "address",
							"name": "spender",
							"type": "address"
						}
					],
					"name": "allowance",
					"outputs": [
						{
							"internalType": "uint256",
							"name": "",
							"type": "uint256"
						}
					],
					"stateMutability": "view",
					"type": "function"
				},
				{
					"inputs": [
						{
							"internalType": "address",
							"name": "spender",
							"type": "address"
						},
						{
							"internalType": "uint256",
							"name": "amount",
							"type": "uint256"
						}
					],
					"name": "approve",
					"outputs": [
						{
							"internalType": "bool",
							"name": "",
							"type": "bool"
						}
					],
					"stateMutability": "nonpayable",
					"type": "function"
				},
				{
					"inputs": [
						{
							"internalType": "address",
							"name": "account",
							"type": "address"
						}
					],
					"name": "balanceOf",
					"outputs": [
						{
							"internalType": "uint256",
							"name": "",
							"type": "uint256"
						}
					],
					"stateMutability": "view",
					"type": "function"
				},
				{
					"inputs": [],
					"name": "decimals",
					"outputs": [
						{
							"internalType": "uint8",
							"name": "",
							"type": "uint8"
						}
					],
					"stateMutability": "view",
					"type": "function"
				},
				{
					"inputs": [
						{
							"internalType": "address",
							"name": "spender",
							"type": "address"
						},
						{
							"internalType": "uint256",
							"name": "subtractedValue",
							"type": "uint256"
						}
					],
					"name": "decreaseAllowance",
					"outputs": [
						{
							"internalType": "bool",
							"name": "",
							"type": "bool"
						}
					],
					"stateMutability": "nonpayable",
					"type": "function"
				},
				{
					"inputs": [
						{
							"internalType": "address",
							"name": "spender",
							"type": "address"
						},
						{
							"internalType": "uint256",
							"name": "addedValue",
							"type": "uint256"
						}
					],
					"name": "increaseAllowance",
					"outputs": [
						{
							"internalType": "bool",
							"name": "",
							"type": "bool"
						}
					],
					"stateMutability": "nonpayable",
					"type": "function"
				},
				{
					"inputs": [
						{
							"internalType": "address",
							"name": "_property",
							"type": "address"
						}
					],
					"name": "minttheTokenInvestment",
					"outputs": [],
					"stateMutability": "nonpayable",
					"type": "function"
				},
				{
					"inputs": [
						{
							"internalType": "address",
							"name": "_property",
							"type": "address"
						}
					],
					"name": "minttheTokenRentpermonth",
					"outputs": [],
					"stateMutability": "nonpayable",
					"type": "function"
				},
				{
					"inputs": [
						{
							"internalType": "address",
							"name": "_property",
							"type": "address"
						}
					],
					"name": "minttheTokenRentperyear",
					"outputs": [],
					"stateMutability": "nonpayable",
					"type": "function"
				},
				{
					"inputs": [
						{
							"internalType": "address",
							"name": "_property",
							"type": "address"
						}
					],
					"name": "minttheTokenprice",
					"outputs": [],
					"stateMutability": "nonpayable",
					"type": "function"
				},
				{
					"inputs": [],
					"name": "name",
					"outputs": [
						{
							"internalType": "string",
							"name": "",
							"type": "string"
						}
					],
					"stateMutability": "view",
					"type": "function"
				},
				{
					"inputs": [],
					"name": "owner",
					"outputs": [
						{
							"internalType": "address",
							"name": "",
							"type": "address"
						}
					],
					"stateMutability": "view",
					"type": "function"
				},
				{
					"inputs": [],
					"name": "symbol",
					"outputs": [
						{
							"internalType": "string",
							"name": "",
							"type": "string"
						}
					],
					"stateMutability": "view",
					"type": "function"
				},
				{
					"inputs": [],
					"name": "totalSupply",
					"outputs": [
						{
							"internalType": "uint256",
							"name": "",
							"type": "uint256"
						}
					],
					"stateMutability": "view",
					"type": "function"
				},
				{
					"inputs": [
						{
							"internalType": "address",
							"name": "to",
							"type": "address"
						},
						{
							"internalType": "uint256",
							"name": "amount",
							"type": "uint256"
						}
					],
					"name": "transfer",
					"outputs": [
						{
							"internalType": "bool",
							"name": "",
							"type": "bool"
						}
					],
					"stateMutability": "nonpayable",
					"type": "function"
				},
				{
					"inputs": [
						{
							"internalType": "address",
							"name": "from",
							"type": "address"
						},
						{
							"internalType": "address",
							"name": "to",
							"type": "address"
						},
						{
							"internalType": "uint256",
							"name": "amount",
							"type": "uint256"
						}
					],
					"name": "transferFrom",
					"outputs": [
						{
							"internalType": "bool",
							"name": "",
							"type": "bool"
						}
					],
					"stateMutability": "nonpayable",
					"type": "function"
				}
			],
			"devdoc": {
				"events": {
					"Approval(address,address,uint256)": {
						"details": "Emitted when the allowance of a `spender` for an `owner` is set by a call to {approve}. `value` is the new allowance."
					},
					"Transfer(address,address,uint256)": {
						"details": "Emitted when `value` tokens are moved from one account (`from`) to another (`to`). Note that `value` may be zero."
					}
				},
				"kind": "dev",
				"methods": {
					"allowance(address,address)": {
						"details": "See {IERC20-allowance}."
					},
					"approve(address,uint256)": {
						"details": "See {IERC20-approve}. NOTE: If `amount` is the maximum `uint256`, the allowance is not updated on `transferFrom`. This is semantically equivalent to an infinite approval. Requirements: - `spender` cannot be the zero address."
					},
					"balanceOf(address)": {
						"details": "See {IERC20-balanceOf}."
					},
					"decimals()": {
						"details": "Returns the number of decimals used to get its user representation. For example, if `decimals` equals `2`, a balance of `505` tokens should be displayed to a user as `5.05` (`505 / 10 ** 2`). Tokens usually opt for a value of 18, imitating the relationship between Ether and Wei. This is the default value returned by this function, unless it's overridden. NOTE: This information is only used for _display_ purposes: it in no way affects any of the arithmetic of the contract, including {IERC20-balanceOf} and {IERC20-transfer}."
					},
					"decreaseAllowance(address,uint256)": {
						"details": "Atomically decreases the allowance granted to `spender` by the caller. This is an alternative to {approve} that can be used as a mitigation for problems described in {IERC20-approve}. Emits an {Approval} event indicating the updated allowance. Requirements: - `spender` cannot be the zero address. - `spender` must have allowance for the caller of at least `subtractedValue`."
					},
					"increaseAllowance(address,uint256)": {
						"details": "Atomically increases the allowance granted to `spender` by the caller. This is an alternative to {approve} that can be used as a mitigation for problems described in {IERC20-approve}. Emits an {Approval} event indicating the updated allowance. Requirements: - `spender` cannot be the zero address."
					},
					"name()": {
						"details": "Returns the name of the token."
					},
					"symbol()": {
						"details": "Returns the symbol of the token, usually a shorter version of the name."
					},
					"totalSupply()": {
						"details": "See {IERC20-totalSupply}."
					},
					"transfer(address,uint256)": {
						"details": "See {IERC20-transfer}. Requirements: - `to` cannot be the zero address. - the caller must have a balance of at least `amount`."
					},
					"transferFrom(address,address,uint256)": {
						"details": "See {IERC20-transferFrom}. Emits an {Approval} event indicating the updated allowance. This is not required by the EIP. See the note at the beginning of {ERC20}. NOTE: Does not update the allowance if the current allowance is the maximum `uint256`. Requirements: - `from` and `to` cannot be the zero address. - `from` must have a balance of at least `amount`. - the caller must have allowance for ``from``'s tokens of at least `amount`."
					}
				},
				"version": 1
			},
			"evm": {
				"assembly": "    /* \"contract git.sol\":262:2707  contract RealEstate is ERC20 {... */\n  mstore(0x40, 0x80)\n    /* \"contract git.sol\":917:965  constructor() ERC20(\"RealEstateToken\", \"RET\") {} */\n  callvalue\n  dup1\n  iszero\n  tag_1\n  jumpi\n  0x00\n  dup1\n  revert\ntag_1:\n  pop\n    /* \"@openzeppelin/contracts/token/ERC20/ERC20.sol\":1980:2093  constructor(string memory name_, string memory symbol_) {... */\n  mload(0x40)\n  dup1\n  0x40\n  add\n  0x40\n  mstore\n  dup1\n  0x0f\n  dup2\n  mstore\n  0x20\n  add\n  0x5265616c457374617465546f6b656e0000000000000000000000000000000000\n  dup2\n  mstore\n  pop\n  mload(0x40)\n  dup1\n  0x40\n  add\n  0x40\n  mstore\n  dup1\n  0x03\n  dup2\n  mstore\n  0x20\n  add\n  0x5245540000000000000000000000000000000000000000000000000000000000\n  dup2\n  mstore\n  pop\n    /* \"@openzeppelin/contracts/token/ERC20/ERC20.sol\":2054:2059  name_ */\n  dup2\n    /* \"@openzeppelin/contracts/token/ERC20/ERC20.sol\":2046:2051  _name */\n  0x03\n    /* \"@openzeppelin/contracts/token/ERC20/ERC20.sol\":2046:2059  _name = name_ */\n  swap1\n  dup2\n  tag_5\n  swap2\n  swap1\n  tag_6\n  jump\t// in\ntag_5:\n  pop\n    /* \"@openzeppelin/contracts/token/ERC20/ERC20.sol\":2079:2086  symbol_ */\n  dup1\n    /* \"@openzeppelin/contracts/token/ERC20/ERC20.sol\":2069:2076  _symbol */\n  0x04\n    /* \"@openzeppelin/contracts/token/ERC20/ERC20.sol\":2069:2086  _symbol = symbol_ */\n  swap1\n  dup2\n  tag_7\n  swap2\n  swap1\n  tag_6\n  jump\t// in\ntag_7:\n  pop\n    /* \"@openzeppelin/contracts/token/ERC20/ERC20.sol\":1980:2093  constructor(string memory name_, string memory symbol_) {... */\n  pop\n  pop\n    /* \"contract git.sol\":262:2707  contract RealEstate is ERC20 {... */\n  jump(tag_9)\n    /* \"#utility.yul\":7:106   */\ntag_10:\n    /* \"#utility.yul\":59:65   */\n  0x00\n    /* \"#utility.yul\":93:98   */\n  dup2\n    /* \"#utility.yul\":87:99   */\n  mload\n    /* \"#utility.yul\":77:99   */\n  swap1\n  pop\n    /* \"#utility.yul\":7:106   */\n  swap2\n  swap1\n  pop\n  jump\t// out\n    /* \"#utility.yul\":112:292   */\ntag_11:\n    /* \"#utility.yul\":160:237   */\n  0x4e487b7100000000000000000000000000000000000000000000000000000000\n    /* \"#utility.yul\":157:158   */\n  0x00\n    /* \"#utility.yul\":150:238   */\n  mstore\n    /* \"#utility.yul\":257:261   */\n  0x41\n    /* \"#utility.yul\":254:255   */\n  0x04\n    /* \"#utility.yul\":247:262   */\n  mstore\n    /* \"#utility.yul\":281:285   */\n  0x24\n    /* \"#utility.yul\":278:279   */\n  0x00\n    /* \"#utility.yul\":271:286   */\n  revert\n    /* \"#utility.yul\":298:478   */\ntag_12:\n    /* \"#utility.yul\":346:423   */\n  0x4e487b7100000000000000000000000000000000000000000000000000000000\n    /* \"#utility.yul\":343:344   */\n  0x00\n    /* \"#utility.yul\":336:424   */\n  mstore\n    /* \"#utility.yul\":443:447   */\n  0x22\n    /* \"#utility.yul\":440:441   */\n  0x04\n    /* \"#utility.yul\":433:448   */\n  mstore\n    /* \"#utility.yul\":467:471   */\n  0x24\n    /* \"#utility.yul\":464:465   */\n  0x00\n    /* \"#utility.yul\":457:472   */\n  revert\n    /* \"#utility.yul\":484:804   */\ntag_13:\n    /* \"#utility.yul\":528:534   */\n  0x00\n    /* \"#utility.yul\":565:566   */\n  0x02\n    /* \"#utility.yul\":559:563   */\n  dup3\n    /* \"#utility.yul\":555:567   */\n  div\n    /* \"#utility.yul\":545:567   */\n  swap1\n  pop\n    /* \"#utility.yul\":612:613   */\n  0x01\n    /* \"#utility.yul\":606:610   */\n  dup3\n    /* \"#utility.yul\":602:614   */\n  and\n    /* \"#utility.yul\":633:651   */\n  dup1\n    /* \"#utility.yul\":623:704   */\n  tag_35\n  jumpi\n    /* \"#utility.yul\":689:693   */\n  0x7f\n    /* \"#utility.yul\":681:687   */\n  dup3\n    /* \"#utility.yul\":677:694   */\n  and\n    /* \"#utility.yul\":667:694   */\n  swap2\n  pop\n    /* \"#utility.yul\":623:704   */\ntag_35:\n    /* \"#utility.yul\":751:753   */\n  0x20\n    /* \"#utility.yul\":743:749   */\n  dup3\n    /* \"#utility.yul\":740:754   */\n  lt\n    /* \"#utility.yul\":720:738   */\n  dup2\n    /* \"#utility.yul\":717:755   */\n  sub\n    /* \"#utility.yul\":714:798   */\n  tag_36\n  jumpi\n    /* \"#utility.yul\":770:788   */\n  tag_37\n  tag_12\n  jump\t// in\ntag_37:\n    /* \"#utility.yul\":714:798   */\ntag_36:\n    /* \"#utility.yul\":535:804   */\n  pop\n    /* \"#utility.yul\":484:804   */\n  swap2\n  swap1\n  pop\n  jump\t// out\n    /* \"#utility.yul\":810:951   */\ntag_14:\n    /* \"#utility.yul\":859:863   */\n  0x00\n    /* \"#utility.yul\":882:885   */\n  dup2\n    /* \"#utility.yul\":874:885   */\n  swap1\n  pop\n    /* \"#utility.yul\":905:908   */\n  dup2\n    /* \"#utility.yul\":902:903   */\n  0x00\n    /* \"#utility.yul\":895:909   */\n  mstore\n    /* \"#utility.yul\":939:943   */\n  0x20\n    /* \"#utility.yul\":936:937   */\n  0x00\n    /* \"#utility.yul\":926:944   */\n  keccak256\n    /* \"#utility.yul\":918:944   */\n  swap1\n  pop\n    /* \"#utility.yul\":810:951   */\n  swap2\n  swap1\n  pop\n  jump\t// out\n    /* \"#utility.yul\":957:1050   */\ntag_15:\n    /* \"#utility.yul\":994:1000   */\n  0x00\n    /* \"#utility.yul\":1041:1043   */\n  0x20\n    /* \"#utility.yul\":1036:1038   */\n  0x1f\n    /* \"#utility.yul\":1029:1034   */\n  dup4\n    /* \"#utility.yul\":1025:1039   */\n  add\n    /* \"#utility.yul\":1021:1044   */\n  div\n    /* \"#utility.yul\":1011:1044   */\n  swap1\n  pop\n    /* \"#utility.yul\":957:1050   */\n  swap2\n  swap1\n  pop\n  jump\t// out\n    /* \"#utility.yul\":1056:1163   */\ntag_16:\n    /* \"#utility.yul\":1100:1108   */\n  0x00\n    /* \"#utility.yul\":1150:1155   */\n  dup3\n    /* \"#utility.yul\":1144:1148   */\n  dup3\n    /* \"#utility.yul\":1140:1156   */\n  shl\n    /* \"#utility.yul\":1119:1156   */\n  swap1\n  pop\n    /* \"#utility.yul\":1056:1163   */\n  swap3\n  swap2\n  pop\n  pop\n  jump\t// out\n    /* \"#utility.yul\":1169:1562   */\ntag_17:\n    /* \"#utility.yul\":1238:1244   */\n  0x00\n    /* \"#utility.yul\":1288:1289   */\n  0x08\n    /* \"#utility.yul\":1276:1286   */\n  dup4\n    /* \"#utility.yul\":1272:1290   */\n  mul\n    /* \"#utility.yul\":1311:1408   */\n  tag_42\n    /* \"#utility.yul\":1341:1407   */\n  0xffffffffffffffffffffffffffffffffffffffffffffffffffffffffffffffff\n    /* \"#utility.yul\":1330:1339   */\n  dup3\n    /* \"#utility.yul\":1311:1408   */\n  tag_16\n  jump\t// in\ntag_42:\n    /* \"#utility.yul\":1429:1468   */\n  tag_43\n    /* \"#utility.yul\":1459:1467   */\n  dup7\n    /* \"#utility.yul\":1448:1457   */\n  dup4\n    /* \"#utility.yul\":1429:1468   */\n  tag_16\n  jump\t// in\ntag_43:\n    /* \"#utility.yul\":1417:1468   */\n  swap6\n  pop\n    /* \"#utility.yul\":1501:1505   */\n  dup1\n    /* \"#utility.yul\":1497:1506   */\n  not\n    /* \"#utility.yul\":1490:1495   */\n  dup5\n    /* \"#utility.yul\":1486:1507   */\n  and\n    /* \"#utility.yul\":1477:1507   */\n  swap4\n  pop\n    /* \"#utility.yul\":1550:1554   */\n  dup1\n    /* \"#utility.yul\":1540:1548   */\n  dup7\n    /* \"#utility.yul\":1536:1555   */\n  and\n    /* \"#utility.yul\":1529:1534   */\n  dup5\n    /* \"#utility.yul\":1526:1556   */\n  or\n    /* \"#utility.yul\":1516:1556   */\n  swap3\n  pop\n    /* \"#utility.yul\":1245:1562   */\n  pop\n  pop\n    /* \"#utility.yul\":1169:1562   */\n  swap4\n  swap3\n  pop\n  pop\n  pop\n  jump\t// out\n    /* \"#utility.yul\":1568:1645   */\ntag_18:\n    /* \"#utility.yul\":1605:1612   */\n  0x00\n    /* \"#utility.yul\":1634:1639   */\n  dup2\n    /* \"#utility.yul\":1623:1639   */\n  swap1\n  pop\n    /* \"#utility.yul\":1568:1645   */\n  swap2\n  swap1\n  pop\n  jump\t// out\n    /* \"#utility.yul\":1651:1711   */\ntag_19:\n    /* \"#utility.yul\":1679:1682   */\n  0x00\n    /* \"#utility.yul\":1700:1705   */\n  dup2\n    /* \"#utility.yul\":1693:1705   */\n  swap1\n  pop\n    /* \"#utility.yul\":1651:1711   */\n  swap2\n  swap1\n  pop\n  jump\t// out\n    /* \"#utility.yul\":1717:1859   */\ntag_20:\n    /* \"#utility.yul\":1767:1776   */\n  0x00\n    /* \"#utility.yul\":1800:1853   */\n  tag_47\n    /* \"#utility.yul\":1818:1852   */\n  tag_48\n    /* \"#utility.yul\":1827:1851   */\n  tag_49\n    /* \"#utility.yul\":1845:1850   */\n  dup5\n    /* \"#utility.yul\":1827:1851   */\n  tag_18\n  jump\t// in\ntag_49:\n    /* \"#utility.yul\":1818:1852   */\n  tag_19\n  jump\t// in\ntag_48:\n    /* \"#utility.yul\":1800:1853   */\n  tag_18\n  jump\t// in\ntag_47:\n    /* \"#utility.yul\":1787:1853   */\n  swap1\n  pop\n    /* \"#utility.yul\":1717:1859   */\n  swap2\n  swap1\n  pop\n  jump\t// out\n    /* \"#utility.yul\":1865:1940   */\ntag_21:\n    /* \"#utility.yul\":1908:1911   */\n  0x00\n    /* \"#utility.yul\":1929:1934   */\n  dup2\n    /* \"#utility.yul\":1922:1934   */\n  swap1\n  pop\n    /* \"#utility.yul\":1865:1940   */\n  swap2\n  swap1\n  pop\n  jump\t// out\n    /* \"#utility.yul\":1946:2215   */\ntag_22:\n    /* \"#utility.yul\":2056:2095   */\n  tag_52\n    /* \"#utility.yul\":2087:2094   */\n  dup4\n    /* \"#utility.yul\":2056:2095   */\n  tag_20\n  jump\t// in\ntag_52:\n    /* \"#utility.yul\":2117:2208   */\n  tag_53\n    /* \"#utility.yul\":2166:2207   */\n  tag_54\n    /* \"#utility.yul\":2190:2206   */\n  dup3\n    /* \"#utility.yul\":2166:2207   */\n  tag_21\n  jump\t// in\ntag_54:\n    /* \"#utility.yul\":2158:2164   */\n  dup5\n    /* \"#utility.yul\":2151:2155   */\n  dup5\n    /* \"#utility.yul\":2145:2156   */\n  sload\n    /* \"#utility.yul\":2117:2208   */\n  tag_17\n  jump\t// in\ntag_53:\n    /* \"#utility.yul\":2111:2115   */\n  dup3\n    /* \"#utility.yul\":2104:2209   */\n  sstore\n    /* \"#utility.yul\":2022:2215   */\n  pop\n    /* \"#utility.yul\":1946:2215   */\n  pop\n  pop\n  pop\n  jump\t// out\n    /* \"#utility.yul\":2221:2294   */\ntag_23:\n    /* \"#utility.yul\":2266:2269   */\n  0x00\n    /* \"#utility.yul\":2221:2294   */\n  swap1\n  jump\t// out\n    /* \"#utility.yul\":2300:2489   */\ntag_24:\n    /* \"#utility.yul\":2377:2409   */\n  tag_57\n  tag_23\n  jump\t// in\ntag_57:\n    /* \"#utility.yul\":2418:2483   */\n  tag_58\n    /* \"#utility.yul\":2476:2482   */\n  dup2\n    /* \"#utility.yul\":2468:2474   */\n  dup5\n    /* \"#utility.yul\":2462:2466   */\n  dup5\n    /* \"#utility.yul\":2418:2483   */\n  tag_22\n  jump\t// in\ntag_58:\n    /* \"#utility.yul\":2353:2489   */\n  pop\n    /* \"#utility.yul\":2300:2489   */\n  pop\n  pop\n  jump\t// out\n    /* \"#utility.yul\":2495:2681   */\ntag_25:\n    /* \"#utility.yul\":2555:2675   */\ntag_60:\n    /* \"#utility.yul\":2572:2575   */\n  dup2\n    /* \"#utility.yul\":2565:2570   */\n  dup2\n    /* \"#utility.yul\":2562:2576   */\n  lt\n    /* \"#utility.yul\":2555:2675   */\n  iszero\n  tag_62\n  jumpi\n    /* \"#utility.yul\":2626:2665   */\n  tag_63\n    /* \"#utility.yul\":2663:2664   */\n  0x00\n    /* \"#utility.yul\":2656:2661   */\n  dup3\n    /* \"#utility.yul\":2626:2665   */\n  tag_24\n  jump\t// in\ntag_63:\n    /* \"#utility.yul\":2599:2600   */\n  0x01\n    /* \"#utility.yul\":2592:2597   */\n  dup2\n    /* \"#utility.yul\":2588:2601   */\n  add\n    /* \"#utility.yul\":2579:2601   */\n  swap1\n  pop\n    /* \"#utility.yul\":2555:2675   */\n  jump(tag_60)\ntag_62:\n    /* \"#utility.yul\":2495:2681   */\n  pop\n  pop\n  jump\t// out\n    /* \"#utility.yul\":2687:3230   */\ntag_26:\n    /* \"#utility.yul\":2788:2790   */\n  0x1f\n    /* \"#utility.yul\":2783:2786   */\n  dup3\n    /* \"#utility.yul\":2780:2791   */\n  gt\n    /* \"#utility.yul\":2777:3223   */\n  iszero\n  tag_65\n  jumpi\n    /* \"#utility.yul\":2822:2860   */\n  tag_66\n    /* \"#utility.yul\":2854:2859   */\n  dup2\n    /* \"#utility.yul\":2822:2860   */\n  tag_14\n  jump\t// in\ntag_66:\n    /* \"#utility.yul\":2906:2935   */\n  tag_67\n    /* \"#utility.yul\":2924:2934   */\n  dup5\n    /* \"#utility.yul\":2906:2935   */\n  tag_15\n  jump\t// in\ntag_67:\n    /* \"#utility.yul\":2896:2904   */\n  dup2\n    /* \"#utility.yul\":2892:2936   */\n  add\n    /* \"#utility.yul\":3089:3091   */\n  0x20\n    /* \"#utility.yul\":3077:3087   */\n  dup6\n    /* \"#utility.yul\":3074:3092   */\n  lt\n    /* \"#utility.yul\":3071:3120   */\n  iszero\n  tag_68\n  jumpi\n    /* \"#utility.yul\":3110:3118   */\n  dup2\n    /* \"#utility.yul\":3095:3118   */\n  swap1\n  pop\n    /* \"#utility.yul\":3071:3120   */\ntag_68:\n    /* \"#utility.yul\":3133:3213   */\n  tag_69\n    /* \"#utility.yul\":3189:3211   */\n  tag_70\n    /* \"#utility.yul\":3207:3210   */\n  dup6\n    /* \"#utility.yul\":3189:3211   */\n  tag_15\n  jump\t// in\ntag_70:\n    /* \"#utility.yul\":3179:3187   */\n  dup4\n    /* \"#utility.yul\":3175:3212   */\n  add\n    /* \"#utility.yul\":3162:3173   */\n  dup3\n    /* \"#utility.yul\":3133:3213   */\n  tag_25\n  jump\t// in\ntag_69:\n    /* \"#utility.yul\":2792:3223   */\n  pop\n  pop\n    /* \"#utility.yul\":2777:3223   */\ntag_65:\n    /* \"#utility.yul\":2687:3230   */\n  pop\n  pop\n  pop\n  jump\t// out\n    /* \"#utility.yul\":3236:3353   */\ntag_27:\n    /* \"#utility.yul\":3290:3298   */\n  0x00\n    /* \"#utility.yul\":3340:3345   */\n  dup3\n    /* \"#utility.yul\":3334:3338   */\n  dup3\n    /* \"#utility.yul\":3330:3346   */\n  shr\n    /* \"#utility.yul\":3309:3346   */\n  swap1\n  pop\n    /* \"#utility.yul\":3236:3353   */\n  swap3\n  swap2\n  pop\n  pop\n  jump\t// out\n    /* \"#utility.yul\":3359:3528   */\ntag_28:\n    /* \"#utility.yul\":3403:3409   */\n  0x00\n    /* \"#utility.yul\":3436:3487   */\n  tag_73\n    /* \"#utility.yul\":3484:3485   */\n  0x00\n    /* \"#utility.yul\":3480:3486   */\n  not\n    /* \"#utility.yul\":3472:3477   */\n  dup5\n    /* \"#utility.yul\":3469:3470   */\n  0x08\n    /* \"#utility.yul\":3465:3478   */\n  mul\n    /* \"#utility.yul\":3436:3487   */\n  tag_27\n  jump\t// in\ntag_73:\n    /* \"#utility.yul\":3432:3488   */\n  not\n    /* \"#utility.yul\":3517:3521   */\n  dup1\n    /* \"#utility.yul\":3511:3515   */\n  dup4\n    /* \"#utility.yul\":3507:3522   */\n  and\n    /* \"#utility.yul\":3497:3522   */\n  swap2\n  pop\n    /* \"#utility.yul\":3410:3528   */\n  pop\n    /* \"#utility.yul\":3359:3528   */\n  swap3\n  swap2\n  pop\n  pop\n  jump\t// out\n    /* \"#utility.yul\":3533:3828   */\ntag_29:\n    /* \"#utility.yul\":3609:3613   */\n  0x00\n    /* \"#utility.yul\":3755:3784   */\n  tag_75\n    /* \"#utility.yul\":3780:3783   */\n  dup4\n    /* \"#utility.yul\":3774:3778   */\n  dup4\n    /* \"#utility.yul\":3755:3784   */\n  tag_28\n  jump\t// in\ntag_75:\n    /* \"#utility.yul\":3747:3784   */\n  swap2\n  pop\n    /* \"#utility.yul\":3817:3820   */\n  dup3\n    /* \"#utility.yul\":3814:3815   */\n  0x02\n    /* \"#utility.yul\":3810:3821   */\n  mul\n    /* \"#utility.yul\":3804:3808   */\n  dup3\n    /* \"#utility.yul\":3801:3822   */\n  or\n    /* \"#utility.yul\":3793:3822   */\n  swap1\n  pop\n    /* \"#utility.yul\":3533:3828   */\n  swap3\n  swap2\n  pop\n  pop\n  jump\t// out\n    /* \"#utility.yul\":3833:5228   */\ntag_6:\n    /* \"#utility.yul\":3950:3987   */\n  tag_77\n    /* \"#utility.yul\":3983:3986   */\n  dup3\n    /* \"#utility.yul\":3950:3987   */\n  tag_10\n  jump\t// in\ntag_77:\n    /* \"#utility.yul\":4052:4070   */\n  0xffffffffffffffff\n    /* \"#utility.yul\":4044:4050   */\n  dup2\n    /* \"#utility.yul\":4041:4071   */\n  gt\n    /* \"#utility.yul\":4038:4094   */\n  iszero\n  tag_78\n  jumpi\n    /* \"#utility.yul\":4074:4092   */\n  tag_79\n  tag_11\n  jump\t// in\ntag_79:\n    /* \"#utility.yul\":4038:4094   */\ntag_78:\n    /* \"#utility.yul\":4118:4156   */\n  tag_80\n    /* \"#utility.yul\":4150:4154   */\n  dup3\n    /* \"#utility.yul\":4144:4155   */\n  sload\n    /* \"#utility.yul\":4118:4156   */\n  tag_13\n  jump\t// in\ntag_80:\n    /* \"#utility.yul\":4203:4270   */\n  tag_81\n    /* \"#utility.yul\":4263:4269   */\n  dup3\n    /* \"#utility.yul\":4255:4261   */\n  dup3\n    /* \"#utility.yul\":4249:4253   */\n  dup6\n    /* \"#utility.yul\":4203:4270   */\n  tag_26\n  jump\t// in\ntag_81:\n    /* \"#utility.yul\":4297:4298   */\n  0x00\n    /* \"#utility.yul\":4321:4325   */\n  0x20\n    /* \"#utility.yul\":4308:4325   */\n  swap1\n  pop\n    /* \"#utility.yul\":4353:4355   */\n  0x1f\n    /* \"#utility.yul\":4345:4351   */\n  dup4\n    /* \"#utility.yul\":4342:4356   */\n  gt\n    /* \"#utility.yul\":4370:4371   */\n  0x01\n    /* \"#utility.yul\":4365:4983   */\n  dup2\n  eq\n  tag_83\n  jumpi\n    /* \"#utility.yul\":5027:5028   */\n  0x00\n    /* \"#utility.yul\":5044:5050   */\n  dup5\n    /* \"#utility.yul\":5041:5118   */\n  iszero\n  tag_84\n  jumpi\n    /* \"#utility.yul\":5093:5102   */\n  dup3\n    /* \"#utility.yul\":5088:5091   */\n  dup8\n    /* \"#utility.yul\":5084:5103   */\n  add\n    /* \"#utility.yul\":5078:5104   */\n  mload\n    /* \"#utility.yul\":5069:5104   */\n  swap1\n  pop\n    /* \"#utility.yul\":5041:5118   */\ntag_84:\n    /* \"#utility.yul\":5144:5211   */\n  tag_85\n    /* \"#utility.yul\":5204:5210   */\n  dup6\n    /* \"#utility.yul\":5197:5202   */\n  dup3\n    /* \"#utility.yul\":5144:5211   */\n  tag_29\n  jump\t// in\ntag_85:\n    /* \"#utility.yul\":5138:5142   */\n  dup7\n    /* \"#utility.yul\":5131:5212   */\n  sstore\n    /* \"#utility.yul\":5000:5222   */\n  pop\n    /* \"#utility.yul\":4335:5222   */\n  jump(tag_82)\n    /* \"#utility.yul\":4365:4983   */\ntag_83:\n    /* \"#utility.yul\":4417:4421   */\n  0x1f\n    /* \"#utility.yul\":4413:4422   */\n  not\n    /* \"#utility.yul\":4405:4411   */\n  dup5\n    /* \"#utility.yul\":4401:4423   */\n  and\n    /* \"#utility.yul\":4451:4488   */\n  tag_86\n    /* \"#utility.yul\":4483:4487   */\n  dup7\n    /* \"#utility.yul\":4451:4488   */\n  tag_14\n  jump\t// in\ntag_86:\n    /* \"#utility.yul\":4510:4511   */\n  0x00\n    /* \"#utility.yul\":4524:4732   */\ntag_87:\n    /* \"#utility.yul\":4538:4545   */\n  dup3\n    /* \"#utility.yul\":4535:4536   */\n  dup2\n    /* \"#utility.yul\":4532:4546   */\n  lt\n    /* \"#utility.yul\":4524:4732   */\n  iszero\n  tag_89\n  jumpi\n    /* \"#utility.yul\":4617:4626   */\n  dup5\n    /* \"#utility.yul\":4612:4615   */\n  dup10\n    /* \"#utility.yul\":4608:4627   */\n  add\n    /* \"#utility.yul\":4602:4628   */\n  mload\n    /* \"#utility.yul\":4594:4600   */\n  dup3\n    /* \"#utility.yul\":4587:4629   */\n  sstore\n    /* \"#utility.yul\":4668:4669   */\n  0x01\n    /* \"#utility.yul\":4660:4666   */\n  dup3\n    /* \"#utility.yul\":4656:4670   */\n  add\n    /* \"#utility.yul\":4646:4670   */\n  swap2\n  pop\n    /* \"#utility.yul\":4715:4717   */\n  0x20\n    /* \"#utility.yul\":4704:4713   */\n  dup6\n    /* \"#utility.yul\":4700:4718   */\n  add\n    /* \"#utility.yul\":4687:4718   */\n  swap5\n  pop\n    /* \"#utility.yul\":4561:4565   */\n  0x20\n    /* \"#utility.yul\":4558:4559   */\n  dup2\n    /* \"#utility.yul\":4554:4566   */\n  add\n    /* \"#utility.yul\":4549:4566   */\n  swap1\n  pop\n    /* \"#utility.yul\":4524:4732   */\n  jump(tag_87)\ntag_89:\n    /* \"#utility.yul\":4760:4766   */\n  dup7\n    /* \"#utility.yul\":4751:4758   */\n  dup4\n    /* \"#utility.yul\":4748:4767   */\n  lt\n    /* \"#utility.yul\":4745:4924   */\n  iszero\n  tag_90\n  jumpi\n    /* \"#utility.yul\":4818:4827   */\n  dup5\n    /* \"#utility.yul\":4813:4816   */\n  dup10\n    /* \"#utility.yul\":4809:4828   */\n  add\n    /* \"#utility.yul\":4803:4829   */\n  mload\n    /* \"#utility.yul\":4861:4909   */\n  tag_91\n    /* \"#utility.yul\":4903:4907   */\n  0x1f\n    /* \"#utility.yul\":4895:4901   */\n  dup10\n    /* \"#utility.yul\":4891:4908   */\n  and\n    /* \"#utility.yul\":4880:4889   */\n  dup3\n    /* \"#utility.yul\":4861:4909   */\n  tag_28\n  jump\t// in\ntag_91:\n    /* \"#utility.yul\":4853:4859   */\n  dup4\n    /* \"#utility.yul\":4846:4910   */\n  sstore\n    /* \"#utility.yul\":4768:4924   */\n  pop\n    /* \"#utility.yul\":4745:4924   */\ntag_90:\n    /* \"#utility.yul\":4970:4971   */\n  0x01\n    /* \"#utility.yul\":4966:4967   */\n  0x02\n    /* \"#utility.yul\":4958:4964   */\n  dup9\n    /* \"#utility.yul\":4954:4968   */\n  mul\n    /* \"#utility.yul\":4950:4972   */\n  add\n    /* \"#utility.yul\":4944:4948   */\n  dup9\n    /* \"#utility.yul\":4937:4973   */\n  sstore\n    /* \"#utility.yul\":4372:4983   */\n  pop\n  pop\n  pop\n    /* \"#utility.yul\":4335:5222   */\ntag_82:\n  pop\n    /* \"#utility.yul\":3925:5228   */\n  pop\n  pop\n  pop\n    /* \"#utility.yul\":3833:5228   */\n  pop\n  pop\n  jump\t// out\n    /* \"contract git.sol\":262:2707  contract RealEstate is ERC20 {... */\ntag_9:\n  dataSize(sub_0)\n  dup1\n  dataOffset(sub_0)\n  0x00\n  codecopy\n  0x00\n  return\nstop\n\nsub_0: assembly {\n        /* \"contract git.sol\":262:2707  contract RealEstate is ERC20 {... */\n      mstore(0x40, 0x80)\n      callvalue\n      dup1\n      iszero\n      tag_1\n      jumpi\n      0x00\n      dup1\n      revert\n    tag_1:\n      pop\n      jumpi(tag_2, lt(calldatasize, 0x04))\n      shr(0xe0, calldataload(0x00))\n      dup1\n      0x88e20abb\n      gt\n      tag_25\n      jumpi\n      dup1\n      0xa9059cbb\n      gt\n      tag_26\n      jumpi\n      dup1\n      0xa9059cbb\n      eq\n      tag_19\n      jumpi\n      dup1\n      0xbeee50f7\n      eq\n      tag_20\n      jumpi\n      dup1\n      0xdd62ed3e\n      eq\n      tag_21\n      jumpi\n      dup1\n      0xe01fe4c3\n      eq\n      tag_22\n      jumpi\n      dup1\n      0xf857f752\n      eq\n      tag_23\n      jumpi\n      dup1\n      0xfcf8f422\n      eq\n      tag_24\n      jumpi\n      jump(tag_2)\n    tag_26:\n      dup1\n      0x88e20abb\n      eq\n      tag_14\n      jumpi\n      dup1\n      0x8da5cb5b\n      eq\n      tag_15\n      jumpi\n      dup1\n      0x95d89b41\n      eq\n      tag_16\n      jumpi\n      dup1\n      0x976f5f61\n      eq\n      tag_17\n      jumpi\n      dup1\n      0xa457c2d7\n      eq\n      tag_18\n      jumpi\n      jump(tag_2)\n    tag_25:\n      dup1\n      0x23b872dd\n      gt\n      tag_27\n      jumpi\n      dup1\n      0x23b872dd\n      eq\n      tag_8\n      jumpi\n      dup1\n      0x313ce567\n      eq\n      tag_9\n      jumpi\n      dup1\n      0x39509351\n      eq\n      tag_10\n      jumpi\n      dup1\n      0x44ba41db\n      eq\n      tag_11\n      jumpi\n      dup1\n      0x575e6cec\n      eq\n      tag_12\n      jumpi\n      dup1\n      0x70a08231\n      eq\n      tag_13\n      jumpi\n      jump(tag_2)\n    tag_27:\n      dup1\n      0x06fdde03\n      eq\n      tag_3\n      jumpi\n      dup1\n      0x089a6115\n      eq\n      tag_4\n      jumpi\n      dup1\n      0x095ea7b3\n      eq\n      tag_5\n      jumpi\n      dup1\n      0x0df9c426\n      eq\n      tag_6\n      jumpi\n      dup1\n      0x18160ddd\n      eq\n      tag_7\n      jumpi\n    tag_2:\n      0x00\n      dup1\n      revert\n        /* \"@openzeppelin/contracts/token/ERC20/ERC20.sol\":2158:2256  function name() public view virtual override returns (string memory) {... */\n    tag_3:\n      tag_28\n      tag_29\n      jump\t// in\n    tag_28:\n      mload(0x40)\n      tag_30\n      swap2\n      swap1\n      tag_31\n      jump\t// in\n    tag_30:\n      mload(0x40)\n      dup1\n      swap2\n      sub\n      swap1\n      return\n        /* \"contract git.sol\":1933:2115  function minttheTokenprice(address _property) public {... */\n    tag_4:\n      tag_32\n      0x04\n      dup1\n      calldatasize\n      sub\n      dup2\n      add\n      swap1\n      tag_33\n      swap2\n      swap1\n      tag_34\n      jump\t// in\n    tag_33:\n      tag_35\n      jump\t// in\n    tag_32:\n      stop\n        /* \"@openzeppelin/contracts/token/ERC20/ERC20.sol\":4444:4641  function approve(address spender, uint256 amount) public virtual override returns (bool) {... */\n    tag_5:\n      tag_36\n      0x04\n      dup1\n      calldatasize\n      sub\n      dup2\n      add\n      swap1\n      tag_37\n      swap2\n      swap1\n      tag_38\n      jump\t// in\n    tag_37:\n      tag_39\n      jump\t// in\n    tag_36:\n      mload(0x40)\n      tag_40\n      swap2\n      swap1\n      tag_41\n      jump\t// in\n    tag_40:\n      mload(0x40)\n      dup1\n      swap2\n      sub\n      swap1\n      return\n        /* \"contract git.sol\":782:844  mapping(address => PropertyFinances) public PropertykiFinances */\n    tag_6:\n      tag_42\n      0x04\n      dup1\n      calldatasize\n      sub\n      dup2\n      add\n      swap1\n      tag_43\n      swap2\n      swap1\n      tag_34\n      jump\t// in\n    tag_43:\n      tag_44\n      jump\t// in\n    tag_42:\n      mload(0x40)\n      tag_45\n      swap11\n      swap10\n      swap9\n      swap8\n      swap7\n      swap6\n      swap5\n      swap4\n      swap3\n      swap2\n      swap1\n      tag_46\n      jump\t// in\n    tag_45:\n      mload(0x40)\n      dup1\n      swap2\n      sub\n      swap1\n      return\n        /* \"@openzeppelin/contracts/token/ERC20/ERC20.sol\":3255:3361  function totalSupply() public view virtual override returns (uint256) {... */\n    tag_7:\n      tag_47\n      tag_48\n      jump\t// in\n    tag_47:\n      mload(0x40)\n      tag_49\n      swap2\n      swap1\n      tag_50\n      jump\t// in\n    tag_49:\n      mload(0x40)\n      dup1\n      swap2\n      sub\n      swap1\n      return\n        /* \"@openzeppelin/contracts/token/ERC20/ERC20.sol\":5203:5459  function transferFrom(address from, address to, uint256 amount) public virtual override returns (bool) {... */\n    tag_8:\n      tag_51\n      0x04\n      dup1\n      calldatasize\n      sub\n      dup2\n      add\n      swap1\n      tag_52\n      swap2\n      swap1\n      tag_53\n      jump\t// in\n    tag_52:\n      tag_54\n      jump\t// in\n    tag_51:\n      mload(0x40)\n      tag_55\n      swap2\n      swap1\n      tag_41\n      jump\t// in\n    tag_55:\n      mload(0x40)\n      dup1\n      swap2\n      sub\n      swap1\n      return\n        /* \"@openzeppelin/contracts/token/ERC20/ERC20.sol\":3104:3195  function decimals() public view virtual override returns (uint8) {... */\n    tag_9:\n      tag_56\n      tag_57\n      jump\t// in\n    tag_56:\n      mload(0x40)\n      tag_58\n      swap2\n      swap1\n      tag_59\n      jump\t// in\n    tag_58:\n      mload(0x40)\n      dup1\n      swap2\n      sub\n      swap1\n      return\n        /* \"@openzeppelin/contracts/token/ERC20/ERC20.sol\":5854:6088  function increaseAllowance(address spender, uint256 addedValue) public virtual returns (bool) {... */\n    tag_10:\n      tag_60\n      0x04\n      dup1\n      calldatasize\n      sub\n      dup2\n      add\n      swap1\n      tag_61\n      swap2\n      swap1\n      tag_38\n      jump\t// in\n    tag_61:\n      tag_62\n      jump\t// in\n    tag_60:\n      mload(0x40)\n      tag_63\n      swap2\n      swap1\n      tag_41\n      jump\t// in\n    tag_63:\n      mload(0x40)\n      dup1\n      swap2\n      sub\n      swap1\n      return\n        /* \"contract git.sol\":1515:1723  function DecideNetRentyear(address _property) public {... */\n    tag_11:\n      tag_64\n      0x04\n      dup1\n      calldatasize\n      sub\n      dup2\n      add\n      swap1\n      tag_65\n      swap2\n      swap1\n      tag_34\n      jump\t// in\n    tag_65:\n      tag_66\n      jump\t// in\n    tag_64:\n      stop\n        /* \"contract git.sol\":1729:1927  function DecideNetRentmonth(address _property) public {... */\n    tag_12:\n      tag_67\n      0x04\n      dup1\n      calldatasize\n      sub\n      dup2\n      add\n      swap1\n      tag_68\n      swap2\n      swap1\n      tag_34\n      jump\t// in\n    tag_68:\n      tag_69\n      jump\t// in\n    tag_67:\n      stop\n        /* \"@openzeppelin/contracts/token/ERC20/ERC20.sol\":3419:3544  function balanceOf(address account) public view virtual override returns (uint256) {... */\n    tag_13:\n      tag_70\n      0x04\n      dup1\n      calldatasize\n      sub\n      dup2\n      add\n      swap1\n      tag_71\n      swap2\n      swap1\n      tag_34\n      jump\t// in\n    tag_71:\n      tag_72\n      jump\t// in\n    tag_70:\n      mload(0x40)\n      tag_73\n      swap2\n      swap1\n      tag_50\n      jump\t// in\n    tag_73:\n      mload(0x40)\n      dup1\n      swap2\n      sub\n      swap1\n      return\n        /* \"contract git.sol\":1289:1509  function DecideTotalInvestment(address _property) public {... */\n    tag_14:\n      tag_74\n      0x04\n      dup1\n      calldatasize\n      sub\n      dup2\n      add\n      swap1\n      tag_75\n      swap2\n      swap1\n      tag_34\n      jump\t// in\n    tag_75:\n      tag_76\n      jump\t// in\n    tag_74:\n      stop\n        /* \"contract git.sol\":755:775  address public owner */\n    tag_15:\n      tag_77\n      tag_78\n      jump\t// in\n    tag_77:\n      mload(0x40)\n      tag_79\n      swap2\n      swap1\n      tag_80\n      jump\t// in\n    tag_79:\n      mload(0x40)\n      dup1\n      swap2\n      sub\n      swap1\n      return\n        /* \"@openzeppelin/contracts/token/ERC20/ERC20.sol\":2369:2471  function symbol() public view virtual override returns (string memory) {... */\n    tag_16:\n      tag_81\n      tag_82\n      jump\t// in\n    tag_81:\n      mload(0x40)\n      tag_83\n      swap2\n      swap1\n      tag_31\n      jump\t// in\n    tag_83:\n      mload(0x40)\n      dup1\n      swap2\n      sub\n      swap1\n      return\n        /* \"contract git.sol\":971:1283  function DecideTokenprice(address _property) public {... */\n    tag_17:\n      tag_84\n      0x04\n      dup1\n      calldatasize\n      sub\n      dup2\n      add\n      swap1\n      tag_85\n      swap2\n      swap1\n      tag_34\n      jump\t// in\n    tag_85:\n      tag_86\n      jump\t// in\n    tag_84:\n      stop\n        /* \"@openzeppelin/contracts/token/ERC20/ERC20.sol\":6575:7002  function decreaseAllowance(address spender, uint256 subtractedValue) public virtual returns (bool) {... */\n    tag_18:\n      tag_87\n      0x04\n      dup1\n      calldatasize\n      sub\n      dup2\n      add\n      swap1\n      tag_88\n      swap2\n      swap1\n      tag_38\n      jump\t// in\n    tag_88:\n      tag_89\n      jump\t// in\n    tag_87:\n      mload(0x40)\n      tag_90\n      swap2\n      swap1\n      tag_41\n      jump\t// in\n    tag_90:\n      mload(0x40)\n      dup1\n      swap2\n      sub\n      swap1\n      return\n        /* \"@openzeppelin/contracts/token/ERC20/ERC20.sol\":3740:3929  function transfer(address to, uint256 amount) public virtual override returns (bool) {... */\n    tag_19:\n      tag_91\n      0x04\n      dup1\n      calldatasize\n      sub\n      dup2\n      add\n      swap1\n      tag_92\n      swap2\n      swap1\n      tag_38\n      jump\t// in\n    tag_92:\n      tag_93\n      jump\t// in\n    tag_91:\n      mload(0x40)\n      tag_94\n      swap2\n      swap1\n      tag_41\n      jump\t// in\n    tag_94:\n      mload(0x40)\n      dup1\n      swap2\n      sub\n      swap1\n      return\n        /* \"contract git.sol\":2319:2508  function minttheTokenRentperyear(address _property) public {... */\n    tag_20:\n      tag_95\n      0x04\n      dup1\n      calldatasize\n      sub\n      dup2\n      add\n      swap1\n      tag_96\n      swap2\n      swap1\n      tag_34\n      jump\t// in\n    tag_96:\n      tag_97\n      jump\t// in\n    tag_95:\n      stop\n        /* \"@openzeppelin/contracts/token/ERC20/ERC20.sol\":3987:4136  function allowance(address owner, address spender) public view virtual override returns (uint256) {... */\n    tag_21:\n      tag_98\n      0x04\n      dup1\n      calldatasize\n      sub\n      dup2\n      add\n      swap1\n      tag_99\n      swap2\n      swap1\n      tag_100\n      jump\t// in\n    tag_99:\n      tag_101\n      jump\t// in\n    tag_98:\n      mload(0x40)\n      tag_102\n      swap2\n      swap1\n      tag_50\n      jump\t// in\n    tag_102:\n      mload(0x40)\n      dup1\n      swap2\n      sub\n      swap1\n      return\n        /* \"contract git.sol\":850:910  mapping(address => PropertyDetails) public PropertykiDetails */\n    tag_22:\n      tag_103\n      0x04\n      dup1\n      calldatasize\n      sub\n      dup2\n      add\n      swap1\n      tag_104\n      swap2\n      swap1\n      tag_34\n      jump\t// in\n    tag_104:\n      tag_105\n      jump\t// in\n    tag_103:\n      mload(0x40)\n      tag_106\n      swap4\n      swap3\n      swap2\n      swap1\n      tag_107\n      jump\t// in\n    tag_106:\n      mload(0x40)\n      dup1\n      swap2\n      sub\n      swap1\n      return\n        /* \"contract git.sol\":2121:2313  function minttheTokenInvestment(address _property) public {... */\n    tag_23:\n      tag_108\n      0x04\n      dup1\n      calldatasize\n      sub\n      dup2\n      add\n      swap1\n      tag_109\n      swap2\n      swap1\n      tag_34\n      jump\t// in\n    tag_109:\n      tag_110\n      jump\t// in\n    tag_108:\n      stop\n        /* \"contract git.sol\":2514:2705  function minttheTokenRentpermonth(address _property) public {... */\n    tag_24:\n      tag_111\n      0x04\n      dup1\n      calldatasize\n      sub\n      dup2\n      add\n      swap1\n      tag_112\n      swap2\n      swap1\n      tag_34\n      jump\t// in\n    tag_112:\n      tag_113\n      jump\t// in\n    tag_111:\n      stop\n        /* \"@openzeppelin/contracts/token/ERC20/ERC20.sol\":2158:2256  function name() public view virtual override returns (string memory) {... */\n    tag_29:\n        /* \"@openzeppelin/contracts/token/ERC20/ERC20.sol\":2212:2225  string memory */\n      0x60\n        /* \"@openzeppelin/contracts/token/ERC20/ERC20.sol\":2244:2249  _name */\n      0x03\n        /* \"@openzeppelin/contracts/token/ERC20/ERC20.sol\":2237:2249  return _name */\n      dup1\n      sload\n      tag_115\n      swap1\n      tag_116\n      jump\t// in\n    tag_115:\n      dup1\n      0x1f\n      add\n      0x20\n      dup1\n      swap2\n      div\n      mul\n      0x20\n      add\n      mload(0x40)\n      swap1\n      dup2\n      add\n      0x40\n      mstore\n      dup1\n      swap3\n      swap2\n      swap1\n      dup2\n      dup2\n      mstore\n      0x20\n      add\n      dup3\n      dup1\n      sload\n      tag_117\n      swap1\n      tag_116\n      jump\t// in\n    tag_117:\n      dup1\n      iszero\n      tag_118\n      jumpi\n      dup1\n      0x1f\n      lt\n      tag_119\n      jumpi\n      0x0100\n      dup1\n      dup4\n      sload\n      div\n      mul\n      dup4\n      mstore\n      swap2\n      0x20\n      add\n      swap2\n      jump(tag_118)\n    tag_119:\n      dup3\n      add\n      swap2\n      swap1\n      0x00\n      mstore\n      keccak256(0x00, 0x20)\n      swap1\n    tag_120:\n      dup2\n      sload\n      dup2\n      mstore\n      swap1\n      0x01\n      add\n      swap1\n      0x20\n      add\n      dup1\n      dup4\n      gt\n      tag_120\n      jumpi\n      dup3\n      swap1\n      sub\n      0x1f\n      and\n      dup3\n      add\n      swap2\n    tag_118:\n      pop\n      pop\n      pop\n      pop\n      pop\n      swap1\n      pop\n        /* \"@openzeppelin/contracts/token/ERC20/ERC20.sol\":2158:2256  function name() public view virtual override returns (string memory) {... */\n      swap1\n      jump\t// out\n        /* \"contract git.sol\":1933:2115  function minttheTokenprice(address _property) public {... */\n    tag_35:\n        /* \"contract git.sol\":1996:2029  PropertyFinances storage property */\n      0x00\n        /* \"contract git.sol\":2032:2050  PropertykiFinances */\n      0x06\n        /* \"contract git.sol\":2032:2061  PropertykiFinances[_property] */\n      0x00\n        /* \"contract git.sol\":2051:2060  _property */\n      dup4\n        /* \"contract git.sol\":2032:2061  PropertykiFinances[_property] */\n      0xffffffffffffffffffffffffffffffffffffffff\n      and\n      0xffffffffffffffffffffffffffffffffffffffff\n      and\n      dup2\n      mstore\n      0x20\n      add\n      swap1\n      dup2\n      mstore\n      0x20\n      add\n      0x00\n      keccak256\n        /* \"contract git.sol\":1996:2061  PropertyFinances storage property = PropertykiFinances[_property] */\n      swap1\n      pop\n        /* \"contract git.sol\":2071:2108  _mint(_property, property.Tokenprice) */\n      tag_122\n        /* \"contract git.sol\":2077:2086  _property */\n      dup3\n        /* \"contract git.sol\":2088:2096  property */\n      dup3\n        /* \"contract git.sol\":2088:2107  property.Tokenprice */\n      0x00\n      add\n      sload\n        /* \"contract git.sol\":2071:2076  _mint */\n      tag_123\n        /* \"contract git.sol\":2071:2108  _mint(_property, property.Tokenprice) */\n      jump\t// in\n    tag_122:\n        /* \"contract git.sol\":1986:2115  {... */\n      pop\n        /* \"contract git.sol\":1933:2115  function minttheTokenprice(address _property) public {... */\n      pop\n      jump\t// out\n        /* \"@openzeppelin/contracts/token/ERC20/ERC20.sol\":4444:4641  function approve(address spender, uint256 amount) public virtual override returns (bool) {... */\n    tag_39:\n        /* \"@openzeppelin/contracts/token/ERC20/ERC20.sol\":4527:4531  bool */\n      0x00\n        /* \"@openzeppelin/contracts/token/ERC20/ERC20.sol\":4543:4556  address owner */\n      dup1\n        /* \"@openzeppelin/contracts/token/ERC20/ERC20.sol\":4559:4571  _msgSender() */\n      tag_125\n        /* \"@openzeppelin/contracts/token/ERC20/ERC20.sol\":4559:4569  _msgSender */\n      tag_126\n        /* \"@openzeppelin/contracts/token/ERC20/ERC20.sol\":4559:4571  _msgSender() */\n      jump\t// in\n    tag_125:\n        /* \"@openzeppelin/contracts/token/ERC20/ERC20.sol\":4543:4571  address owner = _msgSender() */\n      swap1\n      pop\n        /* \"@openzeppelin/contracts/token/ERC20/ERC20.sol\":4581:4613  _approve(owner, spender, amount) */\n      tag_127\n        /* \"@openzeppelin/contracts/token/ERC20/ERC20.sol\":4590:4595  owner */\n      dup2\n        /* \"@openzeppelin/contracts/token/ERC20/ERC20.sol\":4597:4604  spender */\n      dup6\n        /* \"@openzeppelin/contracts/token/ERC20/ERC20.sol\":4606:4612  amount */\n      dup6\n        /* \"@openzeppelin/contracts/token/ERC20/ERC20.sol\":4581:4589  _approve */\n      tag_128\n        /* \"@openzeppelin/contracts/token/ERC20/ERC20.sol\":4581:4613  _approve(owner, spender, amount) */\n      jump\t// in\n    tag_127:\n        /* \"@openzeppelin/contracts/token/ERC20/ERC20.sol\":4630:4634  true */\n      0x01\n        /* \"@openzeppelin/contracts/token/ERC20/ERC20.sol\":4623:4634  return true */\n      swap2\n      pop\n      pop\n        /* \"@openzeppelin/contracts/token/ERC20/ERC20.sol\":4444:4641  function approve(address spender, uint256 amount) public virtual override returns (bool) {... */\n      swap3\n      swap2\n      pop\n      pop\n      jump\t// out\n        /* \"contract git.sol\":782:844  mapping(address => PropertyFinances) public PropertykiFinances */\n    tag_44:\n      mstore(0x20, 0x06)\n      dup1\n      0x00\n      mstore\n      keccak256(0x00, 0x40)\n      0x00\n      swap2\n      pop\n      swap1\n      pop\n      dup1\n      0x00\n      add\n      sload\n      swap1\n      dup1\n      0x01\n      add\n      sload\n      swap1\n      dup1\n      0x02\n      add\n      sload\n      swap1\n      dup1\n      0x03\n      add\n      sload\n      swap1\n      dup1\n      0x04\n      add\n      sload\n      swap1\n      dup1\n      0x05\n      add\n      sload\n      swap1\n      dup1\n      0x06\n      add\n      sload\n      swap1\n      dup1\n      0x07\n      add\n      sload\n      swap1\n      dup1\n      0x08\n      add\n      sload\n      swap1\n      dup1\n      0x09\n      add\n      sload\n      swap1\n      pop\n      dup11\n      jump\t// out\n        /* \"@openzeppelin/contracts/token/ERC20/ERC20.sol\":3255:3361  function totalSupply() public view virtual override returns (uint256) {... */\n    tag_48:\n        /* \"@openzeppelin/contracts/token/ERC20/ERC20.sol\":3316:3323  uint256 */\n      0x00\n        /* \"@openzeppelin/contracts/token/ERC20/ERC20.sol\":3342:3354  _totalSupply */\n      sload(0x02)\n        /* \"@openzeppelin/contracts/token/ERC20/ERC20.sol\":3335:3354  return _totalSupply */\n      swap1\n      pop\n        /* \"@openzeppelin/contracts/token/ERC20/ERC20.sol\":3255:3361  function totalSupply() public view virtual override returns (uint256) {... */\n      swap1\n      jump\t// out\n        /* \"@openzeppelin/contracts/token/ERC20/ERC20.sol\":5203:5459  function transferFrom(address from, address to, uint256 amount) public virtual override returns (bool) {... */\n    tag_54:\n        /* \"@openzeppelin/contracts/token/ERC20/ERC20.sol\":5300:5304  bool */\n      0x00\n        /* \"@openzeppelin/contracts/token/ERC20/ERC20.sol\":5316:5331  address spender */\n      dup1\n        /* \"@openzeppelin/contracts/token/ERC20/ERC20.sol\":5334:5346  _msgSender() */\n      tag_131\n        /* \"@openzeppelin/contracts/token/ERC20/ERC20.sol\":5334:5344  _msgSender */\n      tag_126\n        /* \"@openzeppelin/contracts/token/ERC20/ERC20.sol\":5334:5346  _msgSender() */\n      jump\t// in\n    tag_131:\n        /* \"@openzeppelin/contracts/token/ERC20/ERC20.sol\":5316:5346  address spender = _msgSender() */\n      swap1\n      pop\n        /* \"@openzeppelin/contracts/token/ERC20/ERC20.sol\":5356:5394  _spendAllowance(from, spender, amount) */\n      tag_132\n        /* \"@openzeppelin/contracts/token/ERC20/ERC20.sol\":5372:5376  from */\n      dup6\n        /* \"@openzeppelin/contracts/token/ERC20/ERC20.sol\":5378:5385  spender */\n      dup3\n        /* \"@openzeppelin/contracts/token/ERC20/ERC20.sol\":5387:5393  amount */\n      dup6\n        /* \"@openzeppelin/contracts/token/ERC20/ERC20.sol\":5356:5371  _spendAllowance */\n      tag_133\n        /* \"@openzeppelin/contracts/token/ERC20/ERC20.sol\":5356:5394  _spendAllowance(from, spender, amount) */\n      jump\t// in\n    tag_132:\n        /* \"@openzeppelin/contracts/token/ERC20/ERC20.sol\":5404:5431  _transfer(from, to, amount) */\n      tag_134\n        /* \"@openzeppelin/contracts/token/ERC20/ERC20.sol\":5414:5418  from */\n      dup6\n        /* \"@openzeppelin/contracts/token/ERC20/ERC20.sol\":5420:5422  to */\n      dup6\n        /* \"@openzeppelin/contracts/token/ERC20/ERC20.sol\":5424:5430  amount */\n      dup6\n        /* \"@openzeppelin/contracts/token/ERC20/ERC20.sol\":5404:5413  _transfer */\n      tag_135\n        /* \"@openzeppelin/contracts/token/ERC20/ERC20.sol\":5404:5431  _transfer(from, to, amount) */\n      jump\t// in\n    tag_134:\n        /* \"@openzeppelin/contracts/token/ERC20/ERC20.sol\":5448:5452  true */\n      0x01\n        /* \"@openzeppelin/contracts/token/ERC20/ERC20.sol\":5441:5452  return true */\n      swap2\n      pop\n      pop\n        /* \"@openzeppelin/contracts/token/ERC20/ERC20.sol\":5203:5459  function transferFrom(address from, address to, uint256 amount) public virtual override returns (bool) {... */\n      swap4\n      swap3\n      pop\n      pop\n      pop\n      jump\t// out\n        /* \"@openzeppelin/contracts/token/ERC20/ERC20.sol\":3104:3195  function decimals() public view virtual override returns (uint8) {... */\n    tag_57:\n        /* \"@openzeppelin/contracts/token/ERC20/ERC20.sol\":3162:3167  uint8 */\n      0x00\n        /* \"@openzeppelin/contracts/token/ERC20/ERC20.sol\":3186:3188  18 */\n      0x12\n        /* \"@openzeppelin/contracts/token/ERC20/ERC20.sol\":3179:3188  return 18 */\n      swap1\n      pop\n        /* \"@openzeppelin/contracts/token/ERC20/ERC20.sol\":3104:3195  function decimals() public view virtual override returns (uint8) {... */\n      swap1\n      jump\t// out\n        /* \"@openzeppelin/contracts/token/ERC20/ERC20.sol\":5854:6088  function increaseAllowance(address spender, uint256 addedValue) public virtual returns (bool) {... */\n    tag_62:\n        /* \"@openzeppelin/contracts/token/ERC20/ERC20.sol\":5942:5946  bool */\n      0x00\n        /* \"@openzeppelin/contracts/token/ERC20/ERC20.sol\":5958:5971  address owner */\n      dup1\n        /* \"@openzeppelin/contracts/token/ERC20/ERC20.sol\":5974:5986  _msgSender() */\n      tag_138\n        /* \"@openzeppelin/contracts/token/ERC20/ERC20.sol\":5974:5984  _msgSender */\n      tag_126\n        /* \"@openzeppelin/contracts/token/ERC20/ERC20.sol\":5974:5986  _msgSender() */\n      jump\t// in\n    tag_138:\n        /* \"@openzeppelin/contracts/token/ERC20/ERC20.sol\":5958:5986  address owner = _msgSender() */\n      swap1\n      pop\n        /* \"@openzeppelin/contracts/token/ERC20/ERC20.sol\":5996:6060  _approve(owner, spender, allowance(owner, spender) + addedValue) */\n      tag_139\n        /* \"@openzeppelin/contracts/token/ERC20/ERC20.sol\":6005:6010  owner */\n      dup2\n        /* \"@openzeppelin/contracts/token/ERC20/ERC20.sol\":6012:6019  spender */\n      dup6\n        /* \"@openzeppelin/contracts/token/ERC20/ERC20.sol\":6049:6059  addedValue */\n      dup6\n        /* \"@openzeppelin/contracts/token/ERC20/ERC20.sol\":6021:6046  allowance(owner, spender) */\n      tag_140\n        /* \"@openzeppelin/contracts/token/ERC20/ERC20.sol\":6031:6036  owner */\n      dup6\n        /* \"@openzeppelin/contracts/token/ERC20/ERC20.sol\":6038:6045  spender */\n      dup10\n        /* \"@openzeppelin/contracts/token/ERC20/ERC20.sol\":6021:6030  allowance */\n      tag_101\n        /* \"@openzeppelin/contracts/token/ERC20/ERC20.sol\":6021:6046  allowance(owner, spender) */\n      jump\t// in\n    tag_140:\n        /* \"@openzeppelin/contracts/token/ERC20/ERC20.sol\":6021:6059  allowance(owner, spender) + addedValue */\n      tag_141\n      swap2\n      swap1\n      tag_142\n      jump\t// in\n    tag_141:\n        /* \"@openzeppelin/contracts/token/ERC20/ERC20.sol\":5996:6004  _approve */\n      tag_128\n        /* \"@openzeppelin/contracts/token/ERC20/ERC20.sol\":5996:6060  _approve(owner, spender, allowance(owner, spender) + addedValue) */\n      jump\t// in\n    tag_139:\n        /* \"@openzeppelin/contracts/token/ERC20/ERC20.sol\":6077:6081  true */\n      0x01\n        /* \"@openzeppelin/contracts/token/ERC20/ERC20.sol\":6070:6081  return true */\n      swap2\n      pop\n      pop\n        /* \"@openzeppelin/contracts/token/ERC20/ERC20.sol\":5854:6088  function increaseAllowance(address spender, uint256 addedValue) public virtual returns (bool) {... */\n      swap3\n      swap2\n      pop\n      pop\n      jump\t// out\n        /* \"contract git.sol\":1515:1723  function DecideNetRentyear(address _property) public {... */\n    tag_66:\n        /* \"contract git.sol\":1578:1611  PropertyFinances storage property */\n      0x00\n        /* \"contract git.sol\":1614:1632  PropertykiFinances */\n      0x06\n        /* \"contract git.sol\":1614:1643  PropertykiFinances[_property] */\n      0x00\n        /* \"contract git.sol\":1633:1642  _property */\n      dup4\n        /* \"contract git.sol\":1614:1643  PropertykiFinances[_property] */\n      0xffffffffffffffffffffffffffffffffffffffff\n      and\n      0xffffffffffffffffffffffffffffffffffffffff\n      and\n      dup2\n      mstore\n      0x20\n      add\n      swap1\n      dup2\n      mstore\n      0x20\n      add\n      0x00\n      keccak256\n        /* \"contract git.sol\":1578:1643  PropertyFinances storage property = PropertykiFinances[_property] */\n      swap1\n      pop\n        /* \"contract git.sol\":1676:1716  property.TotalInvestment.mul(8).div(100) */\n      tag_144\n        /* \"contract git.sol\":1712:1715  100 */\n      0x64\n        /* \"contract git.sol\":1676:1707  property.TotalInvestment.mul(8) */\n      tag_145\n        /* \"contract git.sol\":1705:1706  8 */\n      0x08\n        /* \"contract git.sol\":1676:1684  property */\n      dup5\n        /* \"contract git.sol\":1676:1700  property.TotalInvestment */\n      0x05\n      add\n      sload\n        /* \"contract git.sol\":1676:1704  property.TotalInvestment.mul */\n      tag_146\n      swap1\n        /* \"contract git.sol\":1676:1707  property.TotalInvestment.mul(8) */\n      swap2\n      swap1\n      0xffffffff\n      and\n      jump\t// in\n    tag_145:\n        /* \"contract git.sol\":1676:1711  property.TotalInvestment.mul(8).div */\n      tag_147\n      swap1\n        /* \"contract git.sol\":1676:1716  property.TotalInvestment.mul(8).div(100) */\n      swap2\n      swap1\n      0xffffffff\n      and\n      jump\t// in\n    tag_144:\n        /* \"contract git.sol\":1653:1661  property */\n      dup2\n        /* \"contract git.sol\":1653:1673  property.NetRentyear */\n      0x03\n      add\n        /* \"contract git.sol\":1653:1716  property.NetRentyear = property.TotalInvestment.mul(8).div(100) */\n      dup2\n      swap1\n      sstore\n      pop\n        /* \"contract git.sol\":1568:1723  {... */\n      pop\n        /* \"contract git.sol\":1515:1723  function DecideNetRentyear(address _property) public {... */\n      pop\n      jump\t// out\n        /* \"contract git.sol\":1729:1927  function DecideNetRentmonth(address _property) public {... */\n    tag_69:\n        /* \"contract git.sol\":1793:1826  PropertyFinances storage property */\n      0x00\n        /* \"contract git.sol\":1829:1847  PropertykiFinances */\n      0x06\n        /* \"contract git.sol\":1829:1858  PropertykiFinances[_property] */\n      0x00\n        /* \"contract git.sol\":1848:1857  _property */\n      dup4\n        /* \"contract git.sol\":1829:1858  PropertykiFinances[_property] */\n      0xffffffffffffffffffffffffffffffffffffffff\n      and\n      0xffffffffffffffffffffffffffffffffffffffff\n      and\n      dup2\n      mstore\n      0x20\n      add\n      swap1\n      dup2\n      mstore\n      0x20\n      add\n      0x00\n      keccak256\n        /* \"contract git.sol\":1793:1858  PropertyFinances storage property = PropertykiFinances[_property] */\n      swap1\n      pop\n        /* \"contract git.sol\":1892:1920  property.NetRentyear.div(12) */\n      tag_149\n        /* \"contract git.sol\":1917:1919  12 */\n      0x0c\n        /* \"contract git.sol\":1892:1900  property */\n      dup3\n        /* \"contract git.sol\":1892:1912  property.NetRentyear */\n      0x03\n      add\n      sload\n        /* \"contract git.sol\":1892:1916  property.NetRentyear.div */\n      tag_147\n      swap1\n        /* \"contract git.sol\":1892:1920  property.NetRentyear.div(12) */\n      swap2\n      swap1\n      0xffffffff\n      and\n      jump\t// in\n    tag_149:\n        /* \"contract git.sol\":1868:1876  property */\n      dup2\n        /* \"contract git.sol\":1868:1889  property.NetRentmonth */\n      0x04\n      add\n        /* \"contract git.sol\":1868:1920  property.NetRentmonth = property.NetRentyear.div(12) */\n      dup2\n      swap1\n      sstore\n      pop\n        /* \"contract git.sol\":1783:1927  {... */\n      pop\n        /* \"contract git.sol\":1729:1927  function DecideNetRentmonth(address _property) public {... */\n      pop\n      jump\t// out\n        /* \"@openzeppelin/contracts/token/ERC20/ERC20.sol\":3419:3544  function balanceOf(address account) public view virtual override returns (uint256) {... */\n    tag_72:\n        /* \"@openzeppelin/contracts/token/ERC20/ERC20.sol\":3493:3500  uint256 */\n      0x00\n        /* \"@openzeppelin/contracts/token/ERC20/ERC20.sol\":3519:3528  _balances */\n      dup1\n        /* \"@openzeppelin/contracts/token/ERC20/ERC20.sol\":3519:3537  _balances[account] */\n      0x00\n        /* \"@openzeppelin/contracts/token/ERC20/ERC20.sol\":3529:3536  account */\n      dup4\n        /* \"@openzeppelin/contracts/token/ERC20/ERC20.sol\":3519:3537  _balances[account] */\n      0xffffffffffffffffffffffffffffffffffffffff\n      and\n      0xffffffffffffffffffffffffffffffffffffffff\n      and\n      dup2\n      mstore\n      0x20\n      add\n      swap1\n      dup2\n      mstore\n      0x20\n      add\n      0x00\n      keccak256\n      sload\n        /* \"@openzeppelin/contracts/token/ERC20/ERC20.sol\":3512:3537  return _balances[account] */\n      swap1\n      pop\n        /* \"@openzeppelin/contracts/token/ERC20/ERC20.sol\":3419:3544  function balanceOf(address account) public view virtual override returns (uint256) {... */\n      swap2\n      swap1\n      pop\n      jump\t// out\n        /* \"contract git.sol\":1289:1509  function DecideTotalInvestment(address _property) public {... */\n    tag_76:\n        /* \"contract git.sol\":1356:1389  PropertyFinances storage property */\n      0x00\n        /* \"contract git.sol\":1392:1410  PropertykiFinances */\n      0x06\n        /* \"contract git.sol\":1392:1421  PropertykiFinances[_property] */\n      0x00\n        /* \"contract git.sol\":1411:1420  _property */\n      dup4\n        /* \"contract git.sol\":1392:1421  PropertykiFinances[_property] */\n      0xffffffffffffffffffffffffffffffffffffffff\n      and\n      0xffffffffffffffffffffffffffffffffffffffff\n      and\n      dup2\n      mstore\n      0x20\n      add\n      swap1\n      dup2\n      mstore\n      0x20\n      add\n      0x00\n      keccak256\n        /* \"contract git.sol\":1356:1421  PropertyFinances storage property = PropertykiFinances[_property] */\n      swap1\n      pop\n        /* \"contract git.sol\":1480:1488  property */\n      dup1\n        /* \"contract git.sol\":1480:1502  property.TokensNumbers */\n      0x01\n      add\n      sload\n        /* \"contract git.sol\":1458:1466  property */\n      dup2\n        /* \"contract git.sol\":1458:1477  property.Tokenprice */\n      0x00\n      add\n      sload\n        /* \"contract git.sol\":1458:1502  property.Tokenprice * property.TokensNumbers */\n      tag_152\n      swap2\n      swap1\n      tag_153\n      jump\t// in\n    tag_152:\n        /* \"contract git.sol\":1431:1439  property */\n      dup2\n        /* \"contract git.sol\":1431:1455  property.TotalInvestment */\n      0x05\n      add\n        /* \"contract git.sol\":1431:1502  property.TotalInvestment = property.Tokenprice * property.TokensNumbers */\n      dup2\n      swap1\n      sstore\n      pop\n        /* \"contract git.sol\":1346:1509  {... */\n      pop\n        /* \"contract git.sol\":1289:1509  function DecideTotalInvestment(address _property) public {... */\n      pop\n      jump\t// out\n        /* \"contract git.sol\":755:775  address public owner */\n    tag_78:\n      0x05\n      0x00\n      swap1\n      sload\n      swap1\n      0x0100\n      exp\n      swap1\n      div\n      0xffffffffffffffffffffffffffffffffffffffff\n      and\n      dup2\n      jump\t// out\n        /* \"@openzeppelin/contracts/token/ERC20/ERC20.sol\":2369:2471  function symbol() public view virtual override returns (string memory) {... */\n    tag_82:\n        /* \"@openzeppelin/contracts/token/ERC20/ERC20.sol\":2425:2438  string memory */\n      0x60\n        /* \"@openzeppelin/contracts/token/ERC20/ERC20.sol\":2457:2464  _symbol */\n      0x04\n        /* \"@openzeppelin/contracts/token/ERC20/ERC20.sol\":2450:2464  return _symbol */\n      dup1\n      sload\n      tag_155\n      swap1\n      tag_116\n      jump\t// in\n    tag_155:\n      dup1\n      0x1f\n      add\n      0x20\n      dup1\n      swap2\n      div\n      mul\n      0x20\n      add\n      mload(0x40)\n      swap1\n      dup2\n      add\n      0x40\n      mstore\n      dup1\n      swap3\n      swap2\n      swap1\n      dup2\n      dup2\n      mstore\n      0x20\n      add\n      dup3\n      dup1\n      sload\n      tag_156\n      swap1\n      tag_116\n      jump\t// in\n    tag_156:\n      dup1\n      iszero\n      tag_157\n      jumpi\n      dup1\n      0x1f\n      lt\n      tag_158\n      jumpi\n      0x0100\n      dup1\n      dup4\n      sload\n      div\n      mul\n      dup4\n      mstore\n      swap2\n      0x20\n      add\n      swap2\n      jump(tag_157)\n    tag_158:\n      dup3\n      add\n      swap2\n      swap1\n      0x00\n      mstore\n      keccak256(0x00, 0x20)\n      swap1\n    tag_159:\n      dup2\n      sload\n      dup2\n      mstore\n      swap1\n      0x01\n      add\n      swap1\n      0x20\n      add\n      dup1\n      dup4\n      gt\n      tag_159\n      jumpi\n      dup3\n      swap1\n      sub\n      0x1f\n      and\n      dup3\n      add\n      swap2\n    tag_157:\n      pop\n      pop\n      pop\n      pop\n      pop\n      swap1\n      pop\n        /* \"@openzeppelin/contracts/token/ERC20/ERC20.sol\":2369:2471  function symbol() public view virtual override returns (string memory) {... */\n      swap1\n      jump\t// out\n        /* \"contract git.sol\":971:1283  function DecideTokenprice(address _property) public {... */\n    tag_86:\n        /* \"contract git.sol\":1033:1066  PropertyFinances storage property */\n      0x00\n        /* \"contract git.sol\":1069:1087  PropertykiFinances */\n      0x06\n        /* \"contract git.sol\":1069:1098  PropertykiFinances[_property] */\n      0x00\n        /* \"contract git.sol\":1088:1097  _property */\n      dup4\n        /* \"contract git.sol\":1069:1098  PropertykiFinances[_property] */\n      0xffffffffffffffffffffffffffffffffffffffff\n      and\n      0xffffffffffffffffffffffffffffffffffffffff\n      and\n      dup2\n      mstore\n      0x20\n      add\n      swap1\n      dup2\n      mstore\n      0x20\n      add\n      0x00\n      keccak256\n        /* \"contract git.sol\":1033:1098  PropertyFinances storage property = PropertykiFinances[_property] */\n      swap1\n      pop\n        /* \"contract git.sol\":1130:1276  property... */\n      tag_161\n        /* \"contract git.sol\":1254:1262  property */\n      dup2\n        /* \"contract git.sol\":1254:1275  property.Interiorsize */\n      0x06\n      add\n      sload\n        /* \"contract git.sol\":1130:1236  property... */\n      tag_162\n        /* \"contract git.sol\":1213:1221  property */\n      dup4\n        /* \"contract git.sol\":1213:1235  property.LotSizeinsqft */\n      0x09\n      add\n      sload\n        /* \"contract git.sol\":1130:1195  property... */\n      tag_163\n        /* \"contract git.sol\":1177:1185  property */\n      dup6\n        /* \"contract git.sol\":1177:1194  property.Bathroom */\n      0x08\n      add\n      sload\n        /* \"contract git.sol\":1130:1138  property */\n      dup7\n        /* \"contract git.sol\":1130:1159  property... */\n      0x07\n      add\n      sload\n        /* \"contract git.sol\":1130:1176  property... */\n      tag_164\n      swap1\n        /* \"contract git.sol\":1130:1195  property... */\n      swap2\n      swap1\n      0xffffffff\n      and\n      jump\t// in\n    tag_163:\n        /* \"contract git.sol\":1130:1212  property... */\n      tag_164\n      swap1\n        /* \"contract git.sol\":1130:1236  property... */\n      swap2\n      swap1\n      0xffffffff\n      and\n      jump\t// in\n    tag_162:\n        /* \"contract git.sol\":1130:1253  property... */\n      tag_164\n      swap1\n        /* \"contract git.sol\":1130:1276  property... */\n      swap2\n      swap1\n      0xffffffff\n      and\n      jump\t// in\n    tag_161:\n        /* \"contract git.sol\":1108:1116  property */\n      dup2\n        /* \"contract git.sol\":1108:1127  property.Tokenprice */\n      0x00\n      add\n        /* \"contract git.sol\":1108:1276  property.Tokenprice = property... */\n      dup2\n      swap1\n      sstore\n      pop\n        /* \"contract git.sol\":1023:1283  {... */\n      pop\n        /* \"contract git.sol\":971:1283  function DecideTokenprice(address _property) public {... */\n      pop\n      jump\t// out\n        /* \"@openzeppelin/contracts/token/ERC20/ERC20.sol\":6575:7002  function decreaseAllowance(address spender, uint256 subtractedValue) public virtual returns (bool) {... */\n    tag_89:\n        /* \"@openzeppelin/contracts/token/ERC20/ERC20.sol\":6668:6672  bool */\n      0x00\n        /* \"@openzeppelin/contracts/token/ERC20/ERC20.sol\":6684:6697  address owner */\n      dup1\n        /* \"@openzeppelin/contracts/token/ERC20/ERC20.sol\":6700:6712  _msgSender() */\n      tag_166\n        /* \"@openzeppelin/contracts/token/ERC20/ERC20.sol\":6700:6710  _msgSender */\n      tag_126\n        /* \"@openzeppelin/contracts/token/ERC20/ERC20.sol\":6700:6712  _msgSender() */\n      jump\t// in\n    tag_166:\n        /* \"@openzeppelin/contracts/token/ERC20/ERC20.sol\":6684:6712  address owner = _msgSender() */\n      swap1\n      pop\n        /* \"@openzeppelin/contracts/token/ERC20/ERC20.sol\":6722:6746  uint256 currentAllowance */\n      0x00\n        /* \"@openzeppelin/contracts/token/ERC20/ERC20.sol\":6749:6774  allowance(owner, spender) */\n      tag_167\n        /* \"@openzeppelin/contracts/token/ERC20/ERC20.sol\":6759:6764  owner */\n      dup3\n        /* \"@openzeppelin/contracts/token/ERC20/ERC20.sol\":6766:6773  spender */\n      dup7\n        /* \"@openzeppelin/contracts/token/ERC20/ERC20.sol\":6749:6758  allowance */\n      tag_101\n        /* \"@openzeppelin/contracts/token/ERC20/ERC20.sol\":6749:6774  allowance(owner, spender) */\n      jump\t// in\n    tag_167:\n        /* \"@openzeppelin/contracts/token/ERC20/ERC20.sol\":6722:6774  uint256 currentAllowance = allowance(owner, spender) */\n      swap1\n      pop\n        /* \"@openzeppelin/contracts/token/ERC20/ERC20.sol\":6812:6827  subtractedValue */\n      dup4\n        /* \"@openzeppelin/contracts/token/ERC20/ERC20.sol\":6792:6808  currentAllowance */\n      dup2\n        /* \"@openzeppelin/contracts/token/ERC20/ERC20.sol\":6792:6827  currentAllowance >= subtractedValue */\n      lt\n      iszero\n        /* \"@openzeppelin/contracts/token/ERC20/ERC20.sol\":6784:6869  require(currentAllowance >= subtractedValue, \"ERC20: decreased allowance below zero\") */\n      tag_168\n      jumpi\n      mload(0x40)\n      0x08c379a000000000000000000000000000000000000000000000000000000000\n      dup2\n      mstore\n      0x04\n      add\n      tag_169\n      swap1\n      tag_170\n      jump\t// in\n    tag_169:\n      mload(0x40)\n      dup1\n      swap2\n      sub\n      swap1\n      revert\n    tag_168:\n        /* \"@openzeppelin/contracts/token/ERC20/ERC20.sol\":6903:6963  _approve(owner, spender, currentAllowance - subtractedValue) */\n      tag_171\n        /* \"@openzeppelin/contracts/token/ERC20/ERC20.sol\":6912:6917  owner */\n      dup3\n        /* \"@openzeppelin/contracts/token/ERC20/ERC20.sol\":6919:6926  spender */\n      dup7\n        /* \"@openzeppelin/contracts/token/ERC20/ERC20.sol\":6947:6962  subtractedValue */\n      dup7\n        /* \"@openzeppelin/contracts/token/ERC20/ERC20.sol\":6928:6944  currentAllowance */\n      dup5\n        /* \"@openzeppelin/contracts/token/ERC20/ERC20.sol\":6928:6962  currentAllowance - subtractedValue */\n      sub\n        /* \"@openzeppelin/contracts/token/ERC20/ERC20.sol\":6903:6911  _approve */\n      tag_128\n        /* \"@openzeppelin/contracts/token/ERC20/ERC20.sol\":6903:6963  _approve(owner, spender, currentAllowance - subtractedValue) */\n      jump\t// in\n    tag_171:\n        /* \"@openzeppelin/contracts/token/ERC20/ERC20.sol\":6991:6995  true */\n      0x01\n        /* \"@openzeppelin/contracts/token/ERC20/ERC20.sol\":6984:6995  return true */\n      swap3\n      pop\n      pop\n      pop\n        /* \"@openzeppelin/contracts/token/ERC20/ERC20.sol\":6575:7002  function decreaseAllowance(address spender, uint256 subtractedValue) public virtual returns (bool) {... */\n      swap3\n      swap2\n      pop\n      pop\n      jump\t// out\n        /* \"@openzeppelin/contracts/token/ERC20/ERC20.sol\":3740:3929  function transfer(address to, uint256 amount) public virtual override returns (bool) {... */\n    tag_93:\n        /* \"@openzeppelin/contracts/token/ERC20/ERC20.sol\":3819:3823  bool */\n      0x00\n        /* \"@openzeppelin/contracts/token/ERC20/ERC20.sol\":3835:3848  address owner */\n      dup1\n        /* \"@openzeppelin/contracts/token/ERC20/ERC20.sol\":3851:3863  _msgSender() */\n      tag_173\n        /* \"@openzeppelin/contracts/token/ERC20/ERC20.sol\":3851:3861  _msgSender */\n      tag_126\n        /* \"@openzeppelin/contracts/token/ERC20/ERC20.sol\":3851:3863  _msgSender() */\n      jump\t// in\n    tag_173:\n        /* \"@openzeppelin/contracts/token/ERC20/ERC20.sol\":3835:3863  address owner = _msgSender() */\n      swap1\n      pop\n        /* \"@openzeppelin/contracts/token/ERC20/ERC20.sol\":3873:3901  _transfer(owner, to, amount) */\n      tag_174\n        /* \"@openzeppelin/contracts/token/ERC20/ERC20.sol\":3883:3888  owner */\n      dup2\n        /* \"@openzeppelin/contracts/token/ERC20/ERC20.sol\":3890:3892  to */\n      dup6\n        /* \"@openzeppelin/contracts/token/ERC20/ERC20.sol\":3894:3900  amount */\n      dup6\n        /* \"@openzeppelin/contracts/token/ERC20/ERC20.sol\":3873:3882  _transfer */\n      tag_135\n        /* \"@openzeppelin/contracts/token/ERC20/ERC20.sol\":3873:3901  _transfer(owner, to, amount) */\n      jump\t// in\n    tag_174:\n        /* \"@openzeppelin/contracts/token/ERC20/ERC20.sol\":3918:3922  true */\n      0x01\n        /* \"@openzeppelin/contracts/token/ERC20/ERC20.sol\":3911:3922  return true */\n      swap2\n      pop\n      pop\n        /* \"@openzeppelin/contracts/token/ERC20/ERC20.sol\":3740:3929  function transfer(address to, uint256 amount) public virtual override returns (bool) {... */\n      swap3\n      swap2\n      pop\n      pop\n      jump\t// out\n        /* \"contract git.sol\":2319:2508  function minttheTokenRentperyear(address _property) public {... */\n    tag_97:\n        /* \"contract git.sol\":2388:2421  PropertyFinances storage property */\n      0x00\n        /* \"contract git.sol\":2424:2442  PropertykiFinances */\n      0x06\n        /* \"contract git.sol\":2424:2453  PropertykiFinances[_property] */\n      0x00\n        /* \"contract git.sol\":2443:2452  _property */\n      dup4\n        /* \"contract git.sol\":2424:2453  PropertykiFinances[_property] */\n      0xffffffffffffffffffffffffffffffffffffffff\n      and\n      0xffffffffffffffffffffffffffffffffffffffff\n      and\n      dup2\n      mstore\n      0x20\n      add\n      swap1\n      dup2\n      mstore\n      0x20\n      add\n      0x00\n      keccak256\n        /* \"contract git.sol\":2388:2453  PropertyFinances storage property = PropertykiFinances[_property] */\n      swap1\n      pop\n        /* \"contract git.sol\":2463:2501  _mint(_property, property.NetRentyear) */\n      tag_176\n        /* \"contract git.sol\":2469:2478  _property */\n      dup3\n        /* \"contract git.sol\":2480:2488  property */\n      dup3\n        /* \"contract git.sol\":2480:2500  property.NetRentyear */\n      0x03\n      add\n      sload\n        /* \"contract git.sol\":2463:2468  _mint */\n      tag_123\n        /* \"contract git.sol\":2463:2501  _mint(_property, property.NetRentyear) */\n      jump\t// in\n    tag_176:\n        /* \"contract git.sol\":2378:2508  {... */\n      pop\n        /* \"contract git.sol\":2319:2508  function minttheTokenRentperyear(address _property) public {... */\n      pop\n      jump\t// out\n        /* \"@openzeppelin/contracts/token/ERC20/ERC20.sol\":3987:4136  function allowance(address owner, address spender) public view virtual override returns (uint256) {... */\n    tag_101:\n        /* \"@openzeppelin/contracts/token/ERC20/ERC20.sol\":4076:4083  uint256 */\n      0x00\n        /* \"@openzeppelin/contracts/token/ERC20/ERC20.sol\":4102:4113  _allowances */\n      0x01\n        /* \"@openzeppelin/contracts/token/ERC20/ERC20.sol\":4102:4120  _allowances[owner] */\n      0x00\n        /* \"@openzeppelin/contracts/token/ERC20/ERC20.sol\":4114:4119  owner */\n      dup5\n        /* \"@openzeppelin/contracts/token/ERC20/ERC20.sol\":4102:4120  _allowances[owner] */\n      0xffffffffffffffffffffffffffffffffffffffff\n      and\n      0xffffffffffffffffffffffffffffffffffffffff\n      and\n      dup2\n      mstore\n      0x20\n      add\n      swap1\n      dup2\n      mstore\n      0x20\n      add\n      0x00\n      keccak256\n        /* \"@openzeppelin/contracts/token/ERC20/ERC20.sol\":4102:4129  _allowances[owner][spender] */\n      0x00\n        /* \"@openzeppelin/contracts/token/ERC20/ERC20.sol\":4121:4128  spender */\n      dup4\n        /* \"@openzeppelin/contracts/token/ERC20/ERC20.sol\":4102:4129  _allowances[owner][spender] */\n      0xffffffffffffffffffffffffffffffffffffffff\n      and\n      0xffffffffffffffffffffffffffffffffffffffff\n      and\n      dup2\n      mstore\n      0x20\n      add\n      swap1\n      dup2\n      mstore\n      0x20\n      add\n      0x00\n      keccak256\n      sload\n        /* \"@openzeppelin/contracts/token/ERC20/ERC20.sol\":4095:4129  return _allowances[owner][spender] */\n      swap1\n      pop\n        /* \"@openzeppelin/contracts/token/ERC20/ERC20.sol\":3987:4136  function allowance(address owner, address spender) public view virtual override returns (uint256) {... */\n      swap3\n      swap2\n      pop\n      pop\n      jump\t// out\n        /* \"contract git.sol\":850:910  mapping(address => PropertyDetails) public PropertykiDetails */\n    tag_105:\n      mstore(0x20, 0x07)\n      dup1\n      0x00\n      mstore\n      keccak256(0x00, 0x40)\n      0x00\n      swap2\n      pop\n      swap1\n      pop\n      dup1\n      0x00\n      add\n      dup1\n      sload\n      tag_178\n      swap1\n      tag_116\n      jump\t// in\n    tag_178:\n      dup1\n      0x1f\n      add\n      0x20\n      dup1\n      swap2\n      div\n      mul\n      0x20\n      add\n      mload(0x40)\n      swap1\n      dup2\n      add\n      0x40\n      mstore\n      dup1\n      swap3\n      swap2\n      swap1\n      dup2\n      dup2\n      mstore\n      0x20\n      add\n      dup3\n      dup1\n      sload\n      tag_179\n      swap1\n      tag_116\n      jump\t// in\n    tag_179:\n      dup1\n      iszero\n      tag_180\n      jumpi\n      dup1\n      0x1f\n      lt\n      tag_181\n      jumpi\n      0x0100\n      dup1\n      dup4\n      sload\n      div\n      mul\n      dup4\n      mstore\n      swap2\n      0x20\n      add\n      swap2\n      jump(tag_180)\n    tag_181:\n      dup3\n      add\n      swap2\n      swap1\n      0x00\n      mstore\n      keccak256(0x00, 0x20)\n      swap1\n    tag_182:\n      dup2\n      sload\n      dup2\n      mstore\n      swap1\n      0x01\n      add\n      swap1\n      0x20\n      add\n      dup1\n      dup4\n      gt\n      tag_182\n      jumpi\n      dup3\n      swap1\n      sub\n      0x1f\n      and\n      dup3\n      add\n      swap2\n    tag_180:\n      pop\n      pop\n      pop\n      pop\n      pop\n      swap1\n      dup1\n      0x01\n      add\n      dup1\n      sload\n      tag_183\n      swap1\n      tag_116\n      jump\t// in\n    tag_183:\n      dup1\n      0x1f\n      add\n      0x20\n      dup1\n      swap2\n      div\n      mul\n      0x20\n      add\n      mload(0x40)\n      swap1\n      dup2\n      add\n      0x40\n      mstore\n      dup1\n      swap3\n      swap2\n      swap1\n      dup2\n      dup2\n      mstore\n      0x20\n      add\n      dup3\n      dup1\n      sload\n      tag_184\n      swap1\n      tag_116\n      jump\t// in\n    tag_184:\n      dup1\n      iszero\n      tag_185\n      jumpi\n      dup1\n      0x1f\n      lt\n      tag_186\n      jumpi\n      0x0100\n      dup1\n      dup4\n      sload\n      div\n      mul\n      dup4\n      mstore\n      swap2\n      0x20\n      add\n      swap2\n      jump(tag_185)\n    tag_186:\n      dup3\n      add\n      swap2\n      swap1\n      0x00\n      mstore\n      keccak256(0x00, 0x20)\n      swap1\n    tag_187:\n      dup2\n      sload\n      dup2\n      mstore\n      swap1\n      0x01\n      add\n      swap1\n      0x20\n      add\n      dup1\n      dup4\n      gt\n      tag_187\n      jumpi\n      dup3\n      swap1\n      sub\n      0x1f\n      and\n      dup3\n      add\n      swap2\n    tag_185:\n      pop\n      pop\n      pop\n      pop\n      pop\n      swap1\n      dup1\n      0x02\n      add\n      sload\n      swap1\n      pop\n      dup4\n      jump\t// out\n        /* \"contract git.sol\":2121:2313  function minttheTokenInvestment(address _property) public {... */\n    tag_110:\n        /* \"contract git.sol\":2189:2222  PropertyFinances storage property */\n      0x00\n        /* \"contract git.sol\":2225:2243  PropertykiFinances */\n      0x06\n        /* \"contract git.sol\":2225:2254  PropertykiFinances[_property] */\n      0x00\n        /* \"contract git.sol\":2244:2253  _property */\n      dup4\n        /* \"contract git.sol\":2225:2254  PropertykiFinances[_property] */\n      0xffffffffffffffffffffffffffffffffffffffff\n      and\n      0xffffffffffffffffffffffffffffffffffffffff\n      and\n      dup2\n      mstore\n      0x20\n      add\n      swap1\n      dup2\n      mstore\n      0x20\n      add\n      0x00\n      keccak256\n        /* \"contract git.sol\":2189:2254  PropertyFinances storage property = PropertykiFinances[_property] */\n      swap1\n      pop\n        /* \"contract git.sol\":2264:2306  _mint(_property, property.TotalInvestment) */\n      tag_189\n        /* \"contract git.sol\":2270:2279  _property */\n      dup3\n        /* \"contract git.sol\":2281:2289  property */\n      dup3\n        /* \"contract git.sol\":2281:2305  property.TotalInvestment */\n      0x05\n      add\n      sload\n        /* \"contract git.sol\":2264:2269  _mint */\n      tag_123\n        /* \"contract git.sol\":2264:2306  _mint(_property, property.TotalInvestment) */\n      jump\t// in\n    tag_189:\n        /* \"contract git.sol\":2179:2313  {... */\n      pop\n        /* \"contract git.sol\":2121:2313  function minttheTokenInvestment(address _property) public {... */\n      pop\n      jump\t// out\n        /* \"contract git.sol\":2514:2705  function minttheTokenRentpermonth(address _property) public {... */\n    tag_113:\n        /* \"contract git.sol\":2584:2617  PropertyFinances storage property */\n      0x00\n        /* \"contract git.sol\":2620:2638  PropertykiFinances */\n      0x06\n        /* \"contract git.sol\":2620:2649  PropertykiFinances[_property] */\n      0x00\n        /* \"contract git.sol\":2639:2648  _property */\n      dup4\n        /* \"contract git.sol\":2620:2649  PropertykiFinances[_property] */\n      0xffffffffffffffffffffffffffffffffffffffff\n      and\n      0xffffffffffffffffffffffffffffffffffffffff\n      and\n      dup2\n      mstore\n      0x20\n      add\n      swap1\n      dup2\n      mstore\n      0x20\n      add\n      0x00\n      keccak256\n        /* \"contract git.sol\":2584:2649  PropertyFinances storage property = PropertykiFinances[_property] */\n      swap1\n      pop\n        /* \"contract git.sol\":2659:2698  _mint(_property, property.NetRentmonth) */\n      tag_191\n        /* \"contract git.sol\":2665:2674  _property */\n      dup3\n        /* \"contract git.sol\":2676:2684  property */\n      dup3\n        /* \"contract git.sol\":2676:2697  property.NetRentmonth */\n      0x04\n      add\n      sload\n        /* \"contract git.sol\":2659:2664  _mint */\n      tag_123\n        /* \"contract git.sol\":2659:2698  _mint(_property, property.NetRentmonth) */\n      jump\t// in\n    tag_191:\n        /* \"contract git.sol\":2574:2705  {... */\n      pop\n        /* \"contract git.sol\":2514:2705  function minttheTokenRentpermonth(address _property) public {... */\n      pop\n      jump\t// out\n        /* \"@openzeppelin/contracts/token/ERC20/ERC20.sol\":8520:9055  function _mint(address account, uint256 amount) internal virtual {... */\n    tag_123:\n        /* \"@openzeppelin/contracts/token/ERC20/ERC20.sol\":8622:8623  0 */\n      0x00\n        /* \"@openzeppelin/contracts/token/ERC20/ERC20.sol\":8603:8624  account != address(0) */\n      0xffffffffffffffffffffffffffffffffffffffff\n      and\n        /* \"@openzeppelin/contracts/token/ERC20/ERC20.sol\":8603:8610  account */\n      dup3\n        /* \"@openzeppelin/contracts/token/ERC20/ERC20.sol\":8603:8624  account != address(0) */\n      0xffffffffffffffffffffffffffffffffffffffff\n      and\n      sub\n        /* \"@openzeppelin/contracts/token/ERC20/ERC20.sol\":8595:8660  require(account != address(0), \"ERC20: mint to the zero address\") */\n      tag_193\n      jumpi\n      mload(0x40)\n      0x08c379a000000000000000000000000000000000000000000000000000000000\n      dup2\n      mstore\n      0x04\n      add\n      tag_194\n      swap1\n      tag_195\n      jump\t// in\n    tag_194:\n      mload(0x40)\n      dup1\n      swap2\n      sub\n      swap1\n      revert\n    tag_193:\n        /* \"@openzeppelin/contracts/token/ERC20/ERC20.sol\":8671:8720  _beforeTokenTransfer(address(0), account, amount) */\n      tag_196\n        /* \"@openzeppelin/contracts/token/ERC20/ERC20.sol\":8700:8701  0 */\n      0x00\n        /* \"@openzeppelin/contracts/token/ERC20/ERC20.sol\":8704:8711  account */\n      dup4\n        /* \"@openzeppelin/contracts/token/ERC20/ERC20.sol\":8713:8719  amount */\n      dup4\n        /* \"@openzeppelin/contracts/token/ERC20/ERC20.sol\":8671:8691  _beforeTokenTransfer */\n      tag_197\n        /* \"@openzeppelin/contracts/token/ERC20/ERC20.sol\":8671:8720  _beforeTokenTransfer(address(0), account, amount) */\n      jump\t// in\n    tag_196:\n        /* \"@openzeppelin/contracts/token/ERC20/ERC20.sol\":8747:8753  amount */\n      dup1\n        /* \"@openzeppelin/contracts/token/ERC20/ERC20.sol\":8731:8743  _totalSupply */\n      0x02\n      0x00\n        /* \"@openzeppelin/contracts/token/ERC20/ERC20.sol\":8731:8753  _totalSupply += amount */\n      dup3\n      dup3\n      sload\n      tag_198\n      swap2\n      swap1\n      tag_142\n      jump\t// in\n    tag_198:\n      swap3\n      pop\n      pop\n      dup2\n      swap1\n      sstore\n      pop\n        /* \"@openzeppelin/contracts/token/ERC20/ERC20.sol\":8921:8927  amount */\n      dup1\n        /* \"@openzeppelin/contracts/token/ERC20/ERC20.sol\":8899:8908  _balances */\n      0x00\n        /* \"@openzeppelin/contracts/token/ERC20/ERC20.sol\":8899:8917  _balances[account] */\n      dup1\n        /* \"@openzeppelin/contracts/token/ERC20/ERC20.sol\":8909:8916  account */\n      dup5\n        /* \"@openzeppelin/contracts/token/ERC20/ERC20.sol\":8899:8917  _balances[account] */\n      0xffffffffffffffffffffffffffffffffffffffff\n      and\n      0xffffffffffffffffffffffffffffffffffffffff\n      and\n      dup2\n      mstore\n      0x20\n      add\n      swap1\n      dup2\n      mstore\n      0x20\n      add\n      0x00\n      keccak256\n      0x00\n        /* \"@openzeppelin/contracts/token/ERC20/ERC20.sol\":8899:8927  _balances[account] += amount */\n      dup3\n      dup3\n      sload\n      add\n      swap3\n      pop\n      pop\n      dup2\n      swap1\n      sstore\n      pop\n        /* \"@openzeppelin/contracts/token/ERC20/ERC20.sol\":8973:8980  account */\n      dup2\n        /* \"@openzeppelin/contracts/token/ERC20/ERC20.sol\":8952:8989  Transfer(address(0), account, amount) */\n      0xffffffffffffffffffffffffffffffffffffffff\n      and\n        /* \"@openzeppelin/contracts/token/ERC20/ERC20.sol\":8969:8970  0 */\n      0x00\n        /* \"@openzeppelin/contracts/token/ERC20/ERC20.sol\":8952:8989  Transfer(address(0), account, amount) */\n      0xffffffffffffffffffffffffffffffffffffffff\n      and\n      0xddf252ad1be2c89b69c2b068fc378daa952ba7f163c4a11628f55a4df523b3ef\n        /* \"@openzeppelin/contracts/token/ERC20/ERC20.sol\":8982:8988  amount */\n      dup4\n        /* \"@openzeppelin/contracts/token/ERC20/ERC20.sol\":8952:8989  Transfer(address(0), account, amount) */\n      mload(0x40)\n      tag_199\n      swap2\n      swap1\n      tag_50\n      jump\t// in\n    tag_199:\n      mload(0x40)\n      dup1\n      swap2\n      sub\n      swap1\n      log3\n        /* \"@openzeppelin/contracts/token/ERC20/ERC20.sol\":9000:9048  _afterTokenTransfer(address(0), account, amount) */\n      tag_200\n        /* \"@openzeppelin/contracts/token/ERC20/ERC20.sol\":9028:9029  0 */\n      0x00\n        /* \"@openzeppelin/contracts/token/ERC20/ERC20.sol\":9032:9039  account */\n      dup4\n        /* \"@openzeppelin/contracts/token/ERC20/ERC20.sol\":9041:9047  amount */\n      dup4\n        /* \"@openzeppelin/contracts/token/ERC20/ERC20.sol\":9000:9019  _afterTokenTransfer */\n      tag_201\n        /* \"@openzeppelin/contracts/token/ERC20/ERC20.sol\":9000:9048  _afterTokenTransfer(address(0), account, amount) */\n      jump\t// in\n    tag_200:\n        /* \"@openzeppelin/contracts/token/ERC20/ERC20.sol\":8520:9055  function _mint(address account, uint256 amount) internal virtual {... */\n      pop\n      pop\n      jump\t// out\n        /* \"@openzeppelin/contracts/utils/Context.sol\":640:736  function _msgSender() internal view virtual returns (address) {... */\n    tag_126:\n        /* \"@openzeppelin/contracts/utils/Context.sol\":693:700  address */\n      0x00\n        /* \"@openzeppelin/contracts/utils/Context.sol\":719:729  msg.sender */\n      caller\n        /* \"@openzeppelin/contracts/utils/Context.sol\":712:729  return msg.sender */\n      swap1\n      pop\n        /* \"@openzeppelin/contracts/utils/Context.sol\":640:736  function _msgSender() internal view virtual returns (address) {... */\n      swap1\n      jump\t// out\n        /* \"@openzeppelin/contracts/token/ERC20/ERC20.sol\":10457:10797  function _approve(address owner, address spender, uint256 amount) internal virtual {... */\n    tag_128:\n        /* \"@openzeppelin/contracts/token/ERC20/ERC20.sol\":10575:10576  0 */\n      0x00\n        /* \"@openzeppelin/contracts/token/ERC20/ERC20.sol\":10558:10577  owner != address(0) */\n      0xffffffffffffffffffffffffffffffffffffffff\n      and\n        /* \"@openzeppelin/contracts/token/ERC20/ERC20.sol\":10558:10563  owner */\n      dup4\n        /* \"@openzeppelin/contracts/token/ERC20/ERC20.sol\":10558:10577  owner != address(0) */\n      0xffffffffffffffffffffffffffffffffffffffff\n      and\n      sub\n        /* \"@openzeppelin/contracts/token/ERC20/ERC20.sol\":10550:10618  require(owner != address(0), \"ERC20: approve from the zero address\") */\n      tag_204\n      jumpi\n      mload(0x40)\n      0x08c379a000000000000000000000000000000000000000000000000000000000\n      dup2\n      mstore\n      0x04\n      add\n      tag_205\n      swap1\n      tag_206\n      jump\t// in\n    tag_205:\n      mload(0x40)\n      dup1\n      swap2\n      sub\n      swap1\n      revert\n    tag_204:\n        /* \"@openzeppelin/contracts/token/ERC20/ERC20.sol\":10655:10656  0 */\n      0x00\n        /* \"@openzeppelin/contracts/token/ERC20/ERC20.sol\":10636:10657  spender != address(0) */\n      0xffffffffffffffffffffffffffffffffffffffff\n      and\n        /* \"@openzeppelin/contracts/token/ERC20/ERC20.sol\":10636:10643  spender */\n      dup3\n        /* \"@openzeppelin/contracts/token/ERC20/ERC20.sol\":10636:10657  spender != address(0) */\n      0xffffffffffffffffffffffffffffffffffffffff\n      and\n      sub\n        /* \"@openzeppelin/contracts/token/ERC20/ERC20.sol\":10628:10696  require(spender != address(0), \"ERC20: approve to the zero address\") */\n      tag_207\n      jumpi\n      mload(0x40)\n      0x08c379a000000000000000000000000000000000000000000000000000000000\n      dup2\n      mstore\n      0x04\n      add\n      tag_208\n      swap1\n      tag_209\n      jump\t// in\n    tag_208:\n      mload(0x40)\n      dup1\n      swap2\n      sub\n      swap1\n      revert\n    tag_207:\n        /* \"@openzeppelin/contracts/token/ERC20/ERC20.sol\":10737:10743  amount */\n      dup1\n        /* \"@openzeppelin/contracts/token/ERC20/ERC20.sol\":10707:10718  _allowances */\n      0x01\n        /* \"@openzeppelin/contracts/token/ERC20/ERC20.sol\":10707:10725  _allowances[owner] */\n      0x00\n        /* \"@openzeppelin/contracts/token/ERC20/ERC20.sol\":10719:10724  owner */\n      dup6\n        /* \"@openzeppelin/contracts/token/ERC20/ERC20.sol\":10707:10725  _allowances[owner] */\n      0xffffffffffffffffffffffffffffffffffffffff\n      and\n      0xffffffffffffffffffffffffffffffffffffffff\n      and\n      dup2\n      mstore\n      0x20\n      add\n      swap1\n      dup2\n      mstore\n      0x20\n      add\n      0x00\n      keccak256\n        /* \"@openzeppelin/contracts/token/ERC20/ERC20.sol\":10707:10734  _allowances[owner][spender] */\n      0x00\n        /* \"@openzeppelin/contracts/token/ERC20/ERC20.sol\":10726:10733  spender */\n      dup5\n        /* \"@openzeppelin/contracts/token/ERC20/ERC20.sol\":10707:10734  _allowances[owner][spender] */\n      0xffffffffffffffffffffffffffffffffffffffff\n      and\n      0xffffffffffffffffffffffffffffffffffffffff\n      and\n      dup2\n      mstore\n      0x20\n      add\n      swap1\n      dup2\n      mstore\n      0x20\n      add\n      0x00\n      keccak256\n        /* \"@openzeppelin/contracts/token/ERC20/ERC20.sol\":10707:10743  _allowances[owner][spender] = amount */\n      dup2\n      swap1\n      sstore\n      pop\n        /* \"@openzeppelin/contracts/token/ERC20/ERC20.sol\":10774:10781  spender */\n      dup2\n        /* \"@openzeppelin/contracts/token/ERC20/ERC20.sol\":10758:10790  Approval(owner, spender, amount) */\n      0xffffffffffffffffffffffffffffffffffffffff\n      and\n        /* \"@openzeppelin/contracts/token/ERC20/ERC20.sol\":10767:10772  owner */\n      dup4\n        /* \"@openzeppelin/contracts/token/ERC20/ERC20.sol\":10758:10790  Approval(owner, spender, amount) */\n      0xffffffffffffffffffffffffffffffffffffffff\n      and\n      0x8c5be1e5ebec7d5bd14f71427d1e84f3dd0314c0f7b2291e5b200ac8c7c3b925\n        /* \"@openzeppelin/contracts/token/ERC20/ERC20.sol\":10783:10789  amount */\n      dup4\n        /* \"@openzeppelin/contracts/token/ERC20/ERC20.sol\":10758:10790  Approval(owner, spender, amount) */\n      mload(0x40)\n      tag_210\n      swap2\n      swap1\n      tag_50\n      jump\t// in\n    tag_210:\n      mload(0x40)\n      dup1\n      swap2\n      sub\n      swap1\n      log3\n        /* \"@openzeppelin/contracts/token/ERC20/ERC20.sol\":10457:10797  function _approve(address owner, address spender, uint256 amount) internal virtual {... */\n      pop\n      pop\n      pop\n      jump\t// out\n        /* \"@openzeppelin/contracts/token/ERC20/ERC20.sol\":11078:11489  function _spendAllowance(address owner, address spender, uint256 amount) internal virtual {... */\n    tag_133:\n        /* \"@openzeppelin/contracts/token/ERC20/ERC20.sol\":11178:11202  uint256 currentAllowance */\n      0x00\n        /* \"@openzeppelin/contracts/token/ERC20/ERC20.sol\":11205:11230  allowance(owner, spender) */\n      tag_212\n        /* \"@openzeppelin/contracts/token/ERC20/ERC20.sol\":11215:11220  owner */\n      dup5\n        /* \"@openzeppelin/contracts/token/ERC20/ERC20.sol\":11222:11229  spender */\n      dup5\n        /* \"@openzeppelin/contracts/token/ERC20/ERC20.sol\":11205:11214  allowance */\n      tag_101\n        /* \"@openzeppelin/contracts/token/ERC20/ERC20.sol\":11205:11230  allowance(owner, spender) */\n      jump\t// in\n    tag_212:\n        /* \"@openzeppelin/contracts/token/ERC20/ERC20.sol\":11178:11230  uint256 currentAllowance = allowance(owner, spender) */\n      swap1\n      pop\n        /* \"@openzeppelin/contracts/token/ERC20/ERC20.sol\":11264:11281  type(uint256).max */\n      0xffffffffffffffffffffffffffffffffffffffffffffffffffffffffffffffff\n        /* \"@openzeppelin/contracts/token/ERC20/ERC20.sol\":11244:11260  currentAllowance */\n      dup2\n        /* \"@openzeppelin/contracts/token/ERC20/ERC20.sol\":11244:11281  currentAllowance != type(uint256).max */\n      eq\n        /* \"@openzeppelin/contracts/token/ERC20/ERC20.sol\":11240:11483  if (currentAllowance != type(uint256).max) {... */\n      tag_213\n      jumpi\n        /* \"@openzeppelin/contracts/token/ERC20/ERC20.sol\":11325:11331  amount */\n      dup2\n        /* \"@openzeppelin/contracts/token/ERC20/ERC20.sol\":11305:11321  currentAllowance */\n      dup2\n        /* \"@openzeppelin/contracts/token/ERC20/ERC20.sol\":11305:11331  currentAllowance >= amount */\n      lt\n      iszero\n        /* \"@openzeppelin/contracts/token/ERC20/ERC20.sol\":11297:11365  require(currentAllowance >= amount, \"ERC20: insufficient allowance\") */\n      tag_214\n      jumpi\n      mload(0x40)\n      0x08c379a000000000000000000000000000000000000000000000000000000000\n      dup2\n      mstore\n      0x04\n      add\n      tag_215\n      swap1\n      tag_216\n      jump\t// in\n    tag_215:\n      mload(0x40)\n      dup1\n      swap2\n      sub\n      swap1\n      revert\n    tag_214:\n        /* \"@openzeppelin/contracts/token/ERC20/ERC20.sol\":11407:11458  _approve(owner, spender, currentAllowance - amount) */\n      tag_217\n        /* \"@openzeppelin/contracts/token/ERC20/ERC20.sol\":11416:11421  owner */\n      dup5\n        /* \"@openzeppelin/contracts/token/ERC20/ERC20.sol\":11423:11430  spender */\n      dup5\n        /* \"@openzeppelin/contracts/token/ERC20/ERC20.sol\":11451:11457  amount */\n      dup5\n        /* \"@openzeppelin/contracts/token/ERC20/ERC20.sol\":11432:11448  currentAllowance */\n      dup5\n        /* \"@openzeppelin/contracts/token/ERC20/ERC20.sol\":11432:11457  currentAllowance - amount */\n      sub\n        /* \"@openzeppelin/contracts/token/ERC20/ERC20.sol\":11407:11415  _approve */\n      tag_128\n        /* \"@openzeppelin/contracts/token/ERC20/ERC20.sol\":11407:11458  _approve(owner, spender, currentAllowance - amount) */\n      jump\t// in\n    tag_217:\n        /* \"@openzeppelin/contracts/token/ERC20/ERC20.sol\":11240:11483  if (currentAllowance != type(uint256).max) {... */\n    tag_213:\n        /* \"@openzeppelin/contracts/token/ERC20/ERC20.sol\":11168:11489  {... */\n      pop\n        /* \"@openzeppelin/contracts/token/ERC20/ERC20.sol\":11078:11489  function _spendAllowance(address owner, address spender, uint256 amount) internal virtual {... */\n      pop\n      pop\n      pop\n      jump\t// out\n        /* \"@openzeppelin/contracts/token/ERC20/ERC20.sol\":7456:8244  function _transfer(address from, address to, uint256 amount) internal virtual {... */\n    tag_135:\n        /* \"@openzeppelin/contracts/token/ERC20/ERC20.sol\":7568:7569  0 */\n      0x00\n        /* \"@openzeppelin/contracts/token/ERC20/ERC20.sol\":7552:7570  from != address(0) */\n      0xffffffffffffffffffffffffffffffffffffffff\n      and\n        /* \"@openzeppelin/contracts/token/ERC20/ERC20.sol\":7552:7556  from */\n      dup4\n        /* \"@openzeppelin/contracts/token/ERC20/ERC20.sol\":7552:7570  from != address(0) */\n      0xffffffffffffffffffffffffffffffffffffffff\n      and\n      sub\n        /* \"@openzeppelin/contracts/token/ERC20/ERC20.sol\":7544:7612  require(from != address(0), \"ERC20: transfer from the zero address\") */\n      tag_219\n      jumpi\n      mload(0x40)\n      0x08c379a000000000000000000000000000000000000000000000000000000000\n      dup2\n      mstore\n      0x04\n      add\n      tag_220\n      swap1\n      tag_221\n      jump\t// in\n    tag_220:\n      mload(0x40)\n      dup1\n      swap2\n      sub\n      swap1\n      revert\n    tag_219:\n        /* \"@openzeppelin/contracts/token/ERC20/ERC20.sol\":7644:7645  0 */\n      0x00\n        /* \"@openzeppelin/contracts/token/ERC20/ERC20.sol\":7630:7646  to != address(0) */\n      0xffffffffffffffffffffffffffffffffffffffff\n      and\n        /* \"@openzeppelin/contracts/token/ERC20/ERC20.sol\":7630:7632  to */\n      dup3\n        /* \"@openzeppelin/contracts/token/ERC20/ERC20.sol\":7630:7646  to != address(0) */\n      0xffffffffffffffffffffffffffffffffffffffff\n      and\n      sub\n        /* \"@openzeppelin/contracts/token/ERC20/ERC20.sol\":7622:7686  require(to != address(0), \"ERC20: transfer to the zero address\") */\n      tag_222\n      jumpi\n      mload(0x40)\n      0x08c379a000000000000000000000000000000000000000000000000000000000\n      dup2\n      mstore\n      0x04\n      add\n      tag_223\n      swap1\n      tag_224\n      jump\t// in\n    tag_223:\n      mload(0x40)\n      dup1\n      swap2\n      sub\n      swap1\n      revert\n    tag_222:\n        /* \"@openzeppelin/contracts/token/ERC20/ERC20.sol\":7697:7735  _beforeTokenTransfer(from, to, amount) */\n      tag_225\n        /* \"@openzeppelin/contracts/token/ERC20/ERC20.sol\":7718:7722  from */\n      dup4\n        /* \"@openzeppelin/contracts/token/ERC20/ERC20.sol\":7724:7726  to */\n      dup4\n        /* \"@openzeppelin/contracts/token/ERC20/ERC20.sol\":7728:7734  amount */\n      dup4\n        /* \"@openzeppelin/contracts/token/ERC20/ERC20.sol\":7697:7717  _beforeTokenTransfer */\n      tag_197\n        /* \"@openzeppelin/contracts/token/ERC20/ERC20.sol\":7697:7735  _beforeTokenTransfer(from, to, amount) */\n      jump\t// in\n    tag_225:\n        /* \"@openzeppelin/contracts/token/ERC20/ERC20.sol\":7746:7765  uint256 fromBalance */\n      0x00\n        /* \"@openzeppelin/contracts/token/ERC20/ERC20.sol\":7768:7777  _balances */\n      dup1\n        /* \"@openzeppelin/contracts/token/ERC20/ERC20.sol\":7768:7783  _balances[from] */\n      0x00\n        /* \"@openzeppelin/contracts/token/ERC20/ERC20.sol\":7778:7782  from */\n      dup6\n        /* \"@openzeppelin/contracts/token/ERC20/ERC20.sol\":7768:7783  _balances[from] */\n      0xffffffffffffffffffffffffffffffffffffffff\n      and\n      0xffffffffffffffffffffffffffffffffffffffff\n      and\n      dup2\n      mstore\n      0x20\n      add\n      swap1\n      dup2\n      mstore\n      0x20\n      add\n      0x00\n      keccak256\n      sload\n        /* \"@openzeppelin/contracts/token/ERC20/ERC20.sol\":7746:7783  uint256 fromBalance = _balances[from] */\n      swap1\n      pop\n        /* \"@openzeppelin/contracts/token/ERC20/ERC20.sol\":7816:7822  amount */\n      dup2\n        /* \"@openzeppelin/contracts/token/ERC20/ERC20.sol\":7801:7812  fromBalance */\n      dup2\n        /* \"@openzeppelin/contracts/token/ERC20/ERC20.sol\":7801:7822  fromBalance >= amount */\n      lt\n      iszero\n        /* \"@openzeppelin/contracts/token/ERC20/ERC20.sol\":7793:7865  require(fromBalance >= amount, \"ERC20: transfer amount exceeds balance\") */\n      tag_226\n      jumpi\n      mload(0x40)\n      0x08c379a000000000000000000000000000000000000000000000000000000000\n      dup2\n      mstore\n      0x04\n      add\n      tag_227\n      swap1\n      tag_228\n      jump\t// in\n    tag_227:\n      mload(0x40)\n      dup1\n      swap2\n      sub\n      swap1\n      revert\n    tag_226:\n        /* \"@openzeppelin/contracts/token/ERC20/ERC20.sol\":7931:7937  amount */\n      dup2\n        /* \"@openzeppelin/contracts/token/ERC20/ERC20.sol\":7917:7928  fromBalance */\n      dup2\n        /* \"@openzeppelin/contracts/token/ERC20/ERC20.sol\":7917:7937  fromBalance - amount */\n      sub\n        /* \"@openzeppelin/contracts/token/ERC20/ERC20.sol\":7899:7908  _balances */\n      0x00\n        /* \"@openzeppelin/contracts/token/ERC20/ERC20.sol\":7899:7914  _balances[from] */\n      dup1\n        /* \"@openzeppelin/contracts/token/ERC20/ERC20.sol\":7909:7913  from */\n      dup7\n        /* \"@openzeppelin/contracts/token/ERC20/ERC20.sol\":7899:7914  _balances[from] */\n      0xffffffffffffffffffffffffffffffffffffffff\n      and\n      0xffffffffffffffffffffffffffffffffffffffff\n      and\n      dup2\n      mstore\n      0x20\n      add\n      swap1\n      dup2\n      mstore\n      0x20\n      add\n      0x00\n      keccak256\n        /* \"@openzeppelin/contracts/token/ERC20/ERC20.sol\":7899:7937  _balances[from] = fromBalance - amount */\n      dup2\n      swap1\n      sstore\n      pop\n        /* \"@openzeppelin/contracts/token/ERC20/ERC20.sol\":8131:8137  amount */\n      dup2\n        /* \"@openzeppelin/contracts/token/ERC20/ERC20.sol\":8114:8123  _balances */\n      0x00\n        /* \"@openzeppelin/contracts/token/ERC20/ERC20.sol\":8114:8127  _balances[to] */\n      dup1\n        /* \"@openzeppelin/contracts/token/ERC20/ERC20.sol\":8124:8126  to */\n      dup6\n        /* \"@openzeppelin/contracts/token/ERC20/ERC20.sol\":8114:8127  _balances[to] */\n      0xffffffffffffffffffffffffffffffffffffffff\n      and\n      0xffffffffffffffffffffffffffffffffffffffff\n      and\n      dup2\n      mstore\n      0x20\n      add\n      swap1\n      dup2\n      mstore\n      0x20\n      add\n      0x00\n      keccak256\n      0x00\n        /* \"@openzeppelin/contracts/token/ERC20/ERC20.sol\":8114:8137  _balances[to] += amount */\n      dup3\n      dup3\n      sload\n      add\n      swap3\n      pop\n      pop\n      dup2\n      swap1\n      sstore\n      pop\n        /* \"@openzeppelin/contracts/token/ERC20/ERC20.sol\":8178:8180  to */\n      dup3\n        /* \"@openzeppelin/contracts/token/ERC20/ERC20.sol\":8163:8189  Transfer(from, to, amount) */\n      0xffffffffffffffffffffffffffffffffffffffff\n      and\n        /* \"@openzeppelin/contracts/token/ERC20/ERC20.sol\":8172:8176  from */\n      dup5\n        /* \"@openzeppelin/contracts/token/ERC20/ERC20.sol\":8163:8189  Transfer(from, to, amount) */\n      0xffffffffffffffffffffffffffffffffffffffff\n      and\n      0xddf252ad1be2c89b69c2b068fc378daa952ba7f163c4a11628f55a4df523b3ef\n        /* \"@openzeppelin/contracts/token/ERC20/ERC20.sol\":8182:8188  amount */\n      dup5\n        /* \"@openzeppelin/contracts/token/ERC20/ERC20.sol\":8163:8189  Transfer(from, to, amount) */\n      mload(0x40)\n      tag_229\n      swap2\n      swap1\n      tag_50\n      jump\t// in\n    tag_229:\n      mload(0x40)\n      dup1\n      swap2\n      sub\n      swap1\n      log3\n        /* \"@openzeppelin/contracts/token/ERC20/ERC20.sol\":8200:8237  _afterTokenTransfer(from, to, amount) */\n      tag_230\n        /* \"@openzeppelin/contracts/token/ERC20/ERC20.sol\":8220:8224  from */\n      dup5\n        /* \"@openzeppelin/contracts/token/ERC20/ERC20.sol\":8226:8228  to */\n      dup5\n        /* \"@openzeppelin/contracts/token/ERC20/ERC20.sol\":8230:8236  amount */\n      dup5\n        /* \"@openzeppelin/contracts/token/ERC20/ERC20.sol\":8200:8219  _afterTokenTransfer */\n      tag_201\n        /* \"@openzeppelin/contracts/token/ERC20/ERC20.sol\":8200:8237  _afterTokenTransfer(from, to, amount) */\n      jump\t// in\n    tag_230:\n        /* \"@openzeppelin/contracts/token/ERC20/ERC20.sol\":7534:8244  {... */\n      pop\n        /* \"@openzeppelin/contracts/token/ERC20/ERC20.sol\":7456:8244  function _transfer(address from, address to, uint256 amount) internal virtual {... */\n      pop\n      pop\n      pop\n      jump\t// out\n        /* \"@openzeppelin/contracts/utils/math/SafeMath.sol\":3465:3561  function mul(uint256 a, uint256 b) internal pure returns (uint256) {... */\n    tag_146:\n        /* \"@openzeppelin/contracts/utils/math/SafeMath.sol\":3523:3530  uint256 */\n      0x00\n        /* \"@openzeppelin/contracts/utils/math/SafeMath.sol\":3553:3554  b */\n      dup2\n        /* \"@openzeppelin/contracts/utils/math/SafeMath.sol\":3549:3550  a */\n      dup4\n        /* \"@openzeppelin/contracts/utils/math/SafeMath.sol\":3549:3554  a * b */\n      tag_232\n      swap2\n      swap1\n      tag_153\n      jump\t// in\n    tag_232:\n        /* \"@openzeppelin/contracts/utils/math/SafeMath.sol\":3542:3554  return a * b */\n      swap1\n      pop\n        /* \"@openzeppelin/contracts/utils/math/SafeMath.sol\":3465:3561  function mul(uint256 a, uint256 b) internal pure returns (uint256) {... */\n      swap3\n      swap2\n      pop\n      pop\n      jump\t// out\n        /* \"@openzeppelin/contracts/utils/math/SafeMath.sol\":3850:3946  function div(uint256 a, uint256 b) internal pure returns (uint256) {... */\n    tag_147:\n        /* \"@openzeppelin/contracts/utils/math/SafeMath.sol\":3908:3915  uint256 */\n      0x00\n        /* \"@openzeppelin/contracts/utils/math/SafeMath.sol\":3938:3939  b */\n      dup2\n        /* \"@openzeppelin/contracts/utils/math/SafeMath.sol\":3934:3935  a */\n      dup4\n        /* \"@openzeppelin/contracts/utils/math/SafeMath.sol\":3934:3939  a / b */\n      tag_234\n      swap2\n      swap1\n      tag_235\n      jump\t// in\n    tag_234:\n        /* \"@openzeppelin/contracts/utils/math/SafeMath.sol\":3927:3939  return a / b */\n      swap1\n      pop\n        /* \"@openzeppelin/contracts/utils/math/SafeMath.sol\":3850:3946  function div(uint256 a, uint256 b) internal pure returns (uint256) {... */\n      swap3\n      swap2\n      pop\n      pop\n      jump\t// out\n        /* \"@openzeppelin/contracts/utils/math/SafeMath.sol\":2755:2851  function add(uint256 a, uint256 b) internal pure returns (uint256) {... */\n    tag_164:\n        /* \"@openzeppelin/contracts/utils/math/SafeMath.sol\":2813:2820  uint256 */\n      0x00\n        /* \"@openzeppelin/contracts/utils/math/SafeMath.sol\":2843:2844  b */\n      dup2\n        /* \"@openzeppelin/contracts/utils/math/SafeMath.sol\":2839:2840  a */\n      dup4\n        /* \"@openzeppelin/contracts/utils/math/SafeMath.sol\":2839:2844  a + b */\n      tag_237\n      swap2\n      swap1\n      tag_142\n      jump\t// in\n    tag_237:\n        /* \"@openzeppelin/contracts/utils/math/SafeMath.sol\":2832:2844  return a + b */\n      swap1\n      pop\n        /* \"@openzeppelin/contracts/utils/math/SafeMath.sol\":2755:2851  function add(uint256 a, uint256 b) internal pure returns (uint256) {... */\n      swap3\n      swap2\n      pop\n      pop\n      jump\t// out\n        /* \"@openzeppelin/contracts/token/ERC20/ERC20.sol\":12073:12164  function _beforeTokenTransfer(address from, address to, uint256 amount) internal virtual {} */\n    tag_197:\n      pop\n      pop\n      pop\n      jump\t// out\n        /* \"@openzeppelin/contracts/token/ERC20/ERC20.sol\":12752:12842  function _afterTokenTransfer(address from, address to, uint256 amount) internal virtual {} */\n    tag_201:\n      pop\n      pop\n      pop\n      jump\t// out\n        /* \"#utility.yul\":7:106   */\n    tag_240:\n        /* \"#utility.yul\":59:65   */\n      0x00\n        /* \"#utility.yul\":93:98   */\n      dup2\n        /* \"#utility.yul\":87:99   */\n      mload\n        /* \"#utility.yul\":77:99   */\n      swap1\n      pop\n        /* \"#utility.yul\":7:106   */\n      swap2\n      swap1\n      pop\n      jump\t// out\n        /* \"#utility.yul\":112:281   */\n    tag_241:\n        /* \"#utility.yul\":196:207   */\n      0x00\n        /* \"#utility.yul\":230:236   */\n      dup3\n        /* \"#utility.yul\":225:228   */\n      dup3\n        /* \"#utility.yul\":218:237   */\n      mstore\n        /* \"#utility.yul\":270:274   */\n      0x20\n        /* \"#utility.yul\":265:268   */\n      dup3\n        /* \"#utility.yul\":261:275   */\n      add\n        /* \"#utility.yul\":246:275   */\n      swap1\n      pop\n        /* \"#utility.yul\":112:281   */\n      swap3\n      swap2\n      pop\n      pop\n      jump\t// out\n        /* \"#utility.yul\":287:533   */\n    tag_242:\n        /* \"#utility.yul\":368:369   */\n      0x00\n        /* \"#utility.yul\":378:491   */\n    tag_284:\n        /* \"#utility.yul\":392:398   */\n      dup4\n        /* \"#utility.yul\":389:390   */\n      dup2\n        /* \"#utility.yul\":386:399   */\n      lt\n        /* \"#utility.yul\":378:491   */\n      iszero\n      tag_286\n      jumpi\n        /* \"#utility.yul\":477:478   */\n      dup1\n        /* \"#utility.yul\":472:475   */\n      dup3\n        /* \"#utility.yul\":468:479   */\n      add\n        /* \"#utility.yul\":462:480   */\n      mload\n        /* \"#utility.yul\":458:459   */\n      dup2\n        /* \"#utility.yul\":453:456   */\n      dup5\n        /* \"#utility.yul\":449:460   */\n      add\n        /* \"#utility.yul\":442:481   */\n      mstore\n        /* \"#utility.yul\":414:416   */\n      0x20\n        /* \"#utility.yul\":411:412   */\n      dup2\n        /* \"#utility.yul\":407:417   */\n      add\n        /* \"#utility.yul\":402:417   */\n      swap1\n      pop\n        /* \"#utility.yul\":378:491   */\n      jump(tag_284)\n    tag_286:\n        /* \"#utility.yul\":525:526   */\n      0x00\n        /* \"#utility.yul\":516:522   */\n      dup5\n        /* \"#utility.yul\":511:514   */\n      dup5\n        /* \"#utility.yul\":507:523   */\n      add\n        /* \"#utility.yul\":500:527   */\n      mstore\n        /* \"#utility.yul\":349:533   */\n      pop\n        /* \"#utility.yul\":287:533   */\n      pop\n      pop\n      pop\n      jump\t// out\n        /* \"#utility.yul\":539:641   */\n    tag_243:\n        /* \"#utility.yul\":580:586   */\n      0x00\n        /* \"#utility.yul\":631:633   */\n      0x1f\n        /* \"#utility.yul\":627:634   */\n      not\n        /* \"#utility.yul\":622:624   */\n      0x1f\n        /* \"#utility.yul\":615:620   */\n      dup4\n        /* \"#utility.yul\":611:625   */\n      add\n        /* \"#utility.yul\":607:635   */\n      and\n        /* \"#utility.yul\":597:635   */\n      swap1\n      pop\n        /* \"#utility.yul\":539:641   */\n      swap2\n      swap1\n      pop\n      jump\t// out\n        /* \"#utility.yul\":647:1024   */\n    tag_244:\n        /* \"#utility.yul\":735:738   */\n      0x00\n        /* \"#utility.yul\":763:802   */\n      tag_289\n        /* \"#utility.yul\":796:801   */\n      dup3\n        /* \"#utility.yul\":763:802   */\n      tag_240\n      jump\t// in\n    tag_289:\n        /* \"#utility.yul\":818:889   */\n      tag_290\n        /* \"#utility.yul\":882:888   */\n      dup2\n        /* \"#utility.yul\":877:880   */\n      dup6\n        /* \"#utility.yul\":818:889   */\n      tag_241\n      jump\t// in\n    tag_290:\n        /* \"#utility.yul\":811:889   */\n      swap4\n      pop\n        /* \"#utility.yul\":898:963   */\n      tag_291\n        /* \"#utility.yul\":956:962   */\n      dup2\n        /* \"#utility.yul\":951:954   */\n      dup6\n        /* \"#utility.yul\":944:948   */\n      0x20\n        /* \"#utility.yul\":937:942   */\n      dup7\n        /* \"#utility.yul\":933:949   */\n      add\n        /* \"#utility.yul\":898:963   */\n      tag_242\n      jump\t// in\n    tag_291:\n        /* \"#utility.yul\":988:1017   */\n      tag_292\n        /* \"#utility.yul\":1010:1016   */\n      dup2\n        /* \"#utility.yul\":988:1017   */\n      tag_243\n      jump\t// in\n    tag_292:\n        /* \"#utility.yul\":983:986   */\n      dup5\n        /* \"#utility.yul\":979:1018   */\n      add\n        /* \"#utility.yul\":972:1018   */\n      swap2\n      pop\n        /* \"#utility.yul\":739:1024   */\n      pop\n        /* \"#utility.yul\":647:1024   */\n      swap3\n      swap2\n      pop\n      pop\n      jump\t// out\n        /* \"#utility.yul\":1030:1343   */\n    tag_31:\n        /* \"#utility.yul\":1143:1147   */\n      0x00\n        /* \"#utility.yul\":1181:1183   */\n      0x20\n        /* \"#utility.yul\":1170:1179   */\n      dup3\n        /* \"#utility.yul\":1166:1184   */\n      add\n        /* \"#utility.yul\":1158:1184   */\n      swap1\n      pop\n        /* \"#utility.yul\":1230:1239   */\n      dup2\n        /* \"#utility.yul\":1224:1228   */\n      dup2\n        /* \"#utility.yul\":1220:1240   */\n      sub\n        /* \"#utility.yul\":1216:1217   */\n      0x00\n        /* \"#utility.yul\":1205:1214   */\n      dup4\n        /* \"#utility.yul\":1201:1218   */\n      add\n        /* \"#utility.yul\":1194:1241   */\n      mstore\n        /* \"#utility.yul\":1258:1336   */\n      tag_294\n        /* \"#utility.yul\":1331:1335   */\n      dup2\n        /* \"#utility.yul\":1322:1328   */\n      dup5\n        /* \"#utility.yul\":1258:1336   */\n      tag_244\n      jump\t// in\n    tag_294:\n        /* \"#utility.yul\":1250:1336   */\n      swap1\n      pop\n        /* \"#utility.yul\":1030:1343   */\n      swap3\n      swap2\n      pop\n      pop\n      jump\t// out\n        /* \"#utility.yul\":1430:1547   */\n    tag_246:\n        /* \"#utility.yul\":1539:1540   */\n      0x00\n        /* \"#utility.yul\":1536:1537   */\n      dup1\n        /* \"#utility.yul\":1529:1541   */\n      revert\n        /* \"#utility.yul\":1676:1802   */\n    tag_248:\n        /* \"#utility.yul\":1713:1720   */\n      0x00\n        /* \"#utility.yul\":1753:1795   */\n      0xffffffffffffffffffffffffffffffffffffffff\n        /* \"#utility.yul\":1746:1751   */\n      dup3\n        /* \"#utility.yul\":1742:1796   */\n      and\n        /* \"#utility.yul\":1731:1796   */\n      swap1\n      pop\n        /* \"#utility.yul\":1676:1802   */\n      swap2\n      swap1\n      pop\n      jump\t// out\n        /* \"#utility.yul\":1808:1904   */\n    tag_249:\n        /* \"#utility.yul\":1845:1852   */\n      0x00\n        /* \"#utility.yul\":1874:1898   */\n      tag_300\n        /* \"#utility.yul\":1892:1897   */\n      dup3\n        /* \"#utility.yul\":1874:1898   */\n      tag_248\n      jump\t// in\n    tag_300:\n        /* \"#utility.yul\":1863:1898   */\n      swap1\n      pop\n        /* \"#utility.yul\":1808:1904   */\n      swap2\n      swap1\n      pop\n      jump\t// out\n        /* \"#utility.yul\":1910:2032   */\n    tag_250:\n        /* \"#utility.yul\":1983:2007   */\n      tag_302\n        /* \"#utility.yul\":2001:2006   */\n      dup2\n        /* \"#utility.yul\":1983:2007   */\n      tag_249\n      jump\t// in\n    tag_302:\n        /* \"#utility.yul\":1976:1981   */\n      dup2\n        /* \"#utility.yul\":1973:2008   */\n      eq\n        /* \"#utility.yul\":1963:2026   */\n      tag_303\n      jumpi\n        /* \"#utility.yul\":2022:2023   */\n      0x00\n        /* \"#utility.yul\":2019:2020   */\n      dup1\n        /* \"#utility.yul\":2012:2024   */\n      revert\n        /* \"#utility.yul\":1963:2026   */\n    tag_303:\n        /* \"#utility.yul\":1910:2032   */\n      pop\n      jump\t// out\n        /* \"#utility.yul\":2038:2177   */\n    tag_251:\n        /* \"#utility.yul\":2084:2089   */\n      0x00\n        /* \"#utility.yul\":2122:2128   */\n      dup2\n        /* \"#utility.yul\":2109:2129   */\n      calldataload\n        /* \"#utility.yul\":2100:2129   */\n      swap1\n      pop\n        /* \"#utility.yul\":2138:2171   */\n      tag_305\n        /* \"#utility.yul\":2165:2170   */\n      dup2\n        /* \"#utility.yul\":2138:2171   */\n      tag_250\n      jump\t// in\n    tag_305:\n        /* \"#utility.yul\":2038:2177   */\n      swap3\n      swap2\n      pop\n      pop\n      jump\t// out\n        /* \"#utility.yul\":2183:2512   */\n    tag_34:\n        /* \"#utility.yul\":2242:2248   */\n      0x00\n        /* \"#utility.yul\":2291:2293   */\n      0x20\n        /* \"#utility.yul\":2279:2288   */\n      dup3\n        /* \"#utility.yul\":2270:2277   */\n      dup5\n        /* \"#utility.yul\":2266:2289   */\n      sub\n        /* \"#utility.yul\":2262:2294   */\n      slt\n        /* \"#utility.yul\":2259:2378   */\n      iszero\n      tag_307\n      jumpi\n        /* \"#utility.yul\":2297:2376   */\n      tag_308\n      tag_246\n      jump\t// in\n    tag_308:\n        /* \"#utility.yul\":2259:2378   */\n    tag_307:\n        /* \"#utility.yul\":2417:2418   */\n      0x00\n        /* \"#utility.yul\":2442:2495   */\n      tag_309\n        /* \"#utility.yul\":2487:2494   */\n      dup5\n        /* \"#utility.yul\":2478:2484   */\n      dup3\n        /* \"#utility.yul\":2467:2476   */\n      dup6\n        /* \"#utility.yul\":2463:2485   */\n      add\n        /* \"#utility.yul\":2442:2495   */\n      tag_251\n      jump\t// in\n    tag_309:\n        /* \"#utility.yul\":2432:2495   */\n      swap2\n      pop\n        /* \"#utility.yul\":2388:2505   */\n      pop\n        /* \"#utility.yul\":2183:2512   */\n      swap3\n      swap2\n      pop\n      pop\n      jump\t// out\n        /* \"#utility.yul\":2518:2595   */\n    tag_252:\n        /* \"#utility.yul\":2555:2562   */\n      0x00\n        /* \"#utility.yul\":2584:2589   */\n      dup2\n        /* \"#utility.yul\":2573:2589   */\n      swap1\n      pop\n        /* \"#utility.yul\":2518:2595   */\n      swap2\n      swap1\n      pop\n      jump\t// out\n        /* \"#utility.yul\":2601:2723   */\n    tag_253:\n        /* \"#utility.yul\":2674:2698   */\n      tag_312\n        /* \"#utility.yul\":2692:2697   */\n      dup2\n        /* \"#utility.yul\":2674:2698   */\n      tag_252\n      jump\t// in\n    tag_312:\n        /* \"#utility.yul\":2667:2672   */\n      dup2\n        /* \"#utility.yul\":2664:2699   */\n      eq\n        /* \"#utility.yul\":2654:2717   */\n      tag_313\n      jumpi\n        /* \"#utility.yul\":2713:2714   */\n      0x00\n        /* \"#utility.yul\":2710:2711   */\n      dup1\n        /* \"#utility.yul\":2703:2715   */\n      revert\n        /* \"#utility.yul\":2654:2717   */\n    tag_313:\n        /* \"#utility.yul\":2601:2723   */\n      pop\n      jump\t// out\n        /* \"#utility.yul\":2729:2868   */\n    tag_254:\n        /* \"#utility.yul\":2775:2780   */\n      0x00\n        /* \"#utility.yul\":2813:2819   */\n      dup2\n        /* \"#utility.yul\":2800:2820   */\n      calldataload\n        /* \"#utility.yul\":2791:2820   */\n      swap1\n      pop\n        /* \"#utility.yul\":2829:2862   */\n      tag_315\n        /* \"#utility.yul\":2856:2861   */\n      dup2\n        /* \"#utility.yul\":2829:2862   */\n      tag_253\n      jump\t// in\n    tag_315:\n        /* \"#utility.yul\":2729:2868   */\n      swap3\n      swap2\n      pop\n      pop\n      jump\t// out\n        /* \"#utility.yul\":2874:3348   */\n    tag_38:\n        /* \"#utility.yul\":2942:2948   */\n      0x00\n        /* \"#utility.yul\":2950:2956   */\n      dup1\n        /* \"#utility.yul\":2999:3001   */\n      0x40\n        /* \"#utility.yul\":2987:2996   */\n      dup4\n        /* \"#utility.yul\":2978:2985   */\n      dup6\n        /* \"#utility.yul\":2974:2997   */\n      sub\n        /* \"#utility.yul\":2970:3002   */\n      slt\n        /* \"#utility.yul\":2967:3086   */\n      iszero\n      tag_317\n      jumpi\n        /* \"#utility.yul\":3005:3084   */\n      tag_318\n      tag_246\n      jump\t// in\n    tag_318:\n        /* \"#utility.yul\":2967:3086   */\n    tag_317:\n        /* \"#utility.yul\":3125:3126   */\n      0x00\n        /* \"#utility.yul\":3150:3203   */\n      tag_319\n        /* \"#utility.yul\":3195:3202   */\n      dup6\n        /* \"#utility.yul\":3186:3192   */\n      dup3\n        /* \"#utility.yul\":3175:3184   */\n      dup7\n        /* \"#utility.yul\":3171:3193   */\n      add\n        /* \"#utility.yul\":3150:3203   */\n      tag_251\n      jump\t// in\n    tag_319:\n        /* \"#utility.yul\":3140:3203   */\n      swap3\n      pop\n        /* \"#utility.yul\":3096:3213   */\n      pop\n        /* \"#utility.yul\":3252:3254   */\n      0x20\n        /* \"#utility.yul\":3278:3331   */\n      tag_320\n        /* \"#utility.yul\":3323:3330   */\n      dup6\n        /* \"#utility.yul\":3314:3320   */\n      dup3\n        /* \"#utility.yul\":3303:3312   */\n      dup7\n        /* \"#utility.yul\":3299:3321   */\n      add\n        /* \"#utility.yul\":3278:3331   */\n      tag_254\n      jump\t// in\n    tag_320:\n        /* \"#utility.yul\":3268:3331   */\n      swap2\n      pop\n        /* \"#utility.yul\":3223:3341   */\n      pop\n        /* \"#utility.yul\":2874:3348   */\n      swap3\n      pop\n      swap3\n      swap1\n      pop\n      jump\t// out\n        /* \"#utility.yul\":3354:3444   */\n    tag_255:\n        /* \"#utility.yul\":3388:3395   */\n      0x00\n        /* \"#utility.yul\":3431:3436   */\n      dup2\n        /* \"#utility.yul\":3424:3437   */\n      iszero\n        /* \"#utility.yul\":3417:3438   */\n      iszero\n        /* \"#utility.yul\":3406:3438   */\n      swap1\n      pop\n        /* \"#utility.yul\":3354:3444   */\n      swap2\n      swap1\n      pop\n      jump\t// out\n        /* \"#utility.yul\":3450:3559   */\n    tag_256:\n        /* \"#utility.yul\":3531:3552   */\n      tag_323\n        /* \"#utility.yul\":3546:3551   */\n      dup2\n        /* \"#utility.yul\":3531:3552   */\n      tag_255\n      jump\t// in\n    tag_323:\n        /* \"#utility.yul\":3526:3529   */\n      dup3\n        /* \"#utility.yul\":3519:3553   */\n      mstore\n        /* \"#utility.yul\":3450:3559   */\n      pop\n      pop\n      jump\t// out\n        /* \"#utility.yul\":3565:3775   */\n    tag_41:\n        /* \"#utility.yul\":3652:3656   */\n      0x00\n        /* \"#utility.yul\":3690:3692   */\n      0x20\n        /* \"#utility.yul\":3679:3688   */\n      dup3\n        /* \"#utility.yul\":3675:3693   */\n      add\n        /* \"#utility.yul\":3667:3693   */\n      swap1\n      pop\n        /* \"#utility.yul\":3703:3768   */\n      tag_325\n        /* \"#utility.yul\":3765:3766   */\n      0x00\n        /* \"#utility.yul\":3754:3763   */\n      dup4\n        /* \"#utility.yul\":3750:3767   */\n      add\n        /* \"#utility.yul\":3741:3747   */\n      dup5\n        /* \"#utility.yul\":3703:3768   */\n      tag_256\n      jump\t// in\n    tag_325:\n        /* \"#utility.yul\":3565:3775   */\n      swap3\n      swap2\n      pop\n      pop\n      jump\t// out\n        /* \"#utility.yul\":3781:3899   */\n    tag_257:\n        /* \"#utility.yul\":3868:3892   */\n      tag_327\n        /* \"#utility.yul\":3886:3891   */\n      dup2\n        /* \"#utility.yul\":3868:3892   */\n      tag_252\n      jump\t// in\n    tag_327:\n        /* \"#utility.yul\":3863:3866   */\n      dup3\n        /* \"#utility.yul\":3856:3893   */\n      mstore\n        /* \"#utility.yul\":3781:3899   */\n      pop\n      pop\n      jump\t// out\n        /* \"#utility.yul\":3905:5124   */\n    tag_46:\n        /* \"#utility.yul\":4250:4254   */\n      0x00\n        /* \"#utility.yul\":4288:4291   */\n      0x0140\n        /* \"#utility.yul\":4277:4286   */\n      dup3\n        /* \"#utility.yul\":4273:4292   */\n      add\n        /* \"#utility.yul\":4265:4292   */\n      swap1\n      pop\n        /* \"#utility.yul\":4302:4373   */\n      tag_329\n        /* \"#utility.yul\":4370:4371   */\n      0x00\n        /* \"#utility.yul\":4359:4368   */\n      dup4\n        /* \"#utility.yul\":4355:4372   */\n      add\n        /* \"#utility.yul\":4346:4352   */\n      dup14\n        /* \"#utility.yul\":4302:4373   */\n      tag_257\n      jump\t// in\n    tag_329:\n        /* \"#utility.yul\":4383:4455   */\n      tag_330\n        /* \"#utility.yul\":4451:4453   */\n      0x20\n        /* \"#utility.yul\":4440:4449   */\n      dup4\n        /* \"#utility.yul\":4436:4454   */\n      add\n        /* \"#utility.yul\":4427:4433   */\n      dup13\n        /* \"#utility.yul\":4383:4455   */\n      tag_257\n      jump\t// in\n    tag_330:\n        /* \"#utility.yul\":4465:4537   */\n      tag_331\n        /* \"#utility.yul\":4533:4535   */\n      0x40\n        /* \"#utility.yul\":4522:4531   */\n      dup4\n        /* \"#utility.yul\":4518:4536   */\n      add\n        /* \"#utility.yul\":4509:4515   */\n      dup12\n        /* \"#utility.yul\":4465:4537   */\n      tag_257\n      jump\t// in\n    tag_331:\n        /* \"#utility.yul\":4547:4619   */\n      tag_332\n        /* \"#utility.yul\":4615:4617   */\n      0x60\n        /* \"#utility.yul\":4604:4613   */\n      dup4\n        /* \"#utility.yul\":4600:4618   */\n      add\n        /* \"#utility.yul\":4591:4597   */\n      dup11\n        /* \"#utility.yul\":4547:4619   */\n      tag_257\n      jump\t// in\n    tag_332:\n        /* \"#utility.yul\":4629:4702   */\n      tag_333\n        /* \"#utility.yul\":4697:4700   */\n      0x80\n        /* \"#utility.yul\":4686:4695   */\n      dup4\n        /* \"#utility.yul\":4682:4701   */\n      add\n        /* \"#utility.yul\":4673:4679   */\n      dup10\n        /* \"#utility.yul\":4629:4702   */\n      tag_257\n      jump\t// in\n    tag_333:\n        /* \"#utility.yul\":4712:4785   */\n      tag_334\n        /* \"#utility.yul\":4780:4783   */\n      0xa0\n        /* \"#utility.yul\":4769:4778   */\n      dup4\n        /* \"#utility.yul\":4765:4784   */\n      add\n        /* \"#utility.yul\":4756:4762   */\n      dup9\n        /* \"#utility.yul\":4712:4785   */\n      tag_257\n      jump\t// in\n    tag_334:\n        /* \"#utility.yul\":4795:4868   */\n      tag_335\n        /* \"#utility.yul\":4863:4866   */\n      0xc0\n        /* \"#utility.yul\":4852:4861   */\n      dup4\n        /* \"#utility.yul\":4848:4867   */\n      add\n        /* \"#utility.yul\":4839:4845   */\n      dup8\n        /* \"#utility.yul\":4795:4868   */\n      tag_257\n      jump\t// in\n    tag_335:\n        /* \"#utility.yul\":4878:4951   */\n      tag_336\n        /* \"#utility.yul\":4946:4949   */\n      0xe0\n        /* \"#utility.yul\":4935:4944   */\n      dup4\n        /* \"#utility.yul\":4931:4950   */\n      add\n        /* \"#utility.yul\":4922:4928   */\n      dup7\n        /* \"#utility.yul\":4878:4951   */\n      tag_257\n      jump\t// in\n    tag_336:\n        /* \"#utility.yul\":4961:5034   */\n      tag_337\n        /* \"#utility.yul\":5029:5032   */\n      0x0100\n        /* \"#utility.yul\":5018:5027   */\n      dup4\n        /* \"#utility.yul\":5014:5033   */\n      add\n        /* \"#utility.yul\":5005:5011   */\n      dup6\n        /* \"#utility.yul\":4961:5034   */\n      tag_257\n      jump\t// in\n    tag_337:\n        /* \"#utility.yul\":5044:5117   */\n      tag_338\n        /* \"#utility.yul\":5112:5115   */\n      0x0120\n        /* \"#utility.yul\":5101:5110   */\n      dup4\n        /* \"#utility.yul\":5097:5116   */\n      add\n        /* \"#utility.yul\":5088:5094   */\n      dup5\n        /* \"#utility.yul\":5044:5117   */\n      tag_257\n      jump\t// in\n    tag_338:\n        /* \"#utility.yul\":3905:5124   */\n      swap12\n      swap11\n      pop\n      pop\n      pop\n      pop\n      pop\n      pop\n      pop\n      pop\n      pop\n      pop\n      pop\n      jump\t// out\n        /* \"#utility.yul\":5130:5352   */\n    tag_50:\n        /* \"#utility.yul\":5223:5227   */\n      0x00\n        /* \"#utility.yul\":5261:5263   */\n      0x20\n        /* \"#utility.yul\":5250:5259   */\n      dup3\n        /* \"#utility.yul\":5246:5264   */\n      add\n        /* \"#utility.yul\":5238:5264   */\n      swap1\n      pop\n        /* \"#utility.yul\":5274:5345   */\n      tag_340\n        /* \"#utility.yul\":5342:5343   */\n      0x00\n        /* \"#utility.yul\":5331:5340   */\n      dup4\n        /* \"#utility.yul\":5327:5344   */\n      add\n        /* \"#utility.yul\":5318:5324   */\n      dup5\n        /* \"#utility.yul\":5274:5345   */\n      tag_257\n      jump\t// in\n    tag_340:\n        /* \"#utility.yul\":5130:5352   */\n      swap3\n      swap2\n      pop\n      pop\n      jump\t// out\n        /* \"#utility.yul\":5358:5977   */\n    tag_53:\n        /* \"#utility.yul\":5435:5441   */\n      0x00\n        /* \"#utility.yul\":5443:5449   */\n      dup1\n        /* \"#utility.yul\":5451:5457   */\n      0x00\n        /* \"#utility.yul\":5500:5502   */\n      0x60\n        /* \"#utility.yul\":5488:5497   */\n      dup5\n        /* \"#utility.yul\":5479:5486   */\n      dup7\n        /* \"#utility.yul\":5475:5498   */\n      sub\n        /* \"#utility.yul\":5471:5503   */\n      slt\n        /* \"#utility.yul\":5468:5587   */\n      iszero\n      tag_342\n      jumpi\n        /* \"#utility.yul\":5506:5585   */\n      tag_343\n      tag_246\n      jump\t// in\n    tag_343:\n        /* \"#utility.yul\":5468:5587   */\n    tag_342:\n        /* \"#utility.yul\":5626:5627   */\n      0x00\n        /* \"#utility.yul\":5651:5704   */\n      tag_344\n        /* \"#utility.yul\":5696:5703   */\n      dup7\n        /* \"#utility.yul\":5687:5693   */\n      dup3\n        /* \"#utility.yul\":5676:5685   */\n      dup8\n        /* \"#utility.yul\":5672:5694   */\n      add\n        /* \"#utility.yul\":5651:5704   */\n      tag_251\n      jump\t// in\n    tag_344:\n        /* \"#utility.yul\":5641:5704   */\n      swap4\n      pop\n        /* \"#utility.yul\":5597:5714   */\n      pop\n        /* \"#utility.yul\":5753:5755   */\n      0x20\n        /* \"#utility.yul\":5779:5832   */\n      tag_345\n        /* \"#utility.yul\":5824:5831   */\n      dup7\n        /* \"#utility.yul\":5815:5821   */\n      dup3\n        /* \"#utility.yul\":5804:5813   */\n      dup8\n        /* \"#utility.yul\":5800:5822   */\n      add\n        /* \"#utility.yul\":5779:5832   */\n      tag_251\n      jump\t// in\n    tag_345:\n        /* \"#utility.yul\":5769:5832   */\n      swap3\n      pop\n        /* \"#utility.yul\":5724:5842   */\n      pop\n        /* \"#utility.yul\":5881:5883   */\n      0x40\n        /* \"#utility.yul\":5907:5960   */\n      tag_346\n        /* \"#utility.yul\":5952:5959   */\n      dup7\n        /* \"#utility.yul\":5943:5949   */\n      dup3\n        /* \"#utility.yul\":5932:5941   */\n      dup8\n        /* \"#utility.yul\":5928:5950   */\n      add\n        /* \"#utility.yul\":5907:5960   */\n      tag_254\n      jump\t// in\n    tag_346:\n        /* \"#utility.yul\":5897:5960   */\n      swap2\n      pop\n        /* \"#utility.yul\":5852:5970   */\n      pop\n        /* \"#utility.yul\":5358:5977   */\n      swap3\n      pop\n      swap3\n      pop\n      swap3\n      jump\t// out\n        /* \"#utility.yul\":5983:6069   */\n    tag_258:\n        /* \"#utility.yul\":6018:6025   */\n      0x00\n        /* \"#utility.yul\":6058:6062   */\n      0xff\n        /* \"#utility.yul\":6051:6056   */\n      dup3\n        /* \"#utility.yul\":6047:6063   */\n      and\n        /* \"#utility.yul\":6036:6063   */\n      swap1\n      pop\n        /* \"#utility.yul\":5983:6069   */\n      swap2\n      swap1\n      pop\n      jump\t// out\n        /* \"#utility.yul\":6075:6187   */\n    tag_259:\n        /* \"#utility.yul\":6158:6180   */\n      tag_349\n        /* \"#utility.yul\":6174:6179   */\n      dup2\n        /* \"#utility.yul\":6158:6180   */\n      tag_258\n      jump\t// in\n    tag_349:\n        /* \"#utility.yul\":6153:6156   */\n      dup3\n        /* \"#utility.yul\":6146:6181   */\n      mstore\n        /* \"#utility.yul\":6075:6187   */\n      pop\n      pop\n      jump\t// out\n        /* \"#utility.yul\":6193:6407   */\n    tag_59:\n        /* \"#utility.yul\":6282:6286   */\n      0x00\n        /* \"#utility.yul\":6320:6322   */\n      0x20\n        /* \"#utility.yul\":6309:6318   */\n      dup3\n        /* \"#utility.yul\":6305:6323   */\n      add\n        /* \"#utility.yul\":6297:6323   */\n      swap1\n      pop\n        /* \"#utility.yul\":6333:6400   */\n      tag_351\n        /* \"#utility.yul\":6397:6398   */\n      0x00\n        /* \"#utility.yul\":6386:6395   */\n      dup4\n        /* \"#utility.yul\":6382:6399   */\n      add\n        /* \"#utility.yul\":6373:6379   */\n      dup5\n        /* \"#utility.yul\":6333:6400   */\n      tag_259\n      jump\t// in\n    tag_351:\n        /* \"#utility.yul\":6193:6407   */\n      swap3\n      swap2\n      pop\n      pop\n      jump\t// out\n        /* \"#utility.yul\":6413:6531   */\n    tag_260:\n        /* \"#utility.yul\":6500:6524   */\n      tag_353\n        /* \"#utility.yul\":6518:6523   */\n      dup2\n        /* \"#utility.yul\":6500:6524   */\n      tag_249\n      jump\t// in\n    tag_353:\n        /* \"#utility.yul\":6495:6498   */\n      dup3\n        /* \"#utility.yul\":6488:6525   */\n      mstore\n        /* \"#utility.yul\":6413:6531   */\n      pop\n      pop\n      jump\t// out\n        /* \"#utility.yul\":6537:6759   */\n    tag_80:\n        /* \"#utility.yul\":6630:6634   */\n      0x00\n        /* \"#utility.yul\":6668:6670   */\n      0x20\n        /* \"#utility.yul\":6657:6666   */\n      dup3\n        /* \"#utility.yul\":6653:6671   */\n      add\n        /* \"#utility.yul\":6645:6671   */\n      swap1\n      pop\n        /* \"#utility.yul\":6681:6752   */\n      tag_355\n        /* \"#utility.yul\":6749:6750   */\n      0x00\n        /* \"#utility.yul\":6738:6747   */\n      dup4\n        /* \"#utility.yul\":6734:6751   */\n      add\n        /* \"#utility.yul\":6725:6731   */\n      dup5\n        /* \"#utility.yul\":6681:6752   */\n      tag_260\n      jump\t// in\n    tag_355:\n        /* \"#utility.yul\":6537:6759   */\n      swap3\n      swap2\n      pop\n      pop\n      jump\t// out\n        /* \"#utility.yul\":6765:7239   */\n    tag_100:\n        /* \"#utility.yul\":6833:6839   */\n      0x00\n        /* \"#utility.yul\":6841:6847   */\n      dup1\n        /* \"#utility.yul\":6890:6892   */\n      0x40\n        /* \"#utility.yul\":6878:6887   */\n      dup4\n        /* \"#utility.yul\":6869:6876   */\n      dup6\n        /* \"#utility.yul\":6865:6888   */\n      sub\n        /* \"#utility.yul\":6861:6893   */\n      slt\n        /* \"#utility.yul\":6858:6977   */\n      iszero\n      tag_357\n      jumpi\n        /* \"#utility.yul\":6896:6975   */\n      tag_358\n      tag_246\n      jump\t// in\n    tag_358:\n        /* \"#utility.yul\":6858:6977   */\n    tag_357:\n        /* \"#utility.yul\":7016:7017   */\n      0x00\n        /* \"#utility.yul\":7041:7094   */\n      tag_359\n        /* \"#utility.yul\":7086:7093   */\n      dup6\n        /* \"#utility.yul\":7077:7083   */\n      dup3\n        /* \"#utility.yul\":7066:7075   */\n      dup7\n        /* \"#utility.yul\":7062:7084   */\n      add\n        /* \"#utility.yul\":7041:7094   */\n      tag_251\n      jump\t// in\n    tag_359:\n        /* \"#utility.yul\":7031:7094   */\n      swap3\n      pop\n        /* \"#utility.yul\":6987:7104   */\n      pop\n        /* \"#utility.yul\":7143:7145   */\n      0x20\n        /* \"#utility.yul\":7169:7222   */\n      tag_360\n        /* \"#utility.yul\":7214:7221   */\n      dup6\n        /* \"#utility.yul\":7205:7211   */\n      dup3\n        /* \"#utility.yul\":7194:7203   */\n      dup7\n        /* \"#utility.yul\":7190:7212   */\n      add\n        /* \"#utility.yul\":7169:7222   */\n      tag_251\n      jump\t// in\n    tag_360:\n        /* \"#utility.yul\":7159:7222   */\n      swap2\n      pop\n        /* \"#utility.yul\":7114:7232   */\n      pop\n        /* \"#utility.yul\":6765:7239   */\n      swap3\n      pop\n      swap3\n      swap1\n      pop\n      jump\t// out\n        /* \"#utility.yul\":7245:7869   */\n    tag_107:\n        /* \"#utility.yul\":7434:7438   */\n      0x00\n        /* \"#utility.yul\":7472:7474   */\n      0x60\n        /* \"#utility.yul\":7461:7470   */\n      dup3\n        /* \"#utility.yul\":7457:7475   */\n      add\n        /* \"#utility.yul\":7449:7475   */\n      swap1\n      pop\n        /* \"#utility.yul\":7521:7530   */\n      dup2\n        /* \"#utility.yul\":7515:7519   */\n      dup2\n        /* \"#utility.yul\":7511:7531   */\n      sub\n        /* \"#utility.yul\":7507:7508   */\n      0x00\n        /* \"#utility.yul\":7496:7505   */\n      dup4\n        /* \"#utility.yul\":7492:7509   */\n      add\n        /* \"#utility.yul\":7485:7532   */\n      mstore\n        /* \"#utility.yul\":7549:7627   */\n      tag_362\n        /* \"#utility.yul\":7622:7626   */\n      dup2\n        /* \"#utility.yul\":7613:7619   */\n      dup7\n        /* \"#utility.yul\":7549:7627   */\n      tag_244\n      jump\t// in\n    tag_362:\n        /* \"#utility.yul\":7541:7627   */\n      swap1\n      pop\n        /* \"#utility.yul\":7674:7683   */\n      dup2\n        /* \"#utility.yul\":7668:7672   */\n      dup2\n        /* \"#utility.yul\":7664:7684   */\n      sub\n        /* \"#utility.yul\":7659:7661   */\n      0x20\n        /* \"#utility.yul\":7648:7657   */\n      dup4\n        /* \"#utility.yul\":7644:7662   */\n      add\n        /* \"#utility.yul\":7637:7685   */\n      mstore\n        /* \"#utility.yul\":7702:7780   */\n      tag_363\n        /* \"#utility.yul\":7775:7779   */\n      dup2\n        /* \"#utility.yul\":7766:7772   */\n      dup6\n        /* \"#utility.yul\":7702:7780   */\n      tag_244\n      jump\t// in\n    tag_363:\n        /* \"#utility.yul\":7694:7780   */\n      swap1\n      pop\n        /* \"#utility.yul\":7790:7862   */\n      tag_364\n        /* \"#utility.yul\":7858:7860   */\n      0x40\n        /* \"#utility.yul\":7847:7856   */\n      dup4\n        /* \"#utility.yul\":7843:7861   */\n      add\n        /* \"#utility.yul\":7834:7840   */\n      dup5\n        /* \"#utility.yul\":7790:7862   */\n      tag_257\n      jump\t// in\n    tag_364:\n        /* \"#utility.yul\":7245:7869   */\n      swap5\n      swap4\n      pop\n      pop\n      pop\n      pop\n      jump\t// out\n        /* \"#utility.yul\":7875:8055   */\n    tag_261:\n        /* \"#utility.yul\":7923:8000   */\n      0x4e487b7100000000000000000000000000000000000000000000000000000000\n        /* \"#utility.yul\":7920:7921   */\n      0x00\n        /* \"#utility.yul\":7913:8001   */\n      mstore\n        /* \"#utility.yul\":8020:8024   */\n      0x22\n        /* \"#utility.yul\":8017:8018   */\n      0x04\n        /* \"#utility.yul\":8010:8025   */\n      mstore\n        /* \"#utility.yul\":8044:8048   */\n      0x24\n        /* \"#utility.yul\":8041:8042   */\n      0x00\n        /* \"#utility.yul\":8034:8049   */\n      revert\n        /* \"#utility.yul\":8061:8381   */\n    tag_116:\n        /* \"#utility.yul\":8105:8111   */\n      0x00\n        /* \"#utility.yul\":8142:8143   */\n      0x02\n        /* \"#utility.yul\":8136:8140   */\n      dup3\n        /* \"#utility.yul\":8132:8144   */\n      div\n        /* \"#utility.yul\":8122:8144   */\n      swap1\n      pop\n        /* \"#utility.yul\":8189:8190   */\n      0x01\n        /* \"#utility.yul\":8183:8187   */\n      dup3\n        /* \"#utility.yul\":8179:8191   */\n      and\n        /* \"#utility.yul\":8210:8228   */\n      dup1\n        /* \"#utility.yul\":8200:8281   */\n      tag_367\n      jumpi\n        /* \"#utility.yul\":8266:8270   */\n      0x7f\n        /* \"#utility.yul\":8258:8264   */\n      dup3\n        /* \"#utility.yul\":8254:8271   */\n      and\n        /* \"#utility.yul\":8244:8271   */\n      swap2\n      pop\n        /* \"#utility.yul\":8200:8281   */\n    tag_367:\n        /* \"#utility.yul\":8328:8330   */\n      0x20\n        /* \"#utility.yul\":8320:8326   */\n      dup3\n        /* \"#utility.yul\":8317:8331   */\n      lt\n        /* \"#utility.yul\":8297:8315   */\n      dup2\n        /* \"#utility.yul\":8294:8332   */\n      sub\n        /* \"#utility.yul\":8291:8375   */\n      tag_368\n      jumpi\n        /* \"#utility.yul\":8347:8365   */\n      tag_369\n      tag_261\n      jump\t// in\n    tag_369:\n        /* \"#utility.yul\":8291:8375   */\n    tag_368:\n        /* \"#utility.yul\":8112:8381   */\n      pop\n        /* \"#utility.yul\":8061:8381   */\n      swap2\n      swap1\n      pop\n      jump\t// out\n        /* \"#utility.yul\":8387:8567   */\n    tag_262:\n        /* \"#utility.yul\":8435:8512   */\n      0x4e487b7100000000000000000000000000000000000000000000000000000000\n        /* \"#utility.yul\":8432:8433   */\n      0x00\n        /* \"#utility.yul\":8425:8513   */\n      mstore\n        /* \"#utility.yul\":8532:8536   */\n      0x11\n        /* \"#utility.yul\":8529:8530   */\n      0x04\n        /* \"#utility.yul\":8522:8537   */\n      mstore\n        /* \"#utility.yul\":8556:8560   */\n      0x24\n        /* \"#utility.yul\":8553:8554   */\n      0x00\n        /* \"#utility.yul\":8546:8561   */\n      revert\n        /* \"#utility.yul\":8573:8764   */\n    tag_142:\n        /* \"#utility.yul\":8613:8616   */\n      0x00\n        /* \"#utility.yul\":8632:8652   */\n      tag_372\n        /* \"#utility.yul\":8650:8651   */\n      dup3\n        /* \"#utility.yul\":8632:8652   */\n      tag_252\n      jump\t// in\n    tag_372:\n        /* \"#utility.yul\":8627:8652   */\n      swap2\n      pop\n        /* \"#utility.yul\":8666:8686   */\n      tag_373\n        /* \"#utility.yul\":8684:8685   */\n      dup4\n        /* \"#utility.yul\":8666:8686   */\n      tag_252\n      jump\t// in\n    tag_373:\n        /* \"#utility.yul\":8661:8686   */\n      swap3\n      pop\n        /* \"#utility.yul\":8709:8710   */\n      dup3\n        /* \"#utility.yul\":8706:8707   */\n      dup3\n        /* \"#utility.yul\":8702:8711   */\n      add\n        /* \"#utility.yul\":8695:8711   */\n      swap1\n      pop\n        /* \"#utility.yul\":8730:8733   */\n      dup1\n        /* \"#utility.yul\":8727:8728   */\n      dup3\n        /* \"#utility.yul\":8724:8734   */\n      gt\n        /* \"#utility.yul\":8721:8757   */\n      iszero\n      tag_374\n      jumpi\n        /* \"#utility.yul\":8737:8755   */\n      tag_375\n      tag_262\n      jump\t// in\n    tag_375:\n        /* \"#utility.yul\":8721:8757   */\n    tag_374:\n        /* \"#utility.yul\":8573:8764   */\n      swap3\n      swap2\n      pop\n      pop\n      jump\t// out\n        /* \"#utility.yul\":8770:9180   */\n    tag_153:\n        /* \"#utility.yul\":8810:8817   */\n      0x00\n        /* \"#utility.yul\":8833:8853   */\n      tag_377\n        /* \"#utility.yul\":8851:8852   */\n      dup3\n        /* \"#utility.yul\":8833:8853   */\n      tag_252\n      jump\t// in\n    tag_377:\n        /* \"#utility.yul\":8828:8853   */\n      swap2\n      pop\n        /* \"#utility.yul\":8867:8887   */\n      tag_378\n        /* \"#utility.yul\":8885:8886   */\n      dup4\n        /* \"#utility.yul\":8867:8887   */\n      tag_252\n      jump\t// in\n    tag_378:\n        /* \"#utility.yul\":8862:8887   */\n      swap3\n      pop\n        /* \"#utility.yul\":8922:8923   */\n      dup3\n        /* \"#utility.yul\":8919:8920   */\n      dup3\n        /* \"#utility.yul\":8915:8924   */\n      mul\n        /* \"#utility.yul\":8944:8974   */\n      tag_379\n        /* \"#utility.yul\":8962:8973   */\n      dup2\n        /* \"#utility.yul\":8944:8974   */\n      tag_252\n      jump\t// in\n    tag_379:\n        /* \"#utility.yul\":8933:8974   */\n      swap2\n      pop\n        /* \"#utility.yul\":9123:9124   */\n      dup3\n        /* \"#utility.yul\":9114:9121   */\n      dup3\n        /* \"#utility.yul\":9110:9125   */\n      div\n        /* \"#utility.yul\":9107:9108   */\n      dup5\n        /* \"#utility.yul\":9104:9126   */\n      eq\n        /* \"#utility.yul\":9084:9085   */\n      dup4\n        /* \"#utility.yul\":9077:9086   */\n      iszero\n        /* \"#utility.yul\":9057:9140   */\n      or\n        /* \"#utility.yul\":9034:9173   */\n      tag_380\n      jumpi\n        /* \"#utility.yul\":9153:9171   */\n      tag_381\n      tag_262\n      jump\t// in\n    tag_381:\n        /* \"#utility.yul\":9034:9173   */\n    tag_380:\n        /* \"#utility.yul\":8818:9180   */\n      pop\n        /* \"#utility.yul\":8770:9180   */\n      swap3\n      swap2\n      pop\n      pop\n      jump\t// out\n        /* \"#utility.yul\":9186:9410   */\n    tag_263:\n        /* \"#utility.yul\":9326:9360   */\n      0x45524332303a2064656372656173656420616c6c6f77616e63652062656c6f77\n        /* \"#utility.yul\":9322:9323   */\n      0x00\n        /* \"#utility.yul\":9314:9320   */\n      dup3\n        /* \"#utility.yul\":9310:9324   */\n      add\n        /* \"#utility.yul\":9303:9361   */\n      mstore\n        /* \"#utility.yul\":9395:9402   */\n      0x207a65726f000000000000000000000000000000000000000000000000000000\n        /* \"#utility.yul\":9390:9392   */\n      0x20\n        /* \"#utility.yul\":9382:9388   */\n      dup3\n        /* \"#utility.yul\":9378:9393   */\n      add\n        /* \"#utility.yul\":9371:9403   */\n      mstore\n        /* \"#utility.yul\":9186:9410   */\n      pop\n      jump\t// out\n        /* \"#utility.yul\":9416:9782   */\n    tag_264:\n        /* \"#utility.yul\":9558:9561   */\n      0x00\n        /* \"#utility.yul\":9579:9646   */\n      tag_384\n        /* \"#utility.yul\":9643:9645   */\n      0x25\n        /* \"#utility.yul\":9638:9641   */\n      dup4\n        /* \"#utility.yul\":9579:9646   */\n      tag_241\n      jump\t// in\n    tag_384:\n        /* \"#utility.yul\":9572:9646   */\n      swap2\n      pop\n        /* \"#utility.yul\":9655:9748   */\n      tag_385\n        /* \"#utility.yul\":9744:9747   */\n      dup3\n        /* \"#utility.yul\":9655:9748   */\n      tag_263\n      jump\t// in\n    tag_385:\n        /* \"#utility.yul\":9773:9775   */\n      0x40\n        /* \"#utility.yul\":9768:9771   */\n      dup3\n        /* \"#utility.yul\":9764:9776   */\n      add\n        /* \"#utility.yul\":9757:9776   */\n      swap1\n      pop\n        /* \"#utility.yul\":9416:9782   */\n      swap2\n      swap1\n      pop\n      jump\t// out\n        /* \"#utility.yul\":9788:10207   */\n    tag_170:\n        /* \"#utility.yul\":9954:9958   */\n      0x00\n        /* \"#utility.yul\":9992:9994   */\n      0x20\n        /* \"#utility.yul\":9981:9990   */\n      dup3\n        /* \"#utility.yul\":9977:9995   */\n      add\n        /* \"#utility.yul\":9969:9995   */\n      swap1\n      pop\n        /* \"#utility.yul\":10041:10050   */\n      dup2\n        /* \"#utility.yul\":10035:10039   */\n      dup2\n        /* \"#utility.yul\":10031:10051   */\n      sub\n        /* \"#utility.yul\":10027:10028   */\n      0x00\n        /* \"#utility.yul\":10016:10025   */\n      dup4\n        /* \"#utility.yul\":10012:10029   */\n      add\n        /* \"#utility.yul\":10005:10052   */\n      mstore\n        /* \"#utility.yul\":10069:10200   */\n      tag_387\n        /* \"#utility.yul\":10195:10199   */\n      dup2\n        /* \"#utility.yul\":10069:10200   */\n      tag_264\n      jump\t// in\n    tag_387:\n        /* \"#utility.yul\":10061:10200   */\n      swap1\n      pop\n        /* \"#utility.yul\":9788:10207   */\n      swap2\n      swap1\n      pop\n      jump\t// out\n        /* \"#utility.yul\":10213:10394   */\n    tag_265:\n        /* \"#utility.yul\":10353:10386   */\n      0x45524332303a206d696e7420746f20746865207a65726f206164647265737300\n        /* \"#utility.yul\":10349:10350   */\n      0x00\n        /* \"#utility.yul\":10341:10347   */\n      dup3\n        /* \"#utility.yul\":10337:10351   */\n      add\n        /* \"#utility.yul\":10330:10387   */\n      mstore\n        /* \"#utility.yul\":10213:10394   */\n      pop\n      jump\t// out\n        /* \"#utility.yul\":10400:10766   */\n    tag_266:\n        /* \"#utility.yul\":10542:10545   */\n      0x00\n        /* \"#utility.yul\":10563:10630   */\n      tag_390\n        /* \"#utility.yul\":10627:10629   */\n      0x1f\n        /* \"#utility.yul\":10622:10625   */\n      dup4\n        /* \"#utility.yul\":10563:10630   */\n      tag_241\n      jump\t// in\n    tag_390:\n        /* \"#utility.yul\":10556:10630   */\n      swap2\n      pop\n        /* \"#utility.yul\":10639:10732   */\n      tag_391\n        /* \"#utility.yul\":10728:10731   */\n      dup3\n        /* \"#utility.yul\":10639:10732   */\n      tag_265\n      jump\t// in\n    tag_391:\n        /* \"#utility.yul\":10757:10759   */\n      0x20\n        /* \"#utility.yul\":10752:10755   */\n      dup3\n        /* \"#utility.yul\":10748:10760   */\n      add\n        /* \"#utility.yul\":10741:10760   */\n      swap1\n      pop\n        /* \"#utility.yul\":10400:10766   */\n      swap2\n      swap1\n      pop\n      jump\t// out\n        /* \"#utility.yul\":10772:11191   */\n    tag_195:\n        /* \"#utility.yul\":10938:10942   */\n      0x00\n        /* \"#utility.yul\":10976:10978   */\n      0x20\n        /* \"#utility.yul\":10965:10974   */\n      dup3\n        /* \"#utility.yul\":10961:10979   */\n      add\n        /* \"#utility.yul\":10953:10979   */\n      swap1\n      pop\n        /* \"#utility.yul\":11025:11034   */\n      dup2\n        /* \"#utility.yul\":11019:11023   */\n      dup2\n        /* \"#utility.yul\":11015:11035   */\n      sub\n        /* \"#utility.yul\":11011:11012   */\n      0x00\n        /* \"#utility.yul\":11000:11009   */\n      dup4\n        /* \"#utility.yul\":10996:11013   */\n      add\n        /* \"#utility.yul\":10989:11036   */\n      mstore\n        /* \"#utility.yul\":11053:11184   */\n      tag_393\n        /* \"#utility.yul\":11179:11183   */\n      dup2\n        /* \"#utility.yul\":11053:11184   */\n      tag_266\n      jump\t// in\n    tag_393:\n        /* \"#utility.yul\":11045:11184   */\n      swap1\n      pop\n        /* \"#utility.yul\":10772:11191   */\n      swap2\n      swap1\n      pop\n      jump\t// out\n        /* \"#utility.yul\":11197:11420   */\n    tag_267:\n        /* \"#utility.yul\":11337:11371   */\n      0x45524332303a20617070726f76652066726f6d20746865207a65726f20616464\n        /* \"#utility.yul\":11333:11334   */\n      0x00\n        /* \"#utility.yul\":11325:11331   */\n      dup3\n        /* \"#utility.yul\":11321:11335   */\n      add\n        /* \"#utility.yul\":11314:11372   */\n      mstore\n        /* \"#utility.yul\":11406:11412   */\n      0x7265737300000000000000000000000000000000000000000000000000000000\n        /* \"#utility.yul\":11401:11403   */\n      0x20\n        /* \"#utility.yul\":11393:11399   */\n      dup3\n        /* \"#utility.yul\":11389:11404   */\n      add\n        /* \"#utility.yul\":11382:11413   */\n      mstore\n        /* \"#utility.yul\":11197:11420   */\n      pop\n      jump\t// out\n        /* \"#utility.yul\":11426:11792   */\n    tag_268:\n        /* \"#utility.yul\":11568:11571   */\n      0x00\n        /* \"#utility.yul\":11589:11656   */\n      tag_396\n        /* \"#utility.yul\":11653:11655   */\n      0x24\n        /* \"#utility.yul\":11648:11651   */\n      dup4\n        /* \"#utility.yul\":11589:11656   */\n      tag_241\n      jump\t// in\n    tag_396:\n        /* \"#utility.yul\":11582:11656   */\n      swap2\n      pop\n        /* \"#utility.yul\":11665:11758   */\n      tag_397\n        /* \"#utility.yul\":11754:11757   */\n      dup3\n        /* \"#utility.yul\":11665:11758   */\n      tag_267\n      jump\t// in\n    tag_397:\n        /* \"#utility.yul\":11783:11785   */\n      0x40\n        /* \"#utility.yul\":11778:11781   */\n      dup3\n        /* \"#utility.yul\":11774:11786   */\n      add\n        /* \"#utility.yul\":11767:11786   */\n      swap1\n      pop\n        /* \"#utility.yul\":11426:11792   */\n      swap2\n      swap1\n      pop\n      jump\t// out\n        /* \"#utility.yul\":11798:12217   */\n    tag_206:\n        /* \"#utility.yul\":11964:11968   */\n      0x00\n        /* \"#utility.yul\":12002:12004   */\n      0x20\n        /* \"#utility.yul\":11991:12000   */\n      dup3\n        /* \"#utility.yul\":11987:12005   */\n      add\n        /* \"#utility.yul\":11979:12005   */\n      swap1\n      pop\n        /* \"#utility.yul\":12051:12060   */\n      dup2\n        /* \"#utility.yul\":12045:12049   */\n      dup2\n        /* \"#utility.yul\":12041:12061   */\n      sub\n        /* \"#utility.yul\":12037:12038   */\n      0x00\n        /* \"#utility.yul\":12026:12035   */\n      dup4\n        /* \"#utility.yul\":12022:12039   */\n      add\n        /* \"#utility.yul\":12015:12062   */\n      mstore\n        /* \"#utility.yul\":12079:12210   */\n      tag_399\n        /* \"#utility.yul\":12205:12209   */\n      dup2\n        /* \"#utility.yul\":12079:12210   */\n      tag_268\n      jump\t// in\n    tag_399:\n        /* \"#utility.yul\":12071:12210   */\n      swap1\n      pop\n        /* \"#utility.yul\":11798:12217   */\n      swap2\n      swap1\n      pop\n      jump\t// out\n        /* \"#utility.yul\":12223:12444   */\n    tag_269:\n        /* \"#utility.yul\":12363:12397   */\n      0x45524332303a20617070726f766520746f20746865207a65726f206164647265\n        /* \"#utility.yul\":12359:12360   */\n      0x00\n        /* \"#utility.yul\":12351:12357   */\n      dup3\n        /* \"#utility.yul\":12347:12361   */\n      add\n        /* \"#utility.yul\":12340:12398   */\n      mstore\n        /* \"#utility.yul\":12432:12436   */\n      0x7373000000000000000000000000000000000000000000000000000000000000\n        /* \"#utility.yul\":12427:12429   */\n      0x20\n        /* \"#utility.yul\":12419:12425   */\n      dup3\n        /* \"#utility.yul\":12415:12430   */\n      add\n        /* \"#utility.yul\":12408:12437   */\n      mstore\n        /* \"#utility.yul\":12223:12444   */\n      pop\n      jump\t// out\n        /* \"#utility.yul\":12450:12816   */\n    tag_270:\n        /* \"#utility.yul\":12592:12595   */\n      0x00\n        /* \"#utility.yul\":12613:12680   */\n      tag_402\n        /* \"#utility.yul\":12677:12679   */\n      0x22\n        /* \"#utility.yul\":12672:12675   */\n      dup4\n        /* \"#utility.yul\":12613:12680   */\n      tag_241\n      jump\t// in\n    tag_402:\n        /* \"#utility.yul\":12606:12680   */\n      swap2\n      pop\n        /* \"#utility.yul\":12689:12782   */\n      tag_403\n        /* \"#utility.yul\":12778:12781   */\n      dup3\n        /* \"#utility.yul\":12689:12782   */\n      tag_269\n      jump\t// in\n    tag_403:\n        /* \"#utility.yul\":12807:12809   */\n      0x40\n        /* \"#utility.yul\":12802:12805   */\n      dup3\n        /* \"#utility.yul\":12798:12810   */\n      add\n        /* \"#utility.yul\":12791:12810   */\n      swap1\n      pop\n        /* \"#utility.yul\":12450:12816   */\n      swap2\n      swap1\n      pop\n      jump\t// out\n        /* \"#utility.yul\":12822:13241   */\n    tag_209:\n        /* \"#utility.yul\":12988:12992   */\n      0x00\n        /* \"#utility.yul\":13026:13028   */\n      0x20\n        /* \"#utility.yul\":13015:13024   */\n      dup3\n        /* \"#utility.yul\":13011:13029   */\n      add\n        /* \"#utility.yul\":13003:13029   */\n      swap1\n      pop\n        /* \"#utility.yul\":13075:13084   */\n      dup2\n        /* \"#utility.yul\":13069:13073   */\n      dup2\n        /* \"#utility.yul\":13065:13085   */\n      sub\n        /* \"#utility.yul\":13061:13062   */\n      0x00\n        /* \"#utility.yul\":13050:13059   */\n      dup4\n        /* \"#utility.yul\":13046:13063   */\n      add\n        /* \"#utility.yul\":13039:13086   */\n      mstore\n        /* \"#utility.yul\":13103:13234   */\n      tag_405\n        /* \"#utility.yul\":13229:13233   */\n      dup2\n        /* \"#utility.yul\":13103:13234   */\n      tag_270\n      jump\t// in\n    tag_405:\n        /* \"#utility.yul\":13095:13234   */\n      swap1\n      pop\n        /* \"#utility.yul\":12822:13241   */\n      swap2\n      swap1\n      pop\n      jump\t// out\n        /* \"#utility.yul\":13247:13426   */\n    tag_271:\n        /* \"#utility.yul\":13387:13418   */\n      0x45524332303a20696e73756666696369656e7420616c6c6f77616e6365000000\n        /* \"#utility.yul\":13383:13384   */\n      0x00\n        /* \"#utility.yul\":13375:13381   */\n      dup3\n        /* \"#utility.yul\":13371:13385   */\n      add\n        /* \"#utility.yul\":13364:13419   */\n      mstore\n        /* \"#utility.yul\":13247:13426   */\n      pop\n      jump\t// out\n        /* \"#utility.yul\":13432:13798   */\n    tag_272:\n        /* \"#utility.yul\":13574:13577   */\n      0x00\n        /* \"#utility.yul\":13595:13662   */\n      tag_408\n        /* \"#utility.yul\":13659:13661   */\n      0x1d\n        /* \"#utility.yul\":13654:13657   */\n      dup4\n        /* \"#utility.yul\":13595:13662   */\n      tag_241\n      jump\t// in\n    tag_408:\n        /* \"#utility.yul\":13588:13662   */\n      swap2\n      pop\n        /* \"#utility.yul\":13671:13764   */\n      tag_409\n        /* \"#utility.yul\":13760:13763   */\n      dup3\n        /* \"#utility.yul\":13671:13764   */\n      tag_271\n      jump\t// in\n    tag_409:\n        /* \"#utility.yul\":13789:13791   */\n      0x20\n        /* \"#utility.yul\":13784:13787   */\n      dup3\n        /* \"#utility.yul\":13780:13792   */\n      add\n        /* \"#utility.yul\":13773:13792   */\n      swap1\n      pop\n        /* \"#utility.yul\":13432:13798   */\n      swap2\n      swap1\n      pop\n      jump\t// out\n        /* \"#utility.yul\":13804:14223   */\n    tag_216:\n        /* \"#utility.yul\":13970:13974   */\n      0x00\n        /* \"#utility.yul\":14008:14010   */\n      0x20\n        /* \"#utility.yul\":13997:14006   */\n      dup3\n        /* \"#utility.yul\":13993:14011   */\n      add\n        /* \"#utility.yul\":13985:14011   */\n      swap1\n      pop\n        /* \"#utility.yul\":14057:14066   */\n      dup2\n        /* \"#utility.yul\":14051:14055   */\n      dup2\n        /* \"#utility.yul\":14047:14067   */\n      sub\n        /* \"#utility.yul\":14043:14044   */\n      0x00\n        /* \"#utility.yul\":14032:14041   */\n      dup4\n        /* \"#utility.yul\":14028:14045   */\n      add\n        /* \"#utility.yul\":14021:14068   */\n      mstore\n        /* \"#utility.yul\":14085:14216   */\n      tag_411\n        /* \"#utility.yul\":14211:14215   */\n      dup2\n        /* \"#utility.yul\":14085:14216   */\n      tag_272\n      jump\t// in\n    tag_411:\n        /* \"#utility.yul\":14077:14216   */\n      swap1\n      pop\n        /* \"#utility.yul\":13804:14223   */\n      swap2\n      swap1\n      pop\n      jump\t// out\n        /* \"#utility.yul\":14229:14453   */\n    tag_273:\n        /* \"#utility.yul\":14369:14403   */\n      0x45524332303a207472616e736665722066726f6d20746865207a65726f206164\n        /* \"#utility.yul\":14365:14366   */\n      0x00\n        /* \"#utility.yul\":14357:14363   */\n      dup3\n        /* \"#utility.yul\":14353:14367   */\n      add\n        /* \"#utility.yul\":14346:14404   */\n      mstore\n        /* \"#utility.yul\":14438:14445   */\n      0x6472657373000000000000000000000000000000000000000000000000000000\n        /* \"#utility.yul\":14433:14435   */\n      0x20\n        /* \"#utility.yul\":14425:14431   */\n      dup3\n        /* \"#utility.yul\":14421:14436   */\n      add\n        /* \"#utility.yul\":14414:14446   */\n      mstore\n        /* \"#utility.yul\":14229:14453   */\n      pop\n      jump\t// out\n        /* \"#utility.yul\":14459:14825   */\n    tag_274:\n        /* \"#utility.yul\":14601:14604   */\n      0x00\n        /* \"#utility.yul\":14622:14689   */\n      tag_414\n        /* \"#utility.yul\":14686:14688   */\n      0x25\n        /* \"#utility.yul\":14681:14684   */\n      dup4\n        /* \"#utility.yul\":14622:14689   */\n      tag_241\n      jump\t// in\n    tag_414:\n        /* \"#utility.yul\":14615:14689   */\n      swap2\n      pop\n        /* \"#utility.yul\":14698:14791   */\n      tag_415\n        /* \"#utility.yul\":14787:14790   */\n      dup3\n        /* \"#utility.yul\":14698:14791   */\n      tag_273\n      jump\t// in\n    tag_415:\n        /* \"#utility.yul\":14816:14818   */\n      0x40\n        /* \"#utility.yul\":14811:14814   */\n      dup3\n        /* \"#utility.yul\":14807:14819   */\n      add\n        /* \"#utility.yul\":14800:14819   */\n      swap1\n      pop\n        /* \"#utility.yul\":14459:14825   */\n      swap2\n      swap1\n      pop\n      jump\t// out\n        /* \"#utility.yul\":14831:15250   */\n    tag_221:\n        /* \"#utility.yul\":14997:15001   */\n      0x00\n        /* \"#utility.yul\":15035:15037   */\n      0x20\n        /* \"#utility.yul\":15024:15033   */\n      dup3\n        /* \"#utility.yul\":15020:15038   */\n      add\n        /* \"#utility.yul\":15012:15038   */\n      swap1\n      pop\n        /* \"#utility.yul\":15084:15093   */\n      dup2\n        /* \"#utility.yul\":15078:15082   */\n      dup2\n        /* \"#utility.yul\":15074:15094   */\n      sub\n        /* \"#utility.yul\":15070:15071   */\n      0x00\n        /* \"#utility.yul\":15059:15068   */\n      dup4\n        /* \"#utility.yul\":15055:15072   */\n      add\n        /* \"#utility.yul\":15048:15095   */\n      mstore\n        /* \"#utility.yul\":15112:15243   */\n      tag_417\n        /* \"#utility.yul\":15238:15242   */\n      dup2\n        /* \"#utility.yul\":15112:15243   */\n      tag_274\n      jump\t// in\n    tag_417:\n        /* \"#utility.yul\":15104:15243   */\n      swap1\n      pop\n        /* \"#utility.yul\":14831:15250   */\n      swap2\n      swap1\n      pop\n      jump\t// out\n        /* \"#utility.yul\":15256:15478   */\n    tag_275:\n        /* \"#utility.yul\":15396:15430   */\n      0x45524332303a207472616e7366657220746f20746865207a65726f2061646472\n        /* \"#utility.yul\":15392:15393   */\n      0x00\n        /* \"#utility.yul\":15384:15390   */\n      dup3\n        /* \"#utility.yul\":15380:15394   */\n      add\n        /* \"#utility.yul\":15373:15431   */\n      mstore\n        /* \"#utility.yul\":15465:15470   */\n      0x6573730000000000000000000000000000000000000000000000000000000000\n        /* \"#utility.yul\":15460:15462   */\n      0x20\n        /* \"#utility.yul\":15452:15458   */\n      dup3\n        /* \"#utility.yul\":15448:15463   */\n      add\n        /* \"#utility.yul\":15441:15471   */\n      mstore\n        /* \"#utility.yul\":15256:15478   */\n      pop\n      jump\t// out\n        /* \"#utility.yul\":15484:15850   */\n    tag_276:\n        /* \"#utility.yul\":15626:15629   */\n      0x00\n        /* \"#utility.yul\":15647:15714   */\n      tag_420\n        /* \"#utility.yul\":15711:15713   */\n      0x23\n        /* \"#utility.yul\":15706:15709   */\n      dup4\n        /* \"#utility.yul\":15647:15714   */\n      tag_241\n      jump\t// in\n    tag_420:\n        /* \"#utility.yul\":15640:15714   */\n      swap2\n      pop\n        /* \"#utility.yul\":15723:15816   */\n      tag_421\n        /* \"#utility.yul\":15812:15815   */\n      dup3\n        /* \"#utility.yul\":15723:15816   */\n      tag_275\n      jump\t// in\n    tag_421:\n        /* \"#utility.yul\":15841:15843   */\n      0x40\n        /* \"#utility.yul\":15836:15839   */\n      dup3\n        /* \"#utility.yul\":15832:15844   */\n      add\n        /* \"#utility.yul\":15825:15844   */\n      swap1\n      pop\n        /* \"#utility.yul\":15484:15850   */\n      swap2\n      swap1\n      pop\n      jump\t// out\n        /* \"#utility.yul\":15856:16275   */\n    tag_224:\n        /* \"#utility.yul\":16022:16026   */\n      0x00\n        /* \"#utility.yul\":16060:16062   */\n      0x20\n        /* \"#utility.yul\":16049:16058   */\n      dup3\n        /* \"#utility.yul\":16045:16063   */\n      add\n        /* \"#utility.yul\":16037:16063   */\n      swap1\n      pop\n        /* \"#utility.yul\":16109:16118   */\n      dup2\n        /* \"#utility.yul\":16103:16107   */\n      dup2\n        /* \"#utility.yul\":16099:16119   */\n      sub\n        /* \"#utility.yul\":16095:16096   */\n      0x00\n        /* \"#utility.yul\":16084:16093   */\n      dup4\n        /* \"#utility.yul\":16080:16097   */\n      add\n        /* \"#utility.yul\":16073:16120   */\n      mstore\n        /* \"#utility.yul\":16137:16268   */\n      tag_423\n        /* \"#utility.yul\":16263:16267   */\n      dup2\n        /* \"#utility.yul\":16137:16268   */\n      tag_276\n      jump\t// in\n    tag_423:\n        /* \"#utility.yul\":16129:16268   */\n      swap1\n      pop\n        /* \"#utility.yul\":15856:16275   */\n      swap2\n      swap1\n      pop\n      jump\t// out\n        /* \"#utility.yul\":16281:16506   */\n    tag_277:\n        /* \"#utility.yul\":16421:16455   */\n      0x45524332303a207472616e7366657220616d6f756e7420657863656564732062\n        /* \"#utility.yul\":16417:16418   */\n      0x00\n        /* \"#utility.yul\":16409:16415   */\n      dup3\n        /* \"#utility.yul\":16405:16419   */\n      add\n        /* \"#utility.yul\":16398:16456   */\n      mstore\n        /* \"#utility.yul\":16490:16498   */\n      0x616c616e63650000000000000000000000000000000000000000000000000000\n        /* \"#utility.yul\":16485:16487   */\n      0x20\n        /* \"#utility.yul\":16477:16483   */\n      dup3\n        /* \"#utility.yul\":16473:16488   */\n      add\n        /* \"#utility.yul\":16466:16499   */\n      mstore\n        /* \"#utility.yul\":16281:16506   */\n      pop\n      jump\t// out\n        /* \"#utility.yul\":16512:16878   */\n    tag_278:\n        /* \"#utility.yul\":16654:16657   */\n      0x00\n        /* \"#utility.yul\":16675:16742   */\n      tag_426\n        /* \"#utility.yul\":16739:16741   */\n      0x26\n        /* \"#utility.yul\":16734:16737   */\n      dup4\n        /* \"#utility.yul\":16675:16742   */\n      tag_241\n      jump\t// in\n    tag_426:\n        /* \"#utility.yul\":16668:16742   */\n      swap2\n      pop\n        /* \"#utility.yul\":16751:16844   */\n      tag_427\n        /* \"#utility.yul\":16840:16843   */\n      dup3\n        /* \"#utility.yul\":16751:16844   */\n      tag_277\n      jump\t// in\n    tag_427:\n        /* \"#utility.yul\":16869:16871   */\n      0x40\n        /* \"#utility.yul\":16864:16867   */\n      dup3\n        /* \"#utility.yul\":16860:16872   */\n      add\n        /* \"#utility.yul\":16853:16872   */\n      swap1\n      pop\n        /* \"#utility.yul\":16512:16878   */\n      swap2\n      swap1\n      pop\n      jump\t// out\n        /* \"#utility.yul\":16884:17303   */\n    tag_228:\n        /* \"#utility.yul\":17050:17054   */\n      0x00\n        /* \"#utility.yul\":17088:17090   */\n      0x20\n        /* \"#utility.yul\":17077:17086   */\n      dup3\n        /* \"#utility.yul\":17073:17091   */\n      add\n        /* \"#utility.yul\":17065:17091   */\n      swap1\n      pop\n        /* \"#utility.yul\":17137:17146   */\n      dup2\n        /* \"#utility.yul\":17131:17135   */\n      dup2\n        /* \"#utility.yul\":17127:17147   */\n      sub\n        /* \"#utility.yul\":17123:17124   */\n      0x00\n        /* \"#utility.yul\":17112:17121   */\n      dup4\n        /* \"#utility.yul\":17108:17125   */\n      add\n        /* \"#utility.yul\":17101:17148   */\n      mstore\n        /* \"#utility.yul\":17165:17296   */\n      tag_429\n        /* \"#utility.yul\":17291:17295   */\n      dup2\n        /* \"#utility.yul\":17165:17296   */\n      tag_278\n      jump\t// in\n    tag_429:\n        /* \"#utility.yul\":17157:17296   */\n      swap1\n      pop\n        /* \"#utility.yul\":16884:17303   */\n      swap2\n      swap1\n      pop\n      jump\t// out\n        /* \"#utility.yul\":17309:17489   */\n    tag_279:\n        /* \"#utility.yul\":17357:17434   */\n      0x4e487b7100000000000000000000000000000000000000000000000000000000\n        /* \"#utility.yul\":17354:17355   */\n      0x00\n        /* \"#utility.yul\":17347:17435   */\n      mstore\n        /* \"#utility.yul\":17454:17458   */\n      0x12\n        /* \"#utility.yul\":17451:17452   */\n      0x04\n        /* \"#utility.yul\":17444:17459   */\n      mstore\n        /* \"#utility.yul\":17478:17482   */\n      0x24\n        /* \"#utility.yul\":17475:17476   */\n      0x00\n        /* \"#utility.yul\":17468:17483   */\n      revert\n        /* \"#utility.yul\":17495:17680   */\n    tag_235:\n        /* \"#utility.yul\":17535:17536   */\n      0x00\n        /* \"#utility.yul\":17552:17572   */\n      tag_432\n        /* \"#utility.yul\":17570:17571   */\n      dup3\n        /* \"#utility.yul\":17552:17572   */\n      tag_252\n      jump\t// in\n    tag_432:\n        /* \"#utility.yul\":17547:17572   */\n      swap2\n      pop\n        /* \"#utility.yul\":17586:17606   */\n      tag_433\n        /* \"#utility.yul\":17604:17605   */\n      dup4\n        /* \"#utility.yul\":17586:17606   */\n      tag_252\n      jump\t// in\n    tag_433:\n        /* \"#utility.yul\":17581:17606   */\n      swap3\n      pop\n        /* \"#utility.yul\":17625:17626   */\n      dup3\n        /* \"#utility.yul\":17615:17650   */\n      tag_434\n      jumpi\n        /* \"#utility.yul\":17630:17648   */\n      tag_435\n      tag_279\n      jump\t// in\n    tag_435:\n        /* \"#utility.yul\":17615:17650   */\n    tag_434:\n        /* \"#utility.yul\":17672:17673   */\n      dup3\n        /* \"#utility.yul\":17669:17670   */\n      dup3\n        /* \"#utility.yul\":17665:17674   */\n      div\n        /* \"#utility.yul\":17660:17674   */\n      swap1\n      pop\n        /* \"#utility.yul\":17495:17680   */\n      swap3\n      swap2\n      pop\n      pop\n      jump\t// out\n\n    auxdata: 0xa264697066735822122048a4a9e398dbcc1307f2506387b51c966d993b1da67efdf1f103d2ed780d007364736f6c63430008120033\n}\n",
				"bytecode": {
					"linkReferences": {},
					"object": "60806040523480156200001157600080fd5b506040518060400160405280600f81526020017f5265616c457374617465546f6b656e00000000000000000000000000000000008152506040518060400160405280600381526020017f524554000000000000000000000000000000000000000000000000000000000081525081600390816200008f919062000324565b508060049081620000a1919062000324565b5050506200040b565b600081519050919050565b7f4e487b7100000000000000000000000000000000000000000000000000000000600052604160045260246000fd5b7f4e487b7100000000000000000000000000000000000000000000000000000000600052602260045260246000fd5b600060028204905060018216806200012c57607f821691505b602082108103620001425762000141620000e4565b5b50919050565b60008190508160005260206000209050919050565b60006020601f8301049050919050565b600082821b905092915050565b600060088302620001ac7fffffffffffffffffffffffffffffffffffffffffffffffffffffffffffffffff826200016d565b620001b886836200016d565b95508019841693508086168417925050509392505050565b6000819050919050565b6000819050919050565b600062000205620001ff620001f984620001d0565b620001da565b620001d0565b9050919050565b6000819050919050565b6200022183620001e4565b6200023962000230826200020c565b8484546200017a565b825550505050565b600090565b6200025062000241565b6200025d81848462000216565b505050565b5b8181101562000285576200027960008262000246565b60018101905062000263565b5050565b601f821115620002d4576200029e8162000148565b620002a9846200015d565b81016020851015620002b9578190505b620002d1620002c8856200015d565b83018262000262565b50505b505050565b600082821c905092915050565b6000620002f960001984600802620002d9565b1980831691505092915050565b6000620003148383620002e6565b9150826002028217905092915050565b6200032f82620000aa565b67ffffffffffffffff8111156200034b576200034a620000b5565b5b62000357825462000113565b6200036482828562000289565b600060209050601f8311600181146200039c576000841562000387578287015190505b62000393858262000306565b86555062000403565b601f198416620003ac8662000148565b60005b82811015620003d657848901518255600182019150602085019450602081019050620003af565b86831015620003f65784890151620003f2601f891682620002e6565b8355505b6001600288020188555050505b505050505050565b611cc4806200041b6000396000f3fe608060405234801561001057600080fd5b50600436106101425760003560e01c806388e20abb116100b8578063a9059cbb1161007c578063a9059cbb14610392578063beee50f7146103c2578063dd62ed3e146103de578063e01fe4c31461040e578063f857f75214610440578063fcf8f4221461045c57610142565b806388e20abb146102ee5780638da5cb5b1461030a57806395d89b4114610328578063976f5f6114610346578063a457c2d71461036257610142565b806323b872dd1161010a57806323b872dd14610208578063313ce56714610238578063395093511461025657806344ba41db14610286578063575e6cec146102a257806370a08231146102be57610142565b806306fdde0314610147578063089a611514610165578063095ea7b3146101815780630df9c426146101b157806318160ddd146101ea575b600080fd5b61014f610478565b60405161015c9190611388565b60405180910390f35b61017f600480360381019061017a919061140d565b61050a565b005b61019b60048036038101906101969190611470565b61055f565b6040516101a891906114cb565b60405180910390f35b6101cb60048036038101906101c6919061140d565b610582565b6040516101e19a999897969594939291906114f5565b60405180910390f35b6101f26105d6565b6040516101ff9190611591565b60405180910390f35b610222600480360381019061021d91906115ac565b6105e0565b60405161022f91906114cb565b60405180910390f35b61024061060f565b60405161024d919061161b565b60405180910390f35b610270600480360381019061026b9190611470565b610618565b60405161027d91906114cb565b60405180910390f35b6102a0600480360381019061029b919061140d565b61064f565b005b6102bc60048036038101906102b7919061140d565b6106c9565b005b6102d860048036038101906102d3919061140d565b610730565b6040516102e59190611591565b60405180910390f35b6103086004803603810190610303919061140d565b610778565b005b6103126107db565b60405161031f9190611645565b60405180910390f35b610330610801565b60405161033d9190611388565b60405180910390f35b610360600480360381019061035b919061140d565b610893565b005b61037c60048036038101906103779190611470565b610929565b60405161038991906114cb565b60405180910390f35b6103ac60048036038101906103a79190611470565b6109a0565b6040516103b991906114cb565b60405180910390f35b6103dc60048036038101906103d7919061140d565b6109c3565b005b6103f860048036038101906103f39190611660565b610a18565b6040516104059190611591565b60405180910390f35b6104286004803603810190610423919061140d565b610a9f565b604051610437939291906116a0565b60405180910390f35b61045a6004803603810190610455919061140d565b610bd9565b005b6104766004803603810190610471919061140d565b610c2e565b005b60606003805461048790611714565b80601f01602080910402602001604051908101604052809291908181526020018280546104b390611714565b80156105005780601f106104d557610100808354040283529160200191610500565b820191906000526020600020905b8154815290600101906020018083116104e357829003601f168201915b5050505050905090565b6000600660008373ffffffffffffffffffffffffffffffffffffffff1673ffffffffffffffffffffffffffffffffffffffff168152602001908152602001600020905061055b828260000154610c83565b5050565b60008061056a610dd9565b9050610577818585610de1565b600191505092915050565b6006602052806000526040600020600091509050806000015490806001015490806002015490806003015490806004015490806005015490806006015490806007015490806008015490806009015490508a565b6000600254905090565b6000806105eb610dd9565b90506105f8858285610faa565b610603858585611036565b60019150509392505050565b60006012905090565b600080610623610dd9565b90506106448185856106358589610a18565b61063f9190611774565b610de1565b600191505092915050565b6000600660008373ffffffffffffffffffffffffffffffffffffffff1673ffffffffffffffffffffffffffffffffffffffff16815260200190815260200160002090506106bd60646106af600884600501546112ac90919063ffffffff16565b6112c290919063ffffffff16565b81600301819055505050565b6000600660008373ffffffffffffffffffffffffffffffffffffffff1673ffffffffffffffffffffffffffffffffffffffff1681526020019081526020016000209050610724600c82600301546112c290919063ffffffff16565b81600401819055505050565b60008060008373ffffffffffffffffffffffffffffffffffffffff1673ffffffffffffffffffffffffffffffffffffffff168152602001908152602001600020549050919050565b6000600660008373ffffffffffffffffffffffffffffffffffffffff1673ffffffffffffffffffffffffffffffffffffffff1681526020019081526020016000209050806001015481600001546107cf91906117a8565b81600501819055505050565b600560009054906101000a900473ffffffffffffffffffffffffffffffffffffffff1681565b60606004805461081090611714565b80601f016020809104026020016040519081016040528092919081815260200182805461083c90611714565b80156108895780601f1061085e57610100808354040283529160200191610889565b820191906000526020600020905b81548152906001019060200180831161086c57829003601f168201915b5050505050905090565b6000600660008373ffffffffffffffffffffffffffffffffffffffff1673ffffffffffffffffffffffffffffffffffffffff168152602001908152602001600020905061091d816006015461090f8360090154610901856008015486600701546112d890919063ffffffff16565b6112d890919063ffffffff16565b6112d890919063ffffffff16565b81600001819055505050565b600080610934610dd9565b905060006109428286610a18565b905083811015610987576040517f08c379a000000000000000000000000000000000000000000000000000000000815260040161097e9061185c565b60405180910390fd5b6109948286868403610de1565b60019250505092915050565b6000806109ab610dd9565b90506109b8818585611036565b600191505092915050565b6000600660008373ffffffffffffffffffffffffffffffffffffffff1673ffffffffffffffffffffffffffffffffffffffff1681526020019081526020016000209050610a14828260030154610c83565b5050565b6000600160008473ffffffffffffffffffffffffffffffffffffffff1673ffffffffffffffffffffffffffffffffffffffff16815260200190815260200160002060008373ffffffffffffffffffffffffffffffffffffffff1673ffffffffffffffffffffffffffffffffffffffff16815260200190815260200160002054905092915050565b6007602052806000526040600020600091509050806000018054610ac290611714565b80601f0160208091040260200160405190810160405280929190818152602001828054610aee90611714565b8015610b3b5780601f10610b1057610100808354040283529160200191610b3b565b820191906000526020600020905b815481529060010190602001808311610b1e57829003601f168201915b505050505090806001018054610b5090611714565b80601f0160208091040260200160405190810160405280929190818152602001828054610b7c90611714565b8015610bc95780601f10610b9e57610100808354040283529160200191610bc9565b820191906000526020600020905b815481529060010190602001808311610bac57829003601f168201915b5050505050908060020154905083565b6000600660008373ffffffffffffffffffffffffffffffffffffffff1673ffffffffffffffffffffffffffffffffffffffff1681526020019081526020016000209050610c2a828260050154610c83565b5050565b6000600660008373ffffffffffffffffffffffffffffffffffffffff1673ffffffffffffffffffffffffffffffffffffffff1681526020019081526020016000209050610c7f828260040154610c83565b5050565b600073ffffffffffffffffffffffffffffffffffffffff168273ffffffffffffffffffffffffffffffffffffffff1603610cf2576040517f08c379a0000000000000000000000000000000000000000000000000000000008152600401610ce9906118c8565b60405180910390fd5b610cfe600083836112ee565b8060026000828254610d109190611774565b92505081905550806000808473ffffffffffffffffffffffffffffffffffffffff1673ffffffffffffffffffffffffffffffffffffffff168152602001908152602001600020600082825401925050819055508173ffffffffffffffffffffffffffffffffffffffff16600073ffffffffffffffffffffffffffffffffffffffff167fddf252ad1be2c89b69c2b068fc378daa952ba7f163c4a11628f55a4df523b3ef83604051610dc19190611591565b60405180910390a3610dd5600083836112f3565b5050565b600033905090565b600073ffffffffffffffffffffffffffffffffffffffff168373ffffffffffffffffffffffffffffffffffffffff1603610e50576040517f08c379a0000000000000000000000000000000000000000000000000000000008152600401610e479061195a565b60405180910390fd5b600073ffffffffffffffffffffffffffffffffffffffff168273ffffffffffffffffffffffffffffffffffffffff1603610ebf576040517f08c379a0000000000000000000000000000000000000000000000000000000008152600401610eb6906119ec565b60405180910390fd5b80600160008573ffffffffffffffffffffffffffffffffffffffff1673ffffffffffffffffffffffffffffffffffffffff16815260200190815260200160002060008473ffffffffffffffffffffffffffffffffffffffff1673ffffffffffffffffffffffffffffffffffffffff168152602001908152602001600020819055508173ffffffffffffffffffffffffffffffffffffffff168373ffffffffffffffffffffffffffffffffffffffff167f8c5be1e5ebec7d5bd14f71427d1e84f3dd0314c0f7b2291e5b200ac8c7c3b92583604051610f9d9190611591565b60405180910390a3505050565b6000610fb68484610a18565b90507fffffffffffffffffffffffffffffffffffffffffffffffffffffffffffffffff81146110305781811015611022576040517f08c379a000000000000000000000000000000000000000000000000000000000815260040161101990611a58565b60405180910390fd5b61102f8484848403610de1565b5b50505050565b600073ffffffffffffffffffffffffffffffffffffffff168373ffffffffffffffffffffffffffffffffffffffff16036110a5576040517f08c379a000000000000000000000000000000000000000000000000000000000815260040161109c90611aea565b60405180910390fd5b600073ffffffffffffffffffffffffffffffffffffffff168273ffffffffffffffffffffffffffffffffffffffff1603611114576040517f08c379a000000000000000000000000000000000000000000000000000000000815260040161110b90611b7c565b60405180910390fd5b61111f8383836112ee565b60008060008573ffffffffffffffffffffffffffffffffffffffff1673ffffffffffffffffffffffffffffffffffffffff168152602001908152602001600020549050818110156111a5576040517f08c379a000000000000000000000000000000000000000000000000000000000815260040161119c90611c0e565b60405180910390fd5b8181036000808673ffffffffffffffffffffffffffffffffffffffff1673ffffffffffffffffffffffffffffffffffffffff16815260200190815260200160002081905550816000808573ffffffffffffffffffffffffffffffffffffffff1673ffffffffffffffffffffffffffffffffffffffff168152602001908152602001600020600082825401925050819055508273ffffffffffffffffffffffffffffffffffffffff168473ffffffffffffffffffffffffffffffffffffffff167fddf252ad1be2c89b69c2b068fc378daa952ba7f163c4a11628f55a4df523b3ef846040516112939190611591565b60405180910390a36112a68484846112f3565b50505050565b600081836112ba91906117a8565b905092915050565b600081836112d09190611c5d565b905092915050565b600081836112e69190611774565b905092915050565b505050565b505050565b600081519050919050565b600082825260208201905092915050565b60005b83811015611332578082015181840152602081019050611317565b60008484015250505050565b6000601f19601f8301169050919050565b600061135a826112f8565b6113648185611303565b9350611374818560208601611314565b61137d8161133e565b840191505092915050565b600060208201905081810360008301526113a2818461134f565b905092915050565b600080fd5b600073ffffffffffffffffffffffffffffffffffffffff82169050919050565b60006113da826113af565b9050919050565b6113ea816113cf565b81146113f557600080fd5b50565b600081359050611407816113e1565b92915050565b600060208284031215611423576114226113aa565b5b6000611431848285016113f8565b91505092915050565b6000819050919050565b61144d8161143a565b811461145857600080fd5b50565b60008135905061146a81611444565b92915050565b60008060408385031215611487576114866113aa565b5b6000611495858286016113f8565b92505060206114a68582860161145b565b9150509250929050565b60008115159050919050565b6114c5816114b0565b82525050565b60006020820190506114e060008301846114bc565b92915050565b6114ef8161143a565b82525050565b60006101408201905061150b600083018d6114e6565b611518602083018c6114e6565b611525604083018b6114e6565b611532606083018a6114e6565b61153f60808301896114e6565b61154c60a08301886114e6565b61155960c08301876114e6565b61156660e08301866114e6565b6115746101008301856114e6565b6115826101208301846114e6565b9b9a5050505050505050505050565b60006020820190506115a660008301846114e6565b92915050565b6000806000606084860312156115c5576115c46113aa565b5b60006115d3868287016113f8565b93505060206115e4868287016113f8565b92505060406115f58682870161145b565b9150509250925092565b600060ff82169050919050565b611615816115ff565b82525050565b6000602082019050611630600083018461160c565b92915050565b61163f816113cf565b82525050565b600060208201905061165a6000830184611636565b92915050565b60008060408385031215611677576116766113aa565b5b6000611685858286016113f8565b9250506020611696858286016113f8565b9150509250929050565b600060608201905081810360008301526116ba818661134f565b905081810360208301526116ce818561134f565b90506116dd60408301846114e6565b949350505050565b7f4e487b7100000000000000000000000000000000000000000000000000000000600052602260045260246000fd5b6000600282049050600182168061172c57607f821691505b60208210810361173f5761173e6116e5565b5b50919050565b7f4e487b7100000000000000000000000000000000000000000000000000000000600052601160045260246000fd5b600061177f8261143a565b915061178a8361143a565b92508282019050808211156117a2576117a1611745565b5b92915050565b60006117b38261143a565b91506117be8361143a565b92508282026117cc8161143a565b915082820484148315176117e3576117e2611745565b5b5092915050565b7f45524332303a2064656372656173656420616c6c6f77616e63652062656c6f7760008201527f207a65726f000000000000000000000000000000000000000000000000000000602082015250565b6000611846602583611303565b9150611851826117ea565b604082019050919050565b6000602082019050818103600083015261187581611839565b9050919050565b7f45524332303a206d696e7420746f20746865207a65726f206164647265737300600082015250565b60006118b2601f83611303565b91506118bd8261187c565b602082019050919050565b600060208201905081810360008301526118e1816118a5565b9050919050565b7f45524332303a20617070726f76652066726f6d20746865207a65726f2061646460008201527f7265737300000000000000000000000000000000000000000000000000000000602082015250565b6000611944602483611303565b915061194f826118e8565b604082019050919050565b6000602082019050818103600083015261197381611937565b9050919050565b7f45524332303a20617070726f766520746f20746865207a65726f20616464726560008201527f7373000000000000000000000000000000000000000000000000000000000000602082015250565b60006119d6602283611303565b91506119e18261197a565b604082019050919050565b60006020820190508181036000830152611a05816119c9565b9050919050565b7f45524332303a20696e73756666696369656e7420616c6c6f77616e6365000000600082015250565b6000611a42601d83611303565b9150611a4d82611a0c565b602082019050919050565b60006020820190508181036000830152611a7181611a35565b9050919050565b7f45524332303a207472616e736665722066726f6d20746865207a65726f20616460008201527f6472657373000000000000000000000000000000000000000000000000000000602082015250565b6000611ad4602583611303565b9150611adf82611a78565b604082019050919050565b60006020820190508181036000830152611b0381611ac7565b9050919050565b7f45524332303a207472616e7366657220746f20746865207a65726f206164647260008201527f6573730000000000000000000000000000000000000000000000000000000000602082015250565b6000611b66602383611303565b9150611b7182611b0a565b604082019050919050565b60006020820190508181036000830152611b9581611b59565b9050919050565b7f45524332303a207472616e7366657220616d6f756e742065786365656473206260008201527f616c616e63650000000000000000000000000000000000000000000000000000602082015250565b6000611bf8602683611303565b9150611c0382611b9c565b604082019050919050565b60006020820190508181036000830152611c2781611beb565b9050919050565b7f4e487b7100000000000000000000000000000000000000000000000000000000600052601260045260246000fd5b6000611c688261143a565b9150611c738361143a565b925082611c8357611c82611c2e565b5b82820490509291505056fea264697066735822122048a4a9e398dbcc1307f2506387b51c966d993b1da67efdf1f103d2ed780d007364736f6c63430008120033",
					"opcodes": "PUSH1 0x80 PUSH1 0x40 MSTORE CALLVALUE DUP1 ISZERO PUSH3 0x11 JUMPI PUSH1 0x0 DUP1 REVERT JUMPDEST POP PUSH1 0x40 MLOAD DUP1 PUSH1 0x40 ADD PUSH1 0x40 MSTORE DUP1 PUSH1 0xF DUP2 MSTORE PUSH1 0x20 ADD PUSH32 0x5265616C457374617465546F6B656E0000000000000000000000000000000000 DUP2 MSTORE POP PUSH1 0x40 MLOAD DUP1 PUSH1 0x40 ADD PUSH1 0x40 MSTORE DUP1 PUSH1 0x3 DUP2 MSTORE PUSH1 0x20 ADD PUSH32 0x5245540000000000000000000000000000000000000000000000000000000000 DUP2 MSTORE POP DUP2 PUSH1 0x3 SWAP1 DUP2 PUSH3 0x8F SWAP2 SWAP1 PUSH3 0x324 JUMP JUMPDEST POP DUP1 PUSH1 0x4 SWAP1 DUP2 PUSH3 0xA1 SWAP2 SWAP1 PUSH3 0x324 JUMP JUMPDEST POP POP POP PUSH3 0x40B JUMP JUMPDEST PUSH1 0x0 DUP2 MLOAD SWAP1 POP SWAP2 SWAP1 POP JUMP JUMPDEST PUSH32 0x4E487B7100000000000000000000000000000000000000000000000000000000 PUSH1 0x0 MSTORE PUSH1 0x41 PUSH1 0x4 MSTORE PUSH1 0x24 PUSH1 0x0 REVERT JUMPDEST PUSH32 0x4E487B7100000000000000000000000000000000000000000000000000000000 PUSH1 0x0 MSTORE PUSH1 0x22 PUSH1 0x4 MSTORE PUSH1 0x24 PUSH1 0x0 REVERT JUMPDEST PUSH1 0x0 PUSH1 0x2 DUP3 DIV SWAP1 POP PUSH1 0x1 DUP3 AND DUP1 PUSH3 0x12C JUMPI PUSH1 0x7F DUP3 AND SWAP2 POP JUMPDEST PUSH1 0x20 DUP3 LT DUP2 SUB PUSH3 0x142 JUMPI PUSH3 0x141 PUSH3 0xE4 JUMP JUMPDEST JUMPDEST POP SWAP2 SWAP1 POP JUMP JUMPDEST PUSH1 0x0 DUP2 SWAP1 POP DUP2 PUSH1 0x0 MSTORE PUSH1 0x20 PUSH1 0x0 KECCAK256 SWAP1 POP SWAP2 SWAP1 POP JUMP JUMPDEST PUSH1 0x0 PUSH1 0x20 PUSH1 0x1F DUP4 ADD DIV SWAP1 POP SWAP2 SWAP1 POP JUMP JUMPDEST PUSH1 0x0 DUP3 DUP3 SHL SWAP1 POP SWAP3 SWAP2 POP POP JUMP JUMPDEST PUSH1 0x0 PUSH1 0x8 DUP4 MUL PUSH3 0x1AC PUSH32 0xFFFFFFFFFFFFFFFFFFFFFFFFFFFFFFFFFFFFFFFFFFFFFFFFFFFFFFFFFFFFFFFF DUP3 PUSH3 0x16D JUMP JUMPDEST PUSH3 0x1B8 DUP7 DUP4 PUSH3 0x16D JUMP JUMPDEST SWAP6 POP DUP1 NOT DUP5 AND SWAP4 POP DUP1 DUP7 AND DUP5 OR SWAP3 POP POP POP SWAP4 SWAP3 POP POP POP JUMP JUMPDEST PUSH1 0x0 DUP2 SWAP1 POP SWAP2 SWAP1 POP JUMP JUMPDEST PUSH1 0x0 DUP2 SWAP1 POP SWAP2 SWAP1 POP JUMP JUMPDEST PUSH1 0x0 PUSH3 0x205 PUSH3 0x1FF PUSH3 0x1F9 DUP5 PUSH3 0x1D0 JUMP JUMPDEST PUSH3 0x1DA JUMP JUMPDEST PUSH3 0x1D0 JUMP JUMPDEST SWAP1 POP SWAP2 SWAP1 POP JUMP JUMPDEST PUSH1 0x0 DUP2 SWAP1 POP SWAP2 SWAP1 POP JUMP JUMPDEST PUSH3 0x221 DUP4 PUSH3 0x1E4 JUMP JUMPDEST PUSH3 0x239 PUSH3 0x230 DUP3 PUSH3 0x20C JUMP JUMPDEST DUP5 DUP5 SLOAD PUSH3 0x17A JUMP JUMPDEST DUP3 SSTORE POP POP POP POP JUMP JUMPDEST PUSH1 0x0 SWAP1 JUMP JUMPDEST PUSH3 0x250 PUSH3 0x241 JUMP JUMPDEST PUSH3 0x25D DUP2 DUP5 DUP5 PUSH3 0x216 JUMP JUMPDEST POP POP POP JUMP JUMPDEST JUMPDEST DUP2 DUP2 LT ISZERO PUSH3 0x285 JUMPI PUSH3 0x279 PUSH1 0x0 DUP3 PUSH3 0x246 JUMP JUMPDEST PUSH1 0x1 DUP2 ADD SWAP1 POP PUSH3 0x263 JUMP JUMPDEST POP POP JUMP JUMPDEST PUSH1 0x1F DUP3 GT ISZERO PUSH3 0x2D4 JUMPI PUSH3 0x29E DUP2 PUSH3 0x148 JUMP JUMPDEST PUSH3 0x2A9 DUP5 PUSH3 0x15D JUMP JUMPDEST DUP2 ADD PUSH1 0x20 DUP6 LT ISZERO PUSH3 0x2B9 JUMPI DUP2 SWAP1 POP JUMPDEST PUSH3 0x2D1 PUSH3 0x2C8 DUP6 PUSH3 0x15D JUMP JUMPDEST DUP4 ADD DUP3 PUSH3 0x262 JUMP JUMPDEST POP POP JUMPDEST POP POP POP JUMP JUMPDEST PUSH1 0x0 DUP3 DUP3 SHR SWAP1 POP SWAP3 SWAP2 POP POP JUMP JUMPDEST PUSH1 0x0 PUSH3 0x2F9 PUSH1 0x0 NOT DUP5 PUSH1 0x8 MUL PUSH3 0x2D9 JUMP JUMPDEST NOT DUP1 DUP4 AND SWAP2 POP POP SWAP3 SWAP2 POP POP JUMP JUMPDEST PUSH1 0x0 PUSH3 0x314 DUP4 DUP4 PUSH3 0x2E6 JUMP JUMPDEST SWAP2 POP DUP3 PUSH1 0x2 MUL DUP3 OR SWAP1 POP SWAP3 SWAP2 POP POP JUMP JUMPDEST PUSH3 0x32F DUP3 PUSH3 0xAA JUMP JUMPDEST PUSH8 0xFFFFFFFFFFFFFFFF DUP2 GT ISZERO PUSH3 0x34B JUMPI PUSH3 0x34A PUSH3 0xB5 JUMP JUMPDEST JUMPDEST PUSH3 0x357 DUP3 SLOAD PUSH3 0x113 JUMP JUMPDEST PUSH3 0x364 DUP3 DUP3 DUP6 PUSH3 0x289 JUMP JUMPDEST PUSH1 0x0 PUSH1 0x20 SWAP1 POP PUSH1 0x1F DUP4 GT PUSH1 0x1 DUP2 EQ PUSH3 0x39C JUMPI PUSH1 0x0 DUP5 ISZERO PUSH3 0x387 JUMPI DUP3 DUP8 ADD MLOAD SWAP1 POP JUMPDEST PUSH3 0x393 DUP6 DUP3 PUSH3 0x306 JUMP JUMPDEST DUP7 SSTORE POP PUSH3 0x403 JUMP JUMPDEST PUSH1 0x1F NOT DUP5 AND PUSH3 0x3AC DUP7 PUSH3 0x148 JUMP JUMPDEST PUSH1 0x0 JUMPDEST DUP3 DUP2 LT ISZERO PUSH3 0x3D6 JUMPI DUP5 DUP10 ADD MLOAD DUP3 SSTORE PUSH1 0x1 DUP3 ADD SWAP2 POP PUSH1 0x20 DUP6 ADD SWAP5 POP PUSH1 0x20 DUP2 ADD SWAP1 POP PUSH3 0x3AF JUMP JUMPDEST DUP7 DUP4 LT ISZERO PUSH3 0x3F6 JUMPI DUP5 DUP10 ADD MLOAD PUSH3 0x3F2 PUSH1 0x1F DUP10 AND DUP3 PUSH3 0x2E6 JUMP JUMPDEST DUP4 SSTORE POP JUMPDEST PUSH1 0x1 PUSH1 0x2 DUP9 MUL ADD DUP9 SSTORE POP POP POP JUMPDEST POP POP POP POP POP POP JUMP JUMPDEST PUSH2 0x1CC4 DUP1 PUSH3 0x41B PUSH1 0x0 CODECOPY PUSH1 0x0 RETURN INVALID PUSH1 0x80 PUSH1 0x40 MSTORE CALLVALUE DUP1 ISZERO PUSH2 0x10 JUMPI PUSH1 0x0 DUP1 REVERT JUMPDEST POP PUSH1 0x4 CALLDATASIZE LT PUSH2 0x142 JUMPI PUSH1 0x0 CALLDATALOAD PUSH1 0xE0 SHR DUP1 PUSH4 0x88E20ABB GT PUSH2 0xB8 JUMPI DUP1 PUSH4 0xA9059CBB GT PUSH2 0x7C JUMPI DUP1 PUSH4 0xA9059CBB EQ PUSH2 0x392 JUMPI DUP1 PUSH4 0xBEEE50F7 EQ PUSH2 0x3C2 JUMPI DUP1 PUSH4 0xDD62ED3E EQ PUSH2 0x3DE JUMPI DUP1 PUSH4 0xE01FE4C3 EQ PUSH2 0x40E JUMPI DUP1 PUSH4 0xF857F752 EQ PUSH2 0x440 JUMPI DUP1 PUSH4 0xFCF8F422 EQ PUSH2 0x45C JUMPI PUSH2 0x142 JUMP JUMPDEST DUP1 PUSH4 0x88E20ABB EQ PUSH2 0x2EE JUMPI DUP1 PUSH4 0x8DA5CB5B EQ PUSH2 0x30A JUMPI DUP1 PUSH4 0x95D89B41 EQ PUSH2 0x328 JUMPI DUP1 PUSH4 0x976F5F61 EQ PUSH2 0x346 JUMPI DUP1 PUSH4 0xA457C2D7 EQ PUSH2 0x362 JUMPI PUSH2 0x142 JUMP JUMPDEST DUP1 PUSH4 0x23B872DD GT PUSH2 0x10A JUMPI DUP1 PUSH4 0x23B872DD EQ PUSH2 0x208 JUMPI DUP1 PUSH4 0x313CE567 EQ PUSH2 0x238 JUMPI DUP1 PUSH4 0x39509351 EQ PUSH2 0x256 JUMPI DUP1 PUSH4 0x44BA41DB EQ PUSH2 0x286 JUMPI DUP1 PUSH4 0x575E6CEC EQ PUSH2 0x2A2 JUMPI DUP1 PUSH4 0x70A08231 EQ PUSH2 0x2BE JUMPI PUSH2 0x142 JUMP JUMPDEST DUP1 PUSH4 0x6FDDE03 EQ PUSH2 0x147 JUMPI DUP1 PUSH4 0x89A6115 EQ PUSH2 0x165 JUMPI DUP1 PUSH4 0x95EA7B3 EQ PUSH2 0x181 JUMPI DUP1 PUSH4 0xDF9C426 EQ PUSH2 0x1B1 JUMPI DUP1 PUSH4 0x18160DDD EQ PUSH2 0x1EA JUMPI JUMPDEST PUSH1 0x0 DUP1 REVERT JUMPDEST PUSH2 0x14F PUSH2 0x478 JUMP JUMPDEST PUSH1 0x40 MLOAD PUSH2 0x15C SWAP2 SWAP1 PUSH2 0x1388 JUMP JUMPDEST PUSH1 0x40 MLOAD DUP1 SWAP2 SUB SWAP1 RETURN JUMPDEST PUSH2 0x17F PUSH1 0x4 DUP1 CALLDATASIZE SUB DUP2 ADD SWAP1 PUSH2 0x17A SWAP2 SWAP1 PUSH2 0x140D JUMP JUMPDEST PUSH2 0x50A JUMP JUMPDEST STOP JUMPDEST PUSH2 0x19B PUSH1 0x4 DUP1 CALLDATASIZE SUB DUP2 ADD SWAP1 PUSH2 0x196 SWAP2 SWAP1 PUSH2 0x1470 JUMP JUMPDEST PUSH2 0x55F JUMP JUMPDEST PUSH1 0x40 MLOAD PUSH2 0x1A8 SWAP2 SWAP1 PUSH2 0x14CB JUMP JUMPDEST PUSH1 0x40 MLOAD DUP1 SWAP2 SUB SWAP1 RETURN JUMPDEST PUSH2 0x1CB PUSH1 0x4 DUP1 CALLDATASIZE SUB DUP2 ADD SWAP1 PUSH2 0x1C6 SWAP2 SWAP1 PUSH2 0x140D JUMP JUMPDEST PUSH2 0x582 JUMP JUMPDEST PUSH1 0x40 MLOAD PUSH2 0x1E1 SWAP11 SWAP10 SWAP9 SWAP8 SWAP7 SWAP6 SWAP5 SWAP4 SWAP3 SWAP2 SWAP1 PUSH2 0x14F5 JUMP JUMPDEST PUSH1 0x40 MLOAD DUP1 SWAP2 SUB SWAP1 RETURN JUMPDEST PUSH2 0x1F2 PUSH2 0x5D6 JUMP JUMPDEST PUSH1 0x40 MLOAD PUSH2 0x1FF SWAP2 SWAP1 PUSH2 0x1591 JUMP JUMPDEST PUSH1 0x40 MLOAD DUP1 SWAP2 SUB SWAP1 RETURN JUMPDEST PUSH2 0x222 PUSH1 0x4 DUP1 CALLDATASIZE SUB DUP2 ADD SWAP1 PUSH2 0x21D SWAP2 SWAP1 PUSH2 0x15AC JUMP JUMPDEST PUSH2 0x5E0 JUMP JUMPDEST PUSH1 0x40 MLOAD PUSH2 0x22F SWAP2 SWAP1 PUSH2 0x14CB JUMP JUMPDEST PUSH1 0x40 MLOAD DUP1 SWAP2 SUB SWAP1 RETURN JUMPDEST PUSH2 0x240 PUSH2 0x60F JUMP JUMPDEST PUSH1 0x40 MLOAD PUSH2 0x24D SWAP2 SWAP1 PUSH2 0x161B JUMP JUMPDEST PUSH1 0x40 MLOAD DUP1 SWAP2 SUB SWAP1 RETURN JUMPDEST PUSH2 0x270 PUSH1 0x4 DUP1 CALLDATASIZE SUB DUP2 ADD SWAP1 PUSH2 0x26B SWAP2 SWAP1 PUSH2 0x1470 JUMP JUMPDEST PUSH2 0x618 JUMP JUMPDEST PUSH1 0x40 MLOAD PUSH2 0x27D SWAP2 SWAP1 PUSH2 0x14CB JUMP JUMPDEST PUSH1 0x40 MLOAD DUP1 SWAP2 SUB SWAP1 RETURN JUMPDEST PUSH2 0x2A0 PUSH1 0x4 DUP1 CALLDATASIZE SUB DUP2 ADD SWAP1 PUSH2 0x29B SWAP2 SWAP1 PUSH2 0x140D JUMP JUMPDEST PUSH2 0x64F JUMP JUMPDEST STOP JUMPDEST PUSH2 0x2BC PUSH1 0x4 DUP1 CALLDATASIZE SUB DUP2 ADD SWAP1 PUSH2 0x2B7 SWAP2 SWAP1 PUSH2 0x140D JUMP JUMPDEST PUSH2 0x6C9 JUMP JUMPDEST STOP JUMPDEST PUSH2 0x2D8 PUSH1 0x4 DUP1 CALLDATASIZE SUB DUP2 ADD SWAP1 PUSH2 0x2D3 SWAP2 SWAP1 PUSH2 0x140D JUMP JUMPDEST PUSH2 0x730 JUMP JUMPDEST PUSH1 0x40 MLOAD PUSH2 0x2E5 SWAP2 SWAP1 PUSH2 0x1591 JUMP JUMPDEST PUSH1 0x40 MLOAD DUP1 SWAP2 SUB SWAP1 RETURN JUMPDEST PUSH2 0x308 PUSH1 0x4 DUP1 CALLDATASIZE SUB DUP2 ADD SWAP1 PUSH2 0x303 SWAP2 SWAP1 PUSH2 0x140D JUMP JUMPDEST PUSH2 0x778 JUMP JUMPDEST STOP JUMPDEST PUSH2 0x312 PUSH2 0x7DB JUMP JUMPDEST PUSH1 0x40 MLOAD PUSH2 0x31F SWAP2 SWAP1 PUSH2 0x1645 JUMP JUMPDEST PUSH1 0x40 MLOAD DUP1 SWAP2 SUB SWAP1 RETURN JUMPDEST PUSH2 0x330 PUSH2 0x801 JUMP JUMPDEST PUSH1 0x40 MLOAD PUSH2 0x33D SWAP2 SWAP1 PUSH2 0x1388 JUMP JUMPDEST PUSH1 0x40 MLOAD DUP1 SWAP2 SUB SWAP1 RETURN JUMPDEST PUSH2 0x360 PUSH1 0x4 DUP1 CALLDATASIZE SUB DUP2 ADD SWAP1 PUSH2 0x35B SWAP2 SWAP1 PUSH2 0x140D JUMP JUMPDEST PUSH2 0x893 JUMP JUMPDEST STOP JUMPDEST PUSH2 0x37C PUSH1 0x4 DUP1 CALLDATASIZE SUB DUP2 ADD SWAP1 PUSH2 0x377 SWAP2 SWAP1 PUSH2 0x1470 JUMP JUMPDEST PUSH2 0x929 JUMP JUMPDEST PUSH1 0x40 MLOAD PUSH2 0x389 SWAP2 SWAP1 PUSH2 0x14CB JUMP JUMPDEST PUSH1 0x40 MLOAD DUP1 SWAP2 SUB SWAP1 RETURN JUMPDEST PUSH2 0x3AC PUSH1 0x4 DUP1 CALLDATASIZE SUB DUP2 ADD SWAP1 PUSH2 0x3A7 SWAP2 SWAP1 PUSH2 0x1470 JUMP JUMPDEST PUSH2 0x9A0 JUMP JUMPDEST PUSH1 0x40 MLOAD PUSH2 0x3B9 SWAP2 SWAP1 PUSH2 0x14CB JUMP JUMPDEST PUSH1 0x40 MLOAD DUP1 SWAP2 SUB SWAP1 RETURN JUMPDEST PUSH2 0x3DC PUSH1 0x4 DUP1 CALLDATASIZE SUB DUP2 ADD SWAP1 PUSH2 0x3D7 SWAP2 SWAP1 PUSH2 0x140D JUMP JUMPDEST PUSH2 0x9C3 JUMP JUMPDEST STOP JUMPDEST PUSH2 0x3F8 PUSH1 0x4 DUP1 CALLDATASIZE SUB DUP2 ADD SWAP1 PUSH2 0x3F3 SWAP2 SWAP1 PUSH2 0x1660 JUMP JUMPDEST PUSH2 0xA18 JUMP JUMPDEST PUSH1 0x40 MLOAD PUSH2 0x405 SWAP2 SWAP1 PUSH2 0x1591 JUMP JUMPDEST PUSH1 0x40 MLOAD DUP1 SWAP2 SUB SWAP1 RETURN JUMPDEST PUSH2 0x428 PUSH1 0x4 DUP1 CALLDATASIZE SUB DUP2 ADD SWAP1 PUSH2 0x423 SWAP2 SWAP1 PUSH2 0x140D JUMP JUMPDEST PUSH2 0xA9F JUMP JUMPDEST PUSH1 0x40 MLOAD PUSH2 0x437 SWAP4 SWAP3 SWAP2 SWAP1 PUSH2 0x16A0 JUMP JUMPDEST PUSH1 0x40 MLOAD DUP1 SWAP2 SUB SWAP1 RETURN JUMPDEST PUSH2 0x45A PUSH1 0x4 DUP1 CALLDATASIZE SUB DUP2 ADD SWAP1 PUSH2 0x455 SWAP2 SWAP1 PUSH2 0x140D JUMP JUMPDEST PUSH2 0xBD9 JUMP JUMPDEST STOP JUMPDEST PUSH2 0x476 PUSH1 0x4 DUP1 CALLDATASIZE SUB DUP2 ADD SWAP1 PUSH2 0x471 SWAP2 SWAP1 PUSH2 0x140D JUMP JUMPDEST PUSH2 0xC2E JUMP JUMPDEST STOP JUMPDEST PUSH1 0x60 PUSH1 0x3 DUP1 SLOAD PUSH2 0x487 SWAP1 PUSH2 0x1714 JUMP JUMPDEST DUP1 PUSH1 0x1F ADD PUSH1 0x20 DUP1 SWAP2 DIV MUL PUSH1 0x20 ADD PUSH1 0x40 MLOAD SWAP1 DUP2 ADD PUSH1 0x40 MSTORE DUP1 SWAP3 SWAP2 SWAP1 DUP2 DUP2 MSTORE PUSH1 0x20 ADD DUP3 DUP1 SLOAD PUSH2 0x4B3 SWAP1 PUSH2 0x1714 JUMP JUMPDEST DUP1 ISZERO PUSH2 0x500 JUMPI DUP1 PUSH1 0x1F LT PUSH2 0x4D5 JUMPI PUSH2 0x100 DUP1 DUP4 SLOAD DIV MUL DUP4 MSTORE SWAP2 PUSH1 0x20 ADD SWAP2 PUSH2 0x500 JUMP JUMPDEST DUP3 ADD SWAP2 SWAP1 PUSH1 0x0 MSTORE PUSH1 0x20 PUSH1 0x0 KECCAK256 SWAP1 JUMPDEST DUP2 SLOAD DUP2 MSTORE SWAP1 PUSH1 0x1 ADD SWAP1 PUSH1 0x20 ADD DUP1 DUP4 GT PUSH2 0x4E3 JUMPI DUP3 SWAP1 SUB PUSH1 0x1F AND DUP3 ADD SWAP2 JUMPDEST POP POP POP POP POP SWAP1 POP SWAP1 JUMP JUMPDEST PUSH1 0x0 PUSH1 0x6 PUSH1 0x0 DUP4 PUSH20 0xFFFFFFFFFFFFFFFFFFFFFFFFFFFFFFFFFFFFFFFF AND PUSH20 0xFFFFFFFFFFFFFFFFFFFFFFFFFFFFFFFFFFFFFFFF AND DUP2 MSTORE PUSH1 0x20 ADD SWAP1 DUP2 MSTORE PUSH1 0x20 ADD PUSH1 0x0 KECCAK256 SWAP1 POP PUSH2 0x55B DUP3 DUP3 PUSH1 0x0 ADD SLOAD PUSH2 0xC83 JUMP JUMPDEST POP POP JUMP JUMPDEST PUSH1 0x0 DUP1 PUSH2 0x56A PUSH2 0xDD9 JUMP JUMPDEST SWAP1 POP PUSH2 0x577 DUP2 DUP6 DUP6 PUSH2 0xDE1 JUMP JUMPDEST PUSH1 0x1 SWAP2 POP POP SWAP3 SWAP2 POP POP JUMP JUMPDEST PUSH1 0x6 PUSH1 0x20 MSTORE DUP1 PUSH1 0x0 MSTORE PUSH1 0x40 PUSH1 0x0 KECCAK256 PUSH1 0x0 SWAP2 POP SWAP1 POP DUP1 PUSH1 0x0 ADD SLOAD SWAP1 DUP1 PUSH1 0x1 ADD SLOAD SWAP1 DUP1 PUSH1 0x2 ADD SLOAD SWAP1 DUP1 PUSH1 0x3 ADD SLOAD SWAP1 DUP1 PUSH1 0x4 ADD SLOAD SWAP1 DUP1 PUSH1 0x5 ADD SLOAD SWAP1 DUP1 PUSH1 0x6 ADD SLOAD SWAP1 DUP1 PUSH1 0x7 ADD SLOAD SWAP1 DUP1 PUSH1 0x8 ADD SLOAD SWAP1 DUP1 PUSH1 0x9 ADD SLOAD SWAP1 POP DUP11 JUMP JUMPDEST PUSH1 0x0 PUSH1 0x2 SLOAD SWAP1 POP SWAP1 JUMP JUMPDEST PUSH1 0x0 DUP1 PUSH2 0x5EB PUSH2 0xDD9 JUMP JUMPDEST SWAP1 POP PUSH2 0x5F8 DUP6 DUP3 DUP6 PUSH2 0xFAA JUMP JUMPDEST PUSH2 0x603 DUP6 DUP6 DUP6 PUSH2 0x1036 JUMP JUMPDEST PUSH1 0x1 SWAP2 POP POP SWAP4 SWAP3 POP POP POP JUMP JUMPDEST PUSH1 0x0 PUSH1 0x12 SWAP1 POP SWAP1 JUMP JUMPDEST PUSH1 0x0 DUP1 PUSH2 0x623 PUSH2 0xDD9 JUMP JUMPDEST SWAP1 POP PUSH2 0x644 DUP2 DUP6 DUP6 PUSH2 0x635 DUP6 DUP10 PUSH2 0xA18 JUMP JUMPDEST PUSH2 0x63F SWAP2 SWAP1 PUSH2 0x1774 JUMP JUMPDEST PUSH2 0xDE1 JUMP JUMPDEST PUSH1 0x1 SWAP2 POP POP SWAP3 SWAP2 POP POP JUMP JUMPDEST PUSH1 0x0 PUSH1 0x6 PUSH1 0x0 DUP4 PUSH20 0xFFFFFFFFFFFFFFFFFFFFFFFFFFFFFFFFFFFFFFFF AND PUSH20 0xFFFFFFFFFFFFFFFFFFFFFFFFFFFFFFFFFFFFFFFF AND DUP2 MSTORE PUSH1 0x20 ADD SWAP1 DUP2 MSTORE PUSH1 0x20 ADD PUSH1 0x0 KECCAK256 SWAP1 POP PUSH2 0x6BD PUSH1 0x64 PUSH2 0x6AF PUSH1 0x8 DUP5 PUSH1 0x5 ADD SLOAD PUSH2 0x12AC SWAP1 SWAP2 SWAP1 PUSH4 0xFFFFFFFF AND JUMP JUMPDEST PUSH2 0x12C2 SWAP1 SWAP2 SWAP1 PUSH4 0xFFFFFFFF AND JUMP JUMPDEST DUP2 PUSH1 0x3 ADD DUP2 SWAP1 SSTORE POP POP POP JUMP JUMPDEST PUSH1 0x0 PUSH1 0x6 PUSH1 0x0 DUP4 PUSH20 0xFFFFFFFFFFFFFFFFFFFFFFFFFFFFFFFFFFFFFFFF AND PUSH20 0xFFFFFFFFFFFFFFFFFFFFFFFFFFFFFFFFFFFFFFFF AND DUP2 MSTORE PUSH1 0x20 ADD SWAP1 DUP2 MSTORE PUSH1 0x20 ADD PUSH1 0x0 KECCAK256 SWAP1 POP PUSH2 0x724 PUSH1 0xC DUP3 PUSH1 0x3 ADD SLOAD PUSH2 0x12C2 SWAP1 SWAP2 SWAP1 PUSH4 0xFFFFFFFF AND JUMP JUMPDEST DUP2 PUSH1 0x4 ADD DUP2 SWAP1 SSTORE POP POP POP JUMP JUMPDEST PUSH1 0x0 DUP1 PUSH1 0x0 DUP4 PUSH20 0xFFFFFFFFFFFFFFFFFFFFFFFFFFFFFFFFFFFFFFFF AND PUSH20 0xFFFFFFFFFFFFFFFFFFFFFFFFFFFFFFFFFFFFFFFF AND DUP2 MSTORE PUSH1 0x20 ADD SWAP1 DUP2 MSTORE PUSH1 0x20 ADD PUSH1 0x0 KECCAK256 SLOAD SWAP1 POP SWAP2 SWAP1 POP JUMP JUMPDEST PUSH1 0x0 PUSH1 0x6 PUSH1 0x0 DUP4 PUSH20 0xFFFFFFFFFFFFFFFFFFFFFFFFFFFFFFFFFFFFFFFF AND PUSH20 0xFFFFFFFFFFFFFFFFFFFFFFFFFFFFFFFFFFFFFFFF AND DUP2 MSTORE PUSH1 0x20 ADD SWAP1 DUP2 MSTORE PUSH1 0x20 ADD PUSH1 0x0 KECCAK256 SWAP1 POP DUP1 PUSH1 0x1 ADD SLOAD DUP2 PUSH1 0x0 ADD SLOAD PUSH2 0x7CF SWAP2 SWAP1 PUSH2 0x17A8 JUMP JUMPDEST DUP2 PUSH1 0x5 ADD DUP2 SWAP1 SSTORE POP POP POP JUMP JUMPDEST PUSH1 0x5 PUSH1 0x0 SWAP1 SLOAD SWAP1 PUSH2 0x100 EXP SWAP1 DIV PUSH20 0xFFFFFFFFFFFFFFFFFFFFFFFFFFFFFFFFFFFFFFFF AND DUP2 JUMP JUMPDEST PUSH1 0x60 PUSH1 0x4 DUP1 SLOAD PUSH2 0x810 SWAP1 PUSH2 0x1714 JUMP JUMPDEST DUP1 PUSH1 0x1F ADD PUSH1 0x20 DUP1 SWAP2 DIV MUL PUSH1 0x20 ADD PUSH1 0x40 MLOAD SWAP1 DUP2 ADD PUSH1 0x40 MSTORE DUP1 SWAP3 SWAP2 SWAP1 DUP2 DUP2 MSTORE PUSH1 0x20 ADD DUP3 DUP1 SLOAD PUSH2 0x83C SWAP1 PUSH2 0x1714 JUMP JUMPDEST DUP1 ISZERO PUSH2 0x889 JUMPI DUP1 PUSH1 0x1F LT PUSH2 0x85E JUMPI PUSH2 0x100 DUP1 DUP4 SLOAD DIV MUL DUP4 MSTORE SWAP2 PUSH1 0x20 ADD SWAP2 PUSH2 0x889 JUMP JUMPDEST DUP3 ADD SWAP2 SWAP1 PUSH1 0x0 MSTORE PUSH1 0x20 PUSH1 0x0 KECCAK256 SWAP1 JUMPDEST DUP2 SLOAD DUP2 MSTORE SWAP1 PUSH1 0x1 ADD SWAP1 PUSH1 0x20 ADD DUP1 DUP4 GT PUSH2 0x86C JUMPI DUP3 SWAP1 SUB PUSH1 0x1F AND DUP3 ADD SWAP2 JUMPDEST POP POP POP POP POP SWAP1 POP SWAP1 JUMP JUMPDEST PUSH1 0x0 PUSH1 0x6 PUSH1 0x0 DUP4 PUSH20 0xFFFFFFFFFFFFFFFFFFFFFFFFFFFFFFFFFFFFFFFF AND PUSH20 0xFFFFFFFFFFFFFFFFFFFFFFFFFFFFFFFFFFFFFFFF AND DUP2 MSTORE PUSH1 0x20 ADD SWAP1 DUP2 MSTORE PUSH1 0x20 ADD PUSH1 0x0 KECCAK256 SWAP1 POP PUSH2 0x91D DUP2 PUSH1 0x6 ADD SLOAD PUSH2 0x90F DUP4 PUSH1 0x9 ADD SLOAD PUSH2 0x901 DUP6 PUSH1 0x8 ADD SLOAD DUP7 PUSH1 0x7 ADD SLOAD PUSH2 0x12D8 SWAP1 SWAP2 SWAP1 PUSH4 0xFFFFFFFF AND JUMP JUMPDEST PUSH2 0x12D8 SWAP1 SWAP2 SWAP1 PUSH4 0xFFFFFFFF AND JUMP JUMPDEST PUSH2 0x12D8 SWAP1 SWAP2 SWAP1 PUSH4 0xFFFFFFFF AND JUMP JUMPDEST DUP2 PUSH1 0x0 ADD DUP2 SWAP1 SSTORE POP POP POP JUMP JUMPDEST PUSH1 0x0 DUP1 PUSH2 0x934 PUSH2 0xDD9 JUMP JUMPDEST SWAP1 POP PUSH1 0x0 PUSH2 0x942 DUP3 DUP7 PUSH2 0xA18 JUMP JUMPDEST SWAP1 POP DUP4 DUP2 LT ISZERO PUSH2 0x987 JUMPI PUSH1 0x40 MLOAD PUSH32 0x8C379A000000000000000000000000000000000000000000000000000000000 DUP2 MSTORE PUSH1 0x4 ADD PUSH2 0x97E SWAP1 PUSH2 0x185C JUMP JUMPDEST PUSH1 0x40 MLOAD DUP1 SWAP2 SUB SWAP1 REVERT JUMPDEST PUSH2 0x994 DUP3 DUP7 DUP7 DUP5 SUB PUSH2 0xDE1 JUMP JUMPDEST PUSH1 0x1 SWAP3 POP POP POP SWAP3 SWAP2 POP POP JUMP JUMPDEST PUSH1 0x0 DUP1 PUSH2 0x9AB PUSH2 0xDD9 JUMP JUMPDEST SWAP1 POP PUSH2 0x9B8 DUP2 DUP6 DUP6 PUSH2 0x1036 JUMP JUMPDEST PUSH1 0x1 SWAP2 POP POP SWAP3 SWAP2 POP POP JUMP JUMPDEST PUSH1 0x0 PUSH1 0x6 PUSH1 0x0 DUP4 PUSH20 0xFFFFFFFFFFFFFFFFFFFFFFFFFFFFFFFFFFFFFFFF AND PUSH20 0xFFFFFFFFFFFFFFFFFFFFFFFFFFFFFFFFFFFFFFFF AND DUP2 MSTORE PUSH1 0x20 ADD SWAP1 DUP2 MSTORE PUSH1 0x20 ADD PUSH1 0x0 KECCAK256 SWAP1 POP PUSH2 0xA14 DUP3 DUP3 PUSH1 0x3 ADD SLOAD PUSH2 0xC83 JUMP JUMPDEST POP POP JUMP JUMPDEST PUSH1 0x0 PUSH1 0x1 PUSH1 0x0 DUP5 PUSH20 0xFFFFFFFFFFFFFFFFFFFFFFFFFFFFFFFFFFFFFFFF AND PUSH20 0xFFFFFFFFFFFFFFFFFFFFFFFFFFFFFFFFFFFFFFFF AND DUP2 MSTORE PUSH1 0x20 ADD SWAP1 DUP2 MSTORE PUSH1 0x20 ADD PUSH1 0x0 KECCAK256 PUSH1 0x0 DUP4 PUSH20 0xFFFFFFFFFFFFFFFFFFFFFFFFFFFFFFFFFFFFFFFF AND PUSH20 0xFFFFFFFFFFFFFFFFFFFFFFFFFFFFFFFFFFFFFFFF AND DUP2 MSTORE PUSH1 0x20 ADD SWAP1 DUP2 MSTORE PUSH1 0x20 ADD PUSH1 0x0 KECCAK256 SLOAD SWAP1 POP SWAP3 SWAP2 POP POP JUMP JUMPDEST PUSH1 0x7 PUSH1 0x20 MSTORE DUP1 PUSH1 0x0 MSTORE PUSH1 0x40 PUSH1 0x0 KECCAK256 PUSH1 0x0 SWAP2 POP SWAP1 POP DUP1 PUSH1 0x0 ADD DUP1 SLOAD PUSH2 0xAC2 SWAP1 PUSH2 0x1714 JUMP JUMPDEST DUP1 PUSH1 0x1F ADD PUSH1 0x20 DUP1 SWAP2 DIV MUL PUSH1 0x20 ADD PUSH1 0x40 MLOAD SWAP1 DUP2 ADD PUSH1 0x40 MSTORE DUP1 SWAP3 SWAP2 SWAP1 DUP2 DUP2 MSTORE PUSH1 0x20 ADD DUP3 DUP1 SLOAD PUSH2 0xAEE SWAP1 PUSH2 0x1714 JUMP JUMPDEST DUP1 ISZERO PUSH2 0xB3B JUMPI DUP1 PUSH1 0x1F LT PUSH2 0xB10 JUMPI PUSH2 0x100 DUP1 DUP4 SLOAD DIV MUL DUP4 MSTORE SWAP2 PUSH1 0x20 ADD SWAP2 PUSH2 0xB3B JUMP JUMPDEST DUP3 ADD SWAP2 SWAP1 PUSH1 0x0 MSTORE PUSH1 0x20 PUSH1 0x0 KECCAK256 SWAP1 JUMPDEST DUP2 SLOAD DUP2 MSTORE SWAP1 PUSH1 0x1 ADD SWAP1 PUSH1 0x20 ADD DUP1 DUP4 GT PUSH2 0xB1E JUMPI DUP3 SWAP1 SUB PUSH1 0x1F AND DUP3 ADD SWAP2 JUMPDEST POP POP POP POP POP SWAP1 DUP1 PUSH1 0x1 ADD DUP1 SLOAD PUSH2 0xB50 SWAP1 PUSH2 0x1714 JUMP JUMPDEST DUP1 PUSH1 0x1F ADD PUSH1 0x20 DUP1 SWAP2 DIV MUL PUSH1 0x20 ADD PUSH1 0x40 MLOAD SWAP1 DUP2 ADD PUSH1 0x40 MSTORE DUP1 SWAP3 SWAP2 SWAP1 DUP2 DUP2 MSTORE PUSH1 0x20 ADD DUP3 DUP1 SLOAD PUSH2 0xB7C SWAP1 PUSH2 0x1714 JUMP JUMPDEST DUP1 ISZERO PUSH2 0xBC9 JUMPI DUP1 PUSH1 0x1F LT PUSH2 0xB9E JUMPI PUSH2 0x100 DUP1 DUP4 SLOAD DIV MUL DUP4 MSTORE SWAP2 PUSH1 0x20 ADD SWAP2 PUSH2 0xBC9 JUMP JUMPDEST DUP3 ADD SWAP2 SWAP1 PUSH1 0x0 MSTORE PUSH1 0x20 PUSH1 0x0 KECCAK256 SWAP1 JUMPDEST DUP2 SLOAD DUP2 MSTORE SWAP1 PUSH1 0x1 ADD SWAP1 PUSH1 0x20 ADD DUP1 DUP4 GT PUSH2 0xBAC JUMPI DUP3 SWAP1 SUB PUSH1 0x1F AND DUP3 ADD SWAP2 JUMPDEST POP POP POP POP POP SWAP1 DUP1 PUSH1 0x2 ADD SLOAD SWAP1 POP DUP4 JUMP JUMPDEST PUSH1 0x0 PUSH1 0x6 PUSH1 0x0 DUP4 PUSH20 0xFFFFFFFFFFFFFFFFFFFFFFFFFFFFFFFFFFFFFFFF AND PUSH20 0xFFFFFFFFFFFFFFFFFFFFFFFFFFFFFFFFFFFFFFFF AND DUP2 MSTORE PUSH1 0x20 ADD SWAP1 DUP2 MSTORE PUSH1 0x20 ADD PUSH1 0x0 KECCAK256 SWAP1 POP PUSH2 0xC2A DUP3 DUP3 PUSH1 0x5 ADD SLOAD PUSH2 0xC83 JUMP JUMPDEST POP POP JUMP JUMPDEST PUSH1 0x0 PUSH1 0x6 PUSH1 0x0 DUP4 PUSH20 0xFFFFFFFFFFFFFFFFFFFFFFFFFFFFFFFFFFFFFFFF AND PUSH20 0xFFFFFFFFFFFFFFFFFFFFFFFFFFFFFFFFFFFFFFFF AND DUP2 MSTORE PUSH1 0x20 ADD SWAP1 DUP2 MSTORE PUSH1 0x20 ADD PUSH1 0x0 KECCAK256 SWAP1 POP PUSH2 0xC7F DUP3 DUP3 PUSH1 0x4 ADD SLOAD PUSH2 0xC83 JUMP JUMPDEST POP POP JUMP JUMPDEST PUSH1 0x0 PUSH20 0xFFFFFFFFFFFFFFFFFFFFFFFFFFFFFFFFFFFFFFFF AND DUP3 PUSH20 0xFFFFFFFFFFFFFFFFFFFFFFFFFFFFFFFFFFFFFFFF AND SUB PUSH2 0xCF2 JUMPI PUSH1 0x40 MLOAD PUSH32 0x8C379A000000000000000000000000000000000000000000000000000000000 DUP2 MSTORE PUSH1 0x4 ADD PUSH2 0xCE9 SWAP1 PUSH2 0x18C8 JUMP JUMPDEST PUSH1 0x40 MLOAD DUP1 SWAP2 SUB SWAP1 REVERT JUMPDEST PUSH2 0xCFE PUSH1 0x0 DUP4 DUP4 PUSH2 0x12EE JUMP JUMPDEST DUP1 PUSH1 0x2 PUSH1 0x0 DUP3 DUP3 SLOAD PUSH2 0xD10 SWAP2 SWAP1 PUSH2 0x1774 JUMP JUMPDEST SWAP3 POP POP DUP2 SWAP1 SSTORE POP DUP1 PUSH1 0x0 DUP1 DUP5 PUSH20 0xFFFFFFFFFFFFFFFFFFFFFFFFFFFFFFFFFFFFFFFF AND PUSH20 0xFFFFFFFFFFFFFFFFFFFFFFFFFFFFFFFFFFFFFFFF AND DUP2 MSTORE PUSH1 0x20 ADD SWAP1 DUP2 MSTORE PUSH1 0x20 ADD PUSH1 0x0 KECCAK256 PUSH1 0x0 DUP3 DUP3 SLOAD ADD SWAP3 POP POP DUP2 SWAP1 SSTORE POP DUP2 PUSH20 0xFFFFFFFFFFFFFFFFFFFFFFFFFFFFFFFFFFFFFFFF AND PUSH1 0x0 PUSH20 0xFFFFFFFFFFFFFFFFFFFFFFFFFFFFFFFFFFFFFFFF AND PUSH32 0xDDF252AD1BE2C89B69C2B068FC378DAA952BA7F163C4A11628F55A4DF523B3EF DUP4 PUSH1 0x40 MLOAD PUSH2 0xDC1 SWAP2 SWAP1 PUSH2 0x1591 JUMP JUMPDEST PUSH1 0x40 MLOAD DUP1 SWAP2 SUB SWAP1 LOG3 PUSH2 0xDD5 PUSH1 0x0 DUP4 DUP4 PUSH2 0x12F3 JUMP JUMPDEST POP POP JUMP JUMPDEST PUSH1 0x0 CALLER SWAP1 POP SWAP1 JUMP JUMPDEST PUSH1 0x0 PUSH20 0xFFFFFFFFFFFFFFFFFFFFFFFFFFFFFFFFFFFFFFFF AND DUP4 PUSH20 0xFFFFFFFFFFFFFFFFFFFFFFFFFFFFFFFFFFFFFFFF AND SUB PUSH2 0xE50 JUMPI PUSH1 0x40 MLOAD PUSH32 0x8C379A000000000000000000000000000000000000000000000000000000000 DUP2 MSTORE PUSH1 0x4 ADD PUSH2 0xE47 SWAP1 PUSH2 0x195A JUMP JUMPDEST PUSH1 0x40 MLOAD DUP1 SWAP2 SUB SWAP1 REVERT JUMPDEST PUSH1 0x0 PUSH20 0xFFFFFFFFFFFFFFFFFFFFFFFFFFFFFFFFFFFFFFFF AND DUP3 PUSH20 0xFFFFFFFFFFFFFFFFFFFFFFFFFFFFFFFFFFFFFFFF AND SUB PUSH2 0xEBF JUMPI PUSH1 0x40 MLOAD PUSH32 0x8C379A000000000000000000000000000000000000000000000000000000000 DUP2 MSTORE PUSH1 0x4 ADD PUSH2 0xEB6 SWAP1 PUSH2 0x19EC JUMP JUMPDEST PUSH1 0x40 MLOAD DUP1 SWAP2 SUB SWAP1 REVERT JUMPDEST DUP1 PUSH1 0x1 PUSH1 0x0 DUP6 PUSH20 0xFFFFFFFFFFFFFFFFFFFFFFFFFFFFFFFFFFFFFFFF AND PUSH20 0xFFFFFFFFFFFFFFFFFFFFFFFFFFFFFFFFFFFFFFFF AND DUP2 MSTORE PUSH1 0x20 ADD SWAP1 DUP2 MSTORE PUSH1 0x20 ADD PUSH1 0x0 KECCAK256 PUSH1 0x0 DUP5 PUSH20 0xFFFFFFFFFFFFFFFFFFFFFFFFFFFFFFFFFFFFFFFF AND PUSH20 0xFFFFFFFFFFFFFFFFFFFFFFFFFFFFFFFFFFFFFFFF AND DUP2 MSTORE PUSH1 0x20 ADD SWAP1 DUP2 MSTORE PUSH1 0x20 ADD PUSH1 0x0 KECCAK256 DUP2 SWAP1 SSTORE POP DUP2 PUSH20 0xFFFFFFFFFFFFFFFFFFFFFFFFFFFFFFFFFFFFFFFF AND DUP4 PUSH20 0xFFFFFFFFFFFFFFFFFFFFFFFFFFFFFFFFFFFFFFFF AND PUSH32 0x8C5BE1E5EBEC7D5BD14F71427D1E84F3DD0314C0F7B2291E5B200AC8C7C3B925 DUP4 PUSH1 0x40 MLOAD PUSH2 0xF9D SWAP2 SWAP1 PUSH2 0x1591 JUMP JUMPDEST PUSH1 0x40 MLOAD DUP1 SWAP2 SUB SWAP1 LOG3 POP POP POP JUMP JUMPDEST PUSH1 0x0 PUSH2 0xFB6 DUP5 DUP5 PUSH2 0xA18 JUMP JUMPDEST SWAP1 POP PUSH32 0xFFFFFFFFFFFFFFFFFFFFFFFFFFFFFFFFFFFFFFFFFFFFFFFFFFFFFFFFFFFFFFFF DUP2 EQ PUSH2 0x1030 JUMPI DUP2 DUP2 LT ISZERO PUSH2 0x1022 JUMPI PUSH1 0x40 MLOAD PUSH32 0x8C379A000000000000000000000000000000000000000000000000000000000 DUP2 MSTORE PUSH1 0x4 ADD PUSH2 0x1019 SWAP1 PUSH2 0x1A58 JUMP JUMPDEST PUSH1 0x40 MLOAD DUP1 SWAP2 SUB SWAP1 REVERT JUMPDEST PUSH2 0x102F DUP5 DUP5 DUP5 DUP5 SUB PUSH2 0xDE1 JUMP JUMPDEST JUMPDEST POP POP POP POP JUMP JUMPDEST PUSH1 0x0 PUSH20 0xFFFFFFFFFFFFFFFFFFFFFFFFFFFFFFFFFFFFFFFF AND DUP4 PUSH20 0xFFFFFFFFFFFFFFFFFFFFFFFFFFFFFFFFFFFFFFFF AND SUB PUSH2 0x10A5 JUMPI PUSH1 0x40 MLOAD PUSH32 0x8C379A000000000000000000000000000000000000000000000000000000000 DUP2 MSTORE PUSH1 0x4 ADD PUSH2 0x109C SWAP1 PUSH2 0x1AEA JUMP JUMPDEST PUSH1 0x40 MLOAD DUP1 SWAP2 SUB SWAP1 REVERT JUMPDEST PUSH1 0x0 PUSH20 0xFFFFFFFFFFFFFFFFFFFFFFFFFFFFFFFFFFFFFFFF AND DUP3 PUSH20 0xFFFFFFFFFFFFFFFFFFFFFFFFFFFFFFFFFFFFFFFF AND SUB PUSH2 0x1114 JUMPI PUSH1 0x40 MLOAD PUSH32 0x8C379A000000000000000000000000000000000000000000000000000000000 DUP2 MSTORE PUSH1 0x4 ADD PUSH2 0x110B SWAP1 PUSH2 0x1B7C JUMP JUMPDEST PUSH1 0x40 MLOAD DUP1 SWAP2 SUB SWAP1 REVERT JUMPDEST PUSH2 0x111F DUP4 DUP4 DUP4 PUSH2 0x12EE JUMP JUMPDEST PUSH1 0x0 DUP1 PUSH1 0x0 DUP6 PUSH20 0xFFFFFFFFFFFFFFFFFFFFFFFFFFFFFFFFFFFFFFFF AND PUSH20 0xFFFFFFFFFFFFFFFFFFFFFFFFFFFFFFFFFFFFFFFF AND DUP2 MSTORE PUSH1 0x20 ADD SWAP1 DUP2 MSTORE PUSH1 0x20 ADD PUSH1 0x0 KECCAK256 SLOAD SWAP1 POP DUP2 DUP2 LT ISZERO PUSH2 0x11A5 JUMPI PUSH1 0x40 MLOAD PUSH32 0x8C379A000000000000000000000000000000000000000000000000000000000 DUP2 MSTORE PUSH1 0x4 ADD PUSH2 0x119C SWAP1 PUSH2 0x1C0E JUMP JUMPDEST PUSH1 0x40 MLOAD DUP1 SWAP2 SUB SWAP1 REVERT JUMPDEST DUP2 DUP2 SUB PUSH1 0x0 DUP1 DUP7 PUSH20 0xFFFFFFFFFFFFFFFFFFFFFFFFFFFFFFFFFFFFFFFF AND PUSH20 0xFFFFFFFFFFFFFFFFFFFFFFFFFFFFFFFFFFFFFFFF AND DUP2 MSTORE PUSH1 0x20 ADD SWAP1 DUP2 MSTORE PUSH1 0x20 ADD PUSH1 0x0 KECCAK256 DUP2 SWAP1 SSTORE POP DUP2 PUSH1 0x0 DUP1 DUP6 PUSH20 0xFFFFFFFFFFFFFFFFFFFFFFFFFFFFFFFFFFFFFFFF AND PUSH20 0xFFFFFFFFFFFFFFFFFFFFFFFFFFFFFFFFFFFFFFFF AND DUP2 MSTORE PUSH1 0x20 ADD SWAP1 DUP2 MSTORE PUSH1 0x20 ADD PUSH1 0x0 KECCAK256 PUSH1 0x0 DUP3 DUP3 SLOAD ADD SWAP3 POP POP DUP2 SWAP1 SSTORE POP DUP3 PUSH20 0xFFFFFFFFFFFFFFFFFFFFFFFFFFFFFFFFFFFFFFFF AND DUP5 PUSH20 0xFFFFFFFFFFFFFFFFFFFFFFFFFFFFFFFFFFFFFFFF AND PUSH32 0xDDF252AD1BE2C89B69C2B068FC378DAA952BA7F163C4A11628F55A4DF523B3EF DUP5 PUSH1 0x40 MLOAD PUSH2 0x1293 SWAP2 SWAP1 PUSH2 0x1591 JUMP JUMPDEST PUSH1 0x40 MLOAD DUP1 SWAP2 SUB SWAP1 LOG3 PUSH2 0x12A6 DUP5 DUP5 DUP5 PUSH2 0x12F3 JUMP JUMPDEST POP POP POP POP JUMP JUMPDEST PUSH1 0x0 DUP2 DUP4 PUSH2 0x12BA SWAP2 SWAP1 PUSH2 0x17A8 JUMP JUMPDEST SWAP1 POP SWAP3 SWAP2 POP POP JUMP JUMPDEST PUSH1 0x0 DUP2 DUP4 PUSH2 0x12D0 SWAP2 SWAP1 PUSH2 0x1C5D JUMP JUMPDEST SWAP1 POP SWAP3 SWAP2 POP POP JUMP JUMPDEST PUSH1 0x0 DUP2 DUP4 PUSH2 0x12E6 SWAP2 SWAP1 PUSH2 0x1774 JUMP JUMPDEST SWAP1 POP SWAP3 SWAP2 POP POP JUMP JUMPDEST POP POP POP JUMP JUMPDEST POP POP POP JUMP JUMPDEST PUSH1 0x0 DUP2 MLOAD SWAP1 POP SWAP2 SWAP1 POP JUMP JUMPDEST PUSH1 0x0 DUP3 DUP3 MSTORE PUSH1 0x20 DUP3 ADD SWAP1 POP SWAP3 SWAP2 POP POP JUMP JUMPDEST PUSH1 0x0 JUMPDEST DUP4 DUP2 LT ISZERO PUSH2 0x1332 JUMPI DUP1 DUP3 ADD MLOAD DUP2 DUP5 ADD MSTORE PUSH1 0x20 DUP2 ADD SWAP1 POP PUSH2 0x1317 JUMP JUMPDEST PUSH1 0x0 DUP5 DUP5 ADD MSTORE POP POP POP POP JUMP JUMPDEST PUSH1 0x0 PUSH1 0x1F NOT PUSH1 0x1F DUP4 ADD AND SWAP1 POP SWAP2 SWAP1 POP JUMP JUMPDEST PUSH1 0x0 PUSH2 0x135A DUP3 PUSH2 0x12F8 JUMP JUMPDEST PUSH2 0x1364 DUP2 DUP6 PUSH2 0x1303 JUMP JUMPDEST SWAP4 POP PUSH2 0x1374 DUP2 DUP6 PUSH1 0x20 DUP7 ADD PUSH2 0x1314 JUMP JUMPDEST PUSH2 0x137D DUP2 PUSH2 0x133E JUMP JUMPDEST DUP5 ADD SWAP2 POP POP SWAP3 SWAP2 POP POP JUMP JUMPDEST PUSH1 0x0 PUSH1 0x20 DUP3 ADD SWAP1 POP DUP2 DUP2 SUB PUSH1 0x0 DUP4 ADD MSTORE PUSH2 0x13A2 DUP2 DUP5 PUSH2 0x134F JUMP JUMPDEST SWAP1 POP SWAP3 SWAP2 POP POP JUMP JUMPDEST PUSH1 0x0 DUP1 REVERT JUMPDEST PUSH1 0x0 PUSH20 0xFFFFFFFFFFFFFFFFFFFFFFFFFFFFFFFFFFFFFFFF DUP3 AND SWAP1 POP SWAP2 SWAP1 POP JUMP JUMPDEST PUSH1 0x0 PUSH2 0x13DA DUP3 PUSH2 0x13AF JUMP JUMPDEST SWAP1 POP SWAP2 SWAP1 POP JUMP JUMPDEST PUSH2 0x13EA DUP2 PUSH2 0x13CF JUMP JUMPDEST DUP2 EQ PUSH2 0x13F5 JUMPI PUSH1 0x0 DUP1 REVERT JUMPDEST POP JUMP JUMPDEST PUSH1 0x0 DUP2 CALLDATALOAD SWAP1 POP PUSH2 0x1407 DUP2 PUSH2 0x13E1 JUMP JUMPDEST SWAP3 SWAP2 POP POP JUMP JUMPDEST PUSH1 0x0 PUSH1 0x20 DUP3 DUP5 SUB SLT ISZERO PUSH2 0x1423 JUMPI PUSH2 0x1422 PUSH2 0x13AA JUMP JUMPDEST JUMPDEST PUSH1 0x0 PUSH2 0x1431 DUP5 DUP3 DUP6 ADD PUSH2 0x13F8 JUMP JUMPDEST SWAP2 POP POP SWAP3 SWAP2 POP POP JUMP JUMPDEST PUSH1 0x0 DUP2 SWAP1 POP SWAP2 SWAP1 POP JUMP JUMPDEST PUSH2 0x144D DUP2 PUSH2 0x143A JUMP JUMPDEST DUP2 EQ PUSH2 0x1458 JUMPI PUSH1 0x0 DUP1 REVERT JUMPDEST POP JUMP JUMPDEST PUSH1 0x0 DUP2 CALLDATALOAD SWAP1 POP PUSH2 0x146A DUP2 PUSH2 0x1444 JUMP JUMPDEST SWAP3 SWAP2 POP POP JUMP JUMPDEST PUSH1 0x0 DUP1 PUSH1 0x40 DUP4 DUP6 SUB SLT ISZERO PUSH2 0x1487 JUMPI PUSH2 0x1486 PUSH2 0x13AA JUMP JUMPDEST JUMPDEST PUSH1 0x0 PUSH2 0x1495 DUP6 DUP3 DUP7 ADD PUSH2 0x13F8 JUMP JUMPDEST SWAP3 POP POP PUSH1 0x20 PUSH2 0x14A6 DUP6 DUP3 DUP7 ADD PUSH2 0x145B JUMP JUMPDEST SWAP2 POP POP SWAP3 POP SWAP3 SWAP1 POP JUMP JUMPDEST PUSH1 0x0 DUP2 ISZERO ISZERO SWAP1 POP SWAP2 SWAP1 POP JUMP JUMPDEST PUSH2 0x14C5 DUP2 PUSH2 0x14B0 JUMP JUMPDEST DUP3 MSTORE POP POP JUMP JUMPDEST PUSH1 0x0 PUSH1 0x20 DUP3 ADD SWAP1 POP PUSH2 0x14E0 PUSH1 0x0 DUP4 ADD DUP5 PUSH2 0x14BC JUMP JUMPDEST SWAP3 SWAP2 POP POP JUMP JUMPDEST PUSH2 0x14EF DUP2 PUSH2 0x143A JUMP JUMPDEST DUP3 MSTORE POP POP JUMP JUMPDEST PUSH1 0x0 PUSH2 0x140 DUP3 ADD SWAP1 POP PUSH2 0x150B PUSH1 0x0 DUP4 ADD DUP14 PUSH2 0x14E6 JUMP JUMPDEST PUSH2 0x1518 PUSH1 0x20 DUP4 ADD DUP13 PUSH2 0x14E6 JUMP JUMPDEST PUSH2 0x1525 PUSH1 0x40 DUP4 ADD DUP12 PUSH2 0x14E6 JUMP JUMPDEST PUSH2 0x1532 PUSH1 0x60 DUP4 ADD DUP11 PUSH2 0x14E6 JUMP JUMPDEST PUSH2 0x153F PUSH1 0x80 DUP4 ADD DUP10 PUSH2 0x14E6 JUMP JUMPDEST PUSH2 0x154C PUSH1 0xA0 DUP4 ADD DUP9 PUSH2 0x14E6 JUMP JUMPDEST PUSH2 0x1559 PUSH1 0xC0 DUP4 ADD DUP8 PUSH2 0x14E6 JUMP JUMPDEST PUSH2 0x1566 PUSH1 0xE0 DUP4 ADD DUP7 PUSH2 0x14E6 JUMP JUMPDEST PUSH2 0x1574 PUSH2 0x100 DUP4 ADD DUP6 PUSH2 0x14E6 JUMP JUMPDEST PUSH2 0x1582 PUSH2 0x120 DUP4 ADD DUP5 PUSH2 0x14E6 JUMP JUMPDEST SWAP12 SWAP11 POP POP POP POP POP POP POP POP POP POP POP JUMP JUMPDEST PUSH1 0x0 PUSH1 0x20 DUP3 ADD SWAP1 POP PUSH2 0x15A6 PUSH1 0x0 DUP4 ADD DUP5 PUSH2 0x14E6 JUMP JUMPDEST SWAP3 SWAP2 POP POP JUMP JUMPDEST PUSH1 0x0 DUP1 PUSH1 0x0 PUSH1 0x60 DUP5 DUP7 SUB SLT ISZERO PUSH2 0x15C5 JUMPI PUSH2 0x15C4 PUSH2 0x13AA JUMP JUMPDEST JUMPDEST PUSH1 0x0 PUSH2 0x15D3 DUP7 DUP3 DUP8 ADD PUSH2 0x13F8 JUMP JUMPDEST SWAP4 POP POP PUSH1 0x20 PUSH2 0x15E4 DUP7 DUP3 DUP8 ADD PUSH2 0x13F8 JUMP JUMPDEST SWAP3 POP POP PUSH1 0x40 PUSH2 0x15F5 DUP7 DUP3 DUP8 ADD PUSH2 0x145B JUMP JUMPDEST SWAP2 POP POP SWAP3 POP SWAP3 POP SWAP3 JUMP JUMPDEST PUSH1 0x0 PUSH1 0xFF DUP3 AND SWAP1 POP SWAP2 SWAP1 POP JUMP JUMPDEST PUSH2 0x1615 DUP2 PUSH2 0x15FF JUMP JUMPDEST DUP3 MSTORE POP POP JUMP JUMPDEST PUSH1 0x0 PUSH1 0x20 DUP3 ADD SWAP1 POP PUSH2 0x1630 PUSH1 0x0 DUP4 ADD DUP5 PUSH2 0x160C JUMP JUMPDEST SWAP3 SWAP2 POP POP JUMP JUMPDEST PUSH2 0x163F DUP2 PUSH2 0x13CF JUMP JUMPDEST DUP3 MSTORE POP POP JUMP JUMPDEST PUSH1 0x0 PUSH1 0x20 DUP3 ADD SWAP1 POP PUSH2 0x165A PUSH1 0x0 DUP4 ADD DUP5 PUSH2 0x1636 JUMP JUMPDEST SWAP3 SWAP2 POP POP JUMP JUMPDEST PUSH1 0x0 DUP1 PUSH1 0x40 DUP4 DUP6 SUB SLT ISZERO PUSH2 0x1677 JUMPI PUSH2 0x1676 PUSH2 0x13AA JUMP JUMPDEST JUMPDEST PUSH1 0x0 PUSH2 0x1685 DUP6 DUP3 DUP7 ADD PUSH2 0x13F8 JUMP JUMPDEST SWAP3 POP POP PUSH1 0x20 PUSH2 0x1696 DUP6 DUP3 DUP7 ADD PUSH2 0x13F8 JUMP JUMPDEST SWAP2 POP POP SWAP3 POP SWAP3 SWAP1 POP JUMP JUMPDEST PUSH1 0x0 PUSH1 0x60 DUP3 ADD SWAP1 POP DUP2 DUP2 SUB PUSH1 0x0 DUP4 ADD MSTORE PUSH2 0x16BA DUP2 DUP7 PUSH2 0x134F JUMP JUMPDEST SWAP1 POP DUP2 DUP2 SUB PUSH1 0x20 DUP4 ADD MSTORE PUSH2 0x16CE DUP2 DUP6 PUSH2 0x134F JUMP JUMPDEST SWAP1 POP PUSH2 0x16DD PUSH1 0x40 DUP4 ADD DUP5 PUSH2 0x14E6 JUMP JUMPDEST SWAP5 SWAP4 POP POP POP POP JUMP JUMPDEST PUSH32 0x4E487B7100000000000000000000000000000000000000000000000000000000 PUSH1 0x0 MSTORE PUSH1 0x22 PUSH1 0x4 MSTORE PUSH1 0x24 PUSH1 0x0 REVERT JUMPDEST PUSH1 0x0 PUSH1 0x2 DUP3 DIV SWAP1 POP PUSH1 0x1 DUP3 AND DUP1 PUSH2 0x172C JUMPI PUSH1 0x7F DUP3 AND SWAP2 POP JUMPDEST PUSH1 0x20 DUP3 LT DUP2 SUB PUSH2 0x173F JUMPI PUSH2 0x173E PUSH2 0x16E5 JUMP JUMPDEST JUMPDEST POP SWAP2 SWAP1 POP JUMP JUMPDEST PUSH32 0x4E487B7100000000000000000000000000000000000000000000000000000000 PUSH1 0x0 MSTORE PUSH1 0x11 PUSH1 0x4 MSTORE PUSH1 0x24 PUSH1 0x0 REVERT JUMPDEST PUSH1 0x0 PUSH2 0x177F DUP3 PUSH2 0x143A JUMP JUMPDEST SWAP2 POP PUSH2 0x178A DUP4 PUSH2 0x143A JUMP JUMPDEST SWAP3 POP DUP3 DUP3 ADD SWAP1 POP DUP1 DUP3 GT ISZERO PUSH2 0x17A2 JUMPI PUSH2 0x17A1 PUSH2 0x1745 JUMP JUMPDEST JUMPDEST SWAP3 SWAP2 POP POP JUMP JUMPDEST PUSH1 0x0 PUSH2 0x17B3 DUP3 PUSH2 0x143A JUMP JUMPDEST SWAP2 POP PUSH2 0x17BE DUP4 PUSH2 0x143A JUMP JUMPDEST SWAP3 POP DUP3 DUP3 MUL PUSH2 0x17CC DUP2 PUSH2 0x143A JUMP JUMPDEST SWAP2 POP DUP3 DUP3 DIV DUP5 EQ DUP4 ISZERO OR PUSH2 0x17E3 JUMPI PUSH2 0x17E2 PUSH2 0x1745 JUMP JUMPDEST JUMPDEST POP SWAP3 SWAP2 POP POP JUMP JUMPDEST PUSH32 0x45524332303A2064656372656173656420616C6C6F77616E63652062656C6F77 PUSH1 0x0 DUP3 ADD MSTORE PUSH32 0x207A65726F000000000000000000000000000000000000000000000000000000 PUSH1 0x20 DUP3 ADD MSTORE POP JUMP JUMPDEST PUSH1 0x0 PUSH2 0x1846 PUSH1 0x25 DUP4 PUSH2 0x1303 JUMP JUMPDEST SWAP2 POP PUSH2 0x1851 DUP3 PUSH2 0x17EA JUMP JUMPDEST PUSH1 0x40 DUP3 ADD SWAP1 POP SWAP2 SWAP1 POP JUMP JUMPDEST PUSH1 0x0 PUSH1 0x20 DUP3 ADD SWAP1 POP DUP2 DUP2 SUB PUSH1 0x0 DUP4 ADD MSTORE PUSH2 0x1875 DUP2 PUSH2 0x1839 JUMP JUMPDEST SWAP1 POP SWAP2 SWAP1 POP JUMP JUMPDEST PUSH32 0x45524332303A206D696E7420746F20746865207A65726F206164647265737300 PUSH1 0x0 DUP3 ADD MSTORE POP JUMP JUMPDEST PUSH1 0x0 PUSH2 0x18B2 PUSH1 0x1F DUP4 PUSH2 0x1303 JUMP JUMPDEST SWAP2 POP PUSH2 0x18BD DUP3 PUSH2 0x187C JUMP JUMPDEST PUSH1 0x20 DUP3 ADD SWAP1 POP SWAP2 SWAP1 POP JUMP JUMPDEST PUSH1 0x0 PUSH1 0x20 DUP3 ADD SWAP1 POP DUP2 DUP2 SUB PUSH1 0x0 DUP4 ADD MSTORE PUSH2 0x18E1 DUP2 PUSH2 0x18A5 JUMP JUMPDEST SWAP1 POP SWAP2 SWAP1 POP JUMP JUMPDEST PUSH32 0x45524332303A20617070726F76652066726F6D20746865207A65726F20616464 PUSH1 0x0 DUP3 ADD MSTORE PUSH32 0x7265737300000000000000000000000000000000000000000000000000000000 PUSH1 0x20 DUP3 ADD MSTORE POP JUMP JUMPDEST PUSH1 0x0 PUSH2 0x1944 PUSH1 0x24 DUP4 PUSH2 0x1303 JUMP JUMPDEST SWAP2 POP PUSH2 0x194F DUP3 PUSH2 0x18E8 JUMP JUMPDEST PUSH1 0x40 DUP3 ADD SWAP1 POP SWAP2 SWAP1 POP JUMP JUMPDEST PUSH1 0x0 PUSH1 0x20 DUP3 ADD SWAP1 POP DUP2 DUP2 SUB PUSH1 0x0 DUP4 ADD MSTORE PUSH2 0x1973 DUP2 PUSH2 0x1937 JUMP JUMPDEST SWAP1 POP SWAP2 SWAP1 POP JUMP JUMPDEST PUSH32 0x45524332303A20617070726F766520746F20746865207A65726F206164647265 PUSH1 0x0 DUP3 ADD MSTORE PUSH32 0x7373000000000000000000000000000000000000000000000000000000000000 PUSH1 0x20 DUP3 ADD MSTORE POP JUMP JUMPDEST PUSH1 0x0 PUSH2 0x19D6 PUSH1 0x22 DUP4 PUSH2 0x1303 JUMP JUMPDEST SWAP2 POP PUSH2 0x19E1 DUP3 PUSH2 0x197A JUMP JUMPDEST PUSH1 0x40 DUP3 ADD SWAP1 POP SWAP2 SWAP1 POP JUMP JUMPDEST PUSH1 0x0 PUSH1 0x20 DUP3 ADD SWAP1 POP DUP2 DUP2 SUB PUSH1 0x0 DUP4 ADD MSTORE PUSH2 0x1A05 DUP2 PUSH2 0x19C9 JUMP JUMPDEST SWAP1 POP SWAP2 SWAP1 POP JUMP JUMPDEST PUSH32 0x45524332303A20696E73756666696369656E7420616C6C6F77616E6365000000 PUSH1 0x0 DUP3 ADD MSTORE POP JUMP JUMPDEST PUSH1 0x0 PUSH2 0x1A42 PUSH1 0x1D DUP4 PUSH2 0x1303 JUMP JUMPDEST SWAP2 POP PUSH2 0x1A4D DUP3 PUSH2 0x1A0C JUMP JUMPDEST PUSH1 0x20 DUP3 ADD SWAP1 POP SWAP2 SWAP1 POP JUMP JUMPDEST PUSH1 0x0 PUSH1 0x20 DUP3 ADD SWAP1 POP DUP2 DUP2 SUB PUSH1 0x0 DUP4 ADD MSTORE PUSH2 0x1A71 DUP2 PUSH2 0x1A35 JUMP JUMPDEST SWAP1 POP SWAP2 SWAP1 POP JUMP JUMPDEST PUSH32 0x45524332303A207472616E736665722066726F6D20746865207A65726F206164 PUSH1 0x0 DUP3 ADD MSTORE PUSH32 0x6472657373000000000000000000000000000000000000000000000000000000 PUSH1 0x20 DUP3 ADD MSTORE POP JUMP JUMPDEST PUSH1 0x0 PUSH2 0x1AD4 PUSH1 0x25 DUP4 PUSH2 0x1303 JUMP JUMPDEST SWAP2 POP PUSH2 0x1ADF DUP3 PUSH2 0x1A78 JUMP JUMPDEST PUSH1 0x40 DUP3 ADD SWAP1 POP SWAP2 SWAP1 POP JUMP JUMPDEST PUSH1 0x0 PUSH1 0x20 DUP3 ADD SWAP1 POP DUP2 DUP2 SUB PUSH1 0x0 DUP4 ADD MSTORE PUSH2 0x1B03 DUP2 PUSH2 0x1AC7 JUMP JUMPDEST SWAP1 POP SWAP2 SWAP1 POP JUMP JUMPDEST PUSH32 0x45524332303A207472616E7366657220746F20746865207A65726F2061646472 PUSH1 0x0 DUP3 ADD MSTORE PUSH32 0x6573730000000000000000000000000000000000000000000000000000000000 PUSH1 0x20 DUP3 ADD MSTORE POP JUMP JUMPDEST PUSH1 0x0 PUSH2 0x1B66 PUSH1 0x23 DUP4 PUSH2 0x1303 JUMP JUMPDEST SWAP2 POP PUSH2 0x1B71 DUP3 PUSH2 0x1B0A JUMP JUMPDEST PUSH1 0x40 DUP3 ADD SWAP1 POP SWAP2 SWAP1 POP JUMP JUMPDEST PUSH1 0x0 PUSH1 0x20 DUP3 ADD SWAP1 POP DUP2 DUP2 SUB PUSH1 0x0 DUP4 ADD MSTORE PUSH2 0x1B95 DUP2 PUSH2 0x1B59 JUMP JUMPDEST SWAP1 POP SWAP2 SWAP1 POP JUMP JUMPDEST PUSH32 0x45524332303A207472616E7366657220616D6F756E7420657863656564732062 PUSH1 0x0 DUP3 ADD MSTORE PUSH32 0x616C616E63650000000000000000000000000000000000000000000000000000 PUSH1 0x20 DUP3 ADD MSTORE POP JUMP JUMPDEST PUSH1 0x0 PUSH2 0x1BF8 PUSH1 0x26 DUP4 PUSH2 0x1303 JUMP JUMPDEST SWAP2 POP PUSH2 0x1C03 DUP3 PUSH2 0x1B9C JUMP JUMPDEST PUSH1 0x40 DUP3 ADD SWAP1 POP SWAP2 SWAP1 POP JUMP JUMPDEST PUSH1 0x0 PUSH1 0x20 DUP3 ADD SWAP1 POP DUP2 DUP2 SUB PUSH1 0x0 DUP4 ADD MSTORE PUSH2 0x1C27 DUP2 PUSH2 0x1BEB JUMP JUMPDEST SWAP1 POP SWAP2 SWAP1 POP JUMP JUMPDEST PUSH32 0x4E487B7100000000000000000000000000000000000000000000000000000000 PUSH1 0x0 MSTORE PUSH1 0x12 PUSH1 0x4 MSTORE PUSH1 0x24 PUSH1 0x0 REVERT JUMPDEST PUSH1 0x0 PUSH2 0x1C68 DUP3 PUSH2 0x143A JUMP JUMPDEST SWAP2 POP PUSH2 0x1C73 DUP4 PUSH2 0x143A JUMP JUMPDEST SWAP3 POP DUP3 PUSH2 0x1C83 JUMPI PUSH2 0x1C82 PUSH2 0x1C2E JUMP JUMPDEST JUMPDEST DUP3 DUP3 DIV SWAP1 POP SWAP3 SWAP2 POP POP JUMP INVALID LOG2 PUSH5 0x6970667358 0x22 SLT KECCAK256 BASEFEE LOG4 0xA9 0xE3 SWAP9 0xDB 0xCC SGT SMOD CALLCODE POP PUSH4 0x87B51C96 PUSH14 0x993B1DA67EFDF1F103D2ED780D00 PUSH20 0x64736F6C63430008120033000000000000000000 "
				},
				"gasEstimates": {
					"creation": {
						"codeDepositCost": "1472800",
						"executionCost": "infinite",
						"totalCost": "infinite"
					},
					"external": {
						"DecideNetRentmonth(address)": "infinite",
						"DecideNetRentyear(address)": "infinite",
						"DecideTokenprice(address)": "infinite",
						"DecideTotalInvestment(address)": "infinite",
						"PropertykiDetails(address)": "infinite",
						"PropertykiFinances(address)": "infinite",
						"allowance(address,address)": "infinite",
						"approve(address,uint256)": "infinite",
						"balanceOf(address)": "2974",
						"decimals()": "388",
						"decreaseAllowance(address,uint256)": "infinite",
						"increaseAllowance(address,uint256)": "infinite",
						"minttheTokenInvestment(address)": "infinite",
						"minttheTokenRentpermonth(address)": "infinite",
						"minttheTokenRentperyear(address)": "infinite",
						"minttheTokenprice(address)": "infinite",
						"name()": "infinite",
						"owner()": "2559",
						"symbol()": "infinite",
						"totalSupply()": "2549",
						"transfer(address,uint256)": "infinite",
						"transferFrom(address,address,uint256)": "infinite"
					}
				},
				"methodIdentifiers": {
					"DecideNetRentmonth(address)": "575e6cec",
					"DecideNetRentyear(address)": "44ba41db",
					"DecideTokenprice(address)": "976f5f61",
					"DecideTotalInvestment(address)": "88e20abb",
					"PropertykiDetails(address)": "e01fe4c3",
					"PropertykiFinances(address)": "0df9c426",
					"allowance(address,address)": "dd62ed3e",
					"approve(address,uint256)": "095ea7b3",
					"balanceOf(address)": "70a08231",
					"decimals()": "313ce567",
					"decreaseAllowance(address,uint256)": "a457c2d7",
					"increaseAllowance(address,uint256)": "39509351",
					"minttheTokenInvestment(address)": "f857f752",
					"minttheTokenRentpermonth(address)": "fcf8f422",
					"minttheTokenRentperyear(address)": "beee50f7",
					"minttheTokenprice(address)": "089a6115",
					"name()": "06fdde03",
					"owner()": "8da5cb5b",
					"symbol()": "95d89b41",
					"totalSupply()": "18160ddd",
					"transfer(address,uint256)": "a9059cbb",
					"transferFrom(address,address,uint256)": "23b872dd"
				}
			},
			"storageLayout": {
				"storage": [
					{
						"astId": 15,
						"contract": "contract git.sol:RealEstate",
						"label": "_balances",
						"offset": 0,
						"slot": "0",
						"type": "t_mapping(t_address,t_uint256)"
					},
					{
						"astId": 21,
						"contract": "contract git.sol:RealEstate",
						"label": "_allowances",
						"offset": 0,
						"slot": "1",
						"type": "t_mapping(t_address,t_mapping(t_address,t_uint256))"
					},
					{
						"astId": 23,
						"contract": "contract git.sol:RealEstate",
						"label": "_totalSupply",
						"offset": 0,
						"slot": "2",
						"type": "t_uint256"
					},
					{
						"astId": 25,
						"contract": "contract git.sol:RealEstate",
						"label": "_name",
						"offset": 0,
						"slot": "3",
						"type": "t_string_storage"
					},
					{
						"astId": 27,
						"contract": "contract git.sol:RealEstate",
						"label": "_symbol",
						"offset": 0,
						"slot": "4",
						"type": "t_string_storage"
					},
					{
						"astId": 2263,
						"contract": "contract git.sol:RealEstate",
						"label": "owner",
						"offset": 0,
						"slot": "5",
						"type": "t_address"
					},
					{
						"astId": 2268,
						"contract": "contract git.sol:RealEstate",
						"label": "PropertykiFinances",
						"offset": 0,
						"slot": "6",
						"type": "t_mapping(t_address,t_struct(PropertyFinances)2254_storage)"
					},
					{
						"astId": 2273,
						"contract": "contract git.sol:RealEstate",
						"label": "PropertykiDetails",
						"offset": 0,
						"slot": "7",
						"type": "t_mapping(t_address,t_struct(PropertyDetails)2261_storage)"
					}
				],
				"types": {
					"t_address": {
						"encoding": "inplace",
						"label": "address",
						"numberOfBytes": "20"
					},
					"t_mapping(t_address,t_mapping(t_address,t_uint256))": {
						"encoding": "mapping",
						"key": "t_address",
						"label": "mapping(address => mapping(address => uint256))",
						"numberOfBytes": "32",
						"value": "t_mapping(t_address,t_uint256)"
					},
					"t_mapping(t_address,t_struct(PropertyDetails)2261_storage)": {
						"encoding": "mapping",
						"key": "t_address",
						"label": "mapping(address => struct RealEstate.PropertyDetails)",
						"numberOfBytes": "32",
						"value": "t_struct(PropertyDetails)2261_storage"
					},
					"t_mapping(t_address,t_struct(PropertyFinances)2254_storage)": {
						"encoding": "mapping",
						"key": "t_address",
						"label": "mapping(address => struct RealEstate.PropertyFinances)",
						"numberOfBytes": "32",
						"value": "t_struct(PropertyFinances)2254_storage"
					},
					"t_mapping(t_address,t_uint256)": {
						"encoding": "mapping",
						"key": "t_address",
						"label": "mapping(address => uint256)",
						"numberOfBytes": "32",
						"value": "t_uint256"
					},
					"t_string_storage": {
						"encoding": "bytes",
						"label": "string",
						"numberOfBytes": "32"
					},
					"t_struct(PropertyDetails)2261_storage": {
						"encoding": "inplace",
						"label": "struct RealEstate.PropertyDetails",
						"members": [
							{
								"astId": 2256,
								"contract": "contract git.sol:RealEstate",
								"label": "Fulladress",
								"offset": 0,
								"slot": "0",
								"type": "t_string_storage"
							},
							{
								"astId": 2258,
								"contract": "contract git.sol:RealEstate",
								"label": "PropertyManager",
								"offset": 0,
								"slot": "1",
								"type": "t_string_storage"
							},
							{
								"astId": 2260,
								"contract": "contract git.sol:RealEstate",
								"label": "OfferingPercent",
								"offset": 0,
								"slot": "2",
								"type": "t_uint256"
							}
						],
						"numberOfBytes": "96"
					},
					"t_struct(PropertyFinances)2254_storage": {
						"encoding": "inplace",
						"label": "struct RealEstate.PropertyFinances",
						"members": [
							{
								"astId": 2235,
								"contract": "contract git.sol:RealEstate",
								"label": "Tokenprice",
								"offset": 0,
								"slot": "0",
								"type": "t_uint256"
							},
							{
								"astId": 2237,
								"contract": "contract git.sol:RealEstate",
								"label": "TokensNumbers",
								"offset": 0,
								"slot": "1",
								"type": "t_uint256"
							},
							{
								"astId": 2239,
								"contract": "contract git.sol:RealEstate",
								"label": "MonthlyCosts",
								"offset": 0,
								"slot": "2",
								"type": "t_uint256"
							},
							{
								"astId": 2241,
								"contract": "contract git.sol:RealEstate",
								"label": "NetRentyear",
								"offset": 0,
								"slot": "3",
								"type": "t_uint256"
							},
							{
								"astId": 2243,
								"contract": "contract git.sol:RealEstate",
								"label": "NetRentmonth",
								"offset": 0,
								"slot": "4",
								"type": "t_uint256"
							},
							{
								"astId": 2245,
								"contract": "contract git.sol:RealEstate",
								"label": "TotalInvestment",
								"offset": 0,
								"slot": "5",
								"type": "t_uint256"
							},
							{
								"astId": 2247,
								"contract": "contract git.sol:RealEstate",
								"label": "Interiorsize",
								"offset": 0,
								"slot": "6",
								"type": "t_uint256"
							},
							{
								"astId": 2249,
								"contract": "contract git.sol:RealEstate",
								"label": "Bedroom",
								"offset": 0,
								"slot": "7",
								"type": "t_uint256"
							},
							{
								"astId": 2251,
								"contract": "contract git.sol:RealEstate",
								"label": "Bathroom",
								"offset": 0,
								"slot": "8",
								"type": "t_uint256"
							},
							{
								"astId": 2253,
								"contract": "contract git.sol:RealEstate",
								"label": "LotSizeinsqft",
								"offset": 0,
								"slot": "9",
								"type": "t_uint256"
							}
						],
						"numberOfBytes": "320"
					},
					"t_uint256": {
						"encoding": "inplace",
						"label": "uint256",
						"numberOfBytes": "32"
					}
				}
			},
			"userdoc": {
				"kind": "user",
				"methods": {},
				"version": 1
			}
		}
	}
}