{
	"mapping add.sol": {
		"RealEstate": {
			"abi": [
				{
					"inputs": [],
					"stateMutability": "nonpayable",
					"type": "constructor"
				},
				{
					"anonymous": false,
					"inputs": [
						{
							"indexed": true,
							"internalType": "address",
							"name": "owner",
							"type": "address"
						},
						{
							"indexed": true,
							"internalType": "address",
							"name": "spender",
							"type": "address"
						},
						{
							"indexed": false,
							"internalType": "uint256",
							"name": "value",
							"type": "uint256"
						}
					],
					"name": "Approval",
					"type": "event"
				},
				{
					"anonymous": false,
					"inputs": [
						{
							"indexed": true,
							"internalType": "address",
							"name": "from",
							"type": "address"
						},
						{
							"indexed": true,
							"internalType": "address",
							"name": "to",
							"type": "address"
						},
						{
							"indexed": false,
							"internalType": "uint256",
							"name": "value",
							"type": "uint256"
						}
					],
					"name": "Transfer",
					"type": "event"
				},
				{
					"inputs": [
						{
							"internalType": "address",
							"name": "",
							"type": "address"
						}
					],
					"name": "PropertykiDetails",
					"outputs": [
						{
							"internalType": "string",
							"name": "Fulladress",
							"type": "string"
						},
						{
							"internalType": "string",
							"name": "PropertyManager",
							"type": "string"
						},
						{
							"internalType": "uint256",
							"name": "OfferingPercent",
							"type": "uint256"
						}
					],
					"stateMutability": "view",
					"type": "function"
				},
				{
					"inputs": [
						{
							"internalType": "address",
							"name": "",
							"type": "address"
						}
					],
					"name": "PropertykiFinances",
					"outputs": [
						{
							"internalType": "uint256",
							"name": "Tokenprice",
							"type": "uint256"
						},
						{
							"internalType": "uint256",
							"name": "TokensNumbers",
							"type": "uint256"
						},
						{
							"internalType": "uint256",
							"name": "MonthlyCosts",
							"type": "uint256"
						},
						{
							"internalType": "uint256",
							"name": "NetRentyear",
							"type": "uint256"
						},
						{
							"internalType": "uint256",
							"name": "NetRentmonth",
							"type": "uint256"
						},
						{
							"internalType": "uint256",
							"name": "TotalInvestment",
							"type": "uint256"
						},
						{
							"internalType": "uint256",
							"name": "Interiorsize",
							"type": "uint256"
						},
						{
							"internalType": "uint256",
							"name": "Bedroom",
							"type": "uint256"
						},
						{
							"internalType": "uint256",
							"name": "Bathroom",
							"type": "uint256"
						},
						{
							"internalType": "uint256",
							"name": "LotSizeinsqft",
							"type": "uint256"
						}
					],
					"stateMutability": "view",
					"type": "function"
				},
				{
					"inputs": [
						{
							"internalType": "address",
							"name": "owner",
							"type": "address"
						},
						{
							"internalType": "address",
							"name": "spender",
							"type": "address"
						}
					],
					"name": "allowance",
					"outputs": [
						{
							"internalType": "uint256",
							"name": "",
							"type": "uint256"
						}
					],
					"stateMutability": "view",
					"type": "function"
				},
				{
					"inputs": [
						{
							"internalType": "address",
							"name": "spender",
							"type": "address"
						},
						{
							"internalType": "uint256",
							"name": "amount",
							"type": "uint256"
						}
					],
					"name": "approve",
					"outputs": [
						{
							"internalType": "bool",
							"name": "",
							"type": "bool"
						}
					],
					"stateMutability": "nonpayable",
					"type": "function"
				},
				{
					"inputs": [
						{
							"internalType": "address",
							"name": "account",
							"type": "address"
						}
					],
					"name": "balanceOf",
					"outputs": [
						{
							"internalType": "uint256",
							"name": "",
							"type": "uint256"
						}
					],
					"stateMutability": "view",
					"type": "function"
				},
				{
					"inputs": [],
					"name": "decimals",
					"outputs": [
						{
							"internalType": "uint8",
							"name": "",
							"type": "uint8"
						}
					],
					"stateMutability": "view",
					"type": "function"
				},
				{
					"inputs": [
						{
							"internalType": "address",
							"name": "spender",
							"type": "address"
						},
						{
							"internalType": "uint256",
							"name": "subtractedValue",
							"type": "uint256"
						}
					],
					"name": "decreaseAllowance",
					"outputs": [
						{
							"internalType": "bool",
							"name": "",
							"type": "bool"
						}
					],
					"stateMutability": "nonpayable",
					"type": "function"
				},
				{
					"inputs": [],
					"name": "depositAmount",
					"outputs": [
						{
							"internalType": "uint256",
							"name": "",
							"type": "uint256"
						}
					],
					"stateMutability": "view",
					"type": "function"
				},
				{
					"inputs": [],
					"name": "getBalance",
					"outputs": [
						{
							"internalType": "uint256",
							"name": "",
							"type": "uint256"
						}
					],
					"stateMutability": "view",
					"type": "function"
				},
				{
					"inputs": [
						{
							"internalType": "address",
							"name": "",
							"type": "address"
						}
					],
					"name": "hasPaidSecurityDeposit",
					"outputs": [
						{
							"internalType": "bool",
							"name": "",
							"type": "bool"
						}
					],
					"stateMutability": "view",
					"type": "function"
				},
				{
					"inputs": [
						{
							"internalType": "address",
							"name": "spender",
							"type": "address"
						},
						{
							"internalType": "uint256",
							"name": "addedValue",
							"type": "uint256"
						}
					],
					"name": "increaseAllowance",
					"outputs": [
						{
							"internalType": "bool",
							"name": "",
							"type": "bool"
						}
					],
					"stateMutability": "nonpayable",
					"type": "function"
				},
				{
					"inputs": [],
					"name": "name",
					"outputs": [
						{
							"internalType": "string",
							"name": "",
							"type": "string"
						}
					],
					"stateMutability": "view",
					"type": "function"
				},
				{
					"inputs": [],
					"name": "owner",
					"outputs": [
						{
							"internalType": "address",
							"name": "",
							"type": "address"
						}
					],
					"stateMutability": "view",
					"type": "function"
				},
				{
					"inputs": [],
					"name": "paySecurityDeposit",
					"outputs": [],
					"stateMutability": "payable",
					"type": "function"
				},
				{
					"inputs": [
						{
							"internalType": "address",
							"name": "_tenant",
							"type": "address"
						}
					],
					"name": "setTenant",
					"outputs": [],
					"stateMutability": "nonpayable",
					"type": "function"
				},
				{
					"inputs": [],
					"name": "symbol",
					"outputs": [
						{
							"internalType": "string",
							"name": "",
							"type": "string"
						}
					],
					"stateMutability": "view",
					"type": "function"
				},
				{
					"inputs": [],
					"name": "tenant",
					"outputs": [
						{
							"internalType": "address",
							"name": "",
							"type": "address"
						}
					],
					"stateMutability": "view",
					"type": "function"
				},
				{
					"inputs": [],
					"name": "totalSupply",
					"outputs": [
						{
							"internalType": "uint256",
							"name": "",
							"type": "uint256"
						}
					],
					"stateMutability": "view",
					"type": "function"
				},
				{
					"inputs": [
						{
							"internalType": "address",
							"name": "to",
							"type": "address"
						},
						{
							"internalType": "uint256",
							"name": "amount",
							"type": "uint256"
						}
					],
					"name": "transfer",
					"outputs": [
						{
							"internalType": "bool",
							"name": "",
							"type": "bool"
						}
					],
					"stateMutability": "nonpayable",
					"type": "function"
				},
				{
					"inputs": [
						{
							"internalType": "address",
							"name": "from",
							"type": "address"
						},
						{
							"internalType": "address",
							"name": "to",
							"type": "address"
						},
						{
							"internalType": "uint256",
							"name": "amount",
							"type": "uint256"
						}
					],
					"name": "transferFrom",
					"outputs": [
						{
							"internalType": "bool",
							"name": "",
							"type": "bool"
						}
					],
					"stateMutability": "nonpayable",
					"type": "function"
				},
				{
					"inputs": [
						{
							"internalType": "uint256",
							"name": "amount",
							"type": "uint256"
						}
					],
					"name": "withdrawRent",
					"outputs": [],
					"stateMutability": "nonpayable",
					"type": "function"
				}
			],
			"devdoc": {
				"events": {
					"Approval(address,address,uint256)": {
						"details": "Emitted when the allowance of a `spender` for an `owner` is set by a call to {approve}. `value` is the new allowance."
					},
					"Transfer(address,address,uint256)": {
						"details": "Emitted when `value` tokens are moved from one account (`from`) to another (`to`). Note that `value` may be zero."
					}
				},
				"kind": "dev",
				"methods": {
					"allowance(address,address)": {
						"details": "See {IERC20-allowance}."
					},
					"approve(address,uint256)": {
						"details": "See {IERC20-approve}. NOTE: If `amount` is the maximum `uint256`, the allowance is not updated on `transferFrom`. This is semantically equivalent to an infinite approval. Requirements: - `spender` cannot be the zero address."
					},
					"balanceOf(address)": {
						"details": "See {IERC20-balanceOf}."
					},
					"decimals()": {
						"details": "Returns the number of decimals used to get its user representation. For example, if `decimals` equals `2`, a balance of `505` tokens should be displayed to a user as `5.05` (`505 / 10 ** 2`). Tokens usually opt for a value of 18, imitating the relationship between Ether and Wei. This is the default value returned by this function, unless it's overridden. NOTE: This information is only used for _display_ purposes: it in no way affects any of the arithmetic of the contract, including {IERC20-balanceOf} and {IERC20-transfer}."
					},
					"decreaseAllowance(address,uint256)": {
						"details": "Atomically decreases the allowance granted to `spender` by the caller. This is an alternative to {approve} that can be used as a mitigation for problems described in {IERC20-approve}. Emits an {Approval} event indicating the updated allowance. Requirements: - `spender` cannot be the zero address. - `spender` must have allowance for the caller of at least `subtractedValue`."
					},
					"increaseAllowance(address,uint256)": {
						"details": "Atomically increases the allowance granted to `spender` by the caller. This is an alternative to {approve} that can be used as a mitigation for problems described in {IERC20-approve}. Emits an {Approval} event indicating the updated allowance. Requirements: - `spender` cannot be the zero address."
					},
					"name()": {
						"details": "Returns the name of the token."
					},
					"symbol()": {
						"details": "Returns the symbol of the token, usually a shorter version of the name."
					},
					"totalSupply()": {
						"details": "See {IERC20-totalSupply}."
					},
					"transfer(address,uint256)": {
						"details": "See {IERC20-transfer}. Requirements: - `to` cannot be the zero address. - the caller must have a balance of at least `amount`."
					},
					"transferFrom(address,address,uint256)": {
						"details": "See {IERC20-transferFrom}. Emits an {Approval} event indicating the updated allowance. This is not required by the EIP. See the note at the beginning of {ERC20}. NOTE: Does not update the allowance if the current allowance is the maximum `uint256`. Requirements: - `from` and `to` cannot be the zero address. - `from` must have a balance of at least `amount`. - the caller must have allowance for ``from``'s tokens of at least `amount`."
					}
				},
				"version": 1
			},
			"evm": {
				"assembly": "    /* \"mapping add.sol\":185:2141  contract RealEstate is ERC20 {... */\n  mstore(0x40, 0x80)\n    /* \"mapping add.sol\":819:826  1 ether */\n  0x0de0b6b3a7640000\n    /* \"mapping add.sol\":788:826  uint256 public depositAmount = 1 ether */\n  0x07\n  sstore\n    /* \"mapping add.sol\":1082:1165  constructor() ERC20(\"RealEstateToken\", \"RET\") {... */\n  callvalue\n  dup1\n  iszero\n  tag_1\n  jumpi\n  0x00\n  dup1\n  revert\ntag_1:\n  pop\n    /* \"@openzeppelin/contracts/token/ERC20/ERC20.sol\":1980:2093  constructor(string memory name_, string memory symbol_) {... */\n  mload(0x40)\n  dup1\n  0x40\n  add\n  0x40\n  mstore\n  dup1\n  0x0f\n  dup2\n  mstore\n  0x20\n  add\n  0x5265616c457374617465546f6b656e0000000000000000000000000000000000\n  dup2\n  mstore\n  pop\n  mload(0x40)\n  dup1\n  0x40\n  add\n  0x40\n  mstore\n  dup1\n  0x03\n  dup2\n  mstore\n  0x20\n  add\n  0x5245540000000000000000000000000000000000000000000000000000000000\n  dup2\n  mstore\n  pop\n    /* \"@openzeppelin/contracts/token/ERC20/ERC20.sol\":2054:2059  name_ */\n  dup2\n    /* \"@openzeppelin/contracts/token/ERC20/ERC20.sol\":2046:2051  _name */\n  0x03\n    /* \"@openzeppelin/contracts/token/ERC20/ERC20.sol\":2046:2059  _name = name_ */\n  swap1\n  dup2\n  tag_5\n  swap2\n  swap1\n  tag_6\n  jump\t// in\ntag_5:\n  pop\n    /* \"@openzeppelin/contracts/token/ERC20/ERC20.sol\":2079:2086  symbol_ */\n  dup1\n    /* \"@openzeppelin/contracts/token/ERC20/ERC20.sol\":2069:2076  _symbol */\n  0x04\n    /* \"@openzeppelin/contracts/token/ERC20/ERC20.sol\":2069:2086  _symbol = symbol_ */\n  swap1\n  dup2\n  tag_7\n  swap2\n  swap1\n  tag_6\n  jump\t// in\ntag_7:\n  pop\n    /* \"@openzeppelin/contracts/token/ERC20/ERC20.sol\":1980:2093  constructor(string memory name_, string memory symbol_) {... */\n  pop\n  pop\n    /* \"mapping add.sol\":1147:1157  msg.sender */\n  caller\n    /* \"mapping add.sol\":1139:1144  owner */\n  0x05\n  0x00\n    /* \"mapping add.sol\":1139:1157  owner = msg.sender */\n  0x0100\n  exp\n  dup2\n  sload\n  dup2\n  0xffffffffffffffffffffffffffffffffffffffff\n  mul\n  not\n  and\n  swap1\n  dup4\n  0xffffffffffffffffffffffffffffffffffffffff\n  and\n  mul\n  or\n  swap1\n  sstore\n  pop\n    /* \"mapping add.sol\":185:2141  contract RealEstate is ERC20 {... */\n  jump(tag_9)\n    /* \"#utility.yul\":7:106   */\ntag_10:\n    /* \"#utility.yul\":59:65   */\n  0x00\n    /* \"#utility.yul\":93:98   */\n  dup2\n    /* \"#utility.yul\":87:99   */\n  mload\n    /* \"#utility.yul\":77:99   */\n  swap1\n  pop\n    /* \"#utility.yul\":7:106   */\n  swap2\n  swap1\n  pop\n  jump\t// out\n    /* \"#utility.yul\":112:292   */\ntag_11:\n    /* \"#utility.yul\":160:237   */\n  0x4e487b7100000000000000000000000000000000000000000000000000000000\n    /* \"#utility.yul\":157:158   */\n  0x00\n    /* \"#utility.yul\":150:238   */\n  mstore\n    /* \"#utility.yul\":257:261   */\n  0x41\n    /* \"#utility.yul\":254:255   */\n  0x04\n    /* \"#utility.yul\":247:262   */\n  mstore\n    /* \"#utility.yul\":281:285   */\n  0x24\n    /* \"#utility.yul\":278:279   */\n  0x00\n    /* \"#utility.yul\":271:286   */\n  revert\n    /* \"#utility.yul\":298:478   */\ntag_12:\n    /* \"#utility.yul\":346:423   */\n  0x4e487b7100000000000000000000000000000000000000000000000000000000\n    /* \"#utility.yul\":343:344   */\n  0x00\n    /* \"#utility.yul\":336:424   */\n  mstore\n    /* \"#utility.yul\":443:447   */\n  0x22\n    /* \"#utility.yul\":440:441   */\n  0x04\n    /* \"#utility.yul\":433:448   */\n  mstore\n    /* \"#utility.yul\":467:471   */\n  0x24\n    /* \"#utility.yul\":464:465   */\n  0x00\n    /* \"#utility.yul\":457:472   */\n  revert\n    /* \"#utility.yul\":484:804   */\ntag_13:\n    /* \"#utility.yul\":528:534   */\n  0x00\n    /* \"#utility.yul\":565:566   */\n  0x02\n    /* \"#utility.yul\":559:563   */\n  dup3\n    /* \"#utility.yul\":555:567   */\n  div\n    /* \"#utility.yul\":545:567   */\n  swap1\n  pop\n    /* \"#utility.yul\":612:613   */\n  0x01\n    /* \"#utility.yul\":606:610   */\n  dup3\n    /* \"#utility.yul\":602:614   */\n  and\n    /* \"#utility.yul\":633:651   */\n  dup1\n    /* \"#utility.yul\":623:704   */\n  tag_35\n  jumpi\n    /* \"#utility.yul\":689:693   */\n  0x7f\n    /* \"#utility.yul\":681:687   */\n  dup3\n    /* \"#utility.yul\":677:694   */\n  and\n    /* \"#utility.yul\":667:694   */\n  swap2\n  pop\n    /* \"#utility.yul\":623:704   */\ntag_35:\n    /* \"#utility.yul\":751:753   */\n  0x20\n    /* \"#utility.yul\":743:749   */\n  dup3\n    /* \"#utility.yul\":740:754   */\n  lt\n    /* \"#utility.yul\":720:738   */\n  dup2\n    /* \"#utility.yul\":717:755   */\n  sub\n    /* \"#utility.yul\":714:798   */\n  tag_36\n  jumpi\n    /* \"#utility.yul\":770:788   */\n  tag_37\n  tag_12\n  jump\t// in\ntag_37:\n    /* \"#utility.yul\":714:798   */\ntag_36:\n    /* \"#utility.yul\":535:804   */\n  pop\n    /* \"#utility.yul\":484:804   */\n  swap2\n  swap1\n  pop\n  jump\t// out\n    /* \"#utility.yul\":810:951   */\ntag_14:\n    /* \"#utility.yul\":859:863   */\n  0x00\n    /* \"#utility.yul\":882:885   */\n  dup2\n    /* \"#utility.yul\":874:885   */\n  swap1\n  pop\n    /* \"#utility.yul\":905:908   */\n  dup2\n    /* \"#utility.yul\":902:903   */\n  0x00\n    /* \"#utility.yul\":895:909   */\n  mstore\n    /* \"#utility.yul\":939:943   */\n  0x20\n    /* \"#utility.yul\":936:937   */\n  0x00\n    /* \"#utility.yul\":926:944   */\n  keccak256\n    /* \"#utility.yul\":918:944   */\n  swap1\n  pop\n    /* \"#utility.yul\":810:951   */\n  swap2\n  swap1\n  pop\n  jump\t// out\n    /* \"#utility.yul\":957:1050   */\ntag_15:\n    /* \"#utility.yul\":994:1000   */\n  0x00\n    /* \"#utility.yul\":1041:1043   */\n  0x20\n    /* \"#utility.yul\":1036:1038   */\n  0x1f\n    /* \"#utility.yul\":1029:1034   */\n  dup4\n    /* \"#utility.yul\":1025:1039   */\n  add\n    /* \"#utility.yul\":1021:1044   */\n  div\n    /* \"#utility.yul\":1011:1044   */\n  swap1\n  pop\n    /* \"#utility.yul\":957:1050   */\n  swap2\n  swap1\n  pop\n  jump\t// out\n    /* \"#utility.yul\":1056:1163   */\ntag_16:\n    /* \"#utility.yul\":1100:1108   */\n  0x00\n    /* \"#utility.yul\":1150:1155   */\n  dup3\n    /* \"#utility.yul\":1144:1148   */\n  dup3\n    /* \"#utility.yul\":1140:1156   */\n  shl\n    /* \"#utility.yul\":1119:1156   */\n  swap1\n  pop\n    /* \"#utility.yul\":1056:1163   */\n  swap3\n  swap2\n  pop\n  pop\n  jump\t// out\n    /* \"#utility.yul\":1169:1562   */\ntag_17:\n    /* \"#utility.yul\":1238:1244   */\n  0x00\n    /* \"#utility.yul\":1288:1289   */\n  0x08\n    /* \"#utility.yul\":1276:1286   */\n  dup4\n    /* \"#utility.yul\":1272:1290   */\n  mul\n    /* \"#utility.yul\":1311:1408   */\n  tag_42\n    /* \"#utility.yul\":1341:1407   */\n  0xffffffffffffffffffffffffffffffffffffffffffffffffffffffffffffffff\n    /* \"#utility.yul\":1330:1339   */\n  dup3\n    /* \"#utility.yul\":1311:1408   */\n  tag_16\n  jump\t// in\ntag_42:\n    /* \"#utility.yul\":1429:1468   */\n  tag_43\n    /* \"#utility.yul\":1459:1467   */\n  dup7\n    /* \"#utility.yul\":1448:1457   */\n  dup4\n    /* \"#utility.yul\":1429:1468   */\n  tag_16\n  jump\t// in\ntag_43:\n    /* \"#utility.yul\":1417:1468   */\n  swap6\n  pop\n    /* \"#utility.yul\":1501:1505   */\n  dup1\n    /* \"#utility.yul\":1497:1506   */\n  not\n    /* \"#utility.yul\":1490:1495   */\n  dup5\n    /* \"#utility.yul\":1486:1507   */\n  and\n    /* \"#utility.yul\":1477:1507   */\n  swap4\n  pop\n    /* \"#utility.yul\":1550:1554   */\n  dup1\n    /* \"#utility.yul\":1540:1548   */\n  dup7\n    /* \"#utility.yul\":1536:1555   */\n  and\n    /* \"#utility.yul\":1529:1534   */\n  dup5\n    /* \"#utility.yul\":1526:1556   */\n  or\n    /* \"#utility.yul\":1516:1556   */\n  swap3\n  pop\n    /* \"#utility.yul\":1245:1562   */\n  pop\n  pop\n    /* \"#utility.yul\":1169:1562   */\n  swap4\n  swap3\n  pop\n  pop\n  pop\n  jump\t// out\n    /* \"#utility.yul\":1568:1645   */\ntag_18:\n    /* \"#utility.yul\":1605:1612   */\n  0x00\n    /* \"#utility.yul\":1634:1639   */\n  dup2\n    /* \"#utility.yul\":1623:1639   */\n  swap1\n  pop\n    /* \"#utility.yul\":1568:1645   */\n  swap2\n  swap1\n  pop\n  jump\t// out\n    /* \"#utility.yul\":1651:1711   */\ntag_19:\n    /* \"#utility.yul\":1679:1682   */\n  0x00\n    /* \"#utility.yul\":1700:1705   */\n  dup2\n    /* \"#utility.yul\":1693:1705   */\n  swap1\n  pop\n    /* \"#utility.yul\":1651:1711   */\n  swap2\n  swap1\n  pop\n  jump\t// out\n    /* \"#utility.yul\":1717:1859   */\ntag_20:\n    /* \"#utility.yul\":1767:1776   */\n  0x00\n    /* \"#utility.yul\":1800:1853   */\n  tag_47\n    /* \"#utility.yul\":1818:1852   */\n  tag_48\n    /* \"#utility.yul\":1827:1851   */\n  tag_49\n    /* \"#utility.yul\":1845:1850   */\n  dup5\n    /* \"#utility.yul\":1827:1851   */\n  tag_18\n  jump\t// in\ntag_49:\n    /* \"#utility.yul\":1818:1852   */\n  tag_19\n  jump\t// in\ntag_48:\n    /* \"#utility.yul\":1800:1853   */\n  tag_18\n  jump\t// in\ntag_47:\n    /* \"#utility.yul\":1787:1853   */\n  swap1\n  pop\n    /* \"#utility.yul\":1717:1859   */\n  swap2\n  swap1\n  pop\n  jump\t// out\n    /* \"#utility.yul\":1865:1940   */\ntag_21:\n    /* \"#utility.yul\":1908:1911   */\n  0x00\n    /* \"#utility.yul\":1929:1934   */\n  dup2\n    /* \"#utility.yul\":1922:1934   */\n  swap1\n  pop\n    /* \"#utility.yul\":1865:1940   */\n  swap2\n  swap1\n  pop\n  jump\t// out\n    /* \"#utility.yul\":1946:2215   */\ntag_22:\n    /* \"#utility.yul\":2056:2095   */\n  tag_52\n    /* \"#utility.yul\":2087:2094   */\n  dup4\n    /* \"#utility.yul\":2056:2095   */\n  tag_20\n  jump\t// in\ntag_52:\n    /* \"#utility.yul\":2117:2208   */\n  tag_53\n    /* \"#utility.yul\":2166:2207   */\n  tag_54\n    /* \"#utility.yul\":2190:2206   */\n  dup3\n    /* \"#utility.yul\":2166:2207   */\n  tag_21\n  jump\t// in\ntag_54:\n    /* \"#utility.yul\":2158:2164   */\n  dup5\n    /* \"#utility.yul\":2151:2155   */\n  dup5\n    /* \"#utility.yul\":2145:2156   */\n  sload\n    /* \"#utility.yul\":2117:2208   */\n  tag_17\n  jump\t// in\ntag_53:\n    /* \"#utility.yul\":2111:2115   */\n  dup3\n    /* \"#utility.yul\":2104:2209   */\n  sstore\n    /* \"#utility.yul\":2022:2215   */\n  pop\n    /* \"#utility.yul\":1946:2215   */\n  pop\n  pop\n  pop\n  jump\t// out\n    /* \"#utility.yul\":2221:2294   */\ntag_23:\n    /* \"#utility.yul\":2266:2269   */\n  0x00\n    /* \"#utility.yul\":2221:2294   */\n  swap1\n  jump\t// out\n    /* \"#utility.yul\":2300:2489   */\ntag_24:\n    /* \"#utility.yul\":2377:2409   */\n  tag_57\n  tag_23\n  jump\t// in\ntag_57:\n    /* \"#utility.yul\":2418:2483   */\n  tag_58\n    /* \"#utility.yul\":2476:2482   */\n  dup2\n    /* \"#utility.yul\":2468:2474   */\n  dup5\n    /* \"#utility.yul\":2462:2466   */\n  dup5\n    /* \"#utility.yul\":2418:2483   */\n  tag_22\n  jump\t// in\ntag_58:\n    /* \"#utility.yul\":2353:2489   */\n  pop\n    /* \"#utility.yul\":2300:2489   */\n  pop\n  pop\n  jump\t// out\n    /* \"#utility.yul\":2495:2681   */\ntag_25:\n    /* \"#utility.yul\":2555:2675   */\ntag_60:\n    /* \"#utility.yul\":2572:2575   */\n  dup2\n    /* \"#utility.yul\":2565:2570   */\n  dup2\n    /* \"#utility.yul\":2562:2576   */\n  lt\n    /* \"#utility.yul\":2555:2675   */\n  iszero\n  tag_62\n  jumpi\n    /* \"#utility.yul\":2626:2665   */\n  tag_63\n    /* \"#utility.yul\":2663:2664   */\n  0x00\n    /* \"#utility.yul\":2656:2661   */\n  dup3\n    /* \"#utility.yul\":2626:2665   */\n  tag_24\n  jump\t// in\ntag_63:\n    /* \"#utility.yul\":2599:2600   */\n  0x01\n    /* \"#utility.yul\":2592:2597   */\n  dup2\n    /* \"#utility.yul\":2588:2601   */\n  add\n    /* \"#utility.yul\":2579:2601   */\n  swap1\n  pop\n    /* \"#utility.yul\":2555:2675   */\n  jump(tag_60)\ntag_62:\n    /* \"#utility.yul\":2495:2681   */\n  pop\n  pop\n  jump\t// out\n    /* \"#utility.yul\":2687:3230   */\ntag_26:\n    /* \"#utility.yul\":2788:2790   */\n  0x1f\n    /* \"#utility.yul\":2783:2786   */\n  dup3\n    /* \"#utility.yul\":2780:2791   */\n  gt\n    /* \"#utility.yul\":2777:3223   */\n  iszero\n  tag_65\n  jumpi\n    /* \"#utility.yul\":2822:2860   */\n  tag_66\n    /* \"#utility.yul\":2854:2859   */\n  dup2\n    /* \"#utility.yul\":2822:2860   */\n  tag_14\n  jump\t// in\ntag_66:\n    /* \"#utility.yul\":2906:2935   */\n  tag_67\n    /* \"#utility.yul\":2924:2934   */\n  dup5\n    /* \"#utility.yul\":2906:2935   */\n  tag_15\n  jump\t// in\ntag_67:\n    /* \"#utility.yul\":2896:2904   */\n  dup2\n    /* \"#utility.yul\":2892:2936   */\n  add\n    /* \"#utility.yul\":3089:3091   */\n  0x20\n    /* \"#utility.yul\":3077:3087   */\n  dup6\n    /* \"#utility.yul\":3074:3092   */\n  lt\n    /* \"#utility.yul\":3071:3120   */\n  iszero\n  tag_68\n  jumpi\n    /* \"#utility.yul\":3110:3118   */\n  dup2\n    /* \"#utility.yul\":3095:3118   */\n  swap1\n  pop\n    /* \"#utility.yul\":3071:3120   */\ntag_68:\n    /* \"#utility.yul\":3133:3213   */\n  tag_69\n    /* \"#utility.yul\":3189:3211   */\n  tag_70\n    /* \"#utility.yul\":3207:3210   */\n  dup6\n    /* \"#utility.yul\":3189:3211   */\n  tag_15\n  jump\t// in\ntag_70:\n    /* \"#utility.yul\":3179:3187   */\n  dup4\n    /* \"#utility.yul\":3175:3212   */\n  add\n    /* \"#utility.yul\":3162:3173   */\n  dup3\n    /* \"#utility.yul\":3133:3213   */\n  tag_25\n  jump\t// in\ntag_69:\n    /* \"#utility.yul\":2792:3223   */\n  pop\n  pop\n    /* \"#utility.yul\":2777:3223   */\ntag_65:\n    /* \"#utility.yul\":2687:3230   */\n  pop\n  pop\n  pop\n  jump\t// out\n    /* \"#utility.yul\":3236:3353   */\ntag_27:\n    /* \"#utility.yul\":3290:3298   */\n  0x00\n    /* \"#utility.yul\":3340:3345   */\n  dup3\n    /* \"#utility.yul\":3334:3338   */\n  dup3\n    /* \"#utility.yul\":3330:3346   */\n  shr\n    /* \"#utility.yul\":3309:3346   */\n  swap1\n  pop\n    /* \"#utility.yul\":3236:3353   */\n  swap3\n  swap2\n  pop\n  pop\n  jump\t// out\n    /* \"#utility.yul\":3359:3528   */\ntag_28:\n    /* \"#utility.yul\":3403:3409   */\n  0x00\n    /* \"#utility.yul\":3436:3487   */\n  tag_73\n    /* \"#utility.yul\":3484:3485   */\n  0x00\n    /* \"#utility.yul\":3480:3486   */\n  not\n    /* \"#utility.yul\":3472:3477   */\n  dup5\n    /* \"#utility.yul\":3469:3470   */\n  0x08\n    /* \"#utility.yul\":3465:3478   */\n  mul\n    /* \"#utility.yul\":3436:3487   */\n  tag_27\n  jump\t// in\ntag_73:\n    /* \"#utility.yul\":3432:3488   */\n  not\n    /* \"#utility.yul\":3517:3521   */\n  dup1\n    /* \"#utility.yul\":3511:3515   */\n  dup4\n    /* \"#utility.yul\":3507:3522   */\n  and\n    /* \"#utility.yul\":3497:3522   */\n  swap2\n  pop\n    /* \"#utility.yul\":3410:3528   */\n  pop\n    /* \"#utility.yul\":3359:3528   */\n  swap3\n  swap2\n  pop\n  pop\n  jump\t// out\n    /* \"#utility.yul\":3533:3828   */\ntag_29:\n    /* \"#utility.yul\":3609:3613   */\n  0x00\n    /* \"#utility.yul\":3755:3784   */\n  tag_75\n    /* \"#utility.yul\":3780:3783   */\n  dup4\n    /* \"#utility.yul\":3774:3778   */\n  dup4\n    /* \"#utility.yul\":3755:3784   */\n  tag_28\n  jump\t// in\ntag_75:\n    /* \"#utility.yul\":3747:3784   */\n  swap2\n  pop\n    /* \"#utility.yul\":3817:3820   */\n  dup3\n    /* \"#utility.yul\":3814:3815   */\n  0x02\n    /* \"#utility.yul\":3810:3821   */\n  mul\n    /* \"#utility.yul\":3804:3808   */\n  dup3\n    /* \"#utility.yul\":3801:3822   */\n  or\n    /* \"#utility.yul\":3793:3822   */\n  swap1\n  pop\n    /* \"#utility.yul\":3533:3828   */\n  swap3\n  swap2\n  pop\n  pop\n  jump\t// out\n    /* \"#utility.yul\":3833:5228   */\ntag_6:\n    /* \"#utility.yul\":3950:3987   */\n  tag_77\n    /* \"#utility.yul\":3983:3986   */\n  dup3\n    /* \"#utility.yul\":3950:3987   */\n  tag_10\n  jump\t// in\ntag_77:\n    /* \"#utility.yul\":4052:4070   */\n  0xffffffffffffffff\n    /* \"#utility.yul\":4044:4050   */\n  dup2\n    /* \"#utility.yul\":4041:4071   */\n  gt\n    /* \"#utility.yul\":4038:4094   */\n  iszero\n  tag_78\n  jumpi\n    /* \"#utility.yul\":4074:4092   */\n  tag_79\n  tag_11\n  jump\t// in\ntag_79:\n    /* \"#utility.yul\":4038:4094   */\ntag_78:\n    /* \"#utility.yul\":4118:4156   */\n  tag_80\n    /* \"#utility.yul\":4150:4154   */\n  dup3\n    /* \"#utility.yul\":4144:4155   */\n  sload\n    /* \"#utility.yul\":4118:4156   */\n  tag_13\n  jump\t// in\ntag_80:\n    /* \"#utility.yul\":4203:4270   */\n  tag_81\n    /* \"#utility.yul\":4263:4269   */\n  dup3\n    /* \"#utility.yul\":4255:4261   */\n  dup3\n    /* \"#utility.yul\":4249:4253   */\n  dup6\n    /* \"#utility.yul\":4203:4270   */\n  tag_26\n  jump\t// in\ntag_81:\n    /* \"#utility.yul\":4297:4298   */\n  0x00\n    /* \"#utility.yul\":4321:4325   */\n  0x20\n    /* \"#utility.yul\":4308:4325   */\n  swap1\n  pop\n    /* \"#utility.yul\":4353:4355   */\n  0x1f\n    /* \"#utility.yul\":4345:4351   */\n  dup4\n    /* \"#utility.yul\":4342:4356   */\n  gt\n    /* \"#utility.yul\":4370:4371   */\n  0x01\n    /* \"#utility.yul\":4365:4983   */\n  dup2\n  eq\n  tag_83\n  jumpi\n    /* \"#utility.yul\":5027:5028   */\n  0x00\n    /* \"#utility.yul\":5044:5050   */\n  dup5\n    /* \"#utility.yul\":5041:5118   */\n  iszero\n  tag_84\n  jumpi\n    /* \"#utility.yul\":5093:5102   */\n  dup3\n    /* \"#utility.yul\":5088:5091   */\n  dup8\n    /* \"#utility.yul\":5084:5103   */\n  add\n    /* \"#utility.yul\":5078:5104   */\n  mload\n    /* \"#utility.yul\":5069:5104   */\n  swap1\n  pop\n    /* \"#utility.yul\":5041:5118   */\ntag_84:\n    /* \"#utility.yul\":5144:5211   */\n  tag_85\n    /* \"#utility.yul\":5204:5210   */\n  dup6\n    /* \"#utility.yul\":5197:5202   */\n  dup3\n    /* \"#utility.yul\":5144:5211   */\n  tag_29\n  jump\t// in\ntag_85:\n    /* \"#utility.yul\":5138:5142   */\n  dup7\n    /* \"#utility.yul\":5131:5212   */\n  sstore\n    /* \"#utility.yul\":5000:5222   */\n  pop\n    /* \"#utility.yul\":4335:5222   */\n  jump(tag_82)\n    /* \"#utility.yul\":4365:4983   */\ntag_83:\n    /* \"#utility.yul\":4417:4421   */\n  0x1f\n    /* \"#utility.yul\":4413:4422   */\n  not\n    /* \"#utility.yul\":4405:4411   */\n  dup5\n    /* \"#utility.yul\":4401:4423   */\n  and\n    /* \"#utility.yul\":4451:4488   */\n  tag_86\n    /* \"#utility.yul\":4483:4487   */\n  dup7\n    /* \"#utility.yul\":4451:4488   */\n  tag_14\n  jump\t// in\ntag_86:\n    /* \"#utility.yul\":4510:4511   */\n  0x00\n    /* \"#utility.yul\":4524:4732   */\ntag_87:\n    /* \"#utility.yul\":4538:4545   */\n  dup3\n    /* \"#utility.yul\":4535:4536   */\n  dup2\n    /* \"#utility.yul\":4532:4546   */\n  lt\n    /* \"#utility.yul\":4524:4732   */\n  iszero\n  tag_89\n  jumpi\n    /* \"#utility.yul\":4617:4626   */\n  dup5\n    /* \"#utility.yul\":4612:4615   */\n  dup10\n    /* \"#utility.yul\":4608:4627   */\n  add\n    /* \"#utility.yul\":4602:4628   */\n  mload\n    /* \"#utility.yul\":4594:4600   */\n  dup3\n    /* \"#utility.yul\":4587:4629   */\n  sstore\n    /* \"#utility.yul\":4668:4669   */\n  0x01\n    /* \"#utility.yul\":4660:4666   */\n  dup3\n    /* \"#utility.yul\":4656:4670   */\n  add\n    /* \"#utility.yul\":4646:4670   */\n  swap2\n  pop\n    /* \"#utility.yul\":4715:4717   */\n  0x20\n    /* \"#utility.yul\":4704:4713   */\n  dup6\n    /* \"#utility.yul\":4700:4718   */\n  add\n    /* \"#utility.yul\":4687:4718   */\n  swap5\n  pop\n    /* \"#utility.yul\":4561:4565   */\n  0x20\n    /* \"#utility.yul\":4558:4559   */\n  dup2\n    /* \"#utility.yul\":4554:4566   */\n  add\n    /* \"#utility.yul\":4549:4566   */\n  swap1\n  pop\n    /* \"#utility.yul\":4524:4732   */\n  jump(tag_87)\ntag_89:\n    /* \"#utility.yul\":4760:4766   */\n  dup7\n    /* \"#utility.yul\":4751:4758   */\n  dup4\n    /* \"#utility.yul\":4748:4767   */\n  lt\n    /* \"#utility.yul\":4745:4924   */\n  iszero\n  tag_90\n  jumpi\n    /* \"#utility.yul\":4818:4827   */\n  dup5\n    /* \"#utility.yul\":4813:4816   */\n  dup10\n    /* \"#utility.yul\":4809:4828   */\n  add\n    /* \"#utility.yul\":4803:4829   */\n  mload\n    /* \"#utility.yul\":4861:4909   */\n  tag_91\n    /* \"#utility.yul\":4903:4907   */\n  0x1f\n    /* \"#utility.yul\":4895:4901   */\n  dup10\n    /* \"#utility.yul\":4891:4908   */\n  and\n    /* \"#utility.yul\":4880:4889   */\n  dup3\n    /* \"#utility.yul\":4861:4909   */\n  tag_28\n  jump\t// in\ntag_91:\n    /* \"#utility.yul\":4853:4859   */\n  dup4\n    /* \"#utility.yul\":4846:4910   */\n  sstore\n    /* \"#utility.yul\":4768:4924   */\n  pop\n    /* \"#utility.yul\":4745:4924   */\ntag_90:\n    /* \"#utility.yul\":4970:4971   */\n  0x01\n    /* \"#utility.yul\":4966:4967   */\n  0x02\n    /* \"#utility.yul\":4958:4964   */\n  dup9\n    /* \"#utility.yul\":4954:4968   */\n  mul\n    /* \"#utility.yul\":4950:4972   */\n  add\n    /* \"#utility.yul\":4944:4948   */\n  dup9\n    /* \"#utility.yul\":4937:4973   */\n  sstore\n    /* \"#utility.yul\":4372:4983   */\n  pop\n  pop\n  pop\n    /* \"#utility.yul\":4335:5222   */\ntag_82:\n  pop\n    /* \"#utility.yul\":3925:5228   */\n  pop\n  pop\n  pop\n    /* \"#utility.yul\":3833:5228   */\n  pop\n  pop\n  jump\t// out\n    /* \"mapping add.sol\":185:2141  contract RealEstate is ERC20 {... */\ntag_9:\n  dataSize(sub_0)\n  dup1\n  dataOffset(sub_0)\n  0x00\n  codecopy\n  0x00\n  return\nstop\n\nsub_0: assembly {\n        /* \"mapping add.sol\":185:2141  contract RealEstate is ERC20 {... */\n      mstore(0x40, 0x80)\n      jumpi(tag_1, lt(calldatasize, 0x04))\n      shr(0xe0, calldataload(0x00))\n      dup1\n      0x419759f5\n      gt\n      tag_23\n      jumpi\n      dup1\n      0xa457c2d7\n      gt\n      tag_24\n      jumpi\n      dup1\n      0xa457c2d7\n      eq\n      tag_17\n      jumpi\n      dup1\n      0xa9059cbb\n      eq\n      tag_18\n      jumpi\n      dup1\n      0xadf07791\n      eq\n      tag_19\n      jumpi\n      dup1\n      0xcfc78a12\n      eq\n      tag_20\n      jumpi\n      dup1\n      0xdd62ed3e\n      eq\n      tag_21\n      jumpi\n      dup1\n      0xe01fe4c3\n      eq\n      tag_22\n      jumpi\n      jump(tag_1)\n    tag_24:\n      dup1\n      0x419759f5\n      eq\n      tag_12\n      jumpi\n      dup1\n      0x42c63dae\n      eq\n      tag_13\n      jumpi\n      dup1\n      0x70a08231\n      eq\n      tag_14\n      jumpi\n      dup1\n      0x8da5cb5b\n      eq\n      tag_15\n      jumpi\n      dup1\n      0x95d89b41\n      eq\n      tag_16\n      jumpi\n      jump(tag_1)\n    tag_23:\n      dup1\n      0x23b872dd\n      gt\n      tag_25\n      jumpi\n      dup1\n      0x23b872dd\n      eq\n      tag_7\n      jumpi\n      dup1\n      0x255dbb53\n      eq\n      tag_8\n      jumpi\n      dup1\n      0x2e74a4de\n      eq\n      tag_9\n      jumpi\n      dup1\n      0x313ce567\n      eq\n      tag_10\n      jumpi\n      dup1\n      0x39509351\n      eq\n      tag_11\n      jumpi\n      jump(tag_1)\n    tag_25:\n      dup1\n      0x06fdde03\n      eq\n      tag_2\n      jumpi\n      dup1\n      0x095ea7b3\n      eq\n      tag_3\n      jumpi\n      dup1\n      0x0df9c426\n      eq\n      tag_4\n      jumpi\n      dup1\n      0x12065fe0\n      eq\n      tag_5\n      jumpi\n      dup1\n      0x18160ddd\n      eq\n      tag_6\n      jumpi\n    tag_1:\n      0x00\n      dup1\n      revert\n        /* \"@openzeppelin/contracts/token/ERC20/ERC20.sol\":2158:2256  function name() public view virtual override returns (string memory) {... */\n    tag_2:\n      callvalue\n      dup1\n      iszero\n      tag_26\n      jumpi\n      0x00\n      dup1\n      revert\n    tag_26:\n      pop\n      tag_27\n      tag_28\n      jump\t// in\n    tag_27:\n      mload(0x40)\n      tag_29\n      swap2\n      swap1\n      tag_30\n      jump\t// in\n    tag_29:\n      mload(0x40)\n      dup1\n      swap2\n      sub\n      swap1\n      return\n        /* \"@openzeppelin/contracts/token/ERC20/ERC20.sol\":4444:4641  function approve(address spender, uint256 amount) public virtual override returns (bool) {... */\n    tag_3:\n      callvalue\n      dup1\n      iszero\n      tag_31\n      jumpi\n      0x00\n      dup1\n      revert\n    tag_31:\n      pop\n      tag_32\n      0x04\n      dup1\n      calldatasize\n      sub\n      dup2\n      add\n      swap1\n      tag_33\n      swap2\n      swap1\n      tag_34\n      jump\t// in\n    tag_33:\n      tag_35\n      jump\t// in\n    tag_32:\n      mload(0x40)\n      tag_36\n      swap2\n      swap1\n      tag_37\n      jump\t// in\n    tag_36:\n      mload(0x40)\n      dup1\n      swap2\n      sub\n      swap1\n      return\n        /* \"mapping add.sol\":835:898  mapping (address => PropertyFinances) public PropertykiFinances */\n    tag_4:\n      callvalue\n      dup1\n      iszero\n      tag_38\n      jumpi\n      0x00\n      dup1\n      revert\n    tag_38:\n      pop\n      tag_39\n      0x04\n      dup1\n      calldatasize\n      sub\n      dup2\n      add\n      swap1\n      tag_40\n      swap2\n      swap1\n      tag_41\n      jump\t// in\n    tag_40:\n      tag_42\n      jump\t// in\n    tag_39:\n      mload(0x40)\n      tag_43\n      swap11\n      swap10\n      swap9\n      swap8\n      swap7\n      swap6\n      swap5\n      swap4\n      swap3\n      swap2\n      swap1\n      tag_44\n      jump\t// in\n    tag_43:\n      mload(0x40)\n      dup1\n      swap2\n      sub\n      swap1\n      return\n        /* \"mapping add.sol\":1775:1874  function getBalance() public view returns (uint256) {... */\n    tag_5:\n      callvalue\n      dup1\n      iszero\n      tag_45\n      jumpi\n      0x00\n      dup1\n      revert\n    tag_45:\n      pop\n      tag_46\n      tag_47\n      jump\t// in\n    tag_46:\n      mload(0x40)\n      tag_48\n      swap2\n      swap1\n      tag_49\n      jump\t// in\n    tag_48:\n      mload(0x40)\n      dup1\n      swap2\n      sub\n      swap1\n      return\n        /* \"@openzeppelin/contracts/token/ERC20/ERC20.sol\":3255:3361  function totalSupply() public view virtual override returns (uint256) {... */\n    tag_6:\n      callvalue\n      dup1\n      iszero\n      tag_50\n      jumpi\n      0x00\n      dup1\n      revert\n    tag_50:\n      pop\n      tag_51\n      tag_52\n      jump\t// in\n    tag_51:\n      mload(0x40)\n      tag_53\n      swap2\n      swap1\n      tag_49\n      jump\t// in\n    tag_53:\n      mload(0x40)\n      dup1\n      swap2\n      sub\n      swap1\n      return\n        /* \"@openzeppelin/contracts/token/ERC20/ERC20.sol\":5203:5459  function transferFrom(address from, address to, uint256 amount) public virtual override returns (bool) {... */\n    tag_7:\n      callvalue\n      dup1\n      iszero\n      tag_54\n      jumpi\n      0x00\n      dup1\n      revert\n    tag_54:\n      pop\n      tag_55\n      0x04\n      dup1\n      calldatasize\n      sub\n      dup2\n      add\n      swap1\n      tag_56\n      swap2\n      swap1\n      tag_57\n      jump\t// in\n    tag_56:\n      tag_58\n      jump\t// in\n    tag_55:\n      mload(0x40)\n      tag_59\n      swap2\n      swap1\n      tag_37\n      jump\t// in\n    tag_59:\n      mload(0x40)\n      dup1\n      swap2\n      sub\n      swap1\n      return\n        /* \"mapping add.sol\":973:1028  mapping (address => bool) public hasPaidSecurityDeposit */\n    tag_8:\n      callvalue\n      dup1\n      iszero\n      tag_60\n      jumpi\n      0x00\n      dup1\n      revert\n    tag_60:\n      pop\n      tag_61\n      0x04\n      dup1\n      calldatasize\n      sub\n      dup2\n      add\n      swap1\n      tag_62\n      swap2\n      swap1\n      tag_41\n      jump\t// in\n    tag_62:\n      tag_63\n      jump\t// in\n    tag_61:\n      mload(0x40)\n      tag_64\n      swap2\n      swap1\n      tag_37\n      jump\t// in\n    tag_64:\n      mload(0x40)\n      dup1\n      swap2\n      sub\n      swap1\n      return\n        /* \"mapping add.sol\":1434:1522  function setTenant(address _tenant) public onlyOwner {... */\n    tag_9:\n      callvalue\n      dup1\n      iszero\n      tag_65\n      jumpi\n      0x00\n      dup1\n      revert\n    tag_65:\n      pop\n      tag_66\n      0x04\n      dup1\n      calldatasize\n      sub\n      dup2\n      add\n      swap1\n      tag_67\n      swap2\n      swap1\n      tag_41\n      jump\t// in\n    tag_67:\n      tag_68\n      jump\t// in\n    tag_66:\n      stop\n        /* \"@openzeppelin/contracts/token/ERC20/ERC20.sol\":3104:3195  function decimals() public view virtual override returns (uint8) {... */\n    tag_10:\n      callvalue\n      dup1\n      iszero\n      tag_69\n      jumpi\n      0x00\n      dup1\n      revert\n    tag_69:\n      pop\n      tag_70\n      tag_71\n      jump\t// in\n    tag_70:\n      mload(0x40)\n      tag_72\n      swap2\n      swap1\n      tag_73\n      jump\t// in\n    tag_72:\n      mload(0x40)\n      dup1\n      swap2\n      sub\n      swap1\n      return\n        /* \"@openzeppelin/contracts/token/ERC20/ERC20.sol\":5854:6088  function increaseAllowance(address spender, uint256 addedValue) public virtual returns (bool) {... */\n    tag_11:\n      callvalue\n      dup1\n      iszero\n      tag_74\n      jumpi\n      0x00\n      dup1\n      revert\n    tag_74:\n      pop\n      tag_75\n      0x04\n      dup1\n      calldatasize\n      sub\n      dup2\n      add\n      swap1\n      tag_76\n      swap2\n      swap1\n      tag_34\n      jump\t// in\n    tag_76:\n      tag_77\n      jump\t// in\n    tag_75:\n      mload(0x40)\n      tag_78\n      swap2\n      swap1\n      tag_37\n      jump\t// in\n    tag_78:\n      mload(0x40)\n      dup1\n      swap2\n      sub\n      swap1\n      return\n        /* \"mapping add.sol\":788:826  uint256 public depositAmount = 1 ether */\n    tag_12:\n      callvalue\n      dup1\n      iszero\n      tag_79\n      jumpi\n      0x00\n      dup1\n      revert\n    tag_79:\n      pop\n      tag_80\n      tag_81\n      jump\t// in\n    tag_80:\n      mload(0x40)\n      tag_82\n      swap2\n      swap1\n      tag_49\n      jump\t// in\n    tag_82:\n      mload(0x40)\n      dup1\n      swap2\n      sub\n      swap1\n      return\n        /* \"mapping add.sol\":1530:1767  function paySecurityDeposit() public payable onlyTenant {... */\n    tag_13:\n      tag_83\n      tag_84\n      jump\t// in\n    tag_83:\n      stop\n        /* \"@openzeppelin/contracts/token/ERC20/ERC20.sol\":3419:3544  function balanceOf(address account) public view virtual override returns (uint256) {... */\n    tag_14:\n      callvalue\n      dup1\n      iszero\n      tag_85\n      jumpi\n      0x00\n      dup1\n      revert\n    tag_85:\n      pop\n      tag_86\n      0x04\n      dup1\n      calldatasize\n      sub\n      dup2\n      add\n      swap1\n      tag_87\n      swap2\n      swap1\n      tag_41\n      jump\t// in\n    tag_87:\n      tag_88\n      jump\t// in\n    tag_86:\n      mload(0x40)\n      tag_89\n      swap2\n      swap1\n      tag_49\n      jump\t// in\n    tag_89:\n      mload(0x40)\n      dup1\n      swap2\n      sub\n      swap1\n      return\n        /* \"mapping add.sol\":733:753  address public owner */\n    tag_15:\n      callvalue\n      dup1\n      iszero\n      tag_90\n      jumpi\n      0x00\n      dup1\n      revert\n    tag_90:\n      pop\n      tag_91\n      tag_92\n      jump\t// in\n    tag_91:\n      mload(0x40)\n      tag_93\n      swap2\n      swap1\n      tag_94\n      jump\t// in\n    tag_93:\n      mload(0x40)\n      dup1\n      swap2\n      sub\n      swap1\n      return\n        /* \"@openzeppelin/contracts/token/ERC20/ERC20.sol\":2369:2471  function symbol() public view virtual override returns (string memory) {... */\n    tag_16:\n      callvalue\n      dup1\n      iszero\n      tag_95\n      jumpi\n      0x00\n      dup1\n      revert\n    tag_95:\n      pop\n      tag_96\n      tag_97\n      jump\t// in\n    tag_96:\n      mload(0x40)\n      tag_98\n      swap2\n      swap1\n      tag_30\n      jump\t// in\n    tag_98:\n      mload(0x40)\n      dup1\n      swap2\n      sub\n      swap1\n      return\n        /* \"@openzeppelin/contracts/token/ERC20/ERC20.sol\":6575:7002  function decreaseAllowance(address spender, uint256 subtractedValue) public virtual returns (bool) {... */\n    tag_17:\n      callvalue\n      dup1\n      iszero\n      tag_99\n      jumpi\n      0x00\n      dup1\n      revert\n    tag_99:\n      pop\n      tag_100\n      0x04\n      dup1\n      calldatasize\n      sub\n      dup2\n      add\n      swap1\n      tag_101\n      swap2\n      swap1\n      tag_34\n      jump\t// in\n    tag_101:\n      tag_102\n      jump\t// in\n    tag_100:\n      mload(0x40)\n      tag_103\n      swap2\n      swap1\n      tag_37\n      jump\t// in\n    tag_103:\n      mload(0x40)\n      dup1\n      swap2\n      sub\n      swap1\n      return\n        /* \"@openzeppelin/contracts/token/ERC20/ERC20.sol\":3740:3929  function transfer(address to, uint256 amount) public virtual override returns (bool) {... */\n    tag_18:\n      callvalue\n      dup1\n      iszero\n      tag_104\n      jumpi\n      0x00\n      dup1\n      revert\n    tag_104:\n      pop\n      tag_105\n      0x04\n      dup1\n      calldatasize\n      sub\n      dup2\n      add\n      swap1\n      tag_106\n      swap2\n      swap1\n      tag_34\n      jump\t// in\n    tag_106:\n      tag_107\n      jump\t// in\n    tag_105:\n      mload(0x40)\n      tag_108\n      swap2\n      swap1\n      tag_37\n      jump\t// in\n    tag_108:\n      mload(0x40)\n      dup1\n      swap2\n      sub\n      swap1\n      return\n        /* \"mapping add.sol\":760:781  address public tenant */\n    tag_19:\n      callvalue\n      dup1\n      iszero\n      tag_109\n      jumpi\n      0x00\n      dup1\n      revert\n    tag_109:\n      pop\n      tag_110\n      tag_111\n      jump\t// in\n    tag_110:\n      mload(0x40)\n      tag_112\n      swap2\n      swap1\n      tag_94\n      jump\t// in\n    tag_112:\n      mload(0x40)\n      dup1\n      swap2\n      sub\n      swap1\n      return\n        /* \"mapping add.sol\":1882:2062  function withdrawRent(uint256 amount) public onlyOwner {... */\n    tag_20:\n      callvalue\n      dup1\n      iszero\n      tag_113\n      jumpi\n      0x00\n      dup1\n      revert\n    tag_113:\n      pop\n      tag_114\n      0x04\n      dup1\n      calldatasize\n      sub\n      dup2\n      add\n      swap1\n      tag_115\n      swap2\n      swap1\n      tag_116\n      jump\t// in\n    tag_115:\n      tag_117\n      jump\t// in\n    tag_114:\n      stop\n        /* \"@openzeppelin/contracts/token/ERC20/ERC20.sol\":3987:4136  function allowance(address owner, address spender) public view virtual override returns (uint256) {... */\n    tag_21:\n      callvalue\n      dup1\n      iszero\n      tag_118\n      jumpi\n      0x00\n      dup1\n      revert\n    tag_118:\n      pop\n      tag_119\n      0x04\n      dup1\n      calldatasize\n      sub\n      dup2\n      add\n      swap1\n      tag_120\n      swap2\n      swap1\n      tag_121\n      jump\t// in\n    tag_120:\n      tag_122\n      jump\t// in\n    tag_119:\n      mload(0x40)\n      tag_123\n      swap2\n      swap1\n      tag_49\n      jump\t// in\n    tag_123:\n      mload(0x40)\n      dup1\n      swap2\n      sub\n      swap1\n      return\n        /* \"mapping add.sol\":905:966  mapping (address => PropertyDetails) public PropertykiDetails */\n    tag_22:\n      callvalue\n      dup1\n      iszero\n      tag_124\n      jumpi\n      0x00\n      dup1\n      revert\n    tag_124:\n      pop\n      tag_125\n      0x04\n      dup1\n      calldatasize\n      sub\n      dup2\n      add\n      swap1\n      tag_126\n      swap2\n      swap1\n      tag_41\n      jump\t// in\n    tag_126:\n      tag_127\n      jump\t// in\n    tag_125:\n      mload(0x40)\n      tag_128\n      swap4\n      swap3\n      swap2\n      swap1\n      tag_129\n      jump\t// in\n    tag_128:\n      mload(0x40)\n      dup1\n      swap2\n      sub\n      swap1\n      return\n        /* \"@openzeppelin/contracts/token/ERC20/ERC20.sol\":2158:2256  function name() public view virtual override returns (string memory) {... */\n    tag_28:\n        /* \"@openzeppelin/contracts/token/ERC20/ERC20.sol\":2212:2225  string memory */\n      0x60\n        /* \"@openzeppelin/contracts/token/ERC20/ERC20.sol\":2244:2249  _name */\n      0x03\n        /* \"@openzeppelin/contracts/token/ERC20/ERC20.sol\":2237:2249  return _name */\n      dup1\n      sload\n      tag_131\n      swap1\n      tag_132\n      jump\t// in\n    tag_131:\n      dup1\n      0x1f\n      add\n      0x20\n      dup1\n      swap2\n      div\n      mul\n      0x20\n      add\n      mload(0x40)\n      swap1\n      dup2\n      add\n      0x40\n      mstore\n      dup1\n      swap3\n      swap2\n      swap1\n      dup2\n      dup2\n      mstore\n      0x20\n      add\n      dup3\n      dup1\n      sload\n      tag_133\n      swap1\n      tag_132\n      jump\t// in\n    tag_133:\n      dup1\n      iszero\n      tag_134\n      jumpi\n      dup1\n      0x1f\n      lt\n      tag_135\n      jumpi\n      0x0100\n      dup1\n      dup4\n      sload\n      div\n      mul\n      dup4\n      mstore\n      swap2\n      0x20\n      add\n      swap2\n      jump(tag_134)\n    tag_135:\n      dup3\n      add\n      swap2\n      swap1\n      0x00\n      mstore\n      keccak256(0x00, 0x20)\n      swap1\n    tag_136:\n      dup2\n      sload\n      dup2\n      mstore\n      swap1\n      0x01\n      add\n      swap1\n      0x20\n      add\n      dup1\n      dup4\n      gt\n      tag_136\n      jumpi\n      dup3\n      swap1\n      sub\n      0x1f\n      and\n      dup3\n      add\n      swap2\n    tag_134:\n      pop\n      pop\n      pop\n      pop\n      pop\n      swap1\n      pop\n        /* \"@openzeppelin/contracts/token/ERC20/ERC20.sol\":2158:2256  function name() public view virtual override returns (string memory) {... */\n      swap1\n      jump\t// out\n        /* \"@openzeppelin/contracts/token/ERC20/ERC20.sol\":4444:4641  function approve(address spender, uint256 amount) public virtual override returns (bool) {... */\n    tag_35:\n        /* \"@openzeppelin/contracts/token/ERC20/ERC20.sol\":4527:4531  bool */\n      0x00\n        /* \"@openzeppelin/contracts/token/ERC20/ERC20.sol\":4543:4556  address owner */\n      dup1\n        /* \"@openzeppelin/contracts/token/ERC20/ERC20.sol\":4559:4571  _msgSender() */\n      tag_138\n        /* \"@openzeppelin/contracts/token/ERC20/ERC20.sol\":4559:4569  _msgSender */\n      tag_139\n        /* \"@openzeppelin/contracts/token/ERC20/ERC20.sol\":4559:4571  _msgSender() */\n      jump\t// in\n    tag_138:\n        /* \"@openzeppelin/contracts/token/ERC20/ERC20.sol\":4543:4571  address owner = _msgSender() */\n      swap1\n      pop\n        /* \"@openzeppelin/contracts/token/ERC20/ERC20.sol\":4581:4613  _approve(owner, spender, amount) */\n      tag_140\n        /* \"@openzeppelin/contracts/token/ERC20/ERC20.sol\":4590:4595  owner */\n      dup2\n        /* \"@openzeppelin/contracts/token/ERC20/ERC20.sol\":4597:4604  spender */\n      dup6\n        /* \"@openzeppelin/contracts/token/ERC20/ERC20.sol\":4606:4612  amount */\n      dup6\n        /* \"@openzeppelin/contracts/token/ERC20/ERC20.sol\":4581:4589  _approve */\n      tag_141\n        /* \"@openzeppelin/contracts/token/ERC20/ERC20.sol\":4581:4613  _approve(owner, spender, amount) */\n      jump\t// in\n    tag_140:\n        /* \"@openzeppelin/contracts/token/ERC20/ERC20.sol\":4630:4634  true */\n      0x01\n        /* \"@openzeppelin/contracts/token/ERC20/ERC20.sol\":4623:4634  return true */\n      swap2\n      pop\n      pop\n        /* \"@openzeppelin/contracts/token/ERC20/ERC20.sol\":4444:4641  function approve(address spender, uint256 amount) public virtual override returns (bool) {... */\n      swap3\n      swap2\n      pop\n      pop\n      jump\t// out\n        /* \"mapping add.sol\":835:898  mapping (address => PropertyFinances) public PropertykiFinances */\n    tag_42:\n      mstore(0x20, 0x08)\n      dup1\n      0x00\n      mstore\n      keccak256(0x00, 0x40)\n      0x00\n      swap2\n      pop\n      swap1\n      pop\n      dup1\n      0x00\n      add\n      sload\n      swap1\n      dup1\n      0x01\n      add\n      sload\n      swap1\n      dup1\n      0x02\n      add\n      sload\n      swap1\n      dup1\n      0x03\n      add\n      sload\n      swap1\n      dup1\n      0x04\n      add\n      sload\n      swap1\n      dup1\n      0x05\n      add\n      sload\n      swap1\n      dup1\n      0x06\n      add\n      sload\n      swap1\n      dup1\n      0x07\n      add\n      sload\n      swap1\n      dup1\n      0x08\n      add\n      sload\n      swap1\n      dup1\n      0x09\n      add\n      sload\n      swap1\n      pop\n      dup11\n      jump\t// out\n        /* \"mapping add.sol\":1775:1874  function getBalance() public view returns (uint256) {... */\n    tag_47:\n        /* \"mapping add.sol\":1818:1825  uint256 */\n      0x00\n        /* \"mapping add.sol\":1845:1866  address(this).balance */\n      selfbalance\n        /* \"mapping add.sol\":1838:1866  return address(this).balance */\n      swap1\n      pop\n        /* \"mapping add.sol\":1775:1874  function getBalance() public view returns (uint256) {... */\n      swap1\n      jump\t// out\n        /* \"@openzeppelin/contracts/token/ERC20/ERC20.sol\":3255:3361  function totalSupply() public view virtual override returns (uint256) {... */\n    tag_52:\n        /* \"@openzeppelin/contracts/token/ERC20/ERC20.sol\":3316:3323  uint256 */\n      0x00\n        /* \"@openzeppelin/contracts/token/ERC20/ERC20.sol\":3342:3354  _totalSupply */\n      sload(0x02)\n        /* \"@openzeppelin/contracts/token/ERC20/ERC20.sol\":3335:3354  return _totalSupply */\n      swap1\n      pop\n        /* \"@openzeppelin/contracts/token/ERC20/ERC20.sol\":3255:3361  function totalSupply() public view virtual override returns (uint256) {... */\n      swap1\n      jump\t// out\n        /* \"@openzeppelin/contracts/token/ERC20/ERC20.sol\":5203:5459  function transferFrom(address from, address to, uint256 amount) public virtual override returns (bool) {... */\n    tag_58:\n        /* \"@openzeppelin/contracts/token/ERC20/ERC20.sol\":5300:5304  bool */\n      0x00\n        /* \"@openzeppelin/contracts/token/ERC20/ERC20.sol\":5316:5331  address spender */\n      dup1\n        /* \"@openzeppelin/contracts/token/ERC20/ERC20.sol\":5334:5346  _msgSender() */\n      tag_145\n        /* \"@openzeppelin/contracts/token/ERC20/ERC20.sol\":5334:5344  _msgSender */\n      tag_139\n        /* \"@openzeppelin/contracts/token/ERC20/ERC20.sol\":5334:5346  _msgSender() */\n      jump\t// in\n    tag_145:\n        /* \"@openzeppelin/contracts/token/ERC20/ERC20.sol\":5316:5346  address spender = _msgSender() */\n      swap1\n      pop\n        /* \"@openzeppelin/contracts/token/ERC20/ERC20.sol\":5356:5394  _spendAllowance(from, spender, amount) */\n      tag_146\n        /* \"@openzeppelin/contracts/token/ERC20/ERC20.sol\":5372:5376  from */\n      dup6\n        /* \"@openzeppelin/contracts/token/ERC20/ERC20.sol\":5378:5385  spender */\n      dup3\n        /* \"@openzeppelin/contracts/token/ERC20/ERC20.sol\":5387:5393  amount */\n      dup6\n        /* \"@openzeppelin/contracts/token/ERC20/ERC20.sol\":5356:5371  _spendAllowance */\n      tag_147\n        /* \"@openzeppelin/contracts/token/ERC20/ERC20.sol\":5356:5394  _spendAllowance(from, spender, amount) */\n      jump\t// in\n    tag_146:\n        /* \"@openzeppelin/contracts/token/ERC20/ERC20.sol\":5404:5431  _transfer(from, to, amount) */\n      tag_148\n        /* \"@openzeppelin/contracts/token/ERC20/ERC20.sol\":5414:5418  from */\n      dup6\n        /* \"@openzeppelin/contracts/token/ERC20/ERC20.sol\":5420:5422  to */\n      dup6\n        /* \"@openzeppelin/contracts/token/ERC20/ERC20.sol\":5424:5430  amount */\n      dup6\n        /* \"@openzeppelin/contracts/token/ERC20/ERC20.sol\":5404:5413  _transfer */\n      tag_149\n        /* \"@openzeppelin/contracts/token/ERC20/ERC20.sol\":5404:5431  _transfer(from, to, amount) */\n      jump\t// in\n    tag_148:\n        /* \"@openzeppelin/contracts/token/ERC20/ERC20.sol\":5448:5452  true */\n      0x01\n        /* \"@openzeppelin/contracts/token/ERC20/ERC20.sol\":5441:5452  return true */\n      swap2\n      pop\n      pop\n        /* \"@openzeppelin/contracts/token/ERC20/ERC20.sol\":5203:5459  function transferFrom(address from, address to, uint256 amount) public virtual override returns (bool) {... */\n      swap4\n      swap3\n      pop\n      pop\n      pop\n      jump\t// out\n        /* \"mapping add.sol\":973:1028  mapping (address => bool) public hasPaidSecurityDeposit */\n    tag_63:\n      mstore(0x20, 0x0a)\n      dup1\n      0x00\n      mstore\n      keccak256(0x00, 0x40)\n      0x00\n      swap2\n      pop\n      sload\n      swap1\n      0x0100\n      exp\n      swap1\n      div\n      0xff\n      and\n      dup2\n      jump\t// out\n        /* \"mapping add.sol\":1434:1522  function setTenant(address _tenant) public onlyOwner {... */\n    tag_68:\n        /* \"mapping add.sol\":1227:1232  owner */\n      0x05\n      0x00\n      swap1\n      sload\n      swap1\n      0x0100\n      exp\n      swap1\n      div\n      0xffffffffffffffffffffffffffffffffffffffff\n      and\n        /* \"mapping add.sol\":1213:1232  msg.sender == owner */\n      0xffffffffffffffffffffffffffffffffffffffff\n      and\n        /* \"mapping add.sol\":1213:1223  msg.sender */\n      caller\n        /* \"mapping add.sol\":1213:1232  msg.sender == owner */\n      0xffffffffffffffffffffffffffffffffffffffff\n      and\n      eq\n        /* \"mapping add.sol\":1205:1274  require(msg.sender == owner, \"Only the owner can call this function\") */\n      tag_151\n      jumpi\n      mload(0x40)\n      0x08c379a000000000000000000000000000000000000000000000000000000000\n      dup2\n      mstore\n      0x04\n      add\n      tag_152\n      swap1\n      tag_153\n      jump\t// in\n    tag_152:\n      mload(0x40)\n      dup1\n      swap2\n      sub\n      swap1\n      revert\n    tag_151:\n        /* \"mapping add.sol\":1507:1514  _tenant */\n      dup1\n        /* \"mapping add.sol\":1498:1504  tenant */\n      0x06\n      0x00\n        /* \"mapping add.sol\":1498:1514  tenant = _tenant */\n      0x0100\n      exp\n      dup2\n      sload\n      dup2\n      0xffffffffffffffffffffffffffffffffffffffff\n      mul\n      not\n      and\n      swap1\n      dup4\n      0xffffffffffffffffffffffffffffffffffffffff\n      and\n      mul\n      or\n      swap1\n      sstore\n      pop\n        /* \"mapping add.sol\":1434:1522  function setTenant(address _tenant) public onlyOwner {... */\n      pop\n      jump\t// out\n        /* \"@openzeppelin/contracts/token/ERC20/ERC20.sol\":3104:3195  function decimals() public view virtual override returns (uint8) {... */\n    tag_71:\n        /* \"@openzeppelin/contracts/token/ERC20/ERC20.sol\":3162:3167  uint8 */\n      0x00\n        /* \"@openzeppelin/contracts/token/ERC20/ERC20.sol\":3186:3188  18 */\n      0x12\n        /* \"@openzeppelin/contracts/token/ERC20/ERC20.sol\":3179:3188  return 18 */\n      swap1\n      pop\n        /* \"@openzeppelin/contracts/token/ERC20/ERC20.sol\":3104:3195  function decimals() public view virtual override returns (uint8) {... */\n      swap1\n      jump\t// out\n        /* \"@openzeppelin/contracts/token/ERC20/ERC20.sol\":5854:6088  function increaseAllowance(address spender, uint256 addedValue) public virtual returns (bool) {... */\n    tag_77:\n        /* \"@openzeppelin/contracts/token/ERC20/ERC20.sol\":5942:5946  bool */\n      0x00\n        /* \"@openzeppelin/contracts/token/ERC20/ERC20.sol\":5958:5971  address owner */\n      dup1\n        /* \"@openzeppelin/contracts/token/ERC20/ERC20.sol\":5974:5986  _msgSender() */\n      tag_157\n        /* \"@openzeppelin/contracts/token/ERC20/ERC20.sol\":5974:5984  _msgSender */\n      tag_139\n        /* \"@openzeppelin/contracts/token/ERC20/ERC20.sol\":5974:5986  _msgSender() */\n      jump\t// in\n    tag_157:\n        /* \"@openzeppelin/contracts/token/ERC20/ERC20.sol\":5958:5986  address owner = _msgSender() */\n      swap1\n      pop\n        /* \"@openzeppelin/contracts/token/ERC20/ERC20.sol\":5996:6060  _approve(owner, spender, allowance(owner, spender) + addedValue) */\n      tag_158\n        /* \"@openzeppelin/contracts/token/ERC20/ERC20.sol\":6005:6010  owner */\n      dup2\n        /* \"@openzeppelin/contracts/token/ERC20/ERC20.sol\":6012:6019  spender */\n      dup6\n        /* \"@openzeppelin/contracts/token/ERC20/ERC20.sol\":6049:6059  addedValue */\n      dup6\n        /* \"@openzeppelin/contracts/token/ERC20/ERC20.sol\":6021:6046  allowance(owner, spender) */\n      tag_159\n        /* \"@openzeppelin/contracts/token/ERC20/ERC20.sol\":6031:6036  owner */\n      dup6\n        /* \"@openzeppelin/contracts/token/ERC20/ERC20.sol\":6038:6045  spender */\n      dup10\n        /* \"@openzeppelin/contracts/token/ERC20/ERC20.sol\":6021:6030  allowance */\n      tag_122\n        /* \"@openzeppelin/contracts/token/ERC20/ERC20.sol\":6021:6046  allowance(owner, spender) */\n      jump\t// in\n    tag_159:\n        /* \"@openzeppelin/contracts/token/ERC20/ERC20.sol\":6021:6059  allowance(owner, spender) + addedValue */\n      tag_160\n      swap2\n      swap1\n      tag_161\n      jump\t// in\n    tag_160:\n        /* \"@openzeppelin/contracts/token/ERC20/ERC20.sol\":5996:6004  _approve */\n      tag_141\n        /* \"@openzeppelin/contracts/token/ERC20/ERC20.sol\":5996:6060  _approve(owner, spender, allowance(owner, spender) + addedValue) */\n      jump\t// in\n    tag_158:\n        /* \"@openzeppelin/contracts/token/ERC20/ERC20.sol\":6077:6081  true */\n      0x01\n        /* \"@openzeppelin/contracts/token/ERC20/ERC20.sol\":6070:6081  return true */\n      swap2\n      pop\n      pop\n        /* \"@openzeppelin/contracts/token/ERC20/ERC20.sol\":5854:6088  function increaseAllowance(address spender, uint256 addedValue) public virtual returns (bool) {... */\n      swap3\n      swap2\n      pop\n      pop\n      jump\t// out\n        /* \"mapping add.sol\":788:826  uint256 public depositAmount = 1 ether */\n    tag_81:\n      sload(0x07)\n      dup2\n      jump\t// out\n        /* \"mapping add.sol\":1530:1767  function paySecurityDeposit() public payable onlyTenant {... */\n    tag_84:\n        /* \"mapping add.sol\":1357:1363  tenant */\n      0x06\n      0x00\n      swap1\n      sload\n      swap1\n      0x0100\n      exp\n      swap1\n      div\n      0xffffffffffffffffffffffffffffffffffffffff\n      and\n        /* \"mapping add.sol\":1343:1363  msg.sender == tenant */\n      0xffffffffffffffffffffffffffffffffffffffff\n      and\n        /* \"mapping add.sol\":1343:1353  msg.sender */\n      caller\n        /* \"mapping add.sol\":1343:1363  msg.sender == tenant */\n      0xffffffffffffffffffffffffffffffffffffffff\n      and\n      eq\n        /* \"mapping add.sol\":1335:1406  require(msg.sender == tenant, \"Only the tenant can call this function\") */\n      tag_163\n      jumpi\n      mload(0x40)\n      0x08c379a000000000000000000000000000000000000000000000000000000000\n      dup2\n      mstore\n      0x04\n      add\n      tag_164\n      swap1\n      tag_165\n      jump\t// in\n    tag_164:\n      mload(0x40)\n      dup1\n      swap2\n      sub\n      swap1\n      revert\n    tag_163:\n        /* \"mapping add.sol\":1618:1631  depositAmount */\n      sload(0x07)\n        /* \"mapping add.sol\":1605:1614  msg.value */\n      callvalue\n        /* \"mapping add.sol\":1605:1631  msg.value == depositAmount */\n      eq\n        /* \"mapping add.sol\":1597:1665  require(msg.value == depositAmount, \"Deposit amount does not match\") */\n      tag_167\n      jumpi\n      mload(0x40)\n      0x08c379a000000000000000000000000000000000000000000000000000000000\n      dup2\n      mstore\n      0x04\n      add\n      tag_168\n      swap1\n      tag_169\n      jump\t// in\n    tag_168:\n      mload(0x40)\n      dup1\n      swap2\n      sub\n      swap1\n      revert\n    tag_167:\n        /* \"mapping add.sol\":1713:1717  true */\n      0x01\n        /* \"mapping add.sol\":1676:1698  hasPaidSecurityDeposit */\n      0x0a\n        /* \"mapping add.sol\":1676:1710  hasPaidSecurityDeposit[msg.sender] */\n      0x00\n        /* \"mapping add.sol\":1699:1709  msg.sender */\n      caller\n        /* \"mapping add.sol\":1676:1710  hasPaidSecurityDeposit[msg.sender] */\n      0xffffffffffffffffffffffffffffffffffffffff\n      and\n      0xffffffffffffffffffffffffffffffffffffffff\n      and\n      dup2\n      mstore\n      0x20\n      add\n      swap1\n      dup2\n      mstore\n      0x20\n      add\n      0x00\n      keccak256\n      0x00\n        /* \"mapping add.sol\":1676:1717  hasPaidSecurityDeposit[msg.sender] = true */\n      0x0100\n      exp\n      dup2\n      sload\n      dup2\n      0xff\n      mul\n      not\n      and\n      swap1\n      dup4\n      iszero\n      iszero\n      mul\n      or\n      swap1\n      sstore\n      pop\n        /* \"mapping add.sol\":1530:1767  function paySecurityDeposit() public payable onlyTenant {... */\n      jump\t// out\n        /* \"@openzeppelin/contracts/token/ERC20/ERC20.sol\":3419:3544  function balanceOf(address account) public view virtual override returns (uint256) {... */\n    tag_88:\n        /* \"@openzeppelin/contracts/token/ERC20/ERC20.sol\":3493:3500  uint256 */\n      0x00\n        /* \"@openzeppelin/contracts/token/ERC20/ERC20.sol\":3519:3528  _balances */\n      dup1\n        /* \"@openzeppelin/contracts/token/ERC20/ERC20.sol\":3519:3537  _balances[account] */\n      0x00\n        /* \"@openzeppelin/contracts/token/ERC20/ERC20.sol\":3529:3536  account */\n      dup4\n        /* \"@openzeppelin/contracts/token/ERC20/ERC20.sol\":3519:3537  _balances[account] */\n      0xffffffffffffffffffffffffffffffffffffffff\n      and\n      0xffffffffffffffffffffffffffffffffffffffff\n      and\n      dup2\n      mstore\n      0x20\n      add\n      swap1\n      dup2\n      mstore\n      0x20\n      add\n      0x00\n      keccak256\n      sload\n        /* \"@openzeppelin/contracts/token/ERC20/ERC20.sol\":3512:3537  return _balances[account] */\n      swap1\n      pop\n        /* \"@openzeppelin/contracts/token/ERC20/ERC20.sol\":3419:3544  function balanceOf(address account) public view virtual override returns (uint256) {... */\n      swap2\n      swap1\n      pop\n      jump\t// out\n        /* \"mapping add.sol\":733:753  address public owner */\n    tag_92:\n      0x05\n      0x00\n      swap1\n      sload\n      swap1\n      0x0100\n      exp\n      swap1\n      div\n      0xffffffffffffffffffffffffffffffffffffffff\n      and\n      dup2\n      jump\t// out\n        /* \"@openzeppelin/contracts/token/ERC20/ERC20.sol\":2369:2471  function symbol() public view virtual override returns (string memory) {... */\n    tag_97:\n        /* \"@openzeppelin/contracts/token/ERC20/ERC20.sol\":2425:2438  string memory */\n      0x60\n        /* \"@openzeppelin/contracts/token/ERC20/ERC20.sol\":2457:2464  _symbol */\n      0x04\n        /* \"@openzeppelin/contracts/token/ERC20/ERC20.sol\":2450:2464  return _symbol */\n      dup1\n      sload\n      tag_172\n      swap1\n      tag_132\n      jump\t// in\n    tag_172:\n      dup1\n      0x1f\n      add\n      0x20\n      dup1\n      swap2\n      div\n      mul\n      0x20\n      add\n      mload(0x40)\n      swap1\n      dup2\n      add\n      0x40\n      mstore\n      dup1\n      swap3\n      swap2\n      swap1\n      dup2\n      dup2\n      mstore\n      0x20\n      add\n      dup3\n      dup1\n      sload\n      tag_173\n      swap1\n      tag_132\n      jump\t// in\n    tag_173:\n      dup1\n      iszero\n      tag_174\n      jumpi\n      dup1\n      0x1f\n      lt\n      tag_175\n      jumpi\n      0x0100\n      dup1\n      dup4\n      sload\n      div\n      mul\n      dup4\n      mstore\n      swap2\n      0x20\n      add\n      swap2\n      jump(tag_174)\n    tag_175:\n      dup3\n      add\n      swap2\n      swap1\n      0x00\n      mstore\n      keccak256(0x00, 0x20)\n      swap1\n    tag_176:\n      dup2\n      sload\n      dup2\n      mstore\n      swap1\n      0x01\n      add\n      swap1\n      0x20\n      add\n      dup1\n      dup4\n      gt\n      tag_176\n      jumpi\n      dup3\n      swap1\n      sub\n      0x1f\n      and\n      dup3\n      add\n      swap2\n    tag_174:\n      pop\n      pop\n      pop\n      pop\n      pop\n      swap1\n      pop\n        /* \"@openzeppelin/contracts/token/ERC20/ERC20.sol\":2369:2471  function symbol() public view virtual override returns (string memory) {... */\n      swap1\n      jump\t// out\n        /* \"@openzeppelin/contracts/token/ERC20/ERC20.sol\":6575:7002  function decreaseAllowance(address spender, uint256 subtractedValue) public virtual returns (bool) {... */\n    tag_102:\n        /* \"@openzeppelin/contracts/token/ERC20/ERC20.sol\":6668:6672  bool */\n      0x00\n        /* \"@openzeppelin/contracts/token/ERC20/ERC20.sol\":6684:6697  address owner */\n      dup1\n        /* \"@openzeppelin/contracts/token/ERC20/ERC20.sol\":6700:6712  _msgSender() */\n      tag_178\n        /* \"@openzeppelin/contracts/token/ERC20/ERC20.sol\":6700:6710  _msgSender */\n      tag_139\n        /* \"@openzeppelin/contracts/token/ERC20/ERC20.sol\":6700:6712  _msgSender() */\n      jump\t// in\n    tag_178:\n        /* \"@openzeppelin/contracts/token/ERC20/ERC20.sol\":6684:6712  address owner = _msgSender() */\n      swap1\n      pop\n        /* \"@openzeppelin/contracts/token/ERC20/ERC20.sol\":6722:6746  uint256 currentAllowance */\n      0x00\n        /* \"@openzeppelin/contracts/token/ERC20/ERC20.sol\":6749:6774  allowance(owner, spender) */\n      tag_179\n        /* \"@openzeppelin/contracts/token/ERC20/ERC20.sol\":6759:6764  owner */\n      dup3\n        /* \"@openzeppelin/contracts/token/ERC20/ERC20.sol\":6766:6773  spender */\n      dup7\n        /* \"@openzeppelin/contracts/token/ERC20/ERC20.sol\":6749:6758  allowance */\n      tag_122\n        /* \"@openzeppelin/contracts/token/ERC20/ERC20.sol\":6749:6774  allowance(owner, spender) */\n      jump\t// in\n    tag_179:\n        /* \"@openzeppelin/contracts/token/ERC20/ERC20.sol\":6722:6774  uint256 currentAllowance = allowance(owner, spender) */\n      swap1\n      pop\n        /* \"@openzeppelin/contracts/token/ERC20/ERC20.sol\":6812:6827  subtractedValue */\n      dup4\n        /* \"@openzeppelin/contracts/token/ERC20/ERC20.sol\":6792:6808  currentAllowance */\n      dup2\n        /* \"@openzeppelin/contracts/token/ERC20/ERC20.sol\":6792:6827  currentAllowance >= subtractedValue */\n      lt\n      iszero\n        /* \"@openzeppelin/contracts/token/ERC20/ERC20.sol\":6784:6869  require(currentAllowance >= subtractedValue, \"ERC20: decreased allowance below zero\") */\n      tag_180\n      jumpi\n      mload(0x40)\n      0x08c379a000000000000000000000000000000000000000000000000000000000\n      dup2\n      mstore\n      0x04\n      add\n      tag_181\n      swap1\n      tag_182\n      jump\t// in\n    tag_181:\n      mload(0x40)\n      dup1\n      swap2\n      sub\n      swap1\n      revert\n    tag_180:\n        /* \"@openzeppelin/contracts/token/ERC20/ERC20.sol\":6903:6963  _approve(owner, spender, currentAllowance - subtractedValue) */\n      tag_183\n        /* \"@openzeppelin/contracts/token/ERC20/ERC20.sol\":6912:6917  owner */\n      dup3\n        /* \"@openzeppelin/contracts/token/ERC20/ERC20.sol\":6919:6926  spender */\n      dup7\n        /* \"@openzeppelin/contracts/token/ERC20/ERC20.sol\":6947:6962  subtractedValue */\n      dup7\n        /* \"@openzeppelin/contracts/token/ERC20/ERC20.sol\":6928:6944  currentAllowance */\n      dup5\n        /* \"@openzeppelin/contracts/token/ERC20/ERC20.sol\":6928:6962  currentAllowance - subtractedValue */\n      sub\n        /* \"@openzeppelin/contracts/token/ERC20/ERC20.sol\":6903:6911  _approve */\n      tag_141\n        /* \"@openzeppelin/contracts/token/ERC20/ERC20.sol\":6903:6963  _approve(owner, spender, currentAllowance - subtractedValue) */\n      jump\t// in\n    tag_183:\n        /* \"@openzeppelin/contracts/token/ERC20/ERC20.sol\":6991:6995  true */\n      0x01\n        /* \"@openzeppelin/contracts/token/ERC20/ERC20.sol\":6984:6995  return true */\n      swap3\n      pop\n      pop\n      pop\n        /* \"@openzeppelin/contracts/token/ERC20/ERC20.sol\":6575:7002  function decreaseAllowance(address spender, uint256 subtractedValue) public virtual returns (bool) {... */\n      swap3\n      swap2\n      pop\n      pop\n      jump\t// out\n        /* \"@openzeppelin/contracts/token/ERC20/ERC20.sol\":3740:3929  function transfer(address to, uint256 amount) public virtual override returns (bool) {... */\n    tag_107:\n        /* \"@openzeppelin/contracts/token/ERC20/ERC20.sol\":3819:3823  bool */\n      0x00\n        /* \"@openzeppelin/contracts/token/ERC20/ERC20.sol\":3835:3848  address owner */\n      dup1\n        /* \"@openzeppelin/contracts/token/ERC20/ERC20.sol\":3851:3863  _msgSender() */\n      tag_185\n        /* \"@openzeppelin/contracts/token/ERC20/ERC20.sol\":3851:3861  _msgSender */\n      tag_139\n        /* \"@openzeppelin/contracts/token/ERC20/ERC20.sol\":3851:3863  _msgSender() */\n      jump\t// in\n    tag_185:\n        /* \"@openzeppelin/contracts/token/ERC20/ERC20.sol\":3835:3863  address owner = _msgSender() */\n      swap1\n      pop\n        /* \"@openzeppelin/contracts/token/ERC20/ERC20.sol\":3873:3901  _transfer(owner, to, amount) */\n      tag_186\n        /* \"@openzeppelin/contracts/token/ERC20/ERC20.sol\":3883:3888  owner */\n      dup2\n        /* \"@openzeppelin/contracts/token/ERC20/ERC20.sol\":3890:3892  to */\n      dup6\n        /* \"@openzeppelin/contracts/token/ERC20/ERC20.sol\":3894:3900  amount */\n      dup6\n        /* \"@openzeppelin/contracts/token/ERC20/ERC20.sol\":3873:3882  _transfer */\n      tag_149\n        /* \"@openzeppelin/contracts/token/ERC20/ERC20.sol\":3873:3901  _transfer(owner, to, amount) */\n      jump\t// in\n    tag_186:\n        /* \"@openzeppelin/contracts/token/ERC20/ERC20.sol\":3918:3922  true */\n      0x01\n        /* \"@openzeppelin/contracts/token/ERC20/ERC20.sol\":3911:3922  return true */\n      swap2\n      pop\n      pop\n        /* \"@openzeppelin/contracts/token/ERC20/ERC20.sol\":3740:3929  function transfer(address to, uint256 amount) public virtual override returns (bool) {... */\n      swap3\n      swap2\n      pop\n      pop\n      jump\t// out\n        /* \"mapping add.sol\":760:781  address public tenant */\n    tag_111:\n      0x06\n      0x00\n      swap1\n      sload\n      swap1\n      0x0100\n      exp\n      swap1\n      div\n      0xffffffffffffffffffffffffffffffffffffffff\n      and\n      dup2\n      jump\t// out\n        /* \"mapping add.sol\":1882:2062  function withdrawRent(uint256 amount) public onlyOwner {... */\n    tag_117:\n        /* \"mapping add.sol\":1227:1232  owner */\n      0x05\n      0x00\n      swap1\n      sload\n      swap1\n      0x0100\n      exp\n      swap1\n      div\n      0xffffffffffffffffffffffffffffffffffffffff\n      and\n        /* \"mapping add.sol\":1213:1232  msg.sender == owner */\n      0xffffffffffffffffffffffffffffffffffffffff\n      and\n        /* \"mapping add.sol\":1213:1223  msg.sender */\n      caller\n        /* \"mapping add.sol\":1213:1232  msg.sender == owner */\n      0xffffffffffffffffffffffffffffffffffffffff\n      and\n      eq\n        /* \"mapping add.sol\":1205:1274  require(msg.sender == owner, \"Only the owner can call this function\") */\n      tag_188\n      jumpi\n      mload(0x40)\n      0x08c379a000000000000000000000000000000000000000000000000000000000\n      dup2\n      mstore\n      0x04\n      add\n      tag_189\n      swap1\n      tag_153\n      jump\t// in\n    tag_189:\n      mload(0x40)\n      dup1\n      swap2\n      sub\n      swap1\n      revert\n    tag_188:\n        /* \"mapping add.sol\":1966:1987  address(this).balance */\n      selfbalance\n        /* \"mapping add.sol\":1956:1962  amount */\n      dup2\n        /* \"mapping add.sol\":1956:1987  amount <= address(this).balance */\n      gt\n      iszero\n        /* \"mapping add.sol\":1948:2012  require(amount <= address(this).balance, \"Insufficient balance\") */\n      tag_191\n      jumpi\n      mload(0x40)\n      0x08c379a000000000000000000000000000000000000000000000000000000000\n      dup2\n      mstore\n      0x04\n      add\n      tag_192\n      swap1\n      tag_193\n      jump\t// in\n    tag_192:\n      mload(0x40)\n      dup1\n      swap2\n      sub\n      swap1\n      revert\n    tag_191:\n        /* \"mapping add.sol\":2031:2036  owner */\n      0x05\n      0x00\n      swap1\n      sload\n      swap1\n      0x0100\n      exp\n      swap1\n      div\n      0xffffffffffffffffffffffffffffffffffffffff\n      and\n        /* \"mapping add.sol\":2023:2046  payable(owner).transfer */\n      0xffffffffffffffffffffffffffffffffffffffff\n      and\n        /* \"mapping add.sol\":2023:2054  payable(owner).transfer(amount) */\n      0x08fc\n        /* \"mapping add.sol\":2047:2053  amount */\n      dup3\n        /* \"mapping add.sol\":2023:2054  payable(owner).transfer(amount) */\n      swap1\n      dup2\n      iszero\n      mul\n      swap1\n      mload(0x40)\n      0x00\n      mload(0x40)\n      dup1\n      dup4\n      sub\n      dup2\n      dup6\n      dup9\n      dup9\n      call\n      swap4\n      pop\n      pop\n      pop\n      pop\n      iszero\n      dup1\n      iszero\n      tag_195\n      jumpi\n      returndatasize\n      0x00\n      dup1\n      returndatacopy\n      revert(0x00, returndatasize)\n    tag_195:\n      pop\n        /* \"mapping add.sol\":1882:2062  function withdrawRent(uint256 amount) public onlyOwner {... */\n      pop\n      jump\t// out\n        /* \"@openzeppelin/contracts/token/ERC20/ERC20.sol\":3987:4136  function allowance(address owner, address spender) public view virtual override returns (uint256) {... */\n    tag_122:\n        /* \"@openzeppelin/contracts/token/ERC20/ERC20.sol\":4076:4083  uint256 */\n      0x00\n        /* \"@openzeppelin/contracts/token/ERC20/ERC20.sol\":4102:4113  _allowances */\n      0x01\n        /* \"@openzeppelin/contracts/token/ERC20/ERC20.sol\":4102:4120  _allowances[owner] */\n      0x00\n        /* \"@openzeppelin/contracts/token/ERC20/ERC20.sol\":4114:4119  owner */\n      dup5\n        /* \"@openzeppelin/contracts/token/ERC20/ERC20.sol\":4102:4120  _allowances[owner] */\n      0xffffffffffffffffffffffffffffffffffffffff\n      and\n      0xffffffffffffffffffffffffffffffffffffffff\n      and\n      dup2\n      mstore\n      0x20\n      add\n      swap1\n      dup2\n      mstore\n      0x20\n      add\n      0x00\n      keccak256\n        /* \"@openzeppelin/contracts/token/ERC20/ERC20.sol\":4102:4129  _allowances[owner][spender] */\n      0x00\n        /* \"@openzeppelin/contracts/token/ERC20/ERC20.sol\":4121:4128  spender */\n      dup4\n        /* \"@openzeppelin/contracts/token/ERC20/ERC20.sol\":4102:4129  _allowances[owner][spender] */\n      0xffffffffffffffffffffffffffffffffffffffff\n      and\n      0xffffffffffffffffffffffffffffffffffffffff\n      and\n      dup2\n      mstore\n      0x20\n      add\n      swap1\n      dup2\n      mstore\n      0x20\n      add\n      0x00\n      keccak256\n      sload\n        /* \"@openzeppelin/contracts/token/ERC20/ERC20.sol\":4095:4129  return _allowances[owner][spender] */\n      swap1\n      pop\n        /* \"@openzeppelin/contracts/token/ERC20/ERC20.sol\":3987:4136  function allowance(address owner, address spender) public view virtual override returns (uint256) {... */\n      swap3\n      swap2\n      pop\n      pop\n      jump\t// out\n        /* \"mapping add.sol\":905:966  mapping (address => PropertyDetails) public PropertykiDetails */\n    tag_127:\n      mstore(0x20, 0x09)\n      dup1\n      0x00\n      mstore\n      keccak256(0x00, 0x40)\n      0x00\n      swap2\n      pop\n      swap1\n      pop\n      dup1\n      0x00\n      add\n      dup1\n      sload\n      tag_197\n      swap1\n      tag_132\n      jump\t// in\n    tag_197:\n      dup1\n      0x1f\n      add\n      0x20\n      dup1\n      swap2\n      div\n      mul\n      0x20\n      add\n      mload(0x40)\n      swap1\n      dup2\n      add\n      0x40\n      mstore\n      dup1\n      swap3\n      swap2\n      swap1\n      dup2\n      dup2\n      mstore\n      0x20\n      add\n      dup3\n      dup1\n      sload\n      tag_198\n      swap1\n      tag_132\n      jump\t// in\n    tag_198:\n      dup1\n      iszero\n      tag_199\n      jumpi\n      dup1\n      0x1f\n      lt\n      tag_200\n      jumpi\n      0x0100\n      dup1\n      dup4\n      sload\n      div\n      mul\n      dup4\n      mstore\n      swap2\n      0x20\n      add\n      swap2\n      jump(tag_199)\n    tag_200:\n      dup3\n      add\n      swap2\n      swap1\n      0x00\n      mstore\n      keccak256(0x00, 0x20)\n      swap1\n    tag_201:\n      dup2\n      sload\n      dup2\n      mstore\n      swap1\n      0x01\n      add\n      swap1\n      0x20\n      add\n      dup1\n      dup4\n      gt\n      tag_201\n      jumpi\n      dup3\n      swap1\n      sub\n      0x1f\n      and\n      dup3\n      add\n      swap2\n    tag_199:\n      pop\n      pop\n      pop\n      pop\n      pop\n      swap1\n      dup1\n      0x01\n      add\n      dup1\n      sload\n      tag_202\n      swap1\n      tag_132\n      jump\t// in\n    tag_202:\n      dup1\n      0x1f\n      add\n      0x20\n      dup1\n      swap2\n      div\n      mul\n      0x20\n      add\n      mload(0x40)\n      swap1\n      dup2\n      add\n      0x40\n      mstore\n      dup1\n      swap3\n      swap2\n      swap1\n      dup2\n      dup2\n      mstore\n      0x20\n      add\n      dup3\n      dup1\n      sload\n      tag_203\n      swap1\n      tag_132\n      jump\t// in\n    tag_203:\n      dup1\n      iszero\n      tag_204\n      jumpi\n      dup1\n      0x1f\n      lt\n      tag_205\n      jumpi\n      0x0100\n      dup1\n      dup4\n      sload\n      div\n      mul\n      dup4\n      mstore\n      swap2\n      0x20\n      add\n      swap2\n      jump(tag_204)\n    tag_205:\n      dup3\n      add\n      swap2\n      swap1\n      0x00\n      mstore\n      keccak256(0x00, 0x20)\n      swap1\n    tag_206:\n      dup2\n      sload\n      dup2\n      mstore\n      swap1\n      0x01\n      add\n      swap1\n      0x20\n      add\n      dup1\n      dup4\n      gt\n      tag_206\n      jumpi\n      dup3\n      swap1\n      sub\n      0x1f\n      and\n      dup3\n      add\n      swap2\n    tag_204:\n      pop\n      pop\n      pop\n      pop\n      pop\n      swap1\n      dup1\n      0x02\n      add\n      sload\n      swap1\n      pop\n      dup4\n      jump\t// out\n        /* \"@openzeppelin/contracts/utils/Context.sol\":640:736  function _msgSender() internal view virtual returns (address) {... */\n    tag_139:\n        /* \"@openzeppelin/contracts/utils/Context.sol\":693:700  address */\n      0x00\n        /* \"@openzeppelin/contracts/utils/Context.sol\":719:729  msg.sender */\n      caller\n        /* \"@openzeppelin/contracts/utils/Context.sol\":712:729  return msg.sender */\n      swap1\n      pop\n        /* \"@openzeppelin/contracts/utils/Context.sol\":640:736  function _msgSender() internal view virtual returns (address) {... */\n      swap1\n      jump\t// out\n        /* \"@openzeppelin/contracts/token/ERC20/ERC20.sol\":10457:10797  function _approve(address owner, address spender, uint256 amount) internal virtual {... */\n    tag_141:\n        /* \"@openzeppelin/contracts/token/ERC20/ERC20.sol\":10575:10576  0 */\n      0x00\n        /* \"@openzeppelin/contracts/token/ERC20/ERC20.sol\":10558:10577  owner != address(0) */\n      0xffffffffffffffffffffffffffffffffffffffff\n      and\n        /* \"@openzeppelin/contracts/token/ERC20/ERC20.sol\":10558:10563  owner */\n      dup4\n        /* \"@openzeppelin/contracts/token/ERC20/ERC20.sol\":10558:10577  owner != address(0) */\n      0xffffffffffffffffffffffffffffffffffffffff\n      and\n      sub\n        /* \"@openzeppelin/contracts/token/ERC20/ERC20.sol\":10550:10618  require(owner != address(0), \"ERC20: approve from the zero address\") */\n      tag_209\n      jumpi\n      mload(0x40)\n      0x08c379a000000000000000000000000000000000000000000000000000000000\n      dup2\n      mstore\n      0x04\n      add\n      tag_210\n      swap1\n      tag_211\n      jump\t// in\n    tag_210:\n      mload(0x40)\n      dup1\n      swap2\n      sub\n      swap1\n      revert\n    tag_209:\n        /* \"@openzeppelin/contracts/token/ERC20/ERC20.sol\":10655:10656  0 */\n      0x00\n        /* \"@openzeppelin/contracts/token/ERC20/ERC20.sol\":10636:10657  spender != address(0) */\n      0xffffffffffffffffffffffffffffffffffffffff\n      and\n        /* \"@openzeppelin/contracts/token/ERC20/ERC20.sol\":10636:10643  spender */\n      dup3\n        /* \"@openzeppelin/contracts/token/ERC20/ERC20.sol\":10636:10657  spender != address(0) */\n      0xffffffffffffffffffffffffffffffffffffffff\n      and\n      sub\n        /* \"@openzeppelin/contracts/token/ERC20/ERC20.sol\":10628:10696  require(spender != address(0), \"ERC20: approve to the zero address\") */\n      tag_212\n      jumpi\n      mload(0x40)\n      0x08c379a000000000000000000000000000000000000000000000000000000000\n      dup2\n      mstore\n      0x04\n      add\n      tag_213\n      swap1\n      tag_214\n      jump\t// in\n    tag_213:\n      mload(0x40)\n      dup1\n      swap2\n      sub\n      swap1\n      revert\n    tag_212:\n        /* \"@openzeppelin/contracts/token/ERC20/ERC20.sol\":10737:10743  amount */\n      dup1\n        /* \"@openzeppelin/contracts/token/ERC20/ERC20.sol\":10707:10718  _allowances */\n      0x01\n        /* \"@openzeppelin/contracts/token/ERC20/ERC20.sol\":10707:10725  _allowances[owner] */\n      0x00\n        /* \"@openzeppelin/contracts/token/ERC20/ERC20.sol\":10719:10724  owner */\n      dup6\n        /* \"@openzeppelin/contracts/token/ERC20/ERC20.sol\":10707:10725  _allowances[owner] */\n      0xffffffffffffffffffffffffffffffffffffffff\n      and\n      0xffffffffffffffffffffffffffffffffffffffff\n      and\n      dup2\n      mstore\n      0x20\n      add\n      swap1\n      dup2\n      mstore\n      0x20\n      add\n      0x00\n      keccak256\n        /* \"@openzeppelin/contracts/token/ERC20/ERC20.sol\":10707:10734  _allowances[owner][spender] */\n      0x00\n        /* \"@openzeppelin/contracts/token/ERC20/ERC20.sol\":10726:10733  spender */\n      dup5\n        /* \"@openzeppelin/contracts/token/ERC20/ERC20.sol\":10707:10734  _allowances[owner][spender] */\n      0xffffffffffffffffffffffffffffffffffffffff\n      and\n      0xffffffffffffffffffffffffffffffffffffffff\n      and\n      dup2\n      mstore\n      0x20\n      add\n      swap1\n      dup2\n      mstore\n      0x20\n      add\n      0x00\n      keccak256\n        /* \"@openzeppelin/contracts/token/ERC20/ERC20.sol\":10707:10743  _allowances[owner][spender] = amount */\n      dup2\n      swap1\n      sstore\n      pop\n        /* \"@openzeppelin/contracts/token/ERC20/ERC20.sol\":10774:10781  spender */\n      dup2\n        /* \"@openzeppelin/contracts/token/ERC20/ERC20.sol\":10758:10790  Approval(owner, spender, amount) */\n      0xffffffffffffffffffffffffffffffffffffffff\n      and\n        /* \"@openzeppelin/contracts/token/ERC20/ERC20.sol\":10767:10772  owner */\n      dup4\n        /* \"@openzeppelin/contracts/token/ERC20/ERC20.sol\":10758:10790  Approval(owner, spender, amount) */\n      0xffffffffffffffffffffffffffffffffffffffff\n      and\n      0x8c5be1e5ebec7d5bd14f71427d1e84f3dd0314c0f7b2291e5b200ac8c7c3b925\n        /* \"@openzeppelin/contracts/token/ERC20/ERC20.sol\":10783:10789  amount */\n      dup4\n        /* \"@openzeppelin/contracts/token/ERC20/ERC20.sol\":10758:10790  Approval(owner, spender, amount) */\n      mload(0x40)\n      tag_215\n      swap2\n      swap1\n      tag_49\n      jump\t// in\n    tag_215:\n      mload(0x40)\n      dup1\n      swap2\n      sub\n      swap1\n      log3\n        /* \"@openzeppelin/contracts/token/ERC20/ERC20.sol\":10457:10797  function _approve(address owner, address spender, uint256 amount) internal virtual {... */\n      pop\n      pop\n      pop\n      jump\t// out\n        /* \"@openzeppelin/contracts/token/ERC20/ERC20.sol\":11078:11489  function _spendAllowance(address owner, address spender, uint256 amount) internal virtual {... */\n    tag_147:\n        /* \"@openzeppelin/contracts/token/ERC20/ERC20.sol\":11178:11202  uint256 currentAllowance */\n      0x00\n        /* \"@openzeppelin/contracts/token/ERC20/ERC20.sol\":11205:11230  allowance(owner, spender) */\n      tag_217\n        /* \"@openzeppelin/contracts/token/ERC20/ERC20.sol\":11215:11220  owner */\n      dup5\n        /* \"@openzeppelin/contracts/token/ERC20/ERC20.sol\":11222:11229  spender */\n      dup5\n        /* \"@openzeppelin/contracts/token/ERC20/ERC20.sol\":11205:11214  allowance */\n      tag_122\n        /* \"@openzeppelin/contracts/token/ERC20/ERC20.sol\":11205:11230  allowance(owner, spender) */\n      jump\t// in\n    tag_217:\n        /* \"@openzeppelin/contracts/token/ERC20/ERC20.sol\":11178:11230  uint256 currentAllowance = allowance(owner, spender) */\n      swap1\n      pop\n        /* \"@openzeppelin/contracts/token/ERC20/ERC20.sol\":11264:11281  type(uint256).max */\n      0xffffffffffffffffffffffffffffffffffffffffffffffffffffffffffffffff\n        /* \"@openzeppelin/contracts/token/ERC20/ERC20.sol\":11244:11260  currentAllowance */\n      dup2\n        /* \"@openzeppelin/contracts/token/ERC20/ERC20.sol\":11244:11281  currentAllowance != type(uint256).max */\n      eq\n        /* \"@openzeppelin/contracts/token/ERC20/ERC20.sol\":11240:11483  if (currentAllowance != type(uint256).max) {... */\n      tag_218\n      jumpi\n        /* \"@openzeppelin/contracts/token/ERC20/ERC20.sol\":11325:11331  amount */\n      dup2\n        /* \"@openzeppelin/contracts/token/ERC20/ERC20.sol\":11305:11321  currentAllowance */\n      dup2\n        /* \"@openzeppelin/contracts/token/ERC20/ERC20.sol\":11305:11331  currentAllowance >= amount */\n      lt\n      iszero\n        /* \"@openzeppelin/contracts/token/ERC20/ERC20.sol\":11297:11365  require(currentAllowance >= amount, \"ERC20: insufficient allowance\") */\n      tag_219\n      jumpi\n      mload(0x40)\n      0x08c379a000000000000000000000000000000000000000000000000000000000\n      dup2\n      mstore\n      0x04\n      add\n      tag_220\n      swap1\n      tag_221\n      jump\t// in\n    tag_220:\n      mload(0x40)\n      dup1\n      swap2\n      sub\n      swap1\n      revert\n    tag_219:\n        /* \"@openzeppelin/contracts/token/ERC20/ERC20.sol\":11407:11458  _approve(owner, spender, currentAllowance - amount) */\n      tag_222\n        /* \"@openzeppelin/contracts/token/ERC20/ERC20.sol\":11416:11421  owner */\n      dup5\n        /* \"@openzeppelin/contracts/token/ERC20/ERC20.sol\":11423:11430  spender */\n      dup5\n        /* \"@openzeppelin/contracts/token/ERC20/ERC20.sol\":11451:11457  amount */\n      dup5\n        /* \"@openzeppelin/contracts/token/ERC20/ERC20.sol\":11432:11448  currentAllowance */\n      dup5\n        /* \"@openzeppelin/contracts/token/ERC20/ERC20.sol\":11432:11457  currentAllowance - amount */\n      sub\n        /* \"@openzeppelin/contracts/token/ERC20/ERC20.sol\":11407:11415  _approve */\n      tag_141\n        /* \"@openzeppelin/contracts/token/ERC20/ERC20.sol\":11407:11458  _approve(owner, spender, currentAllowance - amount) */\n      jump\t// in\n    tag_222:\n        /* \"@openzeppelin/contracts/token/ERC20/ERC20.sol\":11240:11483  if (currentAllowance != type(uint256).max) {... */\n    tag_218:\n        /* \"@openzeppelin/contracts/token/ERC20/ERC20.sol\":11168:11489  {... */\n      pop\n        /* \"@openzeppelin/contracts/token/ERC20/ERC20.sol\":11078:11489  function _spendAllowance(address owner, address spender, uint256 amount) internal virtual {... */\n      pop\n      pop\n      pop\n      jump\t// out\n        /* \"@openzeppelin/contracts/token/ERC20/ERC20.sol\":7456:8244  function _transfer(address from, address to, uint256 amount) internal virtual {... */\n    tag_149:\n        /* \"@openzeppelin/contracts/token/ERC20/ERC20.sol\":7568:7569  0 */\n      0x00\n        /* \"@openzeppelin/contracts/token/ERC20/ERC20.sol\":7552:7570  from != address(0) */\n      0xffffffffffffffffffffffffffffffffffffffff\n      and\n        /* \"@openzeppelin/contracts/token/ERC20/ERC20.sol\":7552:7556  from */\n      dup4\n        /* \"@openzeppelin/contracts/token/ERC20/ERC20.sol\":7552:7570  from != address(0) */\n      0xffffffffffffffffffffffffffffffffffffffff\n      and\n      sub\n        /* \"@openzeppelin/contracts/token/ERC20/ERC20.sol\":7544:7612  require(from != address(0), \"ERC20: transfer from the zero address\") */\n      tag_224\n      jumpi\n      mload(0x40)\n      0x08c379a000000000000000000000000000000000000000000000000000000000\n      dup2\n      mstore\n      0x04\n      add\n      tag_225\n      swap1\n      tag_226\n      jump\t// in\n    tag_225:\n      mload(0x40)\n      dup1\n      swap2\n      sub\n      swap1\n      revert\n    tag_224:\n        /* \"@openzeppelin/contracts/token/ERC20/ERC20.sol\":7644:7645  0 */\n      0x00\n        /* \"@openzeppelin/contracts/token/ERC20/ERC20.sol\":7630:7646  to != address(0) */\n      0xffffffffffffffffffffffffffffffffffffffff\n      and\n        /* \"@openzeppelin/contracts/token/ERC20/ERC20.sol\":7630:7632  to */\n      dup3\n        /* \"@openzeppelin/contracts/token/ERC20/ERC20.sol\":7630:7646  to != address(0) */\n      0xffffffffffffffffffffffffffffffffffffffff\n      and\n      sub\n        /* \"@openzeppelin/contracts/token/ERC20/ERC20.sol\":7622:7686  require(to != address(0), \"ERC20: transfer to the zero address\") */\n      tag_227\n      jumpi\n      mload(0x40)\n      0x08c379a000000000000000000000000000000000000000000000000000000000\n      dup2\n      mstore\n      0x04\n      add\n      tag_228\n      swap1\n      tag_229\n      jump\t// in\n    tag_228:\n      mload(0x40)\n      dup1\n      swap2\n      sub\n      swap1\n      revert\n    tag_227:\n        /* \"@openzeppelin/contracts/token/ERC20/ERC20.sol\":7697:7735  _beforeTokenTransfer(from, to, amount) */\n      tag_230\n        /* \"@openzeppelin/contracts/token/ERC20/ERC20.sol\":7718:7722  from */\n      dup4\n        /* \"@openzeppelin/contracts/token/ERC20/ERC20.sol\":7724:7726  to */\n      dup4\n        /* \"@openzeppelin/contracts/token/ERC20/ERC20.sol\":7728:7734  amount */\n      dup4\n        /* \"@openzeppelin/contracts/token/ERC20/ERC20.sol\":7697:7717  _beforeTokenTransfer */\n      tag_231\n        /* \"@openzeppelin/contracts/token/ERC20/ERC20.sol\":7697:7735  _beforeTokenTransfer(from, to, amount) */\n      jump\t// in\n    tag_230:\n        /* \"@openzeppelin/contracts/token/ERC20/ERC20.sol\":7746:7765  uint256 fromBalance */\n      0x00\n        /* \"@openzeppelin/contracts/token/ERC20/ERC20.sol\":7768:7777  _balances */\n      dup1\n        /* \"@openzeppelin/contracts/token/ERC20/ERC20.sol\":7768:7783  _balances[from] */\n      0x00\n        /* \"@openzeppelin/contracts/token/ERC20/ERC20.sol\":7778:7782  from */\n      dup6\n        /* \"@openzeppelin/contracts/token/ERC20/ERC20.sol\":7768:7783  _balances[from] */\n      0xffffffffffffffffffffffffffffffffffffffff\n      and\n      0xffffffffffffffffffffffffffffffffffffffff\n      and\n      dup2\n      mstore\n      0x20\n      add\n      swap1\n      dup2\n      mstore\n      0x20\n      add\n      0x00\n      keccak256\n      sload\n        /* \"@openzeppelin/contracts/token/ERC20/ERC20.sol\":7746:7783  uint256 fromBalance = _balances[from] */\n      swap1\n      pop\n        /* \"@openzeppelin/contracts/token/ERC20/ERC20.sol\":7816:7822  amount */\n      dup2\n        /* \"@openzeppelin/contracts/token/ERC20/ERC20.sol\":7801:7812  fromBalance */\n      dup2\n        /* \"@openzeppelin/contracts/token/ERC20/ERC20.sol\":7801:7822  fromBalance >= amount */\n      lt\n      iszero\n        /* \"@openzeppelin/contracts/token/ERC20/ERC20.sol\":7793:7865  require(fromBalance >= amount, \"ERC20: transfer amount exceeds balance\") */\n      tag_232\n      jumpi\n      mload(0x40)\n      0x08c379a000000000000000000000000000000000000000000000000000000000\n      dup2\n      mstore\n      0x04\n      add\n      tag_233\n      swap1\n      tag_234\n      jump\t// in\n    tag_233:\n      mload(0x40)\n      dup1\n      swap2\n      sub\n      swap1\n      revert\n    tag_232:\n        /* \"@openzeppelin/contracts/token/ERC20/ERC20.sol\":7931:7937  amount */\n      dup2\n        /* \"@openzeppelin/contracts/token/ERC20/ERC20.sol\":7917:7928  fromBalance */\n      dup2\n        /* \"@openzeppelin/contracts/token/ERC20/ERC20.sol\":7917:7937  fromBalance - amount */\n      sub\n        /* \"@openzeppelin/contracts/token/ERC20/ERC20.sol\":7899:7908  _balances */\n      0x00\n        /* \"@openzeppelin/contracts/token/ERC20/ERC20.sol\":7899:7914  _balances[from] */\n      dup1\n        /* \"@openzeppelin/contracts/token/ERC20/ERC20.sol\":7909:7913  from */\n      dup7\n        /* \"@openzeppelin/contracts/token/ERC20/ERC20.sol\":7899:7914  _balances[from] */\n      0xffffffffffffffffffffffffffffffffffffffff\n      and\n      0xffffffffffffffffffffffffffffffffffffffff\n      and\n      dup2\n      mstore\n      0x20\n      add\n      swap1\n      dup2\n      mstore\n      0x20\n      add\n      0x00\n      keccak256\n        /* \"@openzeppelin/contracts/token/ERC20/ERC20.sol\":7899:7937  _balances[from] = fromBalance - amount */\n      dup2\n      swap1\n      sstore\n      pop\n        /* \"@openzeppelin/contracts/token/ERC20/ERC20.sol\":8131:8137  amount */\n      dup2\n        /* \"@openzeppelin/contracts/token/ERC20/ERC20.sol\":8114:8123  _balances */\n      0x00\n        /* \"@openzeppelin/contracts/token/ERC20/ERC20.sol\":8114:8127  _balances[to] */\n      dup1\n        /* \"@openzeppelin/contracts/token/ERC20/ERC20.sol\":8124:8126  to */\n      dup6\n        /* \"@openzeppelin/contracts/token/ERC20/ERC20.sol\":8114:8127  _balances[to] */\n      0xffffffffffffffffffffffffffffffffffffffff\n      and\n      0xffffffffffffffffffffffffffffffffffffffff\n      and\n      dup2\n      mstore\n      0x20\n      add\n      swap1\n      dup2\n      mstore\n      0x20\n      add\n      0x00\n      keccak256\n      0x00\n        /* \"@openzeppelin/contracts/token/ERC20/ERC20.sol\":8114:8137  _balances[to] += amount */\n      dup3\n      dup3\n      sload\n      add\n      swap3\n      pop\n      pop\n      dup2\n      swap1\n      sstore\n      pop\n        /* \"@openzeppelin/contracts/token/ERC20/ERC20.sol\":8178:8180  to */\n      dup3\n        /* \"@openzeppelin/contracts/token/ERC20/ERC20.sol\":8163:8189  Transfer(from, to, amount) */\n      0xffffffffffffffffffffffffffffffffffffffff\n      and\n        /* \"@openzeppelin/contracts/token/ERC20/ERC20.sol\":8172:8176  from */\n      dup5\n        /* \"@openzeppelin/contracts/token/ERC20/ERC20.sol\":8163:8189  Transfer(from, to, amount) */\n      0xffffffffffffffffffffffffffffffffffffffff\n      and\n      0xddf252ad1be2c89b69c2b068fc378daa952ba7f163c4a11628f55a4df523b3ef\n        /* \"@openzeppelin/contracts/token/ERC20/ERC20.sol\":8182:8188  amount */\n      dup5\n        /* \"@openzeppelin/contracts/token/ERC20/ERC20.sol\":8163:8189  Transfer(from, to, amount) */\n      mload(0x40)\n      tag_235\n      swap2\n      swap1\n      tag_49\n      jump\t// in\n    tag_235:\n      mload(0x40)\n      dup1\n      swap2\n      sub\n      swap1\n      log3\n        /* \"@openzeppelin/contracts/token/ERC20/ERC20.sol\":8200:8237  _afterTokenTransfer(from, to, amount) */\n      tag_236\n        /* \"@openzeppelin/contracts/token/ERC20/ERC20.sol\":8220:8224  from */\n      dup5\n        /* \"@openzeppelin/contracts/token/ERC20/ERC20.sol\":8226:8228  to */\n      dup5\n        /* \"@openzeppelin/contracts/token/ERC20/ERC20.sol\":8230:8236  amount */\n      dup5\n        /* \"@openzeppelin/contracts/token/ERC20/ERC20.sol\":8200:8219  _afterTokenTransfer */\n      tag_237\n        /* \"@openzeppelin/contracts/token/ERC20/ERC20.sol\":8200:8237  _afterTokenTransfer(from, to, amount) */\n      jump\t// in\n    tag_236:\n        /* \"@openzeppelin/contracts/token/ERC20/ERC20.sol\":7534:8244  {... */\n      pop\n        /* \"@openzeppelin/contracts/token/ERC20/ERC20.sol\":7456:8244  function _transfer(address from, address to, uint256 amount) internal virtual {... */\n      pop\n      pop\n      pop\n      jump\t// out\n        /* \"@openzeppelin/contracts/token/ERC20/ERC20.sol\":12073:12164  function _beforeTokenTransfer(address from, address to, uint256 amount) internal virtual {} */\n    tag_231:\n      pop\n      pop\n      pop\n      jump\t// out\n        /* \"@openzeppelin/contracts/token/ERC20/ERC20.sol\":12752:12842  function _afterTokenTransfer(address from, address to, uint256 amount) internal virtual {} */\n    tag_237:\n      pop\n      pop\n      pop\n      jump\t// out\n        /* \"#utility.yul\":7:106   */\n    tag_240:\n        /* \"#utility.yul\":59:65   */\n      0x00\n        /* \"#utility.yul\":93:98   */\n      dup2\n        /* \"#utility.yul\":87:99   */\n      mload\n        /* \"#utility.yul\":77:99   */\n      swap1\n      pop\n        /* \"#utility.yul\":7:106   */\n      swap2\n      swap1\n      pop\n      jump\t// out\n        /* \"#utility.yul\":112:281   */\n    tag_241:\n        /* \"#utility.yul\":196:207   */\n      0x00\n        /* \"#utility.yul\":230:236   */\n      dup3\n        /* \"#utility.yul\":225:228   */\n      dup3\n        /* \"#utility.yul\":218:237   */\n      mstore\n        /* \"#utility.yul\":270:274   */\n      0x20\n        /* \"#utility.yul\":265:268   */\n      dup3\n        /* \"#utility.yul\":261:275   */\n      add\n        /* \"#utility.yul\":246:275   */\n      swap1\n      pop\n        /* \"#utility.yul\":112:281   */\n      swap3\n      swap2\n      pop\n      pop\n      jump\t// out\n        /* \"#utility.yul\":287:533   */\n    tag_242:\n        /* \"#utility.yul\":368:369   */\n      0x00\n        /* \"#utility.yul\":378:491   */\n    tag_289:\n        /* \"#utility.yul\":392:398   */\n      dup4\n        /* \"#utility.yul\":389:390   */\n      dup2\n        /* \"#utility.yul\":386:399   */\n      lt\n        /* \"#utility.yul\":378:491   */\n      iszero\n      tag_291\n      jumpi\n        /* \"#utility.yul\":477:478   */\n      dup1\n        /* \"#utility.yul\":472:475   */\n      dup3\n        /* \"#utility.yul\":468:479   */\n      add\n        /* \"#utility.yul\":462:480   */\n      mload\n        /* \"#utility.yul\":458:459   */\n      dup2\n        /* \"#utility.yul\":453:456   */\n      dup5\n        /* \"#utility.yul\":449:460   */\n      add\n        /* \"#utility.yul\":442:481   */\n      mstore\n        /* \"#utility.yul\":414:416   */\n      0x20\n        /* \"#utility.yul\":411:412   */\n      dup2\n        /* \"#utility.yul\":407:417   */\n      add\n        /* \"#utility.yul\":402:417   */\n      swap1\n      pop\n        /* \"#utility.yul\":378:491   */\n      jump(tag_289)\n    tag_291:\n        /* \"#utility.yul\":525:526   */\n      0x00\n        /* \"#utility.yul\":516:522   */\n      dup5\n        /* \"#utility.yul\":511:514   */\n      dup5\n        /* \"#utility.yul\":507:523   */\n      add\n        /* \"#utility.yul\":500:527   */\n      mstore\n        /* \"#utility.yul\":349:533   */\n      pop\n        /* \"#utility.yul\":287:533   */\n      pop\n      pop\n      pop\n      jump\t// out\n        /* \"#utility.yul\":539:641   */\n    tag_243:\n        /* \"#utility.yul\":580:586   */\n      0x00\n        /* \"#utility.yul\":631:633   */\n      0x1f\n        /* \"#utility.yul\":627:634   */\n      not\n        /* \"#utility.yul\":622:624   */\n      0x1f\n        /* \"#utility.yul\":615:620   */\n      dup4\n        /* \"#utility.yul\":611:625   */\n      add\n        /* \"#utility.yul\":607:635   */\n      and\n        /* \"#utility.yul\":597:635   */\n      swap1\n      pop\n        /* \"#utility.yul\":539:641   */\n      swap2\n      swap1\n      pop\n      jump\t// out\n        /* \"#utility.yul\":647:1024   */\n    tag_244:\n        /* \"#utility.yul\":735:738   */\n      0x00\n        /* \"#utility.yul\":763:802   */\n      tag_294\n        /* \"#utility.yul\":796:801   */\n      dup3\n        /* \"#utility.yul\":763:802   */\n      tag_240\n      jump\t// in\n    tag_294:\n        /* \"#utility.yul\":818:889   */\n      tag_295\n        /* \"#utility.yul\":882:888   */\n      dup2\n        /* \"#utility.yul\":877:880   */\n      dup6\n        /* \"#utility.yul\":818:889   */\n      tag_241\n      jump\t// in\n    tag_295:\n        /* \"#utility.yul\":811:889   */\n      swap4\n      pop\n        /* \"#utility.yul\":898:963   */\n      tag_296\n        /* \"#utility.yul\":956:962   */\n      dup2\n        /* \"#utility.yul\":951:954   */\n      dup6\n        /* \"#utility.yul\":944:948   */\n      0x20\n        /* \"#utility.yul\":937:942   */\n      dup7\n        /* \"#utility.yul\":933:949   */\n      add\n        /* \"#utility.yul\":898:963   */\n      tag_242\n      jump\t// in\n    tag_296:\n        /* \"#utility.yul\":988:1017   */\n      tag_297\n        /* \"#utility.yul\":1010:1016   */\n      dup2\n        /* \"#utility.yul\":988:1017   */\n      tag_243\n      jump\t// in\n    tag_297:\n        /* \"#utility.yul\":983:986   */\n      dup5\n        /* \"#utility.yul\":979:1018   */\n      add\n        /* \"#utility.yul\":972:1018   */\n      swap2\n      pop\n        /* \"#utility.yul\":739:1024   */\n      pop\n        /* \"#utility.yul\":647:1024   */\n      swap3\n      swap2\n      pop\n      pop\n      jump\t// out\n        /* \"#utility.yul\":1030:1343   */\n    tag_30:\n        /* \"#utility.yul\":1143:1147   */\n      0x00\n        /* \"#utility.yul\":1181:1183   */\n      0x20\n        /* \"#utility.yul\":1170:1179   */\n      dup3\n        /* \"#utility.yul\":1166:1184   */\n      add\n        /* \"#utility.yul\":1158:1184   */\n      swap1\n      pop\n        /* \"#utility.yul\":1230:1239   */\n      dup2\n        /* \"#utility.yul\":1224:1228   */\n      dup2\n        /* \"#utility.yul\":1220:1240   */\n      sub\n        /* \"#utility.yul\":1216:1217   */\n      0x00\n        /* \"#utility.yul\":1205:1214   */\n      dup4\n        /* \"#utility.yul\":1201:1218   */\n      add\n        /* \"#utility.yul\":1194:1241   */\n      mstore\n        /* \"#utility.yul\":1258:1336   */\n      tag_299\n        /* \"#utility.yul\":1331:1335   */\n      dup2\n        /* \"#utility.yul\":1322:1328   */\n      dup5\n        /* \"#utility.yul\":1258:1336   */\n      tag_244\n      jump\t// in\n    tag_299:\n        /* \"#utility.yul\":1250:1336   */\n      swap1\n      pop\n        /* \"#utility.yul\":1030:1343   */\n      swap3\n      swap2\n      pop\n      pop\n      jump\t// out\n        /* \"#utility.yul\":1430:1547   */\n    tag_246:\n        /* \"#utility.yul\":1539:1540   */\n      0x00\n        /* \"#utility.yul\":1536:1537   */\n      dup1\n        /* \"#utility.yul\":1529:1541   */\n      revert\n        /* \"#utility.yul\":1676:1802   */\n    tag_248:\n        /* \"#utility.yul\":1713:1720   */\n      0x00\n        /* \"#utility.yul\":1753:1795   */\n      0xffffffffffffffffffffffffffffffffffffffff\n        /* \"#utility.yul\":1746:1751   */\n      dup3\n        /* \"#utility.yul\":1742:1796   */\n      and\n        /* \"#utility.yul\":1731:1796   */\n      swap1\n      pop\n        /* \"#utility.yul\":1676:1802   */\n      swap2\n      swap1\n      pop\n      jump\t// out\n        /* \"#utility.yul\":1808:1904   */\n    tag_249:\n        /* \"#utility.yul\":1845:1852   */\n      0x00\n        /* \"#utility.yul\":1874:1898   */\n      tag_305\n        /* \"#utility.yul\":1892:1897   */\n      dup3\n        /* \"#utility.yul\":1874:1898   */\n      tag_248\n      jump\t// in\n    tag_305:\n        /* \"#utility.yul\":1863:1898   */\n      swap1\n      pop\n        /* \"#utility.yul\":1808:1904   */\n      swap2\n      swap1\n      pop\n      jump\t// out\n        /* \"#utility.yul\":1910:2032   */\n    tag_250:\n        /* \"#utility.yul\":1983:2007   */\n      tag_307\n        /* \"#utility.yul\":2001:2006   */\n      dup2\n        /* \"#utility.yul\":1983:2007   */\n      tag_249\n      jump\t// in\n    tag_307:\n        /* \"#utility.yul\":1976:1981   */\n      dup2\n        /* \"#utility.yul\":1973:2008   */\n      eq\n        /* \"#utility.yul\":1963:2026   */\n      tag_308\n      jumpi\n        /* \"#utility.yul\":2022:2023   */\n      0x00\n        /* \"#utility.yul\":2019:2020   */\n      dup1\n        /* \"#utility.yul\":2012:2024   */\n      revert\n        /* \"#utility.yul\":1963:2026   */\n    tag_308:\n        /* \"#utility.yul\":1910:2032   */\n      pop\n      jump\t// out\n        /* \"#utility.yul\":2038:2177   */\n    tag_251:\n        /* \"#utility.yul\":2084:2089   */\n      0x00\n        /* \"#utility.yul\":2122:2128   */\n      dup2\n        /* \"#utility.yul\":2109:2129   */\n      calldataload\n        /* \"#utility.yul\":2100:2129   */\n      swap1\n      pop\n        /* \"#utility.yul\":2138:2171   */\n      tag_310\n        /* \"#utility.yul\":2165:2170   */\n      dup2\n        /* \"#utility.yul\":2138:2171   */\n      tag_250\n      jump\t// in\n    tag_310:\n        /* \"#utility.yul\":2038:2177   */\n      swap3\n      swap2\n      pop\n      pop\n      jump\t// out\n        /* \"#utility.yul\":2183:2260   */\n    tag_252:\n        /* \"#utility.yul\":2220:2227   */\n      0x00\n        /* \"#utility.yul\":2249:2254   */\n      dup2\n        /* \"#utility.yul\":2238:2254   */\n      swap1\n      pop\n        /* \"#utility.yul\":2183:2260   */\n      swap2\n      swap1\n      pop\n      jump\t// out\n        /* \"#utility.yul\":2266:2388   */\n    tag_253:\n        /* \"#utility.yul\":2339:2363   */\n      tag_313\n        /* \"#utility.yul\":2357:2362   */\n      dup2\n        /* \"#utility.yul\":2339:2363   */\n      tag_252\n      jump\t// in\n    tag_313:\n        /* \"#utility.yul\":2332:2337   */\n      dup2\n        /* \"#utility.yul\":2329:2364   */\n      eq\n        /* \"#utility.yul\":2319:2382   */\n      tag_314\n      jumpi\n        /* \"#utility.yul\":2378:2379   */\n      0x00\n        /* \"#utility.yul\":2375:2376   */\n      dup1\n        /* \"#utility.yul\":2368:2380   */\n      revert\n        /* \"#utility.yul\":2319:2382   */\n    tag_314:\n        /* \"#utility.yul\":2266:2388   */\n      pop\n      jump\t// out\n        /* \"#utility.yul\":2394:2533   */\n    tag_254:\n        /* \"#utility.yul\":2440:2445   */\n      0x00\n        /* \"#utility.yul\":2478:2484   */\n      dup2\n        /* \"#utility.yul\":2465:2485   */\n      calldataload\n        /* \"#utility.yul\":2456:2485   */\n      swap1\n      pop\n        /* \"#utility.yul\":2494:2527   */\n      tag_316\n        /* \"#utility.yul\":2521:2526   */\n      dup2\n        /* \"#utility.yul\":2494:2527   */\n      tag_253\n      jump\t// in\n    tag_316:\n        /* \"#utility.yul\":2394:2533   */\n      swap3\n      swap2\n      pop\n      pop\n      jump\t// out\n        /* \"#utility.yul\":2539:3013   */\n    tag_34:\n        /* \"#utility.yul\":2607:2613   */\n      0x00\n        /* \"#utility.yul\":2615:2621   */\n      dup1\n        /* \"#utility.yul\":2664:2666   */\n      0x40\n        /* \"#utility.yul\":2652:2661   */\n      dup4\n        /* \"#utility.yul\":2643:2650   */\n      dup6\n        /* \"#utility.yul\":2639:2662   */\n      sub\n        /* \"#utility.yul\":2635:2667   */\n      slt\n        /* \"#utility.yul\":2632:2751   */\n      iszero\n      tag_318\n      jumpi\n        /* \"#utility.yul\":2670:2749   */\n      tag_319\n      tag_246\n      jump\t// in\n    tag_319:\n        /* \"#utility.yul\":2632:2751   */\n    tag_318:\n        /* \"#utility.yul\":2790:2791   */\n      0x00\n        /* \"#utility.yul\":2815:2868   */\n      tag_320\n        /* \"#utility.yul\":2860:2867   */\n      dup6\n        /* \"#utility.yul\":2851:2857   */\n      dup3\n        /* \"#utility.yul\":2840:2849   */\n      dup7\n        /* \"#utility.yul\":2836:2858   */\n      add\n        /* \"#utility.yul\":2815:2868   */\n      tag_251\n      jump\t// in\n    tag_320:\n        /* \"#utility.yul\":2805:2868   */\n      swap3\n      pop\n        /* \"#utility.yul\":2761:2878   */\n      pop\n        /* \"#utility.yul\":2917:2919   */\n      0x20\n        /* \"#utility.yul\":2943:2996   */\n      tag_321\n        /* \"#utility.yul\":2988:2995   */\n      dup6\n        /* \"#utility.yul\":2979:2985   */\n      dup3\n        /* \"#utility.yul\":2968:2977   */\n      dup7\n        /* \"#utility.yul\":2964:2986   */\n      add\n        /* \"#utility.yul\":2943:2996   */\n      tag_254\n      jump\t// in\n    tag_321:\n        /* \"#utility.yul\":2933:2996   */\n      swap2\n      pop\n        /* \"#utility.yul\":2888:3006   */\n      pop\n        /* \"#utility.yul\":2539:3013   */\n      swap3\n      pop\n      swap3\n      swap1\n      pop\n      jump\t// out\n        /* \"#utility.yul\":3019:3109   */\n    tag_255:\n        /* \"#utility.yul\":3053:3060   */\n      0x00\n        /* \"#utility.yul\":3096:3101   */\n      dup2\n        /* \"#utility.yul\":3089:3102   */\n      iszero\n        /* \"#utility.yul\":3082:3103   */\n      iszero\n        /* \"#utility.yul\":3071:3103   */\n      swap1\n      pop\n        /* \"#utility.yul\":3019:3109   */\n      swap2\n      swap1\n      pop\n      jump\t// out\n        /* \"#utility.yul\":3115:3224   */\n    tag_256:\n        /* \"#utility.yul\":3196:3217   */\n      tag_324\n        /* \"#utility.yul\":3211:3216   */\n      dup2\n        /* \"#utility.yul\":3196:3217   */\n      tag_255\n      jump\t// in\n    tag_324:\n        /* \"#utility.yul\":3191:3194   */\n      dup3\n        /* \"#utility.yul\":3184:3218   */\n      mstore\n        /* \"#utility.yul\":3115:3224   */\n      pop\n      pop\n      jump\t// out\n        /* \"#utility.yul\":3230:3440   */\n    tag_37:\n        /* \"#utility.yul\":3317:3321   */\n      0x00\n        /* \"#utility.yul\":3355:3357   */\n      0x20\n        /* \"#utility.yul\":3344:3353   */\n      dup3\n        /* \"#utility.yul\":3340:3358   */\n      add\n        /* \"#utility.yul\":3332:3358   */\n      swap1\n      pop\n        /* \"#utility.yul\":3368:3433   */\n      tag_326\n        /* \"#utility.yul\":3430:3431   */\n      0x00\n        /* \"#utility.yul\":3419:3428   */\n      dup4\n        /* \"#utility.yul\":3415:3432   */\n      add\n        /* \"#utility.yul\":3406:3412   */\n      dup5\n        /* \"#utility.yul\":3368:3433   */\n      tag_256\n      jump\t// in\n    tag_326:\n        /* \"#utility.yul\":3230:3440   */\n      swap3\n      swap2\n      pop\n      pop\n      jump\t// out\n        /* \"#utility.yul\":3446:3775   */\n    tag_41:\n        /* \"#utility.yul\":3505:3511   */\n      0x00\n        /* \"#utility.yul\":3554:3556   */\n      0x20\n        /* \"#utility.yul\":3542:3551   */\n      dup3\n        /* \"#utility.yul\":3533:3540   */\n      dup5\n        /* \"#utility.yul\":3529:3552   */\n      sub\n        /* \"#utility.yul\":3525:3557   */\n      slt\n        /* \"#utility.yul\":3522:3641   */\n      iszero\n      tag_328\n      jumpi\n        /* \"#utility.yul\":3560:3639   */\n      tag_329\n      tag_246\n      jump\t// in\n    tag_329:\n        /* \"#utility.yul\":3522:3641   */\n    tag_328:\n        /* \"#utility.yul\":3680:3681   */\n      0x00\n        /* \"#utility.yul\":3705:3758   */\n      tag_330\n        /* \"#utility.yul\":3750:3757   */\n      dup5\n        /* \"#utility.yul\":3741:3747   */\n      dup3\n        /* \"#utility.yul\":3730:3739   */\n      dup6\n        /* \"#utility.yul\":3726:3748   */\n      add\n        /* \"#utility.yul\":3705:3758   */\n      tag_251\n      jump\t// in\n    tag_330:\n        /* \"#utility.yul\":3695:3758   */\n      swap2\n      pop\n        /* \"#utility.yul\":3651:3768   */\n      pop\n        /* \"#utility.yul\":3446:3775   */\n      swap3\n      swap2\n      pop\n      pop\n      jump\t// out\n        /* \"#utility.yul\":3781:3899   */\n    tag_257:\n        /* \"#utility.yul\":3868:3892   */\n      tag_332\n        /* \"#utility.yul\":3886:3891   */\n      dup2\n        /* \"#utility.yul\":3868:3892   */\n      tag_252\n      jump\t// in\n    tag_332:\n        /* \"#utility.yul\":3863:3866   */\n      dup3\n        /* \"#utility.yul\":3856:3893   */\n      mstore\n        /* \"#utility.yul\":3781:3899   */\n      pop\n      pop\n      jump\t// out\n        /* \"#utility.yul\":3905:5124   */\n    tag_44:\n        /* \"#utility.yul\":4250:4254   */\n      0x00\n        /* \"#utility.yul\":4288:4291   */\n      0x0140\n        /* \"#utility.yul\":4277:4286   */\n      dup3\n        /* \"#utility.yul\":4273:4292   */\n      add\n        /* \"#utility.yul\":4265:4292   */\n      swap1\n      pop\n        /* \"#utility.yul\":4302:4373   */\n      tag_334\n        /* \"#utility.yul\":4370:4371   */\n      0x00\n        /* \"#utility.yul\":4359:4368   */\n      dup4\n        /* \"#utility.yul\":4355:4372   */\n      add\n        /* \"#utility.yul\":4346:4352   */\n      dup14\n        /* \"#utility.yul\":4302:4373   */\n      tag_257\n      jump\t// in\n    tag_334:\n        /* \"#utility.yul\":4383:4455   */\n      tag_335\n        /* \"#utility.yul\":4451:4453   */\n      0x20\n        /* \"#utility.yul\":4440:4449   */\n      dup4\n        /* \"#utility.yul\":4436:4454   */\n      add\n        /* \"#utility.yul\":4427:4433   */\n      dup13\n        /* \"#utility.yul\":4383:4455   */\n      tag_257\n      jump\t// in\n    tag_335:\n        /* \"#utility.yul\":4465:4537   */\n      tag_336\n        /* \"#utility.yul\":4533:4535   */\n      0x40\n        /* \"#utility.yul\":4522:4531   */\n      dup4\n        /* \"#utility.yul\":4518:4536   */\n      add\n        /* \"#utility.yul\":4509:4515   */\n      dup12\n        /* \"#utility.yul\":4465:4537   */\n      tag_257\n      jump\t// in\n    tag_336:\n        /* \"#utility.yul\":4547:4619   */\n      tag_337\n        /* \"#utility.yul\":4615:4617   */\n      0x60\n        /* \"#utility.yul\":4604:4613   */\n      dup4\n        /* \"#utility.yul\":4600:4618   */\n      add\n        /* \"#utility.yul\":4591:4597   */\n      dup11\n        /* \"#utility.yul\":4547:4619   */\n      tag_257\n      jump\t// in\n    tag_337:\n        /* \"#utility.yul\":4629:4702   */\n      tag_338\n        /* \"#utility.yul\":4697:4700   */\n      0x80\n        /* \"#utility.yul\":4686:4695   */\n      dup4\n        /* \"#utility.yul\":4682:4701   */\n      add\n        /* \"#utility.yul\":4673:4679   */\n      dup10\n        /* \"#utility.yul\":4629:4702   */\n      tag_257\n      jump\t// in\n    tag_338:\n        /* \"#utility.yul\":4712:4785   */\n      tag_339\n        /* \"#utility.yul\":4780:4783   */\n      0xa0\n        /* \"#utility.yul\":4769:4778   */\n      dup4\n        /* \"#utility.yul\":4765:4784   */\n      add\n        /* \"#utility.yul\":4756:4762   */\n      dup9\n        /* \"#utility.yul\":4712:4785   */\n      tag_257\n      jump\t// in\n    tag_339:\n        /* \"#utility.yul\":4795:4868   */\n      tag_340\n        /* \"#utility.yul\":4863:4866   */\n      0xc0\n        /* \"#utility.yul\":4852:4861   */\n      dup4\n        /* \"#utility.yul\":4848:4867   */\n      add\n        /* \"#utility.yul\":4839:4845   */\n      dup8\n        /* \"#utility.yul\":4795:4868   */\n      tag_257\n      jump\t// in\n    tag_340:\n        /* \"#utility.yul\":4878:4951   */\n      tag_341\n        /* \"#utility.yul\":4946:4949   */\n      0xe0\n        /* \"#utility.yul\":4935:4944   */\n      dup4\n        /* \"#utility.yul\":4931:4950   */\n      add\n        /* \"#utility.yul\":4922:4928   */\n      dup7\n        /* \"#utility.yul\":4878:4951   */\n      tag_257\n      jump\t// in\n    tag_341:\n        /* \"#utility.yul\":4961:5034   */\n      tag_342\n        /* \"#utility.yul\":5029:5032   */\n      0x0100\n        /* \"#utility.yul\":5018:5027   */\n      dup4\n        /* \"#utility.yul\":5014:5033   */\n      add\n        /* \"#utility.yul\":5005:5011   */\n      dup6\n        /* \"#utility.yul\":4961:5034   */\n      tag_257\n      jump\t// in\n    tag_342:\n        /* \"#utility.yul\":5044:5117   */\n      tag_343\n        /* \"#utility.yul\":5112:5115   */\n      0x0120\n        /* \"#utility.yul\":5101:5110   */\n      dup4\n        /* \"#utility.yul\":5097:5116   */\n      add\n        /* \"#utility.yul\":5088:5094   */\n      dup5\n        /* \"#utility.yul\":5044:5117   */\n      tag_257\n      jump\t// in\n    tag_343:\n        /* \"#utility.yul\":3905:5124   */\n      swap12\n      swap11\n      pop\n      pop\n      pop\n      pop\n      pop\n      pop\n      pop\n      pop\n      pop\n      pop\n      pop\n      jump\t// out\n        /* \"#utility.yul\":5130:5352   */\n    tag_49:\n        /* \"#utility.yul\":5223:5227   */\n      0x00\n        /* \"#utility.yul\":5261:5263   */\n      0x20\n        /* \"#utility.yul\":5250:5259   */\n      dup3\n        /* \"#utility.yul\":5246:5264   */\n      add\n        /* \"#utility.yul\":5238:5264   */\n      swap1\n      pop\n        /* \"#utility.yul\":5274:5345   */\n      tag_345\n        /* \"#utility.yul\":5342:5343   */\n      0x00\n        /* \"#utility.yul\":5331:5340   */\n      dup4\n        /* \"#utility.yul\":5327:5344   */\n      add\n        /* \"#utility.yul\":5318:5324   */\n      dup5\n        /* \"#utility.yul\":5274:5345   */\n      tag_257\n      jump\t// in\n    tag_345:\n        /* \"#utility.yul\":5130:5352   */\n      swap3\n      swap2\n      pop\n      pop\n      jump\t// out\n        /* \"#utility.yul\":5358:5977   */\n    tag_57:\n        /* \"#utility.yul\":5435:5441   */\n      0x00\n        /* \"#utility.yul\":5443:5449   */\n      dup1\n        /* \"#utility.yul\":5451:5457   */\n      0x00\n        /* \"#utility.yul\":5500:5502   */\n      0x60\n        /* \"#utility.yul\":5488:5497   */\n      dup5\n        /* \"#utility.yul\":5479:5486   */\n      dup7\n        /* \"#utility.yul\":5475:5498   */\n      sub\n        /* \"#utility.yul\":5471:5503   */\n      slt\n        /* \"#utility.yul\":5468:5587   */\n      iszero\n      tag_347\n      jumpi\n        /* \"#utility.yul\":5506:5585   */\n      tag_348\n      tag_246\n      jump\t// in\n    tag_348:\n        /* \"#utility.yul\":5468:5587   */\n    tag_347:\n        /* \"#utility.yul\":5626:5627   */\n      0x00\n        /* \"#utility.yul\":5651:5704   */\n      tag_349\n        /* \"#utility.yul\":5696:5703   */\n      dup7\n        /* \"#utility.yul\":5687:5693   */\n      dup3\n        /* \"#utility.yul\":5676:5685   */\n      dup8\n        /* \"#utility.yul\":5672:5694   */\n      add\n        /* \"#utility.yul\":5651:5704   */\n      tag_251\n      jump\t// in\n    tag_349:\n        /* \"#utility.yul\":5641:5704   */\n      swap4\n      pop\n        /* \"#utility.yul\":5597:5714   */\n      pop\n        /* \"#utility.yul\":5753:5755   */\n      0x20\n        /* \"#utility.yul\":5779:5832   */\n      tag_350\n        /* \"#utility.yul\":5824:5831   */\n      dup7\n        /* \"#utility.yul\":5815:5821   */\n      dup3\n        /* \"#utility.yul\":5804:5813   */\n      dup8\n        /* \"#utility.yul\":5800:5822   */\n      add\n        /* \"#utility.yul\":5779:5832   */\n      tag_251\n      jump\t// in\n    tag_350:\n        /* \"#utility.yul\":5769:5832   */\n      swap3\n      pop\n        /* \"#utility.yul\":5724:5842   */\n      pop\n        /* \"#utility.yul\":5881:5883   */\n      0x40\n        /* \"#utility.yul\":5907:5960   */\n      tag_351\n        /* \"#utility.yul\":5952:5959   */\n      dup7\n        /* \"#utility.yul\":5943:5949   */\n      dup3\n        /* \"#utility.yul\":5932:5941   */\n      dup8\n        /* \"#utility.yul\":5928:5950   */\n      add\n        /* \"#utility.yul\":5907:5960   */\n      tag_254\n      jump\t// in\n    tag_351:\n        /* \"#utility.yul\":5897:5960   */\n      swap2\n      pop\n        /* \"#utility.yul\":5852:5970   */\n      pop\n        /* \"#utility.yul\":5358:5977   */\n      swap3\n      pop\n      swap3\n      pop\n      swap3\n      jump\t// out\n        /* \"#utility.yul\":5983:6069   */\n    tag_258:\n        /* \"#utility.yul\":6018:6025   */\n      0x00\n        /* \"#utility.yul\":6058:6062   */\n      0xff\n        /* \"#utility.yul\":6051:6056   */\n      dup3\n        /* \"#utility.yul\":6047:6063   */\n      and\n        /* \"#utility.yul\":6036:6063   */\n      swap1\n      pop\n        /* \"#utility.yul\":5983:6069   */\n      swap2\n      swap1\n      pop\n      jump\t// out\n        /* \"#utility.yul\":6075:6187   */\n    tag_259:\n        /* \"#utility.yul\":6158:6180   */\n      tag_354\n        /* \"#utility.yul\":6174:6179   */\n      dup2\n        /* \"#utility.yul\":6158:6180   */\n      tag_258\n      jump\t// in\n    tag_354:\n        /* \"#utility.yul\":6153:6156   */\n      dup3\n        /* \"#utility.yul\":6146:6181   */\n      mstore\n        /* \"#utility.yul\":6075:6187   */\n      pop\n      pop\n      jump\t// out\n        /* \"#utility.yul\":6193:6407   */\n    tag_73:\n        /* \"#utility.yul\":6282:6286   */\n      0x00\n        /* \"#utility.yul\":6320:6322   */\n      0x20\n        /* \"#utility.yul\":6309:6318   */\n      dup3\n        /* \"#utility.yul\":6305:6323   */\n      add\n        /* \"#utility.yul\":6297:6323   */\n      swap1\n      pop\n        /* \"#utility.yul\":6333:6400   */\n      tag_356\n        /* \"#utility.yul\":6397:6398   */\n      0x00\n        /* \"#utility.yul\":6386:6395   */\n      dup4\n        /* \"#utility.yul\":6382:6399   */\n      add\n        /* \"#utility.yul\":6373:6379   */\n      dup5\n        /* \"#utility.yul\":6333:6400   */\n      tag_259\n      jump\t// in\n    tag_356:\n        /* \"#utility.yul\":6193:6407   */\n      swap3\n      swap2\n      pop\n      pop\n      jump\t// out\n        /* \"#utility.yul\":6413:6531   */\n    tag_260:\n        /* \"#utility.yul\":6500:6524   */\n      tag_358\n        /* \"#utility.yul\":6518:6523   */\n      dup2\n        /* \"#utility.yul\":6500:6524   */\n      tag_249\n      jump\t// in\n    tag_358:\n        /* \"#utility.yul\":6495:6498   */\n      dup3\n        /* \"#utility.yul\":6488:6525   */\n      mstore\n        /* \"#utility.yul\":6413:6531   */\n      pop\n      pop\n      jump\t// out\n        /* \"#utility.yul\":6537:6759   */\n    tag_94:\n        /* \"#utility.yul\":6630:6634   */\n      0x00\n        /* \"#utility.yul\":6668:6670   */\n      0x20\n        /* \"#utility.yul\":6657:6666   */\n      dup3\n        /* \"#utility.yul\":6653:6671   */\n      add\n        /* \"#utility.yul\":6645:6671   */\n      swap1\n      pop\n        /* \"#utility.yul\":6681:6752   */\n      tag_360\n        /* \"#utility.yul\":6749:6750   */\n      0x00\n        /* \"#utility.yul\":6738:6747   */\n      dup4\n        /* \"#utility.yul\":6734:6751   */\n      add\n        /* \"#utility.yul\":6725:6731   */\n      dup5\n        /* \"#utility.yul\":6681:6752   */\n      tag_260\n      jump\t// in\n    tag_360:\n        /* \"#utility.yul\":6537:6759   */\n      swap3\n      swap2\n      pop\n      pop\n      jump\t// out\n        /* \"#utility.yul\":6765:7094   */\n    tag_116:\n        /* \"#utility.yul\":6824:6830   */\n      0x00\n        /* \"#utility.yul\":6873:6875   */\n      0x20\n        /* \"#utility.yul\":6861:6870   */\n      dup3\n        /* \"#utility.yul\":6852:6859   */\n      dup5\n        /* \"#utility.yul\":6848:6871   */\n      sub\n        /* \"#utility.yul\":6844:6876   */\n      slt\n        /* \"#utility.yul\":6841:6960   */\n      iszero\n      tag_362\n      jumpi\n        /* \"#utility.yul\":6879:6958   */\n      tag_363\n      tag_246\n      jump\t// in\n    tag_363:\n        /* \"#utility.yul\":6841:6960   */\n    tag_362:\n        /* \"#utility.yul\":6999:7000   */\n      0x00\n        /* \"#utility.yul\":7024:7077   */\n      tag_364\n        /* \"#utility.yul\":7069:7076   */\n      dup5\n        /* \"#utility.yul\":7060:7066   */\n      dup3\n        /* \"#utility.yul\":7049:7058   */\n      dup6\n        /* \"#utility.yul\":7045:7067   */\n      add\n        /* \"#utility.yul\":7024:7077   */\n      tag_254\n      jump\t// in\n    tag_364:\n        /* \"#utility.yul\":7014:7077   */\n      swap2\n      pop\n        /* \"#utility.yul\":6970:7087   */\n      pop\n        /* \"#utility.yul\":6765:7094   */\n      swap3\n      swap2\n      pop\n      pop\n      jump\t// out\n        /* \"#utility.yul\":7100:7574   */\n    tag_121:\n        /* \"#utility.yul\":7168:7174   */\n      0x00\n        /* \"#utility.yul\":7176:7182   */\n      dup1\n        /* \"#utility.yul\":7225:7227   */\n      0x40\n        /* \"#utility.yul\":7213:7222   */\n      dup4\n        /* \"#utility.yul\":7204:7211   */\n      dup6\n        /* \"#utility.yul\":7200:7223   */\n      sub\n        /* \"#utility.yul\":7196:7228   */\n      slt\n        /* \"#utility.yul\":7193:7312   */\n      iszero\n      tag_366\n      jumpi\n        /* \"#utility.yul\":7231:7310   */\n      tag_367\n      tag_246\n      jump\t// in\n    tag_367:\n        /* \"#utility.yul\":7193:7312   */\n    tag_366:\n        /* \"#utility.yul\":7351:7352   */\n      0x00\n        /* \"#utility.yul\":7376:7429   */\n      tag_368\n        /* \"#utility.yul\":7421:7428   */\n      dup6\n        /* \"#utility.yul\":7412:7418   */\n      dup3\n        /* \"#utility.yul\":7401:7410   */\n      dup7\n        /* \"#utility.yul\":7397:7419   */\n      add\n        /* \"#utility.yul\":7376:7429   */\n      tag_251\n      jump\t// in\n    tag_368:\n        /* \"#utility.yul\":7366:7429   */\n      swap3\n      pop\n        /* \"#utility.yul\":7322:7439   */\n      pop\n        /* \"#utility.yul\":7478:7480   */\n      0x20\n        /* \"#utility.yul\":7504:7557   */\n      tag_369\n        /* \"#utility.yul\":7549:7556   */\n      dup6\n        /* \"#utility.yul\":7540:7546   */\n      dup3\n        /* \"#utility.yul\":7529:7538   */\n      dup7\n        /* \"#utility.yul\":7525:7547   */\n      add\n        /* \"#utility.yul\":7504:7557   */\n      tag_251\n      jump\t// in\n    tag_369:\n        /* \"#utility.yul\":7494:7557   */\n      swap2\n      pop\n        /* \"#utility.yul\":7449:7567   */\n      pop\n        /* \"#utility.yul\":7100:7574   */\n      swap3\n      pop\n      swap3\n      swap1\n      pop\n      jump\t// out\n        /* \"#utility.yul\":7580:8204   */\n    tag_129:\n        /* \"#utility.yul\":7769:7773   */\n      0x00\n        /* \"#utility.yul\":7807:7809   */\n      0x60\n        /* \"#utility.yul\":7796:7805   */\n      dup3\n        /* \"#utility.yul\":7792:7810   */\n      add\n        /* \"#utility.yul\":7784:7810   */\n      swap1\n      pop\n        /* \"#utility.yul\":7856:7865   */\n      dup2\n        /* \"#utility.yul\":7850:7854   */\n      dup2\n        /* \"#utility.yul\":7846:7866   */\n      sub\n        /* \"#utility.yul\":7842:7843   */\n      0x00\n        /* \"#utility.yul\":7831:7840   */\n      dup4\n        /* \"#utility.yul\":7827:7844   */\n      add\n        /* \"#utility.yul\":7820:7867   */\n      mstore\n        /* \"#utility.yul\":7884:7962   */\n      tag_371\n        /* \"#utility.yul\":7957:7961   */\n      dup2\n        /* \"#utility.yul\":7948:7954   */\n      dup7\n        /* \"#utility.yul\":7884:7962   */\n      tag_244\n      jump\t// in\n    tag_371:\n        /* \"#utility.yul\":7876:7962   */\n      swap1\n      pop\n        /* \"#utility.yul\":8009:8018   */\n      dup2\n        /* \"#utility.yul\":8003:8007   */\n      dup2\n        /* \"#utility.yul\":7999:8019   */\n      sub\n        /* \"#utility.yul\":7994:7996   */\n      0x20\n        /* \"#utility.yul\":7983:7992   */\n      dup4\n        /* \"#utility.yul\":7979:7997   */\n      add\n        /* \"#utility.yul\":7972:8020   */\n      mstore\n        /* \"#utility.yul\":8037:8115   */\n      tag_372\n        /* \"#utility.yul\":8110:8114   */\n      dup2\n        /* \"#utility.yul\":8101:8107   */\n      dup6\n        /* \"#utility.yul\":8037:8115   */\n      tag_244\n      jump\t// in\n    tag_372:\n        /* \"#utility.yul\":8029:8115   */\n      swap1\n      pop\n        /* \"#utility.yul\":8125:8197   */\n      tag_373\n        /* \"#utility.yul\":8193:8195   */\n      0x40\n        /* \"#utility.yul\":8182:8191   */\n      dup4\n        /* \"#utility.yul\":8178:8196   */\n      add\n        /* \"#utility.yul\":8169:8175   */\n      dup5\n        /* \"#utility.yul\":8125:8197   */\n      tag_257\n      jump\t// in\n    tag_373:\n        /* \"#utility.yul\":7580:8204   */\n      swap5\n      swap4\n      pop\n      pop\n      pop\n      pop\n      jump\t// out\n        /* \"#utility.yul\":8210:8390   */\n    tag_261:\n        /* \"#utility.yul\":8258:8335   */\n      0x4e487b7100000000000000000000000000000000000000000000000000000000\n        /* \"#utility.yul\":8255:8256   */\n      0x00\n        /* \"#utility.yul\":8248:8336   */\n      mstore\n        /* \"#utility.yul\":8355:8359   */\n      0x22\n        /* \"#utility.yul\":8352:8353   */\n      0x04\n        /* \"#utility.yul\":8345:8360   */\n      mstore\n        /* \"#utility.yul\":8379:8383   */\n      0x24\n        /* \"#utility.yul\":8376:8377   */\n      0x00\n        /* \"#utility.yul\":8369:8384   */\n      revert\n        /* \"#utility.yul\":8396:8716   */\n    tag_132:\n        /* \"#utility.yul\":8440:8446   */\n      0x00\n        /* \"#utility.yul\":8477:8478   */\n      0x02\n        /* \"#utility.yul\":8471:8475   */\n      dup3\n        /* \"#utility.yul\":8467:8479   */\n      div\n        /* \"#utility.yul\":8457:8479   */\n      swap1\n      pop\n        /* \"#utility.yul\":8524:8525   */\n      0x01\n        /* \"#utility.yul\":8518:8522   */\n      dup3\n        /* \"#utility.yul\":8514:8526   */\n      and\n        /* \"#utility.yul\":8545:8563   */\n      dup1\n        /* \"#utility.yul\":8535:8616   */\n      tag_376\n      jumpi\n        /* \"#utility.yul\":8601:8605   */\n      0x7f\n        /* \"#utility.yul\":8593:8599   */\n      dup3\n        /* \"#utility.yul\":8589:8606   */\n      and\n        /* \"#utility.yul\":8579:8606   */\n      swap2\n      pop\n        /* \"#utility.yul\":8535:8616   */\n    tag_376:\n        /* \"#utility.yul\":8663:8665   */\n      0x20\n        /* \"#utility.yul\":8655:8661   */\n      dup3\n        /* \"#utility.yul\":8652:8666   */\n      lt\n        /* \"#utility.yul\":8632:8650   */\n      dup2\n        /* \"#utility.yul\":8629:8667   */\n      sub\n        /* \"#utility.yul\":8626:8710   */\n      tag_377\n      jumpi\n        /* \"#utility.yul\":8682:8700   */\n      tag_378\n      tag_261\n      jump\t// in\n    tag_378:\n        /* \"#utility.yul\":8626:8710   */\n    tag_377:\n        /* \"#utility.yul\":8447:8716   */\n      pop\n        /* \"#utility.yul\":8396:8716   */\n      swap2\n      swap1\n      pop\n      jump\t// out\n        /* \"#utility.yul\":8722:8946   */\n    tag_262:\n        /* \"#utility.yul\":8862:8896   */\n      0x4f6e6c7920746865206f776e65722063616e2063616c6c20746869732066756e\n        /* \"#utility.yul\":8858:8859   */\n      0x00\n        /* \"#utility.yul\":8850:8856   */\n      dup3\n        /* \"#utility.yul\":8846:8860   */\n      add\n        /* \"#utility.yul\":8839:8897   */\n      mstore\n        /* \"#utility.yul\":8931:8938   */\n      0x6374696f6e000000000000000000000000000000000000000000000000000000\n        /* \"#utility.yul\":8926:8928   */\n      0x20\n        /* \"#utility.yul\":8918:8924   */\n      dup3\n        /* \"#utility.yul\":8914:8929   */\n      add\n        /* \"#utility.yul\":8907:8939   */\n      mstore\n        /* \"#utility.yul\":8722:8946   */\n      pop\n      jump\t// out\n        /* \"#utility.yul\":8952:9318   */\n    tag_263:\n        /* \"#utility.yul\":9094:9097   */\n      0x00\n        /* \"#utility.yul\":9115:9182   */\n      tag_381\n        /* \"#utility.yul\":9179:9181   */\n      0x25\n        /* \"#utility.yul\":9174:9177   */\n      dup4\n        /* \"#utility.yul\":9115:9182   */\n      tag_241\n      jump\t// in\n    tag_381:\n        /* \"#utility.yul\":9108:9182   */\n      swap2\n      pop\n        /* \"#utility.yul\":9191:9284   */\n      tag_382\n        /* \"#utility.yul\":9280:9283   */\n      dup3\n        /* \"#utility.yul\":9191:9284   */\n      tag_262\n      jump\t// in\n    tag_382:\n        /* \"#utility.yul\":9309:9311   */\n      0x40\n        /* \"#utility.yul\":9304:9307   */\n      dup3\n        /* \"#utility.yul\":9300:9312   */\n      add\n        /* \"#utility.yul\":9293:9312   */\n      swap1\n      pop\n        /* \"#utility.yul\":8952:9318   */\n      swap2\n      swap1\n      pop\n      jump\t// out\n        /* \"#utility.yul\":9324:9743   */\n    tag_153:\n        /* \"#utility.yul\":9490:9494   */\n      0x00\n        /* \"#utility.yul\":9528:9530   */\n      0x20\n        /* \"#utility.yul\":9517:9526   */\n      dup3\n        /* \"#utility.yul\":9513:9531   */\n      add\n        /* \"#utility.yul\":9505:9531   */\n      swap1\n      pop\n        /* \"#utility.yul\":9577:9586   */\n      dup2\n        /* \"#utility.yul\":9571:9575   */\n      dup2\n        /* \"#utility.yul\":9567:9587   */\n      sub\n        /* \"#utility.yul\":9563:9564   */\n      0x00\n        /* \"#utility.yul\":9552:9561   */\n      dup4\n        /* \"#utility.yul\":9548:9565   */\n      add\n        /* \"#utility.yul\":9541:9588   */\n      mstore\n        /* \"#utility.yul\":9605:9736   */\n      tag_384\n        /* \"#utility.yul\":9731:9735   */\n      dup2\n        /* \"#utility.yul\":9605:9736   */\n      tag_263\n      jump\t// in\n    tag_384:\n        /* \"#utility.yul\":9597:9736   */\n      swap1\n      pop\n        /* \"#utility.yul\":9324:9743   */\n      swap2\n      swap1\n      pop\n      jump\t// out\n        /* \"#utility.yul\":9749:9929   */\n    tag_264:\n        /* \"#utility.yul\":9797:9874   */\n      0x4e487b7100000000000000000000000000000000000000000000000000000000\n        /* \"#utility.yul\":9794:9795   */\n      0x00\n        /* \"#utility.yul\":9787:9875   */\n      mstore\n        /* \"#utility.yul\":9894:9898   */\n      0x11\n        /* \"#utility.yul\":9891:9892   */\n      0x04\n        /* \"#utility.yul\":9884:9899   */\n      mstore\n        /* \"#utility.yul\":9918:9922   */\n      0x24\n        /* \"#utility.yul\":9915:9916   */\n      0x00\n        /* \"#utility.yul\":9908:9923   */\n      revert\n        /* \"#utility.yul\":9935:10126   */\n    tag_161:\n        /* \"#utility.yul\":9975:9978   */\n      0x00\n        /* \"#utility.yul\":9994:10014   */\n      tag_387\n        /* \"#utility.yul\":10012:10013   */\n      dup3\n        /* \"#utility.yul\":9994:10014   */\n      tag_252\n      jump\t// in\n    tag_387:\n        /* \"#utility.yul\":9989:10014   */\n      swap2\n      pop\n        /* \"#utility.yul\":10028:10048   */\n      tag_388\n        /* \"#utility.yul\":10046:10047   */\n      dup4\n        /* \"#utility.yul\":10028:10048   */\n      tag_252\n      jump\t// in\n    tag_388:\n        /* \"#utility.yul\":10023:10048   */\n      swap3\n      pop\n        /* \"#utility.yul\":10071:10072   */\n      dup3\n        /* \"#utility.yul\":10068:10069   */\n      dup3\n        /* \"#utility.yul\":10064:10073   */\n      add\n        /* \"#utility.yul\":10057:10073   */\n      swap1\n      pop\n        /* \"#utility.yul\":10092:10095   */\n      dup1\n        /* \"#utility.yul\":10089:10090   */\n      dup3\n        /* \"#utility.yul\":10086:10096   */\n      gt\n        /* \"#utility.yul\":10083:10119   */\n      iszero\n      tag_389\n      jumpi\n        /* \"#utility.yul\":10099:10117   */\n      tag_390\n      tag_264\n      jump\t// in\n    tag_390:\n        /* \"#utility.yul\":10083:10119   */\n    tag_389:\n        /* \"#utility.yul\":9935:10126   */\n      swap3\n      swap2\n      pop\n      pop\n      jump\t// out\n        /* \"#utility.yul\":10132:10357   */\n    tag_265:\n        /* \"#utility.yul\":10272:10306   */\n      0x4f6e6c79207468652074656e616e742063616e2063616c6c2074686973206675\n        /* \"#utility.yul\":10268:10269   */\n      0x00\n        /* \"#utility.yul\":10260:10266   */\n      dup3\n        /* \"#utility.yul\":10256:10270   */\n      add\n        /* \"#utility.yul\":10249:10307   */\n      mstore\n        /* \"#utility.yul\":10341:10349   */\n      0x6e6374696f6e0000000000000000000000000000000000000000000000000000\n        /* \"#utility.yul\":10336:10338   */\n      0x20\n        /* \"#utility.yul\":10328:10334   */\n      dup3\n        /* \"#utility.yul\":10324:10339   */\n      add\n        /* \"#utility.yul\":10317:10350   */\n      mstore\n        /* \"#utility.yul\":10132:10357   */\n      pop\n      jump\t// out\n        /* \"#utility.yul\":10363:10729   */\n    tag_266:\n        /* \"#utility.yul\":10505:10508   */\n      0x00\n        /* \"#utility.yul\":10526:10593   */\n      tag_393\n        /* \"#utility.yul\":10590:10592   */\n      0x26\n        /* \"#utility.yul\":10585:10588   */\n      dup4\n        /* \"#utility.yul\":10526:10593   */\n      tag_241\n      jump\t// in\n    tag_393:\n        /* \"#utility.yul\":10519:10593   */\n      swap2\n      pop\n        /* \"#utility.yul\":10602:10695   */\n      tag_394\n        /* \"#utility.yul\":10691:10694   */\n      dup3\n        /* \"#utility.yul\":10602:10695   */\n      tag_265\n      jump\t// in\n    tag_394:\n        /* \"#utility.yul\":10720:10722   */\n      0x40\n        /* \"#utility.yul\":10715:10718   */\n      dup3\n        /* \"#utility.yul\":10711:10723   */\n      add\n        /* \"#utility.yul\":10704:10723   */\n      swap1\n      pop\n        /* \"#utility.yul\":10363:10729   */\n      swap2\n      swap1\n      pop\n      jump\t// out\n        /* \"#utility.yul\":10735:11154   */\n    tag_165:\n        /* \"#utility.yul\":10901:10905   */\n      0x00\n        /* \"#utility.yul\":10939:10941   */\n      0x20\n        /* \"#utility.yul\":10928:10937   */\n      dup3\n        /* \"#utility.yul\":10924:10942   */\n      add\n        /* \"#utility.yul\":10916:10942   */\n      swap1\n      pop\n        /* \"#utility.yul\":10988:10997   */\n      dup2\n        /* \"#utility.yul\":10982:10986   */\n      dup2\n        /* \"#utility.yul\":10978:10998   */\n      sub\n        /* \"#utility.yul\":10974:10975   */\n      0x00\n        /* \"#utility.yul\":10963:10972   */\n      dup4\n        /* \"#utility.yul\":10959:10976   */\n      add\n        /* \"#utility.yul\":10952:10999   */\n      mstore\n        /* \"#utility.yul\":11016:11147   */\n      tag_396\n        /* \"#utility.yul\":11142:11146   */\n      dup2\n        /* \"#utility.yul\":11016:11147   */\n      tag_266\n      jump\t// in\n    tag_396:\n        /* \"#utility.yul\":11008:11147   */\n      swap1\n      pop\n        /* \"#utility.yul\":10735:11154   */\n      swap2\n      swap1\n      pop\n      jump\t// out\n        /* \"#utility.yul\":11160:11339   */\n    tag_267:\n        /* \"#utility.yul\":11300:11331   */\n      0x4465706f73697420616d6f756e7420646f6573206e6f74206d61746368000000\n        /* \"#utility.yul\":11296:11297   */\n      0x00\n        /* \"#utility.yul\":11288:11294   */\n      dup3\n        /* \"#utility.yul\":11284:11298   */\n      add\n        /* \"#utility.yul\":11277:11332   */\n      mstore\n        /* \"#utility.yul\":11160:11339   */\n      pop\n      jump\t// out\n        /* \"#utility.yul\":11345:11711   */\n    tag_268:\n        /* \"#utility.yul\":11487:11490   */\n      0x00\n        /* \"#utility.yul\":11508:11575   */\n      tag_399\n        /* \"#utility.yul\":11572:11574   */\n      0x1d\n        /* \"#utility.yul\":11567:11570   */\n      dup4\n        /* \"#utility.yul\":11508:11575   */\n      tag_241\n      jump\t// in\n    tag_399:\n        /* \"#utility.yul\":11501:11575   */\n      swap2\n      pop\n        /* \"#utility.yul\":11584:11677   */\n      tag_400\n        /* \"#utility.yul\":11673:11676   */\n      dup3\n        /* \"#utility.yul\":11584:11677   */\n      tag_267\n      jump\t// in\n    tag_400:\n        /* \"#utility.yul\":11702:11704   */\n      0x20\n        /* \"#utility.yul\":11697:11700   */\n      dup3\n        /* \"#utility.yul\":11693:11705   */\n      add\n        /* \"#utility.yul\":11686:11705   */\n      swap1\n      pop\n        /* \"#utility.yul\":11345:11711   */\n      swap2\n      swap1\n      pop\n      jump\t// out\n        /* \"#utility.yul\":11717:12136   */\n    tag_169:\n        /* \"#utility.yul\":11883:11887   */\n      0x00\n        /* \"#utility.yul\":11921:11923   */\n      0x20\n        /* \"#utility.yul\":11910:11919   */\n      dup3\n        /* \"#utility.yul\":11906:11924   */\n      add\n        /* \"#utility.yul\":11898:11924   */\n      swap1\n      pop\n        /* \"#utility.yul\":11970:11979   */\n      dup2\n        /* \"#utility.yul\":11964:11968   */\n      dup2\n        /* \"#utility.yul\":11960:11980   */\n      sub\n        /* \"#utility.yul\":11956:11957   */\n      0x00\n        /* \"#utility.yul\":11945:11954   */\n      dup4\n        /* \"#utility.yul\":11941:11958   */\n      add\n        /* \"#utility.yul\":11934:11981   */\n      mstore\n        /* \"#utility.yul\":11998:12129   */\n      tag_402\n        /* \"#utility.yul\":12124:12128   */\n      dup2\n        /* \"#utility.yul\":11998:12129   */\n      tag_268\n      jump\t// in\n    tag_402:\n        /* \"#utility.yul\":11990:12129   */\n      swap1\n      pop\n        /* \"#utility.yul\":11717:12136   */\n      swap2\n      swap1\n      pop\n      jump\t// out\n        /* \"#utility.yul\":12142:12366   */\n    tag_269:\n        /* \"#utility.yul\":12282:12316   */\n      0x45524332303a2064656372656173656420616c6c6f77616e63652062656c6f77\n        /* \"#utility.yul\":12278:12279   */\n      0x00\n        /* \"#utility.yul\":12270:12276   */\n      dup3\n        /* \"#utility.yul\":12266:12280   */\n      add\n        /* \"#utility.yul\":12259:12317   */\n      mstore\n        /* \"#utility.yul\":12351:12358   */\n      0x207a65726f000000000000000000000000000000000000000000000000000000\n        /* \"#utility.yul\":12346:12348   */\n      0x20\n        /* \"#utility.yul\":12338:12344   */\n      dup3\n        /* \"#utility.yul\":12334:12349   */\n      add\n        /* \"#utility.yul\":12327:12359   */\n      mstore\n        /* \"#utility.yul\":12142:12366   */\n      pop\n      jump\t// out\n        /* \"#utility.yul\":12372:12738   */\n    tag_270:\n        /* \"#utility.yul\":12514:12517   */\n      0x00\n        /* \"#utility.yul\":12535:12602   */\n      tag_405\n        /* \"#utility.yul\":12599:12601   */\n      0x25\n        /* \"#utility.yul\":12594:12597   */\n      dup4\n        /* \"#utility.yul\":12535:12602   */\n      tag_241\n      jump\t// in\n    tag_405:\n        /* \"#utility.yul\":12528:12602   */\n      swap2\n      pop\n        /* \"#utility.yul\":12611:12704   */\n      tag_406\n        /* \"#utility.yul\":12700:12703   */\n      dup3\n        /* \"#utility.yul\":12611:12704   */\n      tag_269\n      jump\t// in\n    tag_406:\n        /* \"#utility.yul\":12729:12731   */\n      0x40\n        /* \"#utility.yul\":12724:12727   */\n      dup3\n        /* \"#utility.yul\":12720:12732   */\n      add\n        /* \"#utility.yul\":12713:12732   */\n      swap1\n      pop\n        /* \"#utility.yul\":12372:12738   */\n      swap2\n      swap1\n      pop\n      jump\t// out\n        /* \"#utility.yul\":12744:13163   */\n    tag_182:\n        /* \"#utility.yul\":12910:12914   */\n      0x00\n        /* \"#utility.yul\":12948:12950   */\n      0x20\n        /* \"#utility.yul\":12937:12946   */\n      dup3\n        /* \"#utility.yul\":12933:12951   */\n      add\n        /* \"#utility.yul\":12925:12951   */\n      swap1\n      pop\n        /* \"#utility.yul\":12997:13006   */\n      dup2\n        /* \"#utility.yul\":12991:12995   */\n      dup2\n        /* \"#utility.yul\":12987:13007   */\n      sub\n        /* \"#utility.yul\":12983:12984   */\n      0x00\n        /* \"#utility.yul\":12972:12981   */\n      dup4\n        /* \"#utility.yul\":12968:12985   */\n      add\n        /* \"#utility.yul\":12961:13008   */\n      mstore\n        /* \"#utility.yul\":13025:13156   */\n      tag_408\n        /* \"#utility.yul\":13151:13155   */\n      dup2\n        /* \"#utility.yul\":13025:13156   */\n      tag_270\n      jump\t// in\n    tag_408:\n        /* \"#utility.yul\":13017:13156   */\n      swap1\n      pop\n        /* \"#utility.yul\":12744:13163   */\n      swap2\n      swap1\n      pop\n      jump\t// out\n        /* \"#utility.yul\":13169:13339   */\n    tag_271:\n        /* \"#utility.yul\":13309:13331   */\n      0x496e73756666696369656e742062616c616e6365000000000000000000000000\n        /* \"#utility.yul\":13305:13306   */\n      0x00\n        /* \"#utility.yul\":13297:13303   */\n      dup3\n        /* \"#utility.yul\":13293:13307   */\n      add\n        /* \"#utility.yul\":13286:13332   */\n      mstore\n        /* \"#utility.yul\":13169:13339   */\n      pop\n      jump\t// out\n        /* \"#utility.yul\":13345:13711   */\n    tag_272:\n        /* \"#utility.yul\":13487:13490   */\n      0x00\n        /* \"#utility.yul\":13508:13575   */\n      tag_411\n        /* \"#utility.yul\":13572:13574   */\n      0x14\n        /* \"#utility.yul\":13567:13570   */\n      dup4\n        /* \"#utility.yul\":13508:13575   */\n      tag_241\n      jump\t// in\n    tag_411:\n        /* \"#utility.yul\":13501:13575   */\n      swap2\n      pop\n        /* \"#utility.yul\":13584:13677   */\n      tag_412\n        /* \"#utility.yul\":13673:13676   */\n      dup3\n        /* \"#utility.yul\":13584:13677   */\n      tag_271\n      jump\t// in\n    tag_412:\n        /* \"#utility.yul\":13702:13704   */\n      0x20\n        /* \"#utility.yul\":13697:13700   */\n      dup3\n        /* \"#utility.yul\":13693:13705   */\n      add\n        /* \"#utility.yul\":13686:13705   */\n      swap1\n      pop\n        /* \"#utility.yul\":13345:13711   */\n      swap2\n      swap1\n      pop\n      jump\t// out\n        /* \"#utility.yul\":13717:14136   */\n    tag_193:\n        /* \"#utility.yul\":13883:13887   */\n      0x00\n        /* \"#utility.yul\":13921:13923   */\n      0x20\n        /* \"#utility.yul\":13910:13919   */\n      dup3\n        /* \"#utility.yul\":13906:13924   */\n      add\n        /* \"#utility.yul\":13898:13924   */\n      swap1\n      pop\n        /* \"#utility.yul\":13970:13979   */\n      dup2\n        /* \"#utility.yul\":13964:13968   */\n      dup2\n        /* \"#utility.yul\":13960:13980   */\n      sub\n        /* \"#utility.yul\":13956:13957   */\n      0x00\n        /* \"#utility.yul\":13945:13954   */\n      dup4\n        /* \"#utility.yul\":13941:13958   */\n      add\n        /* \"#utility.yul\":13934:13981   */\n      mstore\n        /* \"#utility.yul\":13998:14129   */\n      tag_414\n        /* \"#utility.yul\":14124:14128   */\n      dup2\n        /* \"#utility.yul\":13998:14129   */\n      tag_272\n      jump\t// in\n    tag_414:\n        /* \"#utility.yul\":13990:14129   */\n      swap1\n      pop\n        /* \"#utility.yul\":13717:14136   */\n      swap2\n      swap1\n      pop\n      jump\t// out\n        /* \"#utility.yul\":14142:14365   */\n    tag_273:\n        /* \"#utility.yul\":14282:14316   */\n      0x45524332303a20617070726f76652066726f6d20746865207a65726f20616464\n        /* \"#utility.yul\":14278:14279   */\n      0x00\n        /* \"#utility.yul\":14270:14276   */\n      dup3\n        /* \"#utility.yul\":14266:14280   */\n      add\n        /* \"#utility.yul\":14259:14317   */\n      mstore\n        /* \"#utility.yul\":14351:14357   */\n      0x7265737300000000000000000000000000000000000000000000000000000000\n        /* \"#utility.yul\":14346:14348   */\n      0x20\n        /* \"#utility.yul\":14338:14344   */\n      dup3\n        /* \"#utility.yul\":14334:14349   */\n      add\n        /* \"#utility.yul\":14327:14358   */\n      mstore\n        /* \"#utility.yul\":14142:14365   */\n      pop\n      jump\t// out\n        /* \"#utility.yul\":14371:14737   */\n    tag_274:\n        /* \"#utility.yul\":14513:14516   */\n      0x00\n        /* \"#utility.yul\":14534:14601   */\n      tag_417\n        /* \"#utility.yul\":14598:14600   */\n      0x24\n        /* \"#utility.yul\":14593:14596   */\n      dup4\n        /* \"#utility.yul\":14534:14601   */\n      tag_241\n      jump\t// in\n    tag_417:\n        /* \"#utility.yul\":14527:14601   */\n      swap2\n      pop\n        /* \"#utility.yul\":14610:14703   */\n      tag_418\n        /* \"#utility.yul\":14699:14702   */\n      dup3\n        /* \"#utility.yul\":14610:14703   */\n      tag_273\n      jump\t// in\n    tag_418:\n        /* \"#utility.yul\":14728:14730   */\n      0x40\n        /* \"#utility.yul\":14723:14726   */\n      dup3\n        /* \"#utility.yul\":14719:14731   */\n      add\n        /* \"#utility.yul\":14712:14731   */\n      swap1\n      pop\n        /* \"#utility.yul\":14371:14737   */\n      swap2\n      swap1\n      pop\n      jump\t// out\n        /* \"#utility.yul\":14743:15162   */\n    tag_211:\n        /* \"#utility.yul\":14909:14913   */\n      0x00\n        /* \"#utility.yul\":14947:14949   */\n      0x20\n        /* \"#utility.yul\":14936:14945   */\n      dup3\n        /* \"#utility.yul\":14932:14950   */\n      add\n        /* \"#utility.yul\":14924:14950   */\n      swap1\n      pop\n        /* \"#utility.yul\":14996:15005   */\n      dup2\n        /* \"#utility.yul\":14990:14994   */\n      dup2\n        /* \"#utility.yul\":14986:15006   */\n      sub\n        /* \"#utility.yul\":14982:14983   */\n      0x00\n        /* \"#utility.yul\":14971:14980   */\n      dup4\n        /* \"#utility.yul\":14967:14984   */\n      add\n        /* \"#utility.yul\":14960:15007   */\n      mstore\n        /* \"#utility.yul\":15024:15155   */\n      tag_420\n        /* \"#utility.yul\":15150:15154   */\n      dup2\n        /* \"#utility.yul\":15024:15155   */\n      tag_274\n      jump\t// in\n    tag_420:\n        /* \"#utility.yul\":15016:15155   */\n      swap1\n      pop\n        /* \"#utility.yul\":14743:15162   */\n      swap2\n      swap1\n      pop\n      jump\t// out\n        /* \"#utility.yul\":15168:15389   */\n    tag_275:\n        /* \"#utility.yul\":15308:15342   */\n      0x45524332303a20617070726f766520746f20746865207a65726f206164647265\n        /* \"#utility.yul\":15304:15305   */\n      0x00\n        /* \"#utility.yul\":15296:15302   */\n      dup3\n        /* \"#utility.yul\":15292:15306   */\n      add\n        /* \"#utility.yul\":15285:15343   */\n      mstore\n        /* \"#utility.yul\":15377:15381   */\n      0x7373000000000000000000000000000000000000000000000000000000000000\n        /* \"#utility.yul\":15372:15374   */\n      0x20\n        /* \"#utility.yul\":15364:15370   */\n      dup3\n        /* \"#utility.yul\":15360:15375   */\n      add\n        /* \"#utility.yul\":15353:15382   */\n      mstore\n        /* \"#utility.yul\":15168:15389   */\n      pop\n      jump\t// out\n        /* \"#utility.yul\":15395:15761   */\n    tag_276:\n        /* \"#utility.yul\":15537:15540   */\n      0x00\n        /* \"#utility.yul\":15558:15625   */\n      tag_423\n        /* \"#utility.yul\":15622:15624   */\n      0x22\n        /* \"#utility.yul\":15617:15620   */\n      dup4\n        /* \"#utility.yul\":15558:15625   */\n      tag_241\n      jump\t// in\n    tag_423:\n        /* \"#utility.yul\":15551:15625   */\n      swap2\n      pop\n        /* \"#utility.yul\":15634:15727   */\n      tag_424\n        /* \"#utility.yul\":15723:15726   */\n      dup3\n        /* \"#utility.yul\":15634:15727   */\n      tag_275\n      jump\t// in\n    tag_424:\n        /* \"#utility.yul\":15752:15754   */\n      0x40\n        /* \"#utility.yul\":15747:15750   */\n      dup3\n        /* \"#utility.yul\":15743:15755   */\n      add\n        /* \"#utility.yul\":15736:15755   */\n      swap1\n      pop\n        /* \"#utility.yul\":15395:15761   */\n      swap2\n      swap1\n      pop\n      jump\t// out\n        /* \"#utility.yul\":15767:16186   */\n    tag_214:\n        /* \"#utility.yul\":15933:15937   */\n      0x00\n        /* \"#utility.yul\":15971:15973   */\n      0x20\n        /* \"#utility.yul\":15960:15969   */\n      dup3\n        /* \"#utility.yul\":15956:15974   */\n      add\n        /* \"#utility.yul\":15948:15974   */\n      swap1\n      pop\n        /* \"#utility.yul\":16020:16029   */\n      dup2\n        /* \"#utility.yul\":16014:16018   */\n      dup2\n        /* \"#utility.yul\":16010:16030   */\n      sub\n        /* \"#utility.yul\":16006:16007   */\n      0x00\n        /* \"#utility.yul\":15995:16004   */\n      dup4\n        /* \"#utility.yul\":15991:16008   */\n      add\n        /* \"#utility.yul\":15984:16031   */\n      mstore\n        /* \"#utility.yul\":16048:16179   */\n      tag_426\n        /* \"#utility.yul\":16174:16178   */\n      dup2\n        /* \"#utility.yul\":16048:16179   */\n      tag_276\n      jump\t// in\n    tag_426:\n        /* \"#utility.yul\":16040:16179   */\n      swap1\n      pop\n        /* \"#utility.yul\":15767:16186   */\n      swap2\n      swap1\n      pop\n      jump\t// out\n        /* \"#utility.yul\":16192:16371   */\n    tag_277:\n        /* \"#utility.yul\":16332:16363   */\n      0x45524332303a20696e73756666696369656e7420616c6c6f77616e6365000000\n        /* \"#utility.yul\":16328:16329   */\n      0x00\n        /* \"#utility.yul\":16320:16326   */\n      dup3\n        /* \"#utility.yul\":16316:16330   */\n      add\n        /* \"#utility.yul\":16309:16364   */\n      mstore\n        /* \"#utility.yul\":16192:16371   */\n      pop\n      jump\t// out\n        /* \"#utility.yul\":16377:16743   */\n    tag_278:\n        /* \"#utility.yul\":16519:16522   */\n      0x00\n        /* \"#utility.yul\":16540:16607   */\n      tag_429\n        /* \"#utility.yul\":16604:16606   */\n      0x1d\n        /* \"#utility.yul\":16599:16602   */\n      dup4\n        /* \"#utility.yul\":16540:16607   */\n      tag_241\n      jump\t// in\n    tag_429:\n        /* \"#utility.yul\":16533:16607   */\n      swap2\n      pop\n        /* \"#utility.yul\":16616:16709   */\n      tag_430\n        /* \"#utility.yul\":16705:16708   */\n      dup3\n        /* \"#utility.yul\":16616:16709   */\n      tag_277\n      jump\t// in\n    tag_430:\n        /* \"#utility.yul\":16734:16736   */\n      0x20\n        /* \"#utility.yul\":16729:16732   */\n      dup3\n        /* \"#utility.yul\":16725:16737   */\n      add\n        /* \"#utility.yul\":16718:16737   */\n      swap1\n      pop\n        /* \"#utility.yul\":16377:16743   */\n      swap2\n      swap1\n      pop\n      jump\t// out\n        /* \"#utility.yul\":16749:17168   */\n    tag_221:\n        /* \"#utility.yul\":16915:16919   */\n      0x00\n        /* \"#utility.yul\":16953:16955   */\n      0x20\n        /* \"#utility.yul\":16942:16951   */\n      dup3\n        /* \"#utility.yul\":16938:16956   */\n      add\n        /* \"#utility.yul\":16930:16956   */\n      swap1\n      pop\n        /* \"#utility.yul\":17002:17011   */\n      dup2\n        /* \"#utility.yul\":16996:17000   */\n      dup2\n        /* \"#utility.yul\":16992:17012   */\n      sub\n        /* \"#utility.yul\":16988:16989   */\n      0x00\n        /* \"#utility.yul\":16977:16986   */\n      dup4\n        /* \"#utility.yul\":16973:16990   */\n      add\n        /* \"#utility.yul\":16966:17013   */\n      mstore\n        /* \"#utility.yul\":17030:17161   */\n      tag_432\n        /* \"#utility.yul\":17156:17160   */\n      dup2\n        /* \"#utility.yul\":17030:17161   */\n      tag_278\n      jump\t// in\n    tag_432:\n        /* \"#utility.yul\":17022:17161   */\n      swap1\n      pop\n        /* \"#utility.yul\":16749:17168   */\n      swap2\n      swap1\n      pop\n      jump\t// out\n        /* \"#utility.yul\":17174:17398   */\n    tag_279:\n        /* \"#utility.yul\":17314:17348   */\n      0x45524332303a207472616e736665722066726f6d20746865207a65726f206164\n        /* \"#utility.yul\":17310:17311   */\n      0x00\n        /* \"#utility.yul\":17302:17308   */\n      dup3\n        /* \"#utility.yul\":17298:17312   */\n      add\n        /* \"#utility.yul\":17291:17349   */\n      mstore\n        /* \"#utility.yul\":17383:17390   */\n      0x6472657373000000000000000000000000000000000000000000000000000000\n        /* \"#utility.yul\":17378:17380   */\n      0x20\n        /* \"#utility.yul\":17370:17376   */\n      dup3\n        /* \"#utility.yul\":17366:17381   */\n      add\n        /* \"#utility.yul\":17359:17391   */\n      mstore\n        /* \"#utility.yul\":17174:17398   */\n      pop\n      jump\t// out\n        /* \"#utility.yul\":17404:17770   */\n    tag_280:\n        /* \"#utility.yul\":17546:17549   */\n      0x00\n        /* \"#utility.yul\":17567:17634   */\n      tag_435\n        /* \"#utility.yul\":17631:17633   */\n      0x25\n        /* \"#utility.yul\":17626:17629   */\n      dup4\n        /* \"#utility.yul\":17567:17634   */\n      tag_241\n      jump\t// in\n    tag_435:\n        /* \"#utility.yul\":17560:17634   */\n      swap2\n      pop\n        /* \"#utility.yul\":17643:17736   */\n      tag_436\n        /* \"#utility.yul\":17732:17735   */\n      dup3\n        /* \"#utility.yul\":17643:17736   */\n      tag_279\n      jump\t// in\n    tag_436:\n        /* \"#utility.yul\":17761:17763   */\n      0x40\n        /* \"#utility.yul\":17756:17759   */\n      dup3\n        /* \"#utility.yul\":17752:17764   */\n      add\n        /* \"#utility.yul\":17745:17764   */\n      swap1\n      pop\n        /* \"#utility.yul\":17404:17770   */\n      swap2\n      swap1\n      pop\n      jump\t// out\n        /* \"#utility.yul\":17776:18195   */\n    tag_226:\n        /* \"#utility.yul\":17942:17946   */\n      0x00\n        /* \"#utility.yul\":17980:17982   */\n      0x20\n        /* \"#utility.yul\":17969:17978   */\n      dup3\n        /* \"#utility.yul\":17965:17983   */\n      add\n        /* \"#utility.yul\":17957:17983   */\n      swap1\n      pop\n        /* \"#utility.yul\":18029:18038   */\n      dup2\n        /* \"#utility.yul\":18023:18027   */\n      dup2\n        /* \"#utility.yul\":18019:18039   */\n      sub\n        /* \"#utility.yul\":18015:18016   */\n      0x00\n        /* \"#utility.yul\":18004:18013   */\n      dup4\n        /* \"#utility.yul\":18000:18017   */\n      add\n        /* \"#utility.yul\":17993:18040   */\n      mstore\n        /* \"#utility.yul\":18057:18188   */\n      tag_438\n        /* \"#utility.yul\":18183:18187   */\n      dup2\n        /* \"#utility.yul\":18057:18188   */\n      tag_280\n      jump\t// in\n    tag_438:\n        /* \"#utility.yul\":18049:18188   */\n      swap1\n      pop\n        /* \"#utility.yul\":17776:18195   */\n      swap2\n      swap1\n      pop\n      jump\t// out\n        /* \"#utility.yul\":18201:18423   */\n    tag_281:\n        /* \"#utility.yul\":18341:18375   */\n      0x45524332303a207472616e7366657220746f20746865207a65726f2061646472\n        /* \"#utility.yul\":18337:18338   */\n      0x00\n        /* \"#utility.yul\":18329:18335   */\n      dup3\n        /* \"#utility.yul\":18325:18339   */\n      add\n        /* \"#utility.yul\":18318:18376   */\n      mstore\n        /* \"#utility.yul\":18410:18415   */\n      0x6573730000000000000000000000000000000000000000000000000000000000\n        /* \"#utility.yul\":18405:18407   */\n      0x20\n        /* \"#utility.yul\":18397:18403   */\n      dup3\n        /* \"#utility.yul\":18393:18408   */\n      add\n        /* \"#utility.yul\":18386:18416   */\n      mstore\n        /* \"#utility.yul\":18201:18423   */\n      pop\n      jump\t// out\n        /* \"#utility.yul\":18429:18795   */\n    tag_282:\n        /* \"#utility.yul\":18571:18574   */\n      0x00\n        /* \"#utility.yul\":18592:18659   */\n      tag_441\n        /* \"#utility.yul\":18656:18658   */\n      0x23\n        /* \"#utility.yul\":18651:18654   */\n      dup4\n        /* \"#utility.yul\":18592:18659   */\n      tag_241\n      jump\t// in\n    tag_441:\n        /* \"#utility.yul\":18585:18659   */\n      swap2\n      pop\n        /* \"#utility.yul\":18668:18761   */\n      tag_442\n        /* \"#utility.yul\":18757:18760   */\n      dup3\n        /* \"#utility.yul\":18668:18761   */\n      tag_281\n      jump\t// in\n    tag_442:\n        /* \"#utility.yul\":18786:18788   */\n      0x40\n        /* \"#utility.yul\":18781:18784   */\n      dup3\n        /* \"#utility.yul\":18777:18789   */\n      add\n        /* \"#utility.yul\":18770:18789   */\n      swap1\n      pop\n        /* \"#utility.yul\":18429:18795   */\n      swap2\n      swap1\n      pop\n      jump\t// out\n        /* \"#utility.yul\":18801:19220   */\n    tag_229:\n        /* \"#utility.yul\":18967:18971   */\n      0x00\n        /* \"#utility.yul\":19005:19007   */\n      0x20\n        /* \"#utility.yul\":18994:19003   */\n      dup3\n        /* \"#utility.yul\":18990:19008   */\n      add\n        /* \"#utility.yul\":18982:19008   */\n      swap1\n      pop\n        /* \"#utility.yul\":19054:19063   */\n      dup2\n        /* \"#utility.yul\":19048:19052   */\n      dup2\n        /* \"#utility.yul\":19044:19064   */\n      sub\n        /* \"#utility.yul\":19040:19041   */\n      0x00\n        /* \"#utility.yul\":19029:19038   */\n      dup4\n        /* \"#utility.yul\":19025:19042   */\n      add\n        /* \"#utility.yul\":19018:19065   */\n      mstore\n        /* \"#utility.yul\":19082:19213   */\n      tag_444\n        /* \"#utility.yul\":19208:19212   */\n      dup2\n        /* \"#utility.yul\":19082:19213   */\n      tag_282\n      jump\t// in\n    tag_444:\n        /* \"#utility.yul\":19074:19213   */\n      swap1\n      pop\n        /* \"#utility.yul\":18801:19220   */\n      swap2\n      swap1\n      pop\n      jump\t// out\n        /* \"#utility.yul\":19226:19451   */\n    tag_283:\n        /* \"#utility.yul\":19366:19400   */\n      0x45524332303a207472616e7366657220616d6f756e7420657863656564732062\n        /* \"#utility.yul\":19362:19363   */\n      0x00\n        /* \"#utility.yul\":19354:19360   */\n      dup3\n        /* \"#utility.yul\":19350:19364   */\n      add\n        /* \"#utility.yul\":19343:19401   */\n      mstore\n        /* \"#utility.yul\":19435:19443   */\n      0x616c616e63650000000000000000000000000000000000000000000000000000\n        /* \"#utility.yul\":19430:19432   */\n      0x20\n        /* \"#utility.yul\":19422:19428   */\n      dup3\n        /* \"#utility.yul\":19418:19433   */\n      add\n        /* \"#utility.yul\":19411:19444   */\n      mstore\n        /* \"#utility.yul\":19226:19451   */\n      pop\n      jump\t// out\n        /* \"#utility.yul\":19457:19823   */\n    tag_284:\n        /* \"#utility.yul\":19599:19602   */\n      0x00\n        /* \"#utility.yul\":19620:19687   */\n      tag_447\n        /* \"#utility.yul\":19684:19686   */\n      0x26\n        /* \"#utility.yul\":19679:19682   */\n      dup4\n        /* \"#utility.yul\":19620:19687   */\n      tag_241\n      jump\t// in\n    tag_447:\n        /* \"#utility.yul\":19613:19687   */\n      swap2\n      pop\n        /* \"#utility.yul\":19696:19789   */\n      tag_448\n        /* \"#utility.yul\":19785:19788   */\n      dup3\n        /* \"#utility.yul\":19696:19789   */\n      tag_283\n      jump\t// in\n    tag_448:\n        /* \"#utility.yul\":19814:19816   */\n      0x40\n        /* \"#utility.yul\":19809:19812   */\n      dup3\n        /* \"#utility.yul\":19805:19817   */\n      add\n        /* \"#utility.yul\":19798:19817   */\n      swap1\n      pop\n        /* \"#utility.yul\":19457:19823   */\n      swap2\n      swap1\n      pop\n      jump\t// out\n        /* \"#utility.yul\":19829:20248   */\n    tag_234:\n        /* \"#utility.yul\":19995:19999   */\n      0x00\n        /* \"#utility.yul\":20033:20035   */\n      0x20\n        /* \"#utility.yul\":20022:20031   */\n      dup3\n        /* \"#utility.yul\":20018:20036   */\n      add\n        /* \"#utility.yul\":20010:20036   */\n      swap1\n      pop\n        /* \"#utility.yul\":20082:20091   */\n      dup2\n        /* \"#utility.yul\":20076:20080   */\n      dup2\n        /* \"#utility.yul\":20072:20092   */\n      sub\n        /* \"#utility.yul\":20068:20069   */\n      0x00\n        /* \"#utility.yul\":20057:20066   */\n      dup4\n        /* \"#utility.yul\":20053:20070   */\n      add\n        /* \"#utility.yul\":20046:20093   */\n      mstore\n        /* \"#utility.yul\":20110:20241   */\n      tag_450\n        /* \"#utility.yul\":20236:20240   */\n      dup2\n        /* \"#utility.yul\":20110:20241   */\n      tag_284\n      jump\t// in\n    tag_450:\n        /* \"#utility.yul\":20102:20241   */\n      swap1\n      pop\n        /* \"#utility.yul\":19829:20248   */\n      swap2\n      swap1\n      pop\n      jump\t// out\n\n    auxdata: 0xa26469706673582212204fc166fc42c2003c1fd52bb77865188fb1dbd69bc0d38617bb412e3625034ee564736f6c63430008120033\n}\n",
				"bytecode": {
					"linkReferences": {},
					"object": "6080604052670de0b6b3a76400006007553480156200001d57600080fd5b506040518060400160405280600f81526020017f5265616c457374617465546f6b656e00000000000000000000000000000000008152506040518060400160405280600381526020017f524554000000000000000000000000000000000000000000000000000000000081525081600390816200009b919062000371565b508060049081620000ad919062000371565b50505033600560006101000a81548173ffffffffffffffffffffffffffffffffffffffff021916908373ffffffffffffffffffffffffffffffffffffffff16021790555062000458565b600081519050919050565b7f4e487b7100000000000000000000000000000000000000000000000000000000600052604160045260246000fd5b7f4e487b7100000000000000000000000000000000000000000000000000000000600052602260045260246000fd5b600060028204905060018216806200017957607f821691505b6020821081036200018f576200018e62000131565b5b50919050565b60008190508160005260206000209050919050565b60006020601f8301049050919050565b600082821b905092915050565b600060088302620001f97fffffffffffffffffffffffffffffffffffffffffffffffffffffffffffffffff82620001ba565b620002058683620001ba565b95508019841693508086168417925050509392505050565b6000819050919050565b6000819050919050565b6000620002526200024c62000246846200021d565b62000227565b6200021d565b9050919050565b6000819050919050565b6200026e8362000231565b620002866200027d8262000259565b848454620001c7565b825550505050565b600090565b6200029d6200028e565b620002aa81848462000263565b505050565b5b81811015620002d257620002c660008262000293565b600181019050620002b0565b5050565b601f8211156200032157620002eb8162000195565b620002f684620001aa565b8101602085101562000306578190505b6200031e6200031585620001aa565b830182620002af565b50505b505050565b600082821c905092915050565b6000620003466000198460080262000326565b1980831691505092915050565b600062000361838362000333565b9150826002028217905092915050565b6200037c82620000f7565b67ffffffffffffffff81111562000398576200039762000102565b5b620003a4825462000160565b620003b1828285620002d6565b600060209050601f831160018114620003e95760008415620003d4578287015190505b620003e0858262000353565b86555062000450565b601f198416620003f98662000195565b60005b828110156200042357848901518255600182019150602085019450602081019050620003fc565b868310156200044357848901516200043f601f89168262000333565b8355505b6001600288020188555050505b505050505050565b611d8680620004686000396000f3fe60806040526004361061012a5760003560e01c8063419759f5116100ab578063a457c2d71161006f578063a457c2d714610406578063a9059cbb14610443578063adf0779114610480578063cfc78a12146104ab578063dd62ed3e146104d4578063e01fe4c3146105115761012a565b8063419759f51461033e57806342c63dae1461036957806370a08231146103735780638da5cb5b146103b057806395d89b41146103db5761012a565b806323b872dd116100f257806323b872dd14610233578063255dbb53146102705780632e74a4de146102ad578063313ce567146102d657806339509351146103015761012a565b806306fdde031461012f578063095ea7b31461015a5780630df9c4261461019757806312065fe0146101dd57806318160ddd14610208575b600080fd5b34801561013b57600080fd5b50610144610550565b604051610151919061132f565b60405180910390f35b34801561016657600080fd5b50610181600480360381019061017c91906113ea565b6105e2565b60405161018e9190611445565b60405180910390f35b3480156101a357600080fd5b506101be60048036038101906101b99190611460565b610605565b6040516101d49a9998979695949392919061149c565b60405180910390f35b3480156101e957600080fd5b506101f2610659565b6040516101ff9190611538565b60405180910390f35b34801561021457600080fd5b5061021d610661565b60405161022a9190611538565b60405180910390f35b34801561023f57600080fd5b5061025a60048036038101906102559190611553565b61066b565b6040516102679190611445565b60405180910390f35b34801561027c57600080fd5b5061029760048036038101906102929190611460565b61069a565b6040516102a49190611445565b60405180910390f35b3480156102b957600080fd5b506102d460048036038101906102cf9190611460565b6106ba565b005b3480156102e257600080fd5b506102eb61078e565b6040516102f891906115c2565b60405180910390f35b34801561030d57600080fd5b50610328600480360381019061032391906113ea565b610797565b6040516103359190611445565b60405180910390f35b34801561034a57600080fd5b506103536107ce565b6040516103609190611538565b60405180910390f35b6103716107d4565b005b34801561037f57600080fd5b5061039a60048036038101906103959190611460565b610902565b6040516103a79190611538565b60405180910390f35b3480156103bc57600080fd5b506103c561094a565b6040516103d291906115ec565b60405180910390f35b3480156103e757600080fd5b506103f0610970565b6040516103fd919061132f565b60405180910390f35b34801561041257600080fd5b5061042d600480360381019061042891906113ea565b610a02565b60405161043a9190611445565b60405180910390f35b34801561044f57600080fd5b5061046a600480360381019061046591906113ea565b610a79565b6040516104779190611445565b60405180910390f35b34801561048c57600080fd5b50610495610a9c565b6040516104a291906115ec565b60405180910390f35b3480156104b757600080fd5b506104d260048036038101906104cd9190611607565b610ac2565b005b3480156104e057600080fd5b506104fb60048036038101906104f69190611634565b610c01565b6040516105089190611538565b60405180910390f35b34801561051d57600080fd5b5061053860048036038101906105339190611460565b610c88565b60405161054793929190611674565b60405180910390f35b60606003805461055f906116e8565b80601f016020809104026020016040519081016040528092919081815260200182805461058b906116e8565b80156105d85780601f106105ad576101008083540402835291602001916105d8565b820191906000526020600020905b8154815290600101906020018083116105bb57829003601f168201915b5050505050905090565b6000806105ed610dc2565b90506105fa818585610dca565b600191505092915050565b6008602052806000526040600020600091509050806000015490806001015490806002015490806003015490806004015490806005015490806006015490806007015490806008015490806009015490508a565b600047905090565b6000600254905090565b600080610676610dc2565b9050610683858285610f93565b61068e85858561101f565b60019150509392505050565b600a6020528060005260406000206000915054906101000a900460ff1681565b600560009054906101000a900473ffffffffffffffffffffffffffffffffffffffff1673ffffffffffffffffffffffffffffffffffffffff163373ffffffffffffffffffffffffffffffffffffffff161461074a576040517f08c379a00000000000000000000000000000000000000000000000000000000081526004016107419061178b565b60405180910390fd5b80600660006101000a81548173ffffffffffffffffffffffffffffffffffffffff021916908373ffffffffffffffffffffffffffffffffffffffff16021790555050565b60006012905090565b6000806107a2610dc2565b90506107c38185856107b48589610c01565b6107be91906117da565b610dca565b600191505092915050565b60075481565b600660009054906101000a900473ffffffffffffffffffffffffffffffffffffffff1673ffffffffffffffffffffffffffffffffffffffff163373ffffffffffffffffffffffffffffffffffffffff1614610864576040517f08c379a000000000000000000000000000000000000000000000000000000000815260040161085b90611880565b60405180910390fd5b60075434146108a8576040517f08c379a000000000000000000000000000000000000000000000000000000000815260040161089f906118ec565b60405180910390fd5b6001600a60003373ffffffffffffffffffffffffffffffffffffffff1673ffffffffffffffffffffffffffffffffffffffff16815260200190815260200160002060006101000a81548160ff021916908315150217905550565b60008060008373ffffffffffffffffffffffffffffffffffffffff1673ffffffffffffffffffffffffffffffffffffffff168152602001908152602001600020549050919050565b600560009054906101000a900473ffffffffffffffffffffffffffffffffffffffff1681565b60606004805461097f906116e8565b80601f01602080910402602001604051908101604052809291908181526020018280546109ab906116e8565b80156109f85780601f106109cd576101008083540402835291602001916109f8565b820191906000526020600020905b8154815290600101906020018083116109db57829003601f168201915b5050505050905090565b600080610a0d610dc2565b90506000610a1b8286610c01565b905083811015610a60576040517f08c379a0000000000000000000000000000000000000000000000000000000008152600401610a579061197e565b60405180910390fd5b610a6d8286868403610dca565b60019250505092915050565b600080610a84610dc2565b9050610a9181858561101f565b600191505092915050565b600660009054906101000a900473ffffffffffffffffffffffffffffffffffffffff1681565b600560009054906101000a900473ffffffffffffffffffffffffffffffffffffffff1673ffffffffffffffffffffffffffffffffffffffff163373ffffffffffffffffffffffffffffffffffffffff1614610b52576040517f08c379a0000000000000000000000000000000000000000000000000000000008152600401610b499061178b565b60405180910390fd5b47811115610b95576040517f08c379a0000000000000000000000000000000000000000000000000000000008152600401610b8c906119ea565b60405180910390fd5b600560009054906101000a900473ffffffffffffffffffffffffffffffffffffffff1673ffffffffffffffffffffffffffffffffffffffff166108fc829081150290604051600060405180830381858888f19350505050158015610bfd573d6000803e3d6000fd5b5050565b6000600160008473ffffffffffffffffffffffffffffffffffffffff1673ffffffffffffffffffffffffffffffffffffffff16815260200190815260200160002060008373ffffffffffffffffffffffffffffffffffffffff1673ffffffffffffffffffffffffffffffffffffffff16815260200190815260200160002054905092915050565b6009602052806000526040600020600091509050806000018054610cab906116e8565b80601f0160208091040260200160405190810160405280929190818152602001828054610cd7906116e8565b8015610d245780601f10610cf957610100808354040283529160200191610d24565b820191906000526020600020905b815481529060010190602001808311610d0757829003601f168201915b505050505090806001018054610d39906116e8565b80601f0160208091040260200160405190810160405280929190818152602001828054610d65906116e8565b8015610db25780601f10610d8757610100808354040283529160200191610db2565b820191906000526020600020905b815481529060010190602001808311610d9557829003601f168201915b5050505050908060020154905083565b600033905090565b600073ffffffffffffffffffffffffffffffffffffffff168373ffffffffffffffffffffffffffffffffffffffff1603610e39576040517f08c379a0000000000000000000000000000000000000000000000000000000008152600401610e3090611a7c565b60405180910390fd5b600073ffffffffffffffffffffffffffffffffffffffff168273ffffffffffffffffffffffffffffffffffffffff1603610ea8576040517f08c379a0000000000000000000000000000000000000000000000000000000008152600401610e9f90611b0e565b60405180910390fd5b80600160008573ffffffffffffffffffffffffffffffffffffffff1673ffffffffffffffffffffffffffffffffffffffff16815260200190815260200160002060008473ffffffffffffffffffffffffffffffffffffffff1673ffffffffffffffffffffffffffffffffffffffff168152602001908152602001600020819055508173ffffffffffffffffffffffffffffffffffffffff168373ffffffffffffffffffffffffffffffffffffffff167f8c5be1e5ebec7d5bd14f71427d1e84f3dd0314c0f7b2291e5b200ac8c7c3b92583604051610f869190611538565b60405180910390a3505050565b6000610f9f8484610c01565b90507fffffffffffffffffffffffffffffffffffffffffffffffffffffffffffffffff8114611019578181101561100b576040517f08c379a000000000000000000000000000000000000000000000000000000000815260040161100290611b7a565b60405180910390fd5b6110188484848403610dca565b5b50505050565b600073ffffffffffffffffffffffffffffffffffffffff168373ffffffffffffffffffffffffffffffffffffffff160361108e576040517f08c379a000000000000000000000000000000000000000000000000000000000815260040161108590611c0c565b60405180910390fd5b600073ffffffffffffffffffffffffffffffffffffffff168273ffffffffffffffffffffffffffffffffffffffff16036110fd576040517f08c379a00000000000000000000000000000000000000000000000000000000081526004016110f490611c9e565b60405180910390fd5b611108838383611295565b60008060008573ffffffffffffffffffffffffffffffffffffffff1673ffffffffffffffffffffffffffffffffffffffff1681526020019081526020016000205490508181101561118e576040517f08c379a000000000000000000000000000000000000000000000000000000000815260040161118590611d30565b60405180910390fd5b8181036000808673ffffffffffffffffffffffffffffffffffffffff1673ffffffffffffffffffffffffffffffffffffffff16815260200190815260200160002081905550816000808573ffffffffffffffffffffffffffffffffffffffff1673ffffffffffffffffffffffffffffffffffffffff168152602001908152602001600020600082825401925050819055508273ffffffffffffffffffffffffffffffffffffffff168473ffffffffffffffffffffffffffffffffffffffff167fddf252ad1be2c89b69c2b068fc378daa952ba7f163c4a11628f55a4df523b3ef8460405161127c9190611538565b60405180910390a361128f84848461129a565b50505050565b505050565b505050565b600081519050919050565b600082825260208201905092915050565b60005b838110156112d95780820151818401526020810190506112be565b60008484015250505050565b6000601f19601f8301169050919050565b60006113018261129f565b61130b81856112aa565b935061131b8185602086016112bb565b611324816112e5565b840191505092915050565b6000602082019050818103600083015261134981846112f6565b905092915050565b600080fd5b600073ffffffffffffffffffffffffffffffffffffffff82169050919050565b600061138182611356565b9050919050565b61139181611376565b811461139c57600080fd5b50565b6000813590506113ae81611388565b92915050565b6000819050919050565b6113c7816113b4565b81146113d257600080fd5b50565b6000813590506113e4816113be565b92915050565b6000806040838503121561140157611400611351565b5b600061140f8582860161139f565b9250506020611420858286016113d5565b9150509250929050565b60008115159050919050565b61143f8161142a565b82525050565b600060208201905061145a6000830184611436565b92915050565b60006020828403121561147657611475611351565b5b60006114848482850161139f565b91505092915050565b611496816113b4565b82525050565b6000610140820190506114b2600083018d61148d565b6114bf602083018c61148d565b6114cc604083018b61148d565b6114d9606083018a61148d565b6114e6608083018961148d565b6114f360a083018861148d565b61150060c083018761148d565b61150d60e083018661148d565b61151b61010083018561148d565b61152961012083018461148d565b9b9a5050505050505050505050565b600060208201905061154d600083018461148d565b92915050565b60008060006060848603121561156c5761156b611351565b5b600061157a8682870161139f565b935050602061158b8682870161139f565b925050604061159c868287016113d5565b9150509250925092565b600060ff82169050919050565b6115bc816115a6565b82525050565b60006020820190506115d760008301846115b3565b92915050565b6115e681611376565b82525050565b600060208201905061160160008301846115dd565b92915050565b60006020828403121561161d5761161c611351565b5b600061162b848285016113d5565b91505092915050565b6000806040838503121561164b5761164a611351565b5b60006116598582860161139f565b925050602061166a8582860161139f565b9150509250929050565b6000606082019050818103600083015261168e81866112f6565b905081810360208301526116a281856112f6565b90506116b1604083018461148d565b949350505050565b7f4e487b7100000000000000000000000000000000000000000000000000000000600052602260045260246000fd5b6000600282049050600182168061170057607f821691505b602082108103611713576117126116b9565b5b50919050565b7f4f6e6c7920746865206f776e65722063616e2063616c6c20746869732066756e60008201527f6374696f6e000000000000000000000000000000000000000000000000000000602082015250565b60006117756025836112aa565b915061178082611719565b604082019050919050565b600060208201905081810360008301526117a481611768565b9050919050565b7f4e487b7100000000000000000000000000000000000000000000000000000000600052601160045260246000fd5b60006117e5826113b4565b91506117f0836113b4565b9250828201905080821115611808576118076117ab565b5b92915050565b7f4f6e6c79207468652074656e616e742063616e2063616c6c207468697320667560008201527f6e6374696f6e0000000000000000000000000000000000000000000000000000602082015250565b600061186a6026836112aa565b91506118758261180e565b604082019050919050565b600060208201905081810360008301526118998161185d565b9050919050565b7f4465706f73697420616d6f756e7420646f6573206e6f74206d61746368000000600082015250565b60006118d6601d836112aa565b91506118e1826118a0565b602082019050919050565b60006020820190508181036000830152611905816118c9565b9050919050565b7f45524332303a2064656372656173656420616c6c6f77616e63652062656c6f7760008201527f207a65726f000000000000000000000000000000000000000000000000000000602082015250565b60006119686025836112aa565b91506119738261190c565b604082019050919050565b600060208201905081810360008301526119978161195b565b9050919050565b7f496e73756666696369656e742062616c616e6365000000000000000000000000600082015250565b60006119d46014836112aa565b91506119df8261199e565b602082019050919050565b60006020820190508181036000830152611a03816119c7565b9050919050565b7f45524332303a20617070726f76652066726f6d20746865207a65726f2061646460008201527f7265737300000000000000000000000000000000000000000000000000000000602082015250565b6000611a666024836112aa565b9150611a7182611a0a565b604082019050919050565b60006020820190508181036000830152611a9581611a59565b9050919050565b7f45524332303a20617070726f766520746f20746865207a65726f20616464726560008201527f7373000000000000000000000000000000000000000000000000000000000000602082015250565b6000611af86022836112aa565b9150611b0382611a9c565b604082019050919050565b60006020820190508181036000830152611b2781611aeb565b9050919050565b7f45524332303a20696e73756666696369656e7420616c6c6f77616e6365000000600082015250565b6000611b64601d836112aa565b9150611b6f82611b2e565b602082019050919050565b60006020820190508181036000830152611b9381611b57565b9050919050565b7f45524332303a207472616e736665722066726f6d20746865207a65726f20616460008201527f6472657373000000000000000000000000000000000000000000000000000000602082015250565b6000611bf66025836112aa565b9150611c0182611b9a565b604082019050919050565b60006020820190508181036000830152611c2581611be9565b9050919050565b7f45524332303a207472616e7366657220746f20746865207a65726f206164647260008201527f6573730000000000000000000000000000000000000000000000000000000000602082015250565b6000611c886023836112aa565b9150611c9382611c2c565b604082019050919050565b60006020820190508181036000830152611cb781611c7b565b9050919050565b7f45524332303a207472616e7366657220616d6f756e742065786365656473206260008201527f616c616e63650000000000000000000000000000000000000000000000000000602082015250565b6000611d1a6026836112aa565b9150611d2582611cbe565b604082019050919050565b60006020820190508181036000830152611d4981611d0d565b905091905056fea26469706673582212204fc166fc42c2003c1fd52bb77865188fb1dbd69bc0d38617bb412e3625034ee564736f6c63430008120033",
					"opcodes": "PUSH1 0x80 PUSH1 0x40 MSTORE PUSH8 0xDE0B6B3A7640000 PUSH1 0x7 SSTORE CALLVALUE DUP1 ISZERO PUSH3 0x1D JUMPI PUSH1 0x0 DUP1 REVERT JUMPDEST POP PUSH1 0x40 MLOAD DUP1 PUSH1 0x40 ADD PUSH1 0x40 MSTORE DUP1 PUSH1 0xF DUP2 MSTORE PUSH1 0x20 ADD PUSH32 0x5265616C457374617465546F6B656E0000000000000000000000000000000000 DUP2 MSTORE POP PUSH1 0x40 MLOAD DUP1 PUSH1 0x40 ADD PUSH1 0x40 MSTORE DUP1 PUSH1 0x3 DUP2 MSTORE PUSH1 0x20 ADD PUSH32 0x5245540000000000000000000000000000000000000000000000000000000000 DUP2 MSTORE POP DUP2 PUSH1 0x3 SWAP1 DUP2 PUSH3 0x9B SWAP2 SWAP1 PUSH3 0x371 JUMP JUMPDEST POP DUP1 PUSH1 0x4 SWAP1 DUP2 PUSH3 0xAD SWAP2 SWAP1 PUSH3 0x371 JUMP JUMPDEST POP POP POP CALLER PUSH1 0x5 PUSH1 0x0 PUSH2 0x100 EXP DUP2 SLOAD DUP2 PUSH20 0xFFFFFFFFFFFFFFFFFFFFFFFFFFFFFFFFFFFFFFFF MUL NOT AND SWAP1 DUP4 PUSH20 0xFFFFFFFFFFFFFFFFFFFFFFFFFFFFFFFFFFFFFFFF AND MUL OR SWAP1 SSTORE POP PUSH3 0x458 JUMP JUMPDEST PUSH1 0x0 DUP2 MLOAD SWAP1 POP SWAP2 SWAP1 POP JUMP JUMPDEST PUSH32 0x4E487B7100000000000000000000000000000000000000000000000000000000 PUSH1 0x0 MSTORE PUSH1 0x41 PUSH1 0x4 MSTORE PUSH1 0x24 PUSH1 0x0 REVERT JUMPDEST PUSH32 0x4E487B7100000000000000000000000000000000000000000000000000000000 PUSH1 0x0 MSTORE PUSH1 0x22 PUSH1 0x4 MSTORE PUSH1 0x24 PUSH1 0x0 REVERT JUMPDEST PUSH1 0x0 PUSH1 0x2 DUP3 DIV SWAP1 POP PUSH1 0x1 DUP3 AND DUP1 PUSH3 0x179 JUMPI PUSH1 0x7F DUP3 AND SWAP2 POP JUMPDEST PUSH1 0x20 DUP3 LT DUP2 SUB PUSH3 0x18F JUMPI PUSH3 0x18E PUSH3 0x131 JUMP JUMPDEST JUMPDEST POP SWAP2 SWAP1 POP JUMP JUMPDEST PUSH1 0x0 DUP2 SWAP1 POP DUP2 PUSH1 0x0 MSTORE PUSH1 0x20 PUSH1 0x0 KECCAK256 SWAP1 POP SWAP2 SWAP1 POP JUMP JUMPDEST PUSH1 0x0 PUSH1 0x20 PUSH1 0x1F DUP4 ADD DIV SWAP1 POP SWAP2 SWAP1 POP JUMP JUMPDEST PUSH1 0x0 DUP3 DUP3 SHL SWAP1 POP SWAP3 SWAP2 POP POP JUMP JUMPDEST PUSH1 0x0 PUSH1 0x8 DUP4 MUL PUSH3 0x1F9 PUSH32 0xFFFFFFFFFFFFFFFFFFFFFFFFFFFFFFFFFFFFFFFFFFFFFFFFFFFFFFFFFFFFFFFF DUP3 PUSH3 0x1BA JUMP JUMPDEST PUSH3 0x205 DUP7 DUP4 PUSH3 0x1BA JUMP JUMPDEST SWAP6 POP DUP1 NOT DUP5 AND SWAP4 POP DUP1 DUP7 AND DUP5 OR SWAP3 POP POP POP SWAP4 SWAP3 POP POP POP JUMP JUMPDEST PUSH1 0x0 DUP2 SWAP1 POP SWAP2 SWAP1 POP JUMP JUMPDEST PUSH1 0x0 DUP2 SWAP1 POP SWAP2 SWAP1 POP JUMP JUMPDEST PUSH1 0x0 PUSH3 0x252 PUSH3 0x24C PUSH3 0x246 DUP5 PUSH3 0x21D JUMP JUMPDEST PUSH3 0x227 JUMP JUMPDEST PUSH3 0x21D JUMP JUMPDEST SWAP1 POP SWAP2 SWAP1 POP JUMP JUMPDEST PUSH1 0x0 DUP2 SWAP1 POP SWAP2 SWAP1 POP JUMP JUMPDEST PUSH3 0x26E DUP4 PUSH3 0x231 JUMP JUMPDEST PUSH3 0x286 PUSH3 0x27D DUP3 PUSH3 0x259 JUMP JUMPDEST DUP5 DUP5 SLOAD PUSH3 0x1C7 JUMP JUMPDEST DUP3 SSTORE POP POP POP POP JUMP JUMPDEST PUSH1 0x0 SWAP1 JUMP JUMPDEST PUSH3 0x29D PUSH3 0x28E JUMP JUMPDEST PUSH3 0x2AA DUP2 DUP5 DUP5 PUSH3 0x263 JUMP JUMPDEST POP POP POP JUMP JUMPDEST JUMPDEST DUP2 DUP2 LT ISZERO PUSH3 0x2D2 JUMPI PUSH3 0x2C6 PUSH1 0x0 DUP3 PUSH3 0x293 JUMP JUMPDEST PUSH1 0x1 DUP2 ADD SWAP1 POP PUSH3 0x2B0 JUMP JUMPDEST POP POP JUMP JUMPDEST PUSH1 0x1F DUP3 GT ISZERO PUSH3 0x321 JUMPI PUSH3 0x2EB DUP2 PUSH3 0x195 JUMP JUMPDEST PUSH3 0x2F6 DUP5 PUSH3 0x1AA JUMP JUMPDEST DUP2 ADD PUSH1 0x20 DUP6 LT ISZERO PUSH3 0x306 JUMPI DUP2 SWAP1 POP JUMPDEST PUSH3 0x31E PUSH3 0x315 DUP6 PUSH3 0x1AA JUMP JUMPDEST DUP4 ADD DUP3 PUSH3 0x2AF JUMP JUMPDEST POP POP JUMPDEST POP POP POP JUMP JUMPDEST PUSH1 0x0 DUP3 DUP3 SHR SWAP1 POP SWAP3 SWAP2 POP POP JUMP JUMPDEST PUSH1 0x0 PUSH3 0x346 PUSH1 0x0 NOT DUP5 PUSH1 0x8 MUL PUSH3 0x326 JUMP JUMPDEST NOT DUP1 DUP4 AND SWAP2 POP POP SWAP3 SWAP2 POP POP JUMP JUMPDEST PUSH1 0x0 PUSH3 0x361 DUP4 DUP4 PUSH3 0x333 JUMP JUMPDEST SWAP2 POP DUP3 PUSH1 0x2 MUL DUP3 OR SWAP1 POP SWAP3 SWAP2 POP POP JUMP JUMPDEST PUSH3 0x37C DUP3 PUSH3 0xF7 JUMP JUMPDEST PUSH8 0xFFFFFFFFFFFFFFFF DUP2 GT ISZERO PUSH3 0x398 JUMPI PUSH3 0x397 PUSH3 0x102 JUMP JUMPDEST JUMPDEST PUSH3 0x3A4 DUP3 SLOAD PUSH3 0x160 JUMP JUMPDEST PUSH3 0x3B1 DUP3 DUP3 DUP6 PUSH3 0x2D6 JUMP JUMPDEST PUSH1 0x0 PUSH1 0x20 SWAP1 POP PUSH1 0x1F DUP4 GT PUSH1 0x1 DUP2 EQ PUSH3 0x3E9 JUMPI PUSH1 0x0 DUP5 ISZERO PUSH3 0x3D4 JUMPI DUP3 DUP8 ADD MLOAD SWAP1 POP JUMPDEST PUSH3 0x3E0 DUP6 DUP3 PUSH3 0x353 JUMP JUMPDEST DUP7 SSTORE POP PUSH3 0x450 JUMP JUMPDEST PUSH1 0x1F NOT DUP5 AND PUSH3 0x3F9 DUP7 PUSH3 0x195 JUMP JUMPDEST PUSH1 0x0 JUMPDEST DUP3 DUP2 LT ISZERO PUSH3 0x423 JUMPI DUP5 DUP10 ADD MLOAD DUP3 SSTORE PUSH1 0x1 DUP3 ADD SWAP2 POP PUSH1 0x20 DUP6 ADD SWAP5 POP PUSH1 0x20 DUP2 ADD SWAP1 POP PUSH3 0x3FC JUMP JUMPDEST DUP7 DUP4 LT ISZERO PUSH3 0x443 JUMPI DUP5 DUP10 ADD MLOAD PUSH3 0x43F PUSH1 0x1F DUP10 AND DUP3 PUSH3 0x333 JUMP JUMPDEST DUP4 SSTORE POP JUMPDEST PUSH1 0x1 PUSH1 0x2 DUP9 MUL ADD DUP9 SSTORE POP POP POP JUMPDEST POP POP POP POP POP POP JUMP JUMPDEST PUSH2 0x1D86 DUP1 PUSH3 0x468 PUSH1 0x0 CODECOPY PUSH1 0x0 RETURN INVALID PUSH1 0x80 PUSH1 0x40 MSTORE PUSH1 0x4 CALLDATASIZE LT PUSH2 0x12A JUMPI PUSH1 0x0 CALLDATALOAD PUSH1 0xE0 SHR DUP1 PUSH4 0x419759F5 GT PUSH2 0xAB JUMPI DUP1 PUSH4 0xA457C2D7 GT PUSH2 0x6F JUMPI DUP1 PUSH4 0xA457C2D7 EQ PUSH2 0x406 JUMPI DUP1 PUSH4 0xA9059CBB EQ PUSH2 0x443 JUMPI DUP1 PUSH4 0xADF07791 EQ PUSH2 0x480 JUMPI DUP1 PUSH4 0xCFC78A12 EQ PUSH2 0x4AB JUMPI DUP1 PUSH4 0xDD62ED3E EQ PUSH2 0x4D4 JUMPI DUP1 PUSH4 0xE01FE4C3 EQ PUSH2 0x511 JUMPI PUSH2 0x12A JUMP JUMPDEST DUP1 PUSH4 0x419759F5 EQ PUSH2 0x33E JUMPI DUP1 PUSH4 0x42C63DAE EQ PUSH2 0x369 JUMPI DUP1 PUSH4 0x70A08231 EQ PUSH2 0x373 JUMPI DUP1 PUSH4 0x8DA5CB5B EQ PUSH2 0x3B0 JUMPI DUP1 PUSH4 0x95D89B41 EQ PUSH2 0x3DB JUMPI PUSH2 0x12A JUMP JUMPDEST DUP1 PUSH4 0x23B872DD GT PUSH2 0xF2 JUMPI DUP1 PUSH4 0x23B872DD EQ PUSH2 0x233 JUMPI DUP1 PUSH4 0x255DBB53 EQ PUSH2 0x270 JUMPI DUP1 PUSH4 0x2E74A4DE EQ PUSH2 0x2AD JUMPI DUP1 PUSH4 0x313CE567 EQ PUSH2 0x2D6 JUMPI DUP1 PUSH4 0x39509351 EQ PUSH2 0x301 JUMPI PUSH2 0x12A JUMP JUMPDEST DUP1 PUSH4 0x6FDDE03 EQ PUSH2 0x12F JUMPI DUP1 PUSH4 0x95EA7B3 EQ PUSH2 0x15A JUMPI DUP1 PUSH4 0xDF9C426 EQ PUSH2 0x197 JUMPI DUP1 PUSH4 0x12065FE0 EQ PUSH2 0x1DD JUMPI DUP1 PUSH4 0x18160DDD EQ PUSH2 0x208 JUMPI JUMPDEST PUSH1 0x0 DUP1 REVERT JUMPDEST CALLVALUE DUP1 ISZERO PUSH2 0x13B JUMPI PUSH1 0x0 DUP1 REVERT JUMPDEST POP PUSH2 0x144 PUSH2 0x550 JUMP JUMPDEST PUSH1 0x40 MLOAD PUSH2 0x151 SWAP2 SWAP1 PUSH2 0x132F JUMP JUMPDEST PUSH1 0x40 MLOAD DUP1 SWAP2 SUB SWAP1 RETURN JUMPDEST CALLVALUE DUP1 ISZERO PUSH2 0x166 JUMPI PUSH1 0x0 DUP1 REVERT JUMPDEST POP PUSH2 0x181 PUSH1 0x4 DUP1 CALLDATASIZE SUB DUP2 ADD SWAP1 PUSH2 0x17C SWAP2 SWAP1 PUSH2 0x13EA JUMP JUMPDEST PUSH2 0x5E2 JUMP JUMPDEST PUSH1 0x40 MLOAD PUSH2 0x18E SWAP2 SWAP1 PUSH2 0x1445 JUMP JUMPDEST PUSH1 0x40 MLOAD DUP1 SWAP2 SUB SWAP1 RETURN JUMPDEST CALLVALUE DUP1 ISZERO PUSH2 0x1A3 JUMPI PUSH1 0x0 DUP1 REVERT JUMPDEST POP PUSH2 0x1BE PUSH1 0x4 DUP1 CALLDATASIZE SUB DUP2 ADD SWAP1 PUSH2 0x1B9 SWAP2 SWAP1 PUSH2 0x1460 JUMP JUMPDEST PUSH2 0x605 JUMP JUMPDEST PUSH1 0x40 MLOAD PUSH2 0x1D4 SWAP11 SWAP10 SWAP9 SWAP8 SWAP7 SWAP6 SWAP5 SWAP4 SWAP3 SWAP2 SWAP1 PUSH2 0x149C JUMP JUMPDEST PUSH1 0x40 MLOAD DUP1 SWAP2 SUB SWAP1 RETURN JUMPDEST CALLVALUE DUP1 ISZERO PUSH2 0x1E9 JUMPI PUSH1 0x0 DUP1 REVERT JUMPDEST POP PUSH2 0x1F2 PUSH2 0x659 JUMP JUMPDEST PUSH1 0x40 MLOAD PUSH2 0x1FF SWAP2 SWAP1 PUSH2 0x1538 JUMP JUMPDEST PUSH1 0x40 MLOAD DUP1 SWAP2 SUB SWAP1 RETURN JUMPDEST CALLVALUE DUP1 ISZERO PUSH2 0x214 JUMPI PUSH1 0x0 DUP1 REVERT JUMPDEST POP PUSH2 0x21D PUSH2 0x661 JUMP JUMPDEST PUSH1 0x40 MLOAD PUSH2 0x22A SWAP2 SWAP1 PUSH2 0x1538 JUMP JUMPDEST PUSH1 0x40 MLOAD DUP1 SWAP2 SUB SWAP1 RETURN JUMPDEST CALLVALUE DUP1 ISZERO PUSH2 0x23F JUMPI PUSH1 0x0 DUP1 REVERT JUMPDEST POP PUSH2 0x25A PUSH1 0x4 DUP1 CALLDATASIZE SUB DUP2 ADD SWAP1 PUSH2 0x255 SWAP2 SWAP1 PUSH2 0x1553 JUMP JUMPDEST PUSH2 0x66B JUMP JUMPDEST PUSH1 0x40 MLOAD PUSH2 0x267 SWAP2 SWAP1 PUSH2 0x1445 JUMP JUMPDEST PUSH1 0x40 MLOAD DUP1 SWAP2 SUB SWAP1 RETURN JUMPDEST CALLVALUE DUP1 ISZERO PUSH2 0x27C JUMPI PUSH1 0x0 DUP1 REVERT JUMPDEST POP PUSH2 0x297 PUSH1 0x4 DUP1 CALLDATASIZE SUB DUP2 ADD SWAP1 PUSH2 0x292 SWAP2 SWAP1 PUSH2 0x1460 JUMP JUMPDEST PUSH2 0x69A JUMP JUMPDEST PUSH1 0x40 MLOAD PUSH2 0x2A4 SWAP2 SWAP1 PUSH2 0x1445 JUMP JUMPDEST PUSH1 0x40 MLOAD DUP1 SWAP2 SUB SWAP1 RETURN JUMPDEST CALLVALUE DUP1 ISZERO PUSH2 0x2B9 JUMPI PUSH1 0x0 DUP1 REVERT JUMPDEST POP PUSH2 0x2D4 PUSH1 0x4 DUP1 CALLDATASIZE SUB DUP2 ADD SWAP1 PUSH2 0x2CF SWAP2 SWAP1 PUSH2 0x1460 JUMP JUMPDEST PUSH2 0x6BA JUMP JUMPDEST STOP JUMPDEST CALLVALUE DUP1 ISZERO PUSH2 0x2E2 JUMPI PUSH1 0x0 DUP1 REVERT JUMPDEST POP PUSH2 0x2EB PUSH2 0x78E JUMP JUMPDEST PUSH1 0x40 MLOAD PUSH2 0x2F8 SWAP2 SWAP1 PUSH2 0x15C2 JUMP JUMPDEST PUSH1 0x40 MLOAD DUP1 SWAP2 SUB SWAP1 RETURN JUMPDEST CALLVALUE DUP1 ISZERO PUSH2 0x30D JUMPI PUSH1 0x0 DUP1 REVERT JUMPDEST POP PUSH2 0x328 PUSH1 0x4 DUP1 CALLDATASIZE SUB DUP2 ADD SWAP1 PUSH2 0x323 SWAP2 SWAP1 PUSH2 0x13EA JUMP JUMPDEST PUSH2 0x797 JUMP JUMPDEST PUSH1 0x40 MLOAD PUSH2 0x335 SWAP2 SWAP1 PUSH2 0x1445 JUMP JUMPDEST PUSH1 0x40 MLOAD DUP1 SWAP2 SUB SWAP1 RETURN JUMPDEST CALLVALUE DUP1 ISZERO PUSH2 0x34A JUMPI PUSH1 0x0 DUP1 REVERT JUMPDEST POP PUSH2 0x353 PUSH2 0x7CE JUMP JUMPDEST PUSH1 0x40 MLOAD PUSH2 0x360 SWAP2 SWAP1 PUSH2 0x1538 JUMP JUMPDEST PUSH1 0x40 MLOAD DUP1 SWAP2 SUB SWAP1 RETURN JUMPDEST PUSH2 0x371 PUSH2 0x7D4 JUMP JUMPDEST STOP JUMPDEST CALLVALUE DUP1 ISZERO PUSH2 0x37F JUMPI PUSH1 0x0 DUP1 REVERT JUMPDEST POP PUSH2 0x39A PUSH1 0x4 DUP1 CALLDATASIZE SUB DUP2 ADD SWAP1 PUSH2 0x395 SWAP2 SWAP1 PUSH2 0x1460 JUMP JUMPDEST PUSH2 0x902 JUMP JUMPDEST PUSH1 0x40 MLOAD PUSH2 0x3A7 SWAP2 SWAP1 PUSH2 0x1538 JUMP JUMPDEST PUSH1 0x40 MLOAD DUP1 SWAP2 SUB SWAP1 RETURN JUMPDEST CALLVALUE DUP1 ISZERO PUSH2 0x3BC JUMPI PUSH1 0x0 DUP1 REVERT JUMPDEST POP PUSH2 0x3C5 PUSH2 0x94A JUMP JUMPDEST PUSH1 0x40 MLOAD PUSH2 0x3D2 SWAP2 SWAP1 PUSH2 0x15EC JUMP JUMPDEST PUSH1 0x40 MLOAD DUP1 SWAP2 SUB SWAP1 RETURN JUMPDEST CALLVALUE DUP1 ISZERO PUSH2 0x3E7 JUMPI PUSH1 0x0 DUP1 REVERT JUMPDEST POP PUSH2 0x3F0 PUSH2 0x970 JUMP JUMPDEST PUSH1 0x40 MLOAD PUSH2 0x3FD SWAP2 SWAP1 PUSH2 0x132F JUMP JUMPDEST PUSH1 0x40 MLOAD DUP1 SWAP2 SUB SWAP1 RETURN JUMPDEST CALLVALUE DUP1 ISZERO PUSH2 0x412 JUMPI PUSH1 0x0 DUP1 REVERT JUMPDEST POP PUSH2 0x42D PUSH1 0x4 DUP1 CALLDATASIZE SUB DUP2 ADD SWAP1 PUSH2 0x428 SWAP2 SWAP1 PUSH2 0x13EA JUMP JUMPDEST PUSH2 0xA02 JUMP JUMPDEST PUSH1 0x40 MLOAD PUSH2 0x43A SWAP2 SWAP1 PUSH2 0x1445 JUMP JUMPDEST PUSH1 0x40 MLOAD DUP1 SWAP2 SUB SWAP1 RETURN JUMPDEST CALLVALUE DUP1 ISZERO PUSH2 0x44F JUMPI PUSH1 0x0 DUP1 REVERT JUMPDEST POP PUSH2 0x46A PUSH1 0x4 DUP1 CALLDATASIZE SUB DUP2 ADD SWAP1 PUSH2 0x465 SWAP2 SWAP1 PUSH2 0x13EA JUMP JUMPDEST PUSH2 0xA79 JUMP JUMPDEST PUSH1 0x40 MLOAD PUSH2 0x477 SWAP2 SWAP1 PUSH2 0x1445 JUMP JUMPDEST PUSH1 0x40 MLOAD DUP1 SWAP2 SUB SWAP1 RETURN JUMPDEST CALLVALUE DUP1 ISZERO PUSH2 0x48C JUMPI PUSH1 0x0 DUP1 REVERT JUMPDEST POP PUSH2 0x495 PUSH2 0xA9C JUMP JUMPDEST PUSH1 0x40 MLOAD PUSH2 0x4A2 SWAP2 SWAP1 PUSH2 0x15EC JUMP JUMPDEST PUSH1 0x40 MLOAD DUP1 SWAP2 SUB SWAP1 RETURN JUMPDEST CALLVALUE DUP1 ISZERO PUSH2 0x4B7 JUMPI PUSH1 0x0 DUP1 REVERT JUMPDEST POP PUSH2 0x4D2 PUSH1 0x4 DUP1 CALLDATASIZE SUB DUP2 ADD SWAP1 PUSH2 0x4CD SWAP2 SWAP1 PUSH2 0x1607 JUMP JUMPDEST PUSH2 0xAC2 JUMP JUMPDEST STOP JUMPDEST CALLVALUE DUP1 ISZERO PUSH2 0x4E0 JUMPI PUSH1 0x0 DUP1 REVERT JUMPDEST POP PUSH2 0x4FB PUSH1 0x4 DUP1 CALLDATASIZE SUB DUP2 ADD SWAP1 PUSH2 0x4F6 SWAP2 SWAP1 PUSH2 0x1634 JUMP JUMPDEST PUSH2 0xC01 JUMP JUMPDEST PUSH1 0x40 MLOAD PUSH2 0x508 SWAP2 SWAP1 PUSH2 0x1538 JUMP JUMPDEST PUSH1 0x40 MLOAD DUP1 SWAP2 SUB SWAP1 RETURN JUMPDEST CALLVALUE DUP1 ISZERO PUSH2 0x51D JUMPI PUSH1 0x0 DUP1 REVERT JUMPDEST POP PUSH2 0x538 PUSH1 0x4 DUP1 CALLDATASIZE SUB DUP2 ADD SWAP1 PUSH2 0x533 SWAP2 SWAP1 PUSH2 0x1460 JUMP JUMPDEST PUSH2 0xC88 JUMP JUMPDEST PUSH1 0x40 MLOAD PUSH2 0x547 SWAP4 SWAP3 SWAP2 SWAP1 PUSH2 0x1674 JUMP JUMPDEST PUSH1 0x40 MLOAD DUP1 SWAP2 SUB SWAP1 RETURN JUMPDEST PUSH1 0x60 PUSH1 0x3 DUP1 SLOAD PUSH2 0x55F SWAP1 PUSH2 0x16E8 JUMP JUMPDEST DUP1 PUSH1 0x1F ADD PUSH1 0x20 DUP1 SWAP2 DIV MUL PUSH1 0x20 ADD PUSH1 0x40 MLOAD SWAP1 DUP2 ADD PUSH1 0x40 MSTORE DUP1 SWAP3 SWAP2 SWAP1 DUP2 DUP2 MSTORE PUSH1 0x20 ADD DUP3 DUP1 SLOAD PUSH2 0x58B SWAP1 PUSH2 0x16E8 JUMP JUMPDEST DUP1 ISZERO PUSH2 0x5D8 JUMPI DUP1 PUSH1 0x1F LT PUSH2 0x5AD JUMPI PUSH2 0x100 DUP1 DUP4 SLOAD DIV MUL DUP4 MSTORE SWAP2 PUSH1 0x20 ADD SWAP2 PUSH2 0x5D8 JUMP JUMPDEST DUP3 ADD SWAP2 SWAP1 PUSH1 0x0 MSTORE PUSH1 0x20 PUSH1 0x0 KECCAK256 SWAP1 JUMPDEST DUP2 SLOAD DUP2 MSTORE SWAP1 PUSH1 0x1 ADD SWAP1 PUSH1 0x20 ADD DUP1 DUP4 GT PUSH2 0x5BB JUMPI DUP3 SWAP1 SUB PUSH1 0x1F AND DUP3 ADD SWAP2 JUMPDEST POP POP POP POP POP SWAP1 POP SWAP1 JUMP JUMPDEST PUSH1 0x0 DUP1 PUSH2 0x5ED PUSH2 0xDC2 JUMP JUMPDEST SWAP1 POP PUSH2 0x5FA DUP2 DUP6 DUP6 PUSH2 0xDCA JUMP JUMPDEST PUSH1 0x1 SWAP2 POP POP SWAP3 SWAP2 POP POP JUMP JUMPDEST PUSH1 0x8 PUSH1 0x20 MSTORE DUP1 PUSH1 0x0 MSTORE PUSH1 0x40 PUSH1 0x0 KECCAK256 PUSH1 0x0 SWAP2 POP SWAP1 POP DUP1 PUSH1 0x0 ADD SLOAD SWAP1 DUP1 PUSH1 0x1 ADD SLOAD SWAP1 DUP1 PUSH1 0x2 ADD SLOAD SWAP1 DUP1 PUSH1 0x3 ADD SLOAD SWAP1 DUP1 PUSH1 0x4 ADD SLOAD SWAP1 DUP1 PUSH1 0x5 ADD SLOAD SWAP1 DUP1 PUSH1 0x6 ADD SLOAD SWAP1 DUP1 PUSH1 0x7 ADD SLOAD SWAP1 DUP1 PUSH1 0x8 ADD SLOAD SWAP1 DUP1 PUSH1 0x9 ADD SLOAD SWAP1 POP DUP11 JUMP JUMPDEST PUSH1 0x0 SELFBALANCE SWAP1 POP SWAP1 JUMP JUMPDEST PUSH1 0x0 PUSH1 0x2 SLOAD SWAP1 POP SWAP1 JUMP JUMPDEST PUSH1 0x0 DUP1 PUSH2 0x676 PUSH2 0xDC2 JUMP JUMPDEST SWAP1 POP PUSH2 0x683 DUP6 DUP3 DUP6 PUSH2 0xF93 JUMP JUMPDEST PUSH2 0x68E DUP6 DUP6 DUP6 PUSH2 0x101F JUMP JUMPDEST PUSH1 0x1 SWAP2 POP POP SWAP4 SWAP3 POP POP POP JUMP JUMPDEST PUSH1 0xA PUSH1 0x20 MSTORE DUP1 PUSH1 0x0 MSTORE PUSH1 0x40 PUSH1 0x0 KECCAK256 PUSH1 0x0 SWAP2 POP SLOAD SWAP1 PUSH2 0x100 EXP SWAP1 DIV PUSH1 0xFF AND DUP2 JUMP JUMPDEST PUSH1 0x5 PUSH1 0x0 SWAP1 SLOAD SWAP1 PUSH2 0x100 EXP SWAP1 DIV PUSH20 0xFFFFFFFFFFFFFFFFFFFFFFFFFFFFFFFFFFFFFFFF AND PUSH20 0xFFFFFFFFFFFFFFFFFFFFFFFFFFFFFFFFFFFFFFFF AND CALLER PUSH20 0xFFFFFFFFFFFFFFFFFFFFFFFFFFFFFFFFFFFFFFFF AND EQ PUSH2 0x74A JUMPI PUSH1 0x40 MLOAD PUSH32 0x8C379A000000000000000000000000000000000000000000000000000000000 DUP2 MSTORE PUSH1 0x4 ADD PUSH2 0x741 SWAP1 PUSH2 0x178B JUMP JUMPDEST PUSH1 0x40 MLOAD DUP1 SWAP2 SUB SWAP1 REVERT JUMPDEST DUP1 PUSH1 0x6 PUSH1 0x0 PUSH2 0x100 EXP DUP2 SLOAD DUP2 PUSH20 0xFFFFFFFFFFFFFFFFFFFFFFFFFFFFFFFFFFFFFFFF MUL NOT AND SWAP1 DUP4 PUSH20 0xFFFFFFFFFFFFFFFFFFFFFFFFFFFFFFFFFFFFFFFF AND MUL OR SWAP1 SSTORE POP POP JUMP JUMPDEST PUSH1 0x0 PUSH1 0x12 SWAP1 POP SWAP1 JUMP JUMPDEST PUSH1 0x0 DUP1 PUSH2 0x7A2 PUSH2 0xDC2 JUMP JUMPDEST SWAP1 POP PUSH2 0x7C3 DUP2 DUP6 DUP6 PUSH2 0x7B4 DUP6 DUP10 PUSH2 0xC01 JUMP JUMPDEST PUSH2 0x7BE SWAP2 SWAP1 PUSH2 0x17DA JUMP JUMPDEST PUSH2 0xDCA JUMP JUMPDEST PUSH1 0x1 SWAP2 POP POP SWAP3 SWAP2 POP POP JUMP JUMPDEST PUSH1 0x7 SLOAD DUP2 JUMP JUMPDEST PUSH1 0x6 PUSH1 0x0 SWAP1 SLOAD SWAP1 PUSH2 0x100 EXP SWAP1 DIV PUSH20 0xFFFFFFFFFFFFFFFFFFFFFFFFFFFFFFFFFFFFFFFF AND PUSH20 0xFFFFFFFFFFFFFFFFFFFFFFFFFFFFFFFFFFFFFFFF AND CALLER PUSH20 0xFFFFFFFFFFFFFFFFFFFFFFFFFFFFFFFFFFFFFFFF AND EQ PUSH2 0x864 JUMPI PUSH1 0x40 MLOAD PUSH32 0x8C379A000000000000000000000000000000000000000000000000000000000 DUP2 MSTORE PUSH1 0x4 ADD PUSH2 0x85B SWAP1 PUSH2 0x1880 JUMP JUMPDEST PUSH1 0x40 MLOAD DUP1 SWAP2 SUB SWAP1 REVERT JUMPDEST PUSH1 0x7 SLOAD CALLVALUE EQ PUSH2 0x8A8 JUMPI PUSH1 0x40 MLOAD PUSH32 0x8C379A000000000000000000000000000000000000000000000000000000000 DUP2 MSTORE PUSH1 0x4 ADD PUSH2 0x89F SWAP1 PUSH2 0x18EC JUMP JUMPDEST PUSH1 0x40 MLOAD DUP1 SWAP2 SUB SWAP1 REVERT JUMPDEST PUSH1 0x1 PUSH1 0xA PUSH1 0x0 CALLER PUSH20 0xFFFFFFFFFFFFFFFFFFFFFFFFFFFFFFFFFFFFFFFF AND PUSH20 0xFFFFFFFFFFFFFFFFFFFFFFFFFFFFFFFFFFFFFFFF AND DUP2 MSTORE PUSH1 0x20 ADD SWAP1 DUP2 MSTORE PUSH1 0x20 ADD PUSH1 0x0 KECCAK256 PUSH1 0x0 PUSH2 0x100 EXP DUP2 SLOAD DUP2 PUSH1 0xFF MUL NOT AND SWAP1 DUP4 ISZERO ISZERO MUL OR SWAP1 SSTORE POP JUMP JUMPDEST PUSH1 0x0 DUP1 PUSH1 0x0 DUP4 PUSH20 0xFFFFFFFFFFFFFFFFFFFFFFFFFFFFFFFFFFFFFFFF AND PUSH20 0xFFFFFFFFFFFFFFFFFFFFFFFFFFFFFFFFFFFFFFFF AND DUP2 MSTORE PUSH1 0x20 ADD SWAP1 DUP2 MSTORE PUSH1 0x20 ADD PUSH1 0x0 KECCAK256 SLOAD SWAP1 POP SWAP2 SWAP1 POP JUMP JUMPDEST PUSH1 0x5 PUSH1 0x0 SWAP1 SLOAD SWAP1 PUSH2 0x100 EXP SWAP1 DIV PUSH20 0xFFFFFFFFFFFFFFFFFFFFFFFFFFFFFFFFFFFFFFFF AND DUP2 JUMP JUMPDEST PUSH1 0x60 PUSH1 0x4 DUP1 SLOAD PUSH2 0x97F SWAP1 PUSH2 0x16E8 JUMP JUMPDEST DUP1 PUSH1 0x1F ADD PUSH1 0x20 DUP1 SWAP2 DIV MUL PUSH1 0x20 ADD PUSH1 0x40 MLOAD SWAP1 DUP2 ADD PUSH1 0x40 MSTORE DUP1 SWAP3 SWAP2 SWAP1 DUP2 DUP2 MSTORE PUSH1 0x20 ADD DUP3 DUP1 SLOAD PUSH2 0x9AB SWAP1 PUSH2 0x16E8 JUMP JUMPDEST DUP1 ISZERO PUSH2 0x9F8 JUMPI DUP1 PUSH1 0x1F LT PUSH2 0x9CD JUMPI PUSH2 0x100 DUP1 DUP4 SLOAD DIV MUL DUP4 MSTORE SWAP2 PUSH1 0x20 ADD SWAP2 PUSH2 0x9F8 JUMP JUMPDEST DUP3 ADD SWAP2 SWAP1 PUSH1 0x0 MSTORE PUSH1 0x20 PUSH1 0x0 KECCAK256 SWAP1 JUMPDEST DUP2 SLOAD DUP2 MSTORE SWAP1 PUSH1 0x1 ADD SWAP1 PUSH1 0x20 ADD DUP1 DUP4 GT PUSH2 0x9DB JUMPI DUP3 SWAP1 SUB PUSH1 0x1F AND DUP3 ADD SWAP2 JUMPDEST POP POP POP POP POP SWAP1 POP SWAP1 JUMP JUMPDEST PUSH1 0x0 DUP1 PUSH2 0xA0D PUSH2 0xDC2 JUMP JUMPDEST SWAP1 POP PUSH1 0x0 PUSH2 0xA1B DUP3 DUP7 PUSH2 0xC01 JUMP JUMPDEST SWAP1 POP DUP4 DUP2 LT ISZERO PUSH2 0xA60 JUMPI PUSH1 0x40 MLOAD PUSH32 0x8C379A000000000000000000000000000000000000000000000000000000000 DUP2 MSTORE PUSH1 0x4 ADD PUSH2 0xA57 SWAP1 PUSH2 0x197E JUMP JUMPDEST PUSH1 0x40 MLOAD DUP1 SWAP2 SUB SWAP1 REVERT JUMPDEST PUSH2 0xA6D DUP3 DUP7 DUP7 DUP5 SUB PUSH2 0xDCA JUMP JUMPDEST PUSH1 0x1 SWAP3 POP POP POP SWAP3 SWAP2 POP POP JUMP JUMPDEST PUSH1 0x0 DUP1 PUSH2 0xA84 PUSH2 0xDC2 JUMP JUMPDEST SWAP1 POP PUSH2 0xA91 DUP2 DUP6 DUP6 PUSH2 0x101F JUMP JUMPDEST PUSH1 0x1 SWAP2 POP POP SWAP3 SWAP2 POP POP JUMP JUMPDEST PUSH1 0x6 PUSH1 0x0 SWAP1 SLOAD SWAP1 PUSH2 0x100 EXP SWAP1 DIV PUSH20 0xFFFFFFFFFFFFFFFFFFFFFFFFFFFFFFFFFFFFFFFF AND DUP2 JUMP JUMPDEST PUSH1 0x5 PUSH1 0x0 SWAP1 SLOAD SWAP1 PUSH2 0x100 EXP SWAP1 DIV PUSH20 0xFFFFFFFFFFFFFFFFFFFFFFFFFFFFFFFFFFFFFFFF AND PUSH20 0xFFFFFFFFFFFFFFFFFFFFFFFFFFFFFFFFFFFFFFFF AND CALLER PUSH20 0xFFFFFFFFFFFFFFFFFFFFFFFFFFFFFFFFFFFFFFFF AND EQ PUSH2 0xB52 JUMPI PUSH1 0x40 MLOAD PUSH32 0x8C379A000000000000000000000000000000000000000000000000000000000 DUP2 MSTORE PUSH1 0x4 ADD PUSH2 0xB49 SWAP1 PUSH2 0x178B JUMP JUMPDEST PUSH1 0x40 MLOAD DUP1 SWAP2 SUB SWAP1 REVERT JUMPDEST SELFBALANCE DUP2 GT ISZERO PUSH2 0xB95 JUMPI PUSH1 0x40 MLOAD PUSH32 0x8C379A000000000000000000000000000000000000000000000000000000000 DUP2 MSTORE PUSH1 0x4 ADD PUSH2 0xB8C SWAP1 PUSH2 0x19EA JUMP JUMPDEST PUSH1 0x40 MLOAD DUP1 SWAP2 SUB SWAP1 REVERT JUMPDEST PUSH1 0x5 PUSH1 0x0 SWAP1 SLOAD SWAP1 PUSH2 0x100 EXP SWAP1 DIV PUSH20 0xFFFFFFFFFFFFFFFFFFFFFFFFFFFFFFFFFFFFFFFF AND PUSH20 0xFFFFFFFFFFFFFFFFFFFFFFFFFFFFFFFFFFFFFFFF AND PUSH2 0x8FC DUP3 SWAP1 DUP2 ISZERO MUL SWAP1 PUSH1 0x40 MLOAD PUSH1 0x0 PUSH1 0x40 MLOAD DUP1 DUP4 SUB DUP2 DUP6 DUP9 DUP9 CALL SWAP4 POP POP POP POP ISZERO DUP1 ISZERO PUSH2 0xBFD JUMPI RETURNDATASIZE PUSH1 0x0 DUP1 RETURNDATACOPY RETURNDATASIZE PUSH1 0x0 REVERT JUMPDEST POP POP JUMP JUMPDEST PUSH1 0x0 PUSH1 0x1 PUSH1 0x0 DUP5 PUSH20 0xFFFFFFFFFFFFFFFFFFFFFFFFFFFFFFFFFFFFFFFF AND PUSH20 0xFFFFFFFFFFFFFFFFFFFFFFFFFFFFFFFFFFFFFFFF AND DUP2 MSTORE PUSH1 0x20 ADD SWAP1 DUP2 MSTORE PUSH1 0x20 ADD PUSH1 0x0 KECCAK256 PUSH1 0x0 DUP4 PUSH20 0xFFFFFFFFFFFFFFFFFFFFFFFFFFFFFFFFFFFFFFFF AND PUSH20 0xFFFFFFFFFFFFFFFFFFFFFFFFFFFFFFFFFFFFFFFF AND DUP2 MSTORE PUSH1 0x20 ADD SWAP1 DUP2 MSTORE PUSH1 0x20 ADD PUSH1 0x0 KECCAK256 SLOAD SWAP1 POP SWAP3 SWAP2 POP POP JUMP JUMPDEST PUSH1 0x9 PUSH1 0x20 MSTORE DUP1 PUSH1 0x0 MSTORE PUSH1 0x40 PUSH1 0x0 KECCAK256 PUSH1 0x0 SWAP2 POP SWAP1 POP DUP1 PUSH1 0x0 ADD DUP1 SLOAD PUSH2 0xCAB SWAP1 PUSH2 0x16E8 JUMP JUMPDEST DUP1 PUSH1 0x1F ADD PUSH1 0x20 DUP1 SWAP2 DIV MUL PUSH1 0x20 ADD PUSH1 0x40 MLOAD SWAP1 DUP2 ADD PUSH1 0x40 MSTORE DUP1 SWAP3 SWAP2 SWAP1 DUP2 DUP2 MSTORE PUSH1 0x20 ADD DUP3 DUP1 SLOAD PUSH2 0xCD7 SWAP1 PUSH2 0x16E8 JUMP JUMPDEST DUP1 ISZERO PUSH2 0xD24 JUMPI DUP1 PUSH1 0x1F LT PUSH2 0xCF9 JUMPI PUSH2 0x100 DUP1 DUP4 SLOAD DIV MUL DUP4 MSTORE SWAP2 PUSH1 0x20 ADD SWAP2 PUSH2 0xD24 JUMP JUMPDEST DUP3 ADD SWAP2 SWAP1 PUSH1 0x0 MSTORE PUSH1 0x20 PUSH1 0x0 KECCAK256 SWAP1 JUMPDEST DUP2 SLOAD DUP2 MSTORE SWAP1 PUSH1 0x1 ADD SWAP1 PUSH1 0x20 ADD DUP1 DUP4 GT PUSH2 0xD07 JUMPI DUP3 SWAP1 SUB PUSH1 0x1F AND DUP3 ADD SWAP2 JUMPDEST POP POP POP POP POP SWAP1 DUP1 PUSH1 0x1 ADD DUP1 SLOAD PUSH2 0xD39 SWAP1 PUSH2 0x16E8 JUMP JUMPDEST DUP1 PUSH1 0x1F ADD PUSH1 0x20 DUP1 SWAP2 DIV MUL PUSH1 0x20 ADD PUSH1 0x40 MLOAD SWAP1 DUP2 ADD PUSH1 0x40 MSTORE DUP1 SWAP3 SWAP2 SWAP1 DUP2 DUP2 MSTORE PUSH1 0x20 ADD DUP3 DUP1 SLOAD PUSH2 0xD65 SWAP1 PUSH2 0x16E8 JUMP JUMPDEST DUP1 ISZERO PUSH2 0xDB2 JUMPI DUP1 PUSH1 0x1F LT PUSH2 0xD87 JUMPI PUSH2 0x100 DUP1 DUP4 SLOAD DIV MUL DUP4 MSTORE SWAP2 PUSH1 0x20 ADD SWAP2 PUSH2 0xDB2 JUMP JUMPDEST DUP3 ADD SWAP2 SWAP1 PUSH1 0x0 MSTORE PUSH1 0x20 PUSH1 0x0 KECCAK256 SWAP1 JUMPDEST DUP2 SLOAD DUP2 MSTORE SWAP1 PUSH1 0x1 ADD SWAP1 PUSH1 0x20 ADD DUP1 DUP4 GT PUSH2 0xD95 JUMPI DUP3 SWAP1 SUB PUSH1 0x1F AND DUP3 ADD SWAP2 JUMPDEST POP POP POP POP POP SWAP1 DUP1 PUSH1 0x2 ADD SLOAD SWAP1 POP DUP4 JUMP JUMPDEST PUSH1 0x0 CALLER SWAP1 POP SWAP1 JUMP JUMPDEST PUSH1 0x0 PUSH20 0xFFFFFFFFFFFFFFFFFFFFFFFFFFFFFFFFFFFFFFFF AND DUP4 PUSH20 0xFFFFFFFFFFFFFFFFFFFFFFFFFFFFFFFFFFFFFFFF AND SUB PUSH2 0xE39 JUMPI PUSH1 0x40 MLOAD PUSH32 0x8C379A000000000000000000000000000000000000000000000000000000000 DUP2 MSTORE PUSH1 0x4 ADD PUSH2 0xE30 SWAP1 PUSH2 0x1A7C JUMP JUMPDEST PUSH1 0x40 MLOAD DUP1 SWAP2 SUB SWAP1 REVERT JUMPDEST PUSH1 0x0 PUSH20 0xFFFFFFFFFFFFFFFFFFFFFFFFFFFFFFFFFFFFFFFF AND DUP3 PUSH20 0xFFFFFFFFFFFFFFFFFFFFFFFFFFFFFFFFFFFFFFFF AND SUB PUSH2 0xEA8 JUMPI PUSH1 0x40 MLOAD PUSH32 0x8C379A000000000000000000000000000000000000000000000000000000000 DUP2 MSTORE PUSH1 0x4 ADD PUSH2 0xE9F SWAP1 PUSH2 0x1B0E JUMP JUMPDEST PUSH1 0x40 MLOAD DUP1 SWAP2 SUB SWAP1 REVERT JUMPDEST DUP1 PUSH1 0x1 PUSH1 0x0 DUP6 PUSH20 0xFFFFFFFFFFFFFFFFFFFFFFFFFFFFFFFFFFFFFFFF AND PUSH20 0xFFFFFFFFFFFFFFFFFFFFFFFFFFFFFFFFFFFFFFFF AND DUP2 MSTORE PUSH1 0x20 ADD SWAP1 DUP2 MSTORE PUSH1 0x20 ADD PUSH1 0x0 KECCAK256 PUSH1 0x0 DUP5 PUSH20 0xFFFFFFFFFFFFFFFFFFFFFFFFFFFFFFFFFFFFFFFF AND PUSH20 0xFFFFFFFFFFFFFFFFFFFFFFFFFFFFFFFFFFFFFFFF AND DUP2 MSTORE PUSH1 0x20 ADD SWAP1 DUP2 MSTORE PUSH1 0x20 ADD PUSH1 0x0 KECCAK256 DUP2 SWAP1 SSTORE POP DUP2 PUSH20 0xFFFFFFFFFFFFFFFFFFFFFFFFFFFFFFFFFFFFFFFF AND DUP4 PUSH20 0xFFFFFFFFFFFFFFFFFFFFFFFFFFFFFFFFFFFFFFFF AND PUSH32 0x8C5BE1E5EBEC7D5BD14F71427D1E84F3DD0314C0F7B2291E5B200AC8C7C3B925 DUP4 PUSH1 0x40 MLOAD PUSH2 0xF86 SWAP2 SWAP1 PUSH2 0x1538 JUMP JUMPDEST PUSH1 0x40 MLOAD DUP1 SWAP2 SUB SWAP1 LOG3 POP POP POP JUMP JUMPDEST PUSH1 0x0 PUSH2 0xF9F DUP5 DUP5 PUSH2 0xC01 JUMP JUMPDEST SWAP1 POP PUSH32 0xFFFFFFFFFFFFFFFFFFFFFFFFFFFFFFFFFFFFFFFFFFFFFFFFFFFFFFFFFFFFFFFF DUP2 EQ PUSH2 0x1019 JUMPI DUP2 DUP2 LT ISZERO PUSH2 0x100B JUMPI PUSH1 0x40 MLOAD PUSH32 0x8C379A000000000000000000000000000000000000000000000000000000000 DUP2 MSTORE PUSH1 0x4 ADD PUSH2 0x1002 SWAP1 PUSH2 0x1B7A JUMP JUMPDEST PUSH1 0x40 MLOAD DUP1 SWAP2 SUB SWAP1 REVERT JUMPDEST PUSH2 0x1018 DUP5 DUP5 DUP5 DUP5 SUB PUSH2 0xDCA JUMP JUMPDEST JUMPDEST POP POP POP POP JUMP JUMPDEST PUSH1 0x0 PUSH20 0xFFFFFFFFFFFFFFFFFFFFFFFFFFFFFFFFFFFFFFFF AND DUP4 PUSH20 0xFFFFFFFFFFFFFFFFFFFFFFFFFFFFFFFFFFFFFFFF AND SUB PUSH2 0x108E JUMPI PUSH1 0x40 MLOAD PUSH32 0x8C379A000000000000000000000000000000000000000000000000000000000 DUP2 MSTORE PUSH1 0x4 ADD PUSH2 0x1085 SWAP1 PUSH2 0x1C0C JUMP JUMPDEST PUSH1 0x40 MLOAD DUP1 SWAP2 SUB SWAP1 REVERT JUMPDEST PUSH1 0x0 PUSH20 0xFFFFFFFFFFFFFFFFFFFFFFFFFFFFFFFFFFFFFFFF AND DUP3 PUSH20 0xFFFFFFFFFFFFFFFFFFFFFFFFFFFFFFFFFFFFFFFF AND SUB PUSH2 0x10FD JUMPI PUSH1 0x40 MLOAD PUSH32 0x8C379A000000000000000000000000000000000000000000000000000000000 DUP2 MSTORE PUSH1 0x4 ADD PUSH2 0x10F4 SWAP1 PUSH2 0x1C9E JUMP JUMPDEST PUSH1 0x40 MLOAD DUP1 SWAP2 SUB SWAP1 REVERT JUMPDEST PUSH2 0x1108 DUP4 DUP4 DUP4 PUSH2 0x1295 JUMP JUMPDEST PUSH1 0x0 DUP1 PUSH1 0x0 DUP6 PUSH20 0xFFFFFFFFFFFFFFFFFFFFFFFFFFFFFFFFFFFFFFFF AND PUSH20 0xFFFFFFFFFFFFFFFFFFFFFFFFFFFFFFFFFFFFFFFF AND DUP2 MSTORE PUSH1 0x20 ADD SWAP1 DUP2 MSTORE PUSH1 0x20 ADD PUSH1 0x0 KECCAK256 SLOAD SWAP1 POP DUP2 DUP2 LT ISZERO PUSH2 0x118E JUMPI PUSH1 0x40 MLOAD PUSH32 0x8C379A000000000000000000000000000000000000000000000000000000000 DUP2 MSTORE PUSH1 0x4 ADD PUSH2 0x1185 SWAP1 PUSH2 0x1D30 JUMP JUMPDEST PUSH1 0x40 MLOAD DUP1 SWAP2 SUB SWAP1 REVERT JUMPDEST DUP2 DUP2 SUB PUSH1 0x0 DUP1 DUP7 PUSH20 0xFFFFFFFFFFFFFFFFFFFFFFFFFFFFFFFFFFFFFFFF AND PUSH20 0xFFFFFFFFFFFFFFFFFFFFFFFFFFFFFFFFFFFFFFFF AND DUP2 MSTORE PUSH1 0x20 ADD SWAP1 DUP2 MSTORE PUSH1 0x20 ADD PUSH1 0x0 KECCAK256 DUP2 SWAP1 SSTORE POP DUP2 PUSH1 0x0 DUP1 DUP6 PUSH20 0xFFFFFFFFFFFFFFFFFFFFFFFFFFFFFFFFFFFFFFFF AND PUSH20 0xFFFFFFFFFFFFFFFFFFFFFFFFFFFFFFFFFFFFFFFF AND DUP2 MSTORE PUSH1 0x20 ADD SWAP1 DUP2 MSTORE PUSH1 0x20 ADD PUSH1 0x0 KECCAK256 PUSH1 0x0 DUP3 DUP3 SLOAD ADD SWAP3 POP POP DUP2 SWAP1 SSTORE POP DUP3 PUSH20 0xFFFFFFFFFFFFFFFFFFFFFFFFFFFFFFFFFFFFFFFF AND DUP5 PUSH20 0xFFFFFFFFFFFFFFFFFFFFFFFFFFFFFFFFFFFFFFFF AND PUSH32 0xDDF252AD1BE2C89B69C2B068FC378DAA952BA7F163C4A11628F55A4DF523B3EF DUP5 PUSH1 0x40 MLOAD PUSH2 0x127C SWAP2 SWAP1 PUSH2 0x1538 JUMP JUMPDEST PUSH1 0x40 MLOAD DUP1 SWAP2 SUB SWAP1 LOG3 PUSH2 0x128F DUP5 DUP5 DUP5 PUSH2 0x129A JUMP JUMPDEST POP POP POP POP JUMP JUMPDEST POP POP POP JUMP JUMPDEST POP POP POP JUMP JUMPDEST PUSH1 0x0 DUP2 MLOAD SWAP1 POP SWAP2 SWAP1 POP JUMP JUMPDEST PUSH1 0x0 DUP3 DUP3 MSTORE PUSH1 0x20 DUP3 ADD SWAP1 POP SWAP3 SWAP2 POP POP JUMP JUMPDEST PUSH1 0x0 JUMPDEST DUP4 DUP2 LT ISZERO PUSH2 0x12D9 JUMPI DUP1 DUP3 ADD MLOAD DUP2 DUP5 ADD MSTORE PUSH1 0x20 DUP2 ADD SWAP1 POP PUSH2 0x12BE JUMP JUMPDEST PUSH1 0x0 DUP5 DUP5 ADD MSTORE POP POP POP POP JUMP JUMPDEST PUSH1 0x0 PUSH1 0x1F NOT PUSH1 0x1F DUP4 ADD AND SWAP1 POP SWAP2 SWAP1 POP JUMP JUMPDEST PUSH1 0x0 PUSH2 0x1301 DUP3 PUSH2 0x129F JUMP JUMPDEST PUSH2 0x130B DUP2 DUP6 PUSH2 0x12AA JUMP JUMPDEST SWAP4 POP PUSH2 0x131B DUP2 DUP6 PUSH1 0x20 DUP7 ADD PUSH2 0x12BB JUMP JUMPDEST PUSH2 0x1324 DUP2 PUSH2 0x12E5 JUMP JUMPDEST DUP5 ADD SWAP2 POP POP SWAP3 SWAP2 POP POP JUMP JUMPDEST PUSH1 0x0 PUSH1 0x20 DUP3 ADD SWAP1 POP DUP2 DUP2 SUB PUSH1 0x0 DUP4 ADD MSTORE PUSH2 0x1349 DUP2 DUP5 PUSH2 0x12F6 JUMP JUMPDEST SWAP1 POP SWAP3 SWAP2 POP POP JUMP JUMPDEST PUSH1 0x0 DUP1 REVERT JUMPDEST PUSH1 0x0 PUSH20 0xFFFFFFFFFFFFFFFFFFFFFFFFFFFFFFFFFFFFFFFF DUP3 AND SWAP1 POP SWAP2 SWAP1 POP JUMP JUMPDEST PUSH1 0x0 PUSH2 0x1381 DUP3 PUSH2 0x1356 JUMP JUMPDEST SWAP1 POP SWAP2 SWAP1 POP JUMP JUMPDEST PUSH2 0x1391 DUP2 PUSH2 0x1376 JUMP JUMPDEST DUP2 EQ PUSH2 0x139C JUMPI PUSH1 0x0 DUP1 REVERT JUMPDEST POP JUMP JUMPDEST PUSH1 0x0 DUP2 CALLDATALOAD SWAP1 POP PUSH2 0x13AE DUP2 PUSH2 0x1388 JUMP JUMPDEST SWAP3 SWAP2 POP POP JUMP JUMPDEST PUSH1 0x0 DUP2 SWAP1 POP SWAP2 SWAP1 POP JUMP JUMPDEST PUSH2 0x13C7 DUP2 PUSH2 0x13B4 JUMP JUMPDEST DUP2 EQ PUSH2 0x13D2 JUMPI PUSH1 0x0 DUP1 REVERT JUMPDEST POP JUMP JUMPDEST PUSH1 0x0 DUP2 CALLDATALOAD SWAP1 POP PUSH2 0x13E4 DUP2 PUSH2 0x13BE JUMP JUMPDEST SWAP3 SWAP2 POP POP JUMP JUMPDEST PUSH1 0x0 DUP1 PUSH1 0x40 DUP4 DUP6 SUB SLT ISZERO PUSH2 0x1401 JUMPI PUSH2 0x1400 PUSH2 0x1351 JUMP JUMPDEST JUMPDEST PUSH1 0x0 PUSH2 0x140F DUP6 DUP3 DUP7 ADD PUSH2 0x139F JUMP JUMPDEST SWAP3 POP POP PUSH1 0x20 PUSH2 0x1420 DUP6 DUP3 DUP7 ADD PUSH2 0x13D5 JUMP JUMPDEST SWAP2 POP POP SWAP3 POP SWAP3 SWAP1 POP JUMP JUMPDEST PUSH1 0x0 DUP2 ISZERO ISZERO SWAP1 POP SWAP2 SWAP1 POP JUMP JUMPDEST PUSH2 0x143F DUP2 PUSH2 0x142A JUMP JUMPDEST DUP3 MSTORE POP POP JUMP JUMPDEST PUSH1 0x0 PUSH1 0x20 DUP3 ADD SWAP1 POP PUSH2 0x145A PUSH1 0x0 DUP4 ADD DUP5 PUSH2 0x1436 JUMP JUMPDEST SWAP3 SWAP2 POP POP JUMP JUMPDEST PUSH1 0x0 PUSH1 0x20 DUP3 DUP5 SUB SLT ISZERO PUSH2 0x1476 JUMPI PUSH2 0x1475 PUSH2 0x1351 JUMP JUMPDEST JUMPDEST PUSH1 0x0 PUSH2 0x1484 DUP5 DUP3 DUP6 ADD PUSH2 0x139F JUMP JUMPDEST SWAP2 POP POP SWAP3 SWAP2 POP POP JUMP JUMPDEST PUSH2 0x1496 DUP2 PUSH2 0x13B4 JUMP JUMPDEST DUP3 MSTORE POP POP JUMP JUMPDEST PUSH1 0x0 PUSH2 0x140 DUP3 ADD SWAP1 POP PUSH2 0x14B2 PUSH1 0x0 DUP4 ADD DUP14 PUSH2 0x148D JUMP JUMPDEST PUSH2 0x14BF PUSH1 0x20 DUP4 ADD DUP13 PUSH2 0x148D JUMP JUMPDEST PUSH2 0x14CC PUSH1 0x40 DUP4 ADD DUP12 PUSH2 0x148D JUMP JUMPDEST PUSH2 0x14D9 PUSH1 0x60 DUP4 ADD DUP11 PUSH2 0x148D JUMP JUMPDEST PUSH2 0x14E6 PUSH1 0x80 DUP4 ADD DUP10 PUSH2 0x148D JUMP JUMPDEST PUSH2 0x14F3 PUSH1 0xA0 DUP4 ADD DUP9 PUSH2 0x148D JUMP JUMPDEST PUSH2 0x1500 PUSH1 0xC0 DUP4 ADD DUP8 PUSH2 0x148D JUMP JUMPDEST PUSH2 0x150D PUSH1 0xE0 DUP4 ADD DUP7 PUSH2 0x148D JUMP JUMPDEST PUSH2 0x151B PUSH2 0x100 DUP4 ADD DUP6 PUSH2 0x148D JUMP JUMPDEST PUSH2 0x1529 PUSH2 0x120 DUP4 ADD DUP5 PUSH2 0x148D JUMP JUMPDEST SWAP12 SWAP11 POP POP POP POP POP POP POP POP POP POP POP JUMP JUMPDEST PUSH1 0x0 PUSH1 0x20 DUP3 ADD SWAP1 POP PUSH2 0x154D PUSH1 0x0 DUP4 ADD DUP5 PUSH2 0x148D JUMP JUMPDEST SWAP3 SWAP2 POP POP JUMP JUMPDEST PUSH1 0x0 DUP1 PUSH1 0x0 PUSH1 0x60 DUP5 DUP7 SUB SLT ISZERO PUSH2 0x156C JUMPI PUSH2 0x156B PUSH2 0x1351 JUMP JUMPDEST JUMPDEST PUSH1 0x0 PUSH2 0x157A DUP7 DUP3 DUP8 ADD PUSH2 0x139F JUMP JUMPDEST SWAP4 POP POP PUSH1 0x20 PUSH2 0x158B DUP7 DUP3 DUP8 ADD PUSH2 0x139F JUMP JUMPDEST SWAP3 POP POP PUSH1 0x40 PUSH2 0x159C DUP7 DUP3 DUP8 ADD PUSH2 0x13D5 JUMP JUMPDEST SWAP2 POP POP SWAP3 POP SWAP3 POP SWAP3 JUMP JUMPDEST PUSH1 0x0 PUSH1 0xFF DUP3 AND SWAP1 POP SWAP2 SWAP1 POP JUMP JUMPDEST PUSH2 0x15BC DUP2 PUSH2 0x15A6 JUMP JUMPDEST DUP3 MSTORE POP POP JUMP JUMPDEST PUSH1 0x0 PUSH1 0x20 DUP3 ADD SWAP1 POP PUSH2 0x15D7 PUSH1 0x0 DUP4 ADD DUP5 PUSH2 0x15B3 JUMP JUMPDEST SWAP3 SWAP2 POP POP JUMP JUMPDEST PUSH2 0x15E6 DUP2 PUSH2 0x1376 JUMP JUMPDEST DUP3 MSTORE POP POP JUMP JUMPDEST PUSH1 0x0 PUSH1 0x20 DUP3 ADD SWAP1 POP PUSH2 0x1601 PUSH1 0x0 DUP4 ADD DUP5 PUSH2 0x15DD JUMP JUMPDEST SWAP3 SWAP2 POP POP JUMP JUMPDEST PUSH1 0x0 PUSH1 0x20 DUP3 DUP5 SUB SLT ISZERO PUSH2 0x161D JUMPI PUSH2 0x161C PUSH2 0x1351 JUMP JUMPDEST JUMPDEST PUSH1 0x0 PUSH2 0x162B DUP5 DUP3 DUP6 ADD PUSH2 0x13D5 JUMP JUMPDEST SWAP2 POP POP SWAP3 SWAP2 POP POP JUMP JUMPDEST PUSH1 0x0 DUP1 PUSH1 0x40 DUP4 DUP6 SUB SLT ISZERO PUSH2 0x164B JUMPI PUSH2 0x164A PUSH2 0x1351 JUMP JUMPDEST JUMPDEST PUSH1 0x0 PUSH2 0x1659 DUP6 DUP3 DUP7 ADD PUSH2 0x139F JUMP JUMPDEST SWAP3 POP POP PUSH1 0x20 PUSH2 0x166A DUP6 DUP3 DUP7 ADD PUSH2 0x139F JUMP JUMPDEST SWAP2 POP POP SWAP3 POP SWAP3 SWAP1 POP JUMP JUMPDEST PUSH1 0x0 PUSH1 0x60 DUP3 ADD SWAP1 POP DUP2 DUP2 SUB PUSH1 0x0 DUP4 ADD MSTORE PUSH2 0x168E DUP2 DUP7 PUSH2 0x12F6 JUMP JUMPDEST SWAP1 POP DUP2 DUP2 SUB PUSH1 0x20 DUP4 ADD MSTORE PUSH2 0x16A2 DUP2 DUP6 PUSH2 0x12F6 JUMP JUMPDEST SWAP1 POP PUSH2 0x16B1 PUSH1 0x40 DUP4 ADD DUP5 PUSH2 0x148D JUMP JUMPDEST SWAP5 SWAP4 POP POP POP POP JUMP JUMPDEST PUSH32 0x4E487B7100000000000000000000000000000000000000000000000000000000 PUSH1 0x0 MSTORE PUSH1 0x22 PUSH1 0x4 MSTORE PUSH1 0x24 PUSH1 0x0 REVERT JUMPDEST PUSH1 0x0 PUSH1 0x2 DUP3 DIV SWAP1 POP PUSH1 0x1 DUP3 AND DUP1 PUSH2 0x1700 JUMPI PUSH1 0x7F DUP3 AND SWAP2 POP JUMPDEST PUSH1 0x20 DUP3 LT DUP2 SUB PUSH2 0x1713 JUMPI PUSH2 0x1712 PUSH2 0x16B9 JUMP JUMPDEST JUMPDEST POP SWAP2 SWAP1 POP JUMP JUMPDEST PUSH32 0x4F6E6C7920746865206F776E65722063616E2063616C6C20746869732066756E PUSH1 0x0 DUP3 ADD MSTORE PUSH32 0x6374696F6E000000000000000000000000000000000000000000000000000000 PUSH1 0x20 DUP3 ADD MSTORE POP JUMP JUMPDEST PUSH1 0x0 PUSH2 0x1775 PUSH1 0x25 DUP4 PUSH2 0x12AA JUMP JUMPDEST SWAP2 POP PUSH2 0x1780 DUP3 PUSH2 0x1719 JUMP JUMPDEST PUSH1 0x40 DUP3 ADD SWAP1 POP SWAP2 SWAP1 POP JUMP JUMPDEST PUSH1 0x0 PUSH1 0x20 DUP3 ADD SWAP1 POP DUP2 DUP2 SUB PUSH1 0x0 DUP4 ADD MSTORE PUSH2 0x17A4 DUP2 PUSH2 0x1768 JUMP JUMPDEST SWAP1 POP SWAP2 SWAP1 POP JUMP JUMPDEST PUSH32 0x4E487B7100000000000000000000000000000000000000000000000000000000 PUSH1 0x0 MSTORE PUSH1 0x11 PUSH1 0x4 MSTORE PUSH1 0x24 PUSH1 0x0 REVERT JUMPDEST PUSH1 0x0 PUSH2 0x17E5 DUP3 PUSH2 0x13B4 JUMP JUMPDEST SWAP2 POP PUSH2 0x17F0 DUP4 PUSH2 0x13B4 JUMP JUMPDEST SWAP3 POP DUP3 DUP3 ADD SWAP1 POP DUP1 DUP3 GT ISZERO PUSH2 0x1808 JUMPI PUSH2 0x1807 PUSH2 0x17AB JUMP JUMPDEST JUMPDEST SWAP3 SWAP2 POP POP JUMP JUMPDEST PUSH32 0x4F6E6C79207468652074656E616E742063616E2063616C6C2074686973206675 PUSH1 0x0 DUP3 ADD MSTORE PUSH32 0x6E6374696F6E0000000000000000000000000000000000000000000000000000 PUSH1 0x20 DUP3 ADD MSTORE POP JUMP JUMPDEST PUSH1 0x0 PUSH2 0x186A PUSH1 0x26 DUP4 PUSH2 0x12AA JUMP JUMPDEST SWAP2 POP PUSH2 0x1875 DUP3 PUSH2 0x180E JUMP JUMPDEST PUSH1 0x40 DUP3 ADD SWAP1 POP SWAP2 SWAP1 POP JUMP JUMPDEST PUSH1 0x0 PUSH1 0x20 DUP3 ADD SWAP1 POP DUP2 DUP2 SUB PUSH1 0x0 DUP4 ADD MSTORE PUSH2 0x1899 DUP2 PUSH2 0x185D JUMP JUMPDEST SWAP1 POP SWAP2 SWAP1 POP JUMP JUMPDEST PUSH32 0x4465706F73697420616D6F756E7420646F6573206E6F74206D61746368000000 PUSH1 0x0 DUP3 ADD MSTORE POP JUMP JUMPDEST PUSH1 0x0 PUSH2 0x18D6 PUSH1 0x1D DUP4 PUSH2 0x12AA JUMP JUMPDEST SWAP2 POP PUSH2 0x18E1 DUP3 PUSH2 0x18A0 JUMP JUMPDEST PUSH1 0x20 DUP3 ADD SWAP1 POP SWAP2 SWAP1 POP JUMP JUMPDEST PUSH1 0x0 PUSH1 0x20 DUP3 ADD SWAP1 POP DUP2 DUP2 SUB PUSH1 0x0 DUP4 ADD MSTORE PUSH2 0x1905 DUP2 PUSH2 0x18C9 JUMP JUMPDEST SWAP1 POP SWAP2 SWAP1 POP JUMP JUMPDEST PUSH32 0x45524332303A2064656372656173656420616C6C6F77616E63652062656C6F77 PUSH1 0x0 DUP3 ADD MSTORE PUSH32 0x207A65726F000000000000000000000000000000000000000000000000000000 PUSH1 0x20 DUP3 ADD MSTORE POP JUMP JUMPDEST PUSH1 0x0 PUSH2 0x1968 PUSH1 0x25 DUP4 PUSH2 0x12AA JUMP JUMPDEST SWAP2 POP PUSH2 0x1973 DUP3 PUSH2 0x190C JUMP JUMPDEST PUSH1 0x40 DUP3 ADD SWAP1 POP SWAP2 SWAP1 POP JUMP JUMPDEST PUSH1 0x0 PUSH1 0x20 DUP3 ADD SWAP1 POP DUP2 DUP2 SUB PUSH1 0x0 DUP4 ADD MSTORE PUSH2 0x1997 DUP2 PUSH2 0x195B JUMP JUMPDEST SWAP1 POP SWAP2 SWAP1 POP JUMP JUMPDEST PUSH32 0x496E73756666696369656E742062616C616E6365000000000000000000000000 PUSH1 0x0 DUP3 ADD MSTORE POP JUMP JUMPDEST PUSH1 0x0 PUSH2 0x19D4 PUSH1 0x14 DUP4 PUSH2 0x12AA JUMP JUMPDEST SWAP2 POP PUSH2 0x19DF DUP3 PUSH2 0x199E JUMP JUMPDEST PUSH1 0x20 DUP3 ADD SWAP1 POP SWAP2 SWAP1 POP JUMP JUMPDEST PUSH1 0x0 PUSH1 0x20 DUP3 ADD SWAP1 POP DUP2 DUP2 SUB PUSH1 0x0 DUP4 ADD MSTORE PUSH2 0x1A03 DUP2 PUSH2 0x19C7 JUMP JUMPDEST SWAP1 POP SWAP2 SWAP1 POP JUMP JUMPDEST PUSH32 0x45524332303A20617070726F76652066726F6D20746865207A65726F20616464 PUSH1 0x0 DUP3 ADD MSTORE PUSH32 0x7265737300000000000000000000000000000000000000000000000000000000 PUSH1 0x20 DUP3 ADD MSTORE POP JUMP JUMPDEST PUSH1 0x0 PUSH2 0x1A66 PUSH1 0x24 DUP4 PUSH2 0x12AA JUMP JUMPDEST SWAP2 POP PUSH2 0x1A71 DUP3 PUSH2 0x1A0A JUMP JUMPDEST PUSH1 0x40 DUP3 ADD SWAP1 POP SWAP2 SWAP1 POP JUMP JUMPDEST PUSH1 0x0 PUSH1 0x20 DUP3 ADD SWAP1 POP DUP2 DUP2 SUB PUSH1 0x0 DUP4 ADD MSTORE PUSH2 0x1A95 DUP2 PUSH2 0x1A59 JUMP JUMPDEST SWAP1 POP SWAP2 SWAP1 POP JUMP JUMPDEST PUSH32 0x45524332303A20617070726F766520746F20746865207A65726F206164647265 PUSH1 0x0 DUP3 ADD MSTORE PUSH32 0x7373000000000000000000000000000000000000000000000000000000000000 PUSH1 0x20 DUP3 ADD MSTORE POP JUMP JUMPDEST PUSH1 0x0 PUSH2 0x1AF8 PUSH1 0x22 DUP4 PUSH2 0x12AA JUMP JUMPDEST SWAP2 POP PUSH2 0x1B03 DUP3 PUSH2 0x1A9C JUMP JUMPDEST PUSH1 0x40 DUP3 ADD SWAP1 POP SWAP2 SWAP1 POP JUMP JUMPDEST PUSH1 0x0 PUSH1 0x20 DUP3 ADD SWAP1 POP DUP2 DUP2 SUB PUSH1 0x0 DUP4 ADD MSTORE PUSH2 0x1B27 DUP2 PUSH2 0x1AEB JUMP JUMPDEST SWAP1 POP SWAP2 SWAP1 POP JUMP JUMPDEST PUSH32 0x45524332303A20696E73756666696369656E7420616C6C6F77616E6365000000 PUSH1 0x0 DUP3 ADD MSTORE POP JUMP JUMPDEST PUSH1 0x0 PUSH2 0x1B64 PUSH1 0x1D DUP4 PUSH2 0x12AA JUMP JUMPDEST SWAP2 POP PUSH2 0x1B6F DUP3 PUSH2 0x1B2E JUMP JUMPDEST PUSH1 0x20 DUP3 ADD SWAP1 POP SWAP2 SWAP1 POP JUMP JUMPDEST PUSH1 0x0 PUSH1 0x20 DUP3 ADD SWAP1 POP DUP2 DUP2 SUB PUSH1 0x0 DUP4 ADD MSTORE PUSH2 0x1B93 DUP2 PUSH2 0x1B57 JUMP JUMPDEST SWAP1 POP SWAP2 SWAP1 POP JUMP JUMPDEST PUSH32 0x45524332303A207472616E736665722066726F6D20746865207A65726F206164 PUSH1 0x0 DUP3 ADD MSTORE PUSH32 0x6472657373000000000000000000000000000000000000000000000000000000 PUSH1 0x20 DUP3 ADD MSTORE POP JUMP JUMPDEST PUSH1 0x0 PUSH2 0x1BF6 PUSH1 0x25 DUP4 PUSH2 0x12AA JUMP JUMPDEST SWAP2 POP PUSH2 0x1C01 DUP3 PUSH2 0x1B9A JUMP JUMPDEST PUSH1 0x40 DUP3 ADD SWAP1 POP SWAP2 SWAP1 POP JUMP JUMPDEST PUSH1 0x0 PUSH1 0x20 DUP3 ADD SWAP1 POP DUP2 DUP2 SUB PUSH1 0x0 DUP4 ADD MSTORE PUSH2 0x1C25 DUP2 PUSH2 0x1BE9 JUMP JUMPDEST SWAP1 POP SWAP2 SWAP1 POP JUMP JUMPDEST PUSH32 0x45524332303A207472616E7366657220746F20746865207A65726F2061646472 PUSH1 0x0 DUP3 ADD MSTORE PUSH32 0x6573730000000000000000000000000000000000000000000000000000000000 PUSH1 0x20 DUP3 ADD MSTORE POP JUMP JUMPDEST PUSH1 0x0 PUSH2 0x1C88 PUSH1 0x23 DUP4 PUSH2 0x12AA JUMP JUMPDEST SWAP2 POP PUSH2 0x1C93 DUP3 PUSH2 0x1C2C JUMP JUMPDEST PUSH1 0x40 DUP3 ADD SWAP1 POP SWAP2 SWAP1 POP JUMP JUMPDEST PUSH1 0x0 PUSH1 0x20 DUP3 ADD SWAP1 POP DUP2 DUP2 SUB PUSH1 0x0 DUP4 ADD MSTORE PUSH2 0x1CB7 DUP2 PUSH2 0x1C7B JUMP JUMPDEST SWAP1 POP SWAP2 SWAP1 POP JUMP JUMPDEST PUSH32 0x45524332303A207472616E7366657220616D6F756E7420657863656564732062 PUSH1 0x0 DUP3 ADD MSTORE PUSH32 0x616C616E63650000000000000000000000000000000000000000000000000000 PUSH1 0x20 DUP3 ADD MSTORE POP JUMP JUMPDEST PUSH1 0x0 PUSH2 0x1D1A PUSH1 0x26 DUP4 PUSH2 0x12AA JUMP JUMPDEST SWAP2 POP PUSH2 0x1D25 DUP3 PUSH2 0x1CBE JUMP JUMPDEST PUSH1 0x40 DUP3 ADD SWAP1 POP SWAP2 SWAP1 POP JUMP JUMPDEST PUSH1 0x0 PUSH1 0x20 DUP3 ADD SWAP1 POP DUP2 DUP2 SUB PUSH1 0x0 DUP4 ADD MSTORE PUSH2 0x1D49 DUP2 PUSH2 0x1D0D JUMP JUMPDEST SWAP1 POP SWAP2 SWAP1 POP JUMP INVALID LOG2 PUSH5 0x6970667358 0x22 SLT KECCAK256 0x4F 0xC1 PUSH7 0xFC42C2003C1FD5 0x2B 0xB7 PUSH25 0x65188FB1DBD69BC0D38617BB412E3625034EE564736F6C6343 STOP ADDMOD SLT STOP CALLER "
				},
				"gasEstimates": {
					"creation": {
						"codeDepositCost": "1511600",
						"executionCost": "infinite",
						"totalCost": "infinite"
					},
					"external": {
						"PropertykiDetails(address)": "infinite",
						"PropertykiFinances(address)": "infinite",
						"allowance(address,address)": "infinite",
						"approve(address,uint256)": "infinite",
						"balanceOf(address)": "2908",
						"decimals()": "432",
						"decreaseAllowance(address,uint256)": "infinite",
						"depositAmount()": "2452",
						"getBalance()": "429",
						"hasPaidSecurityDeposit(address)": "2890",
						"increaseAllowance(address,uint256)": "infinite",
						"name()": "infinite",
						"owner()": "2603",
						"paySecurityDeposit()": "28813",
						"setTenant(address)": "26959",
						"symbol()": "infinite",
						"tenant()": "2580",
						"totalSupply()": "2549",
						"transfer(address,uint256)": "infinite",
						"transferFrom(address,address,uint256)": "infinite",
						"withdrawRent(uint256)": "infinite"
					}
				},
				"methodIdentifiers": {
					"PropertykiDetails(address)": "e01fe4c3",
					"PropertykiFinances(address)": "0df9c426",
					"allowance(address,address)": "dd62ed3e",
					"approve(address,uint256)": "095ea7b3",
					"balanceOf(address)": "70a08231",
					"decimals()": "313ce567",
					"decreaseAllowance(address,uint256)": "a457c2d7",
					"depositAmount()": "419759f5",
					"getBalance()": "12065fe0",
					"hasPaidSecurityDeposit(address)": "255dbb53",
					"increaseAllowance(address,uint256)": "39509351",
					"name()": "06fdde03",
					"owner()": "8da5cb5b",
					"paySecurityDeposit()": "42c63dae",
					"setTenant(address)": "2e74a4de",
					"symbol()": "95d89b41",
					"tenant()": "adf07791",
					"totalSupply()": "18160ddd",
					"transfer(address,uint256)": "a9059cbb",
					"transferFrom(address,address,uint256)": "23b872dd",
					"withdrawRent(uint256)": "cfc78a12"
				}
			},
			"storageLayout": {
				"storage": [
					{
						"astId": 15,
						"contract": "mapping add.sol:RealEstate",
						"label": "_balances",
						"offset": 0,
						"slot": "0",
						"type": "t_mapping(t_address,t_uint256)"
					},
					{
						"astId": 21,
						"contract": "mapping add.sol:RealEstate",
						"label": "_allowances",
						"offset": 0,
						"slot": "1",
						"type": "t_mapping(t_address,t_mapping(t_address,t_uint256))"
					},
					{
						"astId": 23,
						"contract": "mapping add.sol:RealEstate",
						"label": "_totalSupply",
						"offset": 0,
						"slot": "2",
						"type": "t_uint256"
					},
					{
						"astId": 25,
						"contract": "mapping add.sol:RealEstate",
						"label": "_name",
						"offset": 0,
						"slot": "3",
						"type": "t_string_storage"
					},
					{
						"astId": 27,
						"contract": "mapping add.sol:RealEstate",
						"label": "_symbol",
						"offset": 0,
						"slot": "4",
						"type": "t_string_storage"
					},
					{
						"astId": 1062,
						"contract": "mapping add.sol:RealEstate",
						"label": "owner",
						"offset": 0,
						"slot": "5",
						"type": "t_address"
					},
					{
						"astId": 1064,
						"contract": "mapping add.sol:RealEstate",
						"label": "tenant",
						"offset": 0,
						"slot": "6",
						"type": "t_address"
					},
					{
						"astId": 1067,
						"contract": "mapping add.sol:RealEstate",
						"label": "depositAmount",
						"offset": 0,
						"slot": "7",
						"type": "t_uint256"
					},
					{
						"astId": 1072,
						"contract": "mapping add.sol:RealEstate",
						"label": "PropertykiFinances",
						"offset": 0,
						"slot": "8",
						"type": "t_mapping(t_address,t_struct(PropertyFinances)1053_storage)"
					},
					{
						"astId": 1077,
						"contract": "mapping add.sol:RealEstate",
						"label": "PropertykiDetails",
						"offset": 0,
						"slot": "9",
						"type": "t_mapping(t_address,t_struct(PropertyDetails)1060_storage)"
					},
					{
						"astId": 1081,
						"contract": "mapping add.sol:RealEstate",
						"label": "hasPaidSecurityDeposit",
						"offset": 0,
						"slot": "10",
						"type": "t_mapping(t_address,t_bool)"
					}
				],
				"types": {
					"t_address": {
						"encoding": "inplace",
						"label": "address",
						"numberOfBytes": "20"
					},
					"t_bool": {
						"encoding": "inplace",
						"label": "bool",
						"numberOfBytes": "1"
					},
					"t_mapping(t_address,t_bool)": {
						"encoding": "mapping",
						"key": "t_address",
						"label": "mapping(address => bool)",
						"numberOfBytes": "32",
						"value": "t_bool"
					},
					"t_mapping(t_address,t_mapping(t_address,t_uint256))": {
						"encoding": "mapping",
						"key": "t_address",
						"label": "mapping(address => mapping(address => uint256))",
						"numberOfBytes": "32",
						"value": "t_mapping(t_address,t_uint256)"
					},
					"t_mapping(t_address,t_struct(PropertyDetails)1060_storage)": {
						"encoding": "mapping",
						"key": "t_address",
						"label": "mapping(address => struct RealEstate.PropertyDetails)",
						"numberOfBytes": "32",
						"value": "t_struct(PropertyDetails)1060_storage"
					},
					"t_mapping(t_address,t_struct(PropertyFinances)1053_storage)": {
						"encoding": "mapping",
						"key": "t_address",
						"label": "mapping(address => struct RealEstate.PropertyFinances)",
						"numberOfBytes": "32",
						"value": "t_struct(PropertyFinances)1053_storage"
					},
					"t_mapping(t_address,t_uint256)": {
						"encoding": "mapping",
						"key": "t_address",
						"label": "mapping(address => uint256)",
						"numberOfBytes": "32",
						"value": "t_uint256"
					},
					"t_string_storage": {
						"encoding": "bytes",
						"label": "string",
						"numberOfBytes": "32"
					},
					"t_struct(PropertyDetails)1060_storage": {
						"encoding": "inplace",
						"label": "struct RealEstate.PropertyDetails",
						"members": [
							{
								"astId": 1055,
								"contract": "mapping add.sol:RealEstate",
								"label": "Fulladress",
								"offset": 0,
								"slot": "0",
								"type": "t_string_storage"
							},
							{
								"astId": 1057,
								"contract": "mapping add.sol:RealEstate",
								"label": "PropertyManager",
								"offset": 0,
								"slot": "1",
								"type": "t_string_storage"
							},
							{
								"astId": 1059,
								"contract": "mapping add.sol:RealEstate",
								"label": "OfferingPercent",
								"offset": 0,
								"slot": "2",
								"type": "t_uint256"
							}
						],
						"numberOfBytes": "96"
					},
					"t_struct(PropertyFinances)1053_storage": {
						"encoding": "inplace",
						"label": "struct RealEstate.PropertyFinances",
						"members": [
							{
								"astId": 1034,
								"contract": "mapping add.sol:RealEstate",
								"label": "Tokenprice",
								"offset": 0,
								"slot": "0",
								"type": "t_uint256"
							},
							{
								"astId": 1036,
								"contract": "mapping add.sol:RealEstate",
								"label": "TokensNumbers",
								"offset": 0,
								"slot": "1",
								"type": "t_uint256"
							},
							{
								"astId": 1038,
								"contract": "mapping add.sol:RealEstate",
								"label": "MonthlyCosts",
								"offset": 0,
								"slot": "2",
								"type": "t_uint256"
							},
							{
								"astId": 1040,
								"contract": "mapping add.sol:RealEstate",
								"label": "NetRentyear",
								"offset": 0,
								"slot": "3",
								"type": "t_uint256"
							},
							{
								"astId": 1042,
								"contract": "mapping add.sol:RealEstate",
								"label": "NetRentmonth",
								"offset": 0,
								"slot": "4",
								"type": "t_uint256"
							},
							{
								"astId": 1044,
								"contract": "mapping add.sol:RealEstate",
								"label": "TotalInvestment",
								"offset": 0,
								"slot": "5",
								"type": "t_uint256"
							},
							{
								"astId": 1046,
								"contract": "mapping add.sol:RealEstate",
								"label": "Interiorsize",
								"offset": 0,
								"slot": "6",
								"type": "t_uint256"
							},
							{
								"astId": 1048,
								"contract": "mapping add.sol:RealEstate",
								"label": "Bedroom",
								"offset": 0,
								"slot": "7",
								"type": "t_uint256"
							},
							{
								"astId": 1050,
								"contract": "mapping add.sol:RealEstate",
								"label": "Bathroom",
								"offset": 0,
								"slot": "8",
								"type": "t_uint256"
							},
							{
								"astId": 1052,
								"contract": "mapping add.sol:RealEstate",
								"label": "LotSizeinsqft",
								"offset": 0,
								"slot": "9",
								"type": "t_uint256"
							}
						],
						"numberOfBytes": "320"
					},
					"t_uint256": {
						"encoding": "inplace",
						"label": "uint256",
						"numberOfBytes": "32"
					}
				}
			},
			"userdoc": {
				"kind": "user",
				"methods": {},
				"version": 1
			}
		}
	}
}