{
	"Complete Contract.sol": {
		"RealEstate": {
			"abi": [
				{
					"inputs": [],
					"stateMutability": "nonpayable",
					"type": "constructor"
				},
				{
					"anonymous": false,
					"inputs": [
						{
							"indexed": true,
							"internalType": "address",
							"name": "owner",
							"type": "address"
						},
						{
							"indexed": true,
							"internalType": "address",
							"name": "spender",
							"type": "address"
						},
						{
							"indexed": false,
							"internalType": "uint256",
							"name": "value",
							"type": "uint256"
						}
					],
					"name": "Approval",
					"type": "event"
				},
				{
					"anonymous": false,
					"inputs": [
						{
							"indexed": true,
							"internalType": "address",
							"name": "from",
							"type": "address"
						},
						{
							"indexed": true,
							"internalType": "address",
							"name": "to",
							"type": "address"
						},
						{
							"indexed": false,
							"internalType": "uint256",
							"name": "value",
							"type": "uint256"
						}
					],
					"name": "Transfer",
					"type": "event"
				},
				{
					"inputs": [
						{
							"internalType": "address",
							"name": "_property",
							"type": "address"
						}
					],
					"name": "DecideNetRentmonth",
					"outputs": [],
					"stateMutability": "nonpayable",
					"type": "function"
				},
				{
					"inputs": [
						{
							"internalType": "address",
							"name": "_property",
							"type": "address"
						}
					],
					"name": "DecideNetRentyear",
					"outputs": [],
					"stateMutability": "nonpayable",
					"type": "function"
				},
				{
					"inputs": [
						{
							"internalType": "address",
							"name": "_property",
							"type": "address"
						}
					],
					"name": "DecideTokenprice",
					"outputs": [],
					"stateMutability": "nonpayable",
					"type": "function"
				},
				{
					"inputs": [
						{
							"internalType": "address",
							"name": "_property",
							"type": "address"
						}
					],
					"name": "DecideTotalInvestment",
					"outputs": [],
					"stateMutability": "nonpayable",
					"type": "function"
				},
				{
					"inputs": [
						{
							"internalType": "address",
							"name": "",
							"type": "address"
						}
					],
					"name": "PropertykiDetails",
					"outputs": [
						{
							"internalType": "string",
							"name": "Fulladress",
							"type": "string"
						},
						{
							"internalType": "string",
							"name": "PropertyManager",
							"type": "string"
						},
						{
							"internalType": "uint256",
							"name": "OfferingPercent",
							"type": "uint256"
						}
					],
					"stateMutability": "view",
					"type": "function"
				},
				{
					"inputs": [
						{
							"internalType": "address",
							"name": "",
							"type": "address"
						}
					],
					"name": "PropertykiFinances",
					"outputs": [
						{
							"internalType": "uint256",
							"name": "Tokenprice",
							"type": "uint256"
						},
						{
							"internalType": "uint256",
							"name": "TokensNumbers",
							"type": "uint256"
						},
						{
							"internalType": "uint256",
							"name": "MonthlyCosts",
							"type": "uint256"
						},
						{
							"internalType": "uint256",
							"name": "NetRentyear",
							"type": "uint256"
						},
						{
							"internalType": "uint256",
							"name": "NetRentmonth",
							"type": "uint256"
						},
						{
							"internalType": "uint256",
							"name": "TotalInvestment",
							"type": "uint256"
						},
						{
							"internalType": "uint256",
							"name": "Interiorsize",
							"type": "uint256"
						},
						{
							"internalType": "uint256",
							"name": "Bedroom",
							"type": "uint256"
						},
						{
							"internalType": "uint256",
							"name": "Bathroom",
							"type": "uint256"
						},
						{
							"internalType": "uint256",
							"name": "LotSizeinsqft",
							"type": "uint256"
						}
					],
					"stateMutability": "view",
					"type": "function"
				},
				{
					"inputs": [
						{
							"internalType": "address",
							"name": "owner",
							"type": "address"
						},
						{
							"internalType": "address",
							"name": "spender",
							"type": "address"
						}
					],
					"name": "allowance",
					"outputs": [
						{
							"internalType": "uint256",
							"name": "",
							"type": "uint256"
						}
					],
					"stateMutability": "view",
					"type": "function"
				},
				{
					"inputs": [
						{
							"internalType": "address",
							"name": "spender",
							"type": "address"
						},
						{
							"internalType": "uint256",
							"name": "amount",
							"type": "uint256"
						}
					],
					"name": "approve",
					"outputs": [
						{
							"internalType": "bool",
							"name": "",
							"type": "bool"
						}
					],
					"stateMutability": "nonpayable",
					"type": "function"
				},
				{
					"inputs": [
						{
							"internalType": "address",
							"name": "account",
							"type": "address"
						}
					],
					"name": "balanceOf",
					"outputs": [
						{
							"internalType": "uint256",
							"name": "",
							"type": "uint256"
						}
					],
					"stateMutability": "view",
					"type": "function"
				},
				{
					"inputs": [],
					"name": "decimals",
					"outputs": [
						{
							"internalType": "uint8",
							"name": "",
							"type": "uint8"
						}
					],
					"stateMutability": "view",
					"type": "function"
				},
				{
					"inputs": [
						{
							"internalType": "address",
							"name": "spender",
							"type": "address"
						},
						{
							"internalType": "uint256",
							"name": "subtractedValue",
							"type": "uint256"
						}
					],
					"name": "decreaseAllowance",
					"outputs": [
						{
							"internalType": "bool",
							"name": "",
							"type": "bool"
						}
					],
					"stateMutability": "nonpayable",
					"type": "function"
				},
				{
					"inputs": [],
					"name": "depositAmount",
					"outputs": [
						{
							"internalType": "uint256",
							"name": "",
							"type": "uint256"
						}
					],
					"stateMutability": "view",
					"type": "function"
				},
				{
					"inputs": [],
					"name": "getBalance",
					"outputs": [
						{
							"internalType": "uint256",
							"name": "",
							"type": "uint256"
						}
					],
					"stateMutability": "view",
					"type": "function"
				},
				{
					"inputs": [
						{
							"internalType": "address",
							"name": "",
							"type": "address"
						}
					],
					"name": "hasPaidSecurityDeposit",
					"outputs": [
						{
							"internalType": "bool",
							"name": "",
							"type": "bool"
						}
					],
					"stateMutability": "view",
					"type": "function"
				},
				{
					"inputs": [
						{
							"internalType": "address",
							"name": "spender",
							"type": "address"
						},
						{
							"internalType": "uint256",
							"name": "addedValue",
							"type": "uint256"
						}
					],
					"name": "increaseAllowance",
					"outputs": [
						{
							"internalType": "bool",
							"name": "",
							"type": "bool"
						}
					],
					"stateMutability": "nonpayable",
					"type": "function"
				},
				{
					"inputs": [
						{
							"internalType": "address",
							"name": "_property",
							"type": "address"
						}
					],
					"name": "minttheTokenInvestment",
					"outputs": [],
					"stateMutability": "nonpayable",
					"type": "function"
				},
				{
					"inputs": [
						{
							"internalType": "address",
							"name": "_property",
							"type": "address"
						}
					],
					"name": "minttheTokenRentpermonth",
					"outputs": [],
					"stateMutability": "nonpayable",
					"type": "function"
				},
				{
					"inputs": [
						{
							"internalType": "address",
							"name": "_property",
							"type": "address"
						}
					],
					"name": "minttheTokenRentperyear",
					"outputs": [],
					"stateMutability": "nonpayable",
					"type": "function"
				},
				{
					"inputs": [
						{
							"internalType": "address",
							"name": "_property",
							"type": "address"
						}
					],
					"name": "minttheTokenprice",
					"outputs": [],
					"stateMutability": "nonpayable",
					"type": "function"
				},
				{
					"inputs": [],
					"name": "name",
					"outputs": [
						{
							"internalType": "string",
							"name": "",
							"type": "string"
						}
					],
					"stateMutability": "view",
					"type": "function"
				},
				{
					"inputs": [],
					"name": "owner",
					"outputs": [
						{
							"internalType": "address",
							"name": "",
							"type": "address"
						}
					],
					"stateMutability": "view",
					"type": "function"
				},
				{
					"inputs": [],
					"name": "payRent",
					"outputs": [],
					"stateMutability": "payable",
					"type": "function"
				},
				{
					"inputs": [],
					"name": "paySecurityDeposit",
					"outputs": [],
					"stateMutability": "payable",
					"type": "function"
				},
				{
					"inputs": [],
					"name": "rentcollected",
					"outputs": [
						{
							"internalType": "uint256",
							"name": "",
							"type": "uint256"
						}
					],
					"stateMutability": "view",
					"type": "function"
				},
				{
					"inputs": [
						{
							"internalType": "address",
							"name": "_tenant",
							"type": "address"
						}
					],
					"name": "setTenant",
					"outputs": [],
					"stateMutability": "nonpayable",
					"type": "function"
				},
				{
					"inputs": [],
					"name": "symbol",
					"outputs": [
						{
							"internalType": "string",
							"name": "",
							"type": "string"
						}
					],
					"stateMutability": "view",
					"type": "function"
				},
				{
					"inputs": [],
					"name": "tenant",
					"outputs": [
						{
							"internalType": "address",
							"name": "",
							"type": "address"
						}
					],
					"stateMutability": "view",
					"type": "function"
				},
				{
					"inputs": [],
					"name": "totalSupply",
					"outputs": [
						{
							"internalType": "uint256",
							"name": "",
							"type": "uint256"
						}
					],
					"stateMutability": "view",
					"type": "function"
				},
				{
					"inputs": [
						{
							"internalType": "address",
							"name": "to",
							"type": "address"
						},
						{
							"internalType": "uint256",
							"name": "amount",
							"type": "uint256"
						}
					],
					"name": "transfer",
					"outputs": [
						{
							"internalType": "bool",
							"name": "",
							"type": "bool"
						}
					],
					"stateMutability": "nonpayable",
					"type": "function"
				},
				{
					"inputs": [
						{
							"internalType": "address",
							"name": "from",
							"type": "address"
						},
						{
							"internalType": "address",
							"name": "to",
							"type": "address"
						},
						{
							"internalType": "uint256",
							"name": "amount",
							"type": "uint256"
						}
					],
					"name": "transferFrom",
					"outputs": [
						{
							"internalType": "bool",
							"name": "",
							"type": "bool"
						}
					],
					"stateMutability": "nonpayable",
					"type": "function"
				},
				{
					"inputs": [],
					"name": "withdrawRent",
					"outputs": [],
					"stateMutability": "payable",
					"type": "function"
				}
			],
			"devdoc": {
				"events": {
					"Approval(address,address,uint256)": {
						"details": "Emitted when the allowance of a `spender` for an `owner` is set by a call to {approve}. `value` is the new allowance."
					},
					"Transfer(address,address,uint256)": {
						"details": "Emitted when `value` tokens are moved from one account (`from`) to another (`to`). Note that `value` may be zero."
					}
				},
				"kind": "dev",
				"methods": {
					"allowance(address,address)": {
						"details": "See {IERC20-allowance}."
					},
					"approve(address,uint256)": {
						"details": "See {IERC20-approve}. NOTE: If `amount` is the maximum `uint256`, the allowance is not updated on `transferFrom`. This is semantically equivalent to an infinite approval. Requirements: - `spender` cannot be the zero address."
					},
					"balanceOf(address)": {
						"details": "See {IERC20-balanceOf}."
					},
					"decimals()": {
						"details": "Returns the number of decimals used to get its user representation. For example, if `decimals` equals `2`, a balance of `505` tokens should be displayed to a user as `5.05` (`505 / 10 ** 2`). Tokens usually opt for a value of 18, imitating the relationship between Ether and Wei. This is the default value returned by this function, unless it's overridden. NOTE: This information is only used for _display_ purposes: it in no way affects any of the arithmetic of the contract, including {IERC20-balanceOf} and {IERC20-transfer}."
					},
					"decreaseAllowance(address,uint256)": {
						"details": "Atomically decreases the allowance granted to `spender` by the caller. This is an alternative to {approve} that can be used as a mitigation for problems described in {IERC20-approve}. Emits an {Approval} event indicating the updated allowance. Requirements: - `spender` cannot be the zero address. - `spender` must have allowance for the caller of at least `subtractedValue`."
					},
					"increaseAllowance(address,uint256)": {
						"details": "Atomically increases the allowance granted to `spender` by the caller. This is an alternative to {approve} that can be used as a mitigation for problems described in {IERC20-approve}. Emits an {Approval} event indicating the updated allowance. Requirements: - `spender` cannot be the zero address."
					},
					"name()": {
						"details": "Returns the name of the token."
					},
					"symbol()": {
						"details": "Returns the symbol of the token, usually a shorter version of the name."
					},
					"totalSupply()": {
						"details": "See {IERC20-totalSupply}."
					},
					"transfer(address,uint256)": {
						"details": "See {IERC20-transfer}. Requirements: - `to` cannot be the zero address. - the caller must have a balance of at least `amount`."
					},
					"transferFrom(address,address,uint256)": {
						"details": "See {IERC20-transferFrom}. Emits an {Approval} event indicating the updated allowance. This is not required by the EIP. See the note at the beginning of {ERC20}. NOTE: Does not update the allowance if the current allowance is the maximum `uint256`. Requirements: - `from` and `to` cannot be the zero address. - `from` must have a balance of at least `amount`. - the caller must have allowance for ``from``'s tokens of at least `amount`."
					}
				},
				"version": 1
			},
			"evm": {
				"assembly": "    /* \"Complete Contract.sol\":263:3816  contract RealEstate is ERC20 {... */\n  mstore(0x40, 0x80)\n    /* \"Complete Contract.sol\":871:878  1 ether */\n  0x0de0b6b3a7640000\n    /* \"Complete Contract.sol\":840:878  uint256 public depositAmount = 1 ether */\n  0x08\n  sstore\n    /* \"Complete Contract.sol\":1080:1161  constructor() ERC20(\"RealEstateToken\", \"RET\") {... */\n  callvalue\n  dup1\n  iszero\n  tag_1\n  jumpi\n  0x00\n  dup1\n  revert\ntag_1:\n  pop\n    /* \"@openzeppelin/contracts/token/ERC20/ERC20.sol\":1980:2093  constructor(string memory name_, string memory symbol_) {... */\n  mload(0x40)\n  dup1\n  0x40\n  add\n  0x40\n  mstore\n  dup1\n  0x0f\n  dup2\n  mstore\n  0x20\n  add\n  0x5265616c457374617465546f6b656e0000000000000000000000000000000000\n  dup2\n  mstore\n  pop\n  mload(0x40)\n  dup1\n  0x40\n  add\n  0x40\n  mstore\n  dup1\n  0x03\n  dup2\n  mstore\n  0x20\n  add\n  0x5245540000000000000000000000000000000000000000000000000000000000\n  dup2\n  mstore\n  pop\n    /* \"@openzeppelin/contracts/token/ERC20/ERC20.sol\":2054:2059  name_ */\n  dup2\n    /* \"@openzeppelin/contracts/token/ERC20/ERC20.sol\":2046:2051  _name */\n  0x03\n    /* \"@openzeppelin/contracts/token/ERC20/ERC20.sol\":2046:2059  _name = name_ */\n  swap1\n  dup2\n  tag_5\n  swap2\n  swap1\n  tag_6\n  jump\t// in\ntag_5:\n  pop\n    /* \"@openzeppelin/contracts/token/ERC20/ERC20.sol\":2079:2086  symbol_ */\n  dup1\n    /* \"@openzeppelin/contracts/token/ERC20/ERC20.sol\":2069:2076  _symbol */\n  0x04\n    /* \"@openzeppelin/contracts/token/ERC20/ERC20.sol\":2069:2086  _symbol = symbol_ */\n  swap1\n  dup2\n  tag_7\n  swap2\n  swap1\n  tag_6\n  jump\t// in\ntag_7:\n  pop\n    /* \"@openzeppelin/contracts/token/ERC20/ERC20.sol\":1980:2093  constructor(string memory name_, string memory symbol_) {... */\n  pop\n  pop\n    /* \"Complete Contract.sol\":1144:1154  msg.sender */\n  caller\n    /* \"Complete Contract.sol\":1136:1141  owner */\n  0x05\n  0x00\n    /* \"Complete Contract.sol\":1136:1154  owner = msg.sender */\n  0x0100\n  exp\n  dup2\n  sload\n  dup2\n  0xffffffffffffffffffffffffffffffffffffffff\n  mul\n  not\n  and\n  swap1\n  dup4\n  0xffffffffffffffffffffffffffffffffffffffff\n  and\n  mul\n  or\n  swap1\n  sstore\n  pop\n    /* \"Complete Contract.sol\":263:3816  contract RealEstate is ERC20 {... */\n  jump(tag_9)\n    /* \"#utility.yul\":7:106   */\ntag_10:\n    /* \"#utility.yul\":59:65   */\n  0x00\n    /* \"#utility.yul\":93:98   */\n  dup2\n    /* \"#utility.yul\":87:99   */\n  mload\n    /* \"#utility.yul\":77:99   */\n  swap1\n  pop\n    /* \"#utility.yul\":7:106   */\n  swap2\n  swap1\n  pop\n  jump\t// out\n    /* \"#utility.yul\":112:292   */\ntag_11:\n    /* \"#utility.yul\":160:237   */\n  0x4e487b7100000000000000000000000000000000000000000000000000000000\n    /* \"#utility.yul\":157:158   */\n  0x00\n    /* \"#utility.yul\":150:238   */\n  mstore\n    /* \"#utility.yul\":257:261   */\n  0x41\n    /* \"#utility.yul\":254:255   */\n  0x04\n    /* \"#utility.yul\":247:262   */\n  mstore\n    /* \"#utility.yul\":281:285   */\n  0x24\n    /* \"#utility.yul\":278:279   */\n  0x00\n    /* \"#utility.yul\":271:286   */\n  revert\n    /* \"#utility.yul\":298:478   */\ntag_12:\n    /* \"#utility.yul\":346:423   */\n  0x4e487b7100000000000000000000000000000000000000000000000000000000\n    /* \"#utility.yul\":343:344   */\n  0x00\n    /* \"#utility.yul\":336:424   */\n  mstore\n    /* \"#utility.yul\":443:447   */\n  0x22\n    /* \"#utility.yul\":440:441   */\n  0x04\n    /* \"#utility.yul\":433:448   */\n  mstore\n    /* \"#utility.yul\":467:471   */\n  0x24\n    /* \"#utility.yul\":464:465   */\n  0x00\n    /* \"#utility.yul\":457:472   */\n  revert\n    /* \"#utility.yul\":484:804   */\ntag_13:\n    /* \"#utility.yul\":528:534   */\n  0x00\n    /* \"#utility.yul\":565:566   */\n  0x02\n    /* \"#utility.yul\":559:563   */\n  dup3\n    /* \"#utility.yul\":555:567   */\n  div\n    /* \"#utility.yul\":545:567   */\n  swap1\n  pop\n    /* \"#utility.yul\":612:613   */\n  0x01\n    /* \"#utility.yul\":606:610   */\n  dup3\n    /* \"#utility.yul\":602:614   */\n  and\n    /* \"#utility.yul\":633:651   */\n  dup1\n    /* \"#utility.yul\":623:704   */\n  tag_35\n  jumpi\n    /* \"#utility.yul\":689:693   */\n  0x7f\n    /* \"#utility.yul\":681:687   */\n  dup3\n    /* \"#utility.yul\":677:694   */\n  and\n    /* \"#utility.yul\":667:694   */\n  swap2\n  pop\n    /* \"#utility.yul\":623:704   */\ntag_35:\n    /* \"#utility.yul\":751:753   */\n  0x20\n    /* \"#utility.yul\":743:749   */\n  dup3\n    /* \"#utility.yul\":740:754   */\n  lt\n    /* \"#utility.yul\":720:738   */\n  dup2\n    /* \"#utility.yul\":717:755   */\n  sub\n    /* \"#utility.yul\":714:798   */\n  tag_36\n  jumpi\n    /* \"#utility.yul\":770:788   */\n  tag_37\n  tag_12\n  jump\t// in\ntag_37:\n    /* \"#utility.yul\":714:798   */\ntag_36:\n    /* \"#utility.yul\":535:804   */\n  pop\n    /* \"#utility.yul\":484:804   */\n  swap2\n  swap1\n  pop\n  jump\t// out\n    /* \"#utility.yul\":810:951   */\ntag_14:\n    /* \"#utility.yul\":859:863   */\n  0x00\n    /* \"#utility.yul\":882:885   */\n  dup2\n    /* \"#utility.yul\":874:885   */\n  swap1\n  pop\n    /* \"#utility.yul\":905:908   */\n  dup2\n    /* \"#utility.yul\":902:903   */\n  0x00\n    /* \"#utility.yul\":895:909   */\n  mstore\n    /* \"#utility.yul\":939:943   */\n  0x20\n    /* \"#utility.yul\":936:937   */\n  0x00\n    /* \"#utility.yul\":926:944   */\n  keccak256\n    /* \"#utility.yul\":918:944   */\n  swap1\n  pop\n    /* \"#utility.yul\":810:951   */\n  swap2\n  swap1\n  pop\n  jump\t// out\n    /* \"#utility.yul\":957:1050   */\ntag_15:\n    /* \"#utility.yul\":994:1000   */\n  0x00\n    /* \"#utility.yul\":1041:1043   */\n  0x20\n    /* \"#utility.yul\":1036:1038   */\n  0x1f\n    /* \"#utility.yul\":1029:1034   */\n  dup4\n    /* \"#utility.yul\":1025:1039   */\n  add\n    /* \"#utility.yul\":1021:1044   */\n  div\n    /* \"#utility.yul\":1011:1044   */\n  swap1\n  pop\n    /* \"#utility.yul\":957:1050   */\n  swap2\n  swap1\n  pop\n  jump\t// out\n    /* \"#utility.yul\":1056:1163   */\ntag_16:\n    /* \"#utility.yul\":1100:1108   */\n  0x00\n    /* \"#utility.yul\":1150:1155   */\n  dup3\n    /* \"#utility.yul\":1144:1148   */\n  dup3\n    /* \"#utility.yul\":1140:1156   */\n  shl\n    /* \"#utility.yul\":1119:1156   */\n  swap1\n  pop\n    /* \"#utility.yul\":1056:1163   */\n  swap3\n  swap2\n  pop\n  pop\n  jump\t// out\n    /* \"#utility.yul\":1169:1562   */\ntag_17:\n    /* \"#utility.yul\":1238:1244   */\n  0x00\n    /* \"#utility.yul\":1288:1289   */\n  0x08\n    /* \"#utility.yul\":1276:1286   */\n  dup4\n    /* \"#utility.yul\":1272:1290   */\n  mul\n    /* \"#utility.yul\":1311:1408   */\n  tag_42\n    /* \"#utility.yul\":1341:1407   */\n  0xffffffffffffffffffffffffffffffffffffffffffffffffffffffffffffffff\n    /* \"#utility.yul\":1330:1339   */\n  dup3\n    /* \"#utility.yul\":1311:1408   */\n  tag_16\n  jump\t// in\ntag_42:\n    /* \"#utility.yul\":1429:1468   */\n  tag_43\n    /* \"#utility.yul\":1459:1467   */\n  dup7\n    /* \"#utility.yul\":1448:1457   */\n  dup4\n    /* \"#utility.yul\":1429:1468   */\n  tag_16\n  jump\t// in\ntag_43:\n    /* \"#utility.yul\":1417:1468   */\n  swap6\n  pop\n    /* \"#utility.yul\":1501:1505   */\n  dup1\n    /* \"#utility.yul\":1497:1506   */\n  not\n    /* \"#utility.yul\":1490:1495   */\n  dup5\n    /* \"#utility.yul\":1486:1507   */\n  and\n    /* \"#utility.yul\":1477:1507   */\n  swap4\n  pop\n    /* \"#utility.yul\":1550:1554   */\n  dup1\n    /* \"#utility.yul\":1540:1548   */\n  dup7\n    /* \"#utility.yul\":1536:1555   */\n  and\n    /* \"#utility.yul\":1529:1534   */\n  dup5\n    /* \"#utility.yul\":1526:1556   */\n  or\n    /* \"#utility.yul\":1516:1556   */\n  swap3\n  pop\n    /* \"#utility.yul\":1245:1562   */\n  pop\n  pop\n    /* \"#utility.yul\":1169:1562   */\n  swap4\n  swap3\n  pop\n  pop\n  pop\n  jump\t// out\n    /* \"#utility.yul\":1568:1645   */\ntag_18:\n    /* \"#utility.yul\":1605:1612   */\n  0x00\n    /* \"#utility.yul\":1634:1639   */\n  dup2\n    /* \"#utility.yul\":1623:1639   */\n  swap1\n  pop\n    /* \"#utility.yul\":1568:1645   */\n  swap2\n  swap1\n  pop\n  jump\t// out\n    /* \"#utility.yul\":1651:1711   */\ntag_19:\n    /* \"#utility.yul\":1679:1682   */\n  0x00\n    /* \"#utility.yul\":1700:1705   */\n  dup2\n    /* \"#utility.yul\":1693:1705   */\n  swap1\n  pop\n    /* \"#utility.yul\":1651:1711   */\n  swap2\n  swap1\n  pop\n  jump\t// out\n    /* \"#utility.yul\":1717:1859   */\ntag_20:\n    /* \"#utility.yul\":1767:1776   */\n  0x00\n    /* \"#utility.yul\":1800:1853   */\n  tag_47\n    /* \"#utility.yul\":1818:1852   */\n  tag_48\n    /* \"#utility.yul\":1827:1851   */\n  tag_49\n    /* \"#utility.yul\":1845:1850   */\n  dup5\n    /* \"#utility.yul\":1827:1851   */\n  tag_18\n  jump\t// in\ntag_49:\n    /* \"#utility.yul\":1818:1852   */\n  tag_19\n  jump\t// in\ntag_48:\n    /* \"#utility.yul\":1800:1853   */\n  tag_18\n  jump\t// in\ntag_47:\n    /* \"#utility.yul\":1787:1853   */\n  swap1\n  pop\n    /* \"#utility.yul\":1717:1859   */\n  swap2\n  swap1\n  pop\n  jump\t// out\n    /* \"#utility.yul\":1865:1940   */\ntag_21:\n    /* \"#utility.yul\":1908:1911   */\n  0x00\n    /* \"#utility.yul\":1929:1934   */\n  dup2\n    /* \"#utility.yul\":1922:1934   */\n  swap1\n  pop\n    /* \"#utility.yul\":1865:1940   */\n  swap2\n  swap1\n  pop\n  jump\t// out\n    /* \"#utility.yul\":1946:2215   */\ntag_22:\n    /* \"#utility.yul\":2056:2095   */\n  tag_52\n    /* \"#utility.yul\":2087:2094   */\n  dup4\n    /* \"#utility.yul\":2056:2095   */\n  tag_20\n  jump\t// in\ntag_52:\n    /* \"#utility.yul\":2117:2208   */\n  tag_53\n    /* \"#utility.yul\":2166:2207   */\n  tag_54\n    /* \"#utility.yul\":2190:2206   */\n  dup3\n    /* \"#utility.yul\":2166:2207   */\n  tag_21\n  jump\t// in\ntag_54:\n    /* \"#utility.yul\":2158:2164   */\n  dup5\n    /* \"#utility.yul\":2151:2155   */\n  dup5\n    /* \"#utility.yul\":2145:2156   */\n  sload\n    /* \"#utility.yul\":2117:2208   */\n  tag_17\n  jump\t// in\ntag_53:\n    /* \"#utility.yul\":2111:2115   */\n  dup3\n    /* \"#utility.yul\":2104:2209   */\n  sstore\n    /* \"#utility.yul\":2022:2215   */\n  pop\n    /* \"#utility.yul\":1946:2215   */\n  pop\n  pop\n  pop\n  jump\t// out\n    /* \"#utility.yul\":2221:2294   */\ntag_23:\n    /* \"#utility.yul\":2266:2269   */\n  0x00\n    /* \"#utility.yul\":2221:2294   */\n  swap1\n  jump\t// out\n    /* \"#utility.yul\":2300:2489   */\ntag_24:\n    /* \"#utility.yul\":2377:2409   */\n  tag_57\n  tag_23\n  jump\t// in\ntag_57:\n    /* \"#utility.yul\":2418:2483   */\n  tag_58\n    /* \"#utility.yul\":2476:2482   */\n  dup2\n    /* \"#utility.yul\":2468:2474   */\n  dup5\n    /* \"#utility.yul\":2462:2466   */\n  dup5\n    /* \"#utility.yul\":2418:2483   */\n  tag_22\n  jump\t// in\ntag_58:\n    /* \"#utility.yul\":2353:2489   */\n  pop\n    /* \"#utility.yul\":2300:2489   */\n  pop\n  pop\n  jump\t// out\n    /* \"#utility.yul\":2495:2681   */\ntag_25:\n    /* \"#utility.yul\":2555:2675   */\ntag_60:\n    /* \"#utility.yul\":2572:2575   */\n  dup2\n    /* \"#utility.yul\":2565:2570   */\n  dup2\n    /* \"#utility.yul\":2562:2576   */\n  lt\n    /* \"#utility.yul\":2555:2675   */\n  iszero\n  tag_62\n  jumpi\n    /* \"#utility.yul\":2626:2665   */\n  tag_63\n    /* \"#utility.yul\":2663:2664   */\n  0x00\n    /* \"#utility.yul\":2656:2661   */\n  dup3\n    /* \"#utility.yul\":2626:2665   */\n  tag_24\n  jump\t// in\ntag_63:\n    /* \"#utility.yul\":2599:2600   */\n  0x01\n    /* \"#utility.yul\":2592:2597   */\n  dup2\n    /* \"#utility.yul\":2588:2601   */\n  add\n    /* \"#utility.yul\":2579:2601   */\n  swap1\n  pop\n    /* \"#utility.yul\":2555:2675   */\n  jump(tag_60)\ntag_62:\n    /* \"#utility.yul\":2495:2681   */\n  pop\n  pop\n  jump\t// out\n    /* \"#utility.yul\":2687:3230   */\ntag_26:\n    /* \"#utility.yul\":2788:2790   */\n  0x1f\n    /* \"#utility.yul\":2783:2786   */\n  dup3\n    /* \"#utility.yul\":2780:2791   */\n  gt\n    /* \"#utility.yul\":2777:3223   */\n  iszero\n  tag_65\n  jumpi\n    /* \"#utility.yul\":2822:2860   */\n  tag_66\n    /* \"#utility.yul\":2854:2859   */\n  dup2\n    /* \"#utility.yul\":2822:2860   */\n  tag_14\n  jump\t// in\ntag_66:\n    /* \"#utility.yul\":2906:2935   */\n  tag_67\n    /* \"#utility.yul\":2924:2934   */\n  dup5\n    /* \"#utility.yul\":2906:2935   */\n  tag_15\n  jump\t// in\ntag_67:\n    /* \"#utility.yul\":2896:2904   */\n  dup2\n    /* \"#utility.yul\":2892:2936   */\n  add\n    /* \"#utility.yul\":3089:3091   */\n  0x20\n    /* \"#utility.yul\":3077:3087   */\n  dup6\n    /* \"#utility.yul\":3074:3092   */\n  lt\n    /* \"#utility.yul\":3071:3120   */\n  iszero\n  tag_68\n  jumpi\n    /* \"#utility.yul\":3110:3118   */\n  dup2\n    /* \"#utility.yul\":3095:3118   */\n  swap1\n  pop\n    /* \"#utility.yul\":3071:3120   */\ntag_68:\n    /* \"#utility.yul\":3133:3213   */\n  tag_69\n    /* \"#utility.yul\":3189:3211   */\n  tag_70\n    /* \"#utility.yul\":3207:3210   */\n  dup6\n    /* \"#utility.yul\":3189:3211   */\n  tag_15\n  jump\t// in\ntag_70:\n    /* \"#utility.yul\":3179:3187   */\n  dup4\n    /* \"#utility.yul\":3175:3212   */\n  add\n    /* \"#utility.yul\":3162:3173   */\n  dup3\n    /* \"#utility.yul\":3133:3213   */\n  tag_25\n  jump\t// in\ntag_69:\n    /* \"#utility.yul\":2792:3223   */\n  pop\n  pop\n    /* \"#utility.yul\":2777:3223   */\ntag_65:\n    /* \"#utility.yul\":2687:3230   */\n  pop\n  pop\n  pop\n  jump\t// out\n    /* \"#utility.yul\":3236:3353   */\ntag_27:\n    /* \"#utility.yul\":3290:3298   */\n  0x00\n    /* \"#utility.yul\":3340:3345   */\n  dup3\n    /* \"#utility.yul\":3334:3338   */\n  dup3\n    /* \"#utility.yul\":3330:3346   */\n  shr\n    /* \"#utility.yul\":3309:3346   */\n  swap1\n  pop\n    /* \"#utility.yul\":3236:3353   */\n  swap3\n  swap2\n  pop\n  pop\n  jump\t// out\n    /* \"#utility.yul\":3359:3528   */\ntag_28:\n    /* \"#utility.yul\":3403:3409   */\n  0x00\n    /* \"#utility.yul\":3436:3487   */\n  tag_73\n    /* \"#utility.yul\":3484:3485   */\n  0x00\n    /* \"#utility.yul\":3480:3486   */\n  not\n    /* \"#utility.yul\":3472:3477   */\n  dup5\n    /* \"#utility.yul\":3469:3470   */\n  0x08\n    /* \"#utility.yul\":3465:3478   */\n  mul\n    /* \"#utility.yul\":3436:3487   */\n  tag_27\n  jump\t// in\ntag_73:\n    /* \"#utility.yul\":3432:3488   */\n  not\n    /* \"#utility.yul\":3517:3521   */\n  dup1\n    /* \"#utility.yul\":3511:3515   */\n  dup4\n    /* \"#utility.yul\":3507:3522   */\n  and\n    /* \"#utility.yul\":3497:3522   */\n  swap2\n  pop\n    /* \"#utility.yul\":3410:3528   */\n  pop\n    /* \"#utility.yul\":3359:3528   */\n  swap3\n  swap2\n  pop\n  pop\n  jump\t// out\n    /* \"#utility.yul\":3533:3828   */\ntag_29:\n    /* \"#utility.yul\":3609:3613   */\n  0x00\n    /* \"#utility.yul\":3755:3784   */\n  tag_75\n    /* \"#utility.yul\":3780:3783   */\n  dup4\n    /* \"#utility.yul\":3774:3778   */\n  dup4\n    /* \"#utility.yul\":3755:3784   */\n  tag_28\n  jump\t// in\ntag_75:\n    /* \"#utility.yul\":3747:3784   */\n  swap2\n  pop\n    /* \"#utility.yul\":3817:3820   */\n  dup3\n    /* \"#utility.yul\":3814:3815   */\n  0x02\n    /* \"#utility.yul\":3810:3821   */\n  mul\n    /* \"#utility.yul\":3804:3808   */\n  dup3\n    /* \"#utility.yul\":3801:3822   */\n  or\n    /* \"#utility.yul\":3793:3822   */\n  swap1\n  pop\n    /* \"#utility.yul\":3533:3828   */\n  swap3\n  swap2\n  pop\n  pop\n  jump\t// out\n    /* \"#utility.yul\":3833:5228   */\ntag_6:\n    /* \"#utility.yul\":3950:3987   */\n  tag_77\n    /* \"#utility.yul\":3983:3986   */\n  dup3\n    /* \"#utility.yul\":3950:3987   */\n  tag_10\n  jump\t// in\ntag_77:\n    /* \"#utility.yul\":4052:4070   */\n  0xffffffffffffffff\n    /* \"#utility.yul\":4044:4050   */\n  dup2\n    /* \"#utility.yul\":4041:4071   */\n  gt\n    /* \"#utility.yul\":4038:4094   */\n  iszero\n  tag_78\n  jumpi\n    /* \"#utility.yul\":4074:4092   */\n  tag_79\n  tag_11\n  jump\t// in\ntag_79:\n    /* \"#utility.yul\":4038:4094   */\ntag_78:\n    /* \"#utility.yul\":4118:4156   */\n  tag_80\n    /* \"#utility.yul\":4150:4154   */\n  dup3\n    /* \"#utility.yul\":4144:4155   */\n  sload\n    /* \"#utility.yul\":4118:4156   */\n  tag_13\n  jump\t// in\ntag_80:\n    /* \"#utility.yul\":4203:4270   */\n  tag_81\n    /* \"#utility.yul\":4263:4269   */\n  dup3\n    /* \"#utility.yul\":4255:4261   */\n  dup3\n    /* \"#utility.yul\":4249:4253   */\n  dup6\n    /* \"#utility.yul\":4203:4270   */\n  tag_26\n  jump\t// in\ntag_81:\n    /* \"#utility.yul\":4297:4298   */\n  0x00\n    /* \"#utility.yul\":4321:4325   */\n  0x20\n    /* \"#utility.yul\":4308:4325   */\n  swap1\n  pop\n    /* \"#utility.yul\":4353:4355   */\n  0x1f\n    /* \"#utility.yul\":4345:4351   */\n  dup4\n    /* \"#utility.yul\":4342:4356   */\n  gt\n    /* \"#utility.yul\":4370:4371   */\n  0x01\n    /* \"#utility.yul\":4365:4983   */\n  dup2\n  eq\n  tag_83\n  jumpi\n    /* \"#utility.yul\":5027:5028   */\n  0x00\n    /* \"#utility.yul\":5044:5050   */\n  dup5\n    /* \"#utility.yul\":5041:5118   */\n  iszero\n  tag_84\n  jumpi\n    /* \"#utility.yul\":5093:5102   */\n  dup3\n    /* \"#utility.yul\":5088:5091   */\n  dup8\n    /* \"#utility.yul\":5084:5103   */\n  add\n    /* \"#utility.yul\":5078:5104   */\n  mload\n    /* \"#utility.yul\":5069:5104   */\n  swap1\n  pop\n    /* \"#utility.yul\":5041:5118   */\ntag_84:\n    /* \"#utility.yul\":5144:5211   */\n  tag_85\n    /* \"#utility.yul\":5204:5210   */\n  dup6\n    /* \"#utility.yul\":5197:5202   */\n  dup3\n    /* \"#utility.yul\":5144:5211   */\n  tag_29\n  jump\t// in\ntag_85:\n    /* \"#utility.yul\":5138:5142   */\n  dup7\n    /* \"#utility.yul\":5131:5212   */\n  sstore\n    /* \"#utility.yul\":5000:5222   */\n  pop\n    /* \"#utility.yul\":4335:5222   */\n  jump(tag_82)\n    /* \"#utility.yul\":4365:4983   */\ntag_83:\n    /* \"#utility.yul\":4417:4421   */\n  0x1f\n    /* \"#utility.yul\":4413:4422   */\n  not\n    /* \"#utility.yul\":4405:4411   */\n  dup5\n    /* \"#utility.yul\":4401:4423   */\n  and\n    /* \"#utility.yul\":4451:4488   */\n  tag_86\n    /* \"#utility.yul\":4483:4487   */\n  dup7\n    /* \"#utility.yul\":4451:4488   */\n  tag_14\n  jump\t// in\ntag_86:\n    /* \"#utility.yul\":4510:4511   */\n  0x00\n    /* \"#utility.yul\":4524:4732   */\ntag_87:\n    /* \"#utility.yul\":4538:4545   */\n  dup3\n    /* \"#utility.yul\":4535:4536   */\n  dup2\n    /* \"#utility.yul\":4532:4546   */\n  lt\n    /* \"#utility.yul\":4524:4732   */\n  iszero\n  tag_89\n  jumpi\n    /* \"#utility.yul\":4617:4626   */\n  dup5\n    /* \"#utility.yul\":4612:4615   */\n  dup10\n    /* \"#utility.yul\":4608:4627   */\n  add\n    /* \"#utility.yul\":4602:4628   */\n  mload\n    /* \"#utility.yul\":4594:4600   */\n  dup3\n    /* \"#utility.yul\":4587:4629   */\n  sstore\n    /* \"#utility.yul\":4668:4669   */\n  0x01\n    /* \"#utility.yul\":4660:4666   */\n  dup3\n    /* \"#utility.yul\":4656:4670   */\n  add\n    /* \"#utility.yul\":4646:4670   */\n  swap2\n  pop\n    /* \"#utility.yul\":4715:4717   */\n  0x20\n    /* \"#utility.yul\":4704:4713   */\n  dup6\n    /* \"#utility.yul\":4700:4718   */\n  add\n    /* \"#utility.yul\":4687:4718   */\n  swap5\n  pop\n    /* \"#utility.yul\":4561:4565   */\n  0x20\n    /* \"#utility.yul\":4558:4559   */\n  dup2\n    /* \"#utility.yul\":4554:4566   */\n  add\n    /* \"#utility.yul\":4549:4566   */\n  swap1\n  pop\n    /* \"#utility.yul\":4524:4732   */\n  jump(tag_87)\ntag_89:\n    /* \"#utility.yul\":4760:4766   */\n  dup7\n    /* \"#utility.yul\":4751:4758   */\n  dup4\n    /* \"#utility.yul\":4748:4767   */\n  lt\n    /* \"#utility.yul\":4745:4924   */\n  iszero\n  tag_90\n  jumpi\n    /* \"#utility.yul\":4818:4827   */\n  dup5\n    /* \"#utility.yul\":4813:4816   */\n  dup10\n    /* \"#utility.yul\":4809:4828   */\n  add\n    /* \"#utility.yul\":4803:4829   */\n  mload\n    /* \"#utility.yul\":4861:4909   */\n  tag_91\n    /* \"#utility.yul\":4903:4907   */\n  0x1f\n    /* \"#utility.yul\":4895:4901   */\n  dup10\n    /* \"#utility.yul\":4891:4908   */\n  and\n    /* \"#utility.yul\":4880:4889   */\n  dup3\n    /* \"#utility.yul\":4861:4909   */\n  tag_28\n  jump\t// in\ntag_91:\n    /* \"#utility.yul\":4853:4859   */\n  dup4\n    /* \"#utility.yul\":4846:4910   */\n  sstore\n    /* \"#utility.yul\":4768:4924   */\n  pop\n    /* \"#utility.yul\":4745:4924   */\ntag_90:\n    /* \"#utility.yul\":4970:4971   */\n  0x01\n    /* \"#utility.yul\":4966:4967   */\n  0x02\n    /* \"#utility.yul\":4958:4964   */\n  dup9\n    /* \"#utility.yul\":4954:4968   */\n  mul\n    /* \"#utility.yul\":4950:4972   */\n  add\n    /* \"#utility.yul\":4944:4948   */\n  dup9\n    /* \"#utility.yul\":4937:4973   */\n  sstore\n    /* \"#utility.yul\":4372:4983   */\n  pop\n  pop\n  pop\n    /* \"#utility.yul\":4335:5222   */\ntag_82:\n  pop\n    /* \"#utility.yul\":3925:5228   */\n  pop\n  pop\n  pop\n    /* \"#utility.yul\":3833:5228   */\n  pop\n  pop\n  jump\t// out\n    /* \"Complete Contract.sol\":263:3816  contract RealEstate is ERC20 {... */\ntag_9:\n  dataSize(sub_0)\n  dup1\n  dataOffset(sub_0)\n  0x00\n  codecopy\n  0x00\n  return\nstop\n\nsub_0: assembly {\n        /* \"Complete Contract.sol\":263:3816  contract RealEstate is ERC20 {... */\n      mstore(0x40, 0x80)\n      jumpi(tag_1, lt(calldatasize, 0x04))\n      shr(0xe0, calldataload(0x00))\n      dup1\n      0x575e6cec\n      gt\n      tag_33\n      jumpi\n      dup1\n      0xa709c4fe\n      gt\n      tag_34\n      jumpi\n      dup1\n      0xdd62ed3e\n      gt\n      tag_35\n      jumpi\n      dup1\n      0xdd62ed3e\n      eq\n      tag_29\n      jumpi\n      dup1\n      0xe01fe4c3\n      eq\n      tag_30\n      jumpi\n      dup1\n      0xf857f752\n      eq\n      tag_31\n      jumpi\n      dup1\n      0xfcf8f422\n      eq\n      tag_32\n      jumpi\n      jump(tag_1)\n    tag_35:\n      dup1\n      0xa709c4fe\n      eq\n      tag_25\n      jumpi\n      dup1\n      0xa9059cbb\n      eq\n      tag_26\n      jumpi\n      dup1\n      0xadf07791\n      eq\n      tag_27\n      jumpi\n      dup1\n      0xbeee50f7\n      eq\n      tag_28\n      jumpi\n      jump(tag_1)\n    tag_34:\n      dup1\n      0x8da5cb5b\n      gt\n      tag_36\n      jumpi\n      dup1\n      0x8da5cb5b\n      eq\n      tag_21\n      jumpi\n      dup1\n      0x95d89b41\n      eq\n      tag_22\n      jumpi\n      dup1\n      0x976f5f61\n      eq\n      tag_23\n      jumpi\n      dup1\n      0xa457c2d7\n      eq\n      tag_24\n      jumpi\n      jump(tag_1)\n    tag_36:\n      dup1\n      0x575e6cec\n      eq\n      tag_17\n      jumpi\n      dup1\n      0x6322182e\n      eq\n      tag_18\n      jumpi\n      dup1\n      0x70a08231\n      eq\n      tag_19\n      jumpi\n      dup1\n      0x88e20abb\n      eq\n      tag_20\n      jumpi\n      jump(tag_1)\n    tag_33:\n      dup1\n      0x255dbb53\n      gt\n      tag_37\n      jumpi\n      dup1\n      0x419759f5\n      gt\n      tag_38\n      jumpi\n      dup1\n      0x419759f5\n      eq\n      tag_13\n      jumpi\n      dup1\n      0x42c63dae\n      eq\n      tag_14\n      jumpi\n      dup1\n      0x44ba41db\n      eq\n      tag_15\n      jumpi\n      dup1\n      0x4b7851f7\n      eq\n      tag_16\n      jumpi\n      jump(tag_1)\n    tag_38:\n      dup1\n      0x255dbb53\n      eq\n      tag_9\n      jumpi\n      dup1\n      0x2e74a4de\n      eq\n      tag_10\n      jumpi\n      dup1\n      0x313ce567\n      eq\n      tag_11\n      jumpi\n      dup1\n      0x39509351\n      eq\n      tag_12\n      jumpi\n      jump(tag_1)\n    tag_37:\n      dup1\n      0x0df9c426\n      gt\n      tag_39\n      jumpi\n      dup1\n      0x0df9c426\n      eq\n      tag_5\n      jumpi\n      dup1\n      0x12065fe0\n      eq\n      tag_6\n      jumpi\n      dup1\n      0x18160ddd\n      eq\n      tag_7\n      jumpi\n      dup1\n      0x23b872dd\n      eq\n      tag_8\n      jumpi\n      jump(tag_1)\n    tag_39:\n      dup1\n      0x06fdde03\n      eq\n      tag_2\n      jumpi\n      dup1\n      0x089a6115\n      eq\n      tag_3\n      jumpi\n      dup1\n      0x095ea7b3\n      eq\n      tag_4\n      jumpi\n    tag_1:\n      0x00\n      dup1\n      revert\n        /* \"@openzeppelin/contracts/token/ERC20/ERC20.sol\":2158:2256  function name() public view virtual override returns (string memory) {... */\n    tag_2:\n      callvalue\n      dup1\n      iszero\n      tag_40\n      jumpi\n      0x00\n      dup1\n      revert\n    tag_40:\n      pop\n      tag_41\n      tag_42\n      jump\t// in\n    tag_41:\n      mload(0x40)\n      tag_43\n      swap2\n      swap1\n      tag_44\n      jump\t// in\n    tag_43:\n      mload(0x40)\n      dup1\n      swap2\n      sub\n      swap1\n      return\n        /* \"Complete Contract.sol\":3037:3219  function minttheTokenprice(address _property) public {... */\n    tag_3:\n      callvalue\n      dup1\n      iszero\n      tag_45\n      jumpi\n      0x00\n      dup1\n      revert\n    tag_45:\n      pop\n      tag_46\n      0x04\n      dup1\n      calldatasize\n      sub\n      dup2\n      add\n      swap1\n      tag_47\n      swap2\n      swap1\n      tag_48\n      jump\t// in\n    tag_47:\n      tag_49\n      jump\t// in\n    tag_46:\n      stop\n        /* \"@openzeppelin/contracts/token/ERC20/ERC20.sol\":4444:4641  function approve(address spender, uint256 amount) public virtual override returns (bool) {... */\n    tag_4:\n      callvalue\n      dup1\n      iszero\n      tag_50\n      jumpi\n      0x00\n      dup1\n      revert\n    tag_50:\n      pop\n      tag_51\n      0x04\n      dup1\n      calldatasize\n      sub\n      dup2\n      add\n      swap1\n      tag_52\n      swap2\n      swap1\n      tag_53\n      jump\t// in\n    tag_52:\n      tag_54\n      jump\t// in\n    tag_51:\n      mload(0x40)\n      tag_55\n      swap2\n      swap1\n      tag_56\n      jump\t// in\n    tag_55:\n      mload(0x40)\n      dup1\n      swap2\n      sub\n      swap1\n      return\n        /* \"Complete Contract.sol\":885:947  mapping(address => PropertyFinances) public PropertykiFinances */\n    tag_5:\n      callvalue\n      dup1\n      iszero\n      tag_57\n      jumpi\n      0x00\n      dup1\n      revert\n    tag_57:\n      pop\n      tag_58\n      0x04\n      dup1\n      calldatasize\n      sub\n      dup2\n      add\n      swap1\n      tag_59\n      swap2\n      swap1\n      tag_48\n      jump\t// in\n    tag_59:\n      tag_60\n      jump\t// in\n    tag_58:\n      mload(0x40)\n      tag_61\n      swap11\n      swap10\n      swap9\n      swap8\n      swap7\n      swap6\n      swap5\n      swap4\n      swap3\n      swap2\n      swap1\n      tag_62\n      jump\t// in\n    tag_61:\n      mload(0x40)\n      dup1\n      swap2\n      sub\n      swap1\n      return\n        /* \"Complete Contract.sol\":1698:1795  function getBalance() public view returns (uint256) {... */\n    tag_6:\n      callvalue\n      dup1\n      iszero\n      tag_63\n      jumpi\n      0x00\n      dup1\n      revert\n    tag_63:\n      pop\n      tag_64\n      tag_65\n      jump\t// in\n    tag_64:\n      mload(0x40)\n      tag_66\n      swap2\n      swap1\n      tag_67\n      jump\t// in\n    tag_66:\n      mload(0x40)\n      dup1\n      swap2\n      sub\n      swap1\n      return\n        /* \"@openzeppelin/contracts/token/ERC20/ERC20.sol\":3255:3361  function totalSupply() public view virtual override returns (uint256) {... */\n    tag_7:\n      callvalue\n      dup1\n      iszero\n      tag_68\n      jumpi\n      0x00\n      dup1\n      revert\n    tag_68:\n      pop\n      tag_69\n      tag_70\n      jump\t// in\n    tag_69:\n      mload(0x40)\n      tag_71\n      swap2\n      swap1\n      tag_67\n      jump\t// in\n    tag_71:\n      mload(0x40)\n      dup1\n      swap2\n      sub\n      swap1\n      return\n        /* \"@openzeppelin/contracts/token/ERC20/ERC20.sol\":5203:5459  function transferFrom(address from, address to, uint256 amount) public virtual override returns (bool) {... */\n    tag_8:\n      callvalue\n      dup1\n      iszero\n      tag_72\n      jumpi\n      0x00\n      dup1\n      revert\n    tag_72:\n      pop\n      tag_73\n      0x04\n      dup1\n      calldatasize\n      sub\n      dup2\n      add\n      swap1\n      tag_74\n      swap2\n      swap1\n      tag_75\n      jump\t// in\n    tag_74:\n      tag_76\n      jump\t// in\n    tag_73:\n      mload(0x40)\n      tag_77\n      swap2\n      swap1\n      tag_56\n      jump\t// in\n    tag_77:\n      mload(0x40)\n      dup1\n      swap2\n      sub\n      swap1\n      return\n        /* \"Complete Contract.sol\":1019:1073  mapping(address => bool) public hasPaidSecurityDeposit */\n    tag_9:\n      callvalue\n      dup1\n      iszero\n      tag_78\n      jumpi\n      0x00\n      dup1\n      revert\n    tag_78:\n      pop\n      tag_79\n      0x04\n      dup1\n      calldatasize\n      sub\n      dup2\n      add\n      swap1\n      tag_80\n      swap2\n      swap1\n      tag_48\n      jump\t// in\n    tag_80:\n      tag_81\n      jump\t// in\n    tag_79:\n      mload(0x40)\n      tag_82\n      swap2\n      swap1\n      tag_56\n      jump\t// in\n    tag_82:\n      mload(0x40)\n      dup1\n      swap2\n      sub\n      swap1\n      return\n        /* \"Complete Contract.sol\":1418:1494  function setTenant(address _tenant) public {... */\n    tag_10:\n      callvalue\n      dup1\n      iszero\n      tag_83\n      jumpi\n      0x00\n      dup1\n      revert\n    tag_83:\n      pop\n      tag_84\n      0x04\n      dup1\n      calldatasize\n      sub\n      dup2\n      add\n      swap1\n      tag_85\n      swap2\n      swap1\n      tag_48\n      jump\t// in\n    tag_85:\n      tag_86\n      jump\t// in\n    tag_84:\n      stop\n        /* \"@openzeppelin/contracts/token/ERC20/ERC20.sol\":3104:3195  function decimals() public view virtual override returns (uint8) {... */\n    tag_11:\n      callvalue\n      dup1\n      iszero\n      tag_87\n      jumpi\n      0x00\n      dup1\n      revert\n    tag_87:\n      pop\n      tag_88\n      tag_89\n      jump\t// in\n    tag_88:\n      mload(0x40)\n      tag_90\n      swap2\n      swap1\n      tag_91\n      jump\t// in\n    tag_90:\n      mload(0x40)\n      dup1\n      swap2\n      sub\n      swap1\n      return\n        /* \"@openzeppelin/contracts/token/ERC20/ERC20.sol\":5854:6088  function increaseAllowance(address spender, uint256 addedValue) public virtual returns (bool) {... */\n    tag_12:\n      callvalue\n      dup1\n      iszero\n      tag_92\n      jumpi\n      0x00\n      dup1\n      revert\n    tag_92:\n      pop\n      tag_93\n      0x04\n      dup1\n      calldatasize\n      sub\n      dup2\n      add\n      swap1\n      tag_94\n      swap2\n      swap1\n      tag_53\n      jump\t// in\n    tag_94:\n      tag_95\n      jump\t// in\n    tag_93:\n      mload(0x40)\n      tag_96\n      swap2\n      swap1\n      tag_56\n      jump\t// in\n    tag_96:\n      mload(0x40)\n      dup1\n      swap2\n      sub\n      swap1\n      return\n        /* \"Complete Contract.sol\":840:878  uint256 public depositAmount = 1 ether */\n    tag_13:\n      callvalue\n      dup1\n      iszero\n      tag_97\n      jumpi\n      0x00\n      dup1\n      revert\n    tag_97:\n      pop\n      tag_98\n      tag_99\n      jump\t// in\n    tag_98:\n      mload(0x40)\n      tag_100\n      swap2\n      swap1\n      tag_67\n      jump\t// in\n    tag_100:\n      mload(0x40)\n      dup1\n      swap2\n      sub\n      swap1\n      return\n        /* \"Complete Contract.sol\":1500:1692  function paySecurityDeposit() public payable onlyTenant {... */\n    tag_14:\n      tag_101\n      tag_102\n      jump\t// in\n    tag_101:\n      stop\n        /* \"Complete Contract.sol\":2619:2827  function DecideNetRentyear(address _property) public {... */\n    tag_15:\n      callvalue\n      dup1\n      iszero\n      tag_103\n      jumpi\n      0x00\n      dup1\n      revert\n    tag_103:\n      pop\n      tag_104\n      0x04\n      dup1\n      calldatasize\n      sub\n      dup2\n      add\n      swap1\n      tag_105\n      swap2\n      swap1\n      tag_48\n      jump\t// in\n    tag_105:\n      tag_106\n      jump\t// in\n    tag_104:\n      stop\n        /* \"Complete Contract.sol\":809:834  uint public rentcollected */\n    tag_16:\n      callvalue\n      dup1\n      iszero\n      tag_107\n      jumpi\n      0x00\n      dup1\n      revert\n    tag_107:\n      pop\n      tag_108\n      tag_109\n      jump\t// in\n    tag_108:\n      mload(0x40)\n      tag_110\n      swap2\n      swap1\n      tag_67\n      jump\t// in\n    tag_110:\n      mload(0x40)\n      dup1\n      swap2\n      sub\n      swap1\n      return\n        /* \"Complete Contract.sol\":2833:3031  function DecideNetRentmonth(address _property) public {... */\n    tag_17:\n      callvalue\n      dup1\n      iszero\n      tag_111\n      jumpi\n      0x00\n      dup1\n      revert\n    tag_111:\n      pop\n      tag_112\n      0x04\n      dup1\n      calldatasize\n      sub\n      dup2\n      add\n      swap1\n      tag_113\n      swap2\n      swap1\n      tag_48\n      jump\t// in\n    tag_113:\n      tag_114\n      jump\t// in\n    tag_112:\n      stop\n        /* \"Complete Contract.sol\":1895:2068  function withdrawRent() public payable onlyOwner {... */\n    tag_18:\n      tag_115\n      tag_116\n      jump\t// in\n    tag_115:\n      stop\n        /* \"@openzeppelin/contracts/token/ERC20/ERC20.sol\":3419:3544  function balanceOf(address account) public view virtual override returns (uint256) {... */\n    tag_19:\n      callvalue\n      dup1\n      iszero\n      tag_117\n      jumpi\n      0x00\n      dup1\n      revert\n    tag_117:\n      pop\n      tag_118\n      0x04\n      dup1\n      calldatasize\n      sub\n      dup2\n      add\n      swap1\n      tag_119\n      swap2\n      swap1\n      tag_48\n      jump\t// in\n    tag_119:\n      tag_120\n      jump\t// in\n    tag_118:\n      mload(0x40)\n      tag_121\n      swap2\n      swap1\n      tag_67\n      jump\t// in\n    tag_121:\n      mload(0x40)\n      dup1\n      swap2\n      sub\n      swap1\n      return\n        /* \"Complete Contract.sol\":2393:2613  function DecideTotalInvestment(address _property) public {... */\n    tag_20:\n      callvalue\n      dup1\n      iszero\n      tag_122\n      jumpi\n      0x00\n      dup1\n      revert\n    tag_122:\n      pop\n      tag_123\n      0x04\n      dup1\n      calldatasize\n      sub\n      dup2\n      add\n      swap1\n      tag_124\n      swap2\n      swap1\n      tag_48\n      jump\t// in\n    tag_124:\n      tag_125\n      jump\t// in\n    tag_123:\n      stop\n        /* \"Complete Contract.sol\":756:776  address public owner */\n    tag_21:\n      callvalue\n      dup1\n      iszero\n      tag_126\n      jumpi\n      0x00\n      dup1\n      revert\n    tag_126:\n      pop\n      tag_127\n      tag_128\n      jump\t// in\n    tag_127:\n      mload(0x40)\n      tag_129\n      swap2\n      swap1\n      tag_130\n      jump\t// in\n    tag_129:\n      mload(0x40)\n      dup1\n      swap2\n      sub\n      swap1\n      return\n        /* \"@openzeppelin/contracts/token/ERC20/ERC20.sol\":2369:2471  function symbol() public view virtual override returns (string memory) {... */\n    tag_22:\n      callvalue\n      dup1\n      iszero\n      tag_131\n      jumpi\n      0x00\n      dup1\n      revert\n    tag_131:\n      pop\n      tag_132\n      tag_133\n      jump\t// in\n    tag_132:\n      mload(0x40)\n      tag_134\n      swap2\n      swap1\n      tag_44\n      jump\t// in\n    tag_134:\n      mload(0x40)\n      dup1\n      swap2\n      sub\n      swap1\n      return\n        /* \"Complete Contract.sol\":2075:2387  function DecideTokenprice(address _property) public {... */\n    tag_23:\n      callvalue\n      dup1\n      iszero\n      tag_135\n      jumpi\n      0x00\n      dup1\n      revert\n    tag_135:\n      pop\n      tag_136\n      0x04\n      dup1\n      calldatasize\n      sub\n      dup2\n      add\n      swap1\n      tag_137\n      swap2\n      swap1\n      tag_48\n      jump\t// in\n    tag_137:\n      tag_138\n      jump\t// in\n    tag_136:\n      stop\n        /* \"@openzeppelin/contracts/token/ERC20/ERC20.sol\":6575:7002  function decreaseAllowance(address spender, uint256 subtractedValue) public virtual returns (bool) {... */\n    tag_24:\n      callvalue\n      dup1\n      iszero\n      tag_139\n      jumpi\n      0x00\n      dup1\n      revert\n    tag_139:\n      pop\n      tag_140\n      0x04\n      dup1\n      calldatasize\n      sub\n      dup2\n      add\n      swap1\n      tag_141\n      swap2\n      swap1\n      tag_53\n      jump\t// in\n    tag_141:\n      tag_142\n      jump\t// in\n    tag_140:\n      mload(0x40)\n      tag_143\n      swap2\n      swap1\n      tag_56\n      jump\t// in\n    tag_143:\n      mload(0x40)\n      dup1\n      swap2\n      sub\n      swap1\n      return\n        /* \"Complete Contract.sol\":1801:1889  function payRent() public payable onlyTenant {... */\n    tag_25:\n      tag_144\n      tag_145\n      jump\t// in\n    tag_144:\n      stop\n        /* \"@openzeppelin/contracts/token/ERC20/ERC20.sol\":3740:3929  function transfer(address to, uint256 amount) public virtual override returns (bool) {... */\n    tag_26:\n      callvalue\n      dup1\n      iszero\n      tag_146\n      jumpi\n      0x00\n      dup1\n      revert\n    tag_146:\n      pop\n      tag_147\n      0x04\n      dup1\n      calldatasize\n      sub\n      dup2\n      add\n      swap1\n      tag_148\n      swap2\n      swap1\n      tag_53\n      jump\t// in\n    tag_148:\n      tag_149\n      jump\t// in\n    tag_147:\n      mload(0x40)\n      tag_150\n      swap2\n      swap1\n      tag_56\n      jump\t// in\n    tag_150:\n      mload(0x40)\n      dup1\n      swap2\n      sub\n      swap1\n      return\n        /* \"Complete Contract.sol\":782:803  address public tenant */\n    tag_27:\n      callvalue\n      dup1\n      iszero\n      tag_151\n      jumpi\n      0x00\n      dup1\n      revert\n    tag_151:\n      pop\n      tag_152\n      tag_153\n      jump\t// in\n    tag_152:\n      mload(0x40)\n      tag_154\n      swap2\n      swap1\n      tag_130\n      jump\t// in\n    tag_154:\n      mload(0x40)\n      dup1\n      swap2\n      sub\n      swap1\n      return\n        /* \"Complete Contract.sol\":3423:3612  function minttheTokenRentperyear(address _property) public {... */\n    tag_28:\n      callvalue\n      dup1\n      iszero\n      tag_155\n      jumpi\n      0x00\n      dup1\n      revert\n    tag_155:\n      pop\n      tag_156\n      0x04\n      dup1\n      calldatasize\n      sub\n      dup2\n      add\n      swap1\n      tag_157\n      swap2\n      swap1\n      tag_48\n      jump\t// in\n    tag_157:\n      tag_158\n      jump\t// in\n    tag_156:\n      stop\n        /* \"@openzeppelin/contracts/token/ERC20/ERC20.sol\":3987:4136  function allowance(address owner, address spender) public view virtual override returns (uint256) {... */\n    tag_29:\n      callvalue\n      dup1\n      iszero\n      tag_159\n      jumpi\n      0x00\n      dup1\n      revert\n    tag_159:\n      pop\n      tag_160\n      0x04\n      dup1\n      calldatasize\n      sub\n      dup2\n      add\n      swap1\n      tag_161\n      swap2\n      swap1\n      tag_162\n      jump\t// in\n    tag_161:\n      tag_163\n      jump\t// in\n    tag_160:\n      mload(0x40)\n      tag_164\n      swap2\n      swap1\n      tag_67\n      jump\t// in\n    tag_164:\n      mload(0x40)\n      dup1\n      swap2\n      sub\n      swap1\n      return\n        /* \"Complete Contract.sol\":953:1013  mapping(address => PropertyDetails) public PropertykiDetails */\n    tag_30:\n      callvalue\n      dup1\n      iszero\n      tag_165\n      jumpi\n      0x00\n      dup1\n      revert\n    tag_165:\n      pop\n      tag_166\n      0x04\n      dup1\n      calldatasize\n      sub\n      dup2\n      add\n      swap1\n      tag_167\n      swap2\n      swap1\n      tag_48\n      jump\t// in\n    tag_167:\n      tag_168\n      jump\t// in\n    tag_166:\n      mload(0x40)\n      tag_169\n      swap4\n      swap3\n      swap2\n      swap1\n      tag_170\n      jump\t// in\n    tag_169:\n      mload(0x40)\n      dup1\n      swap2\n      sub\n      swap1\n      return\n        /* \"Complete Contract.sol\":3225:3417  function minttheTokenInvestment(address _property) public {... */\n    tag_31:\n      callvalue\n      dup1\n      iszero\n      tag_171\n      jumpi\n      0x00\n      dup1\n      revert\n    tag_171:\n      pop\n      tag_172\n      0x04\n      dup1\n      calldatasize\n      sub\n      dup2\n      add\n      swap1\n      tag_173\n      swap2\n      swap1\n      tag_48\n      jump\t// in\n    tag_173:\n      tag_174\n      jump\t// in\n    tag_172:\n      stop\n        /* \"Complete Contract.sol\":3618:3809  function minttheTokenRentpermonth(address _property) public {... */\n    tag_32:\n      callvalue\n      dup1\n      iszero\n      tag_175\n      jumpi\n      0x00\n      dup1\n      revert\n    tag_175:\n      pop\n      tag_176\n      0x04\n      dup1\n      calldatasize\n      sub\n      dup2\n      add\n      swap1\n      tag_177\n      swap2\n      swap1\n      tag_48\n      jump\t// in\n    tag_177:\n      tag_178\n      jump\t// in\n    tag_176:\n      stop\n        /* \"@openzeppelin/contracts/token/ERC20/ERC20.sol\":2158:2256  function name() public view virtual override returns (string memory) {... */\n    tag_42:\n        /* \"@openzeppelin/contracts/token/ERC20/ERC20.sol\":2212:2225  string memory */\n      0x60\n        /* \"@openzeppelin/contracts/token/ERC20/ERC20.sol\":2244:2249  _name */\n      0x03\n        /* \"@openzeppelin/contracts/token/ERC20/ERC20.sol\":2237:2249  return _name */\n      dup1\n      sload\n      tag_180\n      swap1\n      tag_181\n      jump\t// in\n    tag_180:\n      dup1\n      0x1f\n      add\n      0x20\n      dup1\n      swap2\n      div\n      mul\n      0x20\n      add\n      mload(0x40)\n      swap1\n      dup2\n      add\n      0x40\n      mstore\n      dup1\n      swap3\n      swap2\n      swap1\n      dup2\n      dup2\n      mstore\n      0x20\n      add\n      dup3\n      dup1\n      sload\n      tag_182\n      swap1\n      tag_181\n      jump\t// in\n    tag_182:\n      dup1\n      iszero\n      tag_183\n      jumpi\n      dup1\n      0x1f\n      lt\n      tag_184\n      jumpi\n      0x0100\n      dup1\n      dup4\n      sload\n      div\n      mul\n      dup4\n      mstore\n      swap2\n      0x20\n      add\n      swap2\n      jump(tag_183)\n    tag_184:\n      dup3\n      add\n      swap2\n      swap1\n      0x00\n      mstore\n      keccak256(0x00, 0x20)\n      swap1\n    tag_185:\n      dup2\n      sload\n      dup2\n      mstore\n      swap1\n      0x01\n      add\n      swap1\n      0x20\n      add\n      dup1\n      dup4\n      gt\n      tag_185\n      jumpi\n      dup3\n      swap1\n      sub\n      0x1f\n      and\n      dup3\n      add\n      swap2\n    tag_183:\n      pop\n      pop\n      pop\n      pop\n      pop\n      swap1\n      pop\n        /* \"@openzeppelin/contracts/token/ERC20/ERC20.sol\":2158:2256  function name() public view virtual override returns (string memory) {... */\n      swap1\n      jump\t// out\n        /* \"Complete Contract.sol\":3037:3219  function minttheTokenprice(address _property) public {... */\n    tag_49:\n        /* \"Complete Contract.sol\":3100:3133  PropertyFinances storage property */\n      0x00\n        /* \"Complete Contract.sol\":3136:3154  PropertykiFinances */\n      0x09\n        /* \"Complete Contract.sol\":3136:3165  PropertykiFinances[_property] */\n      0x00\n        /* \"Complete Contract.sol\":3155:3164  _property */\n      dup4\n        /* \"Complete Contract.sol\":3136:3165  PropertykiFinances[_property] */\n      0xffffffffffffffffffffffffffffffffffffffff\n      and\n      0xffffffffffffffffffffffffffffffffffffffff\n      and\n      dup2\n      mstore\n      0x20\n      add\n      swap1\n      dup2\n      mstore\n      0x20\n      add\n      0x00\n      keccak256\n        /* \"Complete Contract.sol\":3100:3165  PropertyFinances storage property = PropertykiFinances[_property] */\n      swap1\n      pop\n        /* \"Complete Contract.sol\":3175:3212  _mint(_property, property.Tokenprice) */\n      tag_187\n        /* \"Complete Contract.sol\":3181:3190  _property */\n      dup3\n        /* \"Complete Contract.sol\":3192:3200  property */\n      dup3\n        /* \"Complete Contract.sol\":3192:3211  property.Tokenprice */\n      0x00\n      add\n      sload\n        /* \"Complete Contract.sol\":3175:3180  _mint */\n      tag_188\n        /* \"Complete Contract.sol\":3175:3212  _mint(_property, property.Tokenprice) */\n      jump\t// in\n    tag_187:\n        /* \"Complete Contract.sol\":3090:3219  {... */\n      pop\n        /* \"Complete Contract.sol\":3037:3219  function minttheTokenprice(address _property) public {... */\n      pop\n      jump\t// out\n        /* \"@openzeppelin/contracts/token/ERC20/ERC20.sol\":4444:4641  function approve(address spender, uint256 amount) public virtual override returns (bool) {... */\n    tag_54:\n        /* \"@openzeppelin/contracts/token/ERC20/ERC20.sol\":4527:4531  bool */\n      0x00\n        /* \"@openzeppelin/contracts/token/ERC20/ERC20.sol\":4543:4556  address owner */\n      dup1\n        /* \"@openzeppelin/contracts/token/ERC20/ERC20.sol\":4559:4571  _msgSender() */\n      tag_190\n        /* \"@openzeppelin/contracts/token/ERC20/ERC20.sol\":4559:4569  _msgSender */\n      tag_191\n        /* \"@openzeppelin/contracts/token/ERC20/ERC20.sol\":4559:4571  _msgSender() */\n      jump\t// in\n    tag_190:\n        /* \"@openzeppelin/contracts/token/ERC20/ERC20.sol\":4543:4571  address owner = _msgSender() */\n      swap1\n      pop\n        /* \"@openzeppelin/contracts/token/ERC20/ERC20.sol\":4581:4613  _approve(owner, spender, amount) */\n      tag_192\n        /* \"@openzeppelin/contracts/token/ERC20/ERC20.sol\":4590:4595  owner */\n      dup2\n        /* \"@openzeppelin/contracts/token/ERC20/ERC20.sol\":4597:4604  spender */\n      dup6\n        /* \"@openzeppelin/contracts/token/ERC20/ERC20.sol\":4606:4612  amount */\n      dup6\n        /* \"@openzeppelin/contracts/token/ERC20/ERC20.sol\":4581:4589  _approve */\n      tag_193\n        /* \"@openzeppelin/contracts/token/ERC20/ERC20.sol\":4581:4613  _approve(owner, spender, amount) */\n      jump\t// in\n    tag_192:\n        /* \"@openzeppelin/contracts/token/ERC20/ERC20.sol\":4630:4634  true */\n      0x01\n        /* \"@openzeppelin/contracts/token/ERC20/ERC20.sol\":4623:4634  return true */\n      swap2\n      pop\n      pop\n        /* \"@openzeppelin/contracts/token/ERC20/ERC20.sol\":4444:4641  function approve(address spender, uint256 amount) public virtual override returns (bool) {... */\n      swap3\n      swap2\n      pop\n      pop\n      jump\t// out\n        /* \"Complete Contract.sol\":885:947  mapping(address => PropertyFinances) public PropertykiFinances */\n    tag_60:\n      mstore(0x20, 0x09)\n      dup1\n      0x00\n      mstore\n      keccak256(0x00, 0x40)\n      0x00\n      swap2\n      pop\n      swap1\n      pop\n      dup1\n      0x00\n      add\n      sload\n      swap1\n      dup1\n      0x01\n      add\n      sload\n      swap1\n      dup1\n      0x02\n      add\n      sload\n      swap1\n      dup1\n      0x03\n      add\n      sload\n      swap1\n      dup1\n      0x04\n      add\n      sload\n      swap1\n      dup1\n      0x05\n      add\n      sload\n      swap1\n      dup1\n      0x06\n      add\n      sload\n      swap1\n      dup1\n      0x07\n      add\n      sload\n      swap1\n      dup1\n      0x08\n      add\n      sload\n      swap1\n      dup1\n      0x09\n      add\n      sload\n      swap1\n      pop\n      dup11\n      jump\t// out\n        /* \"Complete Contract.sol\":1698:1795  function getBalance() public view returns (uint256) {... */\n    tag_65:\n        /* \"Complete Contract.sol\":1741:1748  uint256 */\n      0x00\n        /* \"Complete Contract.sol\":1767:1788  address(this).balance */\n      selfbalance\n        /* \"Complete Contract.sol\":1760:1788  return address(this).balance */\n      swap1\n      pop\n        /* \"Complete Contract.sol\":1698:1795  function getBalance() public view returns (uint256) {... */\n      swap1\n      jump\t// out\n        /* \"@openzeppelin/contracts/token/ERC20/ERC20.sol\":3255:3361  function totalSupply() public view virtual override returns (uint256) {... */\n    tag_70:\n        /* \"@openzeppelin/contracts/token/ERC20/ERC20.sol\":3316:3323  uint256 */\n      0x00\n        /* \"@openzeppelin/contracts/token/ERC20/ERC20.sol\":3342:3354  _totalSupply */\n      sload(0x02)\n        /* \"@openzeppelin/contracts/token/ERC20/ERC20.sol\":3335:3354  return _totalSupply */\n      swap1\n      pop\n        /* \"@openzeppelin/contracts/token/ERC20/ERC20.sol\":3255:3361  function totalSupply() public view virtual override returns (uint256) {... */\n      swap1\n      jump\t// out\n        /* \"@openzeppelin/contracts/token/ERC20/ERC20.sol\":5203:5459  function transferFrom(address from, address to, uint256 amount) public virtual override returns (bool) {... */\n    tag_76:\n        /* \"@openzeppelin/contracts/token/ERC20/ERC20.sol\":5300:5304  bool */\n      0x00\n        /* \"@openzeppelin/contracts/token/ERC20/ERC20.sol\":5316:5331  address spender */\n      dup1\n        /* \"@openzeppelin/contracts/token/ERC20/ERC20.sol\":5334:5346  _msgSender() */\n      tag_197\n        /* \"@openzeppelin/contracts/token/ERC20/ERC20.sol\":5334:5344  _msgSender */\n      tag_191\n        /* \"@openzeppelin/contracts/token/ERC20/ERC20.sol\":5334:5346  _msgSender() */\n      jump\t// in\n    tag_197:\n        /* \"@openzeppelin/contracts/token/ERC20/ERC20.sol\":5316:5346  address spender = _msgSender() */\n      swap1\n      pop\n        /* \"@openzeppelin/contracts/token/ERC20/ERC20.sol\":5356:5394  _spendAllowance(from, spender, amount) */\n      tag_198\n        /* \"@openzeppelin/contracts/token/ERC20/ERC20.sol\":5372:5376  from */\n      dup6\n        /* \"@openzeppelin/contracts/token/ERC20/ERC20.sol\":5378:5385  spender */\n      dup3\n        /* \"@openzeppelin/contracts/token/ERC20/ERC20.sol\":5387:5393  amount */\n      dup6\n        /* \"@openzeppelin/contracts/token/ERC20/ERC20.sol\":5356:5371  _spendAllowance */\n      tag_199\n        /* \"@openzeppelin/contracts/token/ERC20/ERC20.sol\":5356:5394  _spendAllowance(from, spender, amount) */\n      jump\t// in\n    tag_198:\n        /* \"@openzeppelin/contracts/token/ERC20/ERC20.sol\":5404:5431  _transfer(from, to, amount) */\n      tag_200\n        /* \"@openzeppelin/contracts/token/ERC20/ERC20.sol\":5414:5418  from */\n      dup6\n        /* \"@openzeppelin/contracts/token/ERC20/ERC20.sol\":5420:5422  to */\n      dup6\n        /* \"@openzeppelin/contracts/token/ERC20/ERC20.sol\":5424:5430  amount */\n      dup6\n        /* \"@openzeppelin/contracts/token/ERC20/ERC20.sol\":5404:5413  _transfer */\n      tag_201\n        /* \"@openzeppelin/contracts/token/ERC20/ERC20.sol\":5404:5431  _transfer(from, to, amount) */\n      jump\t// in\n    tag_200:\n        /* \"@openzeppelin/contracts/token/ERC20/ERC20.sol\":5448:5452  true */\n      0x01\n        /* \"@openzeppelin/contracts/token/ERC20/ERC20.sol\":5441:5452  return true */\n      swap2\n      pop\n      pop\n        /* \"@openzeppelin/contracts/token/ERC20/ERC20.sol\":5203:5459  function transferFrom(address from, address to, uint256 amount) public virtual override returns (bool) {... */\n      swap4\n      swap3\n      pop\n      pop\n      pop\n      jump\t// out\n        /* \"Complete Contract.sol\":1019:1073  mapping(address => bool) public hasPaidSecurityDeposit */\n    tag_81:\n      mstore(0x20, 0x0b)\n      dup1\n      0x00\n      mstore\n      keccak256(0x00, 0x40)\n      0x00\n      swap2\n      pop\n      sload\n      swap1\n      0x0100\n      exp\n      swap1\n      div\n      0xff\n      and\n      dup2\n      jump\t// out\n        /* \"Complete Contract.sol\":1418:1494  function setTenant(address _tenant) public {... */\n    tag_86:\n        /* \"Complete Contract.sol\":1480:1487  _tenant */\n      dup1\n        /* \"Complete Contract.sol\":1471:1477  tenant */\n      0x06\n      0x00\n        /* \"Complete Contract.sol\":1471:1487  tenant = _tenant */\n      0x0100\n      exp\n      dup2\n      sload\n      dup2\n      0xffffffffffffffffffffffffffffffffffffffff\n      mul\n      not\n      and\n      swap1\n      dup4\n      0xffffffffffffffffffffffffffffffffffffffff\n      and\n      mul\n      or\n      swap1\n      sstore\n      pop\n        /* \"Complete Contract.sol\":1418:1494  function setTenant(address _tenant) public {... */\n      pop\n      jump\t// out\n        /* \"@openzeppelin/contracts/token/ERC20/ERC20.sol\":3104:3195  function decimals() public view virtual override returns (uint8) {... */\n    tag_89:\n        /* \"@openzeppelin/contracts/token/ERC20/ERC20.sol\":3162:3167  uint8 */\n      0x00\n        /* \"@openzeppelin/contracts/token/ERC20/ERC20.sol\":3186:3188  18 */\n      0x12\n        /* \"@openzeppelin/contracts/token/ERC20/ERC20.sol\":3179:3188  return 18 */\n      swap1\n      pop\n        /* \"@openzeppelin/contracts/token/ERC20/ERC20.sol\":3104:3195  function decimals() public view virtual override returns (uint8) {... */\n      swap1\n      jump\t// out\n        /* \"@openzeppelin/contracts/token/ERC20/ERC20.sol\":5854:6088  function increaseAllowance(address spender, uint256 addedValue) public virtual returns (bool) {... */\n    tag_95:\n        /* \"@openzeppelin/contracts/token/ERC20/ERC20.sol\":5942:5946  bool */\n      0x00\n        /* \"@openzeppelin/contracts/token/ERC20/ERC20.sol\":5958:5971  address owner */\n      dup1\n        /* \"@openzeppelin/contracts/token/ERC20/ERC20.sol\":5974:5986  _msgSender() */\n      tag_205\n        /* \"@openzeppelin/contracts/token/ERC20/ERC20.sol\":5974:5984  _msgSender */\n      tag_191\n        /* \"@openzeppelin/contracts/token/ERC20/ERC20.sol\":5974:5986  _msgSender() */\n      jump\t// in\n    tag_205:\n        /* \"@openzeppelin/contracts/token/ERC20/ERC20.sol\":5958:5986  address owner = _msgSender() */\n      swap1\n      pop\n        /* \"@openzeppelin/contracts/token/ERC20/ERC20.sol\":5996:6060  _approve(owner, spender, allowance(owner, spender) + addedValue) */\n      tag_206\n        /* \"@openzeppelin/contracts/token/ERC20/ERC20.sol\":6005:6010  owner */\n      dup2\n        /* \"@openzeppelin/contracts/token/ERC20/ERC20.sol\":6012:6019  spender */\n      dup6\n        /* \"@openzeppelin/contracts/token/ERC20/ERC20.sol\":6049:6059  addedValue */\n      dup6\n        /* \"@openzeppelin/contracts/token/ERC20/ERC20.sol\":6021:6046  allowance(owner, spender) */\n      tag_207\n        /* \"@openzeppelin/contracts/token/ERC20/ERC20.sol\":6031:6036  owner */\n      dup6\n        /* \"@openzeppelin/contracts/token/ERC20/ERC20.sol\":6038:6045  spender */\n      dup10\n        /* \"@openzeppelin/contracts/token/ERC20/ERC20.sol\":6021:6030  allowance */\n      tag_163\n        /* \"@openzeppelin/contracts/token/ERC20/ERC20.sol\":6021:6046  allowance(owner, spender) */\n      jump\t// in\n    tag_207:\n        /* \"@openzeppelin/contracts/token/ERC20/ERC20.sol\":6021:6059  allowance(owner, spender) + addedValue */\n      tag_208\n      swap2\n      swap1\n      tag_209\n      jump\t// in\n    tag_208:\n        /* \"@openzeppelin/contracts/token/ERC20/ERC20.sol\":5996:6004  _approve */\n      tag_193\n        /* \"@openzeppelin/contracts/token/ERC20/ERC20.sol\":5996:6060  _approve(owner, spender, allowance(owner, spender) + addedValue) */\n      jump\t// in\n    tag_206:\n        /* \"@openzeppelin/contracts/token/ERC20/ERC20.sol\":6077:6081  true */\n      0x01\n        /* \"@openzeppelin/contracts/token/ERC20/ERC20.sol\":6070:6081  return true */\n      swap2\n      pop\n      pop\n        /* \"@openzeppelin/contracts/token/ERC20/ERC20.sol\":5854:6088  function increaseAllowance(address spender, uint256 addedValue) public virtual returns (bool) {... */\n      swap3\n      swap2\n      pop\n      pop\n      jump\t// out\n        /* \"Complete Contract.sol\":840:878  uint256 public depositAmount = 1 ether */\n    tag_99:\n      sload(0x08)\n      dup2\n      jump\t// out\n        /* \"Complete Contract.sol\":1500:1692  function paySecurityDeposit() public payable onlyTenant {... */\n    tag_102:\n        /* \"Complete Contract.sol\":1345:1351  tenant */\n      0x06\n      0x00\n      swap1\n      sload\n      swap1\n      0x0100\n      exp\n      swap1\n      div\n      0xffffffffffffffffffffffffffffffffffffffff\n      and\n        /* \"Complete Contract.sol\":1331:1351  msg.sender == tenant */\n      0xffffffffffffffffffffffffffffffffffffffff\n      and\n        /* \"Complete Contract.sol\":1331:1341  msg.sender */\n      caller\n        /* \"Complete Contract.sol\":1331:1351  msg.sender == tenant */\n      0xffffffffffffffffffffffffffffffffffffffff\n      and\n      eq\n        /* \"Complete Contract.sol\":1323:1394  require(msg.sender == tenant, \"Only the tenant can call this function\") */\n      tag_211\n      jumpi\n      mload(0x40)\n      0x08c379a000000000000000000000000000000000000000000000000000000000\n      dup2\n      mstore\n      0x04\n      add\n      tag_212\n      swap1\n      tag_213\n      jump\t// in\n    tag_212:\n      mload(0x40)\n      dup1\n      swap2\n      sub\n      swap1\n      revert\n    tag_211:\n        /* \"Complete Contract.sol\":1587:1600  depositAmount */\n      sload(0x08)\n        /* \"Complete Contract.sol\":1574:1583  msg.value */\n      callvalue\n        /* \"Complete Contract.sol\":1574:1600  msg.value == depositAmount */\n      eq\n        /* \"Complete Contract.sol\":1566:1634  require(msg.value == depositAmount, \"Deposit amount does not match\") */\n      tag_215\n      jumpi\n      mload(0x40)\n      0x08c379a000000000000000000000000000000000000000000000000000000000\n      dup2\n      mstore\n      0x04\n      add\n      tag_216\n      swap1\n      tag_217\n      jump\t// in\n    tag_216:\n      mload(0x40)\n      dup1\n      swap2\n      sub\n      swap1\n      revert\n    tag_215:\n        /* \"Complete Contract.sol\":1681:1685  true */\n      0x01\n        /* \"Complete Contract.sol\":1644:1666  hasPaidSecurityDeposit */\n      0x0b\n        /* \"Complete Contract.sol\":1644:1678  hasPaidSecurityDeposit[msg.sender] */\n      0x00\n        /* \"Complete Contract.sol\":1667:1677  msg.sender */\n      caller\n        /* \"Complete Contract.sol\":1644:1678  hasPaidSecurityDeposit[msg.sender] */\n      0xffffffffffffffffffffffffffffffffffffffff\n      and\n      0xffffffffffffffffffffffffffffffffffffffff\n      and\n      dup2\n      mstore\n      0x20\n      add\n      swap1\n      dup2\n      mstore\n      0x20\n      add\n      0x00\n      keccak256\n      0x00\n        /* \"Complete Contract.sol\":1644:1685  hasPaidSecurityDeposit[msg.sender] = true */\n      0x0100\n      exp\n      dup2\n      sload\n      dup2\n      0xff\n      mul\n      not\n      and\n      swap1\n      dup4\n      iszero\n      iszero\n      mul\n      or\n      swap1\n      sstore\n      pop\n        /* \"Complete Contract.sol\":1500:1692  function paySecurityDeposit() public payable onlyTenant {... */\n      jump\t// out\n        /* \"Complete Contract.sol\":2619:2827  function DecideNetRentyear(address _property) public {... */\n    tag_106:\n        /* \"Complete Contract.sol\":2682:2715  PropertyFinances storage property */\n      0x00\n        /* \"Complete Contract.sol\":2718:2736  PropertykiFinances */\n      0x09\n        /* \"Complete Contract.sol\":2718:2747  PropertykiFinances[_property] */\n      0x00\n        /* \"Complete Contract.sol\":2737:2746  _property */\n      dup4\n        /* \"Complete Contract.sol\":2718:2747  PropertykiFinances[_property] */\n      0xffffffffffffffffffffffffffffffffffffffff\n      and\n      0xffffffffffffffffffffffffffffffffffffffff\n      and\n      dup2\n      mstore\n      0x20\n      add\n      swap1\n      dup2\n      mstore\n      0x20\n      add\n      0x00\n      keccak256\n        /* \"Complete Contract.sol\":2682:2747  PropertyFinances storage property = PropertykiFinances[_property] */\n      swap1\n      pop\n        /* \"Complete Contract.sol\":2780:2820  property.TotalInvestment.mul(8).div(100) */\n      tag_219\n        /* \"Complete Contract.sol\":2816:2819  100 */\n      0x64\n        /* \"Complete Contract.sol\":2780:2811  property.TotalInvestment.mul(8) */\n      tag_220\n        /* \"Complete Contract.sol\":2809:2810  8 */\n      0x08\n        /* \"Complete Contract.sol\":2780:2788  property */\n      dup5\n        /* \"Complete Contract.sol\":2780:2804  property.TotalInvestment */\n      0x05\n      add\n      sload\n        /* \"Complete Contract.sol\":2780:2808  property.TotalInvestment.mul */\n      tag_221\n      swap1\n        /* \"Complete Contract.sol\":2780:2811  property.TotalInvestment.mul(8) */\n      swap2\n      swap1\n      0xffffffff\n      and\n      jump\t// in\n    tag_220:\n        /* \"Complete Contract.sol\":2780:2815  property.TotalInvestment.mul(8).div */\n      tag_222\n      swap1\n        /* \"Complete Contract.sol\":2780:2820  property.TotalInvestment.mul(8).div(100) */\n      swap2\n      swap1\n      0xffffffff\n      and\n      jump\t// in\n    tag_219:\n        /* \"Complete Contract.sol\":2757:2765  property */\n      dup2\n        /* \"Complete Contract.sol\":2757:2777  property.NetRentyear */\n      0x03\n      add\n        /* \"Complete Contract.sol\":2757:2820  property.NetRentyear = property.TotalInvestment.mul(8).div(100) */\n      dup2\n      swap1\n      sstore\n      pop\n        /* \"Complete Contract.sol\":2672:2827  {... */\n      pop\n        /* \"Complete Contract.sol\":2619:2827  function DecideNetRentyear(address _property) public {... */\n      pop\n      jump\t// out\n        /* \"Complete Contract.sol\":809:834  uint public rentcollected */\n    tag_109:\n      sload(0x07)\n      dup2\n      jump\t// out\n        /* \"Complete Contract.sol\":2833:3031  function DecideNetRentmonth(address _property) public {... */\n    tag_114:\n        /* \"Complete Contract.sol\":2897:2930  PropertyFinances storage property */\n      0x00\n        /* \"Complete Contract.sol\":2933:2951  PropertykiFinances */\n      0x09\n        /* \"Complete Contract.sol\":2933:2962  PropertykiFinances[_property] */\n      0x00\n        /* \"Complete Contract.sol\":2952:2961  _property */\n      dup4\n        /* \"Complete Contract.sol\":2933:2962  PropertykiFinances[_property] */\n      0xffffffffffffffffffffffffffffffffffffffff\n      and\n      0xffffffffffffffffffffffffffffffffffffffff\n      and\n      dup2\n      mstore\n      0x20\n      add\n      swap1\n      dup2\n      mstore\n      0x20\n      add\n      0x00\n      keccak256\n        /* \"Complete Contract.sol\":2897:2962  PropertyFinances storage property = PropertykiFinances[_property] */\n      swap1\n      pop\n        /* \"Complete Contract.sol\":2996:3024  property.NetRentyear.div(12) */\n      tag_224\n        /* \"Complete Contract.sol\":3021:3023  12 */\n      0x0c\n        /* \"Complete Contract.sol\":2996:3004  property */\n      dup3\n        /* \"Complete Contract.sol\":2996:3016  property.NetRentyear */\n      0x03\n      add\n      sload\n        /* \"Complete Contract.sol\":2996:3020  property.NetRentyear.div */\n      tag_222\n      swap1\n        /* \"Complete Contract.sol\":2996:3024  property.NetRentyear.div(12) */\n      swap2\n      swap1\n      0xffffffff\n      and\n      jump\t// in\n    tag_224:\n        /* \"Complete Contract.sol\":2972:2980  property */\n      dup2\n        /* \"Complete Contract.sol\":2972:2993  property.NetRentmonth */\n      0x04\n      add\n        /* \"Complete Contract.sol\":2972:3024  property.NetRentmonth = property.NetRentyear.div(12) */\n      dup2\n      swap1\n      sstore\n      pop\n        /* \"Complete Contract.sol\":2887:3031  {... */\n      pop\n        /* \"Complete Contract.sol\":2833:3031  function DecideNetRentmonth(address _property) public {... */\n      pop\n      jump\t// out\n        /* \"Complete Contract.sol\":1895:2068  function withdrawRent() public payable onlyOwner {... */\n    tag_116:\n        /* \"Complete Contract.sol\":1220:1225  owner */\n      0x05\n      0x00\n      swap1\n      sload\n      swap1\n      0x0100\n      exp\n      swap1\n      div\n      0xffffffffffffffffffffffffffffffffffffffff\n      and\n        /* \"Complete Contract.sol\":1206:1225  msg.sender == owner */\n      0xffffffffffffffffffffffffffffffffffffffff\n      and\n        /* \"Complete Contract.sol\":1206:1216  msg.sender */\n      caller\n        /* \"Complete Contract.sol\":1206:1225  msg.sender == owner */\n      0xffffffffffffffffffffffffffffffffffffffff\n      and\n      eq\n        /* \"Complete Contract.sol\":1198:1267  require(msg.sender == owner, \"Only the owner can call this function\") */\n      tag_226\n      jumpi\n      mload(0x40)\n      0x08c379a000000000000000000000000000000000000000000000000000000000\n      dup2\n      mstore\n      0x04\n      add\n      tag_227\n      swap1\n      tag_228\n      jump\t// in\n    tag_227:\n      mload(0x40)\n      dup1\n      swap2\n      sub\n      swap1\n      revert\n    tag_226:\n        /* \"Complete Contract.sol\":1978:1979  0 */\n      0x00\n        /* \"Complete Contract.sol\":1962:1975  rentcollected */\n      sload(0x07)\n        /* \"Complete Contract.sol\":1962:1979  rentcollected > 0 */\n      gt\n        /* \"Complete Contract.sol\":1954:2013  require(rentcollected > 0, \"No rent available to withdraw\") */\n      tag_230\n      jumpi\n      mload(0x40)\n      0x08c379a000000000000000000000000000000000000000000000000000000000\n      dup2\n      mstore\n      0x04\n      add\n      tag_231\n      swap1\n      tag_232\n      jump\t// in\n    tag_231:\n      mload(0x40)\n      dup1\n      swap2\n      sub\n      swap1\n      revert\n    tag_230:\n        /* \"Complete Contract.sol\":2031:2036  owner */\n      0x05\n      0x00\n      swap1\n      sload\n      swap1\n      0x0100\n      exp\n      swap1\n      div\n      0xffffffffffffffffffffffffffffffffffffffff\n      and\n        /* \"Complete Contract.sol\":2023:2046  payable(owner).transfer */\n      0xffffffffffffffffffffffffffffffffffffffff\n      and\n        /* \"Complete Contract.sol\":2023:2061  payable(owner).transfer(rentcollected) */\n      0x08fc\n        /* \"Complete Contract.sol\":2047:2060  rentcollected */\n      sload(0x07)\n        /* \"Complete Contract.sol\":2023:2061  payable(owner).transfer(rentcollected) */\n      swap1\n      dup2\n      iszero\n      mul\n      swap1\n      mload(0x40)\n      0x00\n      mload(0x40)\n      dup1\n      dup4\n      sub\n      dup2\n      dup6\n      dup9\n      dup9\n      call\n      swap4\n      pop\n      pop\n      pop\n      pop\n      iszero\n      dup1\n      iszero\n      tag_234\n      jumpi\n      returndatasize\n      0x00\n      dup1\n      returndatacopy\n      revert(0x00, returndatasize)\n    tag_234:\n      pop\n        /* \"Complete Contract.sol\":1895:2068  function withdrawRent() public payable onlyOwner {... */\n      jump\t// out\n        /* \"@openzeppelin/contracts/token/ERC20/ERC20.sol\":3419:3544  function balanceOf(address account) public view virtual override returns (uint256) {... */\n    tag_120:\n        /* \"@openzeppelin/contracts/token/ERC20/ERC20.sol\":3493:3500  uint256 */\n      0x00\n        /* \"@openzeppelin/contracts/token/ERC20/ERC20.sol\":3519:3528  _balances */\n      dup1\n        /* \"@openzeppelin/contracts/token/ERC20/ERC20.sol\":3519:3537  _balances[account] */\n      0x00\n        /* \"@openzeppelin/contracts/token/ERC20/ERC20.sol\":3529:3536  account */\n      dup4\n        /* \"@openzeppelin/contracts/token/ERC20/ERC20.sol\":3519:3537  _balances[account] */\n      0xffffffffffffffffffffffffffffffffffffffff\n      and\n      0xffffffffffffffffffffffffffffffffffffffff\n      and\n      dup2\n      mstore\n      0x20\n      add\n      swap1\n      dup2\n      mstore\n      0x20\n      add\n      0x00\n      keccak256\n      sload\n        /* \"@openzeppelin/contracts/token/ERC20/ERC20.sol\":3512:3537  return _balances[account] */\n      swap1\n      pop\n        /* \"@openzeppelin/contracts/token/ERC20/ERC20.sol\":3419:3544  function balanceOf(address account) public view virtual override returns (uint256) {... */\n      swap2\n      swap1\n      pop\n      jump\t// out\n        /* \"Complete Contract.sol\":2393:2613  function DecideTotalInvestment(address _property) public {... */\n    tag_125:\n        /* \"Complete Contract.sol\":2460:2493  PropertyFinances storage property */\n      0x00\n        /* \"Complete Contract.sol\":2496:2514  PropertykiFinances */\n      0x09\n        /* \"Complete Contract.sol\":2496:2525  PropertykiFinances[_property] */\n      0x00\n        /* \"Complete Contract.sol\":2515:2524  _property */\n      dup4\n        /* \"Complete Contract.sol\":2496:2525  PropertykiFinances[_property] */\n      0xffffffffffffffffffffffffffffffffffffffff\n      and\n      0xffffffffffffffffffffffffffffffffffffffff\n      and\n      dup2\n      mstore\n      0x20\n      add\n      swap1\n      dup2\n      mstore\n      0x20\n      add\n      0x00\n      keccak256\n        /* \"Complete Contract.sol\":2460:2525  PropertyFinances storage property = PropertykiFinances[_property] */\n      swap1\n      pop\n        /* \"Complete Contract.sol\":2584:2592  property */\n      dup1\n        /* \"Complete Contract.sol\":2584:2606  property.TokensNumbers */\n      0x01\n      add\n      sload\n        /* \"Complete Contract.sol\":2562:2570  property */\n      dup2\n        /* \"Complete Contract.sol\":2562:2581  property.Tokenprice */\n      0x00\n      add\n      sload\n        /* \"Complete Contract.sol\":2562:2606  property.Tokenprice * property.TokensNumbers */\n      tag_237\n      swap2\n      swap1\n      tag_238\n      jump\t// in\n    tag_237:\n        /* \"Complete Contract.sol\":2535:2543  property */\n      dup2\n        /* \"Complete Contract.sol\":2535:2559  property.TotalInvestment */\n      0x05\n      add\n        /* \"Complete Contract.sol\":2535:2606  property.TotalInvestment = property.Tokenprice * property.TokensNumbers */\n      dup2\n      swap1\n      sstore\n      pop\n        /* \"Complete Contract.sol\":2450:2613  {... */\n      pop\n        /* \"Complete Contract.sol\":2393:2613  function DecideTotalInvestment(address _property) public {... */\n      pop\n      jump\t// out\n        /* \"Complete Contract.sol\":756:776  address public owner */\n    tag_128:\n      0x05\n      0x00\n      swap1\n      sload\n      swap1\n      0x0100\n      exp\n      swap1\n      div\n      0xffffffffffffffffffffffffffffffffffffffff\n      and\n      dup2\n      jump\t// out\n        /* \"@openzeppelin/contracts/token/ERC20/ERC20.sol\":2369:2471  function symbol() public view virtual override returns (string memory) {... */\n    tag_133:\n        /* \"@openzeppelin/contracts/token/ERC20/ERC20.sol\":2425:2438  string memory */\n      0x60\n        /* \"@openzeppelin/contracts/token/ERC20/ERC20.sol\":2457:2464  _symbol */\n      0x04\n        /* \"@openzeppelin/contracts/token/ERC20/ERC20.sol\":2450:2464  return _symbol */\n      dup1\n      sload\n      tag_240\n      swap1\n      tag_181\n      jump\t// in\n    tag_240:\n      dup1\n      0x1f\n      add\n      0x20\n      dup1\n      swap2\n      div\n      mul\n      0x20\n      add\n      mload(0x40)\n      swap1\n      dup2\n      add\n      0x40\n      mstore\n      dup1\n      swap3\n      swap2\n      swap1\n      dup2\n      dup2\n      mstore\n      0x20\n      add\n      dup3\n      dup1\n      sload\n      tag_241\n      swap1\n      tag_181\n      jump\t// in\n    tag_241:\n      dup1\n      iszero\n      tag_242\n      jumpi\n      dup1\n      0x1f\n      lt\n      tag_243\n      jumpi\n      0x0100\n      dup1\n      dup4\n      sload\n      div\n      mul\n      dup4\n      mstore\n      swap2\n      0x20\n      add\n      swap2\n      jump(tag_242)\n    tag_243:\n      dup3\n      add\n      swap2\n      swap1\n      0x00\n      mstore\n      keccak256(0x00, 0x20)\n      swap1\n    tag_244:\n      dup2\n      sload\n      dup2\n      mstore\n      swap1\n      0x01\n      add\n      swap1\n      0x20\n      add\n      dup1\n      dup4\n      gt\n      tag_244\n      jumpi\n      dup3\n      swap1\n      sub\n      0x1f\n      and\n      dup3\n      add\n      swap2\n    tag_242:\n      pop\n      pop\n      pop\n      pop\n      pop\n      swap1\n      pop\n        /* \"@openzeppelin/contracts/token/ERC20/ERC20.sol\":2369:2471  function symbol() public view virtual override returns (string memory) {... */\n      swap1\n      jump\t// out\n        /* \"Complete Contract.sol\":2075:2387  function DecideTokenprice(address _property) public {... */\n    tag_138:\n        /* \"Complete Contract.sol\":2137:2170  PropertyFinances storage property */\n      0x00\n        /* \"Complete Contract.sol\":2173:2191  PropertykiFinances */\n      0x09\n        /* \"Complete Contract.sol\":2173:2202  PropertykiFinances[_property] */\n      0x00\n        /* \"Complete Contract.sol\":2192:2201  _property */\n      dup4\n        /* \"Complete Contract.sol\":2173:2202  PropertykiFinances[_property] */\n      0xffffffffffffffffffffffffffffffffffffffff\n      and\n      0xffffffffffffffffffffffffffffffffffffffff\n      and\n      dup2\n      mstore\n      0x20\n      add\n      swap1\n      dup2\n      mstore\n      0x20\n      add\n      0x00\n      keccak256\n        /* \"Complete Contract.sol\":2137:2202  PropertyFinances storage property = PropertykiFinances[_property] */\n      swap1\n      pop\n        /* \"Complete Contract.sol\":2234:2380  property... */\n      tag_246\n        /* \"Complete Contract.sol\":2358:2366  property */\n      dup2\n        /* \"Complete Contract.sol\":2358:2379  property.Interiorsize */\n      0x06\n      add\n      sload\n        /* \"Complete Contract.sol\":2234:2340  property... */\n      tag_247\n        /* \"Complete Contract.sol\":2317:2325  property */\n      dup4\n        /* \"Complete Contract.sol\":2317:2339  property.LotSizeinsqft */\n      0x09\n      add\n      sload\n        /* \"Complete Contract.sol\":2234:2299  property... */\n      tag_248\n        /* \"Complete Contract.sol\":2281:2289  property */\n      dup6\n        /* \"Complete Contract.sol\":2281:2298  property.Bathroom */\n      0x08\n      add\n      sload\n        /* \"Complete Contract.sol\":2234:2242  property */\n      dup7\n        /* \"Complete Contract.sol\":2234:2263  property... */\n      0x07\n      add\n      sload\n        /* \"Complete Contract.sol\":2234:2280  property... */\n      tag_249\n      swap1\n        /* \"Complete Contract.sol\":2234:2299  property... */\n      swap2\n      swap1\n      0xffffffff\n      and\n      jump\t// in\n    tag_248:\n        /* \"Complete Contract.sol\":2234:2316  property... */\n      tag_249\n      swap1\n        /* \"Complete Contract.sol\":2234:2340  property... */\n      swap2\n      swap1\n      0xffffffff\n      and\n      jump\t// in\n    tag_247:\n        /* \"Complete Contract.sol\":2234:2357  property... */\n      tag_249\n      swap1\n        /* \"Complete Contract.sol\":2234:2380  property... */\n      swap2\n      swap1\n      0xffffffff\n      and\n      jump\t// in\n    tag_246:\n        /* \"Complete Contract.sol\":2212:2220  property */\n      dup2\n        /* \"Complete Contract.sol\":2212:2231  property.Tokenprice */\n      0x00\n      add\n        /* \"Complete Contract.sol\":2212:2380  property.Tokenprice = property... */\n      dup2\n      swap1\n      sstore\n      pop\n        /* \"Complete Contract.sol\":2127:2387  {... */\n      pop\n        /* \"Complete Contract.sol\":2075:2387  function DecideTokenprice(address _property) public {... */\n      pop\n      jump\t// out\n        /* \"@openzeppelin/contracts/token/ERC20/ERC20.sol\":6575:7002  function decreaseAllowance(address spender, uint256 subtractedValue) public virtual returns (bool) {... */\n    tag_142:\n        /* \"@openzeppelin/contracts/token/ERC20/ERC20.sol\":6668:6672  bool */\n      0x00\n        /* \"@openzeppelin/contracts/token/ERC20/ERC20.sol\":6684:6697  address owner */\n      dup1\n        /* \"@openzeppelin/contracts/token/ERC20/ERC20.sol\":6700:6712  _msgSender() */\n      tag_251\n        /* \"@openzeppelin/contracts/token/ERC20/ERC20.sol\":6700:6710  _msgSender */\n      tag_191\n        /* \"@openzeppelin/contracts/token/ERC20/ERC20.sol\":6700:6712  _msgSender() */\n      jump\t// in\n    tag_251:\n        /* \"@openzeppelin/contracts/token/ERC20/ERC20.sol\":6684:6712  address owner = _msgSender() */\n      swap1\n      pop\n        /* \"@openzeppelin/contracts/token/ERC20/ERC20.sol\":6722:6746  uint256 currentAllowance */\n      0x00\n        /* \"@openzeppelin/contracts/token/ERC20/ERC20.sol\":6749:6774  allowance(owner, spender) */\n      tag_252\n        /* \"@openzeppelin/contracts/token/ERC20/ERC20.sol\":6759:6764  owner */\n      dup3\n        /* \"@openzeppelin/contracts/token/ERC20/ERC20.sol\":6766:6773  spender */\n      dup7\n        /* \"@openzeppelin/contracts/token/ERC20/ERC20.sol\":6749:6758  allowance */\n      tag_163\n        /* \"@openzeppelin/contracts/token/ERC20/ERC20.sol\":6749:6774  allowance(owner, spender) */\n      jump\t// in\n    tag_252:\n        /* \"@openzeppelin/contracts/token/ERC20/ERC20.sol\":6722:6774  uint256 currentAllowance = allowance(owner, spender) */\n      swap1\n      pop\n        /* \"@openzeppelin/contracts/token/ERC20/ERC20.sol\":6812:6827  subtractedValue */\n      dup4\n        /* \"@openzeppelin/contracts/token/ERC20/ERC20.sol\":6792:6808  currentAllowance */\n      dup2\n        /* \"@openzeppelin/contracts/token/ERC20/ERC20.sol\":6792:6827  currentAllowance >= subtractedValue */\n      lt\n      iszero\n        /* \"@openzeppelin/contracts/token/ERC20/ERC20.sol\":6784:6869  require(currentAllowance >= subtractedValue, \"ERC20: decreased allowance below zero\") */\n      tag_253\n      jumpi\n      mload(0x40)\n      0x08c379a000000000000000000000000000000000000000000000000000000000\n      dup2\n      mstore\n      0x04\n      add\n      tag_254\n      swap1\n      tag_255\n      jump\t// in\n    tag_254:\n      mload(0x40)\n      dup1\n      swap2\n      sub\n      swap1\n      revert\n    tag_253:\n        /* \"@openzeppelin/contracts/token/ERC20/ERC20.sol\":6903:6963  _approve(owner, spender, currentAllowance - subtractedValue) */\n      tag_256\n        /* \"@openzeppelin/contracts/token/ERC20/ERC20.sol\":6912:6917  owner */\n      dup3\n        /* \"@openzeppelin/contracts/token/ERC20/ERC20.sol\":6919:6926  spender */\n      dup7\n        /* \"@openzeppelin/contracts/token/ERC20/ERC20.sol\":6947:6962  subtractedValue */\n      dup7\n        /* \"@openzeppelin/contracts/token/ERC20/ERC20.sol\":6928:6944  currentAllowance */\n      dup5\n        /* \"@openzeppelin/contracts/token/ERC20/ERC20.sol\":6928:6962  currentAllowance - subtractedValue */\n      sub\n        /* \"@openzeppelin/contracts/token/ERC20/ERC20.sol\":6903:6911  _approve */\n      tag_193\n        /* \"@openzeppelin/contracts/token/ERC20/ERC20.sol\":6903:6963  _approve(owner, spender, currentAllowance - subtractedValue) */\n      jump\t// in\n    tag_256:\n        /* \"@openzeppelin/contracts/token/ERC20/ERC20.sol\":6991:6995  true */\n      0x01\n        /* \"@openzeppelin/contracts/token/ERC20/ERC20.sol\":6984:6995  return true */\n      swap3\n      pop\n      pop\n      pop\n        /* \"@openzeppelin/contracts/token/ERC20/ERC20.sol\":6575:7002  function decreaseAllowance(address spender, uint256 subtractedValue) public virtual returns (bool) {... */\n      swap3\n      swap2\n      pop\n      pop\n      jump\t// out\n        /* \"Complete Contract.sol\":1801:1889  function payRent() public payable onlyTenant {... */\n    tag_145:\n        /* \"Complete Contract.sol\":1345:1351  tenant */\n      0x06\n      0x00\n      swap1\n      sload\n      swap1\n      0x0100\n      exp\n      swap1\n      div\n      0xffffffffffffffffffffffffffffffffffffffff\n      and\n        /* \"Complete Contract.sol\":1331:1351  msg.sender == tenant */\n      0xffffffffffffffffffffffffffffffffffffffff\n      and\n        /* \"Complete Contract.sol\":1331:1341  msg.sender */\n      caller\n        /* \"Complete Contract.sol\":1331:1351  msg.sender == tenant */\n      0xffffffffffffffffffffffffffffffffffffffff\n      and\n      eq\n        /* \"Complete Contract.sol\":1323:1394  require(msg.sender == tenant, \"Only the tenant can call this function\") */\n      tag_258\n      jumpi\n      mload(0x40)\n      0x08c379a000000000000000000000000000000000000000000000000000000000\n      dup2\n      mstore\n      0x04\n      add\n      tag_259\n      swap1\n      tag_213\n      jump\t// in\n    tag_259:\n      mload(0x40)\n      dup1\n      swap2\n      sub\n      swap1\n      revert\n    tag_258:\n        /* \"Complete Contract.sol\":1873:1882  msg.value */\n      callvalue\n        /* \"Complete Contract.sol\":1856:1869  rentcollected */\n      0x07\n      0x00\n        /* \"Complete Contract.sol\":1856:1882  rentcollected += msg.value */\n      dup3\n      dup3\n      sload\n      tag_261\n      swap2\n      swap1\n      tag_209\n      jump\t// in\n    tag_261:\n      swap3\n      pop\n      pop\n      dup2\n      swap1\n      sstore\n      pop\n        /* \"Complete Contract.sol\":1801:1889  function payRent() public payable onlyTenant {... */\n      jump\t// out\n        /* \"@openzeppelin/contracts/token/ERC20/ERC20.sol\":3740:3929  function transfer(address to, uint256 amount) public virtual override returns (bool) {... */\n    tag_149:\n        /* \"@openzeppelin/contracts/token/ERC20/ERC20.sol\":3819:3823  bool */\n      0x00\n        /* \"@openzeppelin/contracts/token/ERC20/ERC20.sol\":3835:3848  address owner */\n      dup1\n        /* \"@openzeppelin/contracts/token/ERC20/ERC20.sol\":3851:3863  _msgSender() */\n      tag_263\n        /* \"@openzeppelin/contracts/token/ERC20/ERC20.sol\":3851:3861  _msgSender */\n      tag_191\n        /* \"@openzeppelin/contracts/token/ERC20/ERC20.sol\":3851:3863  _msgSender() */\n      jump\t// in\n    tag_263:\n        /* \"@openzeppelin/contracts/token/ERC20/ERC20.sol\":3835:3863  address owner = _msgSender() */\n      swap1\n      pop\n        /* \"@openzeppelin/contracts/token/ERC20/ERC20.sol\":3873:3901  _transfer(owner, to, amount) */\n      tag_264\n        /* \"@openzeppelin/contracts/token/ERC20/ERC20.sol\":3883:3888  owner */\n      dup2\n        /* \"@openzeppelin/contracts/token/ERC20/ERC20.sol\":3890:3892  to */\n      dup6\n        /* \"@openzeppelin/contracts/token/ERC20/ERC20.sol\":3894:3900  amount */\n      dup6\n        /* \"@openzeppelin/contracts/token/ERC20/ERC20.sol\":3873:3882  _transfer */\n      tag_201\n        /* \"@openzeppelin/contracts/token/ERC20/ERC20.sol\":3873:3901  _transfer(owner, to, amount) */\n      jump\t// in\n    tag_264:\n        /* \"@openzeppelin/contracts/token/ERC20/ERC20.sol\":3918:3922  true */\n      0x01\n        /* \"@openzeppelin/contracts/token/ERC20/ERC20.sol\":3911:3922  return true */\n      swap2\n      pop\n      pop\n        /* \"@openzeppelin/contracts/token/ERC20/ERC20.sol\":3740:3929  function transfer(address to, uint256 amount) public virtual override returns (bool) {... */\n      swap3\n      swap2\n      pop\n      pop\n      jump\t// out\n        /* \"Complete Contract.sol\":782:803  address public tenant */\n    tag_153:\n      0x06\n      0x00\n      swap1\n      sload\n      swap1\n      0x0100\n      exp\n      swap1\n      div\n      0xffffffffffffffffffffffffffffffffffffffff\n      and\n      dup2\n      jump\t// out\n        /* \"Complete Contract.sol\":3423:3612  function minttheTokenRentperyear(address _property) public {... */\n    tag_158:\n        /* \"Complete Contract.sol\":3492:3525  PropertyFinances storage property */\n      0x00\n        /* \"Complete Contract.sol\":3528:3546  PropertykiFinances */\n      0x09\n        /* \"Complete Contract.sol\":3528:3557  PropertykiFinances[_property] */\n      0x00\n        /* \"Complete Contract.sol\":3547:3556  _property */\n      dup4\n        /* \"Complete Contract.sol\":3528:3557  PropertykiFinances[_property] */\n      0xffffffffffffffffffffffffffffffffffffffff\n      and\n      0xffffffffffffffffffffffffffffffffffffffff\n      and\n      dup2\n      mstore\n      0x20\n      add\n      swap1\n      dup2\n      mstore\n      0x20\n      add\n      0x00\n      keccak256\n        /* \"Complete Contract.sol\":3492:3557  PropertyFinances storage property = PropertykiFinances[_property] */\n      swap1\n      pop\n        /* \"Complete Contract.sol\":3567:3605  _mint(_property, property.NetRentyear) */\n      tag_266\n        /* \"Complete Contract.sol\":3573:3582  _property */\n      dup3\n        /* \"Complete Contract.sol\":3584:3592  property */\n      dup3\n        /* \"Complete Contract.sol\":3584:3604  property.NetRentyear */\n      0x03\n      add\n      sload\n        /* \"Complete Contract.sol\":3567:3572  _mint */\n      tag_188\n        /* \"Complete Contract.sol\":3567:3605  _mint(_property, property.NetRentyear) */\n      jump\t// in\n    tag_266:\n        /* \"Complete Contract.sol\":3482:3612  {... */\n      pop\n        /* \"Complete Contract.sol\":3423:3612  function minttheTokenRentperyear(address _property) public {... */\n      pop\n      jump\t// out\n        /* \"@openzeppelin/contracts/token/ERC20/ERC20.sol\":3987:4136  function allowance(address owner, address spender) public view virtual override returns (uint256) {... */\n    tag_163:\n        /* \"@openzeppelin/contracts/token/ERC20/ERC20.sol\":4076:4083  uint256 */\n      0x00\n        /* \"@openzeppelin/contracts/token/ERC20/ERC20.sol\":4102:4113  _allowances */\n      0x01\n        /* \"@openzeppelin/contracts/token/ERC20/ERC20.sol\":4102:4120  _allowances[owner] */\n      0x00\n        /* \"@openzeppelin/contracts/token/ERC20/ERC20.sol\":4114:4119  owner */\n      dup5\n        /* \"@openzeppelin/contracts/token/ERC20/ERC20.sol\":4102:4120  _allowances[owner] */\n      0xffffffffffffffffffffffffffffffffffffffff\n      and\n      0xffffffffffffffffffffffffffffffffffffffff\n      and\n      dup2\n      mstore\n      0x20\n      add\n      swap1\n      dup2\n      mstore\n      0x20\n      add\n      0x00\n      keccak256\n        /* \"@openzeppelin/contracts/token/ERC20/ERC20.sol\":4102:4129  _allowances[owner][spender] */\n      0x00\n        /* \"@openzeppelin/contracts/token/ERC20/ERC20.sol\":4121:4128  spender */\n      dup4\n        /* \"@openzeppelin/contracts/token/ERC20/ERC20.sol\":4102:4129  _allowances[owner][spender] */\n      0xffffffffffffffffffffffffffffffffffffffff\n      and\n      0xffffffffffffffffffffffffffffffffffffffff\n      and\n      dup2\n      mstore\n      0x20\n      add\n      swap1\n      dup2\n      mstore\n      0x20\n      add\n      0x00\n      keccak256\n      sload\n        /* \"@openzeppelin/contracts/token/ERC20/ERC20.sol\":4095:4129  return _allowances[owner][spender] */\n      swap1\n      pop\n        /* \"@openzeppelin/contracts/token/ERC20/ERC20.sol\":3987:4136  function allowance(address owner, address spender) public view virtual override returns (uint256) {... */\n      swap3\n      swap2\n      pop\n      pop\n      jump\t// out\n        /* \"Complete Contract.sol\":953:1013  mapping(address => PropertyDetails) public PropertykiDetails */\n    tag_168:\n      mstore(0x20, 0x0a)\n      dup1\n      0x00\n      mstore\n      keccak256(0x00, 0x40)\n      0x00\n      swap2\n      pop\n      swap1\n      pop\n      dup1\n      0x00\n      add\n      dup1\n      sload\n      tag_268\n      swap1\n      tag_181\n      jump\t// in\n    tag_268:\n      dup1\n      0x1f\n      add\n      0x20\n      dup1\n      swap2\n      div\n      mul\n      0x20\n      add\n      mload(0x40)\n      swap1\n      dup2\n      add\n      0x40\n      mstore\n      dup1\n      swap3\n      swap2\n      swap1\n      dup2\n      dup2\n      mstore\n      0x20\n      add\n      dup3\n      dup1\n      sload\n      tag_269\n      swap1\n      tag_181\n      jump\t// in\n    tag_269:\n      dup1\n      iszero\n      tag_270\n      jumpi\n      dup1\n      0x1f\n      lt\n      tag_271\n      jumpi\n      0x0100\n      dup1\n      dup4\n      sload\n      div\n      mul\n      dup4\n      mstore\n      swap2\n      0x20\n      add\n      swap2\n      jump(tag_270)\n    tag_271:\n      dup3\n      add\n      swap2\n      swap1\n      0x00\n      mstore\n      keccak256(0x00, 0x20)\n      swap1\n    tag_272:\n      dup2\n      sload\n      dup2\n      mstore\n      swap1\n      0x01\n      add\n      swap1\n      0x20\n      add\n      dup1\n      dup4\n      gt\n      tag_272\n      jumpi\n      dup3\n      swap1\n      sub\n      0x1f\n      and\n      dup3\n      add\n      swap2\n    tag_270:\n      pop\n      pop\n      pop\n      pop\n      pop\n      swap1\n      dup1\n      0x01\n      add\n      dup1\n      sload\n      tag_273\n      swap1\n      tag_181\n      jump\t// in\n    tag_273:\n      dup1\n      0x1f\n      add\n      0x20\n      dup1\n      swap2\n      div\n      mul\n      0x20\n      add\n      mload(0x40)\n      swap1\n      dup2\n      add\n      0x40\n      mstore\n      dup1\n      swap3\n      swap2\n      swap1\n      dup2\n      dup2\n      mstore\n      0x20\n      add\n      dup3\n      dup1\n      sload\n      tag_274\n      swap1\n      tag_181\n      jump\t// in\n    tag_274:\n      dup1\n      iszero\n      tag_275\n      jumpi\n      dup1\n      0x1f\n      lt\n      tag_276\n      jumpi\n      0x0100\n      dup1\n      dup4\n      sload\n      div\n      mul\n      dup4\n      mstore\n      swap2\n      0x20\n      add\n      swap2\n      jump(tag_275)\n    tag_276:\n      dup3\n      add\n      swap2\n      swap1\n      0x00\n      mstore\n      keccak256(0x00, 0x20)\n      swap1\n    tag_277:\n      dup2\n      sload\n      dup2\n      mstore\n      swap1\n      0x01\n      add\n      swap1\n      0x20\n      add\n      dup1\n      dup4\n      gt\n      tag_277\n      jumpi\n      dup3\n      swap1\n      sub\n      0x1f\n      and\n      dup3\n      add\n      swap2\n    tag_275:\n      pop\n      pop\n      pop\n      pop\n      pop\n      swap1\n      dup1\n      0x02\n      add\n      sload\n      swap1\n      pop\n      dup4\n      jump\t// out\n        /* \"Complete Contract.sol\":3225:3417  function minttheTokenInvestment(address _property) public {... */\n    tag_174:\n        /* \"Complete Contract.sol\":3293:3326  PropertyFinances storage property */\n      0x00\n        /* \"Complete Contract.sol\":3329:3347  PropertykiFinances */\n      0x09\n        /* \"Complete Contract.sol\":3329:3358  PropertykiFinances[_property] */\n      0x00\n        /* \"Complete Contract.sol\":3348:3357  _property */\n      dup4\n        /* \"Complete Contract.sol\":3329:3358  PropertykiFinances[_property] */\n      0xffffffffffffffffffffffffffffffffffffffff\n      and\n      0xffffffffffffffffffffffffffffffffffffffff\n      and\n      dup2\n      mstore\n      0x20\n      add\n      swap1\n      dup2\n      mstore\n      0x20\n      add\n      0x00\n      keccak256\n        /* \"Complete Contract.sol\":3293:3358  PropertyFinances storage property = PropertykiFinances[_property] */\n      swap1\n      pop\n        /* \"Complete Contract.sol\":3368:3410  _mint(_property, property.TotalInvestment) */\n      tag_279\n        /* \"Complete Contract.sol\":3374:3383  _property */\n      dup3\n        /* \"Complete Contract.sol\":3385:3393  property */\n      dup3\n        /* \"Complete Contract.sol\":3385:3409  property.TotalInvestment */\n      0x05\n      add\n      sload\n        /* \"Complete Contract.sol\":3368:3373  _mint */\n      tag_188\n        /* \"Complete Contract.sol\":3368:3410  _mint(_property, property.TotalInvestment) */\n      jump\t// in\n    tag_279:\n        /* \"Complete Contract.sol\":3283:3417  {... */\n      pop\n        /* \"Complete Contract.sol\":3225:3417  function minttheTokenInvestment(address _property) public {... */\n      pop\n      jump\t// out\n        /* \"Complete Contract.sol\":3618:3809  function minttheTokenRentpermonth(address _property) public {... */\n    tag_178:\n        /* \"Complete Contract.sol\":3688:3721  PropertyFinances storage property */\n      0x00\n        /* \"Complete Contract.sol\":3724:3742  PropertykiFinances */\n      0x09\n        /* \"Complete Contract.sol\":3724:3753  PropertykiFinances[_property] */\n      0x00\n        /* \"Complete Contract.sol\":3743:3752  _property */\n      dup4\n        /* \"Complete Contract.sol\":3724:3753  PropertykiFinances[_property] */\n      0xffffffffffffffffffffffffffffffffffffffff\n      and\n      0xffffffffffffffffffffffffffffffffffffffff\n      and\n      dup2\n      mstore\n      0x20\n      add\n      swap1\n      dup2\n      mstore\n      0x20\n      add\n      0x00\n      keccak256\n        /* \"Complete Contract.sol\":3688:3753  PropertyFinances storage property = PropertykiFinances[_property] */\n      swap1\n      pop\n        /* \"Complete Contract.sol\":3763:3802  _mint(_property, property.NetRentmonth) */\n      tag_281\n        /* \"Complete Contract.sol\":3769:3778  _property */\n      dup3\n        /* \"Complete Contract.sol\":3780:3788  property */\n      dup3\n        /* \"Complete Contract.sol\":3780:3801  property.NetRentmonth */\n      0x04\n      add\n      sload\n        /* \"Complete Contract.sol\":3763:3768  _mint */\n      tag_188\n        /* \"Complete Contract.sol\":3763:3802  _mint(_property, property.NetRentmonth) */\n      jump\t// in\n    tag_281:\n        /* \"Complete Contract.sol\":3678:3809  {... */\n      pop\n        /* \"Complete Contract.sol\":3618:3809  function minttheTokenRentpermonth(address _property) public {... */\n      pop\n      jump\t// out\n        /* \"@openzeppelin/contracts/token/ERC20/ERC20.sol\":8520:9055  function _mint(address account, uint256 amount) internal virtual {... */\n    tag_188:\n        /* \"@openzeppelin/contracts/token/ERC20/ERC20.sol\":8622:8623  0 */\n      0x00\n        /* \"@openzeppelin/contracts/token/ERC20/ERC20.sol\":8603:8624  account != address(0) */\n      0xffffffffffffffffffffffffffffffffffffffff\n      and\n        /* \"@openzeppelin/contracts/token/ERC20/ERC20.sol\":8603:8610  account */\n      dup3\n        /* \"@openzeppelin/contracts/token/ERC20/ERC20.sol\":8603:8624  account != address(0) */\n      0xffffffffffffffffffffffffffffffffffffffff\n      and\n      sub\n        /* \"@openzeppelin/contracts/token/ERC20/ERC20.sol\":8595:8660  require(account != address(0), \"ERC20: mint to the zero address\") */\n      tag_283\n      jumpi\n      mload(0x40)\n      0x08c379a000000000000000000000000000000000000000000000000000000000\n      dup2\n      mstore\n      0x04\n      add\n      tag_284\n      swap1\n      tag_285\n      jump\t// in\n    tag_284:\n      mload(0x40)\n      dup1\n      swap2\n      sub\n      swap1\n      revert\n    tag_283:\n        /* \"@openzeppelin/contracts/token/ERC20/ERC20.sol\":8671:8720  _beforeTokenTransfer(address(0), account, amount) */\n      tag_286\n        /* \"@openzeppelin/contracts/token/ERC20/ERC20.sol\":8700:8701  0 */\n      0x00\n        /* \"@openzeppelin/contracts/token/ERC20/ERC20.sol\":8704:8711  account */\n      dup4\n        /* \"@openzeppelin/contracts/token/ERC20/ERC20.sol\":8713:8719  amount */\n      dup4\n        /* \"@openzeppelin/contracts/token/ERC20/ERC20.sol\":8671:8691  _beforeTokenTransfer */\n      tag_287\n        /* \"@openzeppelin/contracts/token/ERC20/ERC20.sol\":8671:8720  _beforeTokenTransfer(address(0), account, amount) */\n      jump\t// in\n    tag_286:\n        /* \"@openzeppelin/contracts/token/ERC20/ERC20.sol\":8747:8753  amount */\n      dup1\n        /* \"@openzeppelin/contracts/token/ERC20/ERC20.sol\":8731:8743  _totalSupply */\n      0x02\n      0x00\n        /* \"@openzeppelin/contracts/token/ERC20/ERC20.sol\":8731:8753  _totalSupply += amount */\n      dup3\n      dup3\n      sload\n      tag_288\n      swap2\n      swap1\n      tag_209\n      jump\t// in\n    tag_288:\n      swap3\n      pop\n      pop\n      dup2\n      swap1\n      sstore\n      pop\n        /* \"@openzeppelin/contracts/token/ERC20/ERC20.sol\":8921:8927  amount */\n      dup1\n        /* \"@openzeppelin/contracts/token/ERC20/ERC20.sol\":8899:8908  _balances */\n      0x00\n        /* \"@openzeppelin/contracts/token/ERC20/ERC20.sol\":8899:8917  _balances[account] */\n      dup1\n        /* \"@openzeppelin/contracts/token/ERC20/ERC20.sol\":8909:8916  account */\n      dup5\n        /* \"@openzeppelin/contracts/token/ERC20/ERC20.sol\":8899:8917  _balances[account] */\n      0xffffffffffffffffffffffffffffffffffffffff\n      and\n      0xffffffffffffffffffffffffffffffffffffffff\n      and\n      dup2\n      mstore\n      0x20\n      add\n      swap1\n      dup2\n      mstore\n      0x20\n      add\n      0x00\n      keccak256\n      0x00\n        /* \"@openzeppelin/contracts/token/ERC20/ERC20.sol\":8899:8927  _balances[account] += amount */\n      dup3\n      dup3\n      sload\n      add\n      swap3\n      pop\n      pop\n      dup2\n      swap1\n      sstore\n      pop\n        /* \"@openzeppelin/contracts/token/ERC20/ERC20.sol\":8973:8980  account */\n      dup2\n        /* \"@openzeppelin/contracts/token/ERC20/ERC20.sol\":8952:8989  Transfer(address(0), account, amount) */\n      0xffffffffffffffffffffffffffffffffffffffff\n      and\n        /* \"@openzeppelin/contracts/token/ERC20/ERC20.sol\":8969:8970  0 */\n      0x00\n        /* \"@openzeppelin/contracts/token/ERC20/ERC20.sol\":8952:8989  Transfer(address(0), account, amount) */\n      0xffffffffffffffffffffffffffffffffffffffff\n      and\n      0xddf252ad1be2c89b69c2b068fc378daa952ba7f163c4a11628f55a4df523b3ef\n        /* \"@openzeppelin/contracts/token/ERC20/ERC20.sol\":8982:8988  amount */\n      dup4\n        /* \"@openzeppelin/contracts/token/ERC20/ERC20.sol\":8952:8989  Transfer(address(0), account, amount) */\n      mload(0x40)\n      tag_289\n      swap2\n      swap1\n      tag_67\n      jump\t// in\n    tag_289:\n      mload(0x40)\n      dup1\n      swap2\n      sub\n      swap1\n      log3\n        /* \"@openzeppelin/contracts/token/ERC20/ERC20.sol\":9000:9048  _afterTokenTransfer(address(0), account, amount) */\n      tag_290\n        /* \"@openzeppelin/contracts/token/ERC20/ERC20.sol\":9028:9029  0 */\n      0x00\n        /* \"@openzeppelin/contracts/token/ERC20/ERC20.sol\":9032:9039  account */\n      dup4\n        /* \"@openzeppelin/contracts/token/ERC20/ERC20.sol\":9041:9047  amount */\n      dup4\n        /* \"@openzeppelin/contracts/token/ERC20/ERC20.sol\":9000:9019  _afterTokenTransfer */\n      tag_291\n        /* \"@openzeppelin/contracts/token/ERC20/ERC20.sol\":9000:9048  _afterTokenTransfer(address(0), account, amount) */\n      jump\t// in\n    tag_290:\n        /* \"@openzeppelin/contracts/token/ERC20/ERC20.sol\":8520:9055  function _mint(address account, uint256 amount) internal virtual {... */\n      pop\n      pop\n      jump\t// out\n        /* \"@openzeppelin/contracts/utils/Context.sol\":640:736  function _msgSender() internal view virtual returns (address) {... */\n    tag_191:\n        /* \"@openzeppelin/contracts/utils/Context.sol\":693:700  address */\n      0x00\n        /* \"@openzeppelin/contracts/utils/Context.sol\":719:729  msg.sender */\n      caller\n        /* \"@openzeppelin/contracts/utils/Context.sol\":712:729  return msg.sender */\n      swap1\n      pop\n        /* \"@openzeppelin/contracts/utils/Context.sol\":640:736  function _msgSender() internal view virtual returns (address) {... */\n      swap1\n      jump\t// out\n        /* \"@openzeppelin/contracts/token/ERC20/ERC20.sol\":10457:10797  function _approve(address owner, address spender, uint256 amount) internal virtual {... */\n    tag_193:\n        /* \"@openzeppelin/contracts/token/ERC20/ERC20.sol\":10575:10576  0 */\n      0x00\n        /* \"@openzeppelin/contracts/token/ERC20/ERC20.sol\":10558:10577  owner != address(0) */\n      0xffffffffffffffffffffffffffffffffffffffff\n      and\n        /* \"@openzeppelin/contracts/token/ERC20/ERC20.sol\":10558:10563  owner */\n      dup4\n        /* \"@openzeppelin/contracts/token/ERC20/ERC20.sol\":10558:10577  owner != address(0) */\n      0xffffffffffffffffffffffffffffffffffffffff\n      and\n      sub\n        /* \"@openzeppelin/contracts/token/ERC20/ERC20.sol\":10550:10618  require(owner != address(0), \"ERC20: approve from the zero address\") */\n      tag_294\n      jumpi\n      mload(0x40)\n      0x08c379a000000000000000000000000000000000000000000000000000000000\n      dup2\n      mstore\n      0x04\n      add\n      tag_295\n      swap1\n      tag_296\n      jump\t// in\n    tag_295:\n      mload(0x40)\n      dup1\n      swap2\n      sub\n      swap1\n      revert\n    tag_294:\n        /* \"@openzeppelin/contracts/token/ERC20/ERC20.sol\":10655:10656  0 */\n      0x00\n        /* \"@openzeppelin/contracts/token/ERC20/ERC20.sol\":10636:10657  spender != address(0) */\n      0xffffffffffffffffffffffffffffffffffffffff\n      and\n        /* \"@openzeppelin/contracts/token/ERC20/ERC20.sol\":10636:10643  spender */\n      dup3\n        /* \"@openzeppelin/contracts/token/ERC20/ERC20.sol\":10636:10657  spender != address(0) */\n      0xffffffffffffffffffffffffffffffffffffffff\n      and\n      sub\n        /* \"@openzeppelin/contracts/token/ERC20/ERC20.sol\":10628:10696  require(spender != address(0), \"ERC20: approve to the zero address\") */\n      tag_297\n      jumpi\n      mload(0x40)\n      0x08c379a000000000000000000000000000000000000000000000000000000000\n      dup2\n      mstore\n      0x04\n      add\n      tag_298\n      swap1\n      tag_299\n      jump\t// in\n    tag_298:\n      mload(0x40)\n      dup1\n      swap2\n      sub\n      swap1\n      revert\n    tag_297:\n        /* \"@openzeppelin/contracts/token/ERC20/ERC20.sol\":10737:10743  amount */\n      dup1\n        /* \"@openzeppelin/contracts/token/ERC20/ERC20.sol\":10707:10718  _allowances */\n      0x01\n        /* \"@openzeppelin/contracts/token/ERC20/ERC20.sol\":10707:10725  _allowances[owner] */\n      0x00\n        /* \"@openzeppelin/contracts/token/ERC20/ERC20.sol\":10719:10724  owner */\n      dup6\n        /* \"@openzeppelin/contracts/token/ERC20/ERC20.sol\":10707:10725  _allowances[owner] */\n      0xffffffffffffffffffffffffffffffffffffffff\n      and\n      0xffffffffffffffffffffffffffffffffffffffff\n      and\n      dup2\n      mstore\n      0x20\n      add\n      swap1\n      dup2\n      mstore\n      0x20\n      add\n      0x00\n      keccak256\n        /* \"@openzeppelin/contracts/token/ERC20/ERC20.sol\":10707:10734  _allowances[owner][spender] */\n      0x00\n        /* \"@openzeppelin/contracts/token/ERC20/ERC20.sol\":10726:10733  spender */\n      dup5\n        /* \"@openzeppelin/contracts/token/ERC20/ERC20.sol\":10707:10734  _allowances[owner][spender] */\n      0xffffffffffffffffffffffffffffffffffffffff\n      and\n      0xffffffffffffffffffffffffffffffffffffffff\n      and\n      dup2\n      mstore\n      0x20\n      add\n      swap1\n      dup2\n      mstore\n      0x20\n      add\n      0x00\n      keccak256\n        /* \"@openzeppelin/contracts/token/ERC20/ERC20.sol\":10707:10743  _allowances[owner][spender] = amount */\n      dup2\n      swap1\n      sstore\n      pop\n        /* \"@openzeppelin/contracts/token/ERC20/ERC20.sol\":10774:10781  spender */\n      dup2\n        /* \"@openzeppelin/contracts/token/ERC20/ERC20.sol\":10758:10790  Approval(owner, spender, amount) */\n      0xffffffffffffffffffffffffffffffffffffffff\n      and\n        /* \"@openzeppelin/contracts/token/ERC20/ERC20.sol\":10767:10772  owner */\n      dup4\n        /* \"@openzeppelin/contracts/token/ERC20/ERC20.sol\":10758:10790  Approval(owner, spender, amount) */\n      0xffffffffffffffffffffffffffffffffffffffff\n      and\n      0x8c5be1e5ebec7d5bd14f71427d1e84f3dd0314c0f7b2291e5b200ac8c7c3b925\n        /* \"@openzeppelin/contracts/token/ERC20/ERC20.sol\":10783:10789  amount */\n      dup4\n        /* \"@openzeppelin/contracts/token/ERC20/ERC20.sol\":10758:10790  Approval(owner, spender, amount) */\n      mload(0x40)\n      tag_300\n      swap2\n      swap1\n      tag_67\n      jump\t// in\n    tag_300:\n      mload(0x40)\n      dup1\n      swap2\n      sub\n      swap1\n      log3\n        /* \"@openzeppelin/contracts/token/ERC20/ERC20.sol\":10457:10797  function _approve(address owner, address spender, uint256 amount) internal virtual {... */\n      pop\n      pop\n      pop\n      jump\t// out\n        /* \"@openzeppelin/contracts/token/ERC20/ERC20.sol\":11078:11489  function _spendAllowance(address owner, address spender, uint256 amount) internal virtual {... */\n    tag_199:\n        /* \"@openzeppelin/contracts/token/ERC20/ERC20.sol\":11178:11202  uint256 currentAllowance */\n      0x00\n        /* \"@openzeppelin/contracts/token/ERC20/ERC20.sol\":11205:11230  allowance(owner, spender) */\n      tag_302\n        /* \"@openzeppelin/contracts/token/ERC20/ERC20.sol\":11215:11220  owner */\n      dup5\n        /* \"@openzeppelin/contracts/token/ERC20/ERC20.sol\":11222:11229  spender */\n      dup5\n        /* \"@openzeppelin/contracts/token/ERC20/ERC20.sol\":11205:11214  allowance */\n      tag_163\n        /* \"@openzeppelin/contracts/token/ERC20/ERC20.sol\":11205:11230  allowance(owner, spender) */\n      jump\t// in\n    tag_302:\n        /* \"@openzeppelin/contracts/token/ERC20/ERC20.sol\":11178:11230  uint256 currentAllowance = allowance(owner, spender) */\n      swap1\n      pop\n        /* \"@openzeppelin/contracts/token/ERC20/ERC20.sol\":11264:11281  type(uint256).max */\n      0xffffffffffffffffffffffffffffffffffffffffffffffffffffffffffffffff\n        /* \"@openzeppelin/contracts/token/ERC20/ERC20.sol\":11244:11260  currentAllowance */\n      dup2\n        /* \"@openzeppelin/contracts/token/ERC20/ERC20.sol\":11244:11281  currentAllowance != type(uint256).max */\n      eq\n        /* \"@openzeppelin/contracts/token/ERC20/ERC20.sol\":11240:11483  if (currentAllowance != type(uint256).max) {... */\n      tag_303\n      jumpi\n        /* \"@openzeppelin/contracts/token/ERC20/ERC20.sol\":11325:11331  amount */\n      dup2\n        /* \"@openzeppelin/contracts/token/ERC20/ERC20.sol\":11305:11321  currentAllowance */\n      dup2\n        /* \"@openzeppelin/contracts/token/ERC20/ERC20.sol\":11305:11331  currentAllowance >= amount */\n      lt\n      iszero\n        /* \"@openzeppelin/contracts/token/ERC20/ERC20.sol\":11297:11365  require(currentAllowance >= amount, \"ERC20: insufficient allowance\") */\n      tag_304\n      jumpi\n      mload(0x40)\n      0x08c379a000000000000000000000000000000000000000000000000000000000\n      dup2\n      mstore\n      0x04\n      add\n      tag_305\n      swap1\n      tag_306\n      jump\t// in\n    tag_305:\n      mload(0x40)\n      dup1\n      swap2\n      sub\n      swap1\n      revert\n    tag_304:\n        /* \"@openzeppelin/contracts/token/ERC20/ERC20.sol\":11407:11458  _approve(owner, spender, currentAllowance - amount) */\n      tag_307\n        /* \"@openzeppelin/contracts/token/ERC20/ERC20.sol\":11416:11421  owner */\n      dup5\n        /* \"@openzeppelin/contracts/token/ERC20/ERC20.sol\":11423:11430  spender */\n      dup5\n        /* \"@openzeppelin/contracts/token/ERC20/ERC20.sol\":11451:11457  amount */\n      dup5\n        /* \"@openzeppelin/contracts/token/ERC20/ERC20.sol\":11432:11448  currentAllowance */\n      dup5\n        /* \"@openzeppelin/contracts/token/ERC20/ERC20.sol\":11432:11457  currentAllowance - amount */\n      sub\n        /* \"@openzeppelin/contracts/token/ERC20/ERC20.sol\":11407:11415  _approve */\n      tag_193\n        /* \"@openzeppelin/contracts/token/ERC20/ERC20.sol\":11407:11458  _approve(owner, spender, currentAllowance - amount) */\n      jump\t// in\n    tag_307:\n        /* \"@openzeppelin/contracts/token/ERC20/ERC20.sol\":11240:11483  if (currentAllowance != type(uint256).max) {... */\n    tag_303:\n        /* \"@openzeppelin/contracts/token/ERC20/ERC20.sol\":11168:11489  {... */\n      pop\n        /* \"@openzeppelin/contracts/token/ERC20/ERC20.sol\":11078:11489  function _spendAllowance(address owner, address spender, uint256 amount) internal virtual {... */\n      pop\n      pop\n      pop\n      jump\t// out\n        /* \"@openzeppelin/contracts/token/ERC20/ERC20.sol\":7456:8244  function _transfer(address from, address to, uint256 amount) internal virtual {... */\n    tag_201:\n        /* \"@openzeppelin/contracts/token/ERC20/ERC20.sol\":7568:7569  0 */\n      0x00\n        /* \"@openzeppelin/contracts/token/ERC20/ERC20.sol\":7552:7570  from != address(0) */\n      0xffffffffffffffffffffffffffffffffffffffff\n      and\n        /* \"@openzeppelin/contracts/token/ERC20/ERC20.sol\":7552:7556  from */\n      dup4\n        /* \"@openzeppelin/contracts/token/ERC20/ERC20.sol\":7552:7570  from != address(0) */\n      0xffffffffffffffffffffffffffffffffffffffff\n      and\n      sub\n        /* \"@openzeppelin/contracts/token/ERC20/ERC20.sol\":7544:7612  require(from != address(0), \"ERC20: transfer from the zero address\") */\n      tag_309\n      jumpi\n      mload(0x40)\n      0x08c379a000000000000000000000000000000000000000000000000000000000\n      dup2\n      mstore\n      0x04\n      add\n      tag_310\n      swap1\n      tag_311\n      jump\t// in\n    tag_310:\n      mload(0x40)\n      dup1\n      swap2\n      sub\n      swap1\n      revert\n    tag_309:\n        /* \"@openzeppelin/contracts/token/ERC20/ERC20.sol\":7644:7645  0 */\n      0x00\n        /* \"@openzeppelin/contracts/token/ERC20/ERC20.sol\":7630:7646  to != address(0) */\n      0xffffffffffffffffffffffffffffffffffffffff\n      and\n        /* \"@openzeppelin/contracts/token/ERC20/ERC20.sol\":7630:7632  to */\n      dup3\n        /* \"@openzeppelin/contracts/token/ERC20/ERC20.sol\":7630:7646  to != address(0) */\n      0xffffffffffffffffffffffffffffffffffffffff\n      and\n      sub\n        /* \"@openzeppelin/contracts/token/ERC20/ERC20.sol\":7622:7686  require(to != address(0), \"ERC20: transfer to the zero address\") */\n      tag_312\n      jumpi\n      mload(0x40)\n      0x08c379a000000000000000000000000000000000000000000000000000000000\n      dup2\n      mstore\n      0x04\n      add\n      tag_313\n      swap1\n      tag_314\n      jump\t// in\n    tag_313:\n      mload(0x40)\n      dup1\n      swap2\n      sub\n      swap1\n      revert\n    tag_312:\n        /* \"@openzeppelin/contracts/token/ERC20/ERC20.sol\":7697:7735  _beforeTokenTransfer(from, to, amount) */\n      tag_315\n        /* \"@openzeppelin/contracts/token/ERC20/ERC20.sol\":7718:7722  from */\n      dup4\n        /* \"@openzeppelin/contracts/token/ERC20/ERC20.sol\":7724:7726  to */\n      dup4\n        /* \"@openzeppelin/contracts/token/ERC20/ERC20.sol\":7728:7734  amount */\n      dup4\n        /* \"@openzeppelin/contracts/token/ERC20/ERC20.sol\":7697:7717  _beforeTokenTransfer */\n      tag_287\n        /* \"@openzeppelin/contracts/token/ERC20/ERC20.sol\":7697:7735  _beforeTokenTransfer(from, to, amount) */\n      jump\t// in\n    tag_315:\n        /* \"@openzeppelin/contracts/token/ERC20/ERC20.sol\":7746:7765  uint256 fromBalance */\n      0x00\n        /* \"@openzeppelin/contracts/token/ERC20/ERC20.sol\":7768:7777  _balances */\n      dup1\n        /* \"@openzeppelin/contracts/token/ERC20/ERC20.sol\":7768:7783  _balances[from] */\n      0x00\n        /* \"@openzeppelin/contracts/token/ERC20/ERC20.sol\":7778:7782  from */\n      dup6\n        /* \"@openzeppelin/contracts/token/ERC20/ERC20.sol\":7768:7783  _balances[from] */\n      0xffffffffffffffffffffffffffffffffffffffff\n      and\n      0xffffffffffffffffffffffffffffffffffffffff\n      and\n      dup2\n      mstore\n      0x20\n      add\n      swap1\n      dup2\n      mstore\n      0x20\n      add\n      0x00\n      keccak256\n      sload\n        /* \"@openzeppelin/contracts/token/ERC20/ERC20.sol\":7746:7783  uint256 fromBalance = _balances[from] */\n      swap1\n      pop\n        /* \"@openzeppelin/contracts/token/ERC20/ERC20.sol\":7816:7822  amount */\n      dup2\n        /* \"@openzeppelin/contracts/token/ERC20/ERC20.sol\":7801:7812  fromBalance */\n      dup2\n        /* \"@openzeppelin/contracts/token/ERC20/ERC20.sol\":7801:7822  fromBalance >= amount */\n      lt\n      iszero\n        /* \"@openzeppelin/contracts/token/ERC20/ERC20.sol\":7793:7865  require(fromBalance >= amount, \"ERC20: transfer amount exceeds balance\") */\n      tag_316\n      jumpi\n      mload(0x40)\n      0x08c379a000000000000000000000000000000000000000000000000000000000\n      dup2\n      mstore\n      0x04\n      add\n      tag_317\n      swap1\n      tag_318\n      jump\t// in\n    tag_317:\n      mload(0x40)\n      dup1\n      swap2\n      sub\n      swap1\n      revert\n    tag_316:\n        /* \"@openzeppelin/contracts/token/ERC20/ERC20.sol\":7931:7937  amount */\n      dup2\n        /* \"@openzeppelin/contracts/token/ERC20/ERC20.sol\":7917:7928  fromBalance */\n      dup2\n        /* \"@openzeppelin/contracts/token/ERC20/ERC20.sol\":7917:7937  fromBalance - amount */\n      sub\n        /* \"@openzeppelin/contracts/token/ERC20/ERC20.sol\":7899:7908  _balances */\n      0x00\n        /* \"@openzeppelin/contracts/token/ERC20/ERC20.sol\":7899:7914  _balances[from] */\n      dup1\n        /* \"@openzeppelin/contracts/token/ERC20/ERC20.sol\":7909:7913  from */\n      dup7\n        /* \"@openzeppelin/contracts/token/ERC20/ERC20.sol\":7899:7914  _balances[from] */\n      0xffffffffffffffffffffffffffffffffffffffff\n      and\n      0xffffffffffffffffffffffffffffffffffffffff\n      and\n      dup2\n      mstore\n      0x20\n      add\n      swap1\n      dup2\n      mstore\n      0x20\n      add\n      0x00\n      keccak256\n        /* \"@openzeppelin/contracts/token/ERC20/ERC20.sol\":7899:7937  _balances[from] = fromBalance - amount */\n      dup2\n      swap1\n      sstore\n      pop\n        /* \"@openzeppelin/contracts/token/ERC20/ERC20.sol\":8131:8137  amount */\n      dup2\n        /* \"@openzeppelin/contracts/token/ERC20/ERC20.sol\":8114:8123  _balances */\n      0x00\n        /* \"@openzeppelin/contracts/token/ERC20/ERC20.sol\":8114:8127  _balances[to] */\n      dup1\n        /* \"@openzeppelin/contracts/token/ERC20/ERC20.sol\":8124:8126  to */\n      dup6\n        /* \"@openzeppelin/contracts/token/ERC20/ERC20.sol\":8114:8127  _balances[to] */\n      0xffffffffffffffffffffffffffffffffffffffff\n      and\n      0xffffffffffffffffffffffffffffffffffffffff\n      and\n      dup2\n      mstore\n      0x20\n      add\n      swap1\n      dup2\n      mstore\n      0x20\n      add\n      0x00\n      keccak256\n      0x00\n        /* \"@openzeppelin/contracts/token/ERC20/ERC20.sol\":8114:8137  _balances[to] += amount */\n      dup3\n      dup3\n      sload\n      add\n      swap3\n      pop\n      pop\n      dup2\n      swap1\n      sstore\n      pop\n        /* \"@openzeppelin/contracts/token/ERC20/ERC20.sol\":8178:8180  to */\n      dup3\n        /* \"@openzeppelin/contracts/token/ERC20/ERC20.sol\":8163:8189  Transfer(from, to, amount) */\n      0xffffffffffffffffffffffffffffffffffffffff\n      and\n        /* \"@openzeppelin/contracts/token/ERC20/ERC20.sol\":8172:8176  from */\n      dup5\n        /* \"@openzeppelin/contracts/token/ERC20/ERC20.sol\":8163:8189  Transfer(from, to, amount) */\n      0xffffffffffffffffffffffffffffffffffffffff\n      and\n      0xddf252ad1be2c89b69c2b068fc378daa952ba7f163c4a11628f55a4df523b3ef\n        /* \"@openzeppelin/contracts/token/ERC20/ERC20.sol\":8182:8188  amount */\n      dup5\n        /* \"@openzeppelin/contracts/token/ERC20/ERC20.sol\":8163:8189  Transfer(from, to, amount) */\n      mload(0x40)\n      tag_319\n      swap2\n      swap1\n      tag_67\n      jump\t// in\n    tag_319:\n      mload(0x40)\n      dup1\n      swap2\n      sub\n      swap1\n      log3\n        /* \"@openzeppelin/contracts/token/ERC20/ERC20.sol\":8200:8237  _afterTokenTransfer(from, to, amount) */\n      tag_320\n        /* \"@openzeppelin/contracts/token/ERC20/ERC20.sol\":8220:8224  from */\n      dup5\n        /* \"@openzeppelin/contracts/token/ERC20/ERC20.sol\":8226:8228  to */\n      dup5\n        /* \"@openzeppelin/contracts/token/ERC20/ERC20.sol\":8230:8236  amount */\n      dup5\n        /* \"@openzeppelin/contracts/token/ERC20/ERC20.sol\":8200:8219  _afterTokenTransfer */\n      tag_291\n        /* \"@openzeppelin/contracts/token/ERC20/ERC20.sol\":8200:8237  _afterTokenTransfer(from, to, amount) */\n      jump\t// in\n    tag_320:\n        /* \"@openzeppelin/contracts/token/ERC20/ERC20.sol\":7534:8244  {... */\n      pop\n        /* \"@openzeppelin/contracts/token/ERC20/ERC20.sol\":7456:8244  function _transfer(address from, address to, uint256 amount) internal virtual {... */\n      pop\n      pop\n      pop\n      jump\t// out\n        /* \"@openzeppelin/contracts/utils/math/SafeMath.sol\":3465:3561  function mul(uint256 a, uint256 b) internal pure returns (uint256) {... */\n    tag_221:\n        /* \"@openzeppelin/contracts/utils/math/SafeMath.sol\":3523:3530  uint256 */\n      0x00\n        /* \"@openzeppelin/contracts/utils/math/SafeMath.sol\":3553:3554  b */\n      dup2\n        /* \"@openzeppelin/contracts/utils/math/SafeMath.sol\":3549:3550  a */\n      dup4\n        /* \"@openzeppelin/contracts/utils/math/SafeMath.sol\":3549:3554  a * b */\n      tag_322\n      swap2\n      swap1\n      tag_238\n      jump\t// in\n    tag_322:\n        /* \"@openzeppelin/contracts/utils/math/SafeMath.sol\":3542:3554  return a * b */\n      swap1\n      pop\n        /* \"@openzeppelin/contracts/utils/math/SafeMath.sol\":3465:3561  function mul(uint256 a, uint256 b) internal pure returns (uint256) {... */\n      swap3\n      swap2\n      pop\n      pop\n      jump\t// out\n        /* \"@openzeppelin/contracts/utils/math/SafeMath.sol\":3850:3946  function div(uint256 a, uint256 b) internal pure returns (uint256) {... */\n    tag_222:\n        /* \"@openzeppelin/contracts/utils/math/SafeMath.sol\":3908:3915  uint256 */\n      0x00\n        /* \"@openzeppelin/contracts/utils/math/SafeMath.sol\":3938:3939  b */\n      dup2\n        /* \"@openzeppelin/contracts/utils/math/SafeMath.sol\":3934:3935  a */\n      dup4\n        /* \"@openzeppelin/contracts/utils/math/SafeMath.sol\":3934:3939  a / b */\n      tag_324\n      swap2\n      swap1\n      tag_325\n      jump\t// in\n    tag_324:\n        /* \"@openzeppelin/contracts/utils/math/SafeMath.sol\":3927:3939  return a / b */\n      swap1\n      pop\n        /* \"@openzeppelin/contracts/utils/math/SafeMath.sol\":3850:3946  function div(uint256 a, uint256 b) internal pure returns (uint256) {... */\n      swap3\n      swap2\n      pop\n      pop\n      jump\t// out\n        /* \"@openzeppelin/contracts/utils/math/SafeMath.sol\":2755:2851  function add(uint256 a, uint256 b) internal pure returns (uint256) {... */\n    tag_249:\n        /* \"@openzeppelin/contracts/utils/math/SafeMath.sol\":2813:2820  uint256 */\n      0x00\n        /* \"@openzeppelin/contracts/utils/math/SafeMath.sol\":2843:2844  b */\n      dup2\n        /* \"@openzeppelin/contracts/utils/math/SafeMath.sol\":2839:2840  a */\n      dup4\n        /* \"@openzeppelin/contracts/utils/math/SafeMath.sol\":2839:2844  a + b */\n      tag_327\n      swap2\n      swap1\n      tag_209\n      jump\t// in\n    tag_327:\n        /* \"@openzeppelin/contracts/utils/math/SafeMath.sol\":2832:2844  return a + b */\n      swap1\n      pop\n        /* \"@openzeppelin/contracts/utils/math/SafeMath.sol\":2755:2851  function add(uint256 a, uint256 b) internal pure returns (uint256) {... */\n      swap3\n      swap2\n      pop\n      pop\n      jump\t// out\n        /* \"@openzeppelin/contracts/token/ERC20/ERC20.sol\":12073:12164  function _beforeTokenTransfer(address from, address to, uint256 amount) internal virtual {} */\n    tag_287:\n      pop\n      pop\n      pop\n      jump\t// out\n        /* \"@openzeppelin/contracts/token/ERC20/ERC20.sol\":12752:12842  function _afterTokenTransfer(address from, address to, uint256 amount) internal virtual {} */\n    tag_291:\n      pop\n      pop\n      pop\n      jump\t// out\n        /* \"#utility.yul\":7:106   */\n    tag_330:\n        /* \"#utility.yul\":59:65   */\n      0x00\n        /* \"#utility.yul\":93:98   */\n      dup2\n        /* \"#utility.yul\":87:99   */\n      mload\n        /* \"#utility.yul\":77:99   */\n      swap1\n      pop\n        /* \"#utility.yul\":7:106   */\n      swap2\n      swap1\n      pop\n      jump\t// out\n        /* \"#utility.yul\":112:281   */\n    tag_331:\n        /* \"#utility.yul\":196:207   */\n      0x00\n        /* \"#utility.yul\":230:236   */\n      dup3\n        /* \"#utility.yul\":225:228   */\n      dup3\n        /* \"#utility.yul\":218:237   */\n      mstore\n        /* \"#utility.yul\":270:274   */\n      0x20\n        /* \"#utility.yul\":265:268   */\n      dup3\n        /* \"#utility.yul\":261:275   */\n      add\n        /* \"#utility.yul\":246:275   */\n      swap1\n      pop\n        /* \"#utility.yul\":112:281   */\n      swap3\n      swap2\n      pop\n      pop\n      jump\t// out\n        /* \"#utility.yul\":287:533   */\n    tag_332:\n        /* \"#utility.yul\":368:369   */\n      0x00\n        /* \"#utility.yul\":378:491   */\n    tag_382:\n        /* \"#utility.yul\":392:398   */\n      dup4\n        /* \"#utility.yul\":389:390   */\n      dup2\n        /* \"#utility.yul\":386:399   */\n      lt\n        /* \"#utility.yul\":378:491   */\n      iszero\n      tag_384\n      jumpi\n        /* \"#utility.yul\":477:478   */\n      dup1\n        /* \"#utility.yul\":472:475   */\n      dup3\n        /* \"#utility.yul\":468:479   */\n      add\n        /* \"#utility.yul\":462:480   */\n      mload\n        /* \"#utility.yul\":458:459   */\n      dup2\n        /* \"#utility.yul\":453:456   */\n      dup5\n        /* \"#utility.yul\":449:460   */\n      add\n        /* \"#utility.yul\":442:481   */\n      mstore\n        /* \"#utility.yul\":414:416   */\n      0x20\n        /* \"#utility.yul\":411:412   */\n      dup2\n        /* \"#utility.yul\":407:417   */\n      add\n        /* \"#utility.yul\":402:417   */\n      swap1\n      pop\n        /* \"#utility.yul\":378:491   */\n      jump(tag_382)\n    tag_384:\n        /* \"#utility.yul\":525:526   */\n      0x00\n        /* \"#utility.yul\":516:522   */\n      dup5\n        /* \"#utility.yul\":511:514   */\n      dup5\n        /* \"#utility.yul\":507:523   */\n      add\n        /* \"#utility.yul\":500:527   */\n      mstore\n        /* \"#utility.yul\":349:533   */\n      pop\n        /* \"#utility.yul\":287:533   */\n      pop\n      pop\n      pop\n      jump\t// out\n        /* \"#utility.yul\":539:641   */\n    tag_333:\n        /* \"#utility.yul\":580:586   */\n      0x00\n        /* \"#utility.yul\":631:633   */\n      0x1f\n        /* \"#utility.yul\":627:634   */\n      not\n        /* \"#utility.yul\":622:624   */\n      0x1f\n        /* \"#utility.yul\":615:620   */\n      dup4\n        /* \"#utility.yul\":611:625   */\n      add\n        /* \"#utility.yul\":607:635   */\n      and\n        /* \"#utility.yul\":597:635   */\n      swap1\n      pop\n        /* \"#utility.yul\":539:641   */\n      swap2\n      swap1\n      pop\n      jump\t// out\n        /* \"#utility.yul\":647:1024   */\n    tag_334:\n        /* \"#utility.yul\":735:738   */\n      0x00\n        /* \"#utility.yul\":763:802   */\n      tag_387\n        /* \"#utility.yul\":796:801   */\n      dup3\n        /* \"#utility.yul\":763:802   */\n      tag_330\n      jump\t// in\n    tag_387:\n        /* \"#utility.yul\":818:889   */\n      tag_388\n        /* \"#utility.yul\":882:888   */\n      dup2\n        /* \"#utility.yul\":877:880   */\n      dup6\n        /* \"#utility.yul\":818:889   */\n      tag_331\n      jump\t// in\n    tag_388:\n        /* \"#utility.yul\":811:889   */\n      swap4\n      pop\n        /* \"#utility.yul\":898:963   */\n      tag_389\n        /* \"#utility.yul\":956:962   */\n      dup2\n        /* \"#utility.yul\":951:954   */\n      dup6\n        /* \"#utility.yul\":944:948   */\n      0x20\n        /* \"#utility.yul\":937:942   */\n      dup7\n        /* \"#utility.yul\":933:949   */\n      add\n        /* \"#utility.yul\":898:963   */\n      tag_332\n      jump\t// in\n    tag_389:\n        /* \"#utility.yul\":988:1017   */\n      tag_390\n        /* \"#utility.yul\":1010:1016   */\n      dup2\n        /* \"#utility.yul\":988:1017   */\n      tag_333\n      jump\t// in\n    tag_390:\n        /* \"#utility.yul\":983:986   */\n      dup5\n        /* \"#utility.yul\":979:1018   */\n      add\n        /* \"#utility.yul\":972:1018   */\n      swap2\n      pop\n        /* \"#utility.yul\":739:1024   */\n      pop\n        /* \"#utility.yul\":647:1024   */\n      swap3\n      swap2\n      pop\n      pop\n      jump\t// out\n        /* \"#utility.yul\":1030:1343   */\n    tag_44:\n        /* \"#utility.yul\":1143:1147   */\n      0x00\n        /* \"#utility.yul\":1181:1183   */\n      0x20\n        /* \"#utility.yul\":1170:1179   */\n      dup3\n        /* \"#utility.yul\":1166:1184   */\n      add\n        /* \"#utility.yul\":1158:1184   */\n      swap1\n      pop\n        /* \"#utility.yul\":1230:1239   */\n      dup2\n        /* \"#utility.yul\":1224:1228   */\n      dup2\n        /* \"#utility.yul\":1220:1240   */\n      sub\n        /* \"#utility.yul\":1216:1217   */\n      0x00\n        /* \"#utility.yul\":1205:1214   */\n      dup4\n        /* \"#utility.yul\":1201:1218   */\n      add\n        /* \"#utility.yul\":1194:1241   */\n      mstore\n        /* \"#utility.yul\":1258:1336   */\n      tag_392\n        /* \"#utility.yul\":1331:1335   */\n      dup2\n        /* \"#utility.yul\":1322:1328   */\n      dup5\n        /* \"#utility.yul\":1258:1336   */\n      tag_334\n      jump\t// in\n    tag_392:\n        /* \"#utility.yul\":1250:1336   */\n      swap1\n      pop\n        /* \"#utility.yul\":1030:1343   */\n      swap3\n      swap2\n      pop\n      pop\n      jump\t// out\n        /* \"#utility.yul\":1430:1547   */\n    tag_336:\n        /* \"#utility.yul\":1539:1540   */\n      0x00\n        /* \"#utility.yul\":1536:1537   */\n      dup1\n        /* \"#utility.yul\":1529:1541   */\n      revert\n        /* \"#utility.yul\":1676:1802   */\n    tag_338:\n        /* \"#utility.yul\":1713:1720   */\n      0x00\n        /* \"#utility.yul\":1753:1795   */\n      0xffffffffffffffffffffffffffffffffffffffff\n        /* \"#utility.yul\":1746:1751   */\n      dup3\n        /* \"#utility.yul\":1742:1796   */\n      and\n        /* \"#utility.yul\":1731:1796   */\n      swap1\n      pop\n        /* \"#utility.yul\":1676:1802   */\n      swap2\n      swap1\n      pop\n      jump\t// out\n        /* \"#utility.yul\":1808:1904   */\n    tag_339:\n        /* \"#utility.yul\":1845:1852   */\n      0x00\n        /* \"#utility.yul\":1874:1898   */\n      tag_398\n        /* \"#utility.yul\":1892:1897   */\n      dup3\n        /* \"#utility.yul\":1874:1898   */\n      tag_338\n      jump\t// in\n    tag_398:\n        /* \"#utility.yul\":1863:1898   */\n      swap1\n      pop\n        /* \"#utility.yul\":1808:1904   */\n      swap2\n      swap1\n      pop\n      jump\t// out\n        /* \"#utility.yul\":1910:2032   */\n    tag_340:\n        /* \"#utility.yul\":1983:2007   */\n      tag_400\n        /* \"#utility.yul\":2001:2006   */\n      dup2\n        /* \"#utility.yul\":1983:2007   */\n      tag_339\n      jump\t// in\n    tag_400:\n        /* \"#utility.yul\":1976:1981   */\n      dup2\n        /* \"#utility.yul\":1973:2008   */\n      eq\n        /* \"#utility.yul\":1963:2026   */\n      tag_401\n      jumpi\n        /* \"#utility.yul\":2022:2023   */\n      0x00\n        /* \"#utility.yul\":2019:2020   */\n      dup1\n        /* \"#utility.yul\":2012:2024   */\n      revert\n        /* \"#utility.yul\":1963:2026   */\n    tag_401:\n        /* \"#utility.yul\":1910:2032   */\n      pop\n      jump\t// out\n        /* \"#utility.yul\":2038:2177   */\n    tag_341:\n        /* \"#utility.yul\":2084:2089   */\n      0x00\n        /* \"#utility.yul\":2122:2128   */\n      dup2\n        /* \"#utility.yul\":2109:2129   */\n      calldataload\n        /* \"#utility.yul\":2100:2129   */\n      swap1\n      pop\n        /* \"#utility.yul\":2138:2171   */\n      tag_403\n        /* \"#utility.yul\":2165:2170   */\n      dup2\n        /* \"#utility.yul\":2138:2171   */\n      tag_340\n      jump\t// in\n    tag_403:\n        /* \"#utility.yul\":2038:2177   */\n      swap3\n      swap2\n      pop\n      pop\n      jump\t// out\n        /* \"#utility.yul\":2183:2512   */\n    tag_48:\n        /* \"#utility.yul\":2242:2248   */\n      0x00\n        /* \"#utility.yul\":2291:2293   */\n      0x20\n        /* \"#utility.yul\":2279:2288   */\n      dup3\n        /* \"#utility.yul\":2270:2277   */\n      dup5\n        /* \"#utility.yul\":2266:2289   */\n      sub\n        /* \"#utility.yul\":2262:2294   */\n      slt\n        /* \"#utility.yul\":2259:2378   */\n      iszero\n      tag_405\n      jumpi\n        /* \"#utility.yul\":2297:2376   */\n      tag_406\n      tag_336\n      jump\t// in\n    tag_406:\n        /* \"#utility.yul\":2259:2378   */\n    tag_405:\n        /* \"#utility.yul\":2417:2418   */\n      0x00\n        /* \"#utility.yul\":2442:2495   */\n      tag_407\n        /* \"#utility.yul\":2487:2494   */\n      dup5\n        /* \"#utility.yul\":2478:2484   */\n      dup3\n        /* \"#utility.yul\":2467:2476   */\n      dup6\n        /* \"#utility.yul\":2463:2485   */\n      add\n        /* \"#utility.yul\":2442:2495   */\n      tag_341\n      jump\t// in\n    tag_407:\n        /* \"#utility.yul\":2432:2495   */\n      swap2\n      pop\n        /* \"#utility.yul\":2388:2505   */\n      pop\n        /* \"#utility.yul\":2183:2512   */\n      swap3\n      swap2\n      pop\n      pop\n      jump\t// out\n        /* \"#utility.yul\":2518:2595   */\n    tag_342:\n        /* \"#utility.yul\":2555:2562   */\n      0x00\n        /* \"#utility.yul\":2584:2589   */\n      dup2\n        /* \"#utility.yul\":2573:2589   */\n      swap1\n      pop\n        /* \"#utility.yul\":2518:2595   */\n      swap2\n      swap1\n      pop\n      jump\t// out\n        /* \"#utility.yul\":2601:2723   */\n    tag_343:\n        /* \"#utility.yul\":2674:2698   */\n      tag_410\n        /* \"#utility.yul\":2692:2697   */\n      dup2\n        /* \"#utility.yul\":2674:2698   */\n      tag_342\n      jump\t// in\n    tag_410:\n        /* \"#utility.yul\":2667:2672   */\n      dup2\n        /* \"#utility.yul\":2664:2699   */\n      eq\n        /* \"#utility.yul\":2654:2717   */\n      tag_411\n      jumpi\n        /* \"#utility.yul\":2713:2714   */\n      0x00\n        /* \"#utility.yul\":2710:2711   */\n      dup1\n        /* \"#utility.yul\":2703:2715   */\n      revert\n        /* \"#utility.yul\":2654:2717   */\n    tag_411:\n        /* \"#utility.yul\":2601:2723   */\n      pop\n      jump\t// out\n        /* \"#utility.yul\":2729:2868   */\n    tag_344:\n        /* \"#utility.yul\":2775:2780   */\n      0x00\n        /* \"#utility.yul\":2813:2819   */\n      dup2\n        /* \"#utility.yul\":2800:2820   */\n      calldataload\n        /* \"#utility.yul\":2791:2820   */\n      swap1\n      pop\n        /* \"#utility.yul\":2829:2862   */\n      tag_413\n        /* \"#utility.yul\":2856:2861   */\n      dup2\n        /* \"#utility.yul\":2829:2862   */\n      tag_343\n      jump\t// in\n    tag_413:\n        /* \"#utility.yul\":2729:2868   */\n      swap3\n      swap2\n      pop\n      pop\n      jump\t// out\n        /* \"#utility.yul\":2874:3348   */\n    tag_53:\n        /* \"#utility.yul\":2942:2948   */\n      0x00\n        /* \"#utility.yul\":2950:2956   */\n      dup1\n        /* \"#utility.yul\":2999:3001   */\n      0x40\n        /* \"#utility.yul\":2987:2996   */\n      dup4\n        /* \"#utility.yul\":2978:2985   */\n      dup6\n        /* \"#utility.yul\":2974:2997   */\n      sub\n        /* \"#utility.yul\":2970:3002   */\n      slt\n        /* \"#utility.yul\":2967:3086   */\n      iszero\n      tag_415\n      jumpi\n        /* \"#utility.yul\":3005:3084   */\n      tag_416\n      tag_336\n      jump\t// in\n    tag_416:\n        /* \"#utility.yul\":2967:3086   */\n    tag_415:\n        /* \"#utility.yul\":3125:3126   */\n      0x00\n        /* \"#utility.yul\":3150:3203   */\n      tag_417\n        /* \"#utility.yul\":3195:3202   */\n      dup6\n        /* \"#utility.yul\":3186:3192   */\n      dup3\n        /* \"#utility.yul\":3175:3184   */\n      dup7\n        /* \"#utility.yul\":3171:3193   */\n      add\n        /* \"#utility.yul\":3150:3203   */\n      tag_341\n      jump\t// in\n    tag_417:\n        /* \"#utility.yul\":3140:3203   */\n      swap3\n      pop\n        /* \"#utility.yul\":3096:3213   */\n      pop\n        /* \"#utility.yul\":3252:3254   */\n      0x20\n        /* \"#utility.yul\":3278:3331   */\n      tag_418\n        /* \"#utility.yul\":3323:3330   */\n      dup6\n        /* \"#utility.yul\":3314:3320   */\n      dup3\n        /* \"#utility.yul\":3303:3312   */\n      dup7\n        /* \"#utility.yul\":3299:3321   */\n      add\n        /* \"#utility.yul\":3278:3331   */\n      tag_344\n      jump\t// in\n    tag_418:\n        /* \"#utility.yul\":3268:3331   */\n      swap2\n      pop\n        /* \"#utility.yul\":3223:3341   */\n      pop\n        /* \"#utility.yul\":2874:3348   */\n      swap3\n      pop\n      swap3\n      swap1\n      pop\n      jump\t// out\n        /* \"#utility.yul\":3354:3444   */\n    tag_345:\n        /* \"#utility.yul\":3388:3395   */\n      0x00\n        /* \"#utility.yul\":3431:3436   */\n      dup2\n        /* \"#utility.yul\":3424:3437   */\n      iszero\n        /* \"#utility.yul\":3417:3438   */\n      iszero\n        /* \"#utility.yul\":3406:3438   */\n      swap1\n      pop\n        /* \"#utility.yul\":3354:3444   */\n      swap2\n      swap1\n      pop\n      jump\t// out\n        /* \"#utility.yul\":3450:3559   */\n    tag_346:\n        /* \"#utility.yul\":3531:3552   */\n      tag_421\n        /* \"#utility.yul\":3546:3551   */\n      dup2\n        /* \"#utility.yul\":3531:3552   */\n      tag_345\n      jump\t// in\n    tag_421:\n        /* \"#utility.yul\":3526:3529   */\n      dup3\n        /* \"#utility.yul\":3519:3553   */\n      mstore\n        /* \"#utility.yul\":3450:3559   */\n      pop\n      pop\n      jump\t// out\n        /* \"#utility.yul\":3565:3775   */\n    tag_56:\n        /* \"#utility.yul\":3652:3656   */\n      0x00\n        /* \"#utility.yul\":3690:3692   */\n      0x20\n        /* \"#utility.yul\":3679:3688   */\n      dup3\n        /* \"#utility.yul\":3675:3693   */\n      add\n        /* \"#utility.yul\":3667:3693   */\n      swap1\n      pop\n        /* \"#utility.yul\":3703:3768   */\n      tag_423\n        /* \"#utility.yul\":3765:3766   */\n      0x00\n        /* \"#utility.yul\":3754:3763   */\n      dup4\n        /* \"#utility.yul\":3750:3767   */\n      add\n        /* \"#utility.yul\":3741:3747   */\n      dup5\n        /* \"#utility.yul\":3703:3768   */\n      tag_346\n      jump\t// in\n    tag_423:\n        /* \"#utility.yul\":3565:3775   */\n      swap3\n      swap2\n      pop\n      pop\n      jump\t// out\n        /* \"#utility.yul\":3781:3899   */\n    tag_347:\n        /* \"#utility.yul\":3868:3892   */\n      tag_425\n        /* \"#utility.yul\":3886:3891   */\n      dup2\n        /* \"#utility.yul\":3868:3892   */\n      tag_342\n      jump\t// in\n    tag_425:\n        /* \"#utility.yul\":3863:3866   */\n      dup3\n        /* \"#utility.yul\":3856:3893   */\n      mstore\n        /* \"#utility.yul\":3781:3899   */\n      pop\n      pop\n      jump\t// out\n        /* \"#utility.yul\":3905:5124   */\n    tag_62:\n        /* \"#utility.yul\":4250:4254   */\n      0x00\n        /* \"#utility.yul\":4288:4291   */\n      0x0140\n        /* \"#utility.yul\":4277:4286   */\n      dup3\n        /* \"#utility.yul\":4273:4292   */\n      add\n        /* \"#utility.yul\":4265:4292   */\n      swap1\n      pop\n        /* \"#utility.yul\":4302:4373   */\n      tag_427\n        /* \"#utility.yul\":4370:4371   */\n      0x00\n        /* \"#utility.yul\":4359:4368   */\n      dup4\n        /* \"#utility.yul\":4355:4372   */\n      add\n        /* \"#utility.yul\":4346:4352   */\n      dup14\n        /* \"#utility.yul\":4302:4373   */\n      tag_347\n      jump\t// in\n    tag_427:\n        /* \"#utility.yul\":4383:4455   */\n      tag_428\n        /* \"#utility.yul\":4451:4453   */\n      0x20\n        /* \"#utility.yul\":4440:4449   */\n      dup4\n        /* \"#utility.yul\":4436:4454   */\n      add\n        /* \"#utility.yul\":4427:4433   */\n      dup13\n        /* \"#utility.yul\":4383:4455   */\n      tag_347\n      jump\t// in\n    tag_428:\n        /* \"#utility.yul\":4465:4537   */\n      tag_429\n        /* \"#utility.yul\":4533:4535   */\n      0x40\n        /* \"#utility.yul\":4522:4531   */\n      dup4\n        /* \"#utility.yul\":4518:4536   */\n      add\n        /* \"#utility.yul\":4509:4515   */\n      dup12\n        /* \"#utility.yul\":4465:4537   */\n      tag_347\n      jump\t// in\n    tag_429:\n        /* \"#utility.yul\":4547:4619   */\n      tag_430\n        /* \"#utility.yul\":4615:4617   */\n      0x60\n        /* \"#utility.yul\":4604:4613   */\n      dup4\n        /* \"#utility.yul\":4600:4618   */\n      add\n        /* \"#utility.yul\":4591:4597   */\n      dup11\n        /* \"#utility.yul\":4547:4619   */\n      tag_347\n      jump\t// in\n    tag_430:\n        /* \"#utility.yul\":4629:4702   */\n      tag_431\n        /* \"#utility.yul\":4697:4700   */\n      0x80\n        /* \"#utility.yul\":4686:4695   */\n      dup4\n        /* \"#utility.yul\":4682:4701   */\n      add\n        /* \"#utility.yul\":4673:4679   */\n      dup10\n        /* \"#utility.yul\":4629:4702   */\n      tag_347\n      jump\t// in\n    tag_431:\n        /* \"#utility.yul\":4712:4785   */\n      tag_432\n        /* \"#utility.yul\":4780:4783   */\n      0xa0\n        /* \"#utility.yul\":4769:4778   */\n      dup4\n        /* \"#utility.yul\":4765:4784   */\n      add\n        /* \"#utility.yul\":4756:4762   */\n      dup9\n        /* \"#utility.yul\":4712:4785   */\n      tag_347\n      jump\t// in\n    tag_432:\n        /* \"#utility.yul\":4795:4868   */\n      tag_433\n        /* \"#utility.yul\":4863:4866   */\n      0xc0\n        /* \"#utility.yul\":4852:4861   */\n      dup4\n        /* \"#utility.yul\":4848:4867   */\n      add\n        /* \"#utility.yul\":4839:4845   */\n      dup8\n        /* \"#utility.yul\":4795:4868   */\n      tag_347\n      jump\t// in\n    tag_433:\n        /* \"#utility.yul\":4878:4951   */\n      tag_434\n        /* \"#utility.yul\":4946:4949   */\n      0xe0\n        /* \"#utility.yul\":4935:4944   */\n      dup4\n        /* \"#utility.yul\":4931:4950   */\n      add\n        /* \"#utility.yul\":4922:4928   */\n      dup7\n        /* \"#utility.yul\":4878:4951   */\n      tag_347\n      jump\t// in\n    tag_434:\n        /* \"#utility.yul\":4961:5034   */\n      tag_435\n        /* \"#utility.yul\":5029:5032   */\n      0x0100\n        /* \"#utility.yul\":5018:5027   */\n      dup4\n        /* \"#utility.yul\":5014:5033   */\n      add\n        /* \"#utility.yul\":5005:5011   */\n      dup6\n        /* \"#utility.yul\":4961:5034   */\n      tag_347\n      jump\t// in\n    tag_435:\n        /* \"#utility.yul\":5044:5117   */\n      tag_436\n        /* \"#utility.yul\":5112:5115   */\n      0x0120\n        /* \"#utility.yul\":5101:5110   */\n      dup4\n        /* \"#utility.yul\":5097:5116   */\n      add\n        /* \"#utility.yul\":5088:5094   */\n      dup5\n        /* \"#utility.yul\":5044:5117   */\n      tag_347\n      jump\t// in\n    tag_436:\n        /* \"#utility.yul\":3905:5124   */\n      swap12\n      swap11\n      pop\n      pop\n      pop\n      pop\n      pop\n      pop\n      pop\n      pop\n      pop\n      pop\n      pop\n      jump\t// out\n        /* \"#utility.yul\":5130:5352   */\n    tag_67:\n        /* \"#utility.yul\":5223:5227   */\n      0x00\n        /* \"#utility.yul\":5261:5263   */\n      0x20\n        /* \"#utility.yul\":5250:5259   */\n      dup3\n        /* \"#utility.yul\":5246:5264   */\n      add\n        /* \"#utility.yul\":5238:5264   */\n      swap1\n      pop\n        /* \"#utility.yul\":5274:5345   */\n      tag_438\n        /* \"#utility.yul\":5342:5343   */\n      0x00\n        /* \"#utility.yul\":5331:5340   */\n      dup4\n        /* \"#utility.yul\":5327:5344   */\n      add\n        /* \"#utility.yul\":5318:5324   */\n      dup5\n        /* \"#utility.yul\":5274:5345   */\n      tag_347\n      jump\t// in\n    tag_438:\n        /* \"#utility.yul\":5130:5352   */\n      swap3\n      swap2\n      pop\n      pop\n      jump\t// out\n        /* \"#utility.yul\":5358:5977   */\n    tag_75:\n        /* \"#utility.yul\":5435:5441   */\n      0x00\n        /* \"#utility.yul\":5443:5449   */\n      dup1\n        /* \"#utility.yul\":5451:5457   */\n      0x00\n        /* \"#utility.yul\":5500:5502   */\n      0x60\n        /* \"#utility.yul\":5488:5497   */\n      dup5\n        /* \"#utility.yul\":5479:5486   */\n      dup7\n        /* \"#utility.yul\":5475:5498   */\n      sub\n        /* \"#utility.yul\":5471:5503   */\n      slt\n        /* \"#utility.yul\":5468:5587   */\n      iszero\n      tag_440\n      jumpi\n        /* \"#utility.yul\":5506:5585   */\n      tag_441\n      tag_336\n      jump\t// in\n    tag_441:\n        /* \"#utility.yul\":5468:5587   */\n    tag_440:\n        /* \"#utility.yul\":5626:5627   */\n      0x00\n        /* \"#utility.yul\":5651:5704   */\n      tag_442\n        /* \"#utility.yul\":5696:5703   */\n      dup7\n        /* \"#utility.yul\":5687:5693   */\n      dup3\n        /* \"#utility.yul\":5676:5685   */\n      dup8\n        /* \"#utility.yul\":5672:5694   */\n      add\n        /* \"#utility.yul\":5651:5704   */\n      tag_341\n      jump\t// in\n    tag_442:\n        /* \"#utility.yul\":5641:5704   */\n      swap4\n      pop\n        /* \"#utility.yul\":5597:5714   */\n      pop\n        /* \"#utility.yul\":5753:5755   */\n      0x20\n        /* \"#utility.yul\":5779:5832   */\n      tag_443\n        /* \"#utility.yul\":5824:5831   */\n      dup7\n        /* \"#utility.yul\":5815:5821   */\n      dup3\n        /* \"#utility.yul\":5804:5813   */\n      dup8\n        /* \"#utility.yul\":5800:5822   */\n      add\n        /* \"#utility.yul\":5779:5832   */\n      tag_341\n      jump\t// in\n    tag_443:\n        /* \"#utility.yul\":5769:5832   */\n      swap3\n      pop\n        /* \"#utility.yul\":5724:5842   */\n      pop\n        /* \"#utility.yul\":5881:5883   */\n      0x40\n        /* \"#utility.yul\":5907:5960   */\n      tag_444\n        /* \"#utility.yul\":5952:5959   */\n      dup7\n        /* \"#utility.yul\":5943:5949   */\n      dup3\n        /* \"#utility.yul\":5932:5941   */\n      dup8\n        /* \"#utility.yul\":5928:5950   */\n      add\n        /* \"#utility.yul\":5907:5960   */\n      tag_344\n      jump\t// in\n    tag_444:\n        /* \"#utility.yul\":5897:5960   */\n      swap2\n      pop\n        /* \"#utility.yul\":5852:5970   */\n      pop\n        /* \"#utility.yul\":5358:5977   */\n      swap3\n      pop\n      swap3\n      pop\n      swap3\n      jump\t// out\n        /* \"#utility.yul\":5983:6069   */\n    tag_348:\n        /* \"#utility.yul\":6018:6025   */\n      0x00\n        /* \"#utility.yul\":6058:6062   */\n      0xff\n        /* \"#utility.yul\":6051:6056   */\n      dup3\n        /* \"#utility.yul\":6047:6063   */\n      and\n        /* \"#utility.yul\":6036:6063   */\n      swap1\n      pop\n        /* \"#utility.yul\":5983:6069   */\n      swap2\n      swap1\n      pop\n      jump\t// out\n        /* \"#utility.yul\":6075:6187   */\n    tag_349:\n        /* \"#utility.yul\":6158:6180   */\n      tag_447\n        /* \"#utility.yul\":6174:6179   */\n      dup2\n        /* \"#utility.yul\":6158:6180   */\n      tag_348\n      jump\t// in\n    tag_447:\n        /* \"#utility.yul\":6153:6156   */\n      dup3\n        /* \"#utility.yul\":6146:6181   */\n      mstore\n        /* \"#utility.yul\":6075:6187   */\n      pop\n      pop\n      jump\t// out\n        /* \"#utility.yul\":6193:6407   */\n    tag_91:\n        /* \"#utility.yul\":6282:6286   */\n      0x00\n        /* \"#utility.yul\":6320:6322   */\n      0x20\n        /* \"#utility.yul\":6309:6318   */\n      dup3\n        /* \"#utility.yul\":6305:6323   */\n      add\n        /* \"#utility.yul\":6297:6323   */\n      swap1\n      pop\n        /* \"#utility.yul\":6333:6400   */\n      tag_449\n        /* \"#utility.yul\":6397:6398   */\n      0x00\n        /* \"#utility.yul\":6386:6395   */\n      dup4\n        /* \"#utility.yul\":6382:6399   */\n      add\n        /* \"#utility.yul\":6373:6379   */\n      dup5\n        /* \"#utility.yul\":6333:6400   */\n      tag_349\n      jump\t// in\n    tag_449:\n        /* \"#utility.yul\":6193:6407   */\n      swap3\n      swap2\n      pop\n      pop\n      jump\t// out\n        /* \"#utility.yul\":6413:6531   */\n    tag_350:\n        /* \"#utility.yul\":6500:6524   */\n      tag_451\n        /* \"#utility.yul\":6518:6523   */\n      dup2\n        /* \"#utility.yul\":6500:6524   */\n      tag_339\n      jump\t// in\n    tag_451:\n        /* \"#utility.yul\":6495:6498   */\n      dup3\n        /* \"#utility.yul\":6488:6525   */\n      mstore\n        /* \"#utility.yul\":6413:6531   */\n      pop\n      pop\n      jump\t// out\n        /* \"#utility.yul\":6537:6759   */\n    tag_130:\n        /* \"#utility.yul\":6630:6634   */\n      0x00\n        /* \"#utility.yul\":6668:6670   */\n      0x20\n        /* \"#utility.yul\":6657:6666   */\n      dup3\n        /* \"#utility.yul\":6653:6671   */\n      add\n        /* \"#utility.yul\":6645:6671   */\n      swap1\n      pop\n        /* \"#utility.yul\":6681:6752   */\n      tag_453\n        /* \"#utility.yul\":6749:6750   */\n      0x00\n        /* \"#utility.yul\":6738:6747   */\n      dup4\n        /* \"#utility.yul\":6734:6751   */\n      add\n        /* \"#utility.yul\":6725:6731   */\n      dup5\n        /* \"#utility.yul\":6681:6752   */\n      tag_350\n      jump\t// in\n    tag_453:\n        /* \"#utility.yul\":6537:6759   */\n      swap3\n      swap2\n      pop\n      pop\n      jump\t// out\n        /* \"#utility.yul\":6765:7239   */\n    tag_162:\n        /* \"#utility.yul\":6833:6839   */\n      0x00\n        /* \"#utility.yul\":6841:6847   */\n      dup1\n        /* \"#utility.yul\":6890:6892   */\n      0x40\n        /* \"#utility.yul\":6878:6887   */\n      dup4\n        /* \"#utility.yul\":6869:6876   */\n      dup6\n        /* \"#utility.yul\":6865:6888   */\n      sub\n        /* \"#utility.yul\":6861:6893   */\n      slt\n        /* \"#utility.yul\":6858:6977   */\n      iszero\n      tag_455\n      jumpi\n        /* \"#utility.yul\":6896:6975   */\n      tag_456\n      tag_336\n      jump\t// in\n    tag_456:\n        /* \"#utility.yul\":6858:6977   */\n    tag_455:\n        /* \"#utility.yul\":7016:7017   */\n      0x00\n        /* \"#utility.yul\":7041:7094   */\n      tag_457\n        /* \"#utility.yul\":7086:7093   */\n      dup6\n        /* \"#utility.yul\":7077:7083   */\n      dup3\n        /* \"#utility.yul\":7066:7075   */\n      dup7\n        /* \"#utility.yul\":7062:7084   */\n      add\n        /* \"#utility.yul\":7041:7094   */\n      tag_341\n      jump\t// in\n    tag_457:\n        /* \"#utility.yul\":7031:7094   */\n      swap3\n      pop\n        /* \"#utility.yul\":6987:7104   */\n      pop\n        /* \"#utility.yul\":7143:7145   */\n      0x20\n        /* \"#utility.yul\":7169:7222   */\n      tag_458\n        /* \"#utility.yul\":7214:7221   */\n      dup6\n        /* \"#utility.yul\":7205:7211   */\n      dup3\n        /* \"#utility.yul\":7194:7203   */\n      dup7\n        /* \"#utility.yul\":7190:7212   */\n      add\n        /* \"#utility.yul\":7169:7222   */\n      tag_341\n      jump\t// in\n    tag_458:\n        /* \"#utility.yul\":7159:7222   */\n      swap2\n      pop\n        /* \"#utility.yul\":7114:7232   */\n      pop\n        /* \"#utility.yul\":6765:7239   */\n      swap3\n      pop\n      swap3\n      swap1\n      pop\n      jump\t// out\n        /* \"#utility.yul\":7245:7869   */\n    tag_170:\n        /* \"#utility.yul\":7434:7438   */\n      0x00\n        /* \"#utility.yul\":7472:7474   */\n      0x60\n        /* \"#utility.yul\":7461:7470   */\n      dup3\n        /* \"#utility.yul\":7457:7475   */\n      add\n        /* \"#utility.yul\":7449:7475   */\n      swap1\n      pop\n        /* \"#utility.yul\":7521:7530   */\n      dup2\n        /* \"#utility.yul\":7515:7519   */\n      dup2\n        /* \"#utility.yul\":7511:7531   */\n      sub\n        /* \"#utility.yul\":7507:7508   */\n      0x00\n        /* \"#utility.yul\":7496:7505   */\n      dup4\n        /* \"#utility.yul\":7492:7509   */\n      add\n        /* \"#utility.yul\":7485:7532   */\n      mstore\n        /* \"#utility.yul\":7549:7627   */\n      tag_460\n        /* \"#utility.yul\":7622:7626   */\n      dup2\n        /* \"#utility.yul\":7613:7619   */\n      dup7\n        /* \"#utility.yul\":7549:7627   */\n      tag_334\n      jump\t// in\n    tag_460:\n        /* \"#utility.yul\":7541:7627   */\n      swap1\n      pop\n        /* \"#utility.yul\":7674:7683   */\n      dup2\n        /* \"#utility.yul\":7668:7672   */\n      dup2\n        /* \"#utility.yul\":7664:7684   */\n      sub\n        /* \"#utility.yul\":7659:7661   */\n      0x20\n        /* \"#utility.yul\":7648:7657   */\n      dup4\n        /* \"#utility.yul\":7644:7662   */\n      add\n        /* \"#utility.yul\":7637:7685   */\n      mstore\n        /* \"#utility.yul\":7702:7780   */\n      tag_461\n        /* \"#utility.yul\":7775:7779   */\n      dup2\n        /* \"#utility.yul\":7766:7772   */\n      dup6\n        /* \"#utility.yul\":7702:7780   */\n      tag_334\n      jump\t// in\n    tag_461:\n        /* \"#utility.yul\":7694:7780   */\n      swap1\n      pop\n        /* \"#utility.yul\":7790:7862   */\n      tag_462\n        /* \"#utility.yul\":7858:7860   */\n      0x40\n        /* \"#utility.yul\":7847:7856   */\n      dup4\n        /* \"#utility.yul\":7843:7861   */\n      add\n        /* \"#utility.yul\":7834:7840   */\n      dup5\n        /* \"#utility.yul\":7790:7862   */\n      tag_347\n      jump\t// in\n    tag_462:\n        /* \"#utility.yul\":7245:7869   */\n      swap5\n      swap4\n      pop\n      pop\n      pop\n      pop\n      jump\t// out\n        /* \"#utility.yul\":7875:8055   */\n    tag_351:\n        /* \"#utility.yul\":7923:8000   */\n      0x4e487b7100000000000000000000000000000000000000000000000000000000\n        /* \"#utility.yul\":7920:7921   */\n      0x00\n        /* \"#utility.yul\":7913:8001   */\n      mstore\n        /* \"#utility.yul\":8020:8024   */\n      0x22\n        /* \"#utility.yul\":8017:8018   */\n      0x04\n        /* \"#utility.yul\":8010:8025   */\n      mstore\n        /* \"#utility.yul\":8044:8048   */\n      0x24\n        /* \"#utility.yul\":8041:8042   */\n      0x00\n        /* \"#utility.yul\":8034:8049   */\n      revert\n        /* \"#utility.yul\":8061:8381   */\n    tag_181:\n        /* \"#utility.yul\":8105:8111   */\n      0x00\n        /* \"#utility.yul\":8142:8143   */\n      0x02\n        /* \"#utility.yul\":8136:8140   */\n      dup3\n        /* \"#utility.yul\":8132:8144   */\n      div\n        /* \"#utility.yul\":8122:8144   */\n      swap1\n      pop\n        /* \"#utility.yul\":8189:8190   */\n      0x01\n        /* \"#utility.yul\":8183:8187   */\n      dup3\n        /* \"#utility.yul\":8179:8191   */\n      and\n        /* \"#utility.yul\":8210:8228   */\n      dup1\n        /* \"#utility.yul\":8200:8281   */\n      tag_465\n      jumpi\n        /* \"#utility.yul\":8266:8270   */\n      0x7f\n        /* \"#utility.yul\":8258:8264   */\n      dup3\n        /* \"#utility.yul\":8254:8271   */\n      and\n        /* \"#utility.yul\":8244:8271   */\n      swap2\n      pop\n        /* \"#utility.yul\":8200:8281   */\n    tag_465:\n        /* \"#utility.yul\":8328:8330   */\n      0x20\n        /* \"#utility.yul\":8320:8326   */\n      dup3\n        /* \"#utility.yul\":8317:8331   */\n      lt\n        /* \"#utility.yul\":8297:8315   */\n      dup2\n        /* \"#utility.yul\":8294:8332   */\n      sub\n        /* \"#utility.yul\":8291:8375   */\n      tag_466\n      jumpi\n        /* \"#utility.yul\":8347:8365   */\n      tag_467\n      tag_351\n      jump\t// in\n    tag_467:\n        /* \"#utility.yul\":8291:8375   */\n    tag_466:\n        /* \"#utility.yul\":8112:8381   */\n      pop\n        /* \"#utility.yul\":8061:8381   */\n      swap2\n      swap1\n      pop\n      jump\t// out\n        /* \"#utility.yul\":8387:8567   */\n    tag_352:\n        /* \"#utility.yul\":8435:8512   */\n      0x4e487b7100000000000000000000000000000000000000000000000000000000\n        /* \"#utility.yul\":8432:8433   */\n      0x00\n        /* \"#utility.yul\":8425:8513   */\n      mstore\n        /* \"#utility.yul\":8532:8536   */\n      0x11\n        /* \"#utility.yul\":8529:8530   */\n      0x04\n        /* \"#utility.yul\":8522:8537   */\n      mstore\n        /* \"#utility.yul\":8556:8560   */\n      0x24\n        /* \"#utility.yul\":8553:8554   */\n      0x00\n        /* \"#utility.yul\":8546:8561   */\n      revert\n        /* \"#utility.yul\":8573:8764   */\n    tag_209:\n        /* \"#utility.yul\":8613:8616   */\n      0x00\n        /* \"#utility.yul\":8632:8652   */\n      tag_470\n        /* \"#utility.yul\":8650:8651   */\n      dup3\n        /* \"#utility.yul\":8632:8652   */\n      tag_342\n      jump\t// in\n    tag_470:\n        /* \"#utility.yul\":8627:8652   */\n      swap2\n      pop\n        /* \"#utility.yul\":8666:8686   */\n      tag_471\n        /* \"#utility.yul\":8684:8685   */\n      dup4\n        /* \"#utility.yul\":8666:8686   */\n      tag_342\n      jump\t// in\n    tag_471:\n        /* \"#utility.yul\":8661:8686   */\n      swap3\n      pop\n        /* \"#utility.yul\":8709:8710   */\n      dup3\n        /* \"#utility.yul\":8706:8707   */\n      dup3\n        /* \"#utility.yul\":8702:8711   */\n      add\n        /* \"#utility.yul\":8695:8711   */\n      swap1\n      pop\n        /* \"#utility.yul\":8730:8733   */\n      dup1\n        /* \"#utility.yul\":8727:8728   */\n      dup3\n        /* \"#utility.yul\":8724:8734   */\n      gt\n        /* \"#utility.yul\":8721:8757   */\n      iszero\n      tag_472\n      jumpi\n        /* \"#utility.yul\":8737:8755   */\n      tag_473\n      tag_352\n      jump\t// in\n    tag_473:\n        /* \"#utility.yul\":8721:8757   */\n    tag_472:\n        /* \"#utility.yul\":8573:8764   */\n      swap3\n      swap2\n      pop\n      pop\n      jump\t// out\n        /* \"#utility.yul\":8770:8995   */\n    tag_353:\n        /* \"#utility.yul\":8910:8944   */\n      0x4f6e6c79207468652074656e616e742063616e2063616c6c2074686973206675\n        /* \"#utility.yul\":8906:8907   */\n      0x00\n        /* \"#utility.yul\":8898:8904   */\n      dup3\n        /* \"#utility.yul\":8894:8908   */\n      add\n        /* \"#utility.yul\":8887:8945   */\n      mstore\n        /* \"#utility.yul\":8979:8987   */\n      0x6e6374696f6e0000000000000000000000000000000000000000000000000000\n        /* \"#utility.yul\":8974:8976   */\n      0x20\n        /* \"#utility.yul\":8966:8972   */\n      dup3\n        /* \"#utility.yul\":8962:8977   */\n      add\n        /* \"#utility.yul\":8955:8988   */\n      mstore\n        /* \"#utility.yul\":8770:8995   */\n      pop\n      jump\t// out\n        /* \"#utility.yul\":9001:9367   */\n    tag_354:\n        /* \"#utility.yul\":9143:9146   */\n      0x00\n        /* \"#utility.yul\":9164:9231   */\n      tag_476\n        /* \"#utility.yul\":9228:9230   */\n      0x26\n        /* \"#utility.yul\":9223:9226   */\n      dup4\n        /* \"#utility.yul\":9164:9231   */\n      tag_331\n      jump\t// in\n    tag_476:\n        /* \"#utility.yul\":9157:9231   */\n      swap2\n      pop\n        /* \"#utility.yul\":9240:9333   */\n      tag_477\n        /* \"#utility.yul\":9329:9332   */\n      dup3\n        /* \"#utility.yul\":9240:9333   */\n      tag_353\n      jump\t// in\n    tag_477:\n        /* \"#utility.yul\":9358:9360   */\n      0x40\n        /* \"#utility.yul\":9353:9356   */\n      dup3\n        /* \"#utility.yul\":9349:9361   */\n      add\n        /* \"#utility.yul\":9342:9361   */\n      swap1\n      pop\n        /* \"#utility.yul\":9001:9367   */\n      swap2\n      swap1\n      pop\n      jump\t// out\n        /* \"#utility.yul\":9373:9792   */\n    tag_213:\n        /* \"#utility.yul\":9539:9543   */\n      0x00\n        /* \"#utility.yul\":9577:9579   */\n      0x20\n        /* \"#utility.yul\":9566:9575   */\n      dup3\n        /* \"#utility.yul\":9562:9580   */\n      add\n        /* \"#utility.yul\":9554:9580   */\n      swap1\n      pop\n        /* \"#utility.yul\":9626:9635   */\n      dup2\n        /* \"#utility.yul\":9620:9624   */\n      dup2\n        /* \"#utility.yul\":9616:9636   */\n      sub\n        /* \"#utility.yul\":9612:9613   */\n      0x00\n        /* \"#utility.yul\":9601:9610   */\n      dup4\n        /* \"#utility.yul\":9597:9614   */\n      add\n        /* \"#utility.yul\":9590:9637   */\n      mstore\n        /* \"#utility.yul\":9654:9785   */\n      tag_479\n        /* \"#utility.yul\":9780:9784   */\n      dup2\n        /* \"#utility.yul\":9654:9785   */\n      tag_354\n      jump\t// in\n    tag_479:\n        /* \"#utility.yul\":9646:9785   */\n      swap1\n      pop\n        /* \"#utility.yul\":9373:9792   */\n      swap2\n      swap1\n      pop\n      jump\t// out\n        /* \"#utility.yul\":9798:9977   */\n    tag_355:\n        /* \"#utility.yul\":9938:9969   */\n      0x4465706f73697420616d6f756e7420646f6573206e6f74206d61746368000000\n        /* \"#utility.yul\":9934:9935   */\n      0x00\n        /* \"#utility.yul\":9926:9932   */\n      dup3\n        /* \"#utility.yul\":9922:9936   */\n      add\n        /* \"#utility.yul\":9915:9970   */\n      mstore\n        /* \"#utility.yul\":9798:9977   */\n      pop\n      jump\t// out\n        /* \"#utility.yul\":9983:10349   */\n    tag_356:\n        /* \"#utility.yul\":10125:10128   */\n      0x00\n        /* \"#utility.yul\":10146:10213   */\n      tag_482\n        /* \"#utility.yul\":10210:10212   */\n      0x1d\n        /* \"#utility.yul\":10205:10208   */\n      dup4\n        /* \"#utility.yul\":10146:10213   */\n      tag_331\n      jump\t// in\n    tag_482:\n        /* \"#utility.yul\":10139:10213   */\n      swap2\n      pop\n        /* \"#utility.yul\":10222:10315   */\n      tag_483\n        /* \"#utility.yul\":10311:10314   */\n      dup3\n        /* \"#utility.yul\":10222:10315   */\n      tag_355\n      jump\t// in\n    tag_483:\n        /* \"#utility.yul\":10340:10342   */\n      0x20\n        /* \"#utility.yul\":10335:10338   */\n      dup3\n        /* \"#utility.yul\":10331:10343   */\n      add\n        /* \"#utility.yul\":10324:10343   */\n      swap1\n      pop\n        /* \"#utility.yul\":9983:10349   */\n      swap2\n      swap1\n      pop\n      jump\t// out\n        /* \"#utility.yul\":10355:10774   */\n    tag_217:\n        /* \"#utility.yul\":10521:10525   */\n      0x00\n        /* \"#utility.yul\":10559:10561   */\n      0x20\n        /* \"#utility.yul\":10548:10557   */\n      dup3\n        /* \"#utility.yul\":10544:10562   */\n      add\n        /* \"#utility.yul\":10536:10562   */\n      swap1\n      pop\n        /* \"#utility.yul\":10608:10617   */\n      dup2\n        /* \"#utility.yul\":10602:10606   */\n      dup2\n        /* \"#utility.yul\":10598:10618   */\n      sub\n        /* \"#utility.yul\":10594:10595   */\n      0x00\n        /* \"#utility.yul\":10583:10592   */\n      dup4\n        /* \"#utility.yul\":10579:10596   */\n      add\n        /* \"#utility.yul\":10572:10619   */\n      mstore\n        /* \"#utility.yul\":10636:10767   */\n      tag_485\n        /* \"#utility.yul\":10762:10766   */\n      dup2\n        /* \"#utility.yul\":10636:10767   */\n      tag_356\n      jump\t// in\n    tag_485:\n        /* \"#utility.yul\":10628:10767   */\n      swap1\n      pop\n        /* \"#utility.yul\":10355:10774   */\n      swap2\n      swap1\n      pop\n      jump\t// out\n        /* \"#utility.yul\":10780:11004   */\n    tag_357:\n        /* \"#utility.yul\":10920:10954   */\n      0x4f6e6c7920746865206f776e65722063616e2063616c6c20746869732066756e\n        /* \"#utility.yul\":10916:10917   */\n      0x00\n        /* \"#utility.yul\":10908:10914   */\n      dup3\n        /* \"#utility.yul\":10904:10918   */\n      add\n        /* \"#utility.yul\":10897:10955   */\n      mstore\n        /* \"#utility.yul\":10989:10996   */\n      0x6374696f6e000000000000000000000000000000000000000000000000000000\n        /* \"#utility.yul\":10984:10986   */\n      0x20\n        /* \"#utility.yul\":10976:10982   */\n      dup3\n        /* \"#utility.yul\":10972:10987   */\n      add\n        /* \"#utility.yul\":10965:10997   */\n      mstore\n        /* \"#utility.yul\":10780:11004   */\n      pop\n      jump\t// out\n        /* \"#utility.yul\":11010:11376   */\n    tag_358:\n        /* \"#utility.yul\":11152:11155   */\n      0x00\n        /* \"#utility.yul\":11173:11240   */\n      tag_488\n        /* \"#utility.yul\":11237:11239   */\n      0x25\n        /* \"#utility.yul\":11232:11235   */\n      dup4\n        /* \"#utility.yul\":11173:11240   */\n      tag_331\n      jump\t// in\n    tag_488:\n        /* \"#utility.yul\":11166:11240   */\n      swap2\n      pop\n        /* \"#utility.yul\":11249:11342   */\n      tag_489\n        /* \"#utility.yul\":11338:11341   */\n      dup3\n        /* \"#utility.yul\":11249:11342   */\n      tag_357\n      jump\t// in\n    tag_489:\n        /* \"#utility.yul\":11367:11369   */\n      0x40\n        /* \"#utility.yul\":11362:11365   */\n      dup3\n        /* \"#utility.yul\":11358:11370   */\n      add\n        /* \"#utility.yul\":11351:11370   */\n      swap1\n      pop\n        /* \"#utility.yul\":11010:11376   */\n      swap2\n      swap1\n      pop\n      jump\t// out\n        /* \"#utility.yul\":11382:11801   */\n    tag_228:\n        /* \"#utility.yul\":11548:11552   */\n      0x00\n        /* \"#utility.yul\":11586:11588   */\n      0x20\n        /* \"#utility.yul\":11575:11584   */\n      dup3\n        /* \"#utility.yul\":11571:11589   */\n      add\n        /* \"#utility.yul\":11563:11589   */\n      swap1\n      pop\n        /* \"#utility.yul\":11635:11644   */\n      dup2\n        /* \"#utility.yul\":11629:11633   */\n      dup2\n        /* \"#utility.yul\":11625:11645   */\n      sub\n        /* \"#utility.yul\":11621:11622   */\n      0x00\n        /* \"#utility.yul\":11610:11619   */\n      dup4\n        /* \"#utility.yul\":11606:11623   */\n      add\n        /* \"#utility.yul\":11599:11646   */\n      mstore\n        /* \"#utility.yul\":11663:11794   */\n      tag_491\n        /* \"#utility.yul\":11789:11793   */\n      dup2\n        /* \"#utility.yul\":11663:11794   */\n      tag_358\n      jump\t// in\n    tag_491:\n        /* \"#utility.yul\":11655:11794   */\n      swap1\n      pop\n        /* \"#utility.yul\":11382:11801   */\n      swap2\n      swap1\n      pop\n      jump\t// out\n        /* \"#utility.yul\":11807:11986   */\n    tag_359:\n        /* \"#utility.yul\":11947:11978   */\n      0x4e6f2072656e7420617661696c61626c6520746f207769746864726177000000\n        /* \"#utility.yul\":11943:11944   */\n      0x00\n        /* \"#utility.yul\":11935:11941   */\n      dup3\n        /* \"#utility.yul\":11931:11945   */\n      add\n        /* \"#utility.yul\":11924:11979   */\n      mstore\n        /* \"#utility.yul\":11807:11986   */\n      pop\n      jump\t// out\n        /* \"#utility.yul\":11992:12358   */\n    tag_360:\n        /* \"#utility.yul\":12134:12137   */\n      0x00\n        /* \"#utility.yul\":12155:12222   */\n      tag_494\n        /* \"#utility.yul\":12219:12221   */\n      0x1d\n        /* \"#utility.yul\":12214:12217   */\n      dup4\n        /* \"#utility.yul\":12155:12222   */\n      tag_331\n      jump\t// in\n    tag_494:\n        /* \"#utility.yul\":12148:12222   */\n      swap2\n      pop\n        /* \"#utility.yul\":12231:12324   */\n      tag_495\n        /* \"#utility.yul\":12320:12323   */\n      dup3\n        /* \"#utility.yul\":12231:12324   */\n      tag_359\n      jump\t// in\n    tag_495:\n        /* \"#utility.yul\":12349:12351   */\n      0x20\n        /* \"#utility.yul\":12344:12347   */\n      dup3\n        /* \"#utility.yul\":12340:12352   */\n      add\n        /* \"#utility.yul\":12333:12352   */\n      swap1\n      pop\n        /* \"#utility.yul\":11992:12358   */\n      swap2\n      swap1\n      pop\n      jump\t// out\n        /* \"#utility.yul\":12364:12783   */\n    tag_232:\n        /* \"#utility.yul\":12530:12534   */\n      0x00\n        /* \"#utility.yul\":12568:12570   */\n      0x20\n        /* \"#utility.yul\":12557:12566   */\n      dup3\n        /* \"#utility.yul\":12553:12571   */\n      add\n        /* \"#utility.yul\":12545:12571   */\n      swap1\n      pop\n        /* \"#utility.yul\":12617:12626   */\n      dup2\n        /* \"#utility.yul\":12611:12615   */\n      dup2\n        /* \"#utility.yul\":12607:12627   */\n      sub\n        /* \"#utility.yul\":12603:12604   */\n      0x00\n        /* \"#utility.yul\":12592:12601   */\n      dup4\n        /* \"#utility.yul\":12588:12605   */\n      add\n        /* \"#utility.yul\":12581:12628   */\n      mstore\n        /* \"#utility.yul\":12645:12776   */\n      tag_497\n        /* \"#utility.yul\":12771:12775   */\n      dup2\n        /* \"#utility.yul\":12645:12776   */\n      tag_360\n      jump\t// in\n    tag_497:\n        /* \"#utility.yul\":12637:12776   */\n      swap1\n      pop\n        /* \"#utility.yul\":12364:12783   */\n      swap2\n      swap1\n      pop\n      jump\t// out\n        /* \"#utility.yul\":12789:13199   */\n    tag_238:\n        /* \"#utility.yul\":12829:12836   */\n      0x00\n        /* \"#utility.yul\":12852:12872   */\n      tag_499\n        /* \"#utility.yul\":12870:12871   */\n      dup3\n        /* \"#utility.yul\":12852:12872   */\n      tag_342\n      jump\t// in\n    tag_499:\n        /* \"#utility.yul\":12847:12872   */\n      swap2\n      pop\n        /* \"#utility.yul\":12886:12906   */\n      tag_500\n        /* \"#utility.yul\":12904:12905   */\n      dup4\n        /* \"#utility.yul\":12886:12906   */\n      tag_342\n      jump\t// in\n    tag_500:\n        /* \"#utility.yul\":12881:12906   */\n      swap3\n      pop\n        /* \"#utility.yul\":12941:12942   */\n      dup3\n        /* \"#utility.yul\":12938:12939   */\n      dup3\n        /* \"#utility.yul\":12934:12943   */\n      mul\n        /* \"#utility.yul\":12963:12993   */\n      tag_501\n        /* \"#utility.yul\":12981:12992   */\n      dup2\n        /* \"#utility.yul\":12963:12993   */\n      tag_342\n      jump\t// in\n    tag_501:\n        /* \"#utility.yul\":12952:12993   */\n      swap2\n      pop\n        /* \"#utility.yul\":13142:13143   */\n      dup3\n        /* \"#utility.yul\":13133:13140   */\n      dup3\n        /* \"#utility.yul\":13129:13144   */\n      div\n        /* \"#utility.yul\":13126:13127   */\n      dup5\n        /* \"#utility.yul\":13123:13145   */\n      eq\n        /* \"#utility.yul\":13103:13104   */\n      dup4\n        /* \"#utility.yul\":13096:13105   */\n      iszero\n        /* \"#utility.yul\":13076:13159   */\n      or\n        /* \"#utility.yul\":13053:13192   */\n      tag_502\n      jumpi\n        /* \"#utility.yul\":13172:13190   */\n      tag_503\n      tag_352\n      jump\t// in\n    tag_503:\n        /* \"#utility.yul\":13053:13192   */\n    tag_502:\n        /* \"#utility.yul\":12837:13199   */\n      pop\n        /* \"#utility.yul\":12789:13199   */\n      swap3\n      swap2\n      pop\n      pop\n      jump\t// out\n        /* \"#utility.yul\":13205:13429   */\n    tag_361:\n        /* \"#utility.yul\":13345:13379   */\n      0x45524332303a2064656372656173656420616c6c6f77616e63652062656c6f77\n        /* \"#utility.yul\":13341:13342   */\n      0x00\n        /* \"#utility.yul\":13333:13339   */\n      dup3\n        /* \"#utility.yul\":13329:13343   */\n      add\n        /* \"#utility.yul\":13322:13380   */\n      mstore\n        /* \"#utility.yul\":13414:13421   */\n      0x207a65726f000000000000000000000000000000000000000000000000000000\n        /* \"#utility.yul\":13409:13411   */\n      0x20\n        /* \"#utility.yul\":13401:13407   */\n      dup3\n        /* \"#utility.yul\":13397:13412   */\n      add\n        /* \"#utility.yul\":13390:13422   */\n      mstore\n        /* \"#utility.yul\":13205:13429   */\n      pop\n      jump\t// out\n        /* \"#utility.yul\":13435:13801   */\n    tag_362:\n        /* \"#utility.yul\":13577:13580   */\n      0x00\n        /* \"#utility.yul\":13598:13665   */\n      tag_506\n        /* \"#utility.yul\":13662:13664   */\n      0x25\n        /* \"#utility.yul\":13657:13660   */\n      dup4\n        /* \"#utility.yul\":13598:13665   */\n      tag_331\n      jump\t// in\n    tag_506:\n        /* \"#utility.yul\":13591:13665   */\n      swap2\n      pop\n        /* \"#utility.yul\":13674:13767   */\n      tag_507\n        /* \"#utility.yul\":13763:13766   */\n      dup3\n        /* \"#utility.yul\":13674:13767   */\n      tag_361\n      jump\t// in\n    tag_507:\n        /* \"#utility.yul\":13792:13794   */\n      0x40\n        /* \"#utility.yul\":13787:13790   */\n      dup3\n        /* \"#utility.yul\":13783:13795   */\n      add\n        /* \"#utility.yul\":13776:13795   */\n      swap1\n      pop\n        /* \"#utility.yul\":13435:13801   */\n      swap2\n      swap1\n      pop\n      jump\t// out\n        /* \"#utility.yul\":13807:14226   */\n    tag_255:\n        /* \"#utility.yul\":13973:13977   */\n      0x00\n        /* \"#utility.yul\":14011:14013   */\n      0x20\n        /* \"#utility.yul\":14000:14009   */\n      dup3\n        /* \"#utility.yul\":13996:14014   */\n      add\n        /* \"#utility.yul\":13988:14014   */\n      swap1\n      pop\n        /* \"#utility.yul\":14060:14069   */\n      dup2\n        /* \"#utility.yul\":14054:14058   */\n      dup2\n        /* \"#utility.yul\":14050:14070   */\n      sub\n        /* \"#utility.yul\":14046:14047   */\n      0x00\n        /* \"#utility.yul\":14035:14044   */\n      dup4\n        /* \"#utility.yul\":14031:14048   */\n      add\n        /* \"#utility.yul\":14024:14071   */\n      mstore\n        /* \"#utility.yul\":14088:14219   */\n      tag_509\n        /* \"#utility.yul\":14214:14218   */\n      dup2\n        /* \"#utility.yul\":14088:14219   */\n      tag_362\n      jump\t// in\n    tag_509:\n        /* \"#utility.yul\":14080:14219   */\n      swap1\n      pop\n        /* \"#utility.yul\":13807:14226   */\n      swap2\n      swap1\n      pop\n      jump\t// out\n        /* \"#utility.yul\":14232:14413   */\n    tag_363:\n        /* \"#utility.yul\":14372:14405   */\n      0x45524332303a206d696e7420746f20746865207a65726f206164647265737300\n        /* \"#utility.yul\":14368:14369   */\n      0x00\n        /* \"#utility.yul\":14360:14366   */\n      dup3\n        /* \"#utility.yul\":14356:14370   */\n      add\n        /* \"#utility.yul\":14349:14406   */\n      mstore\n        /* \"#utility.yul\":14232:14413   */\n      pop\n      jump\t// out\n        /* \"#utility.yul\":14419:14785   */\n    tag_364:\n        /* \"#utility.yul\":14561:14564   */\n      0x00\n        /* \"#utility.yul\":14582:14649   */\n      tag_512\n        /* \"#utility.yul\":14646:14648   */\n      0x1f\n        /* \"#utility.yul\":14641:14644   */\n      dup4\n        /* \"#utility.yul\":14582:14649   */\n      tag_331\n      jump\t// in\n    tag_512:\n        /* \"#utility.yul\":14575:14649   */\n      swap2\n      pop\n        /* \"#utility.yul\":14658:14751   */\n      tag_513\n        /* \"#utility.yul\":14747:14750   */\n      dup3\n        /* \"#utility.yul\":14658:14751   */\n      tag_363\n      jump\t// in\n    tag_513:\n        /* \"#utility.yul\":14776:14778   */\n      0x20\n        /* \"#utility.yul\":14771:14774   */\n      dup3\n        /* \"#utility.yul\":14767:14779   */\n      add\n        /* \"#utility.yul\":14760:14779   */\n      swap1\n      pop\n        /* \"#utility.yul\":14419:14785   */\n      swap2\n      swap1\n      pop\n      jump\t// out\n        /* \"#utility.yul\":14791:15210   */\n    tag_285:\n        /* \"#utility.yul\":14957:14961   */\n      0x00\n        /* \"#utility.yul\":14995:14997   */\n      0x20\n        /* \"#utility.yul\":14984:14993   */\n      dup3\n        /* \"#utility.yul\":14980:14998   */\n      add\n        /* \"#utility.yul\":14972:14998   */\n      swap1\n      pop\n        /* \"#utility.yul\":15044:15053   */\n      dup2\n        /* \"#utility.yul\":15038:15042   */\n      dup2\n        /* \"#utility.yul\":15034:15054   */\n      sub\n        /* \"#utility.yul\":15030:15031   */\n      0x00\n        /* \"#utility.yul\":15019:15028   */\n      dup4\n        /* \"#utility.yul\":15015:15032   */\n      add\n        /* \"#utility.yul\":15008:15055   */\n      mstore\n        /* \"#utility.yul\":15072:15203   */\n      tag_515\n        /* \"#utility.yul\":15198:15202   */\n      dup2\n        /* \"#utility.yul\":15072:15203   */\n      tag_364\n      jump\t// in\n    tag_515:\n        /* \"#utility.yul\":15064:15203   */\n      swap1\n      pop\n        /* \"#utility.yul\":14791:15210   */\n      swap2\n      swap1\n      pop\n      jump\t// out\n        /* \"#utility.yul\":15216:15439   */\n    tag_365:\n        /* \"#utility.yul\":15356:15390   */\n      0x45524332303a20617070726f76652066726f6d20746865207a65726f20616464\n        /* \"#utility.yul\":15352:15353   */\n      0x00\n        /* \"#utility.yul\":15344:15350   */\n      dup3\n        /* \"#utility.yul\":15340:15354   */\n      add\n        /* \"#utility.yul\":15333:15391   */\n      mstore\n        /* \"#utility.yul\":15425:15431   */\n      0x7265737300000000000000000000000000000000000000000000000000000000\n        /* \"#utility.yul\":15420:15422   */\n      0x20\n        /* \"#utility.yul\":15412:15418   */\n      dup3\n        /* \"#utility.yul\":15408:15423   */\n      add\n        /* \"#utility.yul\":15401:15432   */\n      mstore\n        /* \"#utility.yul\":15216:15439   */\n      pop\n      jump\t// out\n        /* \"#utility.yul\":15445:15811   */\n    tag_366:\n        /* \"#utility.yul\":15587:15590   */\n      0x00\n        /* \"#utility.yul\":15608:15675   */\n      tag_518\n        /* \"#utility.yul\":15672:15674   */\n      0x24\n        /* \"#utility.yul\":15667:15670   */\n      dup4\n        /* \"#utility.yul\":15608:15675   */\n      tag_331\n      jump\t// in\n    tag_518:\n        /* \"#utility.yul\":15601:15675   */\n      swap2\n      pop\n        /* \"#utility.yul\":15684:15777   */\n      tag_519\n        /* \"#utility.yul\":15773:15776   */\n      dup3\n        /* \"#utility.yul\":15684:15777   */\n      tag_365\n      jump\t// in\n    tag_519:\n        /* \"#utility.yul\":15802:15804   */\n      0x40\n        /* \"#utility.yul\":15797:15800   */\n      dup3\n        /* \"#utility.yul\":15793:15805   */\n      add\n        /* \"#utility.yul\":15786:15805   */\n      swap1\n      pop\n        /* \"#utility.yul\":15445:15811   */\n      swap2\n      swap1\n      pop\n      jump\t// out\n        /* \"#utility.yul\":15817:16236   */\n    tag_296:\n        /* \"#utility.yul\":15983:15987   */\n      0x00\n        /* \"#utility.yul\":16021:16023   */\n      0x20\n        /* \"#utility.yul\":16010:16019   */\n      dup3\n        /* \"#utility.yul\":16006:16024   */\n      add\n        /* \"#utility.yul\":15998:16024   */\n      swap1\n      pop\n        /* \"#utility.yul\":16070:16079   */\n      dup2\n        /* \"#utility.yul\":16064:16068   */\n      dup2\n        /* \"#utility.yul\":16060:16080   */\n      sub\n        /* \"#utility.yul\":16056:16057   */\n      0x00\n        /* \"#utility.yul\":16045:16054   */\n      dup4\n        /* \"#utility.yul\":16041:16058   */\n      add\n        /* \"#utility.yul\":16034:16081   */\n      mstore\n        /* \"#utility.yul\":16098:16229   */\n      tag_521\n        /* \"#utility.yul\":16224:16228   */\n      dup2\n        /* \"#utility.yul\":16098:16229   */\n      tag_366\n      jump\t// in\n    tag_521:\n        /* \"#utility.yul\":16090:16229   */\n      swap1\n      pop\n        /* \"#utility.yul\":15817:16236   */\n      swap2\n      swap1\n      pop\n      jump\t// out\n        /* \"#utility.yul\":16242:16463   */\n    tag_367:\n        /* \"#utility.yul\":16382:16416   */\n      0x45524332303a20617070726f766520746f20746865207a65726f206164647265\n        /* \"#utility.yul\":16378:16379   */\n      0x00\n        /* \"#utility.yul\":16370:16376   */\n      dup3\n        /* \"#utility.yul\":16366:16380   */\n      add\n        /* \"#utility.yul\":16359:16417   */\n      mstore\n        /* \"#utility.yul\":16451:16455   */\n      0x7373000000000000000000000000000000000000000000000000000000000000\n        /* \"#utility.yul\":16446:16448   */\n      0x20\n        /* \"#utility.yul\":16438:16444   */\n      dup3\n        /* \"#utility.yul\":16434:16449   */\n      add\n        /* \"#utility.yul\":16427:16456   */\n      mstore\n        /* \"#utility.yul\":16242:16463   */\n      pop\n      jump\t// out\n        /* \"#utility.yul\":16469:16835   */\n    tag_368:\n        /* \"#utility.yul\":16611:16614   */\n      0x00\n        /* \"#utility.yul\":16632:16699   */\n      tag_524\n        /* \"#utility.yul\":16696:16698   */\n      0x22\n        /* \"#utility.yul\":16691:16694   */\n      dup4\n        /* \"#utility.yul\":16632:16699   */\n      tag_331\n      jump\t// in\n    tag_524:\n        /* \"#utility.yul\":16625:16699   */\n      swap2\n      pop\n        /* \"#utility.yul\":16708:16801   */\n      tag_525\n        /* \"#utility.yul\":16797:16800   */\n      dup3\n        /* \"#utility.yul\":16708:16801   */\n      tag_367\n      jump\t// in\n    tag_525:\n        /* \"#utility.yul\":16826:16828   */\n      0x40\n        /* \"#utility.yul\":16821:16824   */\n      dup3\n        /* \"#utility.yul\":16817:16829   */\n      add\n        /* \"#utility.yul\":16810:16829   */\n      swap1\n      pop\n        /* \"#utility.yul\":16469:16835   */\n      swap2\n      swap1\n      pop\n      jump\t// out\n        /* \"#utility.yul\":16841:17260   */\n    tag_299:\n        /* \"#utility.yul\":17007:17011   */\n      0x00\n        /* \"#utility.yul\":17045:17047   */\n      0x20\n        /* \"#utility.yul\":17034:17043   */\n      dup3\n        /* \"#utility.yul\":17030:17048   */\n      add\n        /* \"#utility.yul\":17022:17048   */\n      swap1\n      pop\n        /* \"#utility.yul\":17094:17103   */\n      dup2\n        /* \"#utility.yul\":17088:17092   */\n      dup2\n        /* \"#utility.yul\":17084:17104   */\n      sub\n        /* \"#utility.yul\":17080:17081   */\n      0x00\n        /* \"#utility.yul\":17069:17078   */\n      dup4\n        /* \"#utility.yul\":17065:17082   */\n      add\n        /* \"#utility.yul\":17058:17105   */\n      mstore\n        /* \"#utility.yul\":17122:17253   */\n      tag_527\n        /* \"#utility.yul\":17248:17252   */\n      dup2\n        /* \"#utility.yul\":17122:17253   */\n      tag_368\n      jump\t// in\n    tag_527:\n        /* \"#utility.yul\":17114:17253   */\n      swap1\n      pop\n        /* \"#utility.yul\":16841:17260   */\n      swap2\n      swap1\n      pop\n      jump\t// out\n        /* \"#utility.yul\":17266:17445   */\n    tag_369:\n        /* \"#utility.yul\":17406:17437   */\n      0x45524332303a20696e73756666696369656e7420616c6c6f77616e6365000000\n        /* \"#utility.yul\":17402:17403   */\n      0x00\n        /* \"#utility.yul\":17394:17400   */\n      dup3\n        /* \"#utility.yul\":17390:17404   */\n      add\n        /* \"#utility.yul\":17383:17438   */\n      mstore\n        /* \"#utility.yul\":17266:17445   */\n      pop\n      jump\t// out\n        /* \"#utility.yul\":17451:17817   */\n    tag_370:\n        /* \"#utility.yul\":17593:17596   */\n      0x00\n        /* \"#utility.yul\":17614:17681   */\n      tag_530\n        /* \"#utility.yul\":17678:17680   */\n      0x1d\n        /* \"#utility.yul\":17673:17676   */\n      dup4\n        /* \"#utility.yul\":17614:17681   */\n      tag_331\n      jump\t// in\n    tag_530:\n        /* \"#utility.yul\":17607:17681   */\n      swap2\n      pop\n        /* \"#utility.yul\":17690:17783   */\n      tag_531\n        /* \"#utility.yul\":17779:17782   */\n      dup3\n        /* \"#utility.yul\":17690:17783   */\n      tag_369\n      jump\t// in\n    tag_531:\n        /* \"#utility.yul\":17808:17810   */\n      0x20\n        /* \"#utility.yul\":17803:17806   */\n      dup3\n        /* \"#utility.yul\":17799:17811   */\n      add\n        /* \"#utility.yul\":17792:17811   */\n      swap1\n      pop\n        /* \"#utility.yul\":17451:17817   */\n      swap2\n      swap1\n      pop\n      jump\t// out\n        /* \"#utility.yul\":17823:18242   */\n    tag_306:\n        /* \"#utility.yul\":17989:17993   */\n      0x00\n        /* \"#utility.yul\":18027:18029   */\n      0x20\n        /* \"#utility.yul\":18016:18025   */\n      dup3\n        /* \"#utility.yul\":18012:18030   */\n      add\n        /* \"#utility.yul\":18004:18030   */\n      swap1\n      pop\n        /* \"#utility.yul\":18076:18085   */\n      dup2\n        /* \"#utility.yul\":18070:18074   */\n      dup2\n        /* \"#utility.yul\":18066:18086   */\n      sub\n        /* \"#utility.yul\":18062:18063   */\n      0x00\n        /* \"#utility.yul\":18051:18060   */\n      dup4\n        /* \"#utility.yul\":18047:18064   */\n      add\n        /* \"#utility.yul\":18040:18087   */\n      mstore\n        /* \"#utility.yul\":18104:18235   */\n      tag_533\n        /* \"#utility.yul\":18230:18234   */\n      dup2\n        /* \"#utility.yul\":18104:18235   */\n      tag_370\n      jump\t// in\n    tag_533:\n        /* \"#utility.yul\":18096:18235   */\n      swap1\n      pop\n        /* \"#utility.yul\":17823:18242   */\n      swap2\n      swap1\n      pop\n      jump\t// out\n        /* \"#utility.yul\":18248:18472   */\n    tag_371:\n        /* \"#utility.yul\":18388:18422   */\n      0x45524332303a207472616e736665722066726f6d20746865207a65726f206164\n        /* \"#utility.yul\":18384:18385   */\n      0x00\n        /* \"#utility.yul\":18376:18382   */\n      dup3\n        /* \"#utility.yul\":18372:18386   */\n      add\n        /* \"#utility.yul\":18365:18423   */\n      mstore\n        /* \"#utility.yul\":18457:18464   */\n      0x6472657373000000000000000000000000000000000000000000000000000000\n        /* \"#utility.yul\":18452:18454   */\n      0x20\n        /* \"#utility.yul\":18444:18450   */\n      dup3\n        /* \"#utility.yul\":18440:18455   */\n      add\n        /* \"#utility.yul\":18433:18465   */\n      mstore\n        /* \"#utility.yul\":18248:18472   */\n      pop\n      jump\t// out\n        /* \"#utility.yul\":18478:18844   */\n    tag_372:\n        /* \"#utility.yul\":18620:18623   */\n      0x00\n        /* \"#utility.yul\":18641:18708   */\n      tag_536\n        /* \"#utility.yul\":18705:18707   */\n      0x25\n        /* \"#utility.yul\":18700:18703   */\n      dup4\n        /* \"#utility.yul\":18641:18708   */\n      tag_331\n      jump\t// in\n    tag_536:\n        /* \"#utility.yul\":18634:18708   */\n      swap2\n      pop\n        /* \"#utility.yul\":18717:18810   */\n      tag_537\n        /* \"#utility.yul\":18806:18809   */\n      dup3\n        /* \"#utility.yul\":18717:18810   */\n      tag_371\n      jump\t// in\n    tag_537:\n        /* \"#utility.yul\":18835:18837   */\n      0x40\n        /* \"#utility.yul\":18830:18833   */\n      dup3\n        /* \"#utility.yul\":18826:18838   */\n      add\n        /* \"#utility.yul\":18819:18838   */\n      swap1\n      pop\n        /* \"#utility.yul\":18478:18844   */\n      swap2\n      swap1\n      pop\n      jump\t// out\n        /* \"#utility.yul\":18850:19269   */\n    tag_311:\n        /* \"#utility.yul\":19016:19020   */\n      0x00\n        /* \"#utility.yul\":19054:19056   */\n      0x20\n        /* \"#utility.yul\":19043:19052   */\n      dup3\n        /* \"#utility.yul\":19039:19057   */\n      add\n        /* \"#utility.yul\":19031:19057   */\n      swap1\n      pop\n        /* \"#utility.yul\":19103:19112   */\n      dup2\n        /* \"#utility.yul\":19097:19101   */\n      dup2\n        /* \"#utility.yul\":19093:19113   */\n      sub\n        /* \"#utility.yul\":19089:19090   */\n      0x00\n        /* \"#utility.yul\":19078:19087   */\n      dup4\n        /* \"#utility.yul\":19074:19091   */\n      add\n        /* \"#utility.yul\":19067:19114   */\n      mstore\n        /* \"#utility.yul\":19131:19262   */\n      tag_539\n        /* \"#utility.yul\":19257:19261   */\n      dup2\n        /* \"#utility.yul\":19131:19262   */\n      tag_372\n      jump\t// in\n    tag_539:\n        /* \"#utility.yul\":19123:19262   */\n      swap1\n      pop\n        /* \"#utility.yul\":18850:19269   */\n      swap2\n      swap1\n      pop\n      jump\t// out\n        /* \"#utility.yul\":19275:19497   */\n    tag_373:\n        /* \"#utility.yul\":19415:19449   */\n      0x45524332303a207472616e7366657220746f20746865207a65726f2061646472\n        /* \"#utility.yul\":19411:19412   */\n      0x00\n        /* \"#utility.yul\":19403:19409   */\n      dup3\n        /* \"#utility.yul\":19399:19413   */\n      add\n        /* \"#utility.yul\":19392:19450   */\n      mstore\n        /* \"#utility.yul\":19484:19489   */\n      0x6573730000000000000000000000000000000000000000000000000000000000\n        /* \"#utility.yul\":19479:19481   */\n      0x20\n        /* \"#utility.yul\":19471:19477   */\n      dup3\n        /* \"#utility.yul\":19467:19482   */\n      add\n        /* \"#utility.yul\":19460:19490   */\n      mstore\n        /* \"#utility.yul\":19275:19497   */\n      pop\n      jump\t// out\n        /* \"#utility.yul\":19503:19869   */\n    tag_374:\n        /* \"#utility.yul\":19645:19648   */\n      0x00\n        /* \"#utility.yul\":19666:19733   */\n      tag_542\n        /* \"#utility.yul\":19730:19732   */\n      0x23\n        /* \"#utility.yul\":19725:19728   */\n      dup4\n        /* \"#utility.yul\":19666:19733   */\n      tag_331\n      jump\t// in\n    tag_542:\n        /* \"#utility.yul\":19659:19733   */\n      swap2\n      pop\n        /* \"#utility.yul\":19742:19835   */\n      tag_543\n        /* \"#utility.yul\":19831:19834   */\n      dup3\n        /* \"#utility.yul\":19742:19835   */\n      tag_373\n      jump\t// in\n    tag_543:\n        /* \"#utility.yul\":19860:19862   */\n      0x40\n        /* \"#utility.yul\":19855:19858   */\n      dup3\n        /* \"#utility.yul\":19851:19863   */\n      add\n        /* \"#utility.yul\":19844:19863   */\n      swap1\n      pop\n        /* \"#utility.yul\":19503:19869   */\n      swap2\n      swap1\n      pop\n      jump\t// out\n        /* \"#utility.yul\":19875:20294   */\n    tag_314:\n        /* \"#utility.yul\":20041:20045   */\n      0x00\n        /* \"#utility.yul\":20079:20081   */\n      0x20\n        /* \"#utility.yul\":20068:20077   */\n      dup3\n        /* \"#utility.yul\":20064:20082   */\n      add\n        /* \"#utility.yul\":20056:20082   */\n      swap1\n      pop\n        /* \"#utility.yul\":20128:20137   */\n      dup2\n        /* \"#utility.yul\":20122:20126   */\n      dup2\n        /* \"#utility.yul\":20118:20138   */\n      sub\n        /* \"#utility.yul\":20114:20115   */\n      0x00\n        /* \"#utility.yul\":20103:20112   */\n      dup4\n        /* \"#utility.yul\":20099:20116   */\n      add\n        /* \"#utility.yul\":20092:20139   */\n      mstore\n        /* \"#utility.yul\":20156:20287   */\n      tag_545\n        /* \"#utility.yul\":20282:20286   */\n      dup2\n        /* \"#utility.yul\":20156:20287   */\n      tag_374\n      jump\t// in\n    tag_545:\n        /* \"#utility.yul\":20148:20287   */\n      swap1\n      pop\n        /* \"#utility.yul\":19875:20294   */\n      swap2\n      swap1\n      pop\n      jump\t// out\n        /* \"#utility.yul\":20300:20525   */\n    tag_375:\n        /* \"#utility.yul\":20440:20474   */\n      0x45524332303a207472616e7366657220616d6f756e7420657863656564732062\n        /* \"#utility.yul\":20436:20437   */\n      0x00\n        /* \"#utility.yul\":20428:20434   */\n      dup3\n        /* \"#utility.yul\":20424:20438   */\n      add\n        /* \"#utility.yul\":20417:20475   */\n      mstore\n        /* \"#utility.yul\":20509:20517   */\n      0x616c616e63650000000000000000000000000000000000000000000000000000\n        /* \"#utility.yul\":20504:20506   */\n      0x20\n        /* \"#utility.yul\":20496:20502   */\n      dup3\n        /* \"#utility.yul\":20492:20507   */\n      add\n        /* \"#utility.yul\":20485:20518   */\n      mstore\n        /* \"#utility.yul\":20300:20525   */\n      pop\n      jump\t// out\n        /* \"#utility.yul\":20531:20897   */\n    tag_376:\n        /* \"#utility.yul\":20673:20676   */\n      0x00\n        /* \"#utility.yul\":20694:20761   */\n      tag_548\n        /* \"#utility.yul\":20758:20760   */\n      0x26\n        /* \"#utility.yul\":20753:20756   */\n      dup4\n        /* \"#utility.yul\":20694:20761   */\n      tag_331\n      jump\t// in\n    tag_548:\n        /* \"#utility.yul\":20687:20761   */\n      swap2\n      pop\n        /* \"#utility.yul\":20770:20863   */\n      tag_549\n        /* \"#utility.yul\":20859:20862   */\n      dup3\n        /* \"#utility.yul\":20770:20863   */\n      tag_375\n      jump\t// in\n    tag_549:\n        /* \"#utility.yul\":20888:20890   */\n      0x40\n        /* \"#utility.yul\":20883:20886   */\n      dup3\n        /* \"#utility.yul\":20879:20891   */\n      add\n        /* \"#utility.yul\":20872:20891   */\n      swap1\n      pop\n        /* \"#utility.yul\":20531:20897   */\n      swap2\n      swap1\n      pop\n      jump\t// out\n        /* \"#utility.yul\":20903:21322   */\n    tag_318:\n        /* \"#utility.yul\":21069:21073   */\n      0x00\n        /* \"#utility.yul\":21107:21109   */\n      0x20\n        /* \"#utility.yul\":21096:21105   */\n      dup3\n        /* \"#utility.yul\":21092:21110   */\n      add\n        /* \"#utility.yul\":21084:21110   */\n      swap1\n      pop\n        /* \"#utility.yul\":21156:21165   */\n      dup2\n        /* \"#utility.yul\":21150:21154   */\n      dup2\n        /* \"#utility.yul\":21146:21166   */\n      sub\n        /* \"#utility.yul\":21142:21143   */\n      0x00\n        /* \"#utility.yul\":21131:21140   */\n      dup4\n        /* \"#utility.yul\":21127:21144   */\n      add\n        /* \"#utility.yul\":21120:21167   */\n      mstore\n        /* \"#utility.yul\":21184:21315   */\n      tag_551\n        /* \"#utility.yul\":21310:21314   */\n      dup2\n        /* \"#utility.yul\":21184:21315   */\n      tag_376\n      jump\t// in\n    tag_551:\n        /* \"#utility.yul\":21176:21315   */\n      swap1\n      pop\n        /* \"#utility.yul\":20903:21322   */\n      swap2\n      swap1\n      pop\n      jump\t// out\n        /* \"#utility.yul\":21328:21508   */\n    tag_377:\n        /* \"#utility.yul\":21376:21453   */\n      0x4e487b7100000000000000000000000000000000000000000000000000000000\n        /* \"#utility.yul\":21373:21374   */\n      0x00\n        /* \"#utility.yul\":21366:21454   */\n      mstore\n        /* \"#utility.yul\":21473:21477   */\n      0x12\n        /* \"#utility.yul\":21470:21471   */\n      0x04\n        /* \"#utility.yul\":21463:21478   */\n      mstore\n        /* \"#utility.yul\":21497:21501   */\n      0x24\n        /* \"#utility.yul\":21494:21495   */\n      0x00\n        /* \"#utility.yul\":21487:21502   */\n      revert\n        /* \"#utility.yul\":21514:21699   */\n    tag_325:\n        /* \"#utility.yul\":21554:21555   */\n      0x00\n        /* \"#utility.yul\":21571:21591   */\n      tag_554\n        /* \"#utility.yul\":21589:21590   */\n      dup3\n        /* \"#utility.yul\":21571:21591   */\n      tag_342\n      jump\t// in\n    tag_554:\n        /* \"#utility.yul\":21566:21591   */\n      swap2\n      pop\n        /* \"#utility.yul\":21605:21625   */\n      tag_555\n        /* \"#utility.yul\":21623:21624   */\n      dup4\n        /* \"#utility.yul\":21605:21625   */\n      tag_342\n      jump\t// in\n    tag_555:\n        /* \"#utility.yul\":21600:21625   */\n      swap3\n      pop\n        /* \"#utility.yul\":21644:21645   */\n      dup3\n        /* \"#utility.yul\":21634:21669   */\n      tag_556\n      jumpi\n        /* \"#utility.yul\":21649:21667   */\n      tag_557\n      tag_377\n      jump\t// in\n    tag_557:\n        /* \"#utility.yul\":21634:21669   */\n    tag_556:\n        /* \"#utility.yul\":21691:21692   */\n      dup3\n        /* \"#utility.yul\":21688:21689   */\n      dup3\n        /* \"#utility.yul\":21684:21693   */\n      div\n        /* \"#utility.yul\":21679:21693   */\n      swap1\n      pop\n        /* \"#utility.yul\":21514:21699   */\n      swap3\n      swap2\n      pop\n      pop\n      jump\t// out\n\n    auxdata: 0xa2646970667358221220c7e1a71441649abcb034c22a12eb1b4bac97a18bb8029de0888bfd1d45523c4164736f6c63430008120033\n}\n",
				"bytecode": {
					"linkReferences": {},
					"object": "6080604052670de0b6b3a76400006008553480156200001d57600080fd5b506040518060400160405280600f81526020017f5265616c457374617465546f6b656e00000000000000000000000000000000008152506040518060400160405280600381526020017f524554000000000000000000000000000000000000000000000000000000000081525081600390816200009b919062000371565b508060049081620000ad919062000371565b50505033600560006101000a81548173ffffffffffffffffffffffffffffffffffffffff021916908373ffffffffffffffffffffffffffffffffffffffff16021790555062000458565b600081519050919050565b7f4e487b7100000000000000000000000000000000000000000000000000000000600052604160045260246000fd5b7f4e487b7100000000000000000000000000000000000000000000000000000000600052602260045260246000fd5b600060028204905060018216806200017957607f821691505b6020821081036200018f576200018e62000131565b5b50919050565b60008190508160005260206000209050919050565b60006020601f8301049050919050565b600082821b905092915050565b600060088302620001f97fffffffffffffffffffffffffffffffffffffffffffffffffffffffffffffffff82620001ba565b620002058683620001ba565b95508019841693508086168417925050509392505050565b6000819050919050565b6000819050919050565b6000620002526200024c62000246846200021d565b62000227565b6200021d565b9050919050565b6000819050919050565b6200026e8362000231565b620002866200027d8262000259565b848454620001c7565b825550505050565b600090565b6200029d6200028e565b620002aa81848462000263565b505050565b5b81811015620002d257620002c660008262000293565b600181019050620002b0565b5050565b601f8211156200032157620002eb8162000195565b620002f684620001aa565b8101602085101562000306578190505b6200031e6200031585620001aa565b830182620002af565b50505b505050565b600082821c905092915050565b6000620003466000198460080262000326565b1980831691505092915050565b600062000361838362000333565b9150826002028217905092915050565b6200037c82620000f7565b67ffffffffffffffff81111562000398576200039762000102565b5b620003a4825462000160565b620003b1828285620002d6565b600060209050601f831160018114620003e95760008415620003d4578287015190505b620003e0858262000353565b86555062000450565b601f198416620003f98662000195565b60005b828110156200042357848901518255600182019150602085019450602081019050620003fc565b868310156200044357848901516200043f601f89168262000333565b8355505b6001600288020188555050505b505050505050565b61255d80620004686000396000f3fe6080604052600436106101d85760003560e01c8063575e6cec11610102578063a709c4fe11610095578063dd62ed3e11610064578063dd62ed3e1461068e578063e01fe4c3146106cb578063f857f7521461070a578063fcf8f42214610733576101d8565b8063a709c4fe146105f3578063a9059cbb146105fd578063adf077911461063a578063beee50f714610665576101d8565b80638da5cb5b116100d15780638da5cb5b1461053757806395d89b4114610562578063976f5f611461058d578063a457c2d7146105b6576101d8565b8063575e6cec1461049e5780636322182e146104c757806370a08231146104d157806388e20abb1461050e576101d8565b8063255dbb531161017a578063419759f511610149578063419759f51461041557806342c63dae1461044057806344ba41db1461044a5780634b7851f714610473576101d8565b8063255dbb53146103475780632e74a4de14610384578063313ce567146103ad57806339509351146103d8576101d8565b80630df9c426116101b65780630df9c4261461026e57806312065fe0146102b457806318160ddd146102df57806323b872dd1461030a576101d8565b806306fdde03146101dd578063089a611514610208578063095ea7b314610231575b600080fd5b3480156101e957600080fd5b506101f261075c565b6040516101ff9190611a25565b60405180910390f35b34801561021457600080fd5b5061022f600480360381019061022a9190611aaa565b6107ee565b005b34801561023d57600080fd5b5061025860048036038101906102539190611b0d565b610843565b6040516102659190611b68565b60405180910390f35b34801561027a57600080fd5b5061029560048036038101906102909190611aaa565b610866565b6040516102ab9a99989796959493929190611b92565b60405180910390f35b3480156102c057600080fd5b506102c96108ba565b6040516102d69190611c2e565b60405180910390f35b3480156102eb57600080fd5b506102f46108c2565b6040516103019190611c2e565b60405180910390f35b34801561031657600080fd5b50610331600480360381019061032c9190611c49565b6108cc565b60405161033e9190611b68565b60405180910390f35b34801561035357600080fd5b5061036e60048036038101906103699190611aaa565b6108fb565b60405161037b9190611b68565b60405180910390f35b34801561039057600080fd5b506103ab60048036038101906103a69190611aaa565b61091b565b005b3480156103b957600080fd5b506103c261095f565b6040516103cf9190611cb8565b60405180910390f35b3480156103e457600080fd5b506103ff60048036038101906103fa9190611b0d565b610968565b60405161040c9190611b68565b60405180910390f35b34801561042157600080fd5b5061042a61099f565b6040516104379190611c2e565b60405180910390f35b6104486109a5565b005b34801561045657600080fd5b50610471600480360381019061046c9190611aaa565b610ad3565b005b34801561047f57600080fd5b50610488610b4d565b6040516104959190611c2e565b60405180910390f35b3480156104aa57600080fd5b506104c560048036038101906104c09190611aaa565b610b53565b005b6104cf610bba565b005b3480156104dd57600080fd5b506104f860048036038101906104f39190611aaa565b610cfc565b6040516105059190611c2e565b60405180910390f35b34801561051a57600080fd5b5061053560048036038101906105309190611aaa565b610d44565b005b34801561054357600080fd5b5061054c610da7565b6040516105599190611ce2565b60405180910390f35b34801561056e57600080fd5b50610577610dcd565b6040516105849190611a25565b60405180910390f35b34801561059957600080fd5b506105b460048036038101906105af9190611aaa565b610e5f565b005b3480156105c257600080fd5b506105dd60048036038101906105d89190611b0d565b610ef5565b6040516105ea9190611b68565b60405180910390f35b6105fb610f6c565b005b34801561060957600080fd5b50610624600480360381019061061f9190611b0d565b611017565b6040516106319190611b68565b60405180910390f35b34801561064657600080fd5b5061064f61103a565b60405161065c9190611ce2565b60405180910390f35b34801561067157600080fd5b5061068c60048036038101906106879190611aaa565b611060565b005b34801561069a57600080fd5b506106b560048036038101906106b09190611cfd565b6110b5565b6040516106c29190611c2e565b60405180910390f35b3480156106d757600080fd5b506106f260048036038101906106ed9190611aaa565b61113c565b60405161070193929190611d3d565b60405180910390f35b34801561071657600080fd5b50610731600480360381019061072c9190611aaa565b611276565b005b34801561073f57600080fd5b5061075a60048036038101906107559190611aaa565b6112cb565b005b60606003805461076b90611db1565b80601f016020809104026020016040519081016040528092919081815260200182805461079790611db1565b80156107e45780601f106107b9576101008083540402835291602001916107e4565b820191906000526020600020905b8154815290600101906020018083116107c757829003601f168201915b5050505050905090565b6000600960008373ffffffffffffffffffffffffffffffffffffffff1673ffffffffffffffffffffffffffffffffffffffff168152602001908152602001600020905061083f828260000154611320565b5050565b60008061084e611476565b905061085b81858561147e565b600191505092915050565b6009602052806000526040600020600091509050806000015490806001015490806002015490806003015490806004015490806005015490806006015490806007015490806008015490806009015490508a565b600047905090565b6000600254905090565b6000806108d7611476565b90506108e4858285611647565b6108ef8585856116d3565b60019150509392505050565b600b6020528060005260406000206000915054906101000a900460ff1681565b80600660006101000a81548173ffffffffffffffffffffffffffffffffffffffff021916908373ffffffffffffffffffffffffffffffffffffffff16021790555050565b60006012905090565b600080610973611476565b905061099481858561098585896110b5565b61098f9190611e11565b61147e565b600191505092915050565b60085481565b600660009054906101000a900473ffffffffffffffffffffffffffffffffffffffff1673ffffffffffffffffffffffffffffffffffffffff163373ffffffffffffffffffffffffffffffffffffffff1614610a35576040517f08c379a0000000000000000000000000000000000000000000000000000000008152600401610a2c90611eb7565b60405180910390fd5b6008543414610a79576040517f08c379a0000000000000000000000000000000000000000000000000000000008152600401610a7090611f23565b60405180910390fd5b6001600b60003373ffffffffffffffffffffffffffffffffffffffff1673ffffffffffffffffffffffffffffffffffffffff16815260200190815260200160002060006101000a81548160ff021916908315150217905550565b6000600960008373ffffffffffffffffffffffffffffffffffffffff1673ffffffffffffffffffffffffffffffffffffffff1681526020019081526020016000209050610b416064610b336008846005015461194990919063ffffffff16565b61195f90919063ffffffff16565b81600301819055505050565b60075481565b6000600960008373ffffffffffffffffffffffffffffffffffffffff1673ffffffffffffffffffffffffffffffffffffffff1681526020019081526020016000209050610bae600c826003015461195f90919063ffffffff16565b81600401819055505050565b600560009054906101000a900473ffffffffffffffffffffffffffffffffffffffff1673ffffffffffffffffffffffffffffffffffffffff163373ffffffffffffffffffffffffffffffffffffffff1614610c4a576040517f08c379a0000000000000000000000000000000000000000000000000000000008152600401610c4190611fb5565b60405180910390fd5b600060075411610c8f576040517f08c379a0000000000000000000000000000000000000000000000000000000008152600401610c8690612021565b60405180910390fd5b600560009054906101000a900473ffffffffffffffffffffffffffffffffffffffff1673ffffffffffffffffffffffffffffffffffffffff166108fc6007549081150290604051600060405180830381858888f19350505050158015610cf9573d6000803e3d6000fd5b50565b60008060008373ffffffffffffffffffffffffffffffffffffffff1673ffffffffffffffffffffffffffffffffffffffff168152602001908152602001600020549050919050565b6000600960008373ffffffffffffffffffffffffffffffffffffffff1673ffffffffffffffffffffffffffffffffffffffff168152602001908152602001600020905080600101548160000154610d9b9190612041565b81600501819055505050565b600560009054906101000a900473ffffffffffffffffffffffffffffffffffffffff1681565b606060048054610ddc90611db1565b80601f0160208091040260200160405190810160405280929190818152602001828054610e0890611db1565b8015610e555780601f10610e2a57610100808354040283529160200191610e55565b820191906000526020600020905b815481529060010190602001808311610e3857829003601f168201915b5050505050905090565b6000600960008373ffffffffffffffffffffffffffffffffffffffff1673ffffffffffffffffffffffffffffffffffffffff1681526020019081526020016000209050610ee98160060154610edb8360090154610ecd8560080154866007015461197590919063ffffffff16565b61197590919063ffffffff16565b61197590919063ffffffff16565b81600001819055505050565b600080610f00611476565b90506000610f0e82866110b5565b905083811015610f53576040517f08c379a0000000000000000000000000000000000000000000000000000000008152600401610f4a906120f5565b60405180910390fd5b610f60828686840361147e565b60019250505092915050565b600660009054906101000a900473ffffffffffffffffffffffffffffffffffffffff1673ffffffffffffffffffffffffffffffffffffffff163373ffffffffffffffffffffffffffffffffffffffff1614610ffc576040517f08c379a0000000000000000000000000000000000000000000000000000000008152600401610ff390611eb7565b60405180910390fd5b346007600082825461100e9190611e11565b92505081905550565b600080611022611476565b905061102f8185856116d3565b600191505092915050565b600660009054906101000a900473ffffffffffffffffffffffffffffffffffffffff1681565b6000600960008373ffffffffffffffffffffffffffffffffffffffff1673ffffffffffffffffffffffffffffffffffffffff16815260200190815260200160002090506110b1828260030154611320565b5050565b6000600160008473ffffffffffffffffffffffffffffffffffffffff1673ffffffffffffffffffffffffffffffffffffffff16815260200190815260200160002060008373ffffffffffffffffffffffffffffffffffffffff1673ffffffffffffffffffffffffffffffffffffffff16815260200190815260200160002054905092915050565b600a60205280600052604060002060009150905080600001805461115f90611db1565b80601f016020809104026020016040519081016040528092919081815260200182805461118b90611db1565b80156111d85780601f106111ad576101008083540402835291602001916111d8565b820191906000526020600020905b8154815290600101906020018083116111bb57829003601f168201915b5050505050908060010180546111ed90611db1565b80601f016020809104026020016040519081016040528092919081815260200182805461121990611db1565b80156112665780601f1061123b57610100808354040283529160200191611266565b820191906000526020600020905b81548152906001019060200180831161124957829003601f168201915b5050505050908060020154905083565b6000600960008373ffffffffffffffffffffffffffffffffffffffff1673ffffffffffffffffffffffffffffffffffffffff16815260200190815260200160002090506112c7828260050154611320565b5050565b6000600960008373ffffffffffffffffffffffffffffffffffffffff1673ffffffffffffffffffffffffffffffffffffffff168152602001908152602001600020905061131c828260040154611320565b5050565b600073ffffffffffffffffffffffffffffffffffffffff168273ffffffffffffffffffffffffffffffffffffffff160361138f576040517f08c379a000000000000000000000000000000000000000000000000000000000815260040161138690612161565b60405180910390fd5b61139b6000838361198b565b80600260008282546113ad9190611e11565b92505081905550806000808473ffffffffffffffffffffffffffffffffffffffff1673ffffffffffffffffffffffffffffffffffffffff168152602001908152602001600020600082825401925050819055508173ffffffffffffffffffffffffffffffffffffffff16600073ffffffffffffffffffffffffffffffffffffffff167fddf252ad1be2c89b69c2b068fc378daa952ba7f163c4a11628f55a4df523b3ef8360405161145e9190611c2e565b60405180910390a361147260008383611990565b5050565b600033905090565b600073ffffffffffffffffffffffffffffffffffffffff168373ffffffffffffffffffffffffffffffffffffffff16036114ed576040517f08c379a00000000000000000000000000000000000000000000000000000000081526004016114e4906121f3565b60405180910390fd5b600073ffffffffffffffffffffffffffffffffffffffff168273ffffffffffffffffffffffffffffffffffffffff160361155c576040517f08c379a000000000000000000000000000000000000000000000000000000000815260040161155390612285565b60405180910390fd5b80600160008573ffffffffffffffffffffffffffffffffffffffff1673ffffffffffffffffffffffffffffffffffffffff16815260200190815260200160002060008473ffffffffffffffffffffffffffffffffffffffff1673ffffffffffffffffffffffffffffffffffffffff168152602001908152602001600020819055508173ffffffffffffffffffffffffffffffffffffffff168373ffffffffffffffffffffffffffffffffffffffff167f8c5be1e5ebec7d5bd14f71427d1e84f3dd0314c0f7b2291e5b200ac8c7c3b9258360405161163a9190611c2e565b60405180910390a3505050565b600061165384846110b5565b90507fffffffffffffffffffffffffffffffffffffffffffffffffffffffffffffffff81146116cd57818110156116bf576040517f08c379a00000000000000000000000000000000000000000000000000000000081526004016116b6906122f1565b60405180910390fd5b6116cc848484840361147e565b5b50505050565b600073ffffffffffffffffffffffffffffffffffffffff168373ffffffffffffffffffffffffffffffffffffffff1603611742576040517f08c379a000000000000000000000000000000000000000000000000000000000815260040161173990612383565b60405180910390fd5b600073ffffffffffffffffffffffffffffffffffffffff168273ffffffffffffffffffffffffffffffffffffffff16036117b1576040517f08c379a00000000000000000000000000000000000000000000000000000000081526004016117a890612415565b60405180910390fd5b6117bc83838361198b565b60008060008573ffffffffffffffffffffffffffffffffffffffff1673ffffffffffffffffffffffffffffffffffffffff16815260200190815260200160002054905081811015611842576040517f08c379a0000000000000000000000000000000000000000000000000000000008152600401611839906124a7565b60405180910390fd5b8181036000808673ffffffffffffffffffffffffffffffffffffffff1673ffffffffffffffffffffffffffffffffffffffff16815260200190815260200160002081905550816000808573ffffffffffffffffffffffffffffffffffffffff1673ffffffffffffffffffffffffffffffffffffffff168152602001908152602001600020600082825401925050819055508273ffffffffffffffffffffffffffffffffffffffff168473ffffffffffffffffffffffffffffffffffffffff167fddf252ad1be2c89b69c2b068fc378daa952ba7f163c4a11628f55a4df523b3ef846040516119309190611c2e565b60405180910390a3611943848484611990565b50505050565b600081836119579190612041565b905092915050565b6000818361196d91906124f6565b905092915050565b600081836119839190611e11565b905092915050565b505050565b505050565b600081519050919050565b600082825260208201905092915050565b60005b838110156119cf5780820151818401526020810190506119b4565b60008484015250505050565b6000601f19601f8301169050919050565b60006119f782611995565b611a0181856119a0565b9350611a118185602086016119b1565b611a1a816119db565b840191505092915050565b60006020820190508181036000830152611a3f81846119ec565b905092915050565b600080fd5b600073ffffffffffffffffffffffffffffffffffffffff82169050919050565b6000611a7782611a4c565b9050919050565b611a8781611a6c565b8114611a9257600080fd5b50565b600081359050611aa481611a7e565b92915050565b600060208284031215611ac057611abf611a47565b5b6000611ace84828501611a95565b91505092915050565b6000819050919050565b611aea81611ad7565b8114611af557600080fd5b50565b600081359050611b0781611ae1565b92915050565b60008060408385031215611b2457611b23611a47565b5b6000611b3285828601611a95565b9250506020611b4385828601611af8565b9150509250929050565b60008115159050919050565b611b6281611b4d565b82525050565b6000602082019050611b7d6000830184611b59565b92915050565b611b8c81611ad7565b82525050565b600061014082019050611ba8600083018d611b83565b611bb5602083018c611b83565b611bc2604083018b611b83565b611bcf606083018a611b83565b611bdc6080830189611b83565b611be960a0830188611b83565b611bf660c0830187611b83565b611c0360e0830186611b83565b611c11610100830185611b83565b611c1f610120830184611b83565b9b9a5050505050505050505050565b6000602082019050611c436000830184611b83565b92915050565b600080600060608486031215611c6257611c61611a47565b5b6000611c7086828701611a95565b9350506020611c8186828701611a95565b9250506040611c9286828701611af8565b9150509250925092565b600060ff82169050919050565b611cb281611c9c565b82525050565b6000602082019050611ccd6000830184611ca9565b92915050565b611cdc81611a6c565b82525050565b6000602082019050611cf76000830184611cd3565b92915050565b60008060408385031215611d1457611d13611a47565b5b6000611d2285828601611a95565b9250506020611d3385828601611a95565b9150509250929050565b60006060820190508181036000830152611d5781866119ec565b90508181036020830152611d6b81856119ec565b9050611d7a6040830184611b83565b949350505050565b7f4e487b7100000000000000000000000000000000000000000000000000000000600052602260045260246000fd5b60006002820490506001821680611dc957607f821691505b602082108103611ddc57611ddb611d82565b5b50919050565b7f4e487b7100000000000000000000000000000000000000000000000000000000600052601160045260246000fd5b6000611e1c82611ad7565b9150611e2783611ad7565b9250828201905080821115611e3f57611e3e611de2565b5b92915050565b7f4f6e6c79207468652074656e616e742063616e2063616c6c207468697320667560008201527f6e6374696f6e0000000000000000000000000000000000000000000000000000602082015250565b6000611ea16026836119a0565b9150611eac82611e45565b604082019050919050565b60006020820190508181036000830152611ed081611e94565b9050919050565b7f4465706f73697420616d6f756e7420646f6573206e6f74206d61746368000000600082015250565b6000611f0d601d836119a0565b9150611f1882611ed7565b602082019050919050565b60006020820190508181036000830152611f3c81611f00565b9050919050565b7f4f6e6c7920746865206f776e65722063616e2063616c6c20746869732066756e60008201527f6374696f6e000000000000000000000000000000000000000000000000000000602082015250565b6000611f9f6025836119a0565b9150611faa82611f43565b604082019050919050565b60006020820190508181036000830152611fce81611f92565b9050919050565b7f4e6f2072656e7420617661696c61626c6520746f207769746864726177000000600082015250565b600061200b601d836119a0565b915061201682611fd5565b602082019050919050565b6000602082019050818103600083015261203a81611ffe565b9050919050565b600061204c82611ad7565b915061205783611ad7565b925082820261206581611ad7565b9150828204841483151761207c5761207b611de2565b5b5092915050565b7f45524332303a2064656372656173656420616c6c6f77616e63652062656c6f7760008201527f207a65726f000000000000000000000000000000000000000000000000000000602082015250565b60006120df6025836119a0565b91506120ea82612083565b604082019050919050565b6000602082019050818103600083015261210e816120d2565b9050919050565b7f45524332303a206d696e7420746f20746865207a65726f206164647265737300600082015250565b600061214b601f836119a0565b915061215682612115565b602082019050919050565b6000602082019050818103600083015261217a8161213e565b9050919050565b7f45524332303a20617070726f76652066726f6d20746865207a65726f2061646460008201527f7265737300000000000000000000000000000000000000000000000000000000602082015250565b60006121dd6024836119a0565b91506121e882612181565b604082019050919050565b6000602082019050818103600083015261220c816121d0565b9050919050565b7f45524332303a20617070726f766520746f20746865207a65726f20616464726560008201527f7373000000000000000000000000000000000000000000000000000000000000602082015250565b600061226f6022836119a0565b915061227a82612213565b604082019050919050565b6000602082019050818103600083015261229e81612262565b9050919050565b7f45524332303a20696e73756666696369656e7420616c6c6f77616e6365000000600082015250565b60006122db601d836119a0565b91506122e6826122a5565b602082019050919050565b6000602082019050818103600083015261230a816122ce565b9050919050565b7f45524332303a207472616e736665722066726f6d20746865207a65726f20616460008201527f6472657373000000000000000000000000000000000000000000000000000000602082015250565b600061236d6025836119a0565b915061237882612311565b604082019050919050565b6000602082019050818103600083015261239c81612360565b9050919050565b7f45524332303a207472616e7366657220746f20746865207a65726f206164647260008201527f6573730000000000000000000000000000000000000000000000000000000000602082015250565b60006123ff6023836119a0565b915061240a826123a3565b604082019050919050565b6000602082019050818103600083015261242e816123f2565b9050919050565b7f45524332303a207472616e7366657220616d6f756e742065786365656473206260008201527f616c616e63650000000000000000000000000000000000000000000000000000602082015250565b60006124916026836119a0565b915061249c82612435565b604082019050919050565b600060208201905081810360008301526124c081612484565b9050919050565b7f4e487b7100000000000000000000000000000000000000000000000000000000600052601260045260246000fd5b600061250182611ad7565b915061250c83611ad7565b92508261251c5761251b6124c7565b5b82820490509291505056fea2646970667358221220c7e1a71441649abcb034c22a12eb1b4bac97a18bb8029de0888bfd1d45523c4164736f6c63430008120033",
					"opcodes": "PUSH1 0x80 PUSH1 0x40 MSTORE PUSH8 0xDE0B6B3A7640000 PUSH1 0x8 SSTORE CALLVALUE DUP1 ISZERO PUSH3 0x1D JUMPI PUSH1 0x0 DUP1 REVERT JUMPDEST POP PUSH1 0x40 MLOAD DUP1 PUSH1 0x40 ADD PUSH1 0x40 MSTORE DUP1 PUSH1 0xF DUP2 MSTORE PUSH1 0x20 ADD PUSH32 0x5265616C457374617465546F6B656E0000000000000000000000000000000000 DUP2 MSTORE POP PUSH1 0x40 MLOAD DUP1 PUSH1 0x40 ADD PUSH1 0x40 MSTORE DUP1 PUSH1 0x3 DUP2 MSTORE PUSH1 0x20 ADD PUSH32 0x5245540000000000000000000000000000000000000000000000000000000000 DUP2 MSTORE POP DUP2 PUSH1 0x3 SWAP1 DUP2 PUSH3 0x9B SWAP2 SWAP1 PUSH3 0x371 JUMP JUMPDEST POP DUP1 PUSH1 0x4 SWAP1 DUP2 PUSH3 0xAD SWAP2 SWAP1 PUSH3 0x371 JUMP JUMPDEST POP POP POP CALLER PUSH1 0x5 PUSH1 0x0 PUSH2 0x100 EXP DUP2 SLOAD DUP2 PUSH20 0xFFFFFFFFFFFFFFFFFFFFFFFFFFFFFFFFFFFFFFFF MUL NOT AND SWAP1 DUP4 PUSH20 0xFFFFFFFFFFFFFFFFFFFFFFFFFFFFFFFFFFFFFFFF AND MUL OR SWAP1 SSTORE POP PUSH3 0x458 JUMP JUMPDEST PUSH1 0x0 DUP2 MLOAD SWAP1 POP SWAP2 SWAP1 POP JUMP JUMPDEST PUSH32 0x4E487B7100000000000000000000000000000000000000000000000000000000 PUSH1 0x0 MSTORE PUSH1 0x41 PUSH1 0x4 MSTORE PUSH1 0x24 PUSH1 0x0 REVERT JUMPDEST PUSH32 0x4E487B7100000000000000000000000000000000000000000000000000000000 PUSH1 0x0 MSTORE PUSH1 0x22 PUSH1 0x4 MSTORE PUSH1 0x24 PUSH1 0x0 REVERT JUMPDEST PUSH1 0x0 PUSH1 0x2 DUP3 DIV SWAP1 POP PUSH1 0x1 DUP3 AND DUP1 PUSH3 0x179 JUMPI PUSH1 0x7F DUP3 AND SWAP2 POP JUMPDEST PUSH1 0x20 DUP3 LT DUP2 SUB PUSH3 0x18F JUMPI PUSH3 0x18E PUSH3 0x131 JUMP JUMPDEST JUMPDEST POP SWAP2 SWAP1 POP JUMP JUMPDEST PUSH1 0x0 DUP2 SWAP1 POP DUP2 PUSH1 0x0 MSTORE PUSH1 0x20 PUSH1 0x0 KECCAK256 SWAP1 POP SWAP2 SWAP1 POP JUMP JUMPDEST PUSH1 0x0 PUSH1 0x20 PUSH1 0x1F DUP4 ADD DIV SWAP1 POP SWAP2 SWAP1 POP JUMP JUMPDEST PUSH1 0x0 DUP3 DUP3 SHL SWAP1 POP SWAP3 SWAP2 POP POP JUMP JUMPDEST PUSH1 0x0 PUSH1 0x8 DUP4 MUL PUSH3 0x1F9 PUSH32 0xFFFFFFFFFFFFFFFFFFFFFFFFFFFFFFFFFFFFFFFFFFFFFFFFFFFFFFFFFFFFFFFF DUP3 PUSH3 0x1BA JUMP JUMPDEST PUSH3 0x205 DUP7 DUP4 PUSH3 0x1BA JUMP JUMPDEST SWAP6 POP DUP1 NOT DUP5 AND SWAP4 POP DUP1 DUP7 AND DUP5 OR SWAP3 POP POP POP SWAP4 SWAP3 POP POP POP JUMP JUMPDEST PUSH1 0x0 DUP2 SWAP1 POP SWAP2 SWAP1 POP JUMP JUMPDEST PUSH1 0x0 DUP2 SWAP1 POP SWAP2 SWAP1 POP JUMP JUMPDEST PUSH1 0x0 PUSH3 0x252 PUSH3 0x24C PUSH3 0x246 DUP5 PUSH3 0x21D JUMP JUMPDEST PUSH3 0x227 JUMP JUMPDEST PUSH3 0x21D JUMP JUMPDEST SWAP1 POP SWAP2 SWAP1 POP JUMP JUMPDEST PUSH1 0x0 DUP2 SWAP1 POP SWAP2 SWAP1 POP JUMP JUMPDEST PUSH3 0x26E DUP4 PUSH3 0x231 JUMP JUMPDEST PUSH3 0x286 PUSH3 0x27D DUP3 PUSH3 0x259 JUMP JUMPDEST DUP5 DUP5 SLOAD PUSH3 0x1C7 JUMP JUMPDEST DUP3 SSTORE POP POP POP POP JUMP JUMPDEST PUSH1 0x0 SWAP1 JUMP JUMPDEST PUSH3 0x29D PUSH3 0x28E JUMP JUMPDEST PUSH3 0x2AA DUP2 DUP5 DUP5 PUSH3 0x263 JUMP JUMPDEST POP POP POP JUMP JUMPDEST JUMPDEST DUP2 DUP2 LT ISZERO PUSH3 0x2D2 JUMPI PUSH3 0x2C6 PUSH1 0x0 DUP3 PUSH3 0x293 JUMP JUMPDEST PUSH1 0x1 DUP2 ADD SWAP1 POP PUSH3 0x2B0 JUMP JUMPDEST POP POP JUMP JUMPDEST PUSH1 0x1F DUP3 GT ISZERO PUSH3 0x321 JUMPI PUSH3 0x2EB DUP2 PUSH3 0x195 JUMP JUMPDEST PUSH3 0x2F6 DUP5 PUSH3 0x1AA JUMP JUMPDEST DUP2 ADD PUSH1 0x20 DUP6 LT ISZERO PUSH3 0x306 JUMPI DUP2 SWAP1 POP JUMPDEST PUSH3 0x31E PUSH3 0x315 DUP6 PUSH3 0x1AA JUMP JUMPDEST DUP4 ADD DUP3 PUSH3 0x2AF JUMP JUMPDEST POP POP JUMPDEST POP POP POP JUMP JUMPDEST PUSH1 0x0 DUP3 DUP3 SHR SWAP1 POP SWAP3 SWAP2 POP POP JUMP JUMPDEST PUSH1 0x0 PUSH3 0x346 PUSH1 0x0 NOT DUP5 PUSH1 0x8 MUL PUSH3 0x326 JUMP JUMPDEST NOT DUP1 DUP4 AND SWAP2 POP POP SWAP3 SWAP2 POP POP JUMP JUMPDEST PUSH1 0x0 PUSH3 0x361 DUP4 DUP4 PUSH3 0x333 JUMP JUMPDEST SWAP2 POP DUP3 PUSH1 0x2 MUL DUP3 OR SWAP1 POP SWAP3 SWAP2 POP POP JUMP JUMPDEST PUSH3 0x37C DUP3 PUSH3 0xF7 JUMP JUMPDEST PUSH8 0xFFFFFFFFFFFFFFFF DUP2 GT ISZERO PUSH3 0x398 JUMPI PUSH3 0x397 PUSH3 0x102 JUMP JUMPDEST JUMPDEST PUSH3 0x3A4 DUP3 SLOAD PUSH3 0x160 JUMP JUMPDEST PUSH3 0x3B1 DUP3 DUP3 DUP6 PUSH3 0x2D6 JUMP JUMPDEST PUSH1 0x0 PUSH1 0x20 SWAP1 POP PUSH1 0x1F DUP4 GT PUSH1 0x1 DUP2 EQ PUSH3 0x3E9 JUMPI PUSH1 0x0 DUP5 ISZERO PUSH3 0x3D4 JUMPI DUP3 DUP8 ADD MLOAD SWAP1 POP JUMPDEST PUSH3 0x3E0 DUP6 DUP3 PUSH3 0x353 JUMP JUMPDEST DUP7 SSTORE POP PUSH3 0x450 JUMP JUMPDEST PUSH1 0x1F NOT DUP5 AND PUSH3 0x3F9 DUP7 PUSH3 0x195 JUMP JUMPDEST PUSH1 0x0 JUMPDEST DUP3 DUP2 LT ISZERO PUSH3 0x423 JUMPI DUP5 DUP10 ADD MLOAD DUP3 SSTORE PUSH1 0x1 DUP3 ADD SWAP2 POP PUSH1 0x20 DUP6 ADD SWAP5 POP PUSH1 0x20 DUP2 ADD SWAP1 POP PUSH3 0x3FC JUMP JUMPDEST DUP7 DUP4 LT ISZERO PUSH3 0x443 JUMPI DUP5 DUP10 ADD MLOAD PUSH3 0x43F PUSH1 0x1F DUP10 AND DUP3 PUSH3 0x333 JUMP JUMPDEST DUP4 SSTORE POP JUMPDEST PUSH1 0x1 PUSH1 0x2 DUP9 MUL ADD DUP9 SSTORE POP POP POP JUMPDEST POP POP POP POP POP POP JUMP JUMPDEST PUSH2 0x255D DUP1 PUSH3 0x468 PUSH1 0x0 CODECOPY PUSH1 0x0 RETURN INVALID PUSH1 0x80 PUSH1 0x40 MSTORE PUSH1 0x4 CALLDATASIZE LT PUSH2 0x1D8 JUMPI PUSH1 0x0 CALLDATALOAD PUSH1 0xE0 SHR DUP1 PUSH4 0x575E6CEC GT PUSH2 0x102 JUMPI DUP1 PUSH4 0xA709C4FE GT PUSH2 0x95 JUMPI DUP1 PUSH4 0xDD62ED3E GT PUSH2 0x64 JUMPI DUP1 PUSH4 0xDD62ED3E EQ PUSH2 0x68E JUMPI DUP1 PUSH4 0xE01FE4C3 EQ PUSH2 0x6CB JUMPI DUP1 PUSH4 0xF857F752 EQ PUSH2 0x70A JUMPI DUP1 PUSH4 0xFCF8F422 EQ PUSH2 0x733 JUMPI PUSH2 0x1D8 JUMP JUMPDEST DUP1 PUSH4 0xA709C4FE EQ PUSH2 0x5F3 JUMPI DUP1 PUSH4 0xA9059CBB EQ PUSH2 0x5FD JUMPI DUP1 PUSH4 0xADF07791 EQ PUSH2 0x63A JUMPI DUP1 PUSH4 0xBEEE50F7 EQ PUSH2 0x665 JUMPI PUSH2 0x1D8 JUMP JUMPDEST DUP1 PUSH4 0x8DA5CB5B GT PUSH2 0xD1 JUMPI DUP1 PUSH4 0x8DA5CB5B EQ PUSH2 0x537 JUMPI DUP1 PUSH4 0x95D89B41 EQ PUSH2 0x562 JUMPI DUP1 PUSH4 0x976F5F61 EQ PUSH2 0x58D JUMPI DUP1 PUSH4 0xA457C2D7 EQ PUSH2 0x5B6 JUMPI PUSH2 0x1D8 JUMP JUMPDEST DUP1 PUSH4 0x575E6CEC EQ PUSH2 0x49E JUMPI DUP1 PUSH4 0x6322182E EQ PUSH2 0x4C7 JUMPI DUP1 PUSH4 0x70A08231 EQ PUSH2 0x4D1 JUMPI DUP1 PUSH4 0x88E20ABB EQ PUSH2 0x50E JUMPI PUSH2 0x1D8 JUMP JUMPDEST DUP1 PUSH4 0x255DBB53 GT PUSH2 0x17A JUMPI DUP1 PUSH4 0x419759F5 GT PUSH2 0x149 JUMPI DUP1 PUSH4 0x419759F5 EQ PUSH2 0x415 JUMPI DUP1 PUSH4 0x42C63DAE EQ PUSH2 0x440 JUMPI DUP1 PUSH4 0x44BA41DB EQ PUSH2 0x44A JUMPI DUP1 PUSH4 0x4B7851F7 EQ PUSH2 0x473 JUMPI PUSH2 0x1D8 JUMP JUMPDEST DUP1 PUSH4 0x255DBB53 EQ PUSH2 0x347 JUMPI DUP1 PUSH4 0x2E74A4DE EQ PUSH2 0x384 JUMPI DUP1 PUSH4 0x313CE567 EQ PUSH2 0x3AD JUMPI DUP1 PUSH4 0x39509351 EQ PUSH2 0x3D8 JUMPI PUSH2 0x1D8 JUMP JUMPDEST DUP1 PUSH4 0xDF9C426 GT PUSH2 0x1B6 JUMPI DUP1 PUSH4 0xDF9C426 EQ PUSH2 0x26E JUMPI DUP1 PUSH4 0x12065FE0 EQ PUSH2 0x2B4 JUMPI DUP1 PUSH4 0x18160DDD EQ PUSH2 0x2DF JUMPI DUP1 PUSH4 0x23B872DD EQ PUSH2 0x30A JUMPI PUSH2 0x1D8 JUMP JUMPDEST DUP1 PUSH4 0x6FDDE03 EQ PUSH2 0x1DD JUMPI DUP1 PUSH4 0x89A6115 EQ PUSH2 0x208 JUMPI DUP1 PUSH4 0x95EA7B3 EQ PUSH2 0x231 JUMPI JUMPDEST PUSH1 0x0 DUP1 REVERT JUMPDEST CALLVALUE DUP1 ISZERO PUSH2 0x1E9 JUMPI PUSH1 0x0 DUP1 REVERT JUMPDEST POP PUSH2 0x1F2 PUSH2 0x75C JUMP JUMPDEST PUSH1 0x40 MLOAD PUSH2 0x1FF SWAP2 SWAP1 PUSH2 0x1A25 JUMP JUMPDEST PUSH1 0x40 MLOAD DUP1 SWAP2 SUB SWAP1 RETURN JUMPDEST CALLVALUE DUP1 ISZERO PUSH2 0x214 JUMPI PUSH1 0x0 DUP1 REVERT JUMPDEST POP PUSH2 0x22F PUSH1 0x4 DUP1 CALLDATASIZE SUB DUP2 ADD SWAP1 PUSH2 0x22A SWAP2 SWAP1 PUSH2 0x1AAA JUMP JUMPDEST PUSH2 0x7EE JUMP JUMPDEST STOP JUMPDEST CALLVALUE DUP1 ISZERO PUSH2 0x23D JUMPI PUSH1 0x0 DUP1 REVERT JUMPDEST POP PUSH2 0x258 PUSH1 0x4 DUP1 CALLDATASIZE SUB DUP2 ADD SWAP1 PUSH2 0x253 SWAP2 SWAP1 PUSH2 0x1B0D JUMP JUMPDEST PUSH2 0x843 JUMP JUMPDEST PUSH1 0x40 MLOAD PUSH2 0x265 SWAP2 SWAP1 PUSH2 0x1B68 JUMP JUMPDEST PUSH1 0x40 MLOAD DUP1 SWAP2 SUB SWAP1 RETURN JUMPDEST CALLVALUE DUP1 ISZERO PUSH2 0x27A JUMPI PUSH1 0x0 DUP1 REVERT JUMPDEST POP PUSH2 0x295 PUSH1 0x4 DUP1 CALLDATASIZE SUB DUP2 ADD SWAP1 PUSH2 0x290 SWAP2 SWAP1 PUSH2 0x1AAA JUMP JUMPDEST PUSH2 0x866 JUMP JUMPDEST PUSH1 0x40 MLOAD PUSH2 0x2AB SWAP11 SWAP10 SWAP9 SWAP8 SWAP7 SWAP6 SWAP5 SWAP4 SWAP3 SWAP2 SWAP1 PUSH2 0x1B92 JUMP JUMPDEST PUSH1 0x40 MLOAD DUP1 SWAP2 SUB SWAP1 RETURN JUMPDEST CALLVALUE DUP1 ISZERO PUSH2 0x2C0 JUMPI PUSH1 0x0 DUP1 REVERT JUMPDEST POP PUSH2 0x2C9 PUSH2 0x8BA JUMP JUMPDEST PUSH1 0x40 MLOAD PUSH2 0x2D6 SWAP2 SWAP1 PUSH2 0x1C2E JUMP JUMPDEST PUSH1 0x40 MLOAD DUP1 SWAP2 SUB SWAP1 RETURN JUMPDEST CALLVALUE DUP1 ISZERO PUSH2 0x2EB JUMPI PUSH1 0x0 DUP1 REVERT JUMPDEST POP PUSH2 0x2F4 PUSH2 0x8C2 JUMP JUMPDEST PUSH1 0x40 MLOAD PUSH2 0x301 SWAP2 SWAP1 PUSH2 0x1C2E JUMP JUMPDEST PUSH1 0x40 MLOAD DUP1 SWAP2 SUB SWAP1 RETURN JUMPDEST CALLVALUE DUP1 ISZERO PUSH2 0x316 JUMPI PUSH1 0x0 DUP1 REVERT JUMPDEST POP PUSH2 0x331 PUSH1 0x4 DUP1 CALLDATASIZE SUB DUP2 ADD SWAP1 PUSH2 0x32C SWAP2 SWAP1 PUSH2 0x1C49 JUMP JUMPDEST PUSH2 0x8CC JUMP JUMPDEST PUSH1 0x40 MLOAD PUSH2 0x33E SWAP2 SWAP1 PUSH2 0x1B68 JUMP JUMPDEST PUSH1 0x40 MLOAD DUP1 SWAP2 SUB SWAP1 RETURN JUMPDEST CALLVALUE DUP1 ISZERO PUSH2 0x353 JUMPI PUSH1 0x0 DUP1 REVERT JUMPDEST POP PUSH2 0x36E PUSH1 0x4 DUP1 CALLDATASIZE SUB DUP2 ADD SWAP1 PUSH2 0x369 SWAP2 SWAP1 PUSH2 0x1AAA JUMP JUMPDEST PUSH2 0x8FB JUMP JUMPDEST PUSH1 0x40 MLOAD PUSH2 0x37B SWAP2 SWAP1 PUSH2 0x1B68 JUMP JUMPDEST PUSH1 0x40 MLOAD DUP1 SWAP2 SUB SWAP1 RETURN JUMPDEST CALLVALUE DUP1 ISZERO PUSH2 0x390 JUMPI PUSH1 0x0 DUP1 REVERT JUMPDEST POP PUSH2 0x3AB PUSH1 0x4 DUP1 CALLDATASIZE SUB DUP2 ADD SWAP1 PUSH2 0x3A6 SWAP2 SWAP1 PUSH2 0x1AAA JUMP JUMPDEST PUSH2 0x91B JUMP JUMPDEST STOP JUMPDEST CALLVALUE DUP1 ISZERO PUSH2 0x3B9 JUMPI PUSH1 0x0 DUP1 REVERT JUMPDEST POP PUSH2 0x3C2 PUSH2 0x95F JUMP JUMPDEST PUSH1 0x40 MLOAD PUSH2 0x3CF SWAP2 SWAP1 PUSH2 0x1CB8 JUMP JUMPDEST PUSH1 0x40 MLOAD DUP1 SWAP2 SUB SWAP1 RETURN JUMPDEST CALLVALUE DUP1 ISZERO PUSH2 0x3E4 JUMPI PUSH1 0x0 DUP1 REVERT JUMPDEST POP PUSH2 0x3FF PUSH1 0x4 DUP1 CALLDATASIZE SUB DUP2 ADD SWAP1 PUSH2 0x3FA SWAP2 SWAP1 PUSH2 0x1B0D JUMP JUMPDEST PUSH2 0x968 JUMP JUMPDEST PUSH1 0x40 MLOAD PUSH2 0x40C SWAP2 SWAP1 PUSH2 0x1B68 JUMP JUMPDEST PUSH1 0x40 MLOAD DUP1 SWAP2 SUB SWAP1 RETURN JUMPDEST CALLVALUE DUP1 ISZERO PUSH2 0x421 JUMPI PUSH1 0x0 DUP1 REVERT JUMPDEST POP PUSH2 0x42A PUSH2 0x99F JUMP JUMPDEST PUSH1 0x40 MLOAD PUSH2 0x437 SWAP2 SWAP1 PUSH2 0x1C2E JUMP JUMPDEST PUSH1 0x40 MLOAD DUP1 SWAP2 SUB SWAP1 RETURN JUMPDEST PUSH2 0x448 PUSH2 0x9A5 JUMP JUMPDEST STOP JUMPDEST CALLVALUE DUP1 ISZERO PUSH2 0x456 JUMPI PUSH1 0x0 DUP1 REVERT JUMPDEST POP PUSH2 0x471 PUSH1 0x4 DUP1 CALLDATASIZE SUB DUP2 ADD SWAP1 PUSH2 0x46C SWAP2 SWAP1 PUSH2 0x1AAA JUMP JUMPDEST PUSH2 0xAD3 JUMP JUMPDEST STOP JUMPDEST CALLVALUE DUP1 ISZERO PUSH2 0x47F JUMPI PUSH1 0x0 DUP1 REVERT JUMPDEST POP PUSH2 0x488 PUSH2 0xB4D JUMP JUMPDEST PUSH1 0x40 MLOAD PUSH2 0x495 SWAP2 SWAP1 PUSH2 0x1C2E JUMP JUMPDEST PUSH1 0x40 MLOAD DUP1 SWAP2 SUB SWAP1 RETURN JUMPDEST CALLVALUE DUP1 ISZERO PUSH2 0x4AA JUMPI PUSH1 0x0 DUP1 REVERT JUMPDEST POP PUSH2 0x4C5 PUSH1 0x4 DUP1 CALLDATASIZE SUB DUP2 ADD SWAP1 PUSH2 0x4C0 SWAP2 SWAP1 PUSH2 0x1AAA JUMP JUMPDEST PUSH2 0xB53 JUMP JUMPDEST STOP JUMPDEST PUSH2 0x4CF PUSH2 0xBBA JUMP JUMPDEST STOP JUMPDEST CALLVALUE DUP1 ISZERO PUSH2 0x4DD JUMPI PUSH1 0x0 DUP1 REVERT JUMPDEST POP PUSH2 0x4F8 PUSH1 0x4 DUP1 CALLDATASIZE SUB DUP2 ADD SWAP1 PUSH2 0x4F3 SWAP2 SWAP1 PUSH2 0x1AAA JUMP JUMPDEST PUSH2 0xCFC JUMP JUMPDEST PUSH1 0x40 MLOAD PUSH2 0x505 SWAP2 SWAP1 PUSH2 0x1C2E JUMP JUMPDEST PUSH1 0x40 MLOAD DUP1 SWAP2 SUB SWAP1 RETURN JUMPDEST CALLVALUE DUP1 ISZERO PUSH2 0x51A JUMPI PUSH1 0x0 DUP1 REVERT JUMPDEST POP PUSH2 0x535 PUSH1 0x4 DUP1 CALLDATASIZE SUB DUP2 ADD SWAP1 PUSH2 0x530 SWAP2 SWAP1 PUSH2 0x1AAA JUMP JUMPDEST PUSH2 0xD44 JUMP JUMPDEST STOP JUMPDEST CALLVALUE DUP1 ISZERO PUSH2 0x543 JUMPI PUSH1 0x0 DUP1 REVERT JUMPDEST POP PUSH2 0x54C PUSH2 0xDA7 JUMP JUMPDEST PUSH1 0x40 MLOAD PUSH2 0x559 SWAP2 SWAP1 PUSH2 0x1CE2 JUMP JUMPDEST PUSH1 0x40 MLOAD DUP1 SWAP2 SUB SWAP1 RETURN JUMPDEST CALLVALUE DUP1 ISZERO PUSH2 0x56E JUMPI PUSH1 0x0 DUP1 REVERT JUMPDEST POP PUSH2 0x577 PUSH2 0xDCD JUMP JUMPDEST PUSH1 0x40 MLOAD PUSH2 0x584 SWAP2 SWAP1 PUSH2 0x1A25 JUMP JUMPDEST PUSH1 0x40 MLOAD DUP1 SWAP2 SUB SWAP1 RETURN JUMPDEST CALLVALUE DUP1 ISZERO PUSH2 0x599 JUMPI PUSH1 0x0 DUP1 REVERT JUMPDEST POP PUSH2 0x5B4 PUSH1 0x4 DUP1 CALLDATASIZE SUB DUP2 ADD SWAP1 PUSH2 0x5AF SWAP2 SWAP1 PUSH2 0x1AAA JUMP JUMPDEST PUSH2 0xE5F JUMP JUMPDEST STOP JUMPDEST CALLVALUE DUP1 ISZERO PUSH2 0x5C2 JUMPI PUSH1 0x0 DUP1 REVERT JUMPDEST POP PUSH2 0x5DD PUSH1 0x4 DUP1 CALLDATASIZE SUB DUP2 ADD SWAP1 PUSH2 0x5D8 SWAP2 SWAP1 PUSH2 0x1B0D JUMP JUMPDEST PUSH2 0xEF5 JUMP JUMPDEST PUSH1 0x40 MLOAD PUSH2 0x5EA SWAP2 SWAP1 PUSH2 0x1B68 JUMP JUMPDEST PUSH1 0x40 MLOAD DUP1 SWAP2 SUB SWAP1 RETURN JUMPDEST PUSH2 0x5FB PUSH2 0xF6C JUMP JUMPDEST STOP JUMPDEST CALLVALUE DUP1 ISZERO PUSH2 0x609 JUMPI PUSH1 0x0 DUP1 REVERT JUMPDEST POP PUSH2 0x624 PUSH1 0x4 DUP1 CALLDATASIZE SUB DUP2 ADD SWAP1 PUSH2 0x61F SWAP2 SWAP1 PUSH2 0x1B0D JUMP JUMPDEST PUSH2 0x1017 JUMP JUMPDEST PUSH1 0x40 MLOAD PUSH2 0x631 SWAP2 SWAP1 PUSH2 0x1B68 JUMP JUMPDEST PUSH1 0x40 MLOAD DUP1 SWAP2 SUB SWAP1 RETURN JUMPDEST CALLVALUE DUP1 ISZERO PUSH2 0x646 JUMPI PUSH1 0x0 DUP1 REVERT JUMPDEST POP PUSH2 0x64F PUSH2 0x103A JUMP JUMPDEST PUSH1 0x40 MLOAD PUSH2 0x65C SWAP2 SWAP1 PUSH2 0x1CE2 JUMP JUMPDEST PUSH1 0x40 MLOAD DUP1 SWAP2 SUB SWAP1 RETURN JUMPDEST CALLVALUE DUP1 ISZERO PUSH2 0x671 JUMPI PUSH1 0x0 DUP1 REVERT JUMPDEST POP PUSH2 0x68C PUSH1 0x4 DUP1 CALLDATASIZE SUB DUP2 ADD SWAP1 PUSH2 0x687 SWAP2 SWAP1 PUSH2 0x1AAA JUMP JUMPDEST PUSH2 0x1060 JUMP JUMPDEST STOP JUMPDEST CALLVALUE DUP1 ISZERO PUSH2 0x69A JUMPI PUSH1 0x0 DUP1 REVERT JUMPDEST POP PUSH2 0x6B5 PUSH1 0x4 DUP1 CALLDATASIZE SUB DUP2 ADD SWAP1 PUSH2 0x6B0 SWAP2 SWAP1 PUSH2 0x1CFD JUMP JUMPDEST PUSH2 0x10B5 JUMP JUMPDEST PUSH1 0x40 MLOAD PUSH2 0x6C2 SWAP2 SWAP1 PUSH2 0x1C2E JUMP JUMPDEST PUSH1 0x40 MLOAD DUP1 SWAP2 SUB SWAP1 RETURN JUMPDEST CALLVALUE DUP1 ISZERO PUSH2 0x6D7 JUMPI PUSH1 0x0 DUP1 REVERT JUMPDEST POP PUSH2 0x6F2 PUSH1 0x4 DUP1 CALLDATASIZE SUB DUP2 ADD SWAP1 PUSH2 0x6ED SWAP2 SWAP1 PUSH2 0x1AAA JUMP JUMPDEST PUSH2 0x113C JUMP JUMPDEST PUSH1 0x40 MLOAD PUSH2 0x701 SWAP4 SWAP3 SWAP2 SWAP1 PUSH2 0x1D3D JUMP JUMPDEST PUSH1 0x40 MLOAD DUP1 SWAP2 SUB SWAP1 RETURN JUMPDEST CALLVALUE DUP1 ISZERO PUSH2 0x716 JUMPI PUSH1 0x0 DUP1 REVERT JUMPDEST POP PUSH2 0x731 PUSH1 0x4 DUP1 CALLDATASIZE SUB DUP2 ADD SWAP1 PUSH2 0x72C SWAP2 SWAP1 PUSH2 0x1AAA JUMP JUMPDEST PUSH2 0x1276 JUMP JUMPDEST STOP JUMPDEST CALLVALUE DUP1 ISZERO PUSH2 0x73F JUMPI PUSH1 0x0 DUP1 REVERT JUMPDEST POP PUSH2 0x75A PUSH1 0x4 DUP1 CALLDATASIZE SUB DUP2 ADD SWAP1 PUSH2 0x755 SWAP2 SWAP1 PUSH2 0x1AAA JUMP JUMPDEST PUSH2 0x12CB JUMP JUMPDEST STOP JUMPDEST PUSH1 0x60 PUSH1 0x3 DUP1 SLOAD PUSH2 0x76B SWAP1 PUSH2 0x1DB1 JUMP JUMPDEST DUP1 PUSH1 0x1F ADD PUSH1 0x20 DUP1 SWAP2 DIV MUL PUSH1 0x20 ADD PUSH1 0x40 MLOAD SWAP1 DUP2 ADD PUSH1 0x40 MSTORE DUP1 SWAP3 SWAP2 SWAP1 DUP2 DUP2 MSTORE PUSH1 0x20 ADD DUP3 DUP1 SLOAD PUSH2 0x797 SWAP1 PUSH2 0x1DB1 JUMP JUMPDEST DUP1 ISZERO PUSH2 0x7E4 JUMPI DUP1 PUSH1 0x1F LT PUSH2 0x7B9 JUMPI PUSH2 0x100 DUP1 DUP4 SLOAD DIV MUL DUP4 MSTORE SWAP2 PUSH1 0x20 ADD SWAP2 PUSH2 0x7E4 JUMP JUMPDEST DUP3 ADD SWAP2 SWAP1 PUSH1 0x0 MSTORE PUSH1 0x20 PUSH1 0x0 KECCAK256 SWAP1 JUMPDEST DUP2 SLOAD DUP2 MSTORE SWAP1 PUSH1 0x1 ADD SWAP1 PUSH1 0x20 ADD DUP1 DUP4 GT PUSH2 0x7C7 JUMPI DUP3 SWAP1 SUB PUSH1 0x1F AND DUP3 ADD SWAP2 JUMPDEST POP POP POP POP POP SWAP1 POP SWAP1 JUMP JUMPDEST PUSH1 0x0 PUSH1 0x9 PUSH1 0x0 DUP4 PUSH20 0xFFFFFFFFFFFFFFFFFFFFFFFFFFFFFFFFFFFFFFFF AND PUSH20 0xFFFFFFFFFFFFFFFFFFFFFFFFFFFFFFFFFFFFFFFF AND DUP2 MSTORE PUSH1 0x20 ADD SWAP1 DUP2 MSTORE PUSH1 0x20 ADD PUSH1 0x0 KECCAK256 SWAP1 POP PUSH2 0x83F DUP3 DUP3 PUSH1 0x0 ADD SLOAD PUSH2 0x1320 JUMP JUMPDEST POP POP JUMP JUMPDEST PUSH1 0x0 DUP1 PUSH2 0x84E PUSH2 0x1476 JUMP JUMPDEST SWAP1 POP PUSH2 0x85B DUP2 DUP6 DUP6 PUSH2 0x147E JUMP JUMPDEST PUSH1 0x1 SWAP2 POP POP SWAP3 SWAP2 POP POP JUMP JUMPDEST PUSH1 0x9 PUSH1 0x20 MSTORE DUP1 PUSH1 0x0 MSTORE PUSH1 0x40 PUSH1 0x0 KECCAK256 PUSH1 0x0 SWAP2 POP SWAP1 POP DUP1 PUSH1 0x0 ADD SLOAD SWAP1 DUP1 PUSH1 0x1 ADD SLOAD SWAP1 DUP1 PUSH1 0x2 ADD SLOAD SWAP1 DUP1 PUSH1 0x3 ADD SLOAD SWAP1 DUP1 PUSH1 0x4 ADD SLOAD SWAP1 DUP1 PUSH1 0x5 ADD SLOAD SWAP1 DUP1 PUSH1 0x6 ADD SLOAD SWAP1 DUP1 PUSH1 0x7 ADD SLOAD SWAP1 DUP1 PUSH1 0x8 ADD SLOAD SWAP1 DUP1 PUSH1 0x9 ADD SLOAD SWAP1 POP DUP11 JUMP JUMPDEST PUSH1 0x0 SELFBALANCE SWAP1 POP SWAP1 JUMP JUMPDEST PUSH1 0x0 PUSH1 0x2 SLOAD SWAP1 POP SWAP1 JUMP JUMPDEST PUSH1 0x0 DUP1 PUSH2 0x8D7 PUSH2 0x1476 JUMP JUMPDEST SWAP1 POP PUSH2 0x8E4 DUP6 DUP3 DUP6 PUSH2 0x1647 JUMP JUMPDEST PUSH2 0x8EF DUP6 DUP6 DUP6 PUSH2 0x16D3 JUMP JUMPDEST PUSH1 0x1 SWAP2 POP POP SWAP4 SWAP3 POP POP POP JUMP JUMPDEST PUSH1 0xB PUSH1 0x20 MSTORE DUP1 PUSH1 0x0 MSTORE PUSH1 0x40 PUSH1 0x0 KECCAK256 PUSH1 0x0 SWAP2 POP SLOAD SWAP1 PUSH2 0x100 EXP SWAP1 DIV PUSH1 0xFF AND DUP2 JUMP JUMPDEST DUP1 PUSH1 0x6 PUSH1 0x0 PUSH2 0x100 EXP DUP2 SLOAD DUP2 PUSH20 0xFFFFFFFFFFFFFFFFFFFFFFFFFFFFFFFFFFFFFFFF MUL NOT AND SWAP1 DUP4 PUSH20 0xFFFFFFFFFFFFFFFFFFFFFFFFFFFFFFFFFFFFFFFF AND MUL OR SWAP1 SSTORE POP POP JUMP JUMPDEST PUSH1 0x0 PUSH1 0x12 SWAP1 POP SWAP1 JUMP JUMPDEST PUSH1 0x0 DUP1 PUSH2 0x973 PUSH2 0x1476 JUMP JUMPDEST SWAP1 POP PUSH2 0x994 DUP2 DUP6 DUP6 PUSH2 0x985 DUP6 DUP10 PUSH2 0x10B5 JUMP JUMPDEST PUSH2 0x98F SWAP2 SWAP1 PUSH2 0x1E11 JUMP JUMPDEST PUSH2 0x147E JUMP JUMPDEST PUSH1 0x1 SWAP2 POP POP SWAP3 SWAP2 POP POP JUMP JUMPDEST PUSH1 0x8 SLOAD DUP2 JUMP JUMPDEST PUSH1 0x6 PUSH1 0x0 SWAP1 SLOAD SWAP1 PUSH2 0x100 EXP SWAP1 DIV PUSH20 0xFFFFFFFFFFFFFFFFFFFFFFFFFFFFFFFFFFFFFFFF AND PUSH20 0xFFFFFFFFFFFFFFFFFFFFFFFFFFFFFFFFFFFFFFFF AND CALLER PUSH20 0xFFFFFFFFFFFFFFFFFFFFFFFFFFFFFFFFFFFFFFFF AND EQ PUSH2 0xA35 JUMPI PUSH1 0x40 MLOAD PUSH32 0x8C379A000000000000000000000000000000000000000000000000000000000 DUP2 MSTORE PUSH1 0x4 ADD PUSH2 0xA2C SWAP1 PUSH2 0x1EB7 JUMP JUMPDEST PUSH1 0x40 MLOAD DUP1 SWAP2 SUB SWAP1 REVERT JUMPDEST PUSH1 0x8 SLOAD CALLVALUE EQ PUSH2 0xA79 JUMPI PUSH1 0x40 MLOAD PUSH32 0x8C379A000000000000000000000000000000000000000000000000000000000 DUP2 MSTORE PUSH1 0x4 ADD PUSH2 0xA70 SWAP1 PUSH2 0x1F23 JUMP JUMPDEST PUSH1 0x40 MLOAD DUP1 SWAP2 SUB SWAP1 REVERT JUMPDEST PUSH1 0x1 PUSH1 0xB PUSH1 0x0 CALLER PUSH20 0xFFFFFFFFFFFFFFFFFFFFFFFFFFFFFFFFFFFFFFFF AND PUSH20 0xFFFFFFFFFFFFFFFFFFFFFFFFFFFFFFFFFFFFFFFF AND DUP2 MSTORE PUSH1 0x20 ADD SWAP1 DUP2 MSTORE PUSH1 0x20 ADD PUSH1 0x0 KECCAK256 PUSH1 0x0 PUSH2 0x100 EXP DUP2 SLOAD DUP2 PUSH1 0xFF MUL NOT AND SWAP1 DUP4 ISZERO ISZERO MUL OR SWAP1 SSTORE POP JUMP JUMPDEST PUSH1 0x0 PUSH1 0x9 PUSH1 0x0 DUP4 PUSH20 0xFFFFFFFFFFFFFFFFFFFFFFFFFFFFFFFFFFFFFFFF AND PUSH20 0xFFFFFFFFFFFFFFFFFFFFFFFFFFFFFFFFFFFFFFFF AND DUP2 MSTORE PUSH1 0x20 ADD SWAP1 DUP2 MSTORE PUSH1 0x20 ADD PUSH1 0x0 KECCAK256 SWAP1 POP PUSH2 0xB41 PUSH1 0x64 PUSH2 0xB33 PUSH1 0x8 DUP5 PUSH1 0x5 ADD SLOAD PUSH2 0x1949 SWAP1 SWAP2 SWAP1 PUSH4 0xFFFFFFFF AND JUMP JUMPDEST PUSH2 0x195F SWAP1 SWAP2 SWAP1 PUSH4 0xFFFFFFFF AND JUMP JUMPDEST DUP2 PUSH1 0x3 ADD DUP2 SWAP1 SSTORE POP POP POP JUMP JUMPDEST PUSH1 0x7 SLOAD DUP2 JUMP JUMPDEST PUSH1 0x0 PUSH1 0x9 PUSH1 0x0 DUP4 PUSH20 0xFFFFFFFFFFFFFFFFFFFFFFFFFFFFFFFFFFFFFFFF AND PUSH20 0xFFFFFFFFFFFFFFFFFFFFFFFFFFFFFFFFFFFFFFFF AND DUP2 MSTORE PUSH1 0x20 ADD SWAP1 DUP2 MSTORE PUSH1 0x20 ADD PUSH1 0x0 KECCAK256 SWAP1 POP PUSH2 0xBAE PUSH1 0xC DUP3 PUSH1 0x3 ADD SLOAD PUSH2 0x195F SWAP1 SWAP2 SWAP1 PUSH4 0xFFFFFFFF AND JUMP JUMPDEST DUP2 PUSH1 0x4 ADD DUP2 SWAP1 SSTORE POP POP POP JUMP JUMPDEST PUSH1 0x5 PUSH1 0x0 SWAP1 SLOAD SWAP1 PUSH2 0x100 EXP SWAP1 DIV PUSH20 0xFFFFFFFFFFFFFFFFFFFFFFFFFFFFFFFFFFFFFFFF AND PUSH20 0xFFFFFFFFFFFFFFFFFFFFFFFFFFFFFFFFFFFFFFFF AND CALLER PUSH20 0xFFFFFFFFFFFFFFFFFFFFFFFFFFFFFFFFFFFFFFFF AND EQ PUSH2 0xC4A JUMPI PUSH1 0x40 MLOAD PUSH32 0x8C379A000000000000000000000000000000000000000000000000000000000 DUP2 MSTORE PUSH1 0x4 ADD PUSH2 0xC41 SWAP1 PUSH2 0x1FB5 JUMP JUMPDEST PUSH1 0x40 MLOAD DUP1 SWAP2 SUB SWAP1 REVERT JUMPDEST PUSH1 0x0 PUSH1 0x7 SLOAD GT PUSH2 0xC8F JUMPI PUSH1 0x40 MLOAD PUSH32 0x8C379A000000000000000000000000000000000000000000000000000000000 DUP2 MSTORE PUSH1 0x4 ADD PUSH2 0xC86 SWAP1 PUSH2 0x2021 JUMP JUMPDEST PUSH1 0x40 MLOAD DUP1 SWAP2 SUB SWAP1 REVERT JUMPDEST PUSH1 0x5 PUSH1 0x0 SWAP1 SLOAD SWAP1 PUSH2 0x100 EXP SWAP1 DIV PUSH20 0xFFFFFFFFFFFFFFFFFFFFFFFFFFFFFFFFFFFFFFFF AND PUSH20 0xFFFFFFFFFFFFFFFFFFFFFFFFFFFFFFFFFFFFFFFF AND PUSH2 0x8FC PUSH1 0x7 SLOAD SWAP1 DUP2 ISZERO MUL SWAP1 PUSH1 0x40 MLOAD PUSH1 0x0 PUSH1 0x40 MLOAD DUP1 DUP4 SUB DUP2 DUP6 DUP9 DUP9 CALL SWAP4 POP POP POP POP ISZERO DUP1 ISZERO PUSH2 0xCF9 JUMPI RETURNDATASIZE PUSH1 0x0 DUP1 RETURNDATACOPY RETURNDATASIZE PUSH1 0x0 REVERT JUMPDEST POP JUMP JUMPDEST PUSH1 0x0 DUP1 PUSH1 0x0 DUP4 PUSH20 0xFFFFFFFFFFFFFFFFFFFFFFFFFFFFFFFFFFFFFFFF AND PUSH20 0xFFFFFFFFFFFFFFFFFFFFFFFFFFFFFFFFFFFFFFFF AND DUP2 MSTORE PUSH1 0x20 ADD SWAP1 DUP2 MSTORE PUSH1 0x20 ADD PUSH1 0x0 KECCAK256 SLOAD SWAP1 POP SWAP2 SWAP1 POP JUMP JUMPDEST PUSH1 0x0 PUSH1 0x9 PUSH1 0x0 DUP4 PUSH20 0xFFFFFFFFFFFFFFFFFFFFFFFFFFFFFFFFFFFFFFFF AND PUSH20 0xFFFFFFFFFFFFFFFFFFFFFFFFFFFFFFFFFFFFFFFF AND DUP2 MSTORE PUSH1 0x20 ADD SWAP1 DUP2 MSTORE PUSH1 0x20 ADD PUSH1 0x0 KECCAK256 SWAP1 POP DUP1 PUSH1 0x1 ADD SLOAD DUP2 PUSH1 0x0 ADD SLOAD PUSH2 0xD9B SWAP2 SWAP1 PUSH2 0x2041 JUMP JUMPDEST DUP2 PUSH1 0x5 ADD DUP2 SWAP1 SSTORE POP POP POP JUMP JUMPDEST PUSH1 0x5 PUSH1 0x0 SWAP1 SLOAD SWAP1 PUSH2 0x100 EXP SWAP1 DIV PUSH20 0xFFFFFFFFFFFFFFFFFFFFFFFFFFFFFFFFFFFFFFFF AND DUP2 JUMP JUMPDEST PUSH1 0x60 PUSH1 0x4 DUP1 SLOAD PUSH2 0xDDC SWAP1 PUSH2 0x1DB1 JUMP JUMPDEST DUP1 PUSH1 0x1F ADD PUSH1 0x20 DUP1 SWAP2 DIV MUL PUSH1 0x20 ADD PUSH1 0x40 MLOAD SWAP1 DUP2 ADD PUSH1 0x40 MSTORE DUP1 SWAP3 SWAP2 SWAP1 DUP2 DUP2 MSTORE PUSH1 0x20 ADD DUP3 DUP1 SLOAD PUSH2 0xE08 SWAP1 PUSH2 0x1DB1 JUMP JUMPDEST DUP1 ISZERO PUSH2 0xE55 JUMPI DUP1 PUSH1 0x1F LT PUSH2 0xE2A JUMPI PUSH2 0x100 DUP1 DUP4 SLOAD DIV MUL DUP4 MSTORE SWAP2 PUSH1 0x20 ADD SWAP2 PUSH2 0xE55 JUMP JUMPDEST DUP3 ADD SWAP2 SWAP1 PUSH1 0x0 MSTORE PUSH1 0x20 PUSH1 0x0 KECCAK256 SWAP1 JUMPDEST DUP2 SLOAD DUP2 MSTORE SWAP1 PUSH1 0x1 ADD SWAP1 PUSH1 0x20 ADD DUP1 DUP4 GT PUSH2 0xE38 JUMPI DUP3 SWAP1 SUB PUSH1 0x1F AND DUP3 ADD SWAP2 JUMPDEST POP POP POP POP POP SWAP1 POP SWAP1 JUMP JUMPDEST PUSH1 0x0 PUSH1 0x9 PUSH1 0x0 DUP4 PUSH20 0xFFFFFFFFFFFFFFFFFFFFFFFFFFFFFFFFFFFFFFFF AND PUSH20 0xFFFFFFFFFFFFFFFFFFFFFFFFFFFFFFFFFFFFFFFF AND DUP2 MSTORE PUSH1 0x20 ADD SWAP1 DUP2 MSTORE PUSH1 0x20 ADD PUSH1 0x0 KECCAK256 SWAP1 POP PUSH2 0xEE9 DUP2 PUSH1 0x6 ADD SLOAD PUSH2 0xEDB DUP4 PUSH1 0x9 ADD SLOAD PUSH2 0xECD DUP6 PUSH1 0x8 ADD SLOAD DUP7 PUSH1 0x7 ADD SLOAD PUSH2 0x1975 SWAP1 SWAP2 SWAP1 PUSH4 0xFFFFFFFF AND JUMP JUMPDEST PUSH2 0x1975 SWAP1 SWAP2 SWAP1 PUSH4 0xFFFFFFFF AND JUMP JUMPDEST PUSH2 0x1975 SWAP1 SWAP2 SWAP1 PUSH4 0xFFFFFFFF AND JUMP JUMPDEST DUP2 PUSH1 0x0 ADD DUP2 SWAP1 SSTORE POP POP POP JUMP JUMPDEST PUSH1 0x0 DUP1 PUSH2 0xF00 PUSH2 0x1476 JUMP JUMPDEST SWAP1 POP PUSH1 0x0 PUSH2 0xF0E DUP3 DUP7 PUSH2 0x10B5 JUMP JUMPDEST SWAP1 POP DUP4 DUP2 LT ISZERO PUSH2 0xF53 JUMPI PUSH1 0x40 MLOAD PUSH32 0x8C379A000000000000000000000000000000000000000000000000000000000 DUP2 MSTORE PUSH1 0x4 ADD PUSH2 0xF4A SWAP1 PUSH2 0x20F5 JUMP JUMPDEST PUSH1 0x40 MLOAD DUP1 SWAP2 SUB SWAP1 REVERT JUMPDEST PUSH2 0xF60 DUP3 DUP7 DUP7 DUP5 SUB PUSH2 0x147E JUMP JUMPDEST PUSH1 0x1 SWAP3 POP POP POP SWAP3 SWAP2 POP POP JUMP JUMPDEST PUSH1 0x6 PUSH1 0x0 SWAP1 SLOAD SWAP1 PUSH2 0x100 EXP SWAP1 DIV PUSH20 0xFFFFFFFFFFFFFFFFFFFFFFFFFFFFFFFFFFFFFFFF AND PUSH20 0xFFFFFFFFFFFFFFFFFFFFFFFFFFFFFFFFFFFFFFFF AND CALLER PUSH20 0xFFFFFFFFFFFFFFFFFFFFFFFFFFFFFFFFFFFFFFFF AND EQ PUSH2 0xFFC JUMPI PUSH1 0x40 MLOAD PUSH32 0x8C379A000000000000000000000000000000000000000000000000000000000 DUP2 MSTORE PUSH1 0x4 ADD PUSH2 0xFF3 SWAP1 PUSH2 0x1EB7 JUMP JUMPDEST PUSH1 0x40 MLOAD DUP1 SWAP2 SUB SWAP1 REVERT JUMPDEST CALLVALUE PUSH1 0x7 PUSH1 0x0 DUP3 DUP3 SLOAD PUSH2 0x100E SWAP2 SWAP1 PUSH2 0x1E11 JUMP JUMPDEST SWAP3 POP POP DUP2 SWAP1 SSTORE POP JUMP JUMPDEST PUSH1 0x0 DUP1 PUSH2 0x1022 PUSH2 0x1476 JUMP JUMPDEST SWAP1 POP PUSH2 0x102F DUP2 DUP6 DUP6 PUSH2 0x16D3 JUMP JUMPDEST PUSH1 0x1 SWAP2 POP POP SWAP3 SWAP2 POP POP JUMP JUMPDEST PUSH1 0x6 PUSH1 0x0 SWAP1 SLOAD SWAP1 PUSH2 0x100 EXP SWAP1 DIV PUSH20 0xFFFFFFFFFFFFFFFFFFFFFFFFFFFFFFFFFFFFFFFF AND DUP2 JUMP JUMPDEST PUSH1 0x0 PUSH1 0x9 PUSH1 0x0 DUP4 PUSH20 0xFFFFFFFFFFFFFFFFFFFFFFFFFFFFFFFFFFFFFFFF AND PUSH20 0xFFFFFFFFFFFFFFFFFFFFFFFFFFFFFFFFFFFFFFFF AND DUP2 MSTORE PUSH1 0x20 ADD SWAP1 DUP2 MSTORE PUSH1 0x20 ADD PUSH1 0x0 KECCAK256 SWAP1 POP PUSH2 0x10B1 DUP3 DUP3 PUSH1 0x3 ADD SLOAD PUSH2 0x1320 JUMP JUMPDEST POP POP JUMP JUMPDEST PUSH1 0x0 PUSH1 0x1 PUSH1 0x0 DUP5 PUSH20 0xFFFFFFFFFFFFFFFFFFFFFFFFFFFFFFFFFFFFFFFF AND PUSH20 0xFFFFFFFFFFFFFFFFFFFFFFFFFFFFFFFFFFFFFFFF AND DUP2 MSTORE PUSH1 0x20 ADD SWAP1 DUP2 MSTORE PUSH1 0x20 ADD PUSH1 0x0 KECCAK256 PUSH1 0x0 DUP4 PUSH20 0xFFFFFFFFFFFFFFFFFFFFFFFFFFFFFFFFFFFFFFFF AND PUSH20 0xFFFFFFFFFFFFFFFFFFFFFFFFFFFFFFFFFFFFFFFF AND DUP2 MSTORE PUSH1 0x20 ADD SWAP1 DUP2 MSTORE PUSH1 0x20 ADD PUSH1 0x0 KECCAK256 SLOAD SWAP1 POP SWAP3 SWAP2 POP POP JUMP JUMPDEST PUSH1 0xA PUSH1 0x20 MSTORE DUP1 PUSH1 0x0 MSTORE PUSH1 0x40 PUSH1 0x0 KECCAK256 PUSH1 0x0 SWAP2 POP SWAP1 POP DUP1 PUSH1 0x0 ADD DUP1 SLOAD PUSH2 0x115F SWAP1 PUSH2 0x1DB1 JUMP JUMPDEST DUP1 PUSH1 0x1F ADD PUSH1 0x20 DUP1 SWAP2 DIV MUL PUSH1 0x20 ADD PUSH1 0x40 MLOAD SWAP1 DUP2 ADD PUSH1 0x40 MSTORE DUP1 SWAP3 SWAP2 SWAP1 DUP2 DUP2 MSTORE PUSH1 0x20 ADD DUP3 DUP1 SLOAD PUSH2 0x118B SWAP1 PUSH2 0x1DB1 JUMP JUMPDEST DUP1 ISZERO PUSH2 0x11D8 JUMPI DUP1 PUSH1 0x1F LT PUSH2 0x11AD JUMPI PUSH2 0x100 DUP1 DUP4 SLOAD DIV MUL DUP4 MSTORE SWAP2 PUSH1 0x20 ADD SWAP2 PUSH2 0x11D8 JUMP JUMPDEST DUP3 ADD SWAP2 SWAP1 PUSH1 0x0 MSTORE PUSH1 0x20 PUSH1 0x0 KECCAK256 SWAP1 JUMPDEST DUP2 SLOAD DUP2 MSTORE SWAP1 PUSH1 0x1 ADD SWAP1 PUSH1 0x20 ADD DUP1 DUP4 GT PUSH2 0x11BB JUMPI DUP3 SWAP1 SUB PUSH1 0x1F AND DUP3 ADD SWAP2 JUMPDEST POP POP POP POP POP SWAP1 DUP1 PUSH1 0x1 ADD DUP1 SLOAD PUSH2 0x11ED SWAP1 PUSH2 0x1DB1 JUMP JUMPDEST DUP1 PUSH1 0x1F ADD PUSH1 0x20 DUP1 SWAP2 DIV MUL PUSH1 0x20 ADD PUSH1 0x40 MLOAD SWAP1 DUP2 ADD PUSH1 0x40 MSTORE DUP1 SWAP3 SWAP2 SWAP1 DUP2 DUP2 MSTORE PUSH1 0x20 ADD DUP3 DUP1 SLOAD PUSH2 0x1219 SWAP1 PUSH2 0x1DB1 JUMP JUMPDEST DUP1 ISZERO PUSH2 0x1266 JUMPI DUP1 PUSH1 0x1F LT PUSH2 0x123B JUMPI PUSH2 0x100 DUP1 DUP4 SLOAD DIV MUL DUP4 MSTORE SWAP2 PUSH1 0x20 ADD SWAP2 PUSH2 0x1266 JUMP JUMPDEST DUP3 ADD SWAP2 SWAP1 PUSH1 0x0 MSTORE PUSH1 0x20 PUSH1 0x0 KECCAK256 SWAP1 JUMPDEST DUP2 SLOAD DUP2 MSTORE SWAP1 PUSH1 0x1 ADD SWAP1 PUSH1 0x20 ADD DUP1 DUP4 GT PUSH2 0x1249 JUMPI DUP3 SWAP1 SUB PUSH1 0x1F AND DUP3 ADD SWAP2 JUMPDEST POP POP POP POP POP SWAP1 DUP1 PUSH1 0x2 ADD SLOAD SWAP1 POP DUP4 JUMP JUMPDEST PUSH1 0x0 PUSH1 0x9 PUSH1 0x0 DUP4 PUSH20 0xFFFFFFFFFFFFFFFFFFFFFFFFFFFFFFFFFFFFFFFF AND PUSH20 0xFFFFFFFFFFFFFFFFFFFFFFFFFFFFFFFFFFFFFFFF AND DUP2 MSTORE PUSH1 0x20 ADD SWAP1 DUP2 MSTORE PUSH1 0x20 ADD PUSH1 0x0 KECCAK256 SWAP1 POP PUSH2 0x12C7 DUP3 DUP3 PUSH1 0x5 ADD SLOAD PUSH2 0x1320 JUMP JUMPDEST POP POP JUMP JUMPDEST PUSH1 0x0 PUSH1 0x9 PUSH1 0x0 DUP4 PUSH20 0xFFFFFFFFFFFFFFFFFFFFFFFFFFFFFFFFFFFFFFFF AND PUSH20 0xFFFFFFFFFFFFFFFFFFFFFFFFFFFFFFFFFFFFFFFF AND DUP2 MSTORE PUSH1 0x20 ADD SWAP1 DUP2 MSTORE PUSH1 0x20 ADD PUSH1 0x0 KECCAK256 SWAP1 POP PUSH2 0x131C DUP3 DUP3 PUSH1 0x4 ADD SLOAD PUSH2 0x1320 JUMP JUMPDEST POP POP JUMP JUMPDEST PUSH1 0x0 PUSH20 0xFFFFFFFFFFFFFFFFFFFFFFFFFFFFFFFFFFFFFFFF AND DUP3 PUSH20 0xFFFFFFFFFFFFFFFFFFFFFFFFFFFFFFFFFFFFFFFF AND SUB PUSH2 0x138F JUMPI PUSH1 0x40 MLOAD PUSH32 0x8C379A000000000000000000000000000000000000000000000000000000000 DUP2 MSTORE PUSH1 0x4 ADD PUSH2 0x1386 SWAP1 PUSH2 0x2161 JUMP JUMPDEST PUSH1 0x40 MLOAD DUP1 SWAP2 SUB SWAP1 REVERT JUMPDEST PUSH2 0x139B PUSH1 0x0 DUP4 DUP4 PUSH2 0x198B JUMP JUMPDEST DUP1 PUSH1 0x2 PUSH1 0x0 DUP3 DUP3 SLOAD PUSH2 0x13AD SWAP2 SWAP1 PUSH2 0x1E11 JUMP JUMPDEST SWAP3 POP POP DUP2 SWAP1 SSTORE POP DUP1 PUSH1 0x0 DUP1 DUP5 PUSH20 0xFFFFFFFFFFFFFFFFFFFFFFFFFFFFFFFFFFFFFFFF AND PUSH20 0xFFFFFFFFFFFFFFFFFFFFFFFFFFFFFFFFFFFFFFFF AND DUP2 MSTORE PUSH1 0x20 ADD SWAP1 DUP2 MSTORE PUSH1 0x20 ADD PUSH1 0x0 KECCAK256 PUSH1 0x0 DUP3 DUP3 SLOAD ADD SWAP3 POP POP DUP2 SWAP1 SSTORE POP DUP2 PUSH20 0xFFFFFFFFFFFFFFFFFFFFFFFFFFFFFFFFFFFFFFFF AND PUSH1 0x0 PUSH20 0xFFFFFFFFFFFFFFFFFFFFFFFFFFFFFFFFFFFFFFFF AND PUSH32 0xDDF252AD1BE2C89B69C2B068FC378DAA952BA7F163C4A11628F55A4DF523B3EF DUP4 PUSH1 0x40 MLOAD PUSH2 0x145E SWAP2 SWAP1 PUSH2 0x1C2E JUMP JUMPDEST PUSH1 0x40 MLOAD DUP1 SWAP2 SUB SWAP1 LOG3 PUSH2 0x1472 PUSH1 0x0 DUP4 DUP4 PUSH2 0x1990 JUMP JUMPDEST POP POP JUMP JUMPDEST PUSH1 0x0 CALLER SWAP1 POP SWAP1 JUMP JUMPDEST PUSH1 0x0 PUSH20 0xFFFFFFFFFFFFFFFFFFFFFFFFFFFFFFFFFFFFFFFF AND DUP4 PUSH20 0xFFFFFFFFFFFFFFFFFFFFFFFFFFFFFFFFFFFFFFFF AND SUB PUSH2 0x14ED JUMPI PUSH1 0x40 MLOAD PUSH32 0x8C379A000000000000000000000000000000000000000000000000000000000 DUP2 MSTORE PUSH1 0x4 ADD PUSH2 0x14E4 SWAP1 PUSH2 0x21F3 JUMP JUMPDEST PUSH1 0x40 MLOAD DUP1 SWAP2 SUB SWAP1 REVERT JUMPDEST PUSH1 0x0 PUSH20 0xFFFFFFFFFFFFFFFFFFFFFFFFFFFFFFFFFFFFFFFF AND DUP3 PUSH20 0xFFFFFFFFFFFFFFFFFFFFFFFFFFFFFFFFFFFFFFFF AND SUB PUSH2 0x155C JUMPI PUSH1 0x40 MLOAD PUSH32 0x8C379A000000000000000000000000000000000000000000000000000000000 DUP2 MSTORE PUSH1 0x4 ADD PUSH2 0x1553 SWAP1 PUSH2 0x2285 JUMP JUMPDEST PUSH1 0x40 MLOAD DUP1 SWAP2 SUB SWAP1 REVERT JUMPDEST DUP1 PUSH1 0x1 PUSH1 0x0 DUP6 PUSH20 0xFFFFFFFFFFFFFFFFFFFFFFFFFFFFFFFFFFFFFFFF AND PUSH20 0xFFFFFFFFFFFFFFFFFFFFFFFFFFFFFFFFFFFFFFFF AND DUP2 MSTORE PUSH1 0x20 ADD SWAP1 DUP2 MSTORE PUSH1 0x20 ADD PUSH1 0x0 KECCAK256 PUSH1 0x0 DUP5 PUSH20 0xFFFFFFFFFFFFFFFFFFFFFFFFFFFFFFFFFFFFFFFF AND PUSH20 0xFFFFFFFFFFFFFFFFFFFFFFFFFFFFFFFFFFFFFFFF AND DUP2 MSTORE PUSH1 0x20 ADD SWAP1 DUP2 MSTORE PUSH1 0x20 ADD PUSH1 0x0 KECCAK256 DUP2 SWAP1 SSTORE POP DUP2 PUSH20 0xFFFFFFFFFFFFFFFFFFFFFFFFFFFFFFFFFFFFFFFF AND DUP4 PUSH20 0xFFFFFFFFFFFFFFFFFFFFFFFFFFFFFFFFFFFFFFFF AND PUSH32 0x8C5BE1E5EBEC7D5BD14F71427D1E84F3DD0314C0F7B2291E5B200AC8C7C3B925 DUP4 PUSH1 0x40 MLOAD PUSH2 0x163A SWAP2 SWAP1 PUSH2 0x1C2E JUMP JUMPDEST PUSH1 0x40 MLOAD DUP1 SWAP2 SUB SWAP1 LOG3 POP POP POP JUMP JUMPDEST PUSH1 0x0 PUSH2 0x1653 DUP5 DUP5 PUSH2 0x10B5 JUMP JUMPDEST SWAP1 POP PUSH32 0xFFFFFFFFFFFFFFFFFFFFFFFFFFFFFFFFFFFFFFFFFFFFFFFFFFFFFFFFFFFFFFFF DUP2 EQ PUSH2 0x16CD JUMPI DUP2 DUP2 LT ISZERO PUSH2 0x16BF JUMPI PUSH1 0x40 MLOAD PUSH32 0x8C379A000000000000000000000000000000000000000000000000000000000 DUP2 MSTORE PUSH1 0x4 ADD PUSH2 0x16B6 SWAP1 PUSH2 0x22F1 JUMP JUMPDEST PUSH1 0x40 MLOAD DUP1 SWAP2 SUB SWAP1 REVERT JUMPDEST PUSH2 0x16CC DUP5 DUP5 DUP5 DUP5 SUB PUSH2 0x147E JUMP JUMPDEST JUMPDEST POP POP POP POP JUMP JUMPDEST PUSH1 0x0 PUSH20 0xFFFFFFFFFFFFFFFFFFFFFFFFFFFFFFFFFFFFFFFF AND DUP4 PUSH20 0xFFFFFFFFFFFFFFFFFFFFFFFFFFFFFFFFFFFFFFFF AND SUB PUSH2 0x1742 JUMPI PUSH1 0x40 MLOAD PUSH32 0x8C379A000000000000000000000000000000000000000000000000000000000 DUP2 MSTORE PUSH1 0x4 ADD PUSH2 0x1739 SWAP1 PUSH2 0x2383 JUMP JUMPDEST PUSH1 0x40 MLOAD DUP1 SWAP2 SUB SWAP1 REVERT JUMPDEST PUSH1 0x0 PUSH20 0xFFFFFFFFFFFFFFFFFFFFFFFFFFFFFFFFFFFFFFFF AND DUP3 PUSH20 0xFFFFFFFFFFFFFFFFFFFFFFFFFFFFFFFFFFFFFFFF AND SUB PUSH2 0x17B1 JUMPI PUSH1 0x40 MLOAD PUSH32 0x8C379A000000000000000000000000000000000000000000000000000000000 DUP2 MSTORE PUSH1 0x4 ADD PUSH2 0x17A8 SWAP1 PUSH2 0x2415 JUMP JUMPDEST PUSH1 0x40 MLOAD DUP1 SWAP2 SUB SWAP1 REVERT JUMPDEST PUSH2 0x17BC DUP4 DUP4 DUP4 PUSH2 0x198B JUMP JUMPDEST PUSH1 0x0 DUP1 PUSH1 0x0 DUP6 PUSH20 0xFFFFFFFFFFFFFFFFFFFFFFFFFFFFFFFFFFFFFFFF AND PUSH20 0xFFFFFFFFFFFFFFFFFFFFFFFFFFFFFFFFFFFFFFFF AND DUP2 MSTORE PUSH1 0x20 ADD SWAP1 DUP2 MSTORE PUSH1 0x20 ADD PUSH1 0x0 KECCAK256 SLOAD SWAP1 POP DUP2 DUP2 LT ISZERO PUSH2 0x1842 JUMPI PUSH1 0x40 MLOAD PUSH32 0x8C379A000000000000000000000000000000000000000000000000000000000 DUP2 MSTORE PUSH1 0x4 ADD PUSH2 0x1839 SWAP1 PUSH2 0x24A7 JUMP JUMPDEST PUSH1 0x40 MLOAD DUP1 SWAP2 SUB SWAP1 REVERT JUMPDEST DUP2 DUP2 SUB PUSH1 0x0 DUP1 DUP7 PUSH20 0xFFFFFFFFFFFFFFFFFFFFFFFFFFFFFFFFFFFFFFFF AND PUSH20 0xFFFFFFFFFFFFFFFFFFFFFFFFFFFFFFFFFFFFFFFF AND DUP2 MSTORE PUSH1 0x20 ADD SWAP1 DUP2 MSTORE PUSH1 0x20 ADD PUSH1 0x0 KECCAK256 DUP2 SWAP1 SSTORE POP DUP2 PUSH1 0x0 DUP1 DUP6 PUSH20 0xFFFFFFFFFFFFFFFFFFFFFFFFFFFFFFFFFFFFFFFF AND PUSH20 0xFFFFFFFFFFFFFFFFFFFFFFFFFFFFFFFFFFFFFFFF AND DUP2 MSTORE PUSH1 0x20 ADD SWAP1 DUP2 MSTORE PUSH1 0x20 ADD PUSH1 0x0 KECCAK256 PUSH1 0x0 DUP3 DUP3 SLOAD ADD SWAP3 POP POP DUP2 SWAP1 SSTORE POP DUP3 PUSH20 0xFFFFFFFFFFFFFFFFFFFFFFFFFFFFFFFFFFFFFFFF AND DUP5 PUSH20 0xFFFFFFFFFFFFFFFFFFFFFFFFFFFFFFFFFFFFFFFF AND PUSH32 0xDDF252AD1BE2C89B69C2B068FC378DAA952BA7F163C4A11628F55A4DF523B3EF DUP5 PUSH1 0x40 MLOAD PUSH2 0x1930 SWAP2 SWAP1 PUSH2 0x1C2E JUMP JUMPDEST PUSH1 0x40 MLOAD DUP1 SWAP2 SUB SWAP1 LOG3 PUSH2 0x1943 DUP5 DUP5 DUP5 PUSH2 0x1990 JUMP JUMPDEST POP POP POP POP JUMP JUMPDEST PUSH1 0x0 DUP2 DUP4 PUSH2 0x1957 SWAP2 SWAP1 PUSH2 0x2041 JUMP JUMPDEST SWAP1 POP SWAP3 SWAP2 POP POP JUMP JUMPDEST PUSH1 0x0 DUP2 DUP4 PUSH2 0x196D SWAP2 SWAP1 PUSH2 0x24F6 JUMP JUMPDEST SWAP1 POP SWAP3 SWAP2 POP POP JUMP JUMPDEST PUSH1 0x0 DUP2 DUP4 PUSH2 0x1983 SWAP2 SWAP1 PUSH2 0x1E11 JUMP JUMPDEST SWAP1 POP SWAP3 SWAP2 POP POP JUMP JUMPDEST POP POP POP JUMP JUMPDEST POP POP POP JUMP JUMPDEST PUSH1 0x0 DUP2 MLOAD SWAP1 POP SWAP2 SWAP1 POP JUMP JUMPDEST PUSH1 0x0 DUP3 DUP3 MSTORE PUSH1 0x20 DUP3 ADD SWAP1 POP SWAP3 SWAP2 POP POP JUMP JUMPDEST PUSH1 0x0 JUMPDEST DUP4 DUP2 LT ISZERO PUSH2 0x19CF JUMPI DUP1 DUP3 ADD MLOAD DUP2 DUP5 ADD MSTORE PUSH1 0x20 DUP2 ADD SWAP1 POP PUSH2 0x19B4 JUMP JUMPDEST PUSH1 0x0 DUP5 DUP5 ADD MSTORE POP POP POP POP JUMP JUMPDEST PUSH1 0x0 PUSH1 0x1F NOT PUSH1 0x1F DUP4 ADD AND SWAP1 POP SWAP2 SWAP1 POP JUMP JUMPDEST PUSH1 0x0 PUSH2 0x19F7 DUP3 PUSH2 0x1995 JUMP JUMPDEST PUSH2 0x1A01 DUP2 DUP6 PUSH2 0x19A0 JUMP JUMPDEST SWAP4 POP PUSH2 0x1A11 DUP2 DUP6 PUSH1 0x20 DUP7 ADD PUSH2 0x19B1 JUMP JUMPDEST PUSH2 0x1A1A DUP2 PUSH2 0x19DB JUMP JUMPDEST DUP5 ADD SWAP2 POP POP SWAP3 SWAP2 POP POP JUMP JUMPDEST PUSH1 0x0 PUSH1 0x20 DUP3 ADD SWAP1 POP DUP2 DUP2 SUB PUSH1 0x0 DUP4 ADD MSTORE PUSH2 0x1A3F DUP2 DUP5 PUSH2 0x19EC JUMP JUMPDEST SWAP1 POP SWAP3 SWAP2 POP POP JUMP JUMPDEST PUSH1 0x0 DUP1 REVERT JUMPDEST PUSH1 0x0 PUSH20 0xFFFFFFFFFFFFFFFFFFFFFFFFFFFFFFFFFFFFFFFF DUP3 AND SWAP1 POP SWAP2 SWAP1 POP JUMP JUMPDEST PUSH1 0x0 PUSH2 0x1A77 DUP3 PUSH2 0x1A4C JUMP JUMPDEST SWAP1 POP SWAP2 SWAP1 POP JUMP JUMPDEST PUSH2 0x1A87 DUP2 PUSH2 0x1A6C JUMP JUMPDEST DUP2 EQ PUSH2 0x1A92 JUMPI PUSH1 0x0 DUP1 REVERT JUMPDEST POP JUMP JUMPDEST PUSH1 0x0 DUP2 CALLDATALOAD SWAP1 POP PUSH2 0x1AA4 DUP2 PUSH2 0x1A7E JUMP JUMPDEST SWAP3 SWAP2 POP POP JUMP JUMPDEST PUSH1 0x0 PUSH1 0x20 DUP3 DUP5 SUB SLT ISZERO PUSH2 0x1AC0 JUMPI PUSH2 0x1ABF PUSH2 0x1A47 JUMP JUMPDEST JUMPDEST PUSH1 0x0 PUSH2 0x1ACE DUP5 DUP3 DUP6 ADD PUSH2 0x1A95 JUMP JUMPDEST SWAP2 POP POP SWAP3 SWAP2 POP POP JUMP JUMPDEST PUSH1 0x0 DUP2 SWAP1 POP SWAP2 SWAP1 POP JUMP JUMPDEST PUSH2 0x1AEA DUP2 PUSH2 0x1AD7 JUMP JUMPDEST DUP2 EQ PUSH2 0x1AF5 JUMPI PUSH1 0x0 DUP1 REVERT JUMPDEST POP JUMP JUMPDEST PUSH1 0x0 DUP2 CALLDATALOAD SWAP1 POP PUSH2 0x1B07 DUP2 PUSH2 0x1AE1 JUMP JUMPDEST SWAP3 SWAP2 POP POP JUMP JUMPDEST PUSH1 0x0 DUP1 PUSH1 0x40 DUP4 DUP6 SUB SLT ISZERO PUSH2 0x1B24 JUMPI PUSH2 0x1B23 PUSH2 0x1A47 JUMP JUMPDEST JUMPDEST PUSH1 0x0 PUSH2 0x1B32 DUP6 DUP3 DUP7 ADD PUSH2 0x1A95 JUMP JUMPDEST SWAP3 POP POP PUSH1 0x20 PUSH2 0x1B43 DUP6 DUP3 DUP7 ADD PUSH2 0x1AF8 JUMP JUMPDEST SWAP2 POP POP SWAP3 POP SWAP3 SWAP1 POP JUMP JUMPDEST PUSH1 0x0 DUP2 ISZERO ISZERO SWAP1 POP SWAP2 SWAP1 POP JUMP JUMPDEST PUSH2 0x1B62 DUP2 PUSH2 0x1B4D JUMP JUMPDEST DUP3 MSTORE POP POP JUMP JUMPDEST PUSH1 0x0 PUSH1 0x20 DUP3 ADD SWAP1 POP PUSH2 0x1B7D PUSH1 0x0 DUP4 ADD DUP5 PUSH2 0x1B59 JUMP JUMPDEST SWAP3 SWAP2 POP POP JUMP JUMPDEST PUSH2 0x1B8C DUP2 PUSH2 0x1AD7 JUMP JUMPDEST DUP3 MSTORE POP POP JUMP JUMPDEST PUSH1 0x0 PUSH2 0x140 DUP3 ADD SWAP1 POP PUSH2 0x1BA8 PUSH1 0x0 DUP4 ADD DUP14 PUSH2 0x1B83 JUMP JUMPDEST PUSH2 0x1BB5 PUSH1 0x20 DUP4 ADD DUP13 PUSH2 0x1B83 JUMP JUMPDEST PUSH2 0x1BC2 PUSH1 0x40 DUP4 ADD DUP12 PUSH2 0x1B83 JUMP JUMPDEST PUSH2 0x1BCF PUSH1 0x60 DUP4 ADD DUP11 PUSH2 0x1B83 JUMP JUMPDEST PUSH2 0x1BDC PUSH1 0x80 DUP4 ADD DUP10 PUSH2 0x1B83 JUMP JUMPDEST PUSH2 0x1BE9 PUSH1 0xA0 DUP4 ADD DUP9 PUSH2 0x1B83 JUMP JUMPDEST PUSH2 0x1BF6 PUSH1 0xC0 DUP4 ADD DUP8 PUSH2 0x1B83 JUMP JUMPDEST PUSH2 0x1C03 PUSH1 0xE0 DUP4 ADD DUP7 PUSH2 0x1B83 JUMP JUMPDEST PUSH2 0x1C11 PUSH2 0x100 DUP4 ADD DUP6 PUSH2 0x1B83 JUMP JUMPDEST PUSH2 0x1C1F PUSH2 0x120 DUP4 ADD DUP5 PUSH2 0x1B83 JUMP JUMPDEST SWAP12 SWAP11 POP POP POP POP POP POP POP POP POP POP POP JUMP JUMPDEST PUSH1 0x0 PUSH1 0x20 DUP3 ADD SWAP1 POP PUSH2 0x1C43 PUSH1 0x0 DUP4 ADD DUP5 PUSH2 0x1B83 JUMP JUMPDEST SWAP3 SWAP2 POP POP JUMP JUMPDEST PUSH1 0x0 DUP1 PUSH1 0x0 PUSH1 0x60 DUP5 DUP7 SUB SLT ISZERO PUSH2 0x1C62 JUMPI PUSH2 0x1C61 PUSH2 0x1A47 JUMP JUMPDEST JUMPDEST PUSH1 0x0 PUSH2 0x1C70 DUP7 DUP3 DUP8 ADD PUSH2 0x1A95 JUMP JUMPDEST SWAP4 POP POP PUSH1 0x20 PUSH2 0x1C81 DUP7 DUP3 DUP8 ADD PUSH2 0x1A95 JUMP JUMPDEST SWAP3 POP POP PUSH1 0x40 PUSH2 0x1C92 DUP7 DUP3 DUP8 ADD PUSH2 0x1AF8 JUMP JUMPDEST SWAP2 POP POP SWAP3 POP SWAP3 POP SWAP3 JUMP JUMPDEST PUSH1 0x0 PUSH1 0xFF DUP3 AND SWAP1 POP SWAP2 SWAP1 POP JUMP JUMPDEST PUSH2 0x1CB2 DUP2 PUSH2 0x1C9C JUMP JUMPDEST DUP3 MSTORE POP POP JUMP JUMPDEST PUSH1 0x0 PUSH1 0x20 DUP3 ADD SWAP1 POP PUSH2 0x1CCD PUSH1 0x0 DUP4 ADD DUP5 PUSH2 0x1CA9 JUMP JUMPDEST SWAP3 SWAP2 POP POP JUMP JUMPDEST PUSH2 0x1CDC DUP2 PUSH2 0x1A6C JUMP JUMPDEST DUP3 MSTORE POP POP JUMP JUMPDEST PUSH1 0x0 PUSH1 0x20 DUP3 ADD SWAP1 POP PUSH2 0x1CF7 PUSH1 0x0 DUP4 ADD DUP5 PUSH2 0x1CD3 JUMP JUMPDEST SWAP3 SWAP2 POP POP JUMP JUMPDEST PUSH1 0x0 DUP1 PUSH1 0x40 DUP4 DUP6 SUB SLT ISZERO PUSH2 0x1D14 JUMPI PUSH2 0x1D13 PUSH2 0x1A47 JUMP JUMPDEST JUMPDEST PUSH1 0x0 PUSH2 0x1D22 DUP6 DUP3 DUP7 ADD PUSH2 0x1A95 JUMP JUMPDEST SWAP3 POP POP PUSH1 0x20 PUSH2 0x1D33 DUP6 DUP3 DUP7 ADD PUSH2 0x1A95 JUMP JUMPDEST SWAP2 POP POP SWAP3 POP SWAP3 SWAP1 POP JUMP JUMPDEST PUSH1 0x0 PUSH1 0x60 DUP3 ADD SWAP1 POP DUP2 DUP2 SUB PUSH1 0x0 DUP4 ADD MSTORE PUSH2 0x1D57 DUP2 DUP7 PUSH2 0x19EC JUMP JUMPDEST SWAP1 POP DUP2 DUP2 SUB PUSH1 0x20 DUP4 ADD MSTORE PUSH2 0x1D6B DUP2 DUP6 PUSH2 0x19EC JUMP JUMPDEST SWAP1 POP PUSH2 0x1D7A PUSH1 0x40 DUP4 ADD DUP5 PUSH2 0x1B83 JUMP JUMPDEST SWAP5 SWAP4 POP POP POP POP JUMP JUMPDEST PUSH32 0x4E487B7100000000000000000000000000000000000000000000000000000000 PUSH1 0x0 MSTORE PUSH1 0x22 PUSH1 0x4 MSTORE PUSH1 0x24 PUSH1 0x0 REVERT JUMPDEST PUSH1 0x0 PUSH1 0x2 DUP3 DIV SWAP1 POP PUSH1 0x1 DUP3 AND DUP1 PUSH2 0x1DC9 JUMPI PUSH1 0x7F DUP3 AND SWAP2 POP JUMPDEST PUSH1 0x20 DUP3 LT DUP2 SUB PUSH2 0x1DDC JUMPI PUSH2 0x1DDB PUSH2 0x1D82 JUMP JUMPDEST JUMPDEST POP SWAP2 SWAP1 POP JUMP JUMPDEST PUSH32 0x4E487B7100000000000000000000000000000000000000000000000000000000 PUSH1 0x0 MSTORE PUSH1 0x11 PUSH1 0x4 MSTORE PUSH1 0x24 PUSH1 0x0 REVERT JUMPDEST PUSH1 0x0 PUSH2 0x1E1C DUP3 PUSH2 0x1AD7 JUMP JUMPDEST SWAP2 POP PUSH2 0x1E27 DUP4 PUSH2 0x1AD7 JUMP JUMPDEST SWAP3 POP DUP3 DUP3 ADD SWAP1 POP DUP1 DUP3 GT ISZERO PUSH2 0x1E3F JUMPI PUSH2 0x1E3E PUSH2 0x1DE2 JUMP JUMPDEST JUMPDEST SWAP3 SWAP2 POP POP JUMP JUMPDEST PUSH32 0x4F6E6C79207468652074656E616E742063616E2063616C6C2074686973206675 PUSH1 0x0 DUP3 ADD MSTORE PUSH32 0x6E6374696F6E0000000000000000000000000000000000000000000000000000 PUSH1 0x20 DUP3 ADD MSTORE POP JUMP JUMPDEST PUSH1 0x0 PUSH2 0x1EA1 PUSH1 0x26 DUP4 PUSH2 0x19A0 JUMP JUMPDEST SWAP2 POP PUSH2 0x1EAC DUP3 PUSH2 0x1E45 JUMP JUMPDEST PUSH1 0x40 DUP3 ADD SWAP1 POP SWAP2 SWAP1 POP JUMP JUMPDEST PUSH1 0x0 PUSH1 0x20 DUP3 ADD SWAP1 POP DUP2 DUP2 SUB PUSH1 0x0 DUP4 ADD MSTORE PUSH2 0x1ED0 DUP2 PUSH2 0x1E94 JUMP JUMPDEST SWAP1 POP SWAP2 SWAP1 POP JUMP JUMPDEST PUSH32 0x4465706F73697420616D6F756E7420646F6573206E6F74206D61746368000000 PUSH1 0x0 DUP3 ADD MSTORE POP JUMP JUMPDEST PUSH1 0x0 PUSH2 0x1F0D PUSH1 0x1D DUP4 PUSH2 0x19A0 JUMP JUMPDEST SWAP2 POP PUSH2 0x1F18 DUP3 PUSH2 0x1ED7 JUMP JUMPDEST PUSH1 0x20 DUP3 ADD SWAP1 POP SWAP2 SWAP1 POP JUMP JUMPDEST PUSH1 0x0 PUSH1 0x20 DUP3 ADD SWAP1 POP DUP2 DUP2 SUB PUSH1 0x0 DUP4 ADD MSTORE PUSH2 0x1F3C DUP2 PUSH2 0x1F00 JUMP JUMPDEST SWAP1 POP SWAP2 SWAP1 POP JUMP JUMPDEST PUSH32 0x4F6E6C7920746865206F776E65722063616E2063616C6C20746869732066756E PUSH1 0x0 DUP3 ADD MSTORE PUSH32 0x6374696F6E000000000000000000000000000000000000000000000000000000 PUSH1 0x20 DUP3 ADD MSTORE POP JUMP JUMPDEST PUSH1 0x0 PUSH2 0x1F9F PUSH1 0x25 DUP4 PUSH2 0x19A0 JUMP JUMPDEST SWAP2 POP PUSH2 0x1FAA DUP3 PUSH2 0x1F43 JUMP JUMPDEST PUSH1 0x40 DUP3 ADD SWAP1 POP SWAP2 SWAP1 POP JUMP JUMPDEST PUSH1 0x0 PUSH1 0x20 DUP3 ADD SWAP1 POP DUP2 DUP2 SUB PUSH1 0x0 DUP4 ADD MSTORE PUSH2 0x1FCE DUP2 PUSH2 0x1F92 JUMP JUMPDEST SWAP1 POP SWAP2 SWAP1 POP JUMP JUMPDEST PUSH32 0x4E6F2072656E7420617661696C61626C6520746F207769746864726177000000 PUSH1 0x0 DUP3 ADD MSTORE POP JUMP JUMPDEST PUSH1 0x0 PUSH2 0x200B PUSH1 0x1D DUP4 PUSH2 0x19A0 JUMP JUMPDEST SWAP2 POP PUSH2 0x2016 DUP3 PUSH2 0x1FD5 JUMP JUMPDEST PUSH1 0x20 DUP3 ADD SWAP1 POP SWAP2 SWAP1 POP JUMP JUMPDEST PUSH1 0x0 PUSH1 0x20 DUP3 ADD SWAP1 POP DUP2 DUP2 SUB PUSH1 0x0 DUP4 ADD MSTORE PUSH2 0x203A DUP2 PUSH2 0x1FFE JUMP JUMPDEST SWAP1 POP SWAP2 SWAP1 POP JUMP JUMPDEST PUSH1 0x0 PUSH2 0x204C DUP3 PUSH2 0x1AD7 JUMP JUMPDEST SWAP2 POP PUSH2 0x2057 DUP4 PUSH2 0x1AD7 JUMP JUMPDEST SWAP3 POP DUP3 DUP3 MUL PUSH2 0x2065 DUP2 PUSH2 0x1AD7 JUMP JUMPDEST SWAP2 POP DUP3 DUP3 DIV DUP5 EQ DUP4 ISZERO OR PUSH2 0x207C JUMPI PUSH2 0x207B PUSH2 0x1DE2 JUMP JUMPDEST JUMPDEST POP SWAP3 SWAP2 POP POP JUMP JUMPDEST PUSH32 0x45524332303A2064656372656173656420616C6C6F77616E63652062656C6F77 PUSH1 0x0 DUP3 ADD MSTORE PUSH32 0x207A65726F000000000000000000000000000000000000000000000000000000 PUSH1 0x20 DUP3 ADD MSTORE POP JUMP JUMPDEST PUSH1 0x0 PUSH2 0x20DF PUSH1 0x25 DUP4 PUSH2 0x19A0 JUMP JUMPDEST SWAP2 POP PUSH2 0x20EA DUP3 PUSH2 0x2083 JUMP JUMPDEST PUSH1 0x40 DUP3 ADD SWAP1 POP SWAP2 SWAP1 POP JUMP JUMPDEST PUSH1 0x0 PUSH1 0x20 DUP3 ADD SWAP1 POP DUP2 DUP2 SUB PUSH1 0x0 DUP4 ADD MSTORE PUSH2 0x210E DUP2 PUSH2 0x20D2 JUMP JUMPDEST SWAP1 POP SWAP2 SWAP1 POP JUMP JUMPDEST PUSH32 0x45524332303A206D696E7420746F20746865207A65726F206164647265737300 PUSH1 0x0 DUP3 ADD MSTORE POP JUMP JUMPDEST PUSH1 0x0 PUSH2 0x214B PUSH1 0x1F DUP4 PUSH2 0x19A0 JUMP JUMPDEST SWAP2 POP PUSH2 0x2156 DUP3 PUSH2 0x2115 JUMP JUMPDEST PUSH1 0x20 DUP3 ADD SWAP1 POP SWAP2 SWAP1 POP JUMP JUMPDEST PUSH1 0x0 PUSH1 0x20 DUP3 ADD SWAP1 POP DUP2 DUP2 SUB PUSH1 0x0 DUP4 ADD MSTORE PUSH2 0x217A DUP2 PUSH2 0x213E JUMP JUMPDEST SWAP1 POP SWAP2 SWAP1 POP JUMP JUMPDEST PUSH32 0x45524332303A20617070726F76652066726F6D20746865207A65726F20616464 PUSH1 0x0 DUP3 ADD MSTORE PUSH32 0x7265737300000000000000000000000000000000000000000000000000000000 PUSH1 0x20 DUP3 ADD MSTORE POP JUMP JUMPDEST PUSH1 0x0 PUSH2 0x21DD PUSH1 0x24 DUP4 PUSH2 0x19A0 JUMP JUMPDEST SWAP2 POP PUSH2 0x21E8 DUP3 PUSH2 0x2181 JUMP JUMPDEST PUSH1 0x40 DUP3 ADD SWAP1 POP SWAP2 SWAP1 POP JUMP JUMPDEST PUSH1 0x0 PUSH1 0x20 DUP3 ADD SWAP1 POP DUP2 DUP2 SUB PUSH1 0x0 DUP4 ADD MSTORE PUSH2 0x220C DUP2 PUSH2 0x21D0 JUMP JUMPDEST SWAP1 POP SWAP2 SWAP1 POP JUMP JUMPDEST PUSH32 0x45524332303A20617070726F766520746F20746865207A65726F206164647265 PUSH1 0x0 DUP3 ADD MSTORE PUSH32 0x7373000000000000000000000000000000000000000000000000000000000000 PUSH1 0x20 DUP3 ADD MSTORE POP JUMP JUMPDEST PUSH1 0x0 PUSH2 0x226F PUSH1 0x22 DUP4 PUSH2 0x19A0 JUMP JUMPDEST SWAP2 POP PUSH2 0x227A DUP3 PUSH2 0x2213 JUMP JUMPDEST PUSH1 0x40 DUP3 ADD SWAP1 POP SWAP2 SWAP1 POP JUMP JUMPDEST PUSH1 0x0 PUSH1 0x20 DUP3 ADD SWAP1 POP DUP2 DUP2 SUB PUSH1 0x0 DUP4 ADD MSTORE PUSH2 0x229E DUP2 PUSH2 0x2262 JUMP JUMPDEST SWAP1 POP SWAP2 SWAP1 POP JUMP JUMPDEST PUSH32 0x45524332303A20696E73756666696369656E7420616C6C6F77616E6365000000 PUSH1 0x0 DUP3 ADD MSTORE POP JUMP JUMPDEST PUSH1 0x0 PUSH2 0x22DB PUSH1 0x1D DUP4 PUSH2 0x19A0 JUMP JUMPDEST SWAP2 POP PUSH2 0x22E6 DUP3 PUSH2 0x22A5 JUMP JUMPDEST PUSH1 0x20 DUP3 ADD SWAP1 POP SWAP2 SWAP1 POP JUMP JUMPDEST PUSH1 0x0 PUSH1 0x20 DUP3 ADD SWAP1 POP DUP2 DUP2 SUB PUSH1 0x0 DUP4 ADD MSTORE PUSH2 0x230A DUP2 PUSH2 0x22CE JUMP JUMPDEST SWAP1 POP SWAP2 SWAP1 POP JUMP JUMPDEST PUSH32 0x45524332303A207472616E736665722066726F6D20746865207A65726F206164 PUSH1 0x0 DUP3 ADD MSTORE PUSH32 0x6472657373000000000000000000000000000000000000000000000000000000 PUSH1 0x20 DUP3 ADD MSTORE POP JUMP JUMPDEST PUSH1 0x0 PUSH2 0x236D PUSH1 0x25 DUP4 PUSH2 0x19A0 JUMP JUMPDEST SWAP2 POP PUSH2 0x2378 DUP3 PUSH2 0x2311 JUMP JUMPDEST PUSH1 0x40 DUP3 ADD SWAP1 POP SWAP2 SWAP1 POP JUMP JUMPDEST PUSH1 0x0 PUSH1 0x20 DUP3 ADD SWAP1 POP DUP2 DUP2 SUB PUSH1 0x0 DUP4 ADD MSTORE PUSH2 0x239C DUP2 PUSH2 0x2360 JUMP JUMPDEST SWAP1 POP SWAP2 SWAP1 POP JUMP JUMPDEST PUSH32 0x45524332303A207472616E7366657220746F20746865207A65726F2061646472 PUSH1 0x0 DUP3 ADD MSTORE PUSH32 0x6573730000000000000000000000000000000000000000000000000000000000 PUSH1 0x20 DUP3 ADD MSTORE POP JUMP JUMPDEST PUSH1 0x0 PUSH2 0x23FF PUSH1 0x23 DUP4 PUSH2 0x19A0 JUMP JUMPDEST SWAP2 POP PUSH2 0x240A DUP3 PUSH2 0x23A3 JUMP JUMPDEST PUSH1 0x40 DUP3 ADD SWAP1 POP SWAP2 SWAP1 POP JUMP JUMPDEST PUSH1 0x0 PUSH1 0x20 DUP3 ADD SWAP1 POP DUP2 DUP2 SUB PUSH1 0x0 DUP4 ADD MSTORE PUSH2 0x242E DUP2 PUSH2 0x23F2 JUMP JUMPDEST SWAP1 POP SWAP2 SWAP1 POP JUMP JUMPDEST PUSH32 0x45524332303A207472616E7366657220616D6F756E7420657863656564732062 PUSH1 0x0 DUP3 ADD MSTORE PUSH32 0x616C616E63650000000000000000000000000000000000000000000000000000 PUSH1 0x20 DUP3 ADD MSTORE POP JUMP JUMPDEST PUSH1 0x0 PUSH2 0x2491 PUSH1 0x26 DUP4 PUSH2 0x19A0 JUMP JUMPDEST SWAP2 POP PUSH2 0x249C DUP3 PUSH2 0x2435 JUMP JUMPDEST PUSH1 0x40 DUP3 ADD SWAP1 POP SWAP2 SWAP1 POP JUMP JUMPDEST PUSH1 0x0 PUSH1 0x20 DUP3 ADD SWAP1 POP DUP2 DUP2 SUB PUSH1 0x0 DUP4 ADD MSTORE PUSH2 0x24C0 DUP2 PUSH2 0x2484 JUMP JUMPDEST SWAP1 POP SWAP2 SWAP1 POP JUMP JUMPDEST PUSH32 0x4E487B7100000000000000000000000000000000000000000000000000000000 PUSH1 0x0 MSTORE PUSH1 0x12 PUSH1 0x4 MSTORE PUSH1 0x24 PUSH1 0x0 REVERT JUMPDEST PUSH1 0x0 PUSH2 0x2501 DUP3 PUSH2 0x1AD7 JUMP JUMPDEST SWAP2 POP PUSH2 0x250C DUP4 PUSH2 0x1AD7 JUMP JUMPDEST SWAP3 POP DUP3 PUSH2 0x251C JUMPI PUSH2 0x251B PUSH2 0x24C7 JUMP JUMPDEST JUMPDEST DUP3 DUP3 DIV SWAP1 POP SWAP3 SWAP2 POP POP JUMP INVALID LOG2 PUSH5 0x6970667358 0x22 SLT KECCAK256 0xC7 0xE1 0xA7 EQ COINBASE PUSH5 0x9ABCB034C2 0x2A SLT 0xEB SHL 0x4B 0xAC SWAP8 LOG1 DUP12 0xB8 MUL SWAP14 0xE0 DUP9 DUP12 REVERT SAR GASLIMIT MSTORE EXTCODECOPY COINBASE PUSH5 0x736F6C6343 STOP ADDMOD SLT STOP CALLER "
				},
				"gasEstimates": {
					"creation": {
						"codeDepositCost": "1913000",
						"executionCost": "infinite",
						"totalCost": "infinite"
					},
					"external": {
						"DecideNetRentmonth(address)": "infinite",
						"DecideNetRentyear(address)": "infinite",
						"DecideTokenprice(address)": "infinite",
						"DecideTotalInvestment(address)": "infinite",
						"PropertykiDetails(address)": "infinite",
						"PropertykiFinances(address)": "infinite",
						"allowance(address,address)": "infinite",
						"approve(address,uint256)": "infinite",
						"balanceOf(address)": "2931",
						"decimals()": "433",
						"decreaseAllowance(address,uint256)": "infinite",
						"depositAmount()": "2474",
						"getBalance()": "407",
						"hasPaidSecurityDeposit(address)": "2891",
						"increaseAllowance(address,uint256)": "infinite",
						"minttheTokenInvestment(address)": "infinite",
						"minttheTokenRentpermonth(address)": "infinite",
						"minttheTokenRentperyear(address)": "infinite",
						"minttheTokenprice(address)": "infinite",
						"name()": "infinite",
						"owner()": "2559",
						"payRent()": "infinite",
						"paySecurityDeposit()": "28835",
						"rentcollected()": "2540",
						"setTenant(address)": "24790",
						"symbol()": "infinite",
						"tenant()": "2603",
						"totalSupply()": "2527",
						"transfer(address,uint256)": "infinite",
						"transferFrom(address,address,uint256)": "infinite",
						"withdrawRent()": "infinite"
					}
				},
				"methodIdentifiers": {
					"DecideNetRentmonth(address)": "575e6cec",
					"DecideNetRentyear(address)": "44ba41db",
					"DecideTokenprice(address)": "976f5f61",
					"DecideTotalInvestment(address)": "88e20abb",
					"PropertykiDetails(address)": "e01fe4c3",
					"PropertykiFinances(address)": "0df9c426",
					"allowance(address,address)": "dd62ed3e",
					"approve(address,uint256)": "095ea7b3",
					"balanceOf(address)": "70a08231",
					"decimals()": "313ce567",
					"decreaseAllowance(address,uint256)": "a457c2d7",
					"depositAmount()": "419759f5",
					"getBalance()": "12065fe0",
					"hasPaidSecurityDeposit(address)": "255dbb53",
					"increaseAllowance(address,uint256)": "39509351",
					"minttheTokenInvestment(address)": "f857f752",
					"minttheTokenRentpermonth(address)": "fcf8f422",
					"minttheTokenRentperyear(address)": "beee50f7",
					"minttheTokenprice(address)": "089a6115",
					"name()": "06fdde03",
					"owner()": "8da5cb5b",
					"payRent()": "a709c4fe",
					"paySecurityDeposit()": "42c63dae",
					"rentcollected()": "4b7851f7",
					"setTenant(address)": "2e74a4de",
					"symbol()": "95d89b41",
					"tenant()": "adf07791",
					"totalSupply()": "18160ddd",
					"transfer(address,uint256)": "a9059cbb",
					"transferFrom(address,address,uint256)": "23b872dd",
					"withdrawRent()": "6322182e"
				}
			},
			"storageLayout": {
				"storage": [
					{
						"astId": 15,
						"contract": "Complete Contract.sol:RealEstate",
						"label": "_balances",
						"offset": 0,
						"slot": "0",
						"type": "t_mapping(t_address,t_uint256)"
					},
					{
						"astId": 21,
						"contract": "Complete Contract.sol:RealEstate",
						"label": "_allowances",
						"offset": 0,
						"slot": "1",
						"type": "t_mapping(t_address,t_mapping(t_address,t_uint256))"
					},
					{
						"astId": 23,
						"contract": "Complete Contract.sol:RealEstate",
						"label": "_totalSupply",
						"offset": 0,
						"slot": "2",
						"type": "t_uint256"
					},
					{
						"astId": 25,
						"contract": "Complete Contract.sol:RealEstate",
						"label": "_name",
						"offset": 0,
						"slot": "3",
						"type": "t_string_storage"
					},
					{
						"astId": 27,
						"contract": "Complete Contract.sol:RealEstate",
						"label": "_symbol",
						"offset": 0,
						"slot": "4",
						"type": "t_string_storage"
					},
					{
						"astId": 2263,
						"contract": "Complete Contract.sol:RealEstate",
						"label": "owner",
						"offset": 0,
						"slot": "5",
						"type": "t_address"
					},
					{
						"astId": 2265,
						"contract": "Complete Contract.sol:RealEstate",
						"label": "tenant",
						"offset": 0,
						"slot": "6",
						"type": "t_address"
					},
					{
						"astId": 2267,
						"contract": "Complete Contract.sol:RealEstate",
						"label": "rentcollected",
						"offset": 0,
						"slot": "7",
						"type": "t_uint256"
					},
					{
						"astId": 2270,
						"contract": "Complete Contract.sol:RealEstate",
						"label": "depositAmount",
						"offset": 0,
						"slot": "8",
						"type": "t_uint256"
					},
					{
						"astId": 2275,
						"contract": "Complete Contract.sol:RealEstate",
						"label": "PropertykiFinances",
						"offset": 0,
						"slot": "9",
						"type": "t_mapping(t_address,t_struct(PropertyFinances)2254_storage)"
					},
					{
						"astId": 2280,
						"contract": "Complete Contract.sol:RealEstate",
						"label": "PropertykiDetails",
						"offset": 0,
						"slot": "10",
						"type": "t_mapping(t_address,t_struct(PropertyDetails)2261_storage)"
					},
					{
						"astId": 2284,
						"contract": "Complete Contract.sol:RealEstate",
						"label": "hasPaidSecurityDeposit",
						"offset": 0,
						"slot": "11",
						"type": "t_mapping(t_address,t_bool)"
					}
				],
				"types": {
					"t_address": {
						"encoding": "inplace",
						"label": "address",
						"numberOfBytes": "20"
					},
					"t_bool": {
						"encoding": "inplace",
						"label": "bool",
						"numberOfBytes": "1"
					},
					"t_mapping(t_address,t_bool)": {
						"encoding": "mapping",
						"key": "t_address",
						"label": "mapping(address => bool)",
						"numberOfBytes": "32",
						"value": "t_bool"
					},
					"t_mapping(t_address,t_mapping(t_address,t_uint256))": {
						"encoding": "mapping",
						"key": "t_address",
						"label": "mapping(address => mapping(address => uint256))",
						"numberOfBytes": "32",
						"value": "t_mapping(t_address,t_uint256)"
					},
					"t_mapping(t_address,t_struct(PropertyDetails)2261_storage)": {
						"encoding": "mapping",
						"key": "t_address",
						"label": "mapping(address => struct RealEstate.PropertyDetails)",
						"numberOfBytes": "32",
						"value": "t_struct(PropertyDetails)2261_storage"
					},
					"t_mapping(t_address,t_struct(PropertyFinances)2254_storage)": {
						"encoding": "mapping",
						"key": "t_address",
						"label": "mapping(address => struct RealEstate.PropertyFinances)",
						"numberOfBytes": "32",
						"value": "t_struct(PropertyFinances)2254_storage"
					},
					"t_mapping(t_address,t_uint256)": {
						"encoding": "mapping",
						"key": "t_address",
						"label": "mapping(address => uint256)",
						"numberOfBytes": "32",
						"value": "t_uint256"
					},
					"t_string_storage": {
						"encoding": "bytes",
						"label": "string",
						"numberOfBytes": "32"
					},
					"t_struct(PropertyDetails)2261_storage": {
						"encoding": "inplace",
						"label": "struct RealEstate.PropertyDetails",
						"members": [
							{
								"astId": 2256,
								"contract": "Complete Contract.sol:RealEstate",
								"label": "Fulladress",
								"offset": 0,
								"slot": "0",
								"type": "t_string_storage"
							},
							{
								"astId": 2258,
								"contract": "Complete Contract.sol:RealEstate",
								"label": "PropertyManager",
								"offset": 0,
								"slot": "1",
								"type": "t_string_storage"
							},
							{
								"astId": 2260,
								"contract": "Complete Contract.sol:RealEstate",
								"label": "OfferingPercent",
								"offset": 0,
								"slot": "2",
								"type": "t_uint256"
							}
						],
						"numberOfBytes": "96"
					},
					"t_struct(PropertyFinances)2254_storage": {
						"encoding": "inplace",
						"label": "struct RealEstate.PropertyFinances",
						"members": [
							{
								"astId": 2235,
								"contract": "Complete Contract.sol:RealEstate",
								"label": "Tokenprice",
								"offset": 0,
								"slot": "0",
								"type": "t_uint256"
							},
							{
								"astId": 2237,
								"contract": "Complete Contract.sol:RealEstate",
								"label": "TokensNumbers",
								"offset": 0,
								"slot": "1",
								"type": "t_uint256"
							},
							{
								"astId": 2239,
								"contract": "Complete Contract.sol:RealEstate",
								"label": "MonthlyCosts",
								"offset": 0,
								"slot": "2",
								"type": "t_uint256"
							},
							{
								"astId": 2241,
								"contract": "Complete Contract.sol:RealEstate",
								"label": "NetRentyear",
								"offset": 0,
								"slot": "3",
								"type": "t_uint256"
							},
							{
								"astId": 2243,
								"contract": "Complete Contract.sol:RealEstate",
								"label": "NetRentmonth",
								"offset": 0,
								"slot": "4",
								"type": "t_uint256"
							},
							{
								"astId": 2245,
								"contract": "Complete Contract.sol:RealEstate",
								"label": "TotalInvestment",
								"offset": 0,
								"slot": "5",
								"type": "t_uint256"
							},
							{
								"astId": 2247,
								"contract": "Complete Contract.sol:RealEstate",
								"label": "Interiorsize",
								"offset": 0,
								"slot": "6",
								"type": "t_uint256"
							},
							{
								"astId": 2249,
								"contract": "Complete Contract.sol:RealEstate",
								"label": "Bedroom",
								"offset": 0,
								"slot": "7",
								"type": "t_uint256"
							},
							{
								"astId": 2251,
								"contract": "Complete Contract.sol:RealEstate",
								"label": "Bathroom",
								"offset": 0,
								"slot": "8",
								"type": "t_uint256"
							},
							{
								"astId": 2253,
								"contract": "Complete Contract.sol:RealEstate",
								"label": "LotSizeinsqft",
								"offset": 0,
								"slot": "9",
								"type": "t_uint256"
							}
						],
						"numberOfBytes": "320"
					},
					"t_uint256": {
						"encoding": "inplace",
						"label": "uint256",
						"numberOfBytes": "32"
					}
				}
			},
			"userdoc": {
				"kind": "user",
				"methods": {},
				"version": 1
			}
		}
	}
}