{
	"payments_vibek.sol": {
		"Payment": {
			"abi": [
				{
					"inputs": [],
					"stateMutability": "nonpayable",
					"type": "constructor"
				},
				{
					"inputs": [],
					"name": "depositamount",
					"outputs": [
						{
							"internalType": "uint256",
							"name": "",
							"type": "uint256"
						}
					],
					"stateMutability": "view",
					"type": "function"
				},
				{
					"inputs": [],
					"name": "getBalance",
					"outputs": [
						{
							"internalType": "uint256",
							"name": "",
							"type": "uint256"
						}
					],
					"stateMutability": "view",
					"type": "function"
				},
				{
					"inputs": [],
					"name": "getter",
					"outputs": [
						{
							"internalType": "address",
							"name": "",
							"type": "address"
						}
					],
					"stateMutability": "view",
					"type": "function"
				},
				{
					"inputs": [],
					"name": "owner",
					"outputs": [
						{
							"internalType": "address",
							"name": "",
							"type": "address"
						}
					],
					"stateMutability": "view",
					"type": "function"
				},
				{
					"inputs": [],
					"name": "payRent",
					"outputs": [],
					"stateMutability": "payable",
					"type": "function"
				},
				{
					"inputs": [],
					"name": "paySecurityDeposit",
					"outputs": [],
					"stateMutability": "payable",
					"type": "function"
				},
				{
					"inputs": [],
					"name": "rentcollected",
					"outputs": [
						{
							"internalType": "uint256",
							"name": "",
							"type": "uint256"
						}
					],
					"stateMutability": "view",
					"type": "function"
				},
				{
					"inputs": [],
					"name": "tenant",
					"outputs": [
						{
							"internalType": "address",
							"name": "",
							"type": "address"
						}
					],
					"stateMutability": "view",
					"type": "function"
				},
				{
					"inputs": [],
					"name": "withdrawRent",
					"outputs": [],
					"stateMutability": "payable",
					"type": "function"
				}
			],
			"devdoc": {
				"kind": "dev",
				"methods": {},
				"version": 1
			},
			"evm": {
				"assembly": "    /* \"payments_vibek.sol\":69:1453  contract Payment {... */\n  mstore(0x40, 0x80)\n    /* \"payments_vibek.sol\":208:215  1 ether */\n  0x0de0b6b3a7640000\n    /* \"payments_vibek.sol\":180:215  uint public depositamount = 1 ether */\n  0x03\n  sstore\n    /* \"payments_vibek.sol\":316:364  constructor(){... */\n  callvalue\n  dup1\n  iszero\n  tag_1\n  jumpi\n  0x00\n  dup1\n  revert\ntag_1:\n  pop\n    /* \"payments_vibek.sol\":346:356  msg.sender */\n  caller\n    /* \"payments_vibek.sol\":340:345  owner */\n  0x00\n  dup1\n    /* \"payments_vibek.sol\":340:356  owner=msg.sender */\n  0x0100\n  exp\n  dup2\n  sload\n  dup2\n  0xffffffffffffffffffffffffffffffffffffffff\n  mul\n  not\n  and\n  swap1\n  dup4\n  0xffffffffffffffffffffffffffffffffffffffff\n  and\n  mul\n  or\n  swap1\n  sstore\n  pop\n    /* \"payments_vibek.sol\":69:1453  contract Payment {... */\n  dataSize(sub_0)\n  dup1\n  dataOffset(sub_0)\n  0x00\n  codecopy\n  0x00\n  return\nstop\n\nsub_0: assembly {\n        /* \"payments_vibek.sol\":69:1453  contract Payment {... */\n      mstore(0x40, 0x80)\n      jumpi(tag_1, lt(calldatasize, 0x04))\n      shr(0xe0, calldataload(0x00))\n      dup1\n      0x6322182e\n      gt\n      tag_11\n      jumpi\n      dup1\n      0x6322182e\n      eq\n      tag_6\n      jumpi\n      dup1\n      0x8da5cb5b\n      eq\n      tag_7\n      jumpi\n      dup1\n      0x993a04b7\n      eq\n      tag_8\n      jumpi\n      dup1\n      0xa709c4fe\n      eq\n      tag_9\n      jumpi\n      dup1\n      0xadf07791\n      eq\n      tag_10\n      jumpi\n      jump(tag_1)\n    tag_11:\n      dup1\n      0x12065fe0\n      eq\n      tag_2\n      jumpi\n      dup1\n      0x322e4d2d\n      eq\n      tag_3\n      jumpi\n      dup1\n      0x42c63dae\n      eq\n      tag_4\n      jumpi\n      dup1\n      0x4b7851f7\n      eq\n      tag_5\n      jumpi\n    tag_1:\n      0x00\n      dup1\n      revert\n        /* \"payments_vibek.sol\":870:961  function getBalance() view public returns(uint){... */\n    tag_2:\n      callvalue\n      dup1\n      iszero\n      tag_12\n      jumpi\n      0x00\n      dup1\n      revert\n    tag_12:\n      pop\n      tag_13\n      tag_14\n      jump\t// in\n    tag_13:\n      mload(0x40)\n      tag_15\n      swap2\n      swap1\n      tag_16\n      jump\t// in\n    tag_15:\n      mload(0x40)\n      dup1\n      swap2\n      sub\n      swap1\n      return\n        /* \"payments_vibek.sol\":180:215  uint public depositamount = 1 ether */\n    tag_3:\n      callvalue\n      dup1\n      iszero\n      tag_17\n      jumpi\n      0x00\n      dup1\n      revert\n    tag_17:\n      pop\n      tag_18\n      tag_19\n      jump\t// in\n    tag_18:\n      mload(0x40)\n      tag_20\n      swap2\n      swap1\n      tag_16\n      jump\t// in\n    tag_20:\n      mload(0x40)\n      dup1\n      swap2\n      sub\n      swap1\n      return\n        /* \"payments_vibek.sol\":685:834  function paySecurityDeposit() public payable onlyTenant() {... */\n    tag_4:\n      tag_21\n      tag_22\n      jump\t// in\n    tag_21:\n      stop\n        /* \"payments_vibek.sol\":148:173  uint public rentcollected */\n    tag_5:\n      callvalue\n      dup1\n      iszero\n      tag_23\n      jumpi\n      0x00\n      dup1\n      revert\n    tag_23:\n      pop\n      tag_24\n      tag_25\n      jump\t// in\n    tag_24:\n      mload(0x40)\n      tag_26\n      swap2\n      swap1\n      tag_16\n      jump\t// in\n    tag_26:\n      mload(0x40)\n      dup1\n      swap2\n      sub\n      swap1\n      return\n        /* \"payments_vibek.sol\":1268:1444  function withdrawRent() public payable onlyOwner{... */\n    tag_6:\n      tag_27\n      tag_28\n      jump\t// in\n    tag_27:\n      stop\n        /* \"payments_vibek.sol\":93:113  address public owner */\n    tag_7:\n      callvalue\n      dup1\n      iszero\n      tag_29\n      jumpi\n      0x00\n      dup1\n      revert\n    tag_29:\n      pop\n      tag_30\n      tag_31\n      jump\t// in\n    tag_30:\n      mload(0x40)\n      tag_32\n      swap2\n      swap1\n      tag_33\n      jump\t// in\n    tag_32:\n      mload(0x40)\n      dup1\n      swap2\n      sub\n      swap1\n      return\n        /* \"payments_vibek.sol\":224:308  function getter() public view returns(address)... */\n    tag_8:\n      callvalue\n      dup1\n      iszero\n      tag_34\n      jumpi\n      0x00\n      dup1\n      revert\n    tag_34:\n      pop\n      tag_35\n      tag_36\n      jump\t// in\n    tag_35:\n      mload(0x40)\n      tag_37\n      swap2\n      swap1\n      tag_33\n      jump\t// in\n    tag_37:\n      mload(0x40)\n      dup1\n      swap2\n      sub\n      swap1\n      return\n        /* \"payments_vibek.sol\":1170:1260  function payRent() public payable onlyTenant(){... */\n    tag_9:\n      tag_38\n      tag_39\n      jump\t// in\n    tag_38:\n      stop\n        /* \"payments_vibek.sol\":120:141  address public tenant */\n    tag_10:\n      callvalue\n      dup1\n      iszero\n      tag_40\n      jumpi\n      0x00\n      dup1\n      revert\n    tag_40:\n      pop\n      tag_41\n      tag_42\n      jump\t// in\n    tag_41:\n      mload(0x40)\n      tag_43\n      swap2\n      swap1\n      tag_33\n      jump\t// in\n    tag_43:\n      mload(0x40)\n      dup1\n      swap2\n      sub\n      swap1\n      return\n        /* \"payments_vibek.sol\":870:961  function getBalance() view public returns(uint){... */\n    tag_14:\n        /* \"payments_vibek.sol\":912:916  uint */\n      0x00\n        /* \"payments_vibek.sol\":931:952  address(this).balance */\n      selfbalance\n        /* \"payments_vibek.sol\":924:952  return address(this).balance */\n      swap1\n      pop\n        /* \"payments_vibek.sol\":870:961  function getBalance() view public returns(uint){... */\n      swap1\n      jump\t// out\n        /* \"payments_vibek.sol\":180:215  uint public depositamount = 1 ether */\n    tag_19:\n      sload(0x03)\n      dup2\n      jump\t// out\n        /* \"payments_vibek.sol\":685:834  function paySecurityDeposit() public payable onlyTenant() {... */\n    tag_22:\n        /* \"payments_vibek.sol\":425:431  tenant */\n      0x01\n      0x00\n      swap1\n      sload\n      swap1\n      0x0100\n      exp\n      swap1\n      div\n      0xffffffffffffffffffffffffffffffffffffffff\n      and\n        /* \"payments_vibek.sol\":411:431  msg.sender == tenant */\n      0xffffffffffffffffffffffffffffffffffffffff\n      and\n        /* \"payments_vibek.sol\":411:421  msg.sender */\n      caller\n        /* \"payments_vibek.sol\":411:431  msg.sender == tenant */\n      0xffffffffffffffffffffffffffffffffffffffff\n      and\n      eq\n        /* \"payments_vibek.sol\":403:497  require(msg.sender == tenant, \"Only the tenant has to pay the security deposit and the rent \") */\n      tag_46\n      jumpi\n      mload(0x40)\n      0x08c379a000000000000000000000000000000000000000000000000000000000\n      dup2\n      mstore\n      0x04\n      add\n      tag_47\n      swap1\n      tag_48\n      jump\t// in\n    tag_47:\n      mload(0x40)\n      dup1\n      swap2\n      sub\n      swap1\n      revert\n    tag_46:\n        /* \"payments_vibek.sol\":775:788  depositamount */\n      sload(0x03)\n        /* \"payments_vibek.sol\":762:771  msg.value */\n      callvalue\n        /* \"payments_vibek.sol\":762:788  msg.value == depositamount */\n      eq\n        /* \"payments_vibek.sol\":754:822  require(msg.value == depositamount, \"Deposit amount does not match\") */\n      tag_50\n      jumpi\n      mload(0x40)\n      0x08c379a000000000000000000000000000000000000000000000000000000000\n      dup2\n      mstore\n      0x04\n      add\n      tag_51\n      swap1\n      tag_52\n      jump\t// in\n    tag_51:\n      mload(0x40)\n      dup1\n      swap2\n      sub\n      swap1\n      revert\n    tag_50:\n        /* \"payments_vibek.sol\":685:834  function paySecurityDeposit() public payable onlyTenant() {... */\n      jump\t// out\n        /* \"payments_vibek.sol\":148:173  uint public rentcollected */\n    tag_25:\n      sload(0x02)\n      dup2\n      jump\t// out\n        /* \"payments_vibek.sol\":1268:1444  function withdrawRent() public payable onlyOwner{... */\n    tag_28:\n        /* \"payments_vibek.sol\":572:577  owner */\n      0x00\n      dup1\n      sload\n      swap1\n      0x0100\n      exp\n      swap1\n      div\n      0xffffffffffffffffffffffffffffffffffffffff\n      and\n        /* \"payments_vibek.sol\":558:577  msg.sender == owner */\n      0xffffffffffffffffffffffffffffffffffffffff\n      and\n        /* \"payments_vibek.sol\":558:568  msg.sender */\n      caller\n        /* \"payments_vibek.sol\":558:577  msg.sender == owner */\n      0xffffffffffffffffffffffffffffffffffffffff\n      and\n      eq\n        /* \"payments_vibek.sol\":550:614  require(msg.sender == owner, \"Only the owner can withdraw rent\") */\n      tag_54\n      jumpi\n      mload(0x40)\n      0x08c379a000000000000000000000000000000000000000000000000000000000\n      dup2\n      mstore\n      0x04\n      add\n      tag_55\n      swap1\n      tag_56\n      jump\t// in\n    tag_55:\n      mload(0x40)\n      dup1\n      swap2\n      sub\n      swap1\n      revert\n    tag_54:\n        /* \"payments_vibek.sol\":1352:1353  0 */\n      0x00\n        /* \"payments_vibek.sol\":1336:1349  rentcollected */\n      sload(0x02)\n        /* \"payments_vibek.sol\":1336:1353  rentcollected > 0 */\n      gt\n        /* \"payments_vibek.sol\":1327:1387  require (rentcollected > 0, \"No rent available to withdraw\") */\n      tag_58\n      jumpi\n      mload(0x40)\n      0x08c379a000000000000000000000000000000000000000000000000000000000\n      dup2\n      mstore\n      0x04\n      add\n      tag_59\n      swap1\n      tag_60\n      jump\t// in\n    tag_59:\n      mload(0x40)\n      dup1\n      swap2\n      sub\n      swap1\n      revert\n    tag_58:\n        /* \"payments_vibek.sol\":1406:1411  owner */\n      0x00\n      dup1\n      sload\n      swap1\n      0x0100\n      exp\n      swap1\n      div\n      0xffffffffffffffffffffffffffffffffffffffff\n      and\n        /* \"payments_vibek.sol\":1398:1421  payable(owner).transfer */\n      0xffffffffffffffffffffffffffffffffffffffff\n      and\n        /* \"payments_vibek.sol\":1398:1436  payable(owner).transfer(rentcollected) */\n      0x08fc\n        /* \"payments_vibek.sol\":1422:1435  rentcollected */\n      sload(0x02)\n        /* \"payments_vibek.sol\":1398:1436  payable(owner).transfer(rentcollected) */\n      swap1\n      dup2\n      iszero\n      mul\n      swap1\n      mload(0x40)\n      0x00\n      mload(0x40)\n      dup1\n      dup4\n      sub\n      dup2\n      dup6\n      dup9\n      dup9\n      call\n      swap4\n      pop\n      pop\n      pop\n      pop\n      iszero\n      dup1\n      iszero\n      tag_62\n      jumpi\n      returndatasize\n      0x00\n      dup1\n      returndatacopy\n      revert(0x00, returndatasize)\n    tag_62:\n      pop\n        /* \"payments_vibek.sol\":1268:1444  function withdrawRent() public payable onlyOwner{... */\n      jump\t// out\n        /* \"payments_vibek.sol\":93:113  address public owner */\n    tag_31:\n      0x00\n      dup1\n      sload\n      swap1\n      0x0100\n      exp\n      swap1\n      div\n      0xffffffffffffffffffffffffffffffffffffffff\n      and\n      dup2\n      jump\t// out\n        /* \"payments_vibek.sol\":224:308  function getter() public view returns(address)... */\n    tag_36:\n        /* \"payments_vibek.sol\":262:269  address */\n      0x00\n        /* \"payments_vibek.sol\":294:300  tenant */\n      0x01\n      0x00\n      swap1\n      sload\n      swap1\n      0x0100\n      exp\n      swap1\n      div\n      0xffffffffffffffffffffffffffffffffffffffff\n      and\n        /* \"payments_vibek.sol\":287:300  return tenant */\n      swap1\n      pop\n        /* \"payments_vibek.sol\":224:308  function getter() public view returns(address)... */\n      swap1\n      jump\t// out\n        /* \"payments_vibek.sol\":1170:1260  function payRent() public payable onlyTenant(){... */\n    tag_39:\n        /* \"payments_vibek.sol\":425:431  tenant */\n      0x01\n      0x00\n      swap1\n      sload\n      swap1\n      0x0100\n      exp\n      swap1\n      div\n      0xffffffffffffffffffffffffffffffffffffffff\n      and\n        /* \"payments_vibek.sol\":411:431  msg.sender == tenant */\n      0xffffffffffffffffffffffffffffffffffffffff\n      and\n        /* \"payments_vibek.sol\":411:421  msg.sender */\n      caller\n        /* \"payments_vibek.sol\":411:431  msg.sender == tenant */\n      0xffffffffffffffffffffffffffffffffffffffff\n      and\n      eq\n        /* \"payments_vibek.sol\":403:497  require(msg.sender == tenant, \"Only the tenant has to pay the security deposit and the rent \") */\n      tag_65\n      jumpi\n      mload(0x40)\n      0x08c379a000000000000000000000000000000000000000000000000000000000\n      dup2\n      mstore\n      0x04\n      add\n      tag_66\n      swap1\n      tag_48\n      jump\t// in\n    tag_66:\n      mload(0x40)\n      dup1\n      swap2\n      sub\n      swap1\n      revert\n    tag_65:\n        /* \"payments_vibek.sol\":1243:1252  msg.value */\n      callvalue\n        /* \"payments_vibek.sol\":1227:1240  rentcollected */\n      0x02\n      0x00\n        /* \"payments_vibek.sol\":1227:1252  rentcollected +=msg.value */\n      dup3\n      dup3\n      sload\n      tag_68\n      swap2\n      swap1\n      tag_69\n      jump\t// in\n    tag_68:\n      swap3\n      pop\n      pop\n      dup2\n      swap1\n      sstore\n      pop\n        /* \"payments_vibek.sol\":1170:1260  function payRent() public payable onlyTenant(){... */\n      jump\t// out\n        /* \"payments_vibek.sol\":120:141  address public tenant */\n    tag_42:\n      0x01\n      0x00\n      swap1\n      sload\n      swap1\n      0x0100\n      exp\n      swap1\n      div\n      0xffffffffffffffffffffffffffffffffffffffff\n      and\n      dup2\n      jump\t// out\n        /* \"#utility.yul\":7:84   */\n    tag_70:\n        /* \"#utility.yul\":44:51   */\n      0x00\n        /* \"#utility.yul\":73:78   */\n      dup2\n        /* \"#utility.yul\":62:78   */\n      swap1\n      pop\n        /* \"#utility.yul\":7:84   */\n      swap2\n      swap1\n      pop\n      jump\t// out\n        /* \"#utility.yul\":90:208   */\n    tag_71:\n        /* \"#utility.yul\":177:201   */\n      tag_88\n        /* \"#utility.yul\":195:200   */\n      dup2\n        /* \"#utility.yul\":177:201   */\n      tag_70\n      jump\t// in\n    tag_88:\n        /* \"#utility.yul\":172:175   */\n      dup3\n        /* \"#utility.yul\":165:202   */\n      mstore\n        /* \"#utility.yul\":90:208   */\n      pop\n      pop\n      jump\t// out\n        /* \"#utility.yul\":214:436   */\n    tag_16:\n        /* \"#utility.yul\":307:311   */\n      0x00\n        /* \"#utility.yul\":345:347   */\n      0x20\n        /* \"#utility.yul\":334:343   */\n      dup3\n        /* \"#utility.yul\":330:348   */\n      add\n        /* \"#utility.yul\":322:348   */\n      swap1\n      pop\n        /* \"#utility.yul\":358:429   */\n      tag_90\n        /* \"#utility.yul\":426:427   */\n      0x00\n        /* \"#utility.yul\":415:424   */\n      dup4\n        /* \"#utility.yul\":411:428   */\n      add\n        /* \"#utility.yul\":402:408   */\n      dup5\n        /* \"#utility.yul\":358:429   */\n      tag_71\n      jump\t// in\n    tag_90:\n        /* \"#utility.yul\":214:436   */\n      swap3\n      swap2\n      pop\n      pop\n      jump\t// out\n        /* \"#utility.yul\":442:568   */\n    tag_72:\n        /* \"#utility.yul\":479:486   */\n      0x00\n        /* \"#utility.yul\":519:561   */\n      0xffffffffffffffffffffffffffffffffffffffff\n        /* \"#utility.yul\":512:517   */\n      dup3\n        /* \"#utility.yul\":508:562   */\n      and\n        /* \"#utility.yul\":497:562   */\n      swap1\n      pop\n        /* \"#utility.yul\":442:568   */\n      swap2\n      swap1\n      pop\n      jump\t// out\n        /* \"#utility.yul\":574:670   */\n    tag_73:\n        /* \"#utility.yul\":611:618   */\n      0x00\n        /* \"#utility.yul\":640:664   */\n      tag_93\n        /* \"#utility.yul\":658:663   */\n      dup3\n        /* \"#utility.yul\":640:664   */\n      tag_72\n      jump\t// in\n    tag_93:\n        /* \"#utility.yul\":629:664   */\n      swap1\n      pop\n        /* \"#utility.yul\":574:670   */\n      swap2\n      swap1\n      pop\n      jump\t// out\n        /* \"#utility.yul\":676:794   */\n    tag_74:\n        /* \"#utility.yul\":763:787   */\n      tag_95\n        /* \"#utility.yul\":781:786   */\n      dup2\n        /* \"#utility.yul\":763:787   */\n      tag_73\n      jump\t// in\n    tag_95:\n        /* \"#utility.yul\":758:761   */\n      dup3\n        /* \"#utility.yul\":751:788   */\n      mstore\n        /* \"#utility.yul\":676:794   */\n      pop\n      pop\n      jump\t// out\n        /* \"#utility.yul\":800:1022   */\n    tag_33:\n        /* \"#utility.yul\":893:897   */\n      0x00\n        /* \"#utility.yul\":931:933   */\n      0x20\n        /* \"#utility.yul\":920:929   */\n      dup3\n        /* \"#utility.yul\":916:934   */\n      add\n        /* \"#utility.yul\":908:934   */\n      swap1\n      pop\n        /* \"#utility.yul\":944:1015   */\n      tag_97\n        /* \"#utility.yul\":1012:1013   */\n      0x00\n        /* \"#utility.yul\":1001:1010   */\n      dup4\n        /* \"#utility.yul\":997:1014   */\n      add\n        /* \"#utility.yul\":988:994   */\n      dup5\n        /* \"#utility.yul\":944:1015   */\n      tag_74\n      jump\t// in\n    tag_97:\n        /* \"#utility.yul\":800:1022   */\n      swap3\n      swap2\n      pop\n      pop\n      jump\t// out\n        /* \"#utility.yul\":1028:1197   */\n    tag_75:\n        /* \"#utility.yul\":1112:1123   */\n      0x00\n        /* \"#utility.yul\":1146:1152   */\n      dup3\n        /* \"#utility.yul\":1141:1144   */\n      dup3\n        /* \"#utility.yul\":1134:1153   */\n      mstore\n        /* \"#utility.yul\":1186:1190   */\n      0x20\n        /* \"#utility.yul\":1181:1184   */\n      dup3\n        /* \"#utility.yul\":1177:1191   */\n      add\n        /* \"#utility.yul\":1162:1191   */\n      swap1\n      pop\n        /* \"#utility.yul\":1028:1197   */\n      swap3\n      swap2\n      pop\n      pop\n      jump\t// out\n        /* \"#utility.yul\":1203:1451   */\n    tag_76:\n        /* \"#utility.yul\":1343:1377   */\n      0x4f6e6c79207468652074656e616e742068617320746f20706179207468652073\n        /* \"#utility.yul\":1339:1340   */\n      0x00\n        /* \"#utility.yul\":1331:1337   */\n      dup3\n        /* \"#utility.yul\":1327:1341   */\n      add\n        /* \"#utility.yul\":1320:1378   */\n      mstore\n        /* \"#utility.yul\":1412:1443   */\n      0x65637572697479206465706f73697420616e64207468652072656e7420000000\n        /* \"#utility.yul\":1407:1409   */\n      0x20\n        /* \"#utility.yul\":1399:1405   */\n      dup3\n        /* \"#utility.yul\":1395:1410   */\n      add\n        /* \"#utility.yul\":1388:1444   */\n      mstore\n        /* \"#utility.yul\":1203:1451   */\n      pop\n      jump\t// out\n        /* \"#utility.yul\":1457:1823   */\n    tag_77:\n        /* \"#utility.yul\":1599:1602   */\n      0x00\n        /* \"#utility.yul\":1620:1687   */\n      tag_101\n        /* \"#utility.yul\":1684:1686   */\n      0x3d\n        /* \"#utility.yul\":1679:1682   */\n      dup4\n        /* \"#utility.yul\":1620:1687   */\n      tag_75\n      jump\t// in\n    tag_101:\n        /* \"#utility.yul\":1613:1687   */\n      swap2\n      pop\n        /* \"#utility.yul\":1696:1789   */\n      tag_102\n        /* \"#utility.yul\":1785:1788   */\n      dup3\n        /* \"#utility.yul\":1696:1789   */\n      tag_76\n      jump\t// in\n    tag_102:\n        /* \"#utility.yul\":1814:1816   */\n      0x40\n        /* \"#utility.yul\":1809:1812   */\n      dup3\n        /* \"#utility.yul\":1805:1817   */\n      add\n        /* \"#utility.yul\":1798:1817   */\n      swap1\n      pop\n        /* \"#utility.yul\":1457:1823   */\n      swap2\n      swap1\n      pop\n      jump\t// out\n        /* \"#utility.yul\":1829:2248   */\n    tag_48:\n        /* \"#utility.yul\":1995:1999   */\n      0x00\n        /* \"#utility.yul\":2033:2035   */\n      0x20\n        /* \"#utility.yul\":2022:2031   */\n      dup3\n        /* \"#utility.yul\":2018:2036   */\n      add\n        /* \"#utility.yul\":2010:2036   */\n      swap1\n      pop\n        /* \"#utility.yul\":2082:2091   */\n      dup2\n        /* \"#utility.yul\":2076:2080   */\n      dup2\n        /* \"#utility.yul\":2072:2092   */\n      sub\n        /* \"#utility.yul\":2068:2069   */\n      0x00\n        /* \"#utility.yul\":2057:2066   */\n      dup4\n        /* \"#utility.yul\":2053:2070   */\n      add\n        /* \"#utility.yul\":2046:2093   */\n      mstore\n        /* \"#utility.yul\":2110:2241   */\n      tag_104\n        /* \"#utility.yul\":2236:2240   */\n      dup2\n        /* \"#utility.yul\":2110:2241   */\n      tag_77\n      jump\t// in\n    tag_104:\n        /* \"#utility.yul\":2102:2241   */\n      swap1\n      pop\n        /* \"#utility.yul\":1829:2248   */\n      swap2\n      swap1\n      pop\n      jump\t// out\n        /* \"#utility.yul\":2254:2433   */\n    tag_78:\n        /* \"#utility.yul\":2394:2425   */\n      0x4465706f73697420616d6f756e7420646f6573206e6f74206d61746368000000\n        /* \"#utility.yul\":2390:2391   */\n      0x00\n        /* \"#utility.yul\":2382:2388   */\n      dup3\n        /* \"#utility.yul\":2378:2392   */\n      add\n        /* \"#utility.yul\":2371:2426   */\n      mstore\n        /* \"#utility.yul\":2254:2433   */\n      pop\n      jump\t// out\n        /* \"#utility.yul\":2439:2805   */\n    tag_79:\n        /* \"#utility.yul\":2581:2584   */\n      0x00\n        /* \"#utility.yul\":2602:2669   */\n      tag_107\n        /* \"#utility.yul\":2666:2668   */\n      0x1d\n        /* \"#utility.yul\":2661:2664   */\n      dup4\n        /* \"#utility.yul\":2602:2669   */\n      tag_75\n      jump\t// in\n    tag_107:\n        /* \"#utility.yul\":2595:2669   */\n      swap2\n      pop\n        /* \"#utility.yul\":2678:2771   */\n      tag_108\n        /* \"#utility.yul\":2767:2770   */\n      dup3\n        /* \"#utility.yul\":2678:2771   */\n      tag_78\n      jump\t// in\n    tag_108:\n        /* \"#utility.yul\":2796:2798   */\n      0x20\n        /* \"#utility.yul\":2791:2794   */\n      dup3\n        /* \"#utility.yul\":2787:2799   */\n      add\n        /* \"#utility.yul\":2780:2799   */\n      swap1\n      pop\n        /* \"#utility.yul\":2439:2805   */\n      swap2\n      swap1\n      pop\n      jump\t// out\n        /* \"#utility.yul\":2811:3230   */\n    tag_52:\n        /* \"#utility.yul\":2977:2981   */\n      0x00\n        /* \"#utility.yul\":3015:3017   */\n      0x20\n        /* \"#utility.yul\":3004:3013   */\n      dup3\n        /* \"#utility.yul\":3000:3018   */\n      add\n        /* \"#utility.yul\":2992:3018   */\n      swap1\n      pop\n        /* \"#utility.yul\":3064:3073   */\n      dup2\n        /* \"#utility.yul\":3058:3062   */\n      dup2\n        /* \"#utility.yul\":3054:3074   */\n      sub\n        /* \"#utility.yul\":3050:3051   */\n      0x00\n        /* \"#utility.yul\":3039:3048   */\n      dup4\n        /* \"#utility.yul\":3035:3052   */\n      add\n        /* \"#utility.yul\":3028:3075   */\n      mstore\n        /* \"#utility.yul\":3092:3223   */\n      tag_110\n        /* \"#utility.yul\":3218:3222   */\n      dup2\n        /* \"#utility.yul\":3092:3223   */\n      tag_79\n      jump\t// in\n    tag_110:\n        /* \"#utility.yul\":3084:3223   */\n      swap1\n      pop\n        /* \"#utility.yul\":2811:3230   */\n      swap2\n      swap1\n      pop\n      jump\t// out\n        /* \"#utility.yul\":3236:3418   */\n    tag_80:\n        /* \"#utility.yul\":3376:3410   */\n      0x4f6e6c7920746865206f776e65722063616e2077697468647261772072656e74\n        /* \"#utility.yul\":3372:3373   */\n      0x00\n        /* \"#utility.yul\":3364:3370   */\n      dup3\n        /* \"#utility.yul\":3360:3374   */\n      add\n        /* \"#utility.yul\":3353:3411   */\n      mstore\n        /* \"#utility.yul\":3236:3418   */\n      pop\n      jump\t// out\n        /* \"#utility.yul\":3424:3790   */\n    tag_81:\n        /* \"#utility.yul\":3566:3569   */\n      0x00\n        /* \"#utility.yul\":3587:3654   */\n      tag_113\n        /* \"#utility.yul\":3651:3653   */\n      0x20\n        /* \"#utility.yul\":3646:3649   */\n      dup4\n        /* \"#utility.yul\":3587:3654   */\n      tag_75\n      jump\t// in\n    tag_113:\n        /* \"#utility.yul\":3580:3654   */\n      swap2\n      pop\n        /* \"#utility.yul\":3663:3756   */\n      tag_114\n        /* \"#utility.yul\":3752:3755   */\n      dup3\n        /* \"#utility.yul\":3663:3756   */\n      tag_80\n      jump\t// in\n    tag_114:\n        /* \"#utility.yul\":3781:3783   */\n      0x20\n        /* \"#utility.yul\":3776:3779   */\n      dup3\n        /* \"#utility.yul\":3772:3784   */\n      add\n        /* \"#utility.yul\":3765:3784   */\n      swap1\n      pop\n        /* \"#utility.yul\":3424:3790   */\n      swap2\n      swap1\n      pop\n      jump\t// out\n        /* \"#utility.yul\":3796:4215   */\n    tag_56:\n        /* \"#utility.yul\":3962:3966   */\n      0x00\n        /* \"#utility.yul\":4000:4002   */\n      0x20\n        /* \"#utility.yul\":3989:3998   */\n      dup3\n        /* \"#utility.yul\":3985:4003   */\n      add\n        /* \"#utility.yul\":3977:4003   */\n      swap1\n      pop\n        /* \"#utility.yul\":4049:4058   */\n      dup2\n        /* \"#utility.yul\":4043:4047   */\n      dup2\n        /* \"#utility.yul\":4039:4059   */\n      sub\n        /* \"#utility.yul\":4035:4036   */\n      0x00\n        /* \"#utility.yul\":4024:4033   */\n      dup4\n        /* \"#utility.yul\":4020:4037   */\n      add\n        /* \"#utility.yul\":4013:4060   */\n      mstore\n        /* \"#utility.yul\":4077:4208   */\n      tag_116\n        /* \"#utility.yul\":4203:4207   */\n      dup2\n        /* \"#utility.yul\":4077:4208   */\n      tag_81\n      jump\t// in\n    tag_116:\n        /* \"#utility.yul\":4069:4208   */\n      swap1\n      pop\n        /* \"#utility.yul\":3796:4215   */\n      swap2\n      swap1\n      pop\n      jump\t// out\n        /* \"#utility.yul\":4221:4400   */\n    tag_82:\n        /* \"#utility.yul\":4361:4392   */\n      0x4e6f2072656e7420617661696c61626c6520746f207769746864726177000000\n        /* \"#utility.yul\":4357:4358   */\n      0x00\n        /* \"#utility.yul\":4349:4355   */\n      dup3\n        /* \"#utility.yul\":4345:4359   */\n      add\n        /* \"#utility.yul\":4338:4393   */\n      mstore\n        /* \"#utility.yul\":4221:4400   */\n      pop\n      jump\t// out\n        /* \"#utility.yul\":4406:4772   */\n    tag_83:\n        /* \"#utility.yul\":4548:4551   */\n      0x00\n        /* \"#utility.yul\":4569:4636   */\n      tag_119\n        /* \"#utility.yul\":4633:4635   */\n      0x1d\n        /* \"#utility.yul\":4628:4631   */\n      dup4\n        /* \"#utility.yul\":4569:4636   */\n      tag_75\n      jump\t// in\n    tag_119:\n        /* \"#utility.yul\":4562:4636   */\n      swap2\n      pop\n        /* \"#utility.yul\":4645:4738   */\n      tag_120\n        /* \"#utility.yul\":4734:4737   */\n      dup3\n        /* \"#utility.yul\":4645:4738   */\n      tag_82\n      jump\t// in\n    tag_120:\n        /* \"#utility.yul\":4763:4765   */\n      0x20\n        /* \"#utility.yul\":4758:4761   */\n      dup3\n        /* \"#utility.yul\":4754:4766   */\n      add\n        /* \"#utility.yul\":4747:4766   */\n      swap1\n      pop\n        /* \"#utility.yul\":4406:4772   */\n      swap2\n      swap1\n      pop\n      jump\t// out\n        /* \"#utility.yul\":4778:5197   */\n    tag_60:\n        /* \"#utility.yul\":4944:4948   */\n      0x00\n        /* \"#utility.yul\":4982:4984   */\n      0x20\n        /* \"#utility.yul\":4971:4980   */\n      dup3\n        /* \"#utility.yul\":4967:4985   */\n      add\n        /* \"#utility.yul\":4959:4985   */\n      swap1\n      pop\n        /* \"#utility.yul\":5031:5040   */\n      dup2\n        /* \"#utility.yul\":5025:5029   */\n      dup2\n        /* \"#utility.yul\":5021:5041   */\n      sub\n        /* \"#utility.yul\":5017:5018   */\n      0x00\n        /* \"#utility.yul\":5006:5015   */\n      dup4\n        /* \"#utility.yul\":5002:5019   */\n      add\n        /* \"#utility.yul\":4995:5042   */\n      mstore\n        /* \"#utility.yul\":5059:5190   */\n      tag_122\n        /* \"#utility.yul\":5185:5189   */\n      dup2\n        /* \"#utility.yul\":5059:5190   */\n      tag_83\n      jump\t// in\n    tag_122:\n        /* \"#utility.yul\":5051:5190   */\n      swap1\n      pop\n        /* \"#utility.yul\":4778:5197   */\n      swap2\n      swap1\n      pop\n      jump\t// out\n        /* \"#utility.yul\":5203:5383   */\n    tag_84:\n        /* \"#utility.yul\":5251:5328   */\n      0x4e487b7100000000000000000000000000000000000000000000000000000000\n        /* \"#utility.yul\":5248:5249   */\n      0x00\n        /* \"#utility.yul\":5241:5329   */\n      mstore\n        /* \"#utility.yul\":5348:5352   */\n      0x11\n        /* \"#utility.yul\":5345:5346   */\n      0x04\n        /* \"#utility.yul\":5338:5353   */\n      mstore\n        /* \"#utility.yul\":5372:5376   */\n      0x24\n        /* \"#utility.yul\":5369:5370   */\n      0x00\n        /* \"#utility.yul\":5362:5377   */\n      revert\n        /* \"#utility.yul\":5389:5580   */\n    tag_69:\n        /* \"#utility.yul\":5429:5432   */\n      0x00\n        /* \"#utility.yul\":5448:5468   */\n      tag_125\n        /* \"#utility.yul\":5466:5467   */\n      dup3\n        /* \"#utility.yul\":5448:5468   */\n      tag_70\n      jump\t// in\n    tag_125:\n        /* \"#utility.yul\":5443:5468   */\n      swap2\n      pop\n        /* \"#utility.yul\":5482:5502   */\n      tag_126\n        /* \"#utility.yul\":5500:5501   */\n      dup4\n        /* \"#utility.yul\":5482:5502   */\n      tag_70\n      jump\t// in\n    tag_126:\n        /* \"#utility.yul\":5477:5502   */\n      swap3\n      pop\n        /* \"#utility.yul\":5525:5526   */\n      dup3\n        /* \"#utility.yul\":5522:5523   */\n      dup3\n        /* \"#utility.yul\":5518:5527   */\n      add\n        /* \"#utility.yul\":5511:5527   */\n      swap1\n      pop\n        /* \"#utility.yul\":5546:5549   */\n      dup1\n        /* \"#utility.yul\":5543:5544   */\n      dup3\n        /* \"#utility.yul\":5540:5550   */\n      gt\n        /* \"#utility.yul\":5537:5573   */\n      iszero\n      tag_127\n      jumpi\n        /* \"#utility.yul\":5553:5571   */\n      tag_128\n      tag_84\n      jump\t// in\n    tag_128:\n        /* \"#utility.yul\":5537:5573   */\n    tag_127:\n        /* \"#utility.yul\":5389:5580   */\n      swap3\n      swap2\n      pop\n      pop\n      jump\t// out\n\n    auxdata: 0xa2646970667358221220a15b12afc0783e54af2324d3c98f3f08750ebb3013e73a747c74f9984d7bf76a64736f6c63430008120033\n}\n",
				"bytecode": {
					"linkReferences": {},
					"object": "6080604052670de0b6b3a764000060035534801561001c57600080fd5b50336000806101000a81548173ffffffffffffffffffffffffffffffffffffffff021916908373ffffffffffffffffffffffffffffffffffffffff1602179055506108028061006c6000396000f3fe6080604052600436106100865760003560e01c80636322182e116100595780636322182e146101165780638da5cb5b14610120578063993a04b71461014b578063a709c4fe14610176578063adf077911461018057610086565b806312065fe01461008b578063322e4d2d146100b657806342c63dae146100e15780634b7851f7146100eb575b600080fd5b34801561009757600080fd5b506100a06101ab565b6040516100ad919061050b565b60405180910390f35b3480156100c257600080fd5b506100cb6101b3565b6040516100d8919061050b565b60405180910390f35b6100e96101b9565b005b3480156100f757600080fd5b5061010061028f565b60405161010d919061050b565b60405180910390f35b61011e610295565b005b34801561012c57600080fd5b506101356103d3565b6040516101429190610567565b60405180910390f35b34801561015757600080fd5b506101606103f7565b60405161016d9190610567565b60405180910390f35b61017e610421565b005b34801561018c57600080fd5b506101956104cc565b6040516101a29190610567565b60405180910390f35b600047905090565b60035481565b600160009054906101000a900473ffffffffffffffffffffffffffffffffffffffff1673ffffffffffffffffffffffffffffffffffffffff163373ffffffffffffffffffffffffffffffffffffffff1614610249576040517f08c379a000000000000000000000000000000000000000000000000000000000815260040161024090610605565b60405180910390fd5b600354341461028d576040517f08c379a000000000000000000000000000000000000000000000000000000000815260040161028490610671565b60405180910390fd5b565b60025481565b60008054906101000a900473ffffffffffffffffffffffffffffffffffffffff1673ffffffffffffffffffffffffffffffffffffffff163373ffffffffffffffffffffffffffffffffffffffff1614610323576040517f08c379a000000000000000000000000000000000000000000000000000000000815260040161031a906106dd565b60405180910390fd5b600060025411610368576040517f08c379a000000000000000000000000000000000000000000000000000000000815260040161035f90610749565b60405180910390fd5b60008054906101000a900473ffffffffffffffffffffffffffffffffffffffff1673ffffffffffffffffffffffffffffffffffffffff166108fc6002549081150290604051600060405180830381858888f193505050501580156103d0573d6000803e3d6000fd5b50565b60008054906101000a900473ffffffffffffffffffffffffffffffffffffffff1681565b6000600160009054906101000a900473ffffffffffffffffffffffffffffffffffffffff16905090565b600160009054906101000a900473ffffffffffffffffffffffffffffffffffffffff1673ffffffffffffffffffffffffffffffffffffffff163373ffffffffffffffffffffffffffffffffffffffff16146104b1576040517f08c379a00000000000000000000000000000000000000000000000000000000081526004016104a890610605565b60405180910390fd5b34600260008282546104c39190610798565b92505081905550565b600160009054906101000a900473ffffffffffffffffffffffffffffffffffffffff1681565b6000819050919050565b610505816104f2565b82525050565b600060208201905061052060008301846104fc565b92915050565b600073ffffffffffffffffffffffffffffffffffffffff82169050919050565b600061055182610526565b9050919050565b61056181610546565b82525050565b600060208201905061057c6000830184610558565b92915050565b600082825260208201905092915050565b7f4f6e6c79207468652074656e616e742068617320746f2070617920746865207360008201527f65637572697479206465706f73697420616e64207468652072656e7420000000602082015250565b60006105ef603d83610582565b91506105fa82610593565b604082019050919050565b6000602082019050818103600083015261061e816105e2565b9050919050565b7f4465706f73697420616d6f756e7420646f6573206e6f74206d61746368000000600082015250565b600061065b601d83610582565b915061066682610625565b602082019050919050565b6000602082019050818103600083015261068a8161064e565b9050919050565b7f4f6e6c7920746865206f776e65722063616e2077697468647261772072656e74600082015250565b60006106c7602083610582565b91506106d282610691565b602082019050919050565b600060208201905081810360008301526106f6816106ba565b9050919050565b7f4e6f2072656e7420617661696c61626c6520746f207769746864726177000000600082015250565b6000610733601d83610582565b915061073e826106fd565b602082019050919050565b6000602082019050818103600083015261076281610726565b9050919050565b7f4e487b7100000000000000000000000000000000000000000000000000000000600052601160045260246000fd5b60006107a3826104f2565b91506107ae836104f2565b92508282019050808211156107c6576107c5610769565b5b9291505056fea2646970667358221220a15b12afc0783e54af2324d3c98f3f08750ebb3013e73a747c74f9984d7bf76a64736f6c63430008120033",
					"opcodes": "PUSH1 0x80 PUSH1 0x40 MSTORE PUSH8 0xDE0B6B3A7640000 PUSH1 0x3 SSTORE CALLVALUE DUP1 ISZERO PUSH2 0x1C JUMPI PUSH1 0x0 DUP1 REVERT JUMPDEST POP CALLER PUSH1 0x0 DUP1 PUSH2 0x100 EXP DUP2 SLOAD DUP2 PUSH20 0xFFFFFFFFFFFFFFFFFFFFFFFFFFFFFFFFFFFFFFFF MUL NOT AND SWAP1 DUP4 PUSH20 0xFFFFFFFFFFFFFFFFFFFFFFFFFFFFFFFFFFFFFFFF AND MUL OR SWAP1 SSTORE POP PUSH2 0x802 DUP1 PUSH2 0x6C PUSH1 0x0 CODECOPY PUSH1 0x0 RETURN INVALID PUSH1 0x80 PUSH1 0x40 MSTORE PUSH1 0x4 CALLDATASIZE LT PUSH2 0x86 JUMPI PUSH1 0x0 CALLDATALOAD PUSH1 0xE0 SHR DUP1 PUSH4 0x6322182E GT PUSH2 0x59 JUMPI DUP1 PUSH4 0x6322182E EQ PUSH2 0x116 JUMPI DUP1 PUSH4 0x8DA5CB5B EQ PUSH2 0x120 JUMPI DUP1 PUSH4 0x993A04B7 EQ PUSH2 0x14B JUMPI DUP1 PUSH4 0xA709C4FE EQ PUSH2 0x176 JUMPI DUP1 PUSH4 0xADF07791 EQ PUSH2 0x180 JUMPI PUSH2 0x86 JUMP JUMPDEST DUP1 PUSH4 0x12065FE0 EQ PUSH2 0x8B JUMPI DUP1 PUSH4 0x322E4D2D EQ PUSH2 0xB6 JUMPI DUP1 PUSH4 0x42C63DAE EQ PUSH2 0xE1 JUMPI DUP1 PUSH4 0x4B7851F7 EQ PUSH2 0xEB JUMPI JUMPDEST PUSH1 0x0 DUP1 REVERT JUMPDEST CALLVALUE DUP1 ISZERO PUSH2 0x97 JUMPI PUSH1 0x0 DUP1 REVERT JUMPDEST POP PUSH2 0xA0 PUSH2 0x1AB JUMP JUMPDEST PUSH1 0x40 MLOAD PUSH2 0xAD SWAP2 SWAP1 PUSH2 0x50B JUMP JUMPDEST PUSH1 0x40 MLOAD DUP1 SWAP2 SUB SWAP1 RETURN JUMPDEST CALLVALUE DUP1 ISZERO PUSH2 0xC2 JUMPI PUSH1 0x0 DUP1 REVERT JUMPDEST POP PUSH2 0xCB PUSH2 0x1B3 JUMP JUMPDEST PUSH1 0x40 MLOAD PUSH2 0xD8 SWAP2 SWAP1 PUSH2 0x50B JUMP JUMPDEST PUSH1 0x40 MLOAD DUP1 SWAP2 SUB SWAP1 RETURN JUMPDEST PUSH2 0xE9 PUSH2 0x1B9 JUMP JUMPDEST STOP JUMPDEST CALLVALUE DUP1 ISZERO PUSH2 0xF7 JUMPI PUSH1 0x0 DUP1 REVERT JUMPDEST POP PUSH2 0x100 PUSH2 0x28F JUMP JUMPDEST PUSH1 0x40 MLOAD PUSH2 0x10D SWAP2 SWAP1 PUSH2 0x50B JUMP JUMPDEST PUSH1 0x40 MLOAD DUP1 SWAP2 SUB SWAP1 RETURN JUMPDEST PUSH2 0x11E PUSH2 0x295 JUMP JUMPDEST STOP JUMPDEST CALLVALUE DUP1 ISZERO PUSH2 0x12C JUMPI PUSH1 0x0 DUP1 REVERT JUMPDEST POP PUSH2 0x135 PUSH2 0x3D3 JUMP JUMPDEST PUSH1 0x40 MLOAD PUSH2 0x142 SWAP2 SWAP1 PUSH2 0x567 JUMP JUMPDEST PUSH1 0x40 MLOAD DUP1 SWAP2 SUB SWAP1 RETURN JUMPDEST CALLVALUE DUP1 ISZERO PUSH2 0x157 JUMPI PUSH1 0x0 DUP1 REVERT JUMPDEST POP PUSH2 0x160 PUSH2 0x3F7 JUMP JUMPDEST PUSH1 0x40 MLOAD PUSH2 0x16D SWAP2 SWAP1 PUSH2 0x567 JUMP JUMPDEST PUSH1 0x40 MLOAD DUP1 SWAP2 SUB SWAP1 RETURN JUMPDEST PUSH2 0x17E PUSH2 0x421 JUMP JUMPDEST STOP JUMPDEST CALLVALUE DUP1 ISZERO PUSH2 0x18C JUMPI PUSH1 0x0 DUP1 REVERT JUMPDEST POP PUSH2 0x195 PUSH2 0x4CC JUMP JUMPDEST PUSH1 0x40 MLOAD PUSH2 0x1A2 SWAP2 SWAP1 PUSH2 0x567 JUMP JUMPDEST PUSH1 0x40 MLOAD DUP1 SWAP2 SUB SWAP1 RETURN JUMPDEST PUSH1 0x0 SELFBALANCE SWAP1 POP SWAP1 JUMP JUMPDEST PUSH1 0x3 SLOAD DUP2 JUMP JUMPDEST PUSH1 0x1 PUSH1 0x0 SWAP1 SLOAD SWAP1 PUSH2 0x100 EXP SWAP1 DIV PUSH20 0xFFFFFFFFFFFFFFFFFFFFFFFFFFFFFFFFFFFFFFFF AND PUSH20 0xFFFFFFFFFFFFFFFFFFFFFFFFFFFFFFFFFFFFFFFF AND CALLER PUSH20 0xFFFFFFFFFFFFFFFFFFFFFFFFFFFFFFFFFFFFFFFF AND EQ PUSH2 0x249 JUMPI PUSH1 0x40 MLOAD PUSH32 0x8C379A000000000000000000000000000000000000000000000000000000000 DUP2 MSTORE PUSH1 0x4 ADD PUSH2 0x240 SWAP1 PUSH2 0x605 JUMP JUMPDEST PUSH1 0x40 MLOAD DUP1 SWAP2 SUB SWAP1 REVERT JUMPDEST PUSH1 0x3 SLOAD CALLVALUE EQ PUSH2 0x28D JUMPI PUSH1 0x40 MLOAD PUSH32 0x8C379A000000000000000000000000000000000000000000000000000000000 DUP2 MSTORE PUSH1 0x4 ADD PUSH2 0x284 SWAP1 PUSH2 0x671 JUMP JUMPDEST PUSH1 0x40 MLOAD DUP1 SWAP2 SUB SWAP1 REVERT JUMPDEST JUMP JUMPDEST PUSH1 0x2 SLOAD DUP2 JUMP JUMPDEST PUSH1 0x0 DUP1 SLOAD SWAP1 PUSH2 0x100 EXP SWAP1 DIV PUSH20 0xFFFFFFFFFFFFFFFFFFFFFFFFFFFFFFFFFFFFFFFF AND PUSH20 0xFFFFFFFFFFFFFFFFFFFFFFFFFFFFFFFFFFFFFFFF AND CALLER PUSH20 0xFFFFFFFFFFFFFFFFFFFFFFFFFFFFFFFFFFFFFFFF AND EQ PUSH2 0x323 JUMPI PUSH1 0x40 MLOAD PUSH32 0x8C379A000000000000000000000000000000000000000000000000000000000 DUP2 MSTORE PUSH1 0x4 ADD PUSH2 0x31A SWAP1 PUSH2 0x6DD JUMP JUMPDEST PUSH1 0x40 MLOAD DUP1 SWAP2 SUB SWAP1 REVERT JUMPDEST PUSH1 0x0 PUSH1 0x2 SLOAD GT PUSH2 0x368 JUMPI PUSH1 0x40 MLOAD PUSH32 0x8C379A000000000000000000000000000000000000000000000000000000000 DUP2 MSTORE PUSH1 0x4 ADD PUSH2 0x35F SWAP1 PUSH2 0x749 JUMP JUMPDEST PUSH1 0x40 MLOAD DUP1 SWAP2 SUB SWAP1 REVERT JUMPDEST PUSH1 0x0 DUP1 SLOAD SWAP1 PUSH2 0x100 EXP SWAP1 DIV PUSH20 0xFFFFFFFFFFFFFFFFFFFFFFFFFFFFFFFFFFFFFFFF AND PUSH20 0xFFFFFFFFFFFFFFFFFFFFFFFFFFFFFFFFFFFFFFFF AND PUSH2 0x8FC PUSH1 0x2 SLOAD SWAP1 DUP2 ISZERO MUL SWAP1 PUSH1 0x40 MLOAD PUSH1 0x0 PUSH1 0x40 MLOAD DUP1 DUP4 SUB DUP2 DUP6 DUP9 DUP9 CALL SWAP4 POP POP POP POP ISZERO DUP1 ISZERO PUSH2 0x3D0 JUMPI RETURNDATASIZE PUSH1 0x0 DUP1 RETURNDATACOPY RETURNDATASIZE PUSH1 0x0 REVERT JUMPDEST POP JUMP JUMPDEST PUSH1 0x0 DUP1 SLOAD SWAP1 PUSH2 0x100 EXP SWAP1 DIV PUSH20 0xFFFFFFFFFFFFFFFFFFFFFFFFFFFFFFFFFFFFFFFF AND DUP2 JUMP JUMPDEST PUSH1 0x0 PUSH1 0x1 PUSH1 0x0 SWAP1 SLOAD SWAP1 PUSH2 0x100 EXP SWAP1 DIV PUSH20 0xFFFFFFFFFFFFFFFFFFFFFFFFFFFFFFFFFFFFFFFF AND SWAP1 POP SWAP1 JUMP JUMPDEST PUSH1 0x1 PUSH1 0x0 SWAP1 SLOAD SWAP1 PUSH2 0x100 EXP SWAP1 DIV PUSH20 0xFFFFFFFFFFFFFFFFFFFFFFFFFFFFFFFFFFFFFFFF AND PUSH20 0xFFFFFFFFFFFFFFFFFFFFFFFFFFFFFFFFFFFFFFFF AND CALLER PUSH20 0xFFFFFFFFFFFFFFFFFFFFFFFFFFFFFFFFFFFFFFFF AND EQ PUSH2 0x4B1 JUMPI PUSH1 0x40 MLOAD PUSH32 0x8C379A000000000000000000000000000000000000000000000000000000000 DUP2 MSTORE PUSH1 0x4 ADD PUSH2 0x4A8 SWAP1 PUSH2 0x605 JUMP JUMPDEST PUSH1 0x40 MLOAD DUP1 SWAP2 SUB SWAP1 REVERT JUMPDEST CALLVALUE PUSH1 0x2 PUSH1 0x0 DUP3 DUP3 SLOAD PUSH2 0x4C3 SWAP2 SWAP1 PUSH2 0x798 JUMP JUMPDEST SWAP3 POP POP DUP2 SWAP1 SSTORE POP JUMP JUMPDEST PUSH1 0x1 PUSH1 0x0 SWAP1 SLOAD SWAP1 PUSH2 0x100 EXP SWAP1 DIV PUSH20 0xFFFFFFFFFFFFFFFFFFFFFFFFFFFFFFFFFFFFFFFF AND DUP2 JUMP JUMPDEST PUSH1 0x0 DUP2 SWAP1 POP SWAP2 SWAP1 POP JUMP JUMPDEST PUSH2 0x505 DUP2 PUSH2 0x4F2 JUMP JUMPDEST DUP3 MSTORE POP POP JUMP JUMPDEST PUSH1 0x0 PUSH1 0x20 DUP3 ADD SWAP1 POP PUSH2 0x520 PUSH1 0x0 DUP4 ADD DUP5 PUSH2 0x4FC JUMP JUMPDEST SWAP3 SWAP2 POP POP JUMP JUMPDEST PUSH1 0x0 PUSH20 0xFFFFFFFFFFFFFFFFFFFFFFFFFFFFFFFFFFFFFFFF DUP3 AND SWAP1 POP SWAP2 SWAP1 POP JUMP JUMPDEST PUSH1 0x0 PUSH2 0x551 DUP3 PUSH2 0x526 JUMP JUMPDEST SWAP1 POP SWAP2 SWAP1 POP JUMP JUMPDEST PUSH2 0x561 DUP2 PUSH2 0x546 JUMP JUMPDEST DUP3 MSTORE POP POP JUMP JUMPDEST PUSH1 0x0 PUSH1 0x20 DUP3 ADD SWAP1 POP PUSH2 0x57C PUSH1 0x0 DUP4 ADD DUP5 PUSH2 0x558 JUMP JUMPDEST SWAP3 SWAP2 POP POP JUMP JUMPDEST PUSH1 0x0 DUP3 DUP3 MSTORE PUSH1 0x20 DUP3 ADD SWAP1 POP SWAP3 SWAP2 POP POP JUMP JUMPDEST PUSH32 0x4F6E6C79207468652074656E616E742068617320746F20706179207468652073 PUSH1 0x0 DUP3 ADD MSTORE PUSH32 0x65637572697479206465706F73697420616E64207468652072656E7420000000 PUSH1 0x20 DUP3 ADD MSTORE POP JUMP JUMPDEST PUSH1 0x0 PUSH2 0x5EF PUSH1 0x3D DUP4 PUSH2 0x582 JUMP JUMPDEST SWAP2 POP PUSH2 0x5FA DUP3 PUSH2 0x593 JUMP JUMPDEST PUSH1 0x40 DUP3 ADD SWAP1 POP SWAP2 SWAP1 POP JUMP JUMPDEST PUSH1 0x0 PUSH1 0x20 DUP3 ADD SWAP1 POP DUP2 DUP2 SUB PUSH1 0x0 DUP4 ADD MSTORE PUSH2 0x61E DUP2 PUSH2 0x5E2 JUMP JUMPDEST SWAP1 POP SWAP2 SWAP1 POP JUMP JUMPDEST PUSH32 0x4465706F73697420616D6F756E7420646F6573206E6F74206D61746368000000 PUSH1 0x0 DUP3 ADD MSTORE POP JUMP JUMPDEST PUSH1 0x0 PUSH2 0x65B PUSH1 0x1D DUP4 PUSH2 0x582 JUMP JUMPDEST SWAP2 POP PUSH2 0x666 DUP3 PUSH2 0x625 JUMP JUMPDEST PUSH1 0x20 DUP3 ADD SWAP1 POP SWAP2 SWAP1 POP JUMP JUMPDEST PUSH1 0x0 PUSH1 0x20 DUP3 ADD SWAP1 POP DUP2 DUP2 SUB PUSH1 0x0 DUP4 ADD MSTORE PUSH2 0x68A DUP2 PUSH2 0x64E JUMP JUMPDEST SWAP1 POP SWAP2 SWAP1 POP JUMP JUMPDEST PUSH32 0x4F6E6C7920746865206F776E65722063616E2077697468647261772072656E74 PUSH1 0x0 DUP3 ADD MSTORE POP JUMP JUMPDEST PUSH1 0x0 PUSH2 0x6C7 PUSH1 0x20 DUP4 PUSH2 0x582 JUMP JUMPDEST SWAP2 POP PUSH2 0x6D2 DUP3 PUSH2 0x691 JUMP JUMPDEST PUSH1 0x20 DUP3 ADD SWAP1 POP SWAP2 SWAP1 POP JUMP JUMPDEST PUSH1 0x0 PUSH1 0x20 DUP3 ADD SWAP1 POP DUP2 DUP2 SUB PUSH1 0x0 DUP4 ADD MSTORE PUSH2 0x6F6 DUP2 PUSH2 0x6BA JUMP JUMPDEST SWAP1 POP SWAP2 SWAP1 POP JUMP JUMPDEST PUSH32 0x4E6F2072656E7420617661696C61626C6520746F207769746864726177000000 PUSH1 0x0 DUP3 ADD MSTORE POP JUMP JUMPDEST PUSH1 0x0 PUSH2 0x733 PUSH1 0x1D DUP4 PUSH2 0x582 JUMP JUMPDEST SWAP2 POP PUSH2 0x73E DUP3 PUSH2 0x6FD JUMP JUMPDEST PUSH1 0x20 DUP3 ADD SWAP1 POP SWAP2 SWAP1 POP JUMP JUMPDEST PUSH1 0x0 PUSH1 0x20 DUP3 ADD SWAP1 POP DUP2 DUP2 SUB PUSH1 0x0 DUP4 ADD MSTORE PUSH2 0x762 DUP2 PUSH2 0x726 JUMP JUMPDEST SWAP1 POP SWAP2 SWAP1 POP JUMP JUMPDEST PUSH32 0x4E487B7100000000000000000000000000000000000000000000000000000000 PUSH1 0x0 MSTORE PUSH1 0x11 PUSH1 0x4 MSTORE PUSH1 0x24 PUSH1 0x0 REVERT JUMPDEST PUSH1 0x0 PUSH2 0x7A3 DUP3 PUSH2 0x4F2 JUMP JUMPDEST SWAP2 POP PUSH2 0x7AE DUP4 PUSH2 0x4F2 JUMP JUMPDEST SWAP3 POP DUP3 DUP3 ADD SWAP1 POP DUP1 DUP3 GT ISZERO PUSH2 0x7C6 JUMPI PUSH2 0x7C5 PUSH2 0x769 JUMP JUMPDEST JUMPDEST SWAP3 SWAP2 POP POP JUMP INVALID LOG2 PUSH5 0x6970667358 0x22 SLT KECCAK256 LOG1 JUMPDEST SLT 0xAF 0xC0 PUSH25 0x3E54AF2324D3C98F3F08750EBB3013E73A747C74F9984D7BF7 PUSH11 0x64736F6C63430008120033 "
				},
				"gasEstimates": {
					"creation": {
						"codeDepositCost": "410000",
						"executionCost": "46821",
						"totalCost": "456821"
					},
					"external": {
						"depositamount()": "2452",
						"getBalance()": "340",
						"getter()": "2566",
						"owner()": "2533",
						"payRent()": "infinite",
						"paySecurityDeposit()": "4746",
						"rentcollected()": "2496",
						"tenant()": "2602",
						"withdrawRent()": "infinite"
					}
				},
				"methodIdentifiers": {
					"depositamount()": "322e4d2d",
					"getBalance()": "12065fe0",
					"getter()": "993a04b7",
					"owner()": "8da5cb5b",
					"payRent()": "a709c4fe",
					"paySecurityDeposit()": "42c63dae",
					"rentcollected()": "4b7851f7",
					"tenant()": "adf07791",
					"withdrawRent()": "6322182e"
				}
			},
			"storageLayout": {
				"storage": [
					{
						"astId": 3,
						"contract": "payments_vibek.sol:Payment",
						"label": "owner",
						"offset": 0,
						"slot": "0",
						"type": "t_address"
					},
					{
						"astId": 5,
						"contract": "payments_vibek.sol:Payment",
						"label": "tenant",
						"offset": 0,
						"slot": "1",
						"type": "t_address"
					},
					{
						"astId": 7,
						"contract": "payments_vibek.sol:Payment",
						"label": "rentcollected",
						"offset": 0,
						"slot": "2",
						"type": "t_uint256"
					},
					{
						"astId": 10,
						"contract": "payments_vibek.sol:Payment",
						"label": "depositamount",
						"offset": 0,
						"slot": "3",
						"type": "t_uint256"
					}
				],
				"types": {
					"t_address": {
						"encoding": "inplace",
						"label": "address",
						"numberOfBytes": "20"
					},
					"t_uint256": {
						"encoding": "inplace",
						"label": "uint256",
						"numberOfBytes": "32"
					}
				}
			},
			"userdoc": {
				"kind": "user",
				"methods": {},
				"version": 1
			}
		}
	}
}