{
	"CodeEater/ViewvsPure.sol": {
		"local": {
			"abi": [
				{
					"constant": true,
					"inputs": [],
					"name": "age",
					"outputs": [
						{
							"name": "",
							"type": "uint256"
						}
					],
					"payable": false,
					"stateMutability": "view",
					"type": "function"
				},
				{
					"constant": true,
					"inputs": [],
					"name": "getter",
					"outputs": [
						{
							"name": "",
							"type": "uint256"
						}
					],
					"payable": false,
					"stateMutability": "view",
					"type": "function"
				}
			],
			"devdoc": {
				"methods": {}
			},
			"evm": {
				"assembly": "    /* \"CodeEater/ViewvsPure.sol\":71:309  contract local\r... */\n  mstore(0x40, 0x80)\n    /* \"CodeEater/ViewvsPure.sol\":111:113  10 */\n  0xa\n    /* \"CodeEater/ViewvsPure.sol\":94:113  uint public age =10 */\n  0x0\n  sstore\n    /* \"CodeEater/ViewvsPure.sol\":71:309  contract local\r... */\n  callvalue\n    /* \"--CODEGEN--\":8:17   */\n  dup1\n    /* \"--CODEGEN--\":5:7   */\n  iszero\n  tag_1\n  jumpi\n    /* \"--CODEGEN--\":30:31   */\n  0x0\n    /* \"--CODEGEN--\":27:28   */\n  dup1\n    /* \"--CODEGEN--\":20:32   */\n  revert\n    /* \"--CODEGEN--\":5:7   */\ntag_1:\n    /* \"CodeEater/ViewvsPure.sol\":71:309  contract local\r... */\n  pop\n  dataSize(sub_0)\n  dup1\n  dataOffset(sub_0)\n  0x0\n  codecopy\n  0x0\n  return\nstop\n\nsub_0: assembly {\n        /* \"CodeEater/ViewvsPure.sol\":71:309  contract local\r... */\n      mstore(0x40, 0x80)\n      jumpi(tag_1, lt(calldatasize, 0x4))\n      calldataload(0x0)\n      0x100000000000000000000000000000000000000000000000000000000\n      swap1\n      div\n      0xffffffff\n      and\n      dup1\n      0x262a9dff\n      eq\n      tag_2\n      jumpi\n      dup1\n      0x993a04b7\n      eq\n      tag_3\n      jumpi\n    tag_1:\n      0x0\n      dup1\n      revert\n        /* \"CodeEater/ViewvsPure.sol\":94:113  uint public age =10 */\n    tag_2:\n      callvalue\n        /* \"--CODEGEN--\":8:17   */\n      dup1\n        /* \"--CODEGEN--\":5:7   */\n      iszero\n      tag_4\n      jumpi\n        /* \"--CODEGEN--\":30:31   */\n      0x0\n        /* \"--CODEGEN--\":27:28   */\n      dup1\n        /* \"--CODEGEN--\":20:32   */\n      revert\n        /* \"--CODEGEN--\":5:7   */\n    tag_4:\n        /* \"CodeEater/ViewvsPure.sol\":94:113  uint public age =10 */\n      pop\n      tag_5\n      jump(tag_6)\n    tag_5:\n      mload(0x40)\n      dup1\n      dup3\n      dup2\n      mstore\n      0x20\n      add\n      swap2\n      pop\n      pop\n      mload(0x40)\n      dup1\n      swap2\n      sub\n      swap1\n      return\n        /* \"CodeEater/ViewvsPure.sol\":228:306  function getter () public view returns(uint)\r... */\n    tag_3:\n      callvalue\n        /* \"--CODEGEN--\":8:17   */\n      dup1\n        /* \"--CODEGEN--\":5:7   */\n      iszero\n      tag_7\n      jumpi\n        /* \"--CODEGEN--\":30:31   */\n      0x0\n        /* \"--CODEGEN--\":27:28   */\n      dup1\n        /* \"--CODEGEN--\":20:32   */\n      revert\n        /* \"--CODEGEN--\":5:7   */\n    tag_7:\n        /* \"CodeEater/ViewvsPure.sol\":228:306  function getter () public view returns(uint)\r... */\n      pop\n      tag_8\n      jump(tag_9)\n    tag_8:\n      mload(0x40)\n      dup1\n      dup3\n      dup2\n      mstore\n      0x20\n      add\n      swap2\n      pop\n      pop\n      mload(0x40)\n      dup1\n      swap2\n      sub\n      swap1\n      return\n        /* \"CodeEater/ViewvsPure.sol\":94:113  uint public age =10 */\n    tag_6:\n      sload(0x0)\n      dup2\n      jump\t// out\n        /* \"CodeEater/ViewvsPure.sol\":228:306  function getter () public view returns(uint)\r... */\n    tag_9:\n        /* \"CodeEater/ViewvsPure.sol\":267:271  uint */\n      0x0\n        /* \"CodeEater/ViewvsPure.sol\":295:298  age */\n      dup1\n      sload\n        /* \"CodeEater/ViewvsPure.sol\":288:298  return age */\n      swap1\n      pop\n        /* \"CodeEater/ViewvsPure.sol\":228:306  function getter () public view returns(uint)\r... */\n      swap1\n      jump\t// out\n\n    auxdata: 0xa165627a7a723058203ed49af8095f87d4b8a3bec6b64e779a6df0d27c560266bbf1887c0bcae71ade0029\n}\n",
				"bytecode": {
					"linkReferences": {},
					"object": "6080604052600a60005534801561001557600080fd5b5060d9806100246000396000f3fe6080604052600436106049576000357c0100000000000000000000000000000000000000000000000000000000900463ffffffff168063262a9dff14604e578063993a04b7146076575b600080fd5b348015605957600080fd5b506060609e565b6040518082815260200191505060405180910390f35b348015608157600080fd5b50608860a4565b6040518082815260200191505060405180910390f35b60005481565b6000805490509056fea165627a7a723058203ed49af8095f87d4b8a3bec6b64e779a6df0d27c560266bbf1887c0bcae71ade0029",
					"opcodes": "PUSH1 0x80 PUSH1 0x40 MSTORE PUSH1 0xA PUSH1 0x0 SSTORE CALLVALUE DUP1 ISZERO PUSH2 0x15 JUMPI PUSH1 0x0 DUP1 REVERT JUMPDEST POP PUSH1 0xD9 DUP1 PUSH2 0x24 PUSH1 0x0 CODECOPY PUSH1 0x0 RETURN INVALID PUSH1 0x80 PUSH1 0x40 MSTORE PUSH1 0x4 CALLDATASIZE LT PUSH1 0x49 JUMPI PUSH1 0x0 CALLDATALOAD PUSH29 0x100000000000000000000000000000000000000000000000000000000 SWAP1 DIV PUSH4 0xFFFFFFFF AND DUP1 PUSH4 0x262A9DFF EQ PUSH1 0x4E JUMPI DUP1 PUSH4 0x993A04B7 EQ PUSH1 0x76 JUMPI JUMPDEST PUSH1 0x0 DUP1 REVERT JUMPDEST CALLVALUE DUP1 ISZERO PUSH1 0x59 JUMPI PUSH1 0x0 DUP1 REVERT JUMPDEST POP PUSH1 0x60 PUSH1 0x9E JUMP JUMPDEST PUSH1 0x40 MLOAD DUP1 DUP3 DUP2 MSTORE PUSH1 0x20 ADD SWAP2 POP POP PUSH1 0x40 MLOAD DUP1 SWAP2 SUB SWAP1 RETURN JUMPDEST CALLVALUE DUP1 ISZERO PUSH1 0x81 JUMPI PUSH1 0x0 DUP1 REVERT JUMPDEST POP PUSH1 0x88 PUSH1 0xA4 JUMP JUMPDEST PUSH1 0x40 MLOAD DUP1 DUP3 DUP2 MSTORE PUSH1 0x20 ADD SWAP2 POP POP PUSH1 0x40 MLOAD DUP1 SWAP2 SUB SWAP1 RETURN JUMPDEST PUSH1 0x0 SLOAD DUP2 JUMP JUMPDEST PUSH1 0x0 DUP1 SLOAD SWAP1 POP SWAP1 JUMP INVALID LOG1 PUSH6 0x627A7A723058 KECCAK256 RETURNDATACOPY 0xd4 SWAP11 0xf8 MULMOD 0x5f DUP8 0xd4 0xb8 LOG3 0xbe 0xc6 0xb6 0x4e PUSH24 0x9A6DF0D27C560266BBF1887C0BCAE71ADE00290000000000 "
				},
				"gasEstimates": {
					"creation": {
						"codeDepositCost": "43400",
						"executionCost": "20099",
						"totalCost": "63499"
					},
					"external": {
						"age()": "394",
						"getter()": "424"
					}
				},
				"methodIdentifiers": {
					"age()": "262a9dff",
					"getter()": "993a04b7"
				}
			},
			"userdoc": {
				"methods": {}
			}
		}
	}
}