{
	"CodeEater/visibility.sol": {
		"C": {
			"abi": [
				{
					"inputs": [],
					"name": "cx",
					"outputs": [
						{
							"internalType": "uint256",
							"name": "",
							"type": "uint256"
						}
					],
					"stateMutability": "view",
					"type": "function"
				}
			],
			"devdoc": {
				"kind": "dev",
				"methods": {},
				"version": 1
			},
			"evm": {
				"assembly": "    /* \"CodeEater/visibility.sol\":513:579  contract C... */\n  mstore(0x40, 0x80)\n    /* \"CodeEater/visibility.sol\":538:545  new A() */\n  mload(0x40)\n  tag_1\n  swap1\n  tag_2\n  jump\t// in\ntag_1:\n  mload(0x40)\n  dup1\n  swap2\n  sub\n  swap1\n  0x00\n  create\n  dup1\n  iszero\n  dup1\n  iszero\n  tag_3\n  jumpi\n  returndatasize\n  0x00\n  dup1\n  returndatacopy\n  revert(0x00, returndatasize)\ntag_3:\n  pop\n    /* \"CodeEater/visibility.sol\":532:545  A obj=new A() */\n  0x00\n  dup1\n  0x0100\n  exp\n  dup2\n  sload\n  dup2\n  0xffffffffffffffffffffffffffffffffffffffff\n  mul\n  not\n  and\n  swap1\n  dup4\n  0xffffffffffffffffffffffffffffffffffffffff\n  and\n  mul\n  or\n  swap1\n  sstore\n  pop\n    /* \"CodeEater/visibility.sol\":567:570  obj */\n  0x00\n  dup1\n  sload\n  swap1\n  0x0100\n  exp\n  swap1\n  div\n  0xffffffffffffffffffffffffffffffffffffffff\n  and\n    /* \"CodeEater/visibility.sol\":567:573  obj.f4 */\n  0xffffffffffffffffffffffffffffffffffffffff\n  and\n  0xc3f90202\n    /* \"CodeEater/visibility.sol\":567:575  obj.f4() */\n  mload(0x40)\n  dup2\n  0xffffffff\n  and\n  0xe0\n  shl\n  dup2\n  mstore\n  0x04\n  add\n  0x20\n  mload(0x40)\n  dup1\n  dup4\n  sub\n  dup2\n  dup7\n  gas\n  staticcall\n  iszero\n  dup1\n  iszero\n  tag_5\n  jumpi\n  returndatasize\n  0x00\n  dup1\n  returndatacopy\n  revert(0x00, returndatasize)\ntag_5:\n  pop\n  pop\n  pop\n  pop\n  mload(0x40)\n  returndatasize\n  not(0x1f)\n  0x1f\n  dup3\n  add\n  and\n  dup3\n  add\n  dup1\n  0x40\n  mstore\n  pop\n  dup2\n  add\n  swap1\n  tag_6\n  swap2\n  swap1\n  tag_7\n  jump\t// in\ntag_6:\n    /* \"CodeEater/visibility.sol\":552:575  uint public cx=obj.f4() */\n  0x01\n  sstore\n    /* \"CodeEater/visibility.sol\":513:579  contract C... */\n  callvalue\n  dup1\n  iszero\n  tag_8\n  jumpi\n  0x00\n  dup1\n  revert\ntag_8:\n  pop\n  jump(tag_9)\ntag_2:\n  dataSize(sub_1)\n  dup1\n  dataOffset(sub_1)\n  dup4\n  codecopy\n  add\n  swap1\n  jump\t// out\n    /* \"#utility.yul\":88:205   */\ntag_11:\n    /* \"#utility.yul\":197:198   */\n  0x00\n    /* \"#utility.yul\":194:195   */\n  dup1\n    /* \"#utility.yul\":187:199   */\n  revert\n    /* \"#utility.yul\":334:411   */\ntag_13:\n    /* \"#utility.yul\":371:378   */\n  0x00\n    /* \"#utility.yul\":400:405   */\n  dup2\n    /* \"#utility.yul\":389:405   */\n  swap1\n  pop\n    /* \"#utility.yul\":334:411   */\n  swap2\n  swap1\n  pop\n  jump\t// out\n    /* \"#utility.yul\":417:539   */\ntag_14:\n    /* \"#utility.yul\":490:514   */\n  tag_22\n    /* \"#utility.yul\":508:513   */\n  dup2\n    /* \"#utility.yul\":490:514   */\n  tag_13\n  jump\t// in\ntag_22:\n    /* \"#utility.yul\":483:488   */\n  dup2\n    /* \"#utility.yul\":480:515   */\n  eq\n    /* \"#utility.yul\":470:533   */\n  tag_23\n  jumpi\n    /* \"#utility.yul\":529:530   */\n  0x00\n    /* \"#utility.yul\":526:527   */\n  dup1\n    /* \"#utility.yul\":519:531   */\n  revert\n    /* \"#utility.yul\":470:533   */\ntag_23:\n    /* \"#utility.yul\":417:539   */\n  pop\n  jump\t// out\n    /* \"#utility.yul\":545:688   */\ntag_15:\n    /* \"#utility.yul\":602:607   */\n  0x00\n    /* \"#utility.yul\":633:639   */\n  dup2\n    /* \"#utility.yul\":627:640   */\n  mload\n    /* \"#utility.yul\":618:640   */\n  swap1\n  pop\n    /* \"#utility.yul\":649:682   */\n  tag_25\n    /* \"#utility.yul\":676:681   */\n  dup2\n    /* \"#utility.yul\":649:682   */\n  tag_14\n  jump\t// in\ntag_25:\n    /* \"#utility.yul\":545:688   */\n  swap3\n  swap2\n  pop\n  pop\n  jump\t// out\n    /* \"#utility.yul\":694:1045   */\ntag_7:\n    /* \"#utility.yul\":764:770   */\n  0x00\n    /* \"#utility.yul\":813:815   */\n  0x20\n    /* \"#utility.yul\":801:810   */\n  dup3\n    /* \"#utility.yul\":792:799   */\n  dup5\n    /* \"#utility.yul\":788:811   */\n  sub\n    /* \"#utility.yul\":784:816   */\n  slt\n    /* \"#utility.yul\":781:900   */\n  iszero\n  tag_27\n  jumpi\n    /* \"#utility.yul\":819:898   */\n  tag_28\n  tag_11\n  jump\t// in\ntag_28:\n    /* \"#utility.yul\":781:900   */\ntag_27:\n    /* \"#utility.yul\":939:940   */\n  0x00\n    /* \"#utility.yul\":964:1028   */\n  tag_29\n    /* \"#utility.yul\":1020:1027   */\n  dup5\n    /* \"#utility.yul\":1011:1017   */\n  dup3\n    /* \"#utility.yul\":1000:1009   */\n  dup6\n    /* \"#utility.yul\":996:1018   */\n  add\n    /* \"#utility.yul\":964:1028   */\n  tag_15\n  jump\t// in\ntag_29:\n    /* \"#utility.yul\":954:1028   */\n  swap2\n  pop\n    /* \"#utility.yul\":910:1038   */\n  pop\n    /* \"#utility.yul\":694:1045   */\n  swap3\n  swap2\n  pop\n  pop\n  jump\t// out\n    /* \"CodeEater/visibility.sol\":513:579  contract C... */\ntag_9:\n  dataSize(sub_0)\n  dup1\n  dataOffset(sub_0)\n  0x00\n  codecopy\n  0x00\n  return\nstop\n\nsub_0: assembly {\n        /* \"CodeEater/visibility.sol\":513:579  contract C... */\n      mstore(0x40, 0x80)\n      callvalue\n      dup1\n      iszero\n      tag_1\n      jumpi\n      0x00\n      dup1\n      revert\n    tag_1:\n      pop\n      jumpi(tag_2, lt(calldatasize, 0x04))\n      shr(0xe0, calldataload(0x00))\n      dup1\n      0x21e6e640\n      eq\n      tag_3\n      jumpi\n    tag_2:\n      0x00\n      dup1\n      revert\n        /* \"CodeEater/visibility.sol\":552:575  uint public cx=obj.f4() */\n    tag_3:\n      tag_4\n      tag_5\n      jump\t// in\n    tag_4:\n      mload(0x40)\n      tag_6\n      swap2\n      swap1\n      tag_7\n      jump\t// in\n    tag_6:\n      mload(0x40)\n      dup1\n      swap2\n      sub\n      swap1\n      return\n    tag_5:\n      sload(0x01)\n      dup2\n      jump\t// out\n        /* \"#utility.yul\":7:84   */\n    tag_8:\n        /* \"#utility.yul\":44:51   */\n      0x00\n        /* \"#utility.yul\":73:78   */\n      dup2\n        /* \"#utility.yul\":62:78   */\n      swap1\n      pop\n        /* \"#utility.yul\":7:84   */\n      swap2\n      swap1\n      pop\n      jump\t// out\n        /* \"#utility.yul\":90:208   */\n    tag_9:\n        /* \"#utility.yul\":177:201   */\n      tag_13\n        /* \"#utility.yul\":195:200   */\n      dup2\n        /* \"#utility.yul\":177:201   */\n      tag_8\n      jump\t// in\n    tag_13:\n        /* \"#utility.yul\":172:175   */\n      dup3\n        /* \"#utility.yul\":165:202   */\n      mstore\n        /* \"#utility.yul\":90:208   */\n      pop\n      pop\n      jump\t// out\n        /* \"#utility.yul\":214:436   */\n    tag_7:\n        /* \"#utility.yul\":307:311   */\n      0x00\n        /* \"#utility.yul\":345:347   */\n      0x20\n        /* \"#utility.yul\":334:343   */\n      dup3\n        /* \"#utility.yul\":330:348   */\n      add\n        /* \"#utility.yul\":322:348   */\n      swap1\n      pop\n        /* \"#utility.yul\":358:429   */\n      tag_15\n        /* \"#utility.yul\":426:427   */\n      0x00\n        /* \"#utility.yul\":415:424   */\n      dup4\n        /* \"#utility.yul\":411:428   */\n      add\n        /* \"#utility.yul\":402:408   */\n      dup5\n        /* \"#utility.yul\":358:429   */\n      tag_9\n      jump\t// in\n    tag_15:\n        /* \"#utility.yul\":214:436   */\n      swap3\n      swap2\n      pop\n      pop\n      jump\t// out\n\n    auxdata: 0xa26469706673582212203af5ecdc18089c6067c334eacb23fc1fa5e1eb3c88149c9ca98e4c3c0b8b94ad64736f6c63430008120033\n}\n\nsub_1: assembly {\n        /* \"CodeEater/visibility.sol\":76:438  contract A... */\n      mstore(0x40, 0x80)\n      callvalue\n      dup1\n      iszero\n      tag_1\n      jumpi\n      0x00\n      dup1\n      revert\n    tag_1:\n      pop\n      dataSize(sub_0)\n      dup1\n      dataOffset(sub_0)\n      0x00\n      codecopy\n      0x00\n      return\n    stop\n\n    sub_0: assembly {\n            /* \"CodeEater/visibility.sol\":76:438  contract A... */\n          mstore(0x40, 0x80)\n          callvalue\n          dup1\n          iszero\n          tag_1\n          jumpi\n          0x00\n          dup1\n          revert\n        tag_1:\n          pop\n          jumpi(tag_2, lt(calldatasize, 0x04))\n          shr(0xe0, calldataload(0x00))\n          dup1\n          0xc27fc305\n          eq\n          tag_3\n          jumpi\n          dup1\n          0xc3f90202\n          eq\n          tag_4\n          jumpi\n        tag_2:\n          0x00\n          dup1\n          revert\n            /* \"CodeEater/visibility.sol\":95:167  function f1() public pure returns(uint)... */\n        tag_3:\n          tag_5\n          tag_6\n          jump\t// in\n        tag_5:\n          mload(0x40)\n          tag_7\n          swap2\n          swap1\n          tag_8\n          jump\t// in\n        tag_7:\n          mload(0x40)\n          dup1\n          swap2\n          sub\n          swap1\n          return\n            /* \"CodeEater/visibility.sol\":359:433  function f4() external pure returns(uint)... */\n        tag_4:\n          tag_9\n          tag_10\n          jump\t// in\n        tag_9:\n          mload(0x40)\n          tag_11\n          swap2\n          swap1\n          tag_8\n          jump\t// in\n        tag_11:\n          mload(0x40)\n          dup1\n          swap2\n          sub\n          swap1\n          return\n            /* \"CodeEater/visibility.sol\":95:167  function f1() public pure returns(uint)... */\n        tag_6:\n            /* \"CodeEater/visibility.sol\":129:133  uint */\n          0x00\n            /* \"CodeEater/visibility.sol\":158:159  1 */\n          0x01\n            /* \"CodeEater/visibility.sol\":151:159  return 1 */\n          swap1\n          pop\n            /* \"CodeEater/visibility.sol\":95:167  function f1() public pure returns(uint)... */\n          swap1\n          jump\t// out\n            /* \"CodeEater/visibility.sol\":359:433  function f4() external pure returns(uint)... */\n        tag_10:\n            /* \"CodeEater/visibility.sol\":395:399  uint */\n          0x00\n            /* \"CodeEater/visibility.sol\":424:425  4 */\n          0x04\n            /* \"CodeEater/visibility.sol\":417:425  return 4 */\n          swap1\n          pop\n            /* \"CodeEater/visibility.sol\":359:433  function f4() external pure returns(uint)... */\n          swap1\n          jump\t// out\n            /* \"#utility.yul\":7:84   */\n        tag_14:\n            /* \"#utility.yul\":44:51   */\n          0x00\n            /* \"#utility.yul\":73:78   */\n          dup2\n            /* \"#utility.yul\":62:78   */\n          swap1\n          pop\n            /* \"#utility.yul\":7:84   */\n          swap2\n          swap1\n          pop\n          jump\t// out\n            /* \"#utility.yul\":90:208   */\n        tag_15:\n            /* \"#utility.yul\":177:201   */\n          tag_19\n            /* \"#utility.yul\":195:200   */\n          dup2\n            /* \"#utility.yul\":177:201   */\n          tag_14\n          jump\t// in\n        tag_19:\n            /* \"#utility.yul\":172:175   */\n          dup3\n            /* \"#utility.yul\":165:202   */\n          mstore\n            /* \"#utility.yul\":90:208   */\n          pop\n          pop\n          jump\t// out\n            /* \"#utility.yul\":214:436   */\n        tag_8:\n            /* \"#utility.yul\":307:311   */\n          0x00\n            /* \"#utility.yul\":345:347   */\n          0x20\n            /* \"#utility.yul\":334:343   */\n          dup3\n            /* \"#utility.yul\":330:348   */\n          add\n            /* \"#utility.yul\":322:348   */\n          swap1\n          pop\n            /* \"#utility.yul\":358:429   */\n          tag_21\n            /* \"#utility.yul\":426:427   */\n          0x00\n            /* \"#utility.yul\":415:424   */\n          dup4\n            /* \"#utility.yul\":411:428   */\n          add\n            /* \"#utility.yul\":402:408   */\n          dup5\n            /* \"#utility.yul\":358:429   */\n          tag_15\n          jump\t// in\n        tag_21:\n            /* \"#utility.yul\":214:436   */\n          swap3\n          swap2\n          pop\n          pop\n          jump\t// out\n\n        auxdata: 0xa2646970667358221220ca3c82daad5fd69a8ea3dcbfbaefea74466027b1a71f8e4d737d53acd42c975164736f6c63430008120033\n    }\n}\n",
				"bytecode": {
					"linkReferences": {},
					"object": "608060405260405161001090610110565b604051809103906000f08015801561002c573d6000803e3d6000fd5b506000806101000a81548173ffffffffffffffffffffffffffffffffffffffff021916908373ffffffffffffffffffffffffffffffffffffffff16021790555060008054906101000a900473ffffffffffffffffffffffffffffffffffffffff1673ffffffffffffffffffffffffffffffffffffffff1663c3f902026040518163ffffffff1660e01b8152600401602060405180830381865afa1580156100d7573d6000803e3d6000fd5b505050506040513d601f19601f820116820180604052508101906100fb9190610158565b60015534801561010a57600080fd5b50610185565b6101028061024683390190565b600080fd5b6000819050919050565b61013581610122565b811461014057600080fd5b50565b6000815190506101528161012c565b92915050565b60006020828403121561016e5761016d61011d565b5b600061017c84828501610143565b91505092915050565b60b3806101936000396000f3fe6080604052348015600f57600080fd5b506004361060285760003560e01c806321e6e64014602d575b600080fd5b60336047565b604051603e91906064565b60405180910390f35b60015481565b6000819050919050565b605e81604d565b82525050565b6000602082019050607760008301846057565b9291505056fea26469706673582212203af5ecdc18089c6067c334eacb23fc1fa5e1eb3c88149c9ca98e4c3c0b8b94ad64736f6c63430008120033608060405234801561001057600080fd5b5060e38061001f6000396000f3fe6080604052348015600f57600080fd5b506004361060325760003560e01c8063c27fc305146037578063c3f90202146051575b600080fd5b603d606b565b604051604891906094565b60405180910390f35b60576074565b604051606291906094565b60405180910390f35b60006001905090565b60006004905090565b6000819050919050565b608e81607d565b82525050565b600060208201905060a760008301846087565b9291505056fea2646970667358221220ca3c82daad5fd69a8ea3dcbfbaefea74466027b1a71f8e4d737d53acd42c975164736f6c63430008120033",
					"opcodes": "PUSH1 0x80 PUSH1 0x40 MSTORE PUSH1 0x40 MLOAD PUSH2 0x10 SWAP1 PUSH2 0x110 JUMP JUMPDEST PUSH1 0x40 MLOAD DUP1 SWAP2 SUB SWAP1 PUSH1 0x0 CREATE DUP1 ISZERO DUP1 ISZERO PUSH2 0x2C JUMPI RETURNDATASIZE PUSH1 0x0 DUP1 RETURNDATACOPY RETURNDATASIZE PUSH1 0x0 REVERT JUMPDEST POP PUSH1 0x0 DUP1 PUSH2 0x100 EXP DUP2 SLOAD DUP2 PUSH20 0xFFFFFFFFFFFFFFFFFFFFFFFFFFFFFFFFFFFFFFFF MUL NOT AND SWAP1 DUP4 PUSH20 0xFFFFFFFFFFFFFFFFFFFFFFFFFFFFFFFFFFFFFFFF AND MUL OR SWAP1 SSTORE POP PUSH1 0x0 DUP1 SLOAD SWAP1 PUSH2 0x100 EXP SWAP1 DIV PUSH20 0xFFFFFFFFFFFFFFFFFFFFFFFFFFFFFFFFFFFFFFFF AND PUSH20 0xFFFFFFFFFFFFFFFFFFFFFFFFFFFFFFFFFFFFFFFF AND PUSH4 0xC3F90202 PUSH1 0x40 MLOAD DUP2 PUSH4 0xFFFFFFFF AND PUSH1 0xE0 SHL DUP2 MSTORE PUSH1 0x4 ADD PUSH1 0x20 PUSH1 0x40 MLOAD DUP1 DUP4 SUB DUP2 DUP7 GAS STATICCALL ISZERO DUP1 ISZERO PUSH2 0xD7 JUMPI RETURNDATASIZE PUSH1 0x0 DUP1 RETURNDATACOPY RETURNDATASIZE PUSH1 0x0 REVERT JUMPDEST POP POP POP POP PUSH1 0x40 MLOAD RETURNDATASIZE PUSH1 0x1F NOT PUSH1 0x1F DUP3 ADD AND DUP3 ADD DUP1 PUSH1 0x40 MSTORE POP DUP2 ADD SWAP1 PUSH2 0xFB SWAP2 SWAP1 PUSH2 0x158 JUMP JUMPDEST PUSH1 0x1 SSTORE CALLVALUE DUP1 ISZERO PUSH2 0x10A JUMPI PUSH1 0x0 DUP1 REVERT JUMPDEST POP PUSH2 0x185 JUMP JUMPDEST PUSH2 0x102 DUP1 PUSH2 0x246 DUP4 CODECOPY ADD SWAP1 JUMP JUMPDEST PUSH1 0x0 DUP1 REVERT JUMPDEST PUSH1 0x0 DUP2 SWAP1 POP SWAP2 SWAP1 POP JUMP JUMPDEST PUSH2 0x135 DUP2 PUSH2 0x122 JUMP JUMPDEST DUP2 EQ PUSH2 0x140 JUMPI PUSH1 0x0 DUP1 REVERT JUMPDEST POP JUMP JUMPDEST PUSH1 0x0 DUP2 MLOAD SWAP1 POP PUSH2 0x152 DUP2 PUSH2 0x12C JUMP JUMPDEST SWAP3 SWAP2 POP POP JUMP JUMPDEST PUSH1 0x0 PUSH1 0x20 DUP3 DUP5 SUB SLT ISZERO PUSH2 0x16E JUMPI PUSH2 0x16D PUSH2 0x11D JUMP JUMPDEST JUMPDEST PUSH1 0x0 PUSH2 0x17C DUP5 DUP3 DUP6 ADD PUSH2 0x143 JUMP JUMPDEST SWAP2 POP POP SWAP3 SWAP2 POP POP JUMP JUMPDEST PUSH1 0xB3 DUP1 PUSH2 0x193 PUSH1 0x0 CODECOPY PUSH1 0x0 RETURN INVALID PUSH1 0x80 PUSH1 0x40 MSTORE CALLVALUE DUP1 ISZERO PUSH1 0xF JUMPI PUSH1 0x0 DUP1 REVERT JUMPDEST POP PUSH1 0x4 CALLDATASIZE LT PUSH1 0x28 JUMPI PUSH1 0x0 CALLDATALOAD PUSH1 0xE0 SHR DUP1 PUSH4 0x21E6E640 EQ PUSH1 0x2D JUMPI JUMPDEST PUSH1 0x0 DUP1 REVERT JUMPDEST PUSH1 0x33 PUSH1 0x47 JUMP JUMPDEST PUSH1 0x40 MLOAD PUSH1 0x3E SWAP2 SWAP1 PUSH1 0x64 JUMP JUMPDEST PUSH1 0x40 MLOAD DUP1 SWAP2 SUB SWAP1 RETURN JUMPDEST PUSH1 0x1 SLOAD DUP2 JUMP JUMPDEST PUSH1 0x0 DUP2 SWAP1 POP SWAP2 SWAP1 POP JUMP JUMPDEST PUSH1 0x5E DUP2 PUSH1 0x4D JUMP JUMPDEST DUP3 MSTORE POP POP JUMP JUMPDEST PUSH1 0x0 PUSH1 0x20 DUP3 ADD SWAP1 POP PUSH1 0x77 PUSH1 0x0 DUP4 ADD DUP5 PUSH1 0x57 JUMP JUMPDEST SWAP3 SWAP2 POP POP JUMP INVALID LOG2 PUSH5 0x6970667358 0x22 SLT KECCAK256 GASPRICE CREATE2 0xEC 0xDC XOR ADDMOD SWAP13 PUSH1 0x67 0xC3 CALLVALUE 0xEA 0xCB 0x23 0xFC 0x1F 0xA5 0xE1 0xEB EXTCODECOPY DUP9 EQ SWAP13 SWAP13 0xA9 DUP15 0x4C EXTCODECOPY SIGNEXTEND DUP12 SWAP5 0xAD PUSH5 0x736F6C6343 STOP ADDMOD SLT STOP CALLER PUSH1 0x80 PUSH1 0x40 MSTORE CALLVALUE DUP1 ISZERO PUSH2 0x10 JUMPI PUSH1 0x0 DUP1 REVERT JUMPDEST POP PUSH1 0xE3 DUP1 PUSH2 0x1F PUSH1 0x0 CODECOPY PUSH1 0x0 RETURN INVALID PUSH1 0x80 PUSH1 0x40 MSTORE CALLVALUE DUP1 ISZERO PUSH1 0xF JUMPI PUSH1 0x0 DUP1 REVERT JUMPDEST POP PUSH1 0x4 CALLDATASIZE LT PUSH1 0x32 JUMPI PUSH1 0x0 CALLDATALOAD PUSH1 0xE0 SHR DUP1 PUSH4 0xC27FC305 EQ PUSH1 0x37 JUMPI DUP1 PUSH4 0xC3F90202 EQ PUSH1 0x51 JUMPI JUMPDEST PUSH1 0x0 DUP1 REVERT JUMPDEST PUSH1 0x3D PUSH1 0x6B JUMP JUMPDEST PUSH1 0x40 MLOAD PUSH1 0x48 SWAP2 SWAP1 PUSH1 0x94 JUMP JUMPDEST PUSH1 0x40 MLOAD DUP1 SWAP2 SUB SWAP1 RETURN JUMPDEST PUSH1 0x57 PUSH1 0x74 JUMP JUMPDEST PUSH1 0x40 MLOAD PUSH1 0x62 SWAP2 SWAP1 PUSH1 0x94 JUMP JUMPDEST PUSH1 0x40 MLOAD DUP1 SWAP2 SUB SWAP1 RETURN JUMPDEST PUSH1 0x0 PUSH1 0x1 SWAP1 POP SWAP1 JUMP JUMPDEST PUSH1 0x0 PUSH1 0x4 SWAP1 POP SWAP1 JUMP JUMPDEST PUSH1 0x0 DUP2 SWAP1 POP SWAP2 SWAP1 POP JUMP JUMPDEST PUSH1 0x8E DUP2 PUSH1 0x7D JUMP JUMPDEST DUP3 MSTORE POP POP JUMP JUMPDEST PUSH1 0x0 PUSH1 0x20 DUP3 ADD SWAP1 POP PUSH1 0xA7 PUSH1 0x0 DUP4 ADD DUP5 PUSH1 0x87 JUMP JUMPDEST SWAP3 SWAP2 POP POP JUMP INVALID LOG2 PUSH5 0x6970667358 0x22 SLT KECCAK256 0xCA EXTCODECOPY DUP3 0xDA 0xAD 0x5F 0xD6 SWAP11 DUP15 LOG3 0xDC 0xBF 0xBA 0xEF 0xEA PUSH21 0x466027B1A71F8E4D737D53ACD42C975164736F6C63 NUMBER STOP ADDMOD SLT STOP CALLER "
				},
				"gasEstimates": {
					"creation": {
						"codeDepositCost": "35800",
						"executionCost": "infinite",
						"totalCost": "infinite"
					},
					"external": {
						"cx()": "2407"
					}
				},
				"methodIdentifiers": {
					"cx()": "21e6e640"
				}
			},
			"storageLayout": {
				"storage": [
					{
						"astId": 48,
						"contract": "CodeEater/visibility.sol:C",
						"label": "obj",
						"offset": 0,
						"slot": "0",
						"type": "t_contract(A)34"
					},
					{
						"astId": 53,
						"contract": "CodeEater/visibility.sol:C",
						"label": "cx",
						"offset": 0,
						"slot": "1",
						"type": "t_uint256"
					}
				],
				"types": {
					"t_contract(A)34": {
						"encoding": "inplace",
						"label": "contract A",
						"numberOfBytes": "20"
					},
					"t_uint256": {
						"encoding": "inplace",
						"label": "uint256",
						"numberOfBytes": "32"
					}
				}
			},
			"userdoc": {
				"kind": "user",
				"methods": {},
				"version": 1
			}
		}
	}
}