{
	"CodeEater/dynamicbytearray.sol": {
		"Array": {
			"abi": [
				{
					"inputs": [],
					"name": "b1",
					"outputs": [
						{
							"internalType": "bytes",
							"name": "",
							"type": "bytes"
						}
					],
					"stateMutability": "view",
					"type": "function"
				},
				{
					"inputs": [
						{
							"internalType": "uint256",
							"name": "i",
							"type": "uint256"
						}
					],
					"name": "getElement",
					"outputs": [
						{
							"internalType": "bytes1",
							"name": "",
							"type": "bytes1"
						}
					],
					"stateMutability": "view",
					"type": "function"
				},
				{
					"inputs": [],
					"name": "getlength",
					"outputs": [
						{
							"internalType": "uint256",
							"name": "",
							"type": "uint256"
						}
					],
					"stateMutability": "view",
					"type": "function"
				},
				{
					"inputs": [],
					"name": "pushElement",
					"outputs": [],
					"stateMutability": "nonpayable",
					"type": "function"
				}
			],
			"devdoc": {
				"kind": "dev",
				"methods": {},
				"version": 1
			},
			"evm": {
				"assembly": "    /* \"CodeEater/dynamicbytearray.sol\":76:406  contract Array\r... */\n  mstore(0x40, 0x80)\n    /* \"CodeEater/dynamicbytearray.sol\":99:120  bytes public b1=\"abc\" */\n  mload(0x40)\n  dup1\n  0x40\n  add\n  0x40\n  mstore\n  dup1\n  0x03\n  dup2\n  mstore\n  0x20\n  add\n  0x6162630000000000000000000000000000000000000000000000000000000000\n  dup2\n  mstore\n  pop\n  0x00\n  swap1\n  dup1\n  mload\n  swap1\n  0x20\n  add\n  swap1\n  tag_1\n  swap3\n  swap2\n  swap1\n  tag_2\n  jump\t// in\ntag_1:\n  pop\n    /* \"CodeEater/dynamicbytearray.sol\":76:406  contract Array\r... */\n  callvalue\n  dup1\n  iszero\n  tag_3\n  jumpi\n  0x00\n  dup1\n  revert\ntag_3:\n  pop\n  jump(tag_4)\ntag_2:\n  dup3\n  dup1\n  sload\n  tag_5\n  swap1\n  tag_6\n  jump\t// in\ntag_5:\n  swap1\n  0x00\n  mstore\n  keccak256(0x00, 0x20)\n  swap1\n  0x1f\n  add\n  0x20\n  swap1\n  div\n  dup2\n  add\n  swap3\n  dup3\n  tag_8\n  jumpi\n  0x00\n  dup6\n  sstore\n  jump(tag_7)\ntag_8:\n  dup3\n  0x1f\n  lt\n  tag_9\n  jumpi\n  dup1\n  mload\n  not(0xff)\n  and\n  dup4\n  dup1\n  add\n  or\n  dup6\n  sstore\n  jump(tag_7)\ntag_9:\n  dup3\n  dup1\n  add\n  0x01\n  add\n  dup6\n  sstore\n  dup3\n  iszero\n  tag_7\n  jumpi\n  swap2\n  dup3\n  add\ntag_10:\n  dup3\n  dup2\n  gt\n  iszero\n  tag_11\n  jumpi\n  dup3\n  mload\n  dup3\n  sstore\n  swap2\n  0x20\n  add\n  swap2\n  swap1\n  0x01\n  add\n  swap1\n  jump(tag_10)\ntag_11:\ntag_7:\n  pop\n  swap1\n  pop\n  tag_12\n  swap2\n  swap1\n  tag_13\n  jump\t// in\ntag_12:\n  pop\n  swap1\n  jump\t// out\ntag_13:\ntag_14:\n  dup1\n  dup3\n  gt\n  iszero\n  tag_15\n  jumpi\n  0x00\n  dup2\n  0x00\n  swap1\n  sstore\n  pop\n  0x01\n  add\n  jump(tag_14)\ntag_15:\n  pop\n  swap1\n  jump\t// out\n    /* \"#utility.yul\":7:327   */\ntag_6:\n  0x00\n    /* \"#utility.yul\":88:89   */\n  0x02\n    /* \"#utility.yul\":82:86   */\n  dup3\n    /* \"#utility.yul\":78:90   */\n  div\n    /* \"#utility.yul\":68:90   */\n  swap1\n  pop\n    /* \"#utility.yul\":135:136   */\n  0x01\n    /* \"#utility.yul\":129:133   */\n  dup3\n    /* \"#utility.yul\":125:137   */\n  and\n    /* \"#utility.yul\":156:174   */\n  dup1\n    /* \"#utility.yul\":146:148   */\n  tag_18\n  jumpi\n    /* \"#utility.yul\":212:216   */\n  0x7f\n    /* \"#utility.yul\":204:210   */\n  dup3\n    /* \"#utility.yul\":200:217   */\n  and\n    /* \"#utility.yul\":190:217   */\n  swap2\n  pop\n    /* \"#utility.yul\":146:148   */\ntag_18:\n    /* \"#utility.yul\":274:276   */\n  0x20\n    /* \"#utility.yul\":266:272   */\n  dup3\n    /* \"#utility.yul\":263:277   */\n  lt\n    /* \"#utility.yul\":243:261   */\n  dup2\n    /* \"#utility.yul\":240:278   */\n  eq\n    /* \"#utility.yul\":237:239   */\n  iszero\n  tag_19\n  jumpi\n    /* \"#utility.yul\":293:311   */\n  tag_20\n  tag_21\n  jump\t// in\ntag_20:\n    /* \"#utility.yul\":237:239   */\ntag_19:\n    /* \"#utility.yul\":58:327   */\n  pop\n  swap2\n  swap1\n  pop\n  jump\t// out\n    /* \"#utility.yul\":333:513   */\ntag_21:\n    /* \"#utility.yul\":381:458   */\n  0x4e487b7100000000000000000000000000000000000000000000000000000000\n    /* \"#utility.yul\":378:379   */\n  0x00\n    /* \"#utility.yul\":371:459   */\n  mstore\n    /* \"#utility.yul\":478:482   */\n  0x22\n    /* \"#utility.yul\":475:476   */\n  0x04\n    /* \"#utility.yul\":468:483   */\n  mstore\n    /* \"#utility.yul\":502:506   */\n  0x24\n    /* \"#utility.yul\":499:500   */\n  0x00\n    /* \"#utility.yul\":492:507   */\n  revert\n    /* \"CodeEater/dynamicbytearray.sol\":76:406  contract Array\r... */\ntag_4:\n  dataSize(sub_0)\n  dup1\n  dataOffset(sub_0)\n  0x00\n  codecopy\n  0x00\n  return\nstop\n\nsub_0: assembly {\n        /* \"CodeEater/dynamicbytearray.sol\":76:406  contract Array\r... */\n      mstore(0x40, 0x80)\n      callvalue\n      dup1\n      iszero\n      tag_1\n      jumpi\n      0x00\n      dup1\n      revert\n    tag_1:\n      pop\n      jumpi(tag_2, lt(calldatasize, 0x04))\n      shr(0xe0, calldataload(0x00))\n      dup1\n      0x0317d5f3\n      eq\n      tag_3\n      jumpi\n      dup1\n      0x3a7d22bc\n      eq\n      tag_4\n      jumpi\n      dup1\n      0xa16d3598\n      eq\n      tag_5\n      jumpi\n      dup1\n      0xee495002\n      eq\n      tag_6\n      jumpi\n    tag_2:\n      0x00\n      dup1\n      revert\n        /* \"CodeEater/dynamicbytearray.sol\":145:212  function pushElement() public \r... */\n    tag_3:\n      tag_7\n      tag_8\n      jump\t// in\n    tag_7:\n      stop\n        /* \"CodeEater/dynamicbytearray.sol\":218:310  function getElement(uint i) public view returns(bytes1)\r... */\n    tag_4:\n      tag_9\n      0x04\n      dup1\n      calldatasize\n      sub\n      dup2\n      add\n      swap1\n      tag_10\n      swap2\n      swap1\n      tag_11\n      jump\t// in\n    tag_10:\n      tag_12\n      jump\t// in\n    tag_9:\n      mload(0x40)\n      tag_13\n      swap2\n      swap1\n      tag_14\n      jump\t// in\n    tag_13:\n      mload(0x40)\n      dup1\n      swap2\n      sub\n      swap1\n      return\n        /* \"CodeEater/dynamicbytearray.sol\":316:403  function getlength() public view returns(uint)\r... */\n    tag_5:\n      tag_15\n      tag_16\n      jump\t// in\n    tag_15:\n      mload(0x40)\n      tag_17\n      swap2\n      swap1\n      tag_18\n      jump\t// in\n    tag_17:\n      mload(0x40)\n      dup1\n      swap2\n      sub\n      swap1\n      return\n        /* \"CodeEater/dynamicbytearray.sol\":99:120  bytes public b1=\"abc\" */\n    tag_6:\n      tag_19\n      tag_20\n      jump\t// in\n    tag_19:\n      mload(0x40)\n      tag_21\n      swap2\n      swap1\n      tag_22\n      jump\t// in\n    tag_21:\n      mload(0x40)\n      dup1\n      swap2\n      sub\n      swap1\n      return\n        /* \"CodeEater/dynamicbytearray.sol\":145:212  function pushElement() public \r... */\n    tag_8:\n        /* \"CodeEater/dynamicbytearray.sol\":192:194  b1 */\n      0x00\n        /* \"CodeEater/dynamicbytearray.sol\":192:204  b1.push('d') */\n      dup1\n      dup1\n      sload\n      dup1\n      tag_24\n      swap1\n      tag_25\n      jump\t// in\n    tag_24:\n      dup1\n      0x1f\n      dup2\n      eq\n      tag_27\n      jumpi\n      jump(tag_26)\n    tag_27:\n      dup4\n      0x00\n      mstore\n      keccak256(0x00, 0x20)\n      not(0xff)\n      dup5\n      and\n      dup2\n      sstore\n      0x3f\n      swap4\n      pop\n      pop\n    tag_26:\n      pop\n      0x02\n      dup3\n      add\n      dup4\n      sstore\n      0x01\n      dup2\n      add\n      swap3\n      pop\n      pop\n      pop\n      0x01\n      swap1\n      sub\n      dup2\n      sload\n      0x01\n      and\n      iszero\n      tag_28\n      jumpi\n      swap1\n      0x00\n      mstore\n      keccak256(0x00, 0x20)\n      swap1\n      0x20\n      swap2\n      dup3\n      dup3\n      div\n      add\n      swap2\n      swap1\n      mod\n    tag_28:\n      0x6400000000000000000000000000000000000000000000000000000000000000\n      swap1\n      swap2\n      swap1\n      swap2\n      0x1f\n      sub\n      0x0100\n      exp\n      dup2\n      sload\n      dup2\n      0xff\n      mul\n      not\n      and\n      swap1\n      0x0100000000000000000000000000000000000000000000000000000000000000\n      dup5\n      div\n      mul\n      or\n      swap1\n      sstore\n      pop\n        /* \"CodeEater/dynamicbytearray.sol\":145:212  function pushElement() public \r... */\n      jump\t// out\n        /* \"CodeEater/dynamicbytearray.sol\":218:310  function getElement(uint i) public view returns(bytes1)\r... */\n    tag_12:\n        /* \"CodeEater/dynamicbytearray.sol\":266:272  bytes1 */\n      0x00\n        /* \"CodeEater/dynamicbytearray.sol\":297:299  b1 */\n      dup1\n        /* \"CodeEater/dynamicbytearray.sol\":300:301  i */\n      dup3\n        /* \"CodeEater/dynamicbytearray.sol\":297:302  b1[i] */\n      dup2\n      sload\n      tag_30\n      swap1\n      tag_25\n      jump\t// in\n    tag_30:\n      dup2\n      lt\n      tag_31\n      jumpi\n      mstore(0x00, 0x4e487b7100000000000000000000000000000000000000000000000000000000)\n      mstore(0x04, 0x32)\n      revert(0x00, 0x24)\n    tag_31:\n      dup2\n      sload\n      0x01\n      and\n      iszero\n      tag_32\n      jumpi\n      swap1\n      0x00\n      mstore\n      keccak256(0x00, 0x20)\n      swap1\n      0x20\n      swap2\n      dup3\n      dup3\n      div\n      add\n      swap2\n      swap1\n      mod\n    tag_32:\n      swap1\n      sload\n      swap1\n      byte\n      0x0100000000000000000000000000000000000000000000000000000000000000\n      mul\n        /* \"CodeEater/dynamicbytearray.sol\":290:302  return b1[i] */\n      swap1\n      pop\n        /* \"CodeEater/dynamicbytearray.sol\":218:310  function getElement(uint i) public view returns(bytes1)\r... */\n      swap2\n      swap1\n      pop\n      jump\t// out\n        /* \"CodeEater/dynamicbytearray.sol\":316:403  function getlength() public view returns(uint)\r... */\n    tag_16:\n        /* \"CodeEater/dynamicbytearray.sol\":357:361  uint */\n      0x00\n        /* \"CodeEater/dynamicbytearray.sol\":386:388  b1 */\n      dup1\n        /* \"CodeEater/dynamicbytearray.sol\":386:395  b1.length */\n      dup1\n      sload\n      tag_34\n      swap1\n      tag_25\n      jump\t// in\n    tag_34:\n      swap1\n      pop\n        /* \"CodeEater/dynamicbytearray.sol\":379:395  return b1.length */\n      swap1\n      pop\n        /* \"CodeEater/dynamicbytearray.sol\":316:403  function getlength() public view returns(uint)\r... */\n      swap1\n      jump\t// out\n        /* \"CodeEater/dynamicbytearray.sol\":99:120  bytes public b1=\"abc\" */\n    tag_20:\n      0x00\n      dup1\n      sload\n      tag_35\n      swap1\n      tag_25\n      jump\t// in\n    tag_35:\n      dup1\n      0x1f\n      add\n      0x20\n      dup1\n      swap2\n      div\n      mul\n      0x20\n      add\n      mload(0x40)\n      swap1\n      dup2\n      add\n      0x40\n      mstore\n      dup1\n      swap3\n      swap2\n      swap1\n      dup2\n      dup2\n      mstore\n      0x20\n      add\n      dup3\n      dup1\n      sload\n      tag_36\n      swap1\n      tag_25\n      jump\t// in\n    tag_36:\n      dup1\n      iszero\n      tag_37\n      jumpi\n      dup1\n      0x1f\n      lt\n      tag_38\n      jumpi\n      0x0100\n      dup1\n      dup4\n      sload\n      div\n      mul\n      dup4\n      mstore\n      swap2\n      0x20\n      add\n      swap2\n      jump(tag_37)\n    tag_38:\n      dup3\n      add\n      swap2\n      swap1\n      0x00\n      mstore\n      keccak256(0x00, 0x20)\n      swap1\n    tag_39:\n      dup2\n      sload\n      dup2\n      mstore\n      swap1\n      0x01\n      add\n      swap1\n      0x20\n      add\n      dup1\n      dup4\n      gt\n      tag_39\n      jumpi\n      dup3\n      swap1\n      sub\n      0x1f\n      and\n      dup3\n      add\n      swap2\n    tag_37:\n      pop\n      pop\n      pop\n      pop\n      pop\n      dup2\n      jump\t// out\n        /* \"#utility.yul\":7:146   */\n    tag_41:\n      0x00\n        /* \"#utility.yul\":91:97   */\n      dup2\n        /* \"#utility.yul\":78:98   */\n      calldataload\n        /* \"#utility.yul\":69:98   */\n      swap1\n      pop\n        /* \"#utility.yul\":107:140   */\n      tag_43\n        /* \"#utility.yul\":134:139   */\n      dup2\n        /* \"#utility.yul\":107:140   */\n      tag_44\n      jump\t// in\n    tag_43:\n        /* \"#utility.yul\":59:146   */\n      swap3\n      swap2\n      pop\n      pop\n      jump\t// out\n        /* \"#utility.yul\":152:414   */\n    tag_11:\n      0x00\n        /* \"#utility.yul\":260:262   */\n      0x20\n        /* \"#utility.yul\":248:257   */\n      dup3\n        /* \"#utility.yul\":239:246   */\n      dup5\n        /* \"#utility.yul\":235:258   */\n      sub\n        /* \"#utility.yul\":231:263   */\n      slt\n        /* \"#utility.yul\":228:230   */\n      iszero\n      tag_46\n      jumpi\n        /* \"#utility.yul\":276:277   */\n      0x00\n        /* \"#utility.yul\":273:274   */\n      dup1\n        /* \"#utility.yul\":266:278   */\n      revert\n        /* \"#utility.yul\":228:230   */\n    tag_46:\n        /* \"#utility.yul\":319:320   */\n      0x00\n        /* \"#utility.yul\":344:397   */\n      tag_47\n        /* \"#utility.yul\":389:396   */\n      dup5\n        /* \"#utility.yul\":380:386   */\n      dup3\n        /* \"#utility.yul\":369:378   */\n      dup6\n        /* \"#utility.yul\":365:387   */\n      add\n        /* \"#utility.yul\":344:397   */\n      tag_41\n      jump\t// in\n    tag_47:\n        /* \"#utility.yul\":334:397   */\n      swap2\n      pop\n        /* \"#utility.yul\":290:407   */\n      pop\n        /* \"#utility.yul\":218:414   */\n      swap3\n      swap2\n      pop\n      pop\n      jump\t// out\n        /* \"#utility.yul\":420:535   */\n    tag_48:\n        /* \"#utility.yul\":505:528   */\n      tag_50\n        /* \"#utility.yul\":522:527   */\n      dup2\n        /* \"#utility.yul\":505:528   */\n      tag_51\n      jump\t// in\n    tag_50:\n        /* \"#utility.yul\":500:503   */\n      dup3\n        /* \"#utility.yul\":493:529   */\n      mstore\n        /* \"#utility.yul\":483:535   */\n      pop\n      pop\n      jump\t// out\n        /* \"#utility.yul\":541:901   */\n    tag_52:\n      0x00\n        /* \"#utility.yul\":655:693   */\n      tag_54\n        /* \"#utility.yul\":687:692   */\n      dup3\n        /* \"#utility.yul\":655:693   */\n      tag_55\n      jump\t// in\n    tag_54:\n        /* \"#utility.yul\":709:779   */\n      tag_56\n        /* \"#utility.yul\":772:778   */\n      dup2\n        /* \"#utility.yul\":767:770   */\n      dup6\n        /* \"#utility.yul\":709:779   */\n      tag_57\n      jump\t// in\n    tag_56:\n        /* \"#utility.yul\":702:779   */\n      swap4\n      pop\n        /* \"#utility.yul\":788:840   */\n      tag_58\n        /* \"#utility.yul\":833:839   */\n      dup2\n        /* \"#utility.yul\":828:831   */\n      dup6\n        /* \"#utility.yul\":821:825   */\n      0x20\n        /* \"#utility.yul\":814:819   */\n      dup7\n        /* \"#utility.yul\":810:826   */\n      add\n        /* \"#utility.yul\":788:840   */\n      tag_59\n      jump\t// in\n    tag_58:\n        /* \"#utility.yul\":865:894   */\n      tag_60\n        /* \"#utility.yul\":887:893   */\n      dup2\n        /* \"#utility.yul\":865:894   */\n      tag_61\n      jump\t// in\n    tag_60:\n        /* \"#utility.yul\":860:863   */\n      dup5\n        /* \"#utility.yul\":856:895   */\n      add\n        /* \"#utility.yul\":849:895   */\n      swap2\n      pop\n        /* \"#utility.yul\":631:901   */\n      pop\n      swap3\n      swap2\n      pop\n      pop\n      jump\t// out\n        /* \"#utility.yul\":907:1025   */\n    tag_62:\n        /* \"#utility.yul\":994:1018   */\n      tag_64\n        /* \"#utility.yul\":1012:1017   */\n      dup2\n        /* \"#utility.yul\":994:1018   */\n      tag_65\n      jump\t// in\n    tag_64:\n        /* \"#utility.yul\":989:992   */\n      dup3\n        /* \"#utility.yul\":982:1019   */\n      mstore\n        /* \"#utility.yul\":972:1025   */\n      pop\n      pop\n      jump\t// out\n        /* \"#utility.yul\":1031:1249   */\n    tag_14:\n      0x00\n        /* \"#utility.yul\":1160:1162   */\n      0x20\n        /* \"#utility.yul\":1149:1158   */\n      dup3\n        /* \"#utility.yul\":1145:1163   */\n      add\n        /* \"#utility.yul\":1137:1163   */\n      swap1\n      pop\n        /* \"#utility.yul\":1173:1242   */\n      tag_67\n        /* \"#utility.yul\":1239:1240   */\n      0x00\n        /* \"#utility.yul\":1228:1237   */\n      dup4\n        /* \"#utility.yul\":1224:1241   */\n      add\n        /* \"#utility.yul\":1215:1221   */\n      dup5\n        /* \"#utility.yul\":1173:1242   */\n      tag_48\n      jump\t// in\n    tag_67:\n        /* \"#utility.yul\":1127:1249   */\n      swap3\n      swap2\n      pop\n      pop\n      jump\t// out\n        /* \"#utility.yul\":1255:1564   */\n    tag_22:\n      0x00\n        /* \"#utility.yul\":1404:1406   */\n      0x20\n        /* \"#utility.yul\":1393:1402   */\n      dup3\n        /* \"#utility.yul\":1389:1407   */\n      add\n        /* \"#utility.yul\":1381:1407   */\n      swap1\n      pop\n        /* \"#utility.yul\":1453:1462   */\n      dup2\n        /* \"#utility.yul\":1447:1451   */\n      dup2\n        /* \"#utility.yul\":1443:1463   */\n      sub\n        /* \"#utility.yul\":1439:1440   */\n      0x00\n        /* \"#utility.yul\":1428:1437   */\n      dup4\n        /* \"#utility.yul\":1424:1441   */\n      add\n        /* \"#utility.yul\":1417:1464   */\n      mstore\n        /* \"#utility.yul\":1481:1557   */\n      tag_69\n        /* \"#utility.yul\":1552:1556   */\n      dup2\n        /* \"#utility.yul\":1543:1549   */\n      dup5\n        /* \"#utility.yul\":1481:1557   */\n      tag_52\n      jump\t// in\n    tag_69:\n        /* \"#utility.yul\":1473:1557   */\n      swap1\n      pop\n        /* \"#utility.yul\":1371:1564   */\n      swap3\n      swap2\n      pop\n      pop\n      jump\t// out\n        /* \"#utility.yul\":1570:1792   */\n    tag_18:\n      0x00\n        /* \"#utility.yul\":1701:1703   */\n      0x20\n        /* \"#utility.yul\":1690:1699   */\n      dup3\n        /* \"#utility.yul\":1686:1704   */\n      add\n        /* \"#utility.yul\":1678:1704   */\n      swap1\n      pop\n        /* \"#utility.yul\":1714:1785   */\n      tag_71\n        /* \"#utility.yul\":1782:1783   */\n      0x00\n        /* \"#utility.yul\":1771:1780   */\n      dup4\n        /* \"#utility.yul\":1767:1784   */\n      add\n        /* \"#utility.yul\":1758:1764   */\n      dup5\n        /* \"#utility.yul\":1714:1785   */\n      tag_62\n      jump\t// in\n    tag_71:\n        /* \"#utility.yul\":1668:1792   */\n      swap3\n      swap2\n      pop\n      pop\n      jump\t// out\n        /* \"#utility.yul\":1798:1896   */\n    tag_55:\n      0x00\n        /* \"#utility.yul\":1883:1888   */\n      dup2\n        /* \"#utility.yul\":1877:1889   */\n      mload\n        /* \"#utility.yul\":1867:1889   */\n      swap1\n      pop\n        /* \"#utility.yul\":1856:1896   */\n      swap2\n      swap1\n      pop\n      jump\t// out\n        /* \"#utility.yul\":1902:2070   */\n    tag_57:\n      0x00\n        /* \"#utility.yul\":2019:2025   */\n      dup3\n        /* \"#utility.yul\":2014:2017   */\n      dup3\n        /* \"#utility.yul\":2007:2026   */\n      mstore\n        /* \"#utility.yul\":2059:2063   */\n      0x20\n        /* \"#utility.yul\":2054:2057   */\n      dup3\n        /* \"#utility.yul\":2050:2064   */\n      add\n        /* \"#utility.yul\":2035:2064   */\n      swap1\n      pop\n        /* \"#utility.yul\":1997:2070   */\n      swap3\n      swap2\n      pop\n      pop\n      jump\t// out\n        /* \"#utility.yul\":2076:2225   */\n    tag_51:\n      0x00\n        /* \"#utility.yul\":2152:2218   */\n      0xff00000000000000000000000000000000000000000000000000000000000000\n        /* \"#utility.yul\":2145:2150   */\n      dup3\n        /* \"#utility.yul\":2141:2219   */\n      and\n        /* \"#utility.yul\":2130:2219   */\n      swap1\n      pop\n        /* \"#utility.yul\":2120:2225   */\n      swap2\n      swap1\n      pop\n      jump\t// out\n        /* \"#utility.yul\":2231:2308   */\n    tag_65:\n      0x00\n        /* \"#utility.yul\":2297:2302   */\n      dup2\n        /* \"#utility.yul\":2286:2302   */\n      swap1\n      pop\n        /* \"#utility.yul\":2276:2308   */\n      swap2\n      swap1\n      pop\n      jump\t// out\n        /* \"#utility.yul\":2314:2621   */\n    tag_59:\n        /* \"#utility.yul\":2382:2383   */\n      0x00\n        /* \"#utility.yul\":2392:2505   */\n    tag_77:\n        /* \"#utility.yul\":2406:2412   */\n      dup4\n        /* \"#utility.yul\":2403:2404   */\n      dup2\n        /* \"#utility.yul\":2400:2413   */\n      lt\n        /* \"#utility.yul\":2392:2505   */\n      iszero\n      tag_79\n      jumpi\n        /* \"#utility.yul\":2491:2492   */\n      dup1\n        /* \"#utility.yul\":2486:2489   */\n      dup3\n        /* \"#utility.yul\":2482:2493   */\n      add\n        /* \"#utility.yul\":2476:2494   */\n      mload\n        /* \"#utility.yul\":2472:2473   */\n      dup2\n        /* \"#utility.yul\":2467:2470   */\n      dup5\n        /* \"#utility.yul\":2463:2474   */\n      add\n        /* \"#utility.yul\":2456:2495   */\n      mstore\n        /* \"#utility.yul\":2428:2430   */\n      0x20\n        /* \"#utility.yul\":2425:2426   */\n      dup2\n        /* \"#utility.yul\":2421:2431   */\n      add\n        /* \"#utility.yul\":2416:2431   */\n      swap1\n      pop\n        /* \"#utility.yul\":2392:2505   */\n      jump(tag_77)\n    tag_79:\n        /* \"#utility.yul\":2523:2529   */\n      dup4\n        /* \"#utility.yul\":2520:2521   */\n      dup2\n        /* \"#utility.yul\":2517:2530   */\n      gt\n        /* \"#utility.yul\":2514:2516   */\n      iszero\n      tag_80\n      jumpi\n        /* \"#utility.yul\":2603:2604   */\n      0x00\n        /* \"#utility.yul\":2594:2600   */\n      dup5\n        /* \"#utility.yul\":2589:2592   */\n      dup5\n        /* \"#utility.yul\":2585:2601   */\n      add\n        /* \"#utility.yul\":2578:2605   */\n      mstore\n        /* \"#utility.yul\":2514:2516   */\n    tag_80:\n        /* \"#utility.yul\":2363:2621   */\n      pop\n      pop\n      pop\n      pop\n      jump\t// out\n        /* \"#utility.yul\":2627:2947   */\n    tag_25:\n      0x00\n        /* \"#utility.yul\":2708:2709   */\n      0x02\n        /* \"#utility.yul\":2702:2706   */\n      dup3\n        /* \"#utility.yul\":2698:2710   */\n      div\n        /* \"#utility.yul\":2688:2710   */\n      swap1\n      pop\n        /* \"#utility.yul\":2755:2756   */\n      0x01\n        /* \"#utility.yul\":2749:2753   */\n      dup3\n        /* \"#utility.yul\":2745:2757   */\n      and\n        /* \"#utility.yul\":2776:2794   */\n      dup1\n        /* \"#utility.yul\":2766:2768   */\n      tag_82\n      jumpi\n        /* \"#utility.yul\":2832:2836   */\n      0x7f\n        /* \"#utility.yul\":2824:2830   */\n      dup3\n        /* \"#utility.yul\":2820:2837   */\n      and\n        /* \"#utility.yul\":2810:2837   */\n      swap2\n      pop\n        /* \"#utility.yul\":2766:2768   */\n    tag_82:\n        /* \"#utility.yul\":2894:2896   */\n      0x20\n        /* \"#utility.yul\":2886:2892   */\n      dup3\n        /* \"#utility.yul\":2883:2897   */\n      lt\n        /* \"#utility.yul\":2863:2881   */\n      dup2\n        /* \"#utility.yul\":2860:2898   */\n      eq\n        /* \"#utility.yul\":2857:2859   */\n      iszero\n      tag_83\n      jumpi\n        /* \"#utility.yul\":2913:2931   */\n      tag_84\n      tag_85\n      jump\t// in\n    tag_84:\n        /* \"#utility.yul\":2857:2859   */\n    tag_83:\n        /* \"#utility.yul\":2678:2947   */\n      pop\n      swap2\n      swap1\n      pop\n      jump\t// out\n        /* \"#utility.yul\":2953:3133   */\n    tag_85:\n        /* \"#utility.yul\":3001:3078   */\n      0x4e487b7100000000000000000000000000000000000000000000000000000000\n        /* \"#utility.yul\":2998:2999   */\n      0x00\n        /* \"#utility.yul\":2991:3079   */\n      mstore\n        /* \"#utility.yul\":3098:3102   */\n      0x22\n        /* \"#utility.yul\":3095:3096   */\n      0x04\n        /* \"#utility.yul\":3088:3103   */\n      mstore\n        /* \"#utility.yul\":3122:3126   */\n      0x24\n        /* \"#utility.yul\":3119:3120   */\n      0x00\n        /* \"#utility.yul\":3112:3127   */\n      revert\n        /* \"#utility.yul\":3139:3241   */\n    tag_61:\n      0x00\n        /* \"#utility.yul\":3231:3233   */\n      0x1f\n        /* \"#utility.yul\":3227:3234   */\n      not\n        /* \"#utility.yul\":3222:3224   */\n      0x1f\n        /* \"#utility.yul\":3215:3220   */\n      dup4\n        /* \"#utility.yul\":3211:3225   */\n      add\n        /* \"#utility.yul\":3207:3235   */\n      and\n        /* \"#utility.yul\":3197:3235   */\n      swap1\n      pop\n        /* \"#utility.yul\":3187:3241   */\n      swap2\n      swap1\n      pop\n      jump\t// out\n        /* \"#utility.yul\":3247:3369   */\n    tag_44:\n        /* \"#utility.yul\":3320:3344   */\n      tag_89\n        /* \"#utility.yul\":3338:3343   */\n      dup2\n        /* \"#utility.yul\":3320:3344   */\n      tag_65\n      jump\t// in\n    tag_89:\n        /* \"#utility.yul\":3313:3318   */\n      dup2\n        /* \"#utility.yul\":3310:3345   */\n      eq\n        /* \"#utility.yul\":3300:3302   */\n      tag_90\n      jumpi\n        /* \"#utility.yul\":3359:3360   */\n      0x00\n        /* \"#utility.yul\":3356:3357   */\n      dup1\n        /* \"#utility.yul\":3349:3361   */\n      revert\n        /* \"#utility.yul\":3300:3302   */\n    tag_90:\n        /* \"#utility.yul\":3290:3369   */\n      pop\n      jump\t// out\n\n    auxdata: 0xa2646970667358221220ace9d30a850b4e6bc990cf18bc657068abb61c961307155efa3c213ccdaf78aa64736f6c63430008000033\n}\n",
				"bytecode": {
					"linkReferences": {},
					"object": "60806040526040518060400160405280600381526020017f61626300000000000000000000000000000000000000000000000000000000008152506000908051906020019061004f929190610062565b5034801561005c57600080fd5b50610166565b82805461006e90610105565b90600052602060002090601f01602090048101928261009057600085556100d7565b82601f106100a957805160ff19168380011785556100d7565b828001600101855582156100d7579182015b828111156100d65782518255916020019190600101906100bb565b5b5090506100e491906100e8565b5090565b5b808211156101015760008160009055506001016100e9565b5090565b6000600282049050600182168061011d57607f821691505b6020821081141561013157610130610137565b5b50919050565b7f4e487b7100000000000000000000000000000000000000000000000000000000600052602260045260246000fd5b6104ef806101756000396000f3fe608060405234801561001057600080fd5b506004361061004c5760003560e01c80630317d5f3146100515780633a7d22bc1461005b578063a16d35981461008b578063ee495002146100a9575b600080fd5b6100596100c7565b005b610075600480360381019061007091906102d3565b61018b565b6040516100829190610353565b60405180910390f35b61009361021b565b6040516100a09190610390565b60405180910390f35b6100b1610230565b6040516100be919061036e565b60405180910390f35b6000808054806100d690610430565b80601f81146100e4576100fa565b83600052602060002060ff1984168155603f9350505b5060028201835560018101925050506001900381546001161561012c5790600052602060002090602091828204019190065b7f640000000000000000000000000000000000000000000000000000000000000090919091601f036101000a81548160ff021916907f010000000000000000000000000000000000000000000000000000000000000084040217905550565b60008082815461019a90610430565b81106101cf577f4e487b7100000000000000000000000000000000000000000000000000000000600052603260045260246000fd5b8154600116156101ee5790600052602060002090602091828204019190065b9054901a7f0100000000000000000000000000000000000000000000000000000000000000029050919050565b600080805461022990610430565b9050905090565b6000805461023d90610430565b80601f016020809104026020016040519081016040528092919081815260200182805461026990610430565b80156102b65780601f1061028b576101008083540402835291602001916102b6565b820191906000526020600020905b81548152906001019060200180831161029957829003601f168201915b505050505081565b6000813590506102cd816104a2565b92915050565b6000602082840312156102e557600080fd5b60006102f3848285016102be565b91505092915050565b610305816103c7565b82525050565b6000610316826103ab565b61032081856103b6565b93506103308185602086016103fd565b61033981610491565b840191505092915050565b61034d816103f3565b82525050565b600060208201905061036860008301846102fc565b92915050565b60006020820190508181036000830152610388818461030b565b905092915050565b60006020820190506103a56000830184610344565b92915050565b600081519050919050565b600082825260208201905092915050565b60007fff0000000000000000000000000000000000000000000000000000000000000082169050919050565b6000819050919050565b60005b8381101561041b578082015181840152602081019050610400565b8381111561042a576000848401525b50505050565b6000600282049050600182168061044857607f821691505b6020821081141561045c5761045b610462565b5b50919050565b7f4e487b7100000000000000000000000000000000000000000000000000000000600052602260045260246000fd5b6000601f19601f8301169050919050565b6104ab816103f3565b81146104b657600080fd5b5056fea2646970667358221220ace9d30a850b4e6bc990cf18bc657068abb61c961307155efa3c213ccdaf78aa64736f6c63430008000033",
					"opcodes": "PUSH1 0x80 PUSH1 0x40 MSTORE PUSH1 0x40 MLOAD DUP1 PUSH1 0x40 ADD PUSH1 0x40 MSTORE DUP1 PUSH1 0x3 DUP2 MSTORE PUSH1 0x20 ADD PUSH32 0x6162630000000000000000000000000000000000000000000000000000000000 DUP2 MSTORE POP PUSH1 0x0 SWAP1 DUP1 MLOAD SWAP1 PUSH1 0x20 ADD SWAP1 PUSH2 0x4F SWAP3 SWAP2 SWAP1 PUSH2 0x62 JUMP JUMPDEST POP CALLVALUE DUP1 ISZERO PUSH2 0x5C JUMPI PUSH1 0x0 DUP1 REVERT JUMPDEST POP PUSH2 0x166 JUMP JUMPDEST DUP3 DUP1 SLOAD PUSH2 0x6E SWAP1 PUSH2 0x105 JUMP JUMPDEST SWAP1 PUSH1 0x0 MSTORE PUSH1 0x20 PUSH1 0x0 KECCAK256 SWAP1 PUSH1 0x1F ADD PUSH1 0x20 SWAP1 DIV DUP2 ADD SWAP3 DUP3 PUSH2 0x90 JUMPI PUSH1 0x0 DUP6 SSTORE PUSH2 0xD7 JUMP JUMPDEST DUP3 PUSH1 0x1F LT PUSH2 0xA9 JUMPI DUP1 MLOAD PUSH1 0xFF NOT AND DUP4 DUP1 ADD OR DUP6 SSTORE PUSH2 0xD7 JUMP JUMPDEST DUP3 DUP1 ADD PUSH1 0x1 ADD DUP6 SSTORE DUP3 ISZERO PUSH2 0xD7 JUMPI SWAP2 DUP3 ADD JUMPDEST DUP3 DUP2 GT ISZERO PUSH2 0xD6 JUMPI DUP3 MLOAD DUP3 SSTORE SWAP2 PUSH1 0x20 ADD SWAP2 SWAP1 PUSH1 0x1 ADD SWAP1 PUSH2 0xBB JUMP JUMPDEST JUMPDEST POP SWAP1 POP PUSH2 0xE4 SWAP2 SWAP1 PUSH2 0xE8 JUMP JUMPDEST POP SWAP1 JUMP JUMPDEST JUMPDEST DUP1 DUP3 GT ISZERO PUSH2 0x101 JUMPI PUSH1 0x0 DUP2 PUSH1 0x0 SWAP1 SSTORE POP PUSH1 0x1 ADD PUSH2 0xE9 JUMP JUMPDEST POP SWAP1 JUMP JUMPDEST PUSH1 0x0 PUSH1 0x2 DUP3 DIV SWAP1 POP PUSH1 0x1 DUP3 AND DUP1 PUSH2 0x11D JUMPI PUSH1 0x7F DUP3 AND SWAP2 POP JUMPDEST PUSH1 0x20 DUP3 LT DUP2 EQ ISZERO PUSH2 0x131 JUMPI PUSH2 0x130 PUSH2 0x137 JUMP JUMPDEST JUMPDEST POP SWAP2 SWAP1 POP JUMP JUMPDEST PUSH32 0x4E487B7100000000000000000000000000000000000000000000000000000000 PUSH1 0x0 MSTORE PUSH1 0x22 PUSH1 0x4 MSTORE PUSH1 0x24 PUSH1 0x0 REVERT JUMPDEST PUSH2 0x4EF DUP1 PUSH2 0x175 PUSH1 0x0 CODECOPY PUSH1 0x0 RETURN INVALID PUSH1 0x80 PUSH1 0x40 MSTORE CALLVALUE DUP1 ISZERO PUSH2 0x10 JUMPI PUSH1 0x0 DUP1 REVERT JUMPDEST POP PUSH1 0x4 CALLDATASIZE LT PUSH2 0x4C JUMPI PUSH1 0x0 CALLDATALOAD PUSH1 0xE0 SHR DUP1 PUSH4 0x317D5F3 EQ PUSH2 0x51 JUMPI DUP1 PUSH4 0x3A7D22BC EQ PUSH2 0x5B JUMPI DUP1 PUSH4 0xA16D3598 EQ PUSH2 0x8B JUMPI DUP1 PUSH4 0xEE495002 EQ PUSH2 0xA9 JUMPI JUMPDEST PUSH1 0x0 DUP1 REVERT JUMPDEST PUSH2 0x59 PUSH2 0xC7 JUMP JUMPDEST STOP JUMPDEST PUSH2 0x75 PUSH1 0x4 DUP1 CALLDATASIZE SUB DUP2 ADD SWAP1 PUSH2 0x70 SWAP2 SWAP1 PUSH2 0x2D3 JUMP JUMPDEST PUSH2 0x18B JUMP JUMPDEST PUSH1 0x40 MLOAD PUSH2 0x82 SWAP2 SWAP1 PUSH2 0x353 JUMP JUMPDEST PUSH1 0x40 MLOAD DUP1 SWAP2 SUB SWAP1 RETURN JUMPDEST PUSH2 0x93 PUSH2 0x21B JUMP JUMPDEST PUSH1 0x40 MLOAD PUSH2 0xA0 SWAP2 SWAP1 PUSH2 0x390 JUMP JUMPDEST PUSH1 0x40 MLOAD DUP1 SWAP2 SUB SWAP1 RETURN JUMPDEST PUSH2 0xB1 PUSH2 0x230 JUMP JUMPDEST PUSH1 0x40 MLOAD PUSH2 0xBE SWAP2 SWAP1 PUSH2 0x36E JUMP JUMPDEST PUSH1 0x40 MLOAD DUP1 SWAP2 SUB SWAP1 RETURN JUMPDEST PUSH1 0x0 DUP1 DUP1 SLOAD DUP1 PUSH2 0xD6 SWAP1 PUSH2 0x430 JUMP JUMPDEST DUP1 PUSH1 0x1F DUP2 EQ PUSH2 0xE4 JUMPI PUSH2 0xFA JUMP JUMPDEST DUP4 PUSH1 0x0 MSTORE PUSH1 0x20 PUSH1 0x0 KECCAK256 PUSH1 0xFF NOT DUP5 AND DUP2 SSTORE PUSH1 0x3F SWAP4 POP POP JUMPDEST POP PUSH1 0x2 DUP3 ADD DUP4 SSTORE PUSH1 0x1 DUP2 ADD SWAP3 POP POP POP PUSH1 0x1 SWAP1 SUB DUP2 SLOAD PUSH1 0x1 AND ISZERO PUSH2 0x12C JUMPI SWAP1 PUSH1 0x0 MSTORE PUSH1 0x20 PUSH1 0x0 KECCAK256 SWAP1 PUSH1 0x20 SWAP2 DUP3 DUP3 DIV ADD SWAP2 SWAP1 MOD JUMPDEST PUSH32 0x6400000000000000000000000000000000000000000000000000000000000000 SWAP1 SWAP2 SWAP1 SWAP2 PUSH1 0x1F SUB PUSH2 0x100 EXP DUP2 SLOAD DUP2 PUSH1 0xFF MUL NOT AND SWAP1 PUSH32 0x100000000000000000000000000000000000000000000000000000000000000 DUP5 DIV MUL OR SWAP1 SSTORE POP JUMP JUMPDEST PUSH1 0x0 DUP1 DUP3 DUP2 SLOAD PUSH2 0x19A SWAP1 PUSH2 0x430 JUMP JUMPDEST DUP2 LT PUSH2 0x1CF JUMPI PUSH32 0x4E487B7100000000000000000000000000000000000000000000000000000000 PUSH1 0x0 MSTORE PUSH1 0x32 PUSH1 0x4 MSTORE PUSH1 0x24 PUSH1 0x0 REVERT JUMPDEST DUP2 SLOAD PUSH1 0x1 AND ISZERO PUSH2 0x1EE JUMPI SWAP1 PUSH1 0x0 MSTORE PUSH1 0x20 PUSH1 0x0 KECCAK256 SWAP1 PUSH1 0x20 SWAP2 DUP3 DUP3 DIV ADD SWAP2 SWAP1 MOD JUMPDEST SWAP1 SLOAD SWAP1 BYTE PUSH32 0x100000000000000000000000000000000000000000000000000000000000000 MUL SWAP1 POP SWAP2 SWAP1 POP JUMP JUMPDEST PUSH1 0x0 DUP1 DUP1 SLOAD PUSH2 0x229 SWAP1 PUSH2 0x430 JUMP JUMPDEST SWAP1 POP SWAP1 POP SWAP1 JUMP JUMPDEST PUSH1 0x0 DUP1 SLOAD PUSH2 0x23D SWAP1 PUSH2 0x430 JUMP JUMPDEST DUP1 PUSH1 0x1F ADD PUSH1 0x20 DUP1 SWAP2 DIV MUL PUSH1 0x20 ADD PUSH1 0x40 MLOAD SWAP1 DUP2 ADD PUSH1 0x40 MSTORE DUP1 SWAP3 SWAP2 SWAP1 DUP2 DUP2 MSTORE PUSH1 0x20 ADD DUP3 DUP1 SLOAD PUSH2 0x269 SWAP1 PUSH2 0x430 JUMP JUMPDEST DUP1 ISZERO PUSH2 0x2B6 JUMPI DUP1 PUSH1 0x1F LT PUSH2 0x28B JUMPI PUSH2 0x100 DUP1 DUP4 SLOAD DIV MUL DUP4 MSTORE SWAP2 PUSH1 0x20 ADD SWAP2 PUSH2 0x2B6 JUMP JUMPDEST DUP3 ADD SWAP2 SWAP1 PUSH1 0x0 MSTORE PUSH1 0x20 PUSH1 0x0 KECCAK256 SWAP1 JUMPDEST DUP2 SLOAD DUP2 MSTORE SWAP1 PUSH1 0x1 ADD SWAP1 PUSH1 0x20 ADD DUP1 DUP4 GT PUSH2 0x299 JUMPI DUP3 SWAP1 SUB PUSH1 0x1F AND DUP3 ADD SWAP2 JUMPDEST POP POP POP POP POP DUP2 JUMP JUMPDEST PUSH1 0x0 DUP2 CALLDATALOAD SWAP1 POP PUSH2 0x2CD DUP2 PUSH2 0x4A2 JUMP JUMPDEST SWAP3 SWAP2 POP POP JUMP JUMPDEST PUSH1 0x0 PUSH1 0x20 DUP3 DUP5 SUB SLT ISZERO PUSH2 0x2E5 JUMPI PUSH1 0x0 DUP1 REVERT JUMPDEST PUSH1 0x0 PUSH2 0x2F3 DUP5 DUP3 DUP6 ADD PUSH2 0x2BE JUMP JUMPDEST SWAP2 POP POP SWAP3 SWAP2 POP POP JUMP JUMPDEST PUSH2 0x305 DUP2 PUSH2 0x3C7 JUMP JUMPDEST DUP3 MSTORE POP POP JUMP JUMPDEST PUSH1 0x0 PUSH2 0x316 DUP3 PUSH2 0x3AB JUMP JUMPDEST PUSH2 0x320 DUP2 DUP6 PUSH2 0x3B6 JUMP JUMPDEST SWAP4 POP PUSH2 0x330 DUP2 DUP6 PUSH1 0x20 DUP7 ADD PUSH2 0x3FD JUMP JUMPDEST PUSH2 0x339 DUP2 PUSH2 0x491 JUMP JUMPDEST DUP5 ADD SWAP2 POP POP SWAP3 SWAP2 POP POP JUMP JUMPDEST PUSH2 0x34D DUP2 PUSH2 0x3F3 JUMP JUMPDEST DUP3 MSTORE POP POP JUMP JUMPDEST PUSH1 0x0 PUSH1 0x20 DUP3 ADD SWAP1 POP PUSH2 0x368 PUSH1 0x0 DUP4 ADD DUP5 PUSH2 0x2FC JUMP JUMPDEST SWAP3 SWAP2 POP POP JUMP JUMPDEST PUSH1 0x0 PUSH1 0x20 DUP3 ADD SWAP1 POP DUP2 DUP2 SUB PUSH1 0x0 DUP4 ADD MSTORE PUSH2 0x388 DUP2 DUP5 PUSH2 0x30B JUMP JUMPDEST SWAP1 POP SWAP3 SWAP2 POP POP JUMP JUMPDEST PUSH1 0x0 PUSH1 0x20 DUP3 ADD SWAP1 POP PUSH2 0x3A5 PUSH1 0x0 DUP4 ADD DUP5 PUSH2 0x344 JUMP JUMPDEST SWAP3 SWAP2 POP POP JUMP JUMPDEST PUSH1 0x0 DUP2 MLOAD SWAP1 POP SWAP2 SWAP1 POP JUMP JUMPDEST PUSH1 0x0 DUP3 DUP3 MSTORE PUSH1 0x20 DUP3 ADD SWAP1 POP SWAP3 SWAP2 POP POP JUMP JUMPDEST PUSH1 0x0 PUSH32 0xFF00000000000000000000000000000000000000000000000000000000000000 DUP3 AND SWAP1 POP SWAP2 SWAP1 POP JUMP JUMPDEST PUSH1 0x0 DUP2 SWAP1 POP SWAP2 SWAP1 POP JUMP JUMPDEST PUSH1 0x0 JUMPDEST DUP4 DUP2 LT ISZERO PUSH2 0x41B JUMPI DUP1 DUP3 ADD MLOAD DUP2 DUP5 ADD MSTORE PUSH1 0x20 DUP2 ADD SWAP1 POP PUSH2 0x400 JUMP JUMPDEST DUP4 DUP2 GT ISZERO PUSH2 0x42A JUMPI PUSH1 0x0 DUP5 DUP5 ADD MSTORE JUMPDEST POP POP POP POP JUMP JUMPDEST PUSH1 0x0 PUSH1 0x2 DUP3 DIV SWAP1 POP PUSH1 0x1 DUP3 AND DUP1 PUSH2 0x448 JUMPI PUSH1 0x7F DUP3 AND SWAP2 POP JUMPDEST PUSH1 0x20 DUP3 LT DUP2 EQ ISZERO PUSH2 0x45C JUMPI PUSH2 0x45B PUSH2 0x462 JUMP JUMPDEST JUMPDEST POP SWAP2 SWAP1 POP JUMP JUMPDEST PUSH32 0x4E487B7100000000000000000000000000000000000000000000000000000000 PUSH1 0x0 MSTORE PUSH1 0x22 PUSH1 0x4 MSTORE PUSH1 0x24 PUSH1 0x0 REVERT JUMPDEST PUSH1 0x0 PUSH1 0x1F NOT PUSH1 0x1F DUP4 ADD AND SWAP1 POP SWAP2 SWAP1 POP JUMP JUMPDEST PUSH2 0x4AB DUP2 PUSH2 0x3F3 JUMP JUMPDEST DUP2 EQ PUSH2 0x4B6 JUMPI PUSH1 0x0 DUP1 REVERT JUMPDEST POP JUMP INVALID LOG2 PUSH5 0x6970667358 0x22 SLT KECCAK256 0xAC 0xE9 0xD3 EXP DUP6 SIGNEXTEND 0x4E PUSH12 0xC990CF18BC657068ABB61C96 SGT SMOD ISZERO 0x5E STATICCALL EXTCODECOPY 0x21 EXTCODECOPY 0xCD 0xAF PUSH25 0xAA64736F6C6343000800003300000000000000000000000000 "
				},
				"gasEstimates": {
					"creation": {
						"codeDepositCost": "252600",
						"executionCost": "infinite",
						"totalCost": "infinite"
					},
					"external": {
						"b1()": "infinite",
						"getElement(uint256)": "3290",
						"getlength()": "1295",
						"pushElement()": "64598"
					}
				},
				"methodIdentifiers": {
					"b1()": "ee495002",
					"getElement(uint256)": "3a7d22bc",
					"getlength()": "a16d3598",
					"pushElement()": "0317d5f3"
				}
			},
			"storageLayout": {
				"storage": [
					{
						"astId": 4,
						"contract": "CodeEater/dynamicbytearray.sol:Array",
						"label": "b1",
						"offset": 0,
						"slot": "0",
						"type": "t_bytes_storage"
					}
				],
				"types": {
					"t_bytes_storage": {
						"encoding": "bytes",
						"label": "bytes",
						"numberOfBytes": "32"
					}
				}
			},
			"userdoc": {
				"kind": "user",
				"methods": {},
				"version": 1
			}
		}
	}
}