{
	"CodeEater/contract_balance.sol": {
		"pay": {
			"abi": [
				{
					"inputs": [],
					"name": "getBalance",
					"outputs": [
						{
							"internalType": "uint256",
							"name": "",
							"type": "uint256"
						}
					],
					"stateMutability": "view",
					"type": "function"
				},
				{
					"inputs": [],
					"name": "payEther",
					"outputs": [],
					"stateMutability": "payable",
					"type": "function"
				},
				{
					"inputs": [],
					"name": "sendEtherAccount",
					"outputs": [],
					"stateMutability": "nonpayable",
					"type": "function"
				}
			],
			"devdoc": {
				"kind": "dev",
				"methods": {},
				"version": 1
			},
			"evm": {
				"assembly": "    /* \"CodeEater/contract_balance.sol\":76:497  contract pay... */\n  mstore(0x40, 0x80)\n    /* \"CodeEater/contract_balance.sol\":126:168  0x17F6AD8Ef982297579C203069C1DbfFE4348c372 */\n  0x17f6ad8ef982297579c203069c1dbffe4348c372\n    /* \"CodeEater/contract_balance.sol\":97:169  address payable user=payable(0x17F6AD8Ef982297579C203069C1DbfFE4348c372) */\n  0x00\n  dup1\n  0x0100\n  exp\n  dup2\n  sload\n  dup2\n  0xffffffffffffffffffffffffffffffffffffffff\n  mul\n  not\n  and\n  swap1\n  dup4\n  0xffffffffffffffffffffffffffffffffffffffff\n  and\n  mul\n  or\n  swap1\n  sstore\n  pop\n    /* \"CodeEater/contract_balance.sol\":76:497  contract pay... */\n  callvalue\n  dup1\n  iszero\n  tag_1\n  jumpi\n  0x00\n  dup1\n  revert\ntag_1:\n  pop\n  dataSize(sub_0)\n  dup1\n  dataOffset(sub_0)\n  0x00\n  codecopy\n  0x00\n  return\nstop\n\nsub_0: assembly {\n        /* \"CodeEater/contract_balance.sol\":76:497  contract pay... */\n      mstore(0x40, 0x80)\n      jumpi(tag_1, lt(calldatasize, 0x04))\n      shr(0xe0, calldataload(0x00))\n      dup1\n      0x12065fe0\n      eq\n      tag_2\n      jumpi\n      dup1\n      0x990fce44\n      eq\n      tag_3\n      jumpi\n      dup1\n      0xf7474d00\n      eq\n      tag_4\n      jumpi\n    tag_1:\n      0x00\n      dup1\n      revert\n        /* \"CodeEater/contract_balance.sol\":233:333  function getBalance() public view returns(uint)... */\n    tag_2:\n      callvalue\n      dup1\n      iszero\n      tag_5\n      jumpi\n      0x00\n      dup1\n      revert\n    tag_5:\n      pop\n      tag_6\n      tag_7\n      jump\t// in\n    tag_6:\n      mload(0x40)\n      tag_8\n      swap2\n      swap1\n      tag_9\n      jump\t// in\n    tag_8:\n      mload(0x40)\n      dup1\n      swap2\n      sub\n      swap1\n      return\n        /* \"CodeEater/contract_balance.sol\":408:491  function sendEtherAccount() public ... */\n    tag_3:\n      callvalue\n      dup1\n      iszero\n      tag_10\n      jumpi\n      0x00\n      dup1\n      revert\n    tag_10:\n      pop\n      tag_11\n      tag_12\n      jump\t// in\n    tag_11:\n      stop\n        /* \"CodeEater/contract_balance.sol\":176:227  function payEther() public payable ... */\n    tag_4:\n      tag_13\n      tag_14\n      jump\t// in\n    tag_13:\n      stop\n        /* \"CodeEater/contract_balance.sol\":233:333  function getBalance() public view returns(uint)... */\n    tag_7:\n        /* \"CodeEater/contract_balance.sol\":275:279  uint */\n      0x00\n        /* \"CodeEater/contract_balance.sol\":304:325  address(this).balance */\n      selfbalance\n        /* \"CodeEater/contract_balance.sol\":297:325  return address(this).balance */\n      swap1\n      pop\n        /* \"CodeEater/contract_balance.sol\":233:333  function getBalance() public view returns(uint)... */\n      swap1\n      jump\t// out\n        /* \"CodeEater/contract_balance.sol\":408:491  function sendEtherAccount() public ... */\n    tag_12:\n        /* \"CodeEater/contract_balance.sol\":461:465  user */\n      0x00\n      dup1\n      sload\n      swap1\n      0x0100\n      exp\n      swap1\n      div\n      0xffffffffffffffffffffffffffffffffffffffff\n      and\n        /* \"CodeEater/contract_balance.sol\":461:474  user.transfer */\n      0xffffffffffffffffffffffffffffffffffffffff\n      and\n        /* \"CodeEater/contract_balance.sol\":461:483  user.transfer(1 ether) */\n      0x08fc\n        /* \"CodeEater/contract_balance.sol\":475:482  1 ether */\n      0x0de0b6b3a7640000\n        /* \"CodeEater/contract_balance.sol\":461:483  user.transfer(1 ether) */\n      swap1\n      dup2\n      iszero\n      mul\n      swap1\n      mload(0x40)\n      0x00\n      mload(0x40)\n      dup1\n      dup4\n      sub\n      dup2\n      dup6\n      dup9\n      dup9\n      call\n      swap4\n      pop\n      pop\n      pop\n      pop\n      iszero\n      dup1\n      iszero\n      tag_18\n      jumpi\n      returndatasize\n      0x00\n      dup1\n      returndatacopy\n      revert(0x00, returndatasize)\n    tag_18:\n      pop\n        /* \"CodeEater/contract_balance.sol\":408:491  function sendEtherAccount() public ... */\n      jump\t// out\n        /* \"CodeEater/contract_balance.sol\":176:227  function payEther() public payable ... */\n    tag_14:\n      jump\t// out\n        /* \"#utility.yul\":7:84   */\n    tag_20:\n        /* \"#utility.yul\":44:51   */\n      0x00\n        /* \"#utility.yul\":73:78   */\n      dup2\n        /* \"#utility.yul\":62:78   */\n      swap1\n      pop\n        /* \"#utility.yul\":7:84   */\n      swap2\n      swap1\n      pop\n      jump\t// out\n        /* \"#utility.yul\":90:208   */\n    tag_21:\n        /* \"#utility.yul\":177:201   */\n      tag_25\n        /* \"#utility.yul\":195:200   */\n      dup2\n        /* \"#utility.yul\":177:201   */\n      tag_20\n      jump\t// in\n    tag_25:\n        /* \"#utility.yul\":172:175   */\n      dup3\n        /* \"#utility.yul\":165:202   */\n      mstore\n        /* \"#utility.yul\":90:208   */\n      pop\n      pop\n      jump\t// out\n        /* \"#utility.yul\":214:436   */\n    tag_9:\n        /* \"#utility.yul\":307:311   */\n      0x00\n        /* \"#utility.yul\":345:347   */\n      0x20\n        /* \"#utility.yul\":334:343   */\n      dup3\n        /* \"#utility.yul\":330:348   */\n      add\n        /* \"#utility.yul\":322:348   */\n      swap1\n      pop\n        /* \"#utility.yul\":358:429   */\n      tag_27\n        /* \"#utility.yul\":426:427   */\n      0x00\n        /* \"#utility.yul\":415:424   */\n      dup4\n        /* \"#utility.yul\":411:428   */\n      add\n        /* \"#utility.yul\":402:408   */\n      dup5\n        /* \"#utility.yul\":358:429   */\n      tag_21\n      jump\t// in\n    tag_27:\n        /* \"#utility.yul\":214:436   */\n      swap3\n      swap2\n      pop\n      pop\n      jump\t// out\n\n    auxdata: 0xa26469706673582212202349e90ed4d094e42e17d6144fc10442d71c265b99e58c557e2efb48dc9c11f464736f6c63430008120033\n}\n",
				"bytecode": {
					"linkReferences": {},
					"object": "60806040527317f6ad8ef982297579c203069c1dbffe4348c3726000806101000a81548173ffffffffffffffffffffffffffffffffffffffff021916908373ffffffffffffffffffffffffffffffffffffffff16021790555034801561006457600080fd5b5061016a806100746000396000f3fe6080604052600436106100345760003560e01c806312065fe014610039578063990fce4414610064578063f7474d001461007b575b600080fd5b34801561004557600080fd5b5061004e610085565b60405161005b9190610119565b60405180910390f35b34801561007057600080fd5b5061007961008d565b005b6100836100fe565b005b600047905090565b60008054906101000a900473ffffffffffffffffffffffffffffffffffffffff1673ffffffffffffffffffffffffffffffffffffffff166108fc670de0b6b3a76400009081150290604051600060405180830381858888f193505050501580156100fb573d6000803e3d6000fd5b50565b565b6000819050919050565b61011381610100565b82525050565b600060208201905061012e600083018461010a565b9291505056fea26469706673582212202349e90ed4d094e42e17d6144fc10442d71c265b99e58c557e2efb48dc9c11f464736f6c63430008120033",
					"opcodes": "PUSH1 0x80 PUSH1 0x40 MSTORE PUSH20 0x17F6AD8EF982297579C203069C1DBFFE4348C372 PUSH1 0x0 DUP1 PUSH2 0x100 EXP DUP2 SLOAD DUP2 PUSH20 0xFFFFFFFFFFFFFFFFFFFFFFFFFFFFFFFFFFFFFFFF MUL NOT AND SWAP1 DUP4 PUSH20 0xFFFFFFFFFFFFFFFFFFFFFFFFFFFFFFFFFFFFFFFF AND MUL OR SWAP1 SSTORE POP CALLVALUE DUP1 ISZERO PUSH2 0x64 JUMPI PUSH1 0x0 DUP1 REVERT JUMPDEST POP PUSH2 0x16A DUP1 PUSH2 0x74 PUSH1 0x0 CODECOPY PUSH1 0x0 RETURN INVALID PUSH1 0x80 PUSH1 0x40 MSTORE PUSH1 0x4 CALLDATASIZE LT PUSH2 0x34 JUMPI PUSH1 0x0 CALLDATALOAD PUSH1 0xE0 SHR DUP1 PUSH4 0x12065FE0 EQ PUSH2 0x39 JUMPI DUP1 PUSH4 0x990FCE44 EQ PUSH2 0x64 JUMPI DUP1 PUSH4 0xF7474D00 EQ PUSH2 0x7B JUMPI JUMPDEST PUSH1 0x0 DUP1 REVERT JUMPDEST CALLVALUE DUP1 ISZERO PUSH2 0x45 JUMPI PUSH1 0x0 DUP1 REVERT JUMPDEST POP PUSH2 0x4E PUSH2 0x85 JUMP JUMPDEST PUSH1 0x40 MLOAD PUSH2 0x5B SWAP2 SWAP1 PUSH2 0x119 JUMP JUMPDEST PUSH1 0x40 MLOAD DUP1 SWAP2 SUB SWAP1 RETURN JUMPDEST CALLVALUE DUP1 ISZERO PUSH2 0x70 JUMPI PUSH1 0x0 DUP1 REVERT JUMPDEST POP PUSH2 0x79 PUSH2 0x8D JUMP JUMPDEST STOP JUMPDEST PUSH2 0x83 PUSH2 0xFE JUMP JUMPDEST STOP JUMPDEST PUSH1 0x0 SELFBALANCE SWAP1 POP SWAP1 JUMP JUMPDEST PUSH1 0x0 DUP1 SLOAD SWAP1 PUSH2 0x100 EXP SWAP1 DIV PUSH20 0xFFFFFFFFFFFFFFFFFFFFFFFFFFFFFFFFFFFFFFFF AND PUSH20 0xFFFFFFFFFFFFFFFFFFFFFFFFFFFFFFFFFFFFFFFF AND PUSH2 0x8FC PUSH8 0xDE0B6B3A7640000 SWAP1 DUP2 ISZERO MUL SWAP1 PUSH1 0x40 MLOAD PUSH1 0x0 PUSH1 0x40 MLOAD DUP1 DUP4 SUB DUP2 DUP6 DUP9 DUP9 CALL SWAP4 POP POP POP POP ISZERO DUP1 ISZERO PUSH2 0xFB JUMPI RETURNDATASIZE PUSH1 0x0 DUP1 RETURNDATACOPY RETURNDATASIZE PUSH1 0x0 REVERT JUMPDEST POP JUMP JUMPDEST JUMP JUMPDEST PUSH1 0x0 DUP2 SWAP1 POP SWAP2 SWAP1 POP JUMP JUMPDEST PUSH2 0x113 DUP2 PUSH2 0x100 JUMP JUMPDEST DUP3 MSTORE POP POP JUMP JUMPDEST PUSH1 0x0 PUSH1 0x20 DUP3 ADD SWAP1 POP PUSH2 0x12E PUSH1 0x0 DUP4 ADD DUP5 PUSH2 0x10A JUMP JUMPDEST SWAP3 SWAP2 POP POP JUMP INVALID LOG2 PUSH5 0x6970667358 0x22 SLT KECCAK256 0x23 0x49 0xE9 0xE 0xD4 0xD0 SWAP5 0xE4 0x2E OR 0xD6 EQ 0x4F 0xC1 DIV TIMESTAMP 0xD7 SHR 0x26 JUMPDEST SWAP10 0xE5 DUP13 SSTORE PUSH31 0x2EFB48DC9C11F464736F6C6343000812003300000000000000000000000000 "
				},
				"gasEstimates": {
					"creation": {
						"codeDepositCost": "72400",
						"executionCost": "24390",
						"totalCost": "96790"
					},
					"external": {
						"getBalance()": "317",
						"payEther()": "142",
						"sendEtherAccount()": "infinite"
					}
				},
				"methodIdentifiers": {
					"getBalance()": "12065fe0",
					"payEther()": "f7474d00",
					"sendEtherAccount()": "990fce44"
				}
			},
			"storageLayout": {
				"storage": [
					{
						"astId": 7,
						"contract": "CodeEater/contract_balance.sol:pay",
						"label": "user",
						"offset": 0,
						"slot": "0",
						"type": "t_address_payable"
					}
				],
				"types": {
					"t_address_payable": {
						"encoding": "inplace",
						"label": "address payable",
						"numberOfBytes": "20"
					}
				}
			},
			"userdoc": {
				"kind": "user",
				"methods": {},
				"version": 1
			}
		}
	}
}