{
	"CodeEater/enum.sol": {
		"eenum": {
			"abi": [
				{
					"inputs": [],
					"name": "changeOwner",
					"outputs": [],
					"stateMutability": "nonpayable",
					"type": "function"
				},
				{
					"inputs": [],
					"name": "lottery",
					"outputs": [
						{
							"internalType": "uint256",
							"name": "",
							"type": "uint256"
						}
					],
					"stateMutability": "view",
					"type": "function"
				},
				{
					"inputs": [],
					"name": "owner",
					"outputs": [],
					"stateMutability": "nonpayable",
					"type": "function"
				},
				{
					"inputs": [],
					"name": "u1",
					"outputs": [
						{
							"internalType": "enum eenum.user",
							"name": "",
							"type": "uint8"
						}
					],
					"stateMutability": "view",
					"type": "function"
				},
				{
					"inputs": [],
					"name": "u2",
					"outputs": [
						{
							"internalType": "enum eenum.user",
							"name": "",
							"type": "uint8"
						}
					],
					"stateMutability": "view",
					"type": "function"
				},
				{
					"inputs": [],
					"name": "u3",
					"outputs": [
						{
							"internalType": "enum eenum.user",
							"name": "",
							"type": "uint8"
						}
					],
					"stateMutability": "view",
					"type": "function"
				}
			],
			"devdoc": {
				"kind": "dev",
				"methods": {},
				"version": 1
			},
			"evm": {
				"assembly": "    /* \"CodeEater/enum.sol\":76:549  contract eenum... */\n  mstore(0x40, 0x80)\n    /* \"CodeEater/enum.sol\":159:171  user.allowed */\n  0x00\n    /* \"CodeEater/enum.sol\":144:171  user public u1=user.allowed */\n  dup1\n  exp(0x0100, 0x00)\n  dup2\n  sload\n  dup2\n  0xff\n  mul\n  not\n  and\n  swap1\n  dup4\n  0x02\n  dup2\n  gt\n  iszero\n  tag_1\n  jumpi\n  tag_2\n  tag_3\n  jump\t// in\ntag_2:\ntag_1:\n  mul\n  or\n  swap1\n  sstore\n  pop\n    /* \"CodeEater/enum.sol\":193:209  user.not_allowed */\n  0x01\n    /* \"CodeEater/enum.sol\":178:209  user public u2=user.not_allowed */\n  0x00\n  exp(0x0100, 0x01)\n  dup2\n  sload\n  dup2\n  0xff\n  mul\n  not\n  and\n  swap1\n  dup4\n  0x02\n  dup2\n  gt\n  iszero\n  tag_4\n  jumpi\n  tag_5\n  tag_3\n  jump\t// in\ntag_5:\ntag_4:\n  mul\n  or\n  swap1\n  sstore\n  pop\n    /* \"CodeEater/enum.sol\":231:240  user.wait */\n  0x02\n    /* \"CodeEater/enum.sol\":216:240  user public u3=user.wait */\n  0x00\n  exp(0x0100, 0x02)\n  dup2\n  sload\n  dup2\n  0xff\n  mul\n  not\n  and\n  swap1\n  dup4\n  0x02\n  dup2\n  gt\n  iszero\n  tag_6\n  jumpi\n  tag_7\n  tag_3\n  jump\t// in\ntag_7:\ntag_6:\n  mul\n  or\n  swap1\n  sstore\n  pop\n    /* \"CodeEater/enum.sol\":348:352  1000 */\n  0x03e8\n    /* \"CodeEater/enum.sol\":328:352  uint public lottery=1000 */\n  0x01\n  sstore\n    /* \"CodeEater/enum.sol\":76:549  contract eenum... */\n  callvalue\n  dup1\n  iszero\n  tag_8\n  jumpi\n  0x00\n  dup1\n  revert\ntag_8:\n  pop\n  jump(tag_9)\n    /* \"#utility.yul\":7:187   */\ntag_3:\n    /* \"#utility.yul\":55:132   */\n  0x4e487b7100000000000000000000000000000000000000000000000000000000\n    /* \"#utility.yul\":52:53   */\n  0x00\n    /* \"#utility.yul\":45:133   */\n  mstore\n    /* \"#utility.yul\":152:156   */\n  0x21\n    /* \"#utility.yul\":149:150   */\n  0x04\n    /* \"#utility.yul\":142:157   */\n  mstore\n    /* \"#utility.yul\":176:180   */\n  0x24\n    /* \"#utility.yul\":173:174   */\n  0x00\n    /* \"#utility.yul\":166:181   */\n  revert\n    /* \"CodeEater/enum.sol\":76:549  contract eenum... */\ntag_9:\n  dataSize(sub_0)\n  dup1\n  dataOffset(sub_0)\n  0x00\n  codecopy\n  0x00\n  return\nstop\n\nsub_0: assembly {\n        /* \"CodeEater/enum.sol\":76:549  contract eenum... */\n      mstore(0x40, 0x80)\n      callvalue\n      dup1\n      iszero\n      tag_1\n      jumpi\n      0x00\n      dup1\n      revert\n    tag_1:\n      pop\n      jumpi(tag_2, lt(calldatasize, 0x04))\n      shr(0xe0, calldataload(0x00))\n      dup1\n      0x1aa35610\n      eq\n      tag_3\n      jumpi\n      dup1\n      0x62a09477\n      eq\n      tag_4\n      jumpi\n      dup1\n      0x75da9f76\n      eq\n      tag_5\n      jumpi\n      dup1\n      0x8424c8d8\n      eq\n      tag_6\n      jumpi\n      dup1\n      0x8da5cb5b\n      eq\n      tag_7\n      jumpi\n      dup1\n      0xba13a572\n      eq\n      tag_8\n      jumpi\n    tag_2:\n      0x00\n      dup1\n      revert\n        /* \"CodeEater/enum.sol\":144:171  user public u1=user.allowed */\n    tag_3:\n      tag_9\n      tag_10\n      jump\t// in\n    tag_9:\n      mload(0x40)\n      tag_11\n      swap2\n      swap1\n      tag_12\n      jump\t// in\n    tag_11:\n      mload(0x40)\n      dup1\n      swap2\n      sub\n      swap1\n      return\n        /* \"CodeEater/enum.sol\":476:544  function changeOwner() public {... */\n    tag_4:\n      tag_13\n      tag_14\n      jump\t// in\n    tag_13:\n      stop\n        /* \"CodeEater/enum.sol\":178:209  user public u2=user.not_allowed */\n    tag_5:\n      tag_15\n      tag_16\n      jump\t// in\n    tag_15:\n      mload(0x40)\n      tag_17\n      swap2\n      swap1\n      tag_12\n      jump\t// in\n    tag_17:\n      mload(0x40)\n      dup1\n      swap2\n      sub\n      swap1\n      return\n        /* \"CodeEater/enum.sol\":216:240  user public u3=user.wait */\n    tag_6:\n      tag_18\n      tag_19\n      jump\t// in\n    tag_18:\n      mload(0x40)\n      tag_20\n      swap2\n      swap1\n      tag_12\n      jump\t// in\n    tag_20:\n      mload(0x40)\n      dup1\n      swap2\n      sub\n      swap1\n      return\n        /* \"CodeEater/enum.sol\":359:468  function owner() public {... */\n    tag_7:\n      tag_21\n      tag_22\n      jump\t// in\n    tag_21:\n      stop\n        /* \"CodeEater/enum.sol\":328:352  uint public lottery=1000 */\n    tag_8:\n      tag_23\n      tag_24\n      jump\t// in\n    tag_23:\n      mload(0x40)\n      tag_25\n      swap2\n      swap1\n      tag_26\n      jump\t// in\n    tag_25:\n      mload(0x40)\n      dup1\n      swap2\n      sub\n      swap1\n      return\n        /* \"CodeEater/enum.sol\":144:171  user public u1=user.allowed */\n    tag_10:\n      0x00\n      dup1\n      sload\n      swap1\n      0x0100\n      exp\n      swap1\n      div\n      0xff\n      and\n      dup2\n      jump\t// out\n        /* \"CodeEater/enum.sol\":476:544  function changeOwner() public {... */\n    tag_14:\n        /* \"CodeEater/enum.sol\":520:536  user.not_allowed */\n      0x01\n        /* \"CodeEater/enum.sol\":517:519  u1 */\n      0x00\n      dup1\n        /* \"CodeEater/enum.sol\":517:536  u1=user.not_allowed */\n      0x0100\n      exp\n      dup2\n      sload\n      dup2\n      0xff\n      mul\n      not\n      and\n      swap1\n      dup4\n      0x02\n      dup2\n      gt\n      iszero\n      tag_28\n      jumpi\n      tag_29\n      tag_30\n      jump\t// in\n    tag_29:\n    tag_28:\n      mul\n      or\n      swap1\n      sstore\n      pop\n        /* \"CodeEater/enum.sol\":476:544  function changeOwner() public {... */\n      jump\t// out\n        /* \"CodeEater/enum.sol\":178:209  user public u2=user.not_allowed */\n    tag_16:\n      0x00\n      0x01\n      swap1\n      sload\n      swap1\n      0x0100\n      exp\n      swap1\n      div\n      0xff\n      and\n      dup2\n      jump\t// out\n        /* \"CodeEater/enum.sol\":216:240  user public u3=user.wait */\n    tag_19:\n      0x00\n      0x02\n      swap1\n      sload\n      swap1\n      0x0100\n      exp\n      swap1\n      div\n      0xff\n      and\n      dup2\n      jump\t// out\n        /* \"CodeEater/enum.sol\":359:468  function owner() public {... */\n    tag_22:\n        /* \"CodeEater/enum.sol\":402:414  user.allowed */\n      0x00\n        /* \"CodeEater/enum.sol\":398:414  u1==user.allowed */\n      0x02\n      dup2\n      gt\n      iszero\n      tag_32\n      jumpi\n      tag_33\n      tag_30\n      jump\t// in\n    tag_33:\n    tag_32:\n        /* \"CodeEater/enum.sol\":398:400  u1 */\n      0x00\n      dup1\n      sload\n      swap1\n      0x0100\n      exp\n      swap1\n      div\n      0xff\n      and\n        /* \"CodeEater/enum.sol\":398:414  u1==user.allowed */\n      0x02\n      dup2\n      gt\n      iszero\n      tag_34\n      jumpi\n      tag_35\n      tag_30\n      jump\t// in\n    tag_35:\n    tag_34:\n      sub\n        /* \"CodeEater/enum.sol\":394:461  if (u1==user.allowed)... */\n      tag_36\n      jumpi\n        /* \"CodeEater/enum.sol\":448:449  0 */\n      0x00\n        /* \"CodeEater/enum.sol\":440:447  lottery */\n      0x01\n        /* \"CodeEater/enum.sol\":440:449  lottery=0 */\n      dup2\n      swap1\n      sstore\n      pop\n        /* \"CodeEater/enum.sol\":394:461  if (u1==user.allowed)... */\n    tag_36:\n        /* \"CodeEater/enum.sol\":359:468  function owner() public {... */\n      jump\t// out\n        /* \"CodeEater/enum.sol\":328:352  uint public lottery=1000 */\n    tag_24:\n      sload(0x01)\n      dup2\n      jump\t// out\n        /* \"#utility.yul\":7:187   */\n    tag_30:\n        /* \"#utility.yul\":55:132   */\n      0x4e487b7100000000000000000000000000000000000000000000000000000000\n        /* \"#utility.yul\":52:53   */\n      0x00\n        /* \"#utility.yul\":45:133   */\n      mstore\n        /* \"#utility.yul\":152:156   */\n      0x21\n        /* \"#utility.yul\":149:150   */\n      0x04\n        /* \"#utility.yul\":142:157   */\n      mstore\n        /* \"#utility.yul\":176:180   */\n      0x24\n        /* \"#utility.yul\":173:174   */\n      0x00\n        /* \"#utility.yul\":166:181   */\n      revert\n        /* \"#utility.yul\":193:304   */\n    tag_37:\n        /* \"#utility.yul\":272:273   */\n      0x03\n        /* \"#utility.yul\":265:270   */\n      dup2\n        /* \"#utility.yul\":262:274   */\n      lt\n        /* \"#utility.yul\":252:298   */\n      tag_46\n      jumpi\n        /* \"#utility.yul\":278:296   */\n      tag_47\n      tag_30\n      jump\t// in\n    tag_47:\n        /* \"#utility.yul\":252:298   */\n    tag_46:\n        /* \"#utility.yul\":193:304   */\n      pop\n      jump\t// out\n        /* \"#utility.yul\":310:433   */\n    tag_38:\n        /* \"#utility.yul\":353:360   */\n      0x00\n        /* \"#utility.yul\":382:387   */\n      dup2\n        /* \"#utility.yul\":371:387   */\n      swap1\n      pop\n        /* \"#utility.yul\":388:427   */\n      tag_49\n        /* \"#utility.yul\":421:426   */\n      dup3\n        /* \"#utility.yul\":388:427   */\n      tag_37\n      jump\t// in\n    tag_49:\n        /* \"#utility.yul\":310:433   */\n      swap2\n      swap1\n      pop\n      jump\t// out\n        /* \"#utility.yul\":439:562   */\n    tag_39:\n        /* \"#utility.yul\":493:502   */\n      0x00\n        /* \"#utility.yul\":526:556   */\n      tag_51\n        /* \"#utility.yul\":550:555   */\n      dup3\n        /* \"#utility.yul\":526:556   */\n      tag_38\n      jump\t// in\n    tag_51:\n        /* \"#utility.yul\":513:556   */\n      swap1\n      pop\n        /* \"#utility.yul\":439:562   */\n      swap2\n      swap1\n      pop\n      jump\t// out\n        /* \"#utility.yul\":568:707   */\n    tag_40:\n        /* \"#utility.yul\":659:700   */\n      tag_53\n        /* \"#utility.yul\":694:699   */\n      dup2\n        /* \"#utility.yul\":659:700   */\n      tag_39\n      jump\t// in\n    tag_53:\n        /* \"#utility.yul\":654:657   */\n      dup3\n        /* \"#utility.yul\":647:701   */\n      mstore\n        /* \"#utility.yul\":568:707   */\n      pop\n      pop\n      jump\t// out\n        /* \"#utility.yul\":713:943   */\n    tag_12:\n        /* \"#utility.yul\":810:814   */\n      0x00\n        /* \"#utility.yul\":848:850   */\n      0x20\n        /* \"#utility.yul\":837:846   */\n      dup3\n        /* \"#utility.yul\":833:851   */\n      add\n        /* \"#utility.yul\":825:851   */\n      swap1\n      pop\n        /* \"#utility.yul\":861:936   */\n      tag_55\n        /* \"#utility.yul\":933:934   */\n      0x00\n        /* \"#utility.yul\":922:931   */\n      dup4\n        /* \"#utility.yul\":918:935   */\n      add\n        /* \"#utility.yul\":909:915   */\n      dup5\n        /* \"#utility.yul\":861:936   */\n      tag_40\n      jump\t// in\n    tag_55:\n        /* \"#utility.yul\":713:943   */\n      swap3\n      swap2\n      pop\n      pop\n      jump\t// out\n        /* \"#utility.yul\":949:1026   */\n    tag_41:\n        /* \"#utility.yul\":986:993   */\n      0x00\n        /* \"#utility.yul\":1015:1020   */\n      dup2\n        /* \"#utility.yul\":1004:1020   */\n      swap1\n      pop\n        /* \"#utility.yul\":949:1026   */\n      swap2\n      swap1\n      pop\n      jump\t// out\n        /* \"#utility.yul\":1032:1150   */\n    tag_42:\n        /* \"#utility.yul\":1119:1143   */\n      tag_58\n        /* \"#utility.yul\":1137:1142   */\n      dup2\n        /* \"#utility.yul\":1119:1143   */\n      tag_41\n      jump\t// in\n    tag_58:\n        /* \"#utility.yul\":1114:1117   */\n      dup3\n        /* \"#utility.yul\":1107:1144   */\n      mstore\n        /* \"#utility.yul\":1032:1150   */\n      pop\n      pop\n      jump\t// out\n        /* \"#utility.yul\":1156:1378   */\n    tag_26:\n        /* \"#utility.yul\":1249:1253   */\n      0x00\n        /* \"#utility.yul\":1287:1289   */\n      0x20\n        /* \"#utility.yul\":1276:1285   */\n      dup3\n        /* \"#utility.yul\":1272:1290   */\n      add\n        /* \"#utility.yul\":1264:1290   */\n      swap1\n      pop\n        /* \"#utility.yul\":1300:1371   */\n      tag_60\n        /* \"#utility.yul\":1368:1369   */\n      0x00\n        /* \"#utility.yul\":1357:1366   */\n      dup4\n        /* \"#utility.yul\":1353:1370   */\n      add\n        /* \"#utility.yul\":1344:1350   */\n      dup5\n        /* \"#utility.yul\":1300:1371   */\n      tag_42\n      jump\t// in\n    tag_60:\n        /* \"#utility.yul\":1156:1378   */\n      swap3\n      swap2\n      pop\n      pop\n      jump\t// out\n\n    auxdata: 0xa2646970667358221220d47df031e5244c38e265bce41e3b565f9300cb4515d1d804fd8ac9ac7ee75e2764736f6c63430008120033\n}\n",
				"bytecode": {
					"linkReferences": {},
					"object": "608060405260008060006101000a81548160ff021916908360028111156100295761002861009c565b5b02179055506001600060016101000a81548160ff021916908360028111156100545761005361009c565b5b02179055506002600060026101000a81548160ff0219169083600281111561007f5761007e61009c565b5b02179055506103e860015534801561009657600080fd5b506100cb565b7f4e487b7100000000000000000000000000000000000000000000000000000000600052602160045260246000fd5b61029c806100da6000396000f3fe608060405234801561001057600080fd5b50600436106100625760003560e01c80631aa356101461006757806362a094771461008557806375da9f761461008f5780638424c8d8146100ad5780638da5cb5b146100cb578063ba13a572146100d5575b600080fd5b61006f6100f3565b60405161007c9190610217565b60405180910390f35b61008d610104565b005b610097610130565b6040516100a49190610217565b60405180910390f35b6100b5610143565b6040516100c29190610217565b60405180910390f35b6100d3610156565b005b6100dd61019a565b6040516100ea919061024b565b60405180910390f35b60008054906101000a900460ff1681565b60016000806101000a81548160ff02191690836002811115610129576101286101a0565b5b0217905550565b600060019054906101000a900460ff1681565b600060029054906101000a900460ff1681565b6000600281111561016a576101696101a0565b5b60008054906101000a900460ff16600281111561018a576101896101a0565b5b036101985760006001819055505b565b60015481565b7f4e487b7100000000000000000000000000000000000000000000000000000000600052602160045260246000fd5b600381106101e0576101df6101a0565b5b50565b60008190506101f1826101cf565b919050565b6000610201826101e3565b9050919050565b610211816101f6565b82525050565b600060208201905061022c6000830184610208565b92915050565b6000819050919050565b61024581610232565b82525050565b6000602082019050610260600083018461023c565b9291505056fea2646970667358221220d47df031e5244c38e265bce41e3b565f9300cb4515d1d804fd8ac9ac7ee75e2764736f6c63430008120033",
					"opcodes": "PUSH1 0x80 PUSH1 0x40 MSTORE PUSH1 0x0 DUP1 PUSH1 0x0 PUSH2 0x100 EXP DUP2 SLOAD DUP2 PUSH1 0xFF MUL NOT AND SWAP1 DUP4 PUSH1 0x2 DUP2 GT ISZERO PUSH2 0x29 JUMPI PUSH2 0x28 PUSH2 0x9C JUMP JUMPDEST JUMPDEST MUL OR SWAP1 SSTORE POP PUSH1 0x1 PUSH1 0x0 PUSH1 0x1 PUSH2 0x100 EXP DUP2 SLOAD DUP2 PUSH1 0xFF MUL NOT AND SWAP1 DUP4 PUSH1 0x2 DUP2 GT ISZERO PUSH2 0x54 JUMPI PUSH2 0x53 PUSH2 0x9C JUMP JUMPDEST JUMPDEST MUL OR SWAP1 SSTORE POP PUSH1 0x2 PUSH1 0x0 PUSH1 0x2 PUSH2 0x100 EXP DUP2 SLOAD DUP2 PUSH1 0xFF MUL NOT AND SWAP1 DUP4 PUSH1 0x2 DUP2 GT ISZERO PUSH2 0x7F JUMPI PUSH2 0x7E PUSH2 0x9C JUMP JUMPDEST JUMPDEST MUL OR SWAP1 SSTORE POP PUSH2 0x3E8 PUSH1 0x1 SSTORE CALLVALUE DUP1 ISZERO PUSH2 0x96 JUMPI PUSH1 0x0 DUP1 REVERT JUMPDEST POP PUSH2 0xCB JUMP JUMPDEST PUSH32 0x4E487B7100000000000000000000000000000000000000000000000000000000 PUSH1 0x0 MSTORE PUSH1 0x21 PUSH1 0x4 MSTORE PUSH1 0x24 PUSH1 0x0 REVERT JUMPDEST PUSH2 0x29C DUP1 PUSH2 0xDA PUSH1 0x0 CODECOPY PUSH1 0x0 RETURN INVALID PUSH1 0x80 PUSH1 0x40 MSTORE CALLVALUE DUP1 ISZERO PUSH2 0x10 JUMPI PUSH1 0x0 DUP1 REVERT JUMPDEST POP PUSH1 0x4 CALLDATASIZE LT PUSH2 0x62 JUMPI PUSH1 0x0 CALLDATALOAD PUSH1 0xE0 SHR DUP1 PUSH4 0x1AA35610 EQ PUSH2 0x67 JUMPI DUP1 PUSH4 0x62A09477 EQ PUSH2 0x85 JUMPI DUP1 PUSH4 0x75DA9F76 EQ PUSH2 0x8F JUMPI DUP1 PUSH4 0x8424C8D8 EQ PUSH2 0xAD JUMPI DUP1 PUSH4 0x8DA5CB5B EQ PUSH2 0xCB JUMPI DUP1 PUSH4 0xBA13A572 EQ PUSH2 0xD5 JUMPI JUMPDEST PUSH1 0x0 DUP1 REVERT JUMPDEST PUSH2 0x6F PUSH2 0xF3 JUMP JUMPDEST PUSH1 0x40 MLOAD PUSH2 0x7C SWAP2 SWAP1 PUSH2 0x217 JUMP JUMPDEST PUSH1 0x40 MLOAD DUP1 SWAP2 SUB SWAP1 RETURN JUMPDEST PUSH2 0x8D PUSH2 0x104 JUMP JUMPDEST STOP JUMPDEST PUSH2 0x97 PUSH2 0x130 JUMP JUMPDEST PUSH1 0x40 MLOAD PUSH2 0xA4 SWAP2 SWAP1 PUSH2 0x217 JUMP JUMPDEST PUSH1 0x40 MLOAD DUP1 SWAP2 SUB SWAP1 RETURN JUMPDEST PUSH2 0xB5 PUSH2 0x143 JUMP JUMPDEST PUSH1 0x40 MLOAD PUSH2 0xC2 SWAP2 SWAP1 PUSH2 0x217 JUMP JUMPDEST PUSH1 0x40 MLOAD DUP1 SWAP2 SUB SWAP1 RETURN JUMPDEST PUSH2 0xD3 PUSH2 0x156 JUMP JUMPDEST STOP JUMPDEST PUSH2 0xDD PUSH2 0x19A JUMP JUMPDEST PUSH1 0x40 MLOAD PUSH2 0xEA SWAP2 SWAP1 PUSH2 0x24B JUMP JUMPDEST PUSH1 0x40 MLOAD DUP1 SWAP2 SUB SWAP1 RETURN JUMPDEST PUSH1 0x0 DUP1 SLOAD SWAP1 PUSH2 0x100 EXP SWAP1 DIV PUSH1 0xFF AND DUP2 JUMP JUMPDEST PUSH1 0x1 PUSH1 0x0 DUP1 PUSH2 0x100 EXP DUP2 SLOAD DUP2 PUSH1 0xFF MUL NOT AND SWAP1 DUP4 PUSH1 0x2 DUP2 GT ISZERO PUSH2 0x129 JUMPI PUSH2 0x128 PUSH2 0x1A0 JUMP JUMPDEST JUMPDEST MUL OR SWAP1 SSTORE POP JUMP JUMPDEST PUSH1 0x0 PUSH1 0x1 SWAP1 SLOAD SWAP1 PUSH2 0x100 EXP SWAP1 DIV PUSH1 0xFF AND DUP2 JUMP JUMPDEST PUSH1 0x0 PUSH1 0x2 SWAP1 SLOAD SWAP1 PUSH2 0x100 EXP SWAP1 DIV PUSH1 0xFF AND DUP2 JUMP JUMPDEST PUSH1 0x0 PUSH1 0x2 DUP2 GT ISZERO PUSH2 0x16A JUMPI PUSH2 0x169 PUSH2 0x1A0 JUMP JUMPDEST JUMPDEST PUSH1 0x0 DUP1 SLOAD SWAP1 PUSH2 0x100 EXP SWAP1 DIV PUSH1 0xFF AND PUSH1 0x2 DUP2 GT ISZERO PUSH2 0x18A JUMPI PUSH2 0x189 PUSH2 0x1A0 JUMP JUMPDEST JUMPDEST SUB PUSH2 0x198 JUMPI PUSH1 0x0 PUSH1 0x1 DUP2 SWAP1 SSTORE POP JUMPDEST JUMP JUMPDEST PUSH1 0x1 SLOAD DUP2 JUMP JUMPDEST PUSH32 0x4E487B7100000000000000000000000000000000000000000000000000000000 PUSH1 0x0 MSTORE PUSH1 0x21 PUSH1 0x4 MSTORE PUSH1 0x24 PUSH1 0x0 REVERT JUMPDEST PUSH1 0x3 DUP2 LT PUSH2 0x1E0 JUMPI PUSH2 0x1DF PUSH2 0x1A0 JUMP JUMPDEST JUMPDEST POP JUMP JUMPDEST PUSH1 0x0 DUP2 SWAP1 POP PUSH2 0x1F1 DUP3 PUSH2 0x1CF JUMP JUMPDEST SWAP2 SWAP1 POP JUMP JUMPDEST PUSH1 0x0 PUSH2 0x201 DUP3 PUSH2 0x1E3 JUMP JUMPDEST SWAP1 POP SWAP2 SWAP1 POP JUMP JUMPDEST PUSH2 0x211 DUP2 PUSH2 0x1F6 JUMP JUMPDEST DUP3 MSTORE POP POP JUMP JUMPDEST PUSH1 0x0 PUSH1 0x20 DUP3 ADD SWAP1 POP PUSH2 0x22C PUSH1 0x0 DUP4 ADD DUP5 PUSH2 0x208 JUMP JUMPDEST SWAP3 SWAP2 POP POP JUMP JUMPDEST PUSH1 0x0 DUP2 SWAP1 POP SWAP2 SWAP1 POP JUMP JUMPDEST PUSH2 0x245 DUP2 PUSH2 0x232 JUMP JUMPDEST DUP3 MSTORE POP POP JUMP JUMPDEST PUSH1 0x0 PUSH1 0x20 DUP3 ADD SWAP1 POP PUSH2 0x260 PUSH1 0x0 DUP4 ADD DUP5 PUSH2 0x23C JUMP JUMPDEST SWAP3 SWAP2 POP POP JUMP INVALID LOG2 PUSH5 0x6970667358 0x22 SLT KECCAK256 0xD4 PUSH30 0xF031E5244C38E265BCE41E3B565F9300CB4515D1D804FD8AC9AC7EE75E27 PUSH5 0x736F6C6343 STOP ADDMOD SLT STOP CALLER "
				},
				"gasEstimates": {
					"creation": {
						"codeDepositCost": "133600",
						"executionCost": "95256",
						"totalCost": "228856"
					},
					"external": {
						"changeOwner()": "24431",
						"lottery()": "2517",
						"owner()": "7432",
						"u1()": "2535",
						"u2()": "2632",
						"u3()": "2654"
					}
				},
				"methodIdentifiers": {
					"changeOwner()": "62a09477",
					"lottery()": "ba13a572",
					"owner()": "8da5cb5b",
					"u1()": "1aa35610",
					"u2()": "75da9f76",
					"u3()": "8424c8d8"
				}
			},
			"storageLayout": {
				"storage": [
					{
						"astId": 10,
						"contract": "CodeEater/enum.sol:eenum",
						"label": "u1",
						"offset": 0,
						"slot": "0",
						"type": "t_enum(user)5"
					},
					{
						"astId": 15,
						"contract": "CodeEater/enum.sol:eenum",
						"label": "u2",
						"offset": 1,
						"slot": "0",
						"type": "t_enum(user)5"
					},
					{
						"astId": 20,
						"contract": "CodeEater/enum.sol:eenum",
						"label": "u3",
						"offset": 2,
						"slot": "0",
						"type": "t_enum(user)5"
					},
					{
						"astId": 23,
						"contract": "CodeEater/enum.sol:eenum",
						"label": "lottery",
						"offset": 0,
						"slot": "1",
						"type": "t_uint256"
					}
				],
				"types": {
					"t_enum(user)5": {
						"encoding": "inplace",
						"label": "enum eenum.user",
						"numberOfBytes": "1"
					},
					"t_uint256": {
						"encoding": "inplace",
						"label": "uint256",
						"numberOfBytes": "32"
					}
				}
			},
			"userdoc": {
				"kind": "user",
				"methods": {},
				"version": 1
			}
		}
	}
}