{
	"CodeEater/bytearray.sol": {
		"Array": {
			"abi": [
				{
					"inputs": [],
					"name": "b2",
					"outputs": [
						{
							"internalType": "bytes2",
							"name": "",
							"type": "bytes2"
						}
					],
					"stateMutability": "view",
					"type": "function"
				},
				{
					"inputs": [],
					"name": "b3",
					"outputs": [
						{
							"internalType": "bytes3",
							"name": "",
							"type": "bytes3"
						}
					],
					"stateMutability": "view",
					"type": "function"
				},
				{
					"inputs": [],
					"name": "e2",
					"outputs": [
						{
							"internalType": "bytes2",
							"name": "",
							"type": "bytes2"
						}
					],
					"stateMutability": "view",
					"type": "function"
				},
				{
					"inputs": [],
					"name": "setter",
					"outputs": [],
					"stateMutability": "nonpayable",
					"type": "function"
				}
			],
			"devdoc": {
				"kind": "dev",
				"methods": {},
				"version": 1
			},
			"evm": {
				"assembly": "    /* \"CodeEater/bytearray.sol\":76:386  contract Array\r... */\n  mstore(0x40, 0x80)\n  callvalue\n  dup1\n  iszero\n  tag_1\n  jumpi\n  0x00\n  dup1\n  revert\ntag_1:\n  pop\n  dataSize(sub_0)\n  dup1\n  dataOffset(sub_0)\n  0x00\n  codecopy\n  0x00\n  return\nstop\n\nsub_0: assembly {\n        /* \"CodeEater/bytearray.sol\":76:386  contract Array\r... */\n      mstore(0x40, 0x80)\n      callvalue\n      dup1\n      iszero\n      tag_1\n      jumpi\n      0x00\n      dup1\n      revert\n    tag_1:\n      pop\n      jumpi(tag_2, lt(calldatasize, 0x04))\n      shr(0xe0, calldataload(0x00))\n      dup1\n      0x0add6ef2\n      eq\n      tag_3\n      jumpi\n      dup1\n      0x3f3108f7\n      eq\n      tag_4\n      jumpi\n      dup1\n      0x9b31f9e8\n      eq\n      tag_5\n      jumpi\n      dup1\n      0xe9b61909\n      eq\n      tag_6\n      jumpi\n    tag_2:\n      0x00\n      dup1\n      revert\n        /* \"CodeEater/bytearray.sol\":138:154  bytes2 public b2 */\n    tag_3:\n      tag_7\n      tag_8\n      jump\t// in\n    tag_7:\n      mload(0x40)\n      tag_9\n      swap2\n      swap1\n      tag_10\n      jump\t// in\n    tag_9:\n      mload(0x40)\n      dup1\n      swap2\n      sub\n      swap1\n      return\n        /* \"CodeEater/bytearray.sol\":218:310  function setter()public \r... */\n    tag_4:\n      tag_11\n      tag_12\n      jump\t// in\n    tag_11:\n      stop\n        /* \"CodeEater/bytearray.sol\":177:193  bytes2 public e2 */\n    tag_5:\n      tag_13\n      tag_14\n      jump\t// in\n    tag_13:\n      mload(0x40)\n      tag_15\n      swap2\n      swap1\n      tag_10\n      jump\t// in\n    tag_15:\n      mload(0x40)\n      dup1\n      swap2\n      sub\n      swap1\n      return\n        /* \"CodeEater/bytearray.sol\":99:115  bytes3 public b3 */\n    tag_6:\n      tag_16\n      tag_17\n      jump\t// in\n    tag_16:\n      mload(0x40)\n      tag_18\n      swap2\n      swap1\n      tag_19\n      jump\t// in\n    tag_18:\n      mload(0x40)\n      dup1\n      swap2\n      sub\n      swap1\n      return\n        /* \"CodeEater/bytearray.sol\":138:154  bytes2 public b2 */\n    tag_8:\n      0x00\n      0x03\n      swap1\n      sload\n      swap1\n      0x0100\n      exp\n      swap1\n      div\n      0xf0\n      shl\n      dup2\n      jump\t// out\n        /* \"CodeEater/bytearray.sol\":218:310  function setter()public \r... */\n    tag_12:\n        /* \"CodeEater/bytearray.sol\":259:267  b3=\"abc\" */\n      0x6162630000000000000000000000000000000000000000000000000000000000\n        /* \"CodeEater/bytearray.sol\":259:261  b3 */\n      0x00\n      dup1\n        /* \"CodeEater/bytearray.sol\":259:267  b3=\"abc\" */\n      0x0100\n      exp\n      dup2\n      sload\n      dup2\n      0xffffff\n      mul\n      not\n      and\n      swap1\n      dup4\n      0xe8\n      shr\n      mul\n      or\n      swap1\n      sstore\n      pop\n        /* \"CodeEater/bytearray.sol\":278:285  b2=\"ab\" */\n      0x6162000000000000000000000000000000000000000000000000000000000000\n        /* \"CodeEater/bytearray.sol\":278:280  b2 */\n      0x00\n      0x03\n        /* \"CodeEater/bytearray.sol\":278:285  b2=\"ab\" */\n      0x0100\n      exp\n      dup2\n      sload\n      dup2\n      0xffff\n      mul\n      not\n      and\n      swap1\n      dup4\n      0xf0\n      shr\n      mul\n      or\n      swap1\n      sstore\n      pop\n        /* \"CodeEater/bytearray.sol\":296:302  e2=\"a\" */\n      0x6100000000000000000000000000000000000000000000000000000000000000\n        /* \"CodeEater/bytearray.sol\":296:298  e2 */\n      0x00\n      0x05\n        /* \"CodeEater/bytearray.sol\":296:302  e2=\"a\" */\n      0x0100\n      exp\n      dup2\n      sload\n      dup2\n      0xffff\n      mul\n      not\n      and\n      swap1\n      dup4\n      0xf0\n      shr\n      mul\n      or\n      swap1\n      sstore\n      pop\n        /* \"CodeEater/bytearray.sol\":218:310  function setter()public \r... */\n      jump\t// out\n        /* \"CodeEater/bytearray.sol\":177:193  bytes2 public e2 */\n    tag_14:\n      0x00\n      0x05\n      swap1\n      sload\n      swap1\n      0x0100\n      exp\n      swap1\n      div\n      0xf0\n      shl\n      dup2\n      jump\t// out\n        /* \"CodeEater/bytearray.sol\":99:115  bytes3 public b3 */\n    tag_17:\n      0x00\n      dup1\n      sload\n      swap1\n      0x0100\n      exp\n      swap1\n      div\n      0xe8\n      shl\n      dup2\n      jump\t// out\n        /* \"#utility.yul\":7:122   */\n    tag_22:\n        /* \"#utility.yul\":92:115   */\n      tag_24\n        /* \"#utility.yul\":109:114   */\n      dup2\n        /* \"#utility.yul\":92:115   */\n      tag_25\n      jump\t// in\n    tag_24:\n        /* \"#utility.yul\":87:90   */\n      dup3\n        /* \"#utility.yul\":80:116   */\n      mstore\n        /* \"#utility.yul\":70:122   */\n      pop\n      pop\n      jump\t// out\n        /* \"#utility.yul\":128:243   */\n    tag_26:\n        /* \"#utility.yul\":213:236   */\n      tag_28\n        /* \"#utility.yul\":230:235   */\n      dup2\n        /* \"#utility.yul\":213:236   */\n      tag_29\n      jump\t// in\n    tag_28:\n        /* \"#utility.yul\":208:211   */\n      dup3\n        /* \"#utility.yul\":201:237   */\n      mstore\n        /* \"#utility.yul\":191:243   */\n      pop\n      pop\n      jump\t// out\n        /* \"#utility.yul\":249:467   */\n    tag_10:\n      0x00\n        /* \"#utility.yul\":378:380   */\n      0x20\n        /* \"#utility.yul\":367:376   */\n      dup3\n        /* \"#utility.yul\":363:381   */\n      add\n        /* \"#utility.yul\":355:381   */\n      swap1\n      pop\n        /* \"#utility.yul\":391:460   */\n      tag_31\n        /* \"#utility.yul\":457:458   */\n      0x00\n        /* \"#utility.yul\":446:455   */\n      dup4\n        /* \"#utility.yul\":442:459   */\n      add\n        /* \"#utility.yul\":433:439   */\n      dup5\n        /* \"#utility.yul\":391:460   */\n      tag_22\n      jump\t// in\n    tag_31:\n        /* \"#utility.yul\":345:467   */\n      swap3\n      swap2\n      pop\n      pop\n      jump\t// out\n        /* \"#utility.yul\":473:691   */\n    tag_19:\n      0x00\n        /* \"#utility.yul\":602:604   */\n      0x20\n        /* \"#utility.yul\":591:600   */\n      dup3\n        /* \"#utility.yul\":587:605   */\n      add\n        /* \"#utility.yul\":579:605   */\n      swap1\n      pop\n        /* \"#utility.yul\":615:684   */\n      tag_33\n        /* \"#utility.yul\":681:682   */\n      0x00\n        /* \"#utility.yul\":670:679   */\n      dup4\n        /* \"#utility.yul\":666:683   */\n      add\n        /* \"#utility.yul\":657:663   */\n      dup5\n        /* \"#utility.yul\":615:684   */\n      tag_26\n      jump\t// in\n    tag_33:\n        /* \"#utility.yul\":569:691   */\n      swap3\n      swap2\n      pop\n      pop\n      jump\t// out\n        /* \"#utility.yul\":697:846   */\n    tag_25:\n      0x00\n        /* \"#utility.yul\":773:839   */\n      0xffff000000000000000000000000000000000000000000000000000000000000\n        /* \"#utility.yul\":766:771   */\n      dup3\n        /* \"#utility.yul\":762:840   */\n      and\n        /* \"#utility.yul\":751:840   */\n      swap1\n      pop\n        /* \"#utility.yul\":741:846   */\n      swap2\n      swap1\n      pop\n      jump\t// out\n        /* \"#utility.yul\":852:1001   */\n    tag_29:\n      0x00\n        /* \"#utility.yul\":928:994   */\n      0xffffff0000000000000000000000000000000000000000000000000000000000\n        /* \"#utility.yul\":921:926   */\n      dup3\n        /* \"#utility.yul\":917:995   */\n      and\n        /* \"#utility.yul\":906:995   */\n      swap1\n      pop\n        /* \"#utility.yul\":896:1001   */\n      swap2\n      swap1\n      pop\n      jump\t// out\n\n    auxdata: 0xa2646970667358221220bca25cb31d2f35da462ee63a045e2f9e56d35dc332c4a7cef46dff6f43847a4064736f6c63430008000033\n}\n",
				"bytecode": {
					"linkReferences": {},
					"object": "608060405234801561001057600080fd5b50610284806100206000396000f3fe608060405234801561001057600080fd5b506004361061004c5760003560e01c80630add6ef2146100515780633f3108f71461006f5780639b31f9e814610079578063e9b6190914610097575b600080fd5b6100596100b5565b60405161006691906101c0565b60405180910390f35b6100776100c8565b005b61008161017e565b60405161008e91906101c0565b60405180910390f35b61009f610191565b6040516100ac91906101db565b60405180910390f35b600060039054906101000a900460f01b81565b7f61626300000000000000000000000000000000000000000000000000000000006000806101000a81548162ffffff021916908360e81c02179055507f6162000000000000000000000000000000000000000000000000000000000000600060036101000a81548161ffff021916908360f01c02179055507f6100000000000000000000000000000000000000000000000000000000000000600060056101000a81548161ffff021916908360f01c0217905550565b600060059054906101000a900460f01b81565b60008054906101000a900460e81b81565b6101ab816101f6565b82525050565b6101ba81610222565b82525050565b60006020820190506101d560008301846101a2565b92915050565b60006020820190506101f060008301846101b1565b92915050565b60007fffff00000000000000000000000000000000000000000000000000000000000082169050919050565b60007fffffff00000000000000000000000000000000000000000000000000000000008216905091905056fea2646970667358221220bca25cb31d2f35da462ee63a045e2f9e56d35dc332c4a7cef46dff6f43847a4064736f6c63430008000033",
					"opcodes": "PUSH1 0x80 PUSH1 0x40 MSTORE CALLVALUE DUP1 ISZERO PUSH2 0x10 JUMPI PUSH1 0x0 DUP1 REVERT JUMPDEST POP PUSH2 0x284 DUP1 PUSH2 0x20 PUSH1 0x0 CODECOPY PUSH1 0x0 RETURN INVALID PUSH1 0x80 PUSH1 0x40 MSTORE CALLVALUE DUP1 ISZERO PUSH2 0x10 JUMPI PUSH1 0x0 DUP1 REVERT JUMPDEST POP PUSH1 0x4 CALLDATASIZE LT PUSH2 0x4C JUMPI PUSH1 0x0 CALLDATALOAD PUSH1 0xE0 SHR DUP1 PUSH4 0xADD6EF2 EQ PUSH2 0x51 JUMPI DUP1 PUSH4 0x3F3108F7 EQ PUSH2 0x6F JUMPI DUP1 PUSH4 0x9B31F9E8 EQ PUSH2 0x79 JUMPI DUP1 PUSH4 0xE9B61909 EQ PUSH2 0x97 JUMPI JUMPDEST PUSH1 0x0 DUP1 REVERT JUMPDEST PUSH2 0x59 PUSH2 0xB5 JUMP JUMPDEST PUSH1 0x40 MLOAD PUSH2 0x66 SWAP2 SWAP1 PUSH2 0x1C0 JUMP JUMPDEST PUSH1 0x40 MLOAD DUP1 SWAP2 SUB SWAP1 RETURN JUMPDEST PUSH2 0x77 PUSH2 0xC8 JUMP JUMPDEST STOP JUMPDEST PUSH2 0x81 PUSH2 0x17E JUMP JUMPDEST PUSH1 0x40 MLOAD PUSH2 0x8E SWAP2 SWAP1 PUSH2 0x1C0 JUMP JUMPDEST PUSH1 0x40 MLOAD DUP1 SWAP2 SUB SWAP1 RETURN JUMPDEST PUSH2 0x9F PUSH2 0x191 JUMP JUMPDEST PUSH1 0x40 MLOAD PUSH2 0xAC SWAP2 SWAP1 PUSH2 0x1DB JUMP JUMPDEST PUSH1 0x40 MLOAD DUP1 SWAP2 SUB SWAP1 RETURN JUMPDEST PUSH1 0x0 PUSH1 0x3 SWAP1 SLOAD SWAP1 PUSH2 0x100 EXP SWAP1 DIV PUSH1 0xF0 SHL DUP2 JUMP JUMPDEST PUSH32 0x6162630000000000000000000000000000000000000000000000000000000000 PUSH1 0x0 DUP1 PUSH2 0x100 EXP DUP2 SLOAD DUP2 PUSH3 0xFFFFFF MUL NOT AND SWAP1 DUP4 PUSH1 0xE8 SHR MUL OR SWAP1 SSTORE POP PUSH32 0x6162000000000000000000000000000000000000000000000000000000000000 PUSH1 0x0 PUSH1 0x3 PUSH2 0x100 EXP DUP2 SLOAD DUP2 PUSH2 0xFFFF MUL NOT AND SWAP1 DUP4 PUSH1 0xF0 SHR MUL OR SWAP1 SSTORE POP PUSH32 0x6100000000000000000000000000000000000000000000000000000000000000 PUSH1 0x0 PUSH1 0x5 PUSH2 0x100 EXP DUP2 SLOAD DUP2 PUSH2 0xFFFF MUL NOT AND SWAP1 DUP4 PUSH1 0xF0 SHR MUL OR SWAP1 SSTORE POP JUMP JUMPDEST PUSH1 0x0 PUSH1 0x5 SWAP1 SLOAD SWAP1 PUSH2 0x100 EXP SWAP1 DIV PUSH1 0xF0 SHL DUP2 JUMP JUMPDEST PUSH1 0x0 DUP1 SLOAD SWAP1 PUSH2 0x100 EXP SWAP1 DIV PUSH1 0xE8 SHL DUP2 JUMP JUMPDEST PUSH2 0x1AB DUP2 PUSH2 0x1F6 JUMP JUMPDEST DUP3 MSTORE POP POP JUMP JUMPDEST PUSH2 0x1BA DUP2 PUSH2 0x222 JUMP JUMPDEST DUP3 MSTORE POP POP JUMP JUMPDEST PUSH1 0x0 PUSH1 0x20 DUP3 ADD SWAP1 POP PUSH2 0x1D5 PUSH1 0x0 DUP4 ADD DUP5 PUSH2 0x1A2 JUMP JUMPDEST SWAP3 SWAP2 POP POP JUMP JUMPDEST PUSH1 0x0 PUSH1 0x20 DUP3 ADD SWAP1 POP PUSH2 0x1F0 PUSH1 0x0 DUP4 ADD DUP5 PUSH2 0x1B1 JUMP JUMPDEST SWAP3 SWAP2 POP POP JUMP JUMPDEST PUSH1 0x0 PUSH32 0xFFFF000000000000000000000000000000000000000000000000000000000000 DUP3 AND SWAP1 POP SWAP2 SWAP1 POP JUMP JUMPDEST PUSH1 0x0 PUSH32 0xFFFFFF0000000000000000000000000000000000000000000000000000000000 DUP3 AND SWAP1 POP SWAP2 SWAP1 POP JUMP INVALID LOG2 PUSH5 0x6970667358 0x22 SLT KECCAK256 0xBC LOG2 0x5C 0xB3 SAR 0x2F CALLDATALOAD 0xDA CHAINID 0x2E 0xE6 GASPRICE DIV 0x5E 0x2F SWAP15 JUMP 0xD3 0x5D 0xC3 ORIGIN 0xC4 0xA7 0xCE DELEGATECALL PUSH14 0xFF6F43847A4064736F6C63430008 STOP STOP CALLER "
				},
				"gasEstimates": {
					"creation": {
						"codeDepositCost": "128800",
						"executionCost": "177",
						"totalCost": "128977"
					},
					"external": {
						"b2()": "1199",
						"b3()": "1212",
						"e2()": "1243",
						"setter()": "62845"
					}
				},
				"methodIdentifiers": {
					"b2()": "0add6ef2",
					"b3()": "e9b61909",
					"e2()": "9b31f9e8",
					"setter()": "3f3108f7"
				}
			},
			"storageLayout": {
				"storage": [
					{
						"astId": 3,
						"contract": "CodeEater/bytearray.sol:Array",
						"label": "b3",
						"offset": 0,
						"slot": "0",
						"type": "t_bytes3"
					},
					{
						"astId": 5,
						"contract": "CodeEater/bytearray.sol:Array",
						"label": "b2",
						"offset": 3,
						"slot": "0",
						"type": "t_bytes2"
					},
					{
						"astId": 7,
						"contract": "CodeEater/bytearray.sol:Array",
						"label": "e2",
						"offset": 5,
						"slot": "0",
						"type": "t_bytes2"
					}
				],
				"types": {
					"t_bytes2": {
						"encoding": "inplace",
						"label": "bytes2",
						"numberOfBytes": "2"
					},
					"t_bytes3": {
						"encoding": "inplace",
						"label": "bytes3",
						"numberOfBytes": "3"
					}
				}
			},
			"userdoc": {
				"kind": "user",
				"methods": {},
				"version": 1
			}
		}
	}
}