{
	"data": {
		"bytecode": {
			"linkReferences": {},
			"object": "6080604052670de0b6b3a76400006008553480156200001d57600080fd5b506040518060400160405280600f81526020017f5265616c457374617465546f6b656e00000000000000000000000000000000008152506040518060400160405280600381526020017f524554000000000000000000000000000000000000000000000000000000000081525081600390816200009b919062000371565b508060049081620000ad919062000371565b50505033600560006101000a81548173ffffffffffffffffffffffffffffffffffffffff021916908373ffffffffffffffffffffffffffffffffffffffff16021790555062000458565b600081519050919050565b7f4e487b7100000000000000000000000000000000000000000000000000000000600052604160045260246000fd5b7f4e487b7100000000000000000000000000000000000000000000000000000000600052602260045260246000fd5b600060028204905060018216806200017957607f821691505b6020821081036200018f576200018e62000131565b5b50919050565b60008190508160005260206000209050919050565b60006020601f8301049050919050565b600082821b905092915050565b600060088302620001f97fffffffffffffffffffffffffffffffffffffffffffffffffffffffffffffffff82620001ba565b620002058683620001ba565b95508019841693508086168417925050509392505050565b6000819050919050565b6000819050919050565b6000620002526200024c62000246846200021d565b62000227565b6200021d565b9050919050565b6000819050919050565b6200026e8362000231565b620002866200027d8262000259565b848454620001c7565b825550505050565b600090565b6200029d6200028e565b620002aa81848462000263565b505050565b5b81811015620002d257620002c660008262000293565b600181019050620002b0565b5050565b601f8211156200032157620002eb8162000195565b620002f684620001aa565b8101602085101562000306578190505b6200031e6200031585620001aa565b830182620002af565b50505b505050565b600082821c905092915050565b6000620003466000198460080262000326565b1980831691505092915050565b600062000361838362000333565b9150826002028217905092915050565b6200037c82620000f7565b67ffffffffffffffff81111562000398576200039762000102565b5b620003a4825462000160565b620003b1828285620002d6565b600060209050601f831160018114620003e95760008415620003d4578287015190505b620003e0858262000353565b86555062000450565b601f198416620003f98662000195565b60005b828110156200042357848901518255600182019150602085019450602081019050620003fc565b868310156200044357848901516200043f601f89168262000333565b8355505b6001600288020188555050505b505050505050565b61255d80620004686000396000f3fe6080604052600436106101d85760003560e01c8063575e6cec11610102578063a709c4fe11610095578063dd62ed3e11610064578063dd62ed3e1461068e578063e01fe4c3146106cb578063f857f7521461070a578063fcf8f42214610733576101d8565b8063a709c4fe146105f3578063a9059cbb146105fd578063adf077911461063a578063beee50f714610665576101d8565b80638da5cb5b116100d15780638da5cb5b1461053757806395d89b4114610562578063976f5f611461058d578063a457c2d7146105b6576101d8565b8063575e6cec1461049e5780636322182e146104c757806370a08231146104d157806388e20abb1461050e576101d8565b8063255dbb531161017a578063419759f511610149578063419759f51461041557806342c63dae1461044057806344ba41db1461044a5780634b7851f714610473576101d8565b8063255dbb53146103475780632e74a4de14610384578063313ce567146103ad57806339509351146103d8576101d8565b80630df9c426116101b65780630df9c4261461026e57806312065fe0146102b457806318160ddd146102df57806323b872dd1461030a576101d8565b806306fdde03146101dd578063089a611514610208578063095ea7b314610231575b600080fd5b3480156101e957600080fd5b506101f261075c565b6040516101ff9190611a25565b60405180910390f35b34801561021457600080fd5b5061022f600480360381019061022a9190611aaa565b6107ee565b005b34801561023d57600080fd5b5061025860048036038101906102539190611b0d565b610843565b6040516102659190611b68565b60405180910390f35b34801561027a57600080fd5b5061029560048036038101906102909190611aaa565b610866565b6040516102ab9a99989796959493929190611b92565b60405180910390f35b3480156102c057600080fd5b506102c96108ba565b6040516102d69190611c2e565b60405180910390f35b3480156102eb57600080fd5b506102f46108c2565b6040516103019190611c2e565b60405180910390f35b34801561031657600080fd5b50610331600480360381019061032c9190611c49565b6108cc565b60405161033e9190611b68565b60405180910390f35b34801561035357600080fd5b5061036e60048036038101906103699190611aaa565b6108fb565b60405161037b9190611b68565b60405180910390f35b34801561039057600080fd5b506103ab60048036038101906103a69190611aaa565b61091b565b005b3480156103b957600080fd5b506103c261095f565b6040516103cf9190611cb8565b60405180910390f35b3480156103e457600080fd5b506103ff60048036038101906103fa9190611b0d565b610968565b60405161040c9190611b68565b60405180910390f35b34801561042157600080fd5b5061042a61099f565b6040516104379190611c2e565b60405180910390f35b6104486109a5565b005b34801561045657600080fd5b50610471600480360381019061046c9190611aaa565b610ad3565b005b34801561047f57600080fd5b50610488610b4d565b6040516104959190611c2e565b60405180910390f35b3480156104aa57600080fd5b506104c560048036038101906104c09190611aaa565b610b53565b005b6104cf610bba565b005b3480156104dd57600080fd5b506104f860048036038101906104f39190611aaa565b610cfc565b6040516105059190611c2e565b60405180910390f35b34801561051a57600080fd5b5061053560048036038101906105309190611aaa565b610d44565b005b34801561054357600080fd5b5061054c610da7565b6040516105599190611ce2565b60405180910390f35b34801561056e57600080fd5b50610577610dcd565b6040516105849190611a25565b60405180910390f35b34801561059957600080fd5b506105b460048036038101906105af9190611aaa565b610e5f565b005b3480156105c257600080fd5b506105dd60048036038101906105d89190611b0d565b610ef5565b6040516105ea9190611b68565b60405180910390f35b6105fb610f6c565b005b34801561060957600080fd5b50610624600480360381019061061f9190611b0d565b611017565b6040516106319190611b68565b60405180910390f35b34801561064657600080fd5b5061064f61103a565b60405161065c9190611ce2565b60405180910390f35b34801561067157600080fd5b5061068c60048036038101906106879190611aaa565b611060565b005b34801561069a57600080fd5b506106b560048036038101906106b09190611cfd565b6110b5565b6040516106c29190611c2e565b60405180910390f35b3480156106d757600080fd5b506106f260048036038101906106ed9190611aaa565b61113c565b60405161070193929190611d3d565b60405180910390f35b34801561071657600080fd5b50610731600480360381019061072c9190611aaa565b611276565b005b34801561073f57600080fd5b5061075a60048036038101906107559190611aaa565b6112cb565b005b60606003805461076b90611db1565b80601f016020809104026020016040519081016040528092919081815260200182805461079790611db1565b80156107e45780601f106107b9576101008083540402835291602001916107e4565b820191906000526020600020905b8154815290600101906020018083116107c757829003601f168201915b5050505050905090565b6000600960008373ffffffffffffffffffffffffffffffffffffffff1673ffffffffffffffffffffffffffffffffffffffff168152602001908152602001600020905061083f828260000154611320565b5050565b60008061084e611476565b905061085b81858561147e565b600191505092915050565b6009602052806000526040600020600091509050806000015490806001015490806002015490806003015490806004015490806005015490806006015490806007015490806008015490806009015490508a565b600047905090565b6000600254905090565b6000806108d7611476565b90506108e4858285611647565b6108ef8585856116d3565b60019150509392505050565b600b6020528060005260406000206000915054906101000a900460ff1681565b80600660006101000a81548173ffffffffffffffffffffffffffffffffffffffff021916908373ffffffffffffffffffffffffffffffffffffffff16021790555050565b60006012905090565b600080610973611476565b905061099481858561098585896110b5565b61098f9190611e11565b61147e565b600191505092915050565b60085481565b600660009054906101000a900473ffffffffffffffffffffffffffffffffffffffff1673ffffffffffffffffffffffffffffffffffffffff163373ffffffffffffffffffffffffffffffffffffffff1614610a35576040517f08c379a0000000000000000000000000000000000000000000000000000000008152600401610a2c90611eb7565b60405180910390fd5b6008543414610a79576040517f08c379a0000000000000000000000000000000000000000000000000000000008152600401610a7090611f23565b60405180910390fd5b6001600b60003373ffffffffffffffffffffffffffffffffffffffff1673ffffffffffffffffffffffffffffffffffffffff16815260200190815260200160002060006101000a81548160ff021916908315150217905550565b6000600960008373ffffffffffffffffffffffffffffffffffffffff1673ffffffffffffffffffffffffffffffffffffffff1681526020019081526020016000209050610b416064610b336008846005015461194990919063ffffffff16565b61195f90919063ffffffff16565b81600301819055505050565b60075481565b6000600960008373ffffffffffffffffffffffffffffffffffffffff1673ffffffffffffffffffffffffffffffffffffffff1681526020019081526020016000209050610bae600c826003015461195f90919063ffffffff16565b81600401819055505050565b600560009054906101000a900473ffffffffffffffffffffffffffffffffffffffff1673ffffffffffffffffffffffffffffffffffffffff163373ffffffffffffffffffffffffffffffffffffffff1614610c4a576040517f08c379a0000000000000000000000000000000000000000000000000000000008152600401610c4190611fb5565b60405180910390fd5b600060075411610c8f576040517f08c379a0000000000000000000000000000000000000000000000000000000008152600401610c8690612021565b60405180910390fd5b600560009054906101000a900473ffffffffffffffffffffffffffffffffffffffff1673ffffffffffffffffffffffffffffffffffffffff166108fc6007549081150290604051600060405180830381858888f19350505050158015610cf9573d6000803e3d6000fd5b50565b60008060008373ffffffffffffffffffffffffffffffffffffffff1673ffffffffffffffffffffffffffffffffffffffff168152602001908152602001600020549050919050565b6000600960008373ffffffffffffffffffffffffffffffffffffffff1673ffffffffffffffffffffffffffffffffffffffff168152602001908152602001600020905080600101548160000154610d9b9190612041565b81600501819055505050565b600560009054906101000a900473ffffffffffffffffffffffffffffffffffffffff1681565b606060048054610ddc90611db1565b80601f0160208091040260200160405190810160405280929190818152602001828054610e0890611db1565b8015610e555780601f10610e2a57610100808354040283529160200191610e55565b820191906000526020600020905b815481529060010190602001808311610e3857829003601f168201915b5050505050905090565b6000600960008373ffffffffffffffffffffffffffffffffffffffff1673ffffffffffffffffffffffffffffffffffffffff1681526020019081526020016000209050610ee98160060154610edb8360090154610ecd8560080154866007015461197590919063ffffffff16565b61197590919063ffffffff16565b61197590919063ffffffff16565b81600001819055505050565b600080610f00611476565b90506000610f0e82866110b5565b905083811015610f53576040517f08c379a0000000000000000000000000000000000000000000000000000000008152600401610f4a906120f5565b60405180910390fd5b610f60828686840361147e565b60019250505092915050565b600660009054906101000a900473ffffffffffffffffffffffffffffffffffffffff1673ffffffffffffffffffffffffffffffffffffffff163373ffffffffffffffffffffffffffffffffffffffff1614610ffc576040517f08c379a0000000000000000000000000000000000000000000000000000000008152600401610ff390611eb7565b60405180910390fd5b346007600082825461100e9190611e11565b92505081905550565b600080611022611476565b905061102f8185856116d3565b600191505092915050565b600660009054906101000a900473ffffffffffffffffffffffffffffffffffffffff1681565b6000600960008373ffffffffffffffffffffffffffffffffffffffff1673ffffffffffffffffffffffffffffffffffffffff16815260200190815260200160002090506110b1828260030154611320565b5050565b6000600160008473ffffffffffffffffffffffffffffffffffffffff1673ffffffffffffffffffffffffffffffffffffffff16815260200190815260200160002060008373ffffffffffffffffffffffffffffffffffffffff1673ffffffffffffffffffffffffffffffffffffffff16815260200190815260200160002054905092915050565b600a60205280600052604060002060009150905080600001805461115f90611db1565b80601f016020809104026020016040519081016040528092919081815260200182805461118b90611db1565b80156111d85780601f106111ad576101008083540402835291602001916111d8565b820191906000526020600020905b8154815290600101906020018083116111bb57829003601f168201915b5050505050908060010180546111ed90611db1565b80601f016020809104026020016040519081016040528092919081815260200182805461121990611db1565b80156112665780601f1061123b57610100808354040283529160200191611266565b820191906000526020600020905b81548152906001019060200180831161124957829003601f168201915b5050505050908060020154905083565b6000600960008373ffffffffffffffffffffffffffffffffffffffff1673ffffffffffffffffffffffffffffffffffffffff16815260200190815260200160002090506112c7828260050154611320565b5050565b6000600960008373ffffffffffffffffffffffffffffffffffffffff1673ffffffffffffffffffffffffffffffffffffffff168152602001908152602001600020905061131c828260040154611320565b5050565b600073ffffffffffffffffffffffffffffffffffffffff168273ffffffffffffffffffffffffffffffffffffffff160361138f576040517f08c379a000000000000000000000000000000000000000000000000000000000815260040161138690612161565b60405180910390fd5b61139b6000838361198b565b80600260008282546113ad9190611e11565b92505081905550806000808473ffffffffffffffffffffffffffffffffffffffff1673ffffffffffffffffffffffffffffffffffffffff168152602001908152602001600020600082825401925050819055508173ffffffffffffffffffffffffffffffffffffffff16600073ffffffffffffffffffffffffffffffffffffffff167fddf252ad1be2c89b69c2b068fc378daa952ba7f163c4a11628f55a4df523b3ef8360405161145e9190611c2e565b60405180910390a361147260008383611990565b5050565b600033905090565b600073ffffffffffffffffffffffffffffffffffffffff168373ffffffffffffffffffffffffffffffffffffffff16036114ed576040517f08c379a00000000000000000000000000000000000000000000000000000000081526004016114e4906121f3565b60405180910390fd5b600073ffffffffffffffffffffffffffffffffffffffff168273ffffffffffffffffffffffffffffffffffffffff160361155c576040517f08c379a000000000000000000000000000000000000000000000000000000000815260040161155390612285565b60405180910390fd5b80600160008573ffffffffffffffffffffffffffffffffffffffff1673ffffffffffffffffffffffffffffffffffffffff16815260200190815260200160002060008473ffffffffffffffffffffffffffffffffffffffff1673ffffffffffffffffffffffffffffffffffffffff168152602001908152602001600020819055508173ffffffffffffffffffffffffffffffffffffffff168373ffffffffffffffffffffffffffffffffffffffff167f8c5be1e5ebec7d5bd14f71427d1e84f3dd0314c0f7b2291e5b200ac8c7c3b9258360405161163a9190611c2e565b60405180910390a3505050565b600061165384846110b5565b90507fffffffffffffffffffffffffffffffffffffffffffffffffffffffffffffffff81146116cd57818110156116bf576040517f08c379a00000000000000000000000000000000000000000000000000000000081526004016116b6906122f1565b60405180910390fd5b6116cc848484840361147e565b5b50505050565b600073ffffffffffffffffffffffffffffffffffffffff168373ffffffffffffffffffffffffffffffffffffffff1603611742576040517f08c379a000000000000000000000000000000000000000000000000000000000815260040161173990612383565b60405180910390fd5b600073ffffffffffffffffffffffffffffffffffffffff168273ffffffffffffffffffffffffffffffffffffffff16036117b1576040517f08c379a00000000000000000000000000000000000000000000000000000000081526004016117a890612415565b60405180910390fd5b6117bc83838361198b565b60008060008573ffffffffffffffffffffffffffffffffffffffff1673ffffffffffffffffffffffffffffffffffffffff16815260200190815260200160002054905081811015611842576040517f08c379a0000000000000000000000000000000000000000000000000000000008152600401611839906124a7565b60405180910390fd5b8181036000808673ffffffffffffffffffffffffffffffffffffffff1673ffffffffffffffffffffffffffffffffffffffff16815260200190815260200160002081905550816000808573ffffffffffffffffffffffffffffffffffffffff1673ffffffffffffffffffffffffffffffffffffffff168152602001908152602001600020600082825401925050819055508273ffffffffffffffffffffffffffffffffffffffff168473ffffffffffffffffffffffffffffffffffffffff167fddf252ad1be2c89b69c2b068fc378daa952ba7f163c4a11628f55a4df523b3ef846040516119309190611c2e565b60405180910390a3611943848484611990565b50505050565b600081836119579190612041565b905092915050565b6000818361196d91906124f6565b905092915050565b600081836119839190611e11565b905092915050565b505050565b505050565b600081519050919050565b600082825260208201905092915050565b60005b838110156119cf5780820151818401526020810190506119b4565b60008484015250505050565b6000601f19601f8301169050919050565b60006119f782611995565b611a0181856119a0565b9350611a118185602086016119b1565b611a1a816119db565b840191505092915050565b60006020820190508181036000830152611a3f81846119ec565b905092915050565b600080fd5b600073ffffffffffffffffffffffffffffffffffffffff82169050919050565b6000611a7782611a4c565b9050919050565b611a8781611a6c565b8114611a9257600080fd5b50565b600081359050611aa481611a7e565b92915050565b600060208284031215611ac057611abf611a47565b5b6000611ace84828501611a95565b91505092915050565b6000819050919050565b611aea81611ad7565b8114611af557600080fd5b50565b600081359050611b0781611ae1565b92915050565b60008060408385031215611b2457611b23611a47565b5b6000611b3285828601611a95565b9250506020611b4385828601611af8565b9150509250929050565b60008115159050919050565b611b6281611b4d565b82525050565b6000602082019050611b7d6000830184611b59565b92915050565b611b8c81611ad7565b82525050565b600061014082019050611ba8600083018d611b83565b611bb5602083018c611b83565b611bc2604083018b611b83565b611bcf606083018a611b83565b611bdc6080830189611b83565b611be960a0830188611b83565b611bf660c0830187611b83565b611c0360e0830186611b83565b611c11610100830185611b83565b611c1f610120830184611b83565b9b9a5050505050505050505050565b6000602082019050611c436000830184611b83565b92915050565b600080600060608486031215611c6257611c61611a47565b5b6000611c7086828701611a95565b9350506020611c8186828701611a95565b9250506040611c9286828701611af8565b9150509250925092565b600060ff82169050919050565b611cb281611c9c565b82525050565b6000602082019050611ccd6000830184611ca9565b92915050565b611cdc81611a6c565b82525050565b6000602082019050611cf76000830184611cd3565b92915050565b60008060408385031215611d1457611d13611a47565b5b6000611d2285828601611a95565b9250506020611d3385828601611a95565b9150509250929050565b60006060820190508181036000830152611d5781866119ec565b90508181036020830152611d6b81856119ec565b9050611d7a6040830184611b83565b949350505050565b7f4e487b7100000000000000000000000000000000000000000000000000000000600052602260045260246000fd5b60006002820490506001821680611dc957607f821691505b602082108103611ddc57611ddb611d82565b5b50919050565b7f4e487b7100000000000000000000000000000000000000000000000000000000600052601160045260246000fd5b6000611e1c82611ad7565b9150611e2783611ad7565b9250828201905080821115611e3f57611e3e611de2565b5b92915050565b7f4f6e6c79207468652074656e616e742063616e2063616c6c207468697320667560008201527f6e6374696f6e0000000000000000000000000000000000000000000000000000602082015250565b6000611ea16026836119a0565b9150611eac82611e45565b604082019050919050565b60006020820190508181036000830152611ed081611e94565b9050919050565b7f4465706f73697420616d6f756e7420646f6573206e6f74206d61746368000000600082015250565b6000611f0d601d836119a0565b9150611f1882611ed7565b602082019050919050565b60006020820190508181036000830152611f3c81611f00565b9050919050565b7f4f6e6c7920746865206f776e65722063616e2063616c6c20746869732066756e60008201527f6374696f6e000000000000000000000000000000000000000000000000000000602082015250565b6000611f9f6025836119a0565b9150611faa82611f43565b604082019050919050565b60006020820190508181036000830152611fce81611f92565b9050919050565b7f4e6f2072656e7420617661696c61626c6520746f207769746864726177000000600082015250565b600061200b601d836119a0565b915061201682611fd5565b602082019050919050565b6000602082019050818103600083015261203a81611ffe565b9050919050565b600061204c82611ad7565b915061205783611ad7565b925082820261206581611ad7565b9150828204841483151761207c5761207b611de2565b5b5092915050565b7f45524332303a2064656372656173656420616c6c6f77616e63652062656c6f7760008201527f207a65726f000000000000000000000000000000000000000000000000000000602082015250565b60006120df6025836119a0565b91506120ea82612083565b604082019050919050565b6000602082019050818103600083015261210e816120d2565b9050919050565b7f45524332303a206d696e7420746f20746865207a65726f206164647265737300600082015250565b600061214b601f836119a0565b915061215682612115565b602082019050919050565b6000602082019050818103600083015261217a8161213e565b9050919050565b7f45524332303a20617070726f76652066726f6d20746865207a65726f2061646460008201527f7265737300000000000000000000000000000000000000000000000000000000602082015250565b60006121dd6024836119a0565b91506121e882612181565b604082019050919050565b6000602082019050818103600083015261220c816121d0565b9050919050565b7f45524332303a20617070726f766520746f20746865207a65726f20616464726560008201527f7373000000000000000000000000000000000000000000000000000000000000602082015250565b600061226f6022836119a0565b915061227a82612213565b604082019050919050565b6000602082019050818103600083015261229e81612262565b9050919050565b7f45524332303a20696e73756666696369656e7420616c6c6f77616e6365000000600082015250565b60006122db601d836119a0565b91506122e6826122a5565b602082019050919050565b6000602082019050818103600083015261230a816122ce565b9050919050565b7f45524332303a207472616e736665722066726f6d20746865207a65726f20616460008201527f6472657373000000000000000000000000000000000000000000000000000000602082015250565b600061236d6025836119a0565b915061237882612311565b604082019050919050565b6000602082019050818103600083015261239c81612360565b9050919050565b7f45524332303a207472616e7366657220746f20746865207a65726f206164647260008201527f6573730000000000000000000000000000000000000000000000000000000000602082015250565b60006123ff6023836119a0565b915061240a826123a3565b604082019050919050565b6000602082019050818103600083015261242e816123f2565b9050919050565b7f45524332303a207472616e7366657220616d6f756e742065786365656473206260008201527f616c616e63650000000000000000000000000000000000000000000000000000602082015250565b60006124916026836119a0565b915061249c82612435565b604082019050919050565b600060208201905081810360008301526124c081612484565b9050919050565b7f4e487b7100000000000000000000000000000000000000000000000000000000600052601260045260246000fd5b600061250182611ad7565b915061250c83611ad7565b92508261251c5761251b6124c7565b5b82820490509291505056fea2646970667358221220c7e1a71441649abcb034c22a12eb1b4bac97a18bb8029de0888bfd1d45523c4164736f6c63430008120033",
			"opcodes": "PUSH1 0x80 PUSH1 0x40 MSTORE PUSH8 0xDE0B6B3A7640000 PUSH1 0x8 SSTORE CALLVALUE DUP1 ISZERO PUSH3 0x1D JUMPI PUSH1 0x0 DUP1 REVERT JUMPDEST POP PUSH1 0x40 MLOAD DUP1 PUSH1 0x40 ADD PUSH1 0x40 MSTORE DUP1 PUSH1 0xF DUP2 MSTORE PUSH1 0x20 ADD PUSH32 0x5265616C457374617465546F6B656E0000000000000000000000000000000000 DUP2 MSTORE POP PUSH1 0x40 MLOAD DUP1 PUSH1 0x40 ADD PUSH1 0x40 MSTORE DUP1 PUSH1 0x3 DUP2 MSTORE PUSH1 0x20 ADD PUSH32 0x5245540000000000000000000000000000000000000000000000000000000000 DUP2 MSTORE POP DUP2 PUSH1 0x3 SWAP1 DUP2 PUSH3 0x9B SWAP2 SWAP1 PUSH3 0x371 JUMP JUMPDEST POP DUP1 PUSH1 0x4 SWAP1 DUP2 PUSH3 0xAD SWAP2 SWAP1 PUSH3 0x371 JUMP JUMPDEST POP POP POP CALLER PUSH1 0x5 PUSH1 0x0 PUSH2 0x100 EXP DUP2 SLOAD DUP2 PUSH20 0xFFFFFFFFFFFFFFFFFFFFFFFFFFFFFFFFFFFFFFFF MUL NOT AND SWAP1 DUP4 PUSH20 0xFFFFFFFFFFFFFFFFFFFFFFFFFFFFFFFFFFFFFFFF AND MUL OR SWAP1 SSTORE POP PUSH3 0x458 JUMP JUMPDEST PUSH1 0x0 DUP2 MLOAD SWAP1 POP SWAP2 SWAP1 POP JUMP JUMPDEST PUSH32 0x4E487B7100000000000000000000000000000000000000000000000000000000 PUSH1 0x0 MSTORE PUSH1 0x41 PUSH1 0x4 MSTORE PUSH1 0x24 PUSH1 0x0 REVERT JUMPDEST PUSH32 0x4E487B7100000000000000000000000000000000000000000000000000000000 PUSH1 0x0 MSTORE PUSH1 0x22 PUSH1 0x4 MSTORE PUSH1 0x24 PUSH1 0x0 REVERT JUMPDEST PUSH1 0x0 PUSH1 0x2 DUP3 DIV SWAP1 POP PUSH1 0x1 DUP3 AND DUP1 PUSH3 0x179 JUMPI PUSH1 0x7F DUP3 AND SWAP2 POP JUMPDEST PUSH1 0x20 DUP3 LT DUP2 SUB PUSH3 0x18F JUMPI PUSH3 0x18E PUSH3 0x131 JUMP JUMPDEST JUMPDEST POP SWAP2 SWAP1 POP JUMP JUMPDEST PUSH1 0x0 DUP2 SWAP1 POP DUP2 PUSH1 0x0 MSTORE PUSH1 0x20 PUSH1 0x0 KECCAK256 SWAP1 POP SWAP2 SWAP1 POP JUMP JUMPDEST PUSH1 0x0 PUSH1 0x20 PUSH1 0x1F DUP4 ADD DIV SWAP1 POP SWAP2 SWAP1 POP JUMP JUMPDEST PUSH1 0x0 DUP3 DUP3 SHL SWAP1 POP SWAP3 SWAP2 POP POP JUMP JUMPDEST PUSH1 0x0 PUSH1 0x8 DUP4 MUL PUSH3 0x1F9 PUSH32 0xFFFFFFFFFFFFFFFFFFFFFFFFFFFFFFFFFFFFFFFFFFFFFFFFFFFFFFFFFFFFFFFF DUP3 PUSH3 0x1BA JUMP JUMPDEST PUSH3 0x205 DUP7 DUP4 PUSH3 0x1BA JUMP JUMPDEST SWAP6 POP DUP1 NOT DUP5 AND SWAP4 POP DUP1 DUP7 AND DUP5 OR SWAP3 POP POP POP SWAP4 SWAP3 POP POP POP JUMP JUMPDEST PUSH1 0x0 DUP2 SWAP1 POP SWAP2 SWAP1 POP JUMP JUMPDEST PUSH1 0x0 DUP2 SWAP1 POP SWAP2 SWAP1 POP JUMP JUMPDEST PUSH1 0x0 PUSH3 0x252 PUSH3 0x24C PUSH3 0x246 DUP5 PUSH3 0x21D JUMP JUMPDEST PUSH3 0x227 JUMP JUMPDEST PUSH3 0x21D JUMP JUMPDEST SWAP1 POP SWAP2 SWAP1 POP JUMP JUMPDEST PUSH1 0x0 DUP2 SWAP1 POP SWAP2 SWAP1 POP JUMP JUMPDEST PUSH3 0x26E DUP4 PUSH3 0x231 JUMP JUMPDEST PUSH3 0x286 PUSH3 0x27D DUP3 PUSH3 0x259 JUMP JUMPDEST DUP5 DUP5 SLOAD PUSH3 0x1C7 JUMP JUMPDEST DUP3 SSTORE POP POP POP POP JUMP JUMPDEST PUSH1 0x0 SWAP1 JUMP JUMPDEST PUSH3 0x29D PUSH3 0x28E JUMP JUMPDEST PUSH3 0x2AA DUP2 DUP5 DUP5 PUSH3 0x263 JUMP JUMPDEST POP POP POP JUMP JUMPDEST JUMPDEST DUP2 DUP2 LT ISZERO PUSH3 0x2D2 JUMPI PUSH3 0x2C6 PUSH1 0x0 DUP3 PUSH3 0x293 JUMP JUMPDEST PUSH1 0x1 DUP2 ADD SWAP1 POP PUSH3 0x2B0 JUMP JUMPDEST POP POP JUMP JUMPDEST PUSH1 0x1F DUP3 GT ISZERO PUSH3 0x321 JUMPI PUSH3 0x2EB DUP2 PUSH3 0x195 JUMP JUMPDEST PUSH3 0x2F6 DUP5 PUSH3 0x1AA JUMP JUMPDEST DUP2 ADD PUSH1 0x20 DUP6 LT ISZERO PUSH3 0x306 JUMPI DUP2 SWAP1 POP JUMPDEST PUSH3 0x31E PUSH3 0x315 DUP6 PUSH3 0x1AA JUMP JUMPDEST DUP4 ADD DUP3 PUSH3 0x2AF JUMP JUMPDEST POP POP JUMPDEST POP POP POP JUMP JUMPDEST PUSH1 0x0 DUP3 DUP3 SHR SWAP1 POP SWAP3 SWAP2 POP POP JUMP JUMPDEST PUSH1 0x0 PUSH3 0x346 PUSH1 0x0 NOT DUP5 PUSH1 0x8 MUL PUSH3 0x326 JUMP JUMPDEST NOT DUP1 DUP4 AND SWAP2 POP POP SWAP3 SWAP2 POP POP JUMP JUMPDEST PUSH1 0x0 PUSH3 0x361 DUP4 DUP4 PUSH3 0x333 JUMP JUMPDEST SWAP2 POP DUP3 PUSH1 0x2 MUL DUP3 OR SWAP1 POP SWAP3 SWAP2 POP POP JUMP JUMPDEST PUSH3 0x37C DUP3 PUSH3 0xF7 JUMP JUMPDEST PUSH8 0xFFFFFFFFFFFFFFFF DUP2 GT ISZERO PUSH3 0x398 JUMPI PUSH3 0x397 PUSH3 0x102 JUMP JUMPDEST JUMPDEST PUSH3 0x3A4 DUP3 SLOAD PUSH3 0x160 JUMP JUMPDEST PUSH3 0x3B1 DUP3 DUP3 DUP6 PUSH3 0x2D6 JUMP JUMPDEST PUSH1 0x0 PUSH1 0x20 SWAP1 POP PUSH1 0x1F DUP4 GT PUSH1 0x1 DUP2 EQ PUSH3 0x3E9 JUMPI PUSH1 0x0 DUP5 ISZERO PUSH3 0x3D4 JUMPI DUP3 DUP8 ADD MLOAD SWAP1 POP JUMPDEST PUSH3 0x3E0 DUP6 DUP3 PUSH3 0x353 JUMP JUMPDEST DUP7 SSTORE POP PUSH3 0x450 JUMP JUMPDEST PUSH1 0x1F NOT DUP5 AND PUSH3 0x3F9 DUP7 PUSH3 0x195 JUMP JUMPDEST PUSH1 0x0 JUMPDEST DUP3 DUP2 LT ISZERO PUSH3 0x423 JUMPI DUP5 DUP10 ADD MLOAD DUP3 SSTORE PUSH1 0x1 DUP3 ADD SWAP2 POP PUSH1 0x20 DUP6 ADD SWAP5 POP PUSH1 0x20 DUP2 ADD SWAP1 POP PUSH3 0x3FC JUMP JUMPDEST DUP7 DUP4 LT ISZERO PUSH3 0x443 JUMPI DUP5 DUP10 ADD MLOAD PUSH3 0x43F PUSH1 0x1F DUP10 AND DUP3 PUSH3 0x333 JUMP JUMPDEST DUP4 SSTORE POP JUMPDEST PUSH1 0x1 PUSH1 0x2 DUP9 MUL ADD DUP9 SSTORE POP POP POP JUMPDEST POP POP POP POP POP POP JUMP JUMPDEST PUSH2 0x255D DUP1 PUSH3 0x468 PUSH1 0x0 CODECOPY PUSH1 0x0 RETURN INVALID PUSH1 0x80 PUSH1 0x40 MSTORE PUSH1 0x4 CALLDATASIZE LT PUSH2 0x1D8 JUMPI PUSH1 0x0 CALLDATALOAD PUSH1 0xE0 SHR DUP1 PUSH4 0x575E6CEC GT PUSH2 0x102 JUMPI DUP1 PUSH4 0xA709C4FE GT PUSH2 0x95 JUMPI DUP1 PUSH4 0xDD62ED3E GT PUSH2 0x64 JUMPI DUP1 PUSH4 0xDD62ED3E EQ PUSH2 0x68E JUMPI DUP1 PUSH4 0xE01FE4C3 EQ PUSH2 0x6CB JUMPI DUP1 PUSH4 0xF857F752 EQ PUSH2 0x70A JUMPI DUP1 PUSH4 0xFCF8F422 EQ PUSH2 0x733 JUMPI PUSH2 0x1D8 JUMP JUMPDEST DUP1 PUSH4 0xA709C4FE EQ PUSH2 0x5F3 JUMPI DUP1 PUSH4 0xA9059CBB EQ PUSH2 0x5FD JUMPI DUP1 PUSH4 0xADF07791 EQ PUSH2 0x63A JUMPI DUP1 PUSH4 0xBEEE50F7 EQ PUSH2 0x665 JUMPI PUSH2 0x1D8 JUMP JUMPDEST DUP1 PUSH4 0x8DA5CB5B GT PUSH2 0xD1 JUMPI DUP1 PUSH4 0x8DA5CB5B EQ PUSH2 0x537 JUMPI DUP1 PUSH4 0x95D89B41 EQ PUSH2 0x562 JUMPI DUP1 PUSH4 0x976F5F61 EQ PUSH2 0x58D JUMPI DUP1 PUSH4 0xA457C2D7 EQ PUSH2 0x5B6 JUMPI PUSH2 0x1D8 JUMP JUMPDEST DUP1 PUSH4 0x575E6CEC EQ PUSH2 0x49E JUMPI DUP1 PUSH4 0x6322182E EQ PUSH2 0x4C7 JUMPI DUP1 PUSH4 0x70A08231 EQ PUSH2 0x4D1 JUMPI DUP1 PUSH4 0x88E20ABB EQ PUSH2 0x50E JUMPI PUSH2 0x1D8 JUMP JUMPDEST DUP1 PUSH4 0x255DBB53 GT PUSH2 0x17A JUMPI DUP1 PUSH4 0x419759F5 GT PUSH2 0x149 JUMPI DUP1 PUSH4 0x419759F5 EQ PUSH2 0x415 JUMPI DUP1 PUSH4 0x42C63DAE EQ PUSH2 0x440 JUMPI DUP1 PUSH4 0x44BA41DB EQ PUSH2 0x44A JUMPI DUP1 PUSH4 0x4B7851F7 EQ PUSH2 0x473 JUMPI PUSH2 0x1D8 JUMP JUMPDEST DUP1 PUSH4 0x255DBB53 EQ PUSH2 0x347 JUMPI DUP1 PUSH4 0x2E74A4DE EQ PUSH2 0x384 JUMPI DUP1 PUSH4 0x313CE567 EQ PUSH2 0x3AD JUMPI DUP1 PUSH4 0x39509351 EQ PUSH2 0x3D8 JUMPI PUSH2 0x1D8 JUMP JUMPDEST DUP1 PUSH4 0xDF9C426 GT PUSH2 0x1B6 JUMPI DUP1 PUSH4 0xDF9C426 EQ PUSH2 0x26E JUMPI DUP1 PUSH4 0x12065FE0 EQ PUSH2 0x2B4 JUMPI DUP1 PUSH4 0x18160DDD EQ PUSH2 0x2DF JUMPI DUP1 PUSH4 0x23B872DD EQ PUSH2 0x30A JUMPI PUSH2 0x1D8 JUMP JUMPDEST DUP1 PUSH4 0x6FDDE03 EQ PUSH2 0x1DD JUMPI DUP1 PUSH4 0x89A6115 EQ PUSH2 0x208 JUMPI DUP1 PUSH4 0x95EA7B3 EQ PUSH2 0x231 JUMPI JUMPDEST PUSH1 0x0 DUP1 REVERT JUMPDEST CALLVALUE DUP1 ISZERO PUSH2 0x1E9 JUMPI PUSH1 0x0 DUP1 REVERT JUMPDEST POP PUSH2 0x1F2 PUSH2 0x75C JUMP JUMPDEST PUSH1 0x40 MLOAD PUSH2 0x1FF SWAP2 SWAP1 PUSH2 0x1A25 JUMP JUMPDEST PUSH1 0x40 MLOAD DUP1 SWAP2 SUB SWAP1 RETURN JUMPDEST CALLVALUE DUP1 ISZERO PUSH2 0x214 JUMPI PUSH1 0x0 DUP1 REVERT JUMPDEST POP PUSH2 0x22F PUSH1 0x4 DUP1 CALLDATASIZE SUB DUP2 ADD SWAP1 PUSH2 0x22A SWAP2 SWAP1 PUSH2 0x1AAA JUMP JUMPDEST PUSH2 0x7EE JUMP JUMPDEST STOP JUMPDEST CALLVALUE DUP1 ISZERO PUSH2 0x23D JUMPI PUSH1 0x0 DUP1 REVERT JUMPDEST POP PUSH2 0x258 PUSH1 0x4 DUP1 CALLDATASIZE SUB DUP2 ADD SWAP1 PUSH2 0x253 SWAP2 SWAP1 PUSH2 0x1B0D JUMP JUMPDEST PUSH2 0x843 JUMP JUMPDEST PUSH1 0x40 MLOAD PUSH2 0x265 SWAP2 SWAP1 PUSH2 0x1B68 JUMP JUMPDEST PUSH1 0x40 MLOAD DUP1 SWAP2 SUB SWAP1 RETURN JUMPDEST CALLVALUE DUP1 ISZERO PUSH2 0x27A JUMPI PUSH1 0x0 DUP1 REVERT JUMPDEST POP PUSH2 0x295 PUSH1 0x4 DUP1 CALLDATASIZE SUB DUP2 ADD SWAP1 PUSH2 0x290 SWAP2 SWAP1 PUSH2 0x1AAA JUMP JUMPDEST PUSH2 0x866 JUMP JUMPDEST PUSH1 0x40 MLOAD PUSH2 0x2AB SWAP11 SWAP10 SWAP9 SWAP8 SWAP7 SWAP6 SWAP5 SWAP4 SWAP3 SWAP2 SWAP1 PUSH2 0x1B92 JUMP JUMPDEST PUSH1 0x40 MLOAD DUP1 SWAP2 SUB SWAP1 RETURN JUMPDEST CALLVALUE DUP1 ISZERO PUSH2 0x2C0 JUMPI PUSH1 0x0 DUP1 REVERT JUMPDEST POP PUSH2 0x2C9 PUSH2 0x8BA JUMP JUMPDEST PUSH1 0x40 MLOAD PUSH2 0x2D6 SWAP2 SWAP1 PUSH2 0x1C2E JUMP JUMPDEST PUSH1 0x40 MLOAD DUP1 SWAP2 SUB SWAP1 RETURN JUMPDEST CALLVALUE DUP1 ISZERO PUSH2 0x2EB JUMPI PUSH1 0x0 DUP1 REVERT JUMPDEST POP PUSH2 0x2F4 PUSH2 0x8C2 JUMP JUMPDEST PUSH1 0x40 MLOAD PUSH2 0x301 SWAP2 SWAP1 PUSH2 0x1C2E JUMP JUMPDEST PUSH1 0x40 MLOAD DUP1 SWAP2 SUB SWAP1 RETURN JUMPDEST CALLVALUE DUP1 ISZERO PUSH2 0x316 JUMPI PUSH1 0x0 DUP1 REVERT JUMPDEST POP PUSH2 0x331 PUSH1 0x4 DUP1 CALLDATASIZE SUB DUP2 ADD SWAP1 PUSH2 0x32C SWAP2 SWAP1 PUSH2 0x1C49 JUMP JUMPDEST PUSH2 0x8CC JUMP JUMPDEST PUSH1 0x40 MLOAD PUSH2 0x33E SWAP2 SWAP1 PUSH2 0x1B68 JUMP JUMPDEST PUSH1 0x40 MLOAD DUP1 SWAP2 SUB SWAP1 RETURN JUMPDEST CALLVALUE DUP1 ISZERO PUSH2 0x353 JUMPI PUSH1 0x0 DUP1 REVERT JUMPDEST POP PUSH2 0x36E PUSH1 0x4 DUP1 CALLDATASIZE SUB DUP2 ADD SWAP1 PUSH2 0x369 SWAP2 SWAP1 PUSH2 0x1AAA JUMP JUMPDEST PUSH2 0x8FB JUMP JUMPDEST PUSH1 0x40 MLOAD PUSH2 0x37B SWAP2 SWAP1 PUSH2 0x1B68 JUMP JUMPDEST PUSH1 0x40 MLOAD DUP1 SWAP2 SUB SWAP1 RETURN JUMPDEST CALLVALUE DUP1 ISZERO PUSH2 0x390 JUMPI PUSH1 0x0 DUP1 REVERT JUMPDEST POP PUSH2 0x3AB PUSH1 0x4 DUP1 CALLDATASIZE SUB DUP2 ADD SWAP1 PUSH2 0x3A6 SWAP2 SWAP1 PUSH2 0x1AAA JUMP JUMPDEST PUSH2 0x91B JUMP JUMPDEST STOP JUMPDEST CALLVALUE DUP1 ISZERO PUSH2 0x3B9 JUMPI PUSH1 0x0 DUP1 REVERT JUMPDEST POP PUSH2 0x3C2 PUSH2 0x95F JUMP JUMPDEST PUSH1 0x40 MLOAD PUSH2 0x3CF SWAP2 SWAP1 PUSH2 0x1CB8 JUMP JUMPDEST PUSH1 0x40 MLOAD DUP1 SWAP2 SUB SWAP1 RETURN JUMPDEST CALLVALUE DUP1 ISZERO PUSH2 0x3E4 JUMPI PUSH1 0x0 DUP1 REVERT JUMPDEST POP PUSH2 0x3FF PUSH1 0x4 DUP1 CALLDATASIZE SUB DUP2 ADD SWAP1 PUSH2 0x3FA SWAP2 SWAP1 PUSH2 0x1B0D JUMP JUMPDEST PUSH2 0x968 JUMP JUMPDEST PUSH1 0x40 MLOAD PUSH2 0x40C SWAP2 SWAP1 PUSH2 0x1B68 JUMP JUMPDEST PUSH1 0x40 MLOAD DUP1 SWAP2 SUB SWAP1 RETURN JUMPDEST CALLVALUE DUP1 ISZERO PUSH2 0x421 JUMPI PUSH1 0x0 DUP1 REVERT JUMPDEST POP PUSH2 0x42A PUSH2 0x99F JUMP JUMPDEST PUSH1 0x40 MLOAD PUSH2 0x437 SWAP2 SWAP1 PUSH2 0x1C2E JUMP JUMPDEST PUSH1 0x40 MLOAD DUP1 SWAP2 SUB SWAP1 RETURN JUMPDEST PUSH2 0x448 PUSH2 0x9A5 JUMP JUMPDEST STOP JUMPDEST CALLVALUE DUP1 ISZERO PUSH2 0x456 JUMPI PUSH1 0x0 DUP1 REVERT JUMPDEST POP PUSH2 0x471 PUSH1 0x4 DUP1 CALLDATASIZE SUB DUP2 ADD SWAP1 PUSH2 0x46C SWAP2 SWAP1 PUSH2 0x1AAA JUMP JUMPDEST PUSH2 0xAD3 JUMP JUMPDEST STOP JUMPDEST CALLVALUE DUP1 ISZERO PUSH2 0x47F JUMPI PUSH1 0x0 DUP1 REVERT JUMPDEST POP PUSH2 0x488 PUSH2 0xB4D JUMP JUMPDEST PUSH1 0x40 MLOAD PUSH2 0x495 SWAP2 SWAP1 PUSH2 0x1C2E JUMP JUMPDEST PUSH1 0x40 MLOAD DUP1 SWAP2 SUB SWAP1 RETURN JUMPDEST CALLVALUE DUP1 ISZERO PUSH2 0x4AA JUMPI PUSH1 0x0 DUP1 REVERT JUMPDEST POP PUSH2 0x4C5 PUSH1 0x4 DUP1 CALLDATASIZE SUB DUP2 ADD SWAP1 PUSH2 0x4C0 SWAP2 SWAP1 PUSH2 0x1AAA JUMP JUMPDEST PUSH2 0xB53 JUMP JUMPDEST STOP JUMPDEST PUSH2 0x4CF PUSH2 0xBBA JUMP JUMPDEST STOP JUMPDEST CALLVALUE DUP1 ISZERO PUSH2 0x4DD JUMPI PUSH1 0x0 DUP1 REVERT JUMPDEST POP PUSH2 0x4F8 PUSH1 0x4 DUP1 CALLDATASIZE SUB DUP2 ADD SWAP1 PUSH2 0x4F3 SWAP2 SWAP1 PUSH2 0x1AAA JUMP JUMPDEST PUSH2 0xCFC JUMP JUMPDEST PUSH1 0x40 MLOAD PUSH2 0x505 SWAP2 SWAP1 PUSH2 0x1C2E JUMP JUMPDEST PUSH1 0x40 MLOAD DUP1 SWAP2 SUB SWAP1 RETURN JUMPDEST CALLVALUE DUP1 ISZERO PUSH2 0x51A JUMPI PUSH1 0x0 DUP1 REVERT JUMPDEST POP PUSH2 0x535 PUSH1 0x4 DUP1 CALLDATASIZE SUB DUP2 ADD SWAP1 PUSH2 0x530 SWAP2 SWAP1 PUSH2 0x1AAA JUMP JUMPDEST PUSH2 0xD44 JUMP JUMPDEST STOP JUMPDEST CALLVALUE DUP1 ISZERO PUSH2 0x543 JUMPI PUSH1 0x0 DUP1 REVERT JUMPDEST POP PUSH2 0x54C PUSH2 0xDA7 JUMP JUMPDEST PUSH1 0x40 MLOAD PUSH2 0x559 SWAP2 SWAP1 PUSH2 0x1CE2 JUMP JUMPDEST PUSH1 0x40 MLOAD DUP1 SWAP2 SUB SWAP1 RETURN JUMPDEST CALLVALUE DUP1 ISZERO PUSH2 0x56E JUMPI PUSH1 0x0 DUP1 REVERT JUMPDEST POP PUSH2 0x577 PUSH2 0xDCD JUMP JUMPDEST PUSH1 0x40 MLOAD PUSH2 0x584 SWAP2 SWAP1 PUSH2 0x1A25 JUMP JUMPDEST PUSH1 0x40 MLOAD DUP1 SWAP2 SUB SWAP1 RETURN JUMPDEST CALLVALUE DUP1 ISZERO PUSH2 0x599 JUMPI PUSH1 0x0 DUP1 REVERT JUMPDEST POP PUSH2 0x5B4 PUSH1 0x4 DUP1 CALLDATASIZE SUB DUP2 ADD SWAP1 PUSH2 0x5AF SWAP2 SWAP1 PUSH2 0x1AAA JUMP JUMPDEST PUSH2 0xE5F JUMP JUMPDEST STOP JUMPDEST CALLVALUE DUP1 ISZERO PUSH2 0x5C2 JUMPI PUSH1 0x0 DUP1 REVERT JUMPDEST POP PUSH2 0x5DD PUSH1 0x4 DUP1 CALLDATASIZE SUB DUP2 ADD SWAP1 PUSH2 0x5D8 SWAP2 SWAP1 PUSH2 0x1B0D JUMP JUMPDEST PUSH2 0xEF5 JUMP JUMPDEST PUSH1 0x40 MLOAD PUSH2 0x5EA SWAP2 SWAP1 PUSH2 0x1B68 JUMP JUMPDEST PUSH1 0x40 MLOAD DUP1 SWAP2 SUB SWAP1 RETURN JUMPDEST PUSH2 0x5FB PUSH2 0xF6C JUMP JUMPDEST STOP JUMPDEST CALLVALUE DUP1 ISZERO PUSH2 0x609 JUMPI PUSH1 0x0 DUP1 REVERT JUMPDEST POP PUSH2 0x624 PUSH1 0x4 DUP1 CALLDATASIZE SUB DUP2 ADD SWAP1 PUSH2 0x61F SWAP2 SWAP1 PUSH2 0x1B0D JUMP JUMPDEST PUSH2 0x1017 JUMP JUMPDEST PUSH1 0x40 MLOAD PUSH2 0x631 SWAP2 SWAP1 PUSH2 0x1B68 JUMP JUMPDEST PUSH1 0x40 MLOAD DUP1 SWAP2 SUB SWAP1 RETURN JUMPDEST CALLVALUE DUP1 ISZERO PUSH2 0x646 JUMPI PUSH1 0x0 DUP1 REVERT JUMPDEST POP PUSH2 0x64F PUSH2 0x103A JUMP JUMPDEST PUSH1 0x40 MLOAD PUSH2 0x65C SWAP2 SWAP1 PUSH2 0x1CE2 JUMP JUMPDEST PUSH1 0x40 MLOAD DUP1 SWAP2 SUB SWAP1 RETURN JUMPDEST CALLVALUE DUP1 ISZERO PUSH2 0x671 JUMPI PUSH1 0x0 DUP1 REVERT JUMPDEST POP PUSH2 0x68C PUSH1 0x4 DUP1 CALLDATASIZE SUB DUP2 ADD SWAP1 PUSH2 0x687 SWAP2 SWAP1 PUSH2 0x1AAA JUMP JUMPDEST PUSH2 0x1060 JUMP JUMPDEST STOP JUMPDEST CALLVALUE DUP1 ISZERO PUSH2 0x69A JUMPI PUSH1 0x0 DUP1 REVERT JUMPDEST POP PUSH2 0x6B5 PUSH1 0x4 DUP1 CALLDATASIZE SUB DUP2 ADD SWAP1 PUSH2 0x6B0 SWAP2 SWAP1 PUSH2 0x1CFD JUMP JUMPDEST PUSH2 0x10B5 JUMP JUMPDEST PUSH1 0x40 MLOAD PUSH2 0x6C2 SWAP2 SWAP1 PUSH2 0x1C2E JUMP JUMPDEST PUSH1 0x40 MLOAD DUP1 SWAP2 SUB SWAP1 RETURN JUMPDEST CALLVALUE DUP1 ISZERO PUSH2 0x6D7 JUMPI PUSH1 0x0 DUP1 REVERT JUMPDEST POP PUSH2 0x6F2 PUSH1 0x4 DUP1 CALLDATASIZE SUB DUP2 ADD SWAP1 PUSH2 0x6ED SWAP2 SWAP1 PUSH2 0x1AAA JUMP JUMPDEST PUSH2 0x113C JUMP JUMPDEST PUSH1 0x40 MLOAD PUSH2 0x701 SWAP4 SWAP3 SWAP2 SWAP1 PUSH2 0x1D3D JUMP JUMPDEST PUSH1 0x40 MLOAD DUP1 SWAP2 SUB SWAP1 RETURN JUMPDEST CALLVALUE DUP1 ISZERO PUSH2 0x716 JUMPI PUSH1 0x0 DUP1 REVERT JUMPDEST POP PUSH2 0x731 PUSH1 0x4 DUP1 CALLDATASIZE SUB DUP2 ADD SWAP1 PUSH2 0x72C SWAP2 SWAP1 PUSH2 0x1AAA JUMP JUMPDEST PUSH2 0x1276 JUMP JUMPDEST STOP JUMPDEST CALLVALUE DUP1 ISZERO PUSH2 0x73F JUMPI PUSH1 0x0 DUP1 REVERT JUMPDEST POP PUSH2 0x75A PUSH1 0x4 DUP1 CALLDATASIZE SUB DUP2 ADD SWAP1 PUSH2 0x755 SWAP2 SWAP1 PUSH2 0x1AAA JUMP JUMPDEST PUSH2 0x12CB JUMP JUMPDEST STOP JUMPDEST PUSH1 0x60 PUSH1 0x3 DUP1 SLOAD PUSH2 0x76B SWAP1 PUSH2 0x1DB1 JUMP JUMPDEST DUP1 PUSH1 0x1F ADD PUSH1 0x20 DUP1 SWAP2 DIV MUL PUSH1 0x20 ADD PUSH1 0x40 MLOAD SWAP1 DUP2 ADD PUSH1 0x40 MSTORE DUP1 SWAP3 SWAP2 SWAP1 DUP2 DUP2 MSTORE PUSH1 0x20 ADD DUP3 DUP1 SLOAD PUSH2 0x797 SWAP1 PUSH2 0x1DB1 JUMP JUMPDEST DUP1 ISZERO PUSH2 0x7E4 JUMPI DUP1 PUSH1 0x1F LT PUSH2 0x7B9 JUMPI PUSH2 0x100 DUP1 DUP4 SLOAD DIV MUL DUP4 MSTORE SWAP2 PUSH1 0x20 ADD SWAP2 PUSH2 0x7E4 JUMP JUMPDEST DUP3 ADD SWAP2 SWAP1 PUSH1 0x0 MSTORE PUSH1 0x20 PUSH1 0x0 KECCAK256 SWAP1 JUMPDEST DUP2 SLOAD DUP2 MSTORE SWAP1 PUSH1 0x1 ADD SWAP1 PUSH1 0x20 ADD DUP1 DUP4 GT PUSH2 0x7C7 JUMPI DUP3 SWAP1 SUB PUSH1 0x1F AND DUP3 ADD SWAP2 JUMPDEST POP POP POP POP POP SWAP1 POP SWAP1 JUMP JUMPDEST PUSH1 0x0 PUSH1 0x9 PUSH1 0x0 DUP4 PUSH20 0xFFFFFFFFFFFFFFFFFFFFFFFFFFFFFFFFFFFFFFFF AND PUSH20 0xFFFFFFFFFFFFFFFFFFFFFFFFFFFFFFFFFFFFFFFF AND DUP2 MSTORE PUSH1 0x20 ADD SWAP1 DUP2 MSTORE PUSH1 0x20 ADD PUSH1 0x0 KECCAK256 SWAP1 POP PUSH2 0x83F DUP3 DUP3 PUSH1 0x0 ADD SLOAD PUSH2 0x1320 JUMP JUMPDEST POP POP JUMP JUMPDEST PUSH1 0x0 DUP1 PUSH2 0x84E PUSH2 0x1476 JUMP JUMPDEST SWAP1 POP PUSH2 0x85B DUP2 DUP6 DUP6 PUSH2 0x147E JUMP JUMPDEST PUSH1 0x1 SWAP2 POP POP SWAP3 SWAP2 POP POP JUMP JUMPDEST PUSH1 0x9 PUSH1 0x20 MSTORE DUP1 PUSH1 0x0 MSTORE PUSH1 0x40 PUSH1 0x0 KECCAK256 PUSH1 0x0 SWAP2 POP SWAP1 POP DUP1 PUSH1 0x0 ADD SLOAD SWAP1 DUP1 PUSH1 0x1 ADD SLOAD SWAP1 DUP1 PUSH1 0x2 ADD SLOAD SWAP1 DUP1 PUSH1 0x3 ADD SLOAD SWAP1 DUP1 PUSH1 0x4 ADD SLOAD SWAP1 DUP1 PUSH1 0x5 ADD SLOAD SWAP1 DUP1 PUSH1 0x6 ADD SLOAD SWAP1 DUP1 PUSH1 0x7 ADD SLOAD SWAP1 DUP1 PUSH1 0x8 ADD SLOAD SWAP1 DUP1 PUSH1 0x9 ADD SLOAD SWAP1 POP DUP11 JUMP JUMPDEST PUSH1 0x0 SELFBALANCE SWAP1 POP SWAP1 JUMP JUMPDEST PUSH1 0x0 PUSH1 0x2 SLOAD SWAP1 POP SWAP1 JUMP JUMPDEST PUSH1 0x0 DUP1 PUSH2 0x8D7 PUSH2 0x1476 JUMP JUMPDEST SWAP1 POP PUSH2 0x8E4 DUP6 DUP3 DUP6 PUSH2 0x1647 JUMP JUMPDEST PUSH2 0x8EF DUP6 DUP6 DUP6 PUSH2 0x16D3 JUMP JUMPDEST PUSH1 0x1 SWAP2 POP POP SWAP4 SWAP3 POP POP POP JUMP JUMPDEST PUSH1 0xB PUSH1 0x20 MSTORE DUP1 PUSH1 0x0 MSTORE PUSH1 0x40 PUSH1 0x0 KECCAK256 PUSH1 0x0 SWAP2 POP SLOAD SWAP1 PUSH2 0x100 EXP SWAP1 DIV PUSH1 0xFF AND DUP2 JUMP JUMPDEST DUP1 PUSH1 0x6 PUSH1 0x0 PUSH2 0x100 EXP DUP2 SLOAD DUP2 PUSH20 0xFFFFFFFFFFFFFFFFFFFFFFFFFFFFFFFFFFFFFFFF MUL NOT AND SWAP1 DUP4 PUSH20 0xFFFFFFFFFFFFFFFFFFFFFFFFFFFFFFFFFFFFFFFF AND MUL OR SWAP1 SSTORE POP POP JUMP JUMPDEST PUSH1 0x0 PUSH1 0x12 SWAP1 POP SWAP1 JUMP JUMPDEST PUSH1 0x0 DUP1 PUSH2 0x973 PUSH2 0x1476 JUMP JUMPDEST SWAP1 POP PUSH2 0x994 DUP2 DUP6 DUP6 PUSH2 0x985 DUP6 DUP10 PUSH2 0x10B5 JUMP JUMPDEST PUSH2 0x98F SWAP2 SWAP1 PUSH2 0x1E11 JUMP JUMPDEST PUSH2 0x147E JUMP JUMPDEST PUSH1 0x1 SWAP2 POP POP SWAP3 SWAP2 POP POP JUMP JUMPDEST PUSH1 0x8 SLOAD DUP2 JUMP JUMPDEST PUSH1 0x6 PUSH1 0x0 SWAP1 SLOAD SWAP1 PUSH2 0x100 EXP SWAP1 DIV PUSH20 0xFFFFFFFFFFFFFFFFFFFFFFFFFFFFFFFFFFFFFFFF AND PUSH20 0xFFFFFFFFFFFFFFFFFFFFFFFFFFFFFFFFFFFFFFFF AND CALLER PUSH20 0xFFFFFFFFFFFFFFFFFFFFFFFFFFFFFFFFFFFFFFFF AND EQ PUSH2 0xA35 JUMPI PUSH1 0x40 MLOAD PUSH32 0x8C379A000000000000000000000000000000000000000000000000000000000 DUP2 MSTORE PUSH1 0x4 ADD PUSH2 0xA2C SWAP1 PUSH2 0x1EB7 JUMP JUMPDEST PUSH1 0x40 MLOAD DUP1 SWAP2 SUB SWAP1 REVERT JUMPDEST PUSH1 0x8 SLOAD CALLVALUE EQ PUSH2 0xA79 JUMPI PUSH1 0x40 MLOAD PUSH32 0x8C379A000000000000000000000000000000000000000000000000000000000 DUP2 MSTORE PUSH1 0x4 ADD PUSH2 0xA70 SWAP1 PUSH2 0x1F23 JUMP JUMPDEST PUSH1 0x40 MLOAD DUP1 SWAP2 SUB SWAP1 REVERT JUMPDEST PUSH1 0x1 PUSH1 0xB PUSH1 0x0 CALLER PUSH20 0xFFFFFFFFFFFFFFFFFFFFFFFFFFFFFFFFFFFFFFFF AND PUSH20 0xFFFFFFFFFFFFFFFFFFFFFFFFFFFFFFFFFFFFFFFF AND DUP2 MSTORE PUSH1 0x20 ADD SWAP1 DUP2 MSTORE PUSH1 0x20 ADD PUSH1 0x0 KECCAK256 PUSH1 0x0 PUSH2 0x100 EXP DUP2 SLOAD DUP2 PUSH1 0xFF MUL NOT AND SWAP1 DUP4 ISZERO ISZERO MUL OR SWAP1 SSTORE POP JUMP JUMPDEST PUSH1 0x0 PUSH1 0x9 PUSH1 0x0 DUP4 PUSH20 0xFFFFFFFFFFFFFFFFFFFFFFFFFFFFFFFFFFFFFFFF AND PUSH20 0xFFFFFFFFFFFFFFFFFFFFFFFFFFFFFFFFFFFFFFFF AND DUP2 MSTORE PUSH1 0x20 ADD SWAP1 DUP2 MSTORE PUSH1 0x20 ADD PUSH1 0x0 KECCAK256 SWAP1 POP PUSH2 0xB41 PUSH1 0x64 PUSH2 0xB33 PUSH1 0x8 DUP5 PUSH1 0x5 ADD SLOAD PUSH2 0x1949 SWAP1 SWAP2 SWAP1 PUSH4 0xFFFFFFFF AND JUMP JUMPDEST PUSH2 0x195F SWAP1 SWAP2 SWAP1 PUSH4 0xFFFFFFFF AND JUMP JUMPDEST DUP2 PUSH1 0x3 ADD DUP2 SWAP1 SSTORE POP POP POP JUMP JUMPDEST PUSH1 0x7 SLOAD DUP2 JUMP JUMPDEST PUSH1 0x0 PUSH1 0x9 PUSH1 0x0 DUP4 PUSH20 0xFFFFFFFFFFFFFFFFFFFFFFFFFFFFFFFFFFFFFFFF AND PUSH20 0xFFFFFFFFFFFFFFFFFFFFFFFFFFFFFFFFFFFFFFFF AND DUP2 MSTORE PUSH1 0x20 ADD SWAP1 DUP2 MSTORE PUSH1 0x20 ADD PUSH1 0x0 KECCAK256 SWAP1 POP PUSH2 0xBAE PUSH1 0xC DUP3 PUSH1 0x3 ADD SLOAD PUSH2 0x195F SWAP1 SWAP2 SWAP1 PUSH4 0xFFFFFFFF AND JUMP JUMPDEST DUP2 PUSH1 0x4 ADD DUP2 SWAP1 SSTORE POP POP POP JUMP JUMPDEST PUSH1 0x5 PUSH1 0x0 SWAP1 SLOAD SWAP1 PUSH2 0x100 EXP SWAP1 DIV PUSH20 0xFFFFFFFFFFFFFFFFFFFFFFFFFFFFFFFFFFFFFFFF AND PUSH20 0xFFFFFFFFFFFFFFFFFFFFFFFFFFFFFFFFFFFFFFFF AND CALLER PUSH20 0xFFFFFFFFFFFFFFFFFFFFFFFFFFFFFFFFFFFFFFFF AND EQ PUSH2 0xC4A JUMPI PUSH1 0x40 MLOAD PUSH32 0x8C379A000000000000000000000000000000000000000000000000000000000 DUP2 MSTORE PUSH1 0x4 ADD PUSH2 0xC41 SWAP1 PUSH2 0x1FB5 JUMP JUMPDEST PUSH1 0x40 MLOAD DUP1 SWAP2 SUB SWAP1 REVERT JUMPDEST PUSH1 0x0 PUSH1 0x7 SLOAD GT PUSH2 0xC8F JUMPI PUSH1 0x40 MLOAD PUSH32 0x8C379A000000000000000000000000000000000000000000000000000000000 DUP2 MSTORE PUSH1 0x4 ADD PUSH2 0xC86 SWAP1 PUSH2 0x2021 JUMP JUMPDEST PUSH1 0x40 MLOAD DUP1 SWAP2 SUB SWAP1 REVERT JUMPDEST PUSH1 0x5 PUSH1 0x0 SWAP1 SLOAD SWAP1 PUSH2 0x100 EXP SWAP1 DIV PUSH20 0xFFFFFFFFFFFFFFFFFFFFFFFFFFFFFFFFFFFFFFFF AND PUSH20 0xFFFFFFFFFFFFFFFFFFFFFFFFFFFFFFFFFFFFFFFF AND PUSH2 0x8FC PUSH1 0x7 SLOAD SWAP1 DUP2 ISZERO MUL SWAP1 PUSH1 0x40 MLOAD PUSH1 0x0 PUSH1 0x40 MLOAD DUP1 DUP4 SUB DUP2 DUP6 DUP9 DUP9 CALL SWAP4 POP POP POP POP ISZERO DUP1 ISZERO PUSH2 0xCF9 JUMPI RETURNDATASIZE PUSH1 0x0 DUP1 RETURNDATACOPY RETURNDATASIZE PUSH1 0x0 REVERT JUMPDEST POP JUMP JUMPDEST PUSH1 0x0 DUP1 PUSH1 0x0 DUP4 PUSH20 0xFFFFFFFFFFFFFFFFFFFFFFFFFFFFFFFFFFFFFFFF AND PUSH20 0xFFFFFFFFFFFFFFFFFFFFFFFFFFFFFFFFFFFFFFFF AND DUP2 MSTORE PUSH1 0x20 ADD SWAP1 DUP2 MSTORE PUSH1 0x20 ADD PUSH1 0x0 KECCAK256 SLOAD SWAP1 POP SWAP2 SWAP1 POP JUMP JUMPDEST PUSH1 0x0 PUSH1 0x9 PUSH1 0x0 DUP4 PUSH20 0xFFFFFFFFFFFFFFFFFFFFFFFFFFFFFFFFFFFFFFFF AND PUSH20 0xFFFFFFFFFFFFFFFFFFFFFFFFFFFFFFFFFFFFFFFF AND DUP2 MSTORE PUSH1 0x20 ADD SWAP1 DUP2 MSTORE PUSH1 0x20 ADD PUSH1 0x0 KECCAK256 SWAP1 POP DUP1 PUSH1 0x1 ADD SLOAD DUP2 PUSH1 0x0 ADD SLOAD PUSH2 0xD9B SWAP2 SWAP1 PUSH2 0x2041 JUMP JUMPDEST DUP2 PUSH1 0x5 ADD DUP2 SWAP1 SSTORE POP POP POP JUMP JUMPDEST PUSH1 0x5 PUSH1 0x0 SWAP1 SLOAD SWAP1 PUSH2 0x100 EXP SWAP1 DIV PUSH20 0xFFFFFFFFFFFFFFFFFFFFFFFFFFFFFFFFFFFFFFFF AND DUP2 JUMP JUMPDEST PUSH1 0x60 PUSH1 0x4 DUP1 SLOAD PUSH2 0xDDC SWAP1 PUSH2 0x1DB1 JUMP JUMPDEST DUP1 PUSH1 0x1F ADD PUSH1 0x20 DUP1 SWAP2 DIV MUL PUSH1 0x20 ADD PUSH1 0x40 MLOAD SWAP1 DUP2 ADD PUSH1 0x40 MSTORE DUP1 SWAP3 SWAP2 SWAP1 DUP2 DUP2 MSTORE PUSH1 0x20 ADD DUP3 DUP1 SLOAD PUSH2 0xE08 SWAP1 PUSH2 0x1DB1 JUMP JUMPDEST DUP1 ISZERO PUSH2 0xE55 JUMPI DUP1 PUSH1 0x1F LT PUSH2 0xE2A JUMPI PUSH2 0x100 DUP1 DUP4 SLOAD DIV MUL DUP4 MSTORE SWAP2 PUSH1 0x20 ADD SWAP2 PUSH2 0xE55 JUMP JUMPDEST DUP3 ADD SWAP2 SWAP1 PUSH1 0x0 MSTORE PUSH1 0x20 PUSH1 0x0 KECCAK256 SWAP1 JUMPDEST DUP2 SLOAD DUP2 MSTORE SWAP1 PUSH1 0x1 ADD SWAP1 PUSH1 0x20 ADD DUP1 DUP4 GT PUSH2 0xE38 JUMPI DUP3 SWAP1 SUB PUSH1 0x1F AND DUP3 ADD SWAP2 JUMPDEST POP POP POP POP POP SWAP1 POP SWAP1 JUMP JUMPDEST PUSH1 0x0 PUSH1 0x9 PUSH1 0x0 DUP4 PUSH20 0xFFFFFFFFFFFFFFFFFFFFFFFFFFFFFFFFFFFFFFFF AND PUSH20 0xFFFFFFFFFFFFFFFFFFFFFFFFFFFFFFFFFFFFFFFF AND DUP2 MSTORE PUSH1 0x20 ADD SWAP1 DUP2 MSTORE PUSH1 0x20 ADD PUSH1 0x0 KECCAK256 SWAP1 POP PUSH2 0xEE9 DUP2 PUSH1 0x6 ADD SLOAD PUSH2 0xEDB DUP4 PUSH1 0x9 ADD SLOAD PUSH2 0xECD DUP6 PUSH1 0x8 ADD SLOAD DUP7 PUSH1 0x7 ADD SLOAD PUSH2 0x1975 SWAP1 SWAP2 SWAP1 PUSH4 0xFFFFFFFF AND JUMP JUMPDEST PUSH2 0x1975 SWAP1 SWAP2 SWAP1 PUSH4 0xFFFFFFFF AND JUMP JUMPDEST PUSH2 0x1975 SWAP1 SWAP2 SWAP1 PUSH4 0xFFFFFFFF AND JUMP JUMPDEST DUP2 PUSH1 0x0 ADD DUP2 SWAP1 SSTORE POP POP POP JUMP JUMPDEST PUSH1 0x0 DUP1 PUSH2 0xF00 PUSH2 0x1476 JUMP JUMPDEST SWAP1 POP PUSH1 0x0 PUSH2 0xF0E DUP3 DUP7 PUSH2 0x10B5 JUMP JUMPDEST SWAP1 POP DUP4 DUP2 LT ISZERO PUSH2 0xF53 JUMPI PUSH1 0x40 MLOAD PUSH32 0x8C379A000000000000000000000000000000000000000000000000000000000 DUP2 MSTORE PUSH1 0x4 ADD PUSH2 0xF4A SWAP1 PUSH2 0x20F5 JUMP JUMPDEST PUSH1 0x40 MLOAD DUP1 SWAP2 SUB SWAP1 REVERT JUMPDEST PUSH2 0xF60 DUP3 DUP7 DUP7 DUP5 SUB PUSH2 0x147E JUMP JUMPDEST PUSH1 0x1 SWAP3 POP POP POP SWAP3 SWAP2 POP POP JUMP JUMPDEST PUSH1 0x6 PUSH1 0x0 SWAP1 SLOAD SWAP1 PUSH2 0x100 EXP SWAP1 DIV PUSH20 0xFFFFFFFFFFFFFFFFFFFFFFFFFFFFFFFFFFFFFFFF AND PUSH20 0xFFFFFFFFFFFFFFFFFFFFFFFFFFFFFFFFFFFFFFFF AND CALLER PUSH20 0xFFFFFFFFFFFFFFFFFFFFFFFFFFFFFFFFFFFFFFFF AND EQ PUSH2 0xFFC JUMPI PUSH1 0x40 MLOAD PUSH32 0x8C379A000000000000000000000000000000000000000000000000000000000 DUP2 MSTORE PUSH1 0x4 ADD PUSH2 0xFF3 SWAP1 PUSH2 0x1EB7 JUMP JUMPDEST PUSH1 0x40 MLOAD DUP1 SWAP2 SUB SWAP1 REVERT JUMPDEST CALLVALUE PUSH1 0x7 PUSH1 0x0 DUP3 DUP3 SLOAD PUSH2 0x100E SWAP2 SWAP1 PUSH2 0x1E11 JUMP JUMPDEST SWAP3 POP POP DUP2 SWAP1 SSTORE POP JUMP JUMPDEST PUSH1 0x0 DUP1 PUSH2 0x1022 PUSH2 0x1476 JUMP JUMPDEST SWAP1 POP PUSH2 0x102F DUP2 DUP6 DUP6 PUSH2 0x16D3 JUMP JUMPDEST PUSH1 0x1 SWAP2 POP POP SWAP3 SWAP2 POP POP JUMP JUMPDEST PUSH1 0x6 PUSH1 0x0 SWAP1 SLOAD SWAP1 PUSH2 0x100 EXP SWAP1 DIV PUSH20 0xFFFFFFFFFFFFFFFFFFFFFFFFFFFFFFFFFFFFFFFF AND DUP2 JUMP JUMPDEST PUSH1 0x0 PUSH1 0x9 PUSH1 0x0 DUP4 PUSH20 0xFFFFFFFFFFFFFFFFFFFFFFFFFFFFFFFFFFFFFFFF AND PUSH20 0xFFFFFFFFFFFFFFFFFFFFFFFFFFFFFFFFFFFFFFFF AND DUP2 MSTORE PUSH1 0x20 ADD SWAP1 DUP2 MSTORE PUSH1 0x20 ADD PUSH1 0x0 KECCAK256 SWAP1 POP PUSH2 0x10B1 DUP3 DUP3 PUSH1 0x3 ADD SLOAD PUSH2 0x1320 JUMP JUMPDEST POP POP JUMP JUMPDEST PUSH1 0x0 PUSH1 0x1 PUSH1 0x0 DUP5 PUSH20 0xFFFFFFFFFFFFFFFFFFFFFFFFFFFFFFFFFFFFFFFF AND PUSH20 0xFFFFFFFFFFFFFFFFFFFFFFFFFFFFFFFFFFFFFFFF AND DUP2 MSTORE PUSH1 0x20 ADD SWAP1 DUP2 MSTORE PUSH1 0x20 ADD PUSH1 0x0 KECCAK256 PUSH1 0x0 DUP4 PUSH20 0xFFFFFFFFFFFFFFFFFFFFFFFFFFFFFFFFFFFFFFFF AND PUSH20 0xFFFFFFFFFFFFFFFFFFFFFFFFFFFFFFFFFFFFFFFF AND DUP2 MSTORE PUSH1 0x20 ADD SWAP1 DUP2 MSTORE PUSH1 0x20 ADD PUSH1 0x0 KECCAK256 SLOAD SWAP1 POP SWAP3 SWAP2 POP POP JUMP JUMPDEST PUSH1 0xA PUSH1 0x20 MSTORE DUP1 PUSH1 0x0 MSTORE PUSH1 0x40 PUSH1 0x0 KECCAK256 PUSH1 0x0 SWAP2 POP SWAP1 POP DUP1 PUSH1 0x0 ADD DUP1 SLOAD PUSH2 0x115F SWAP1 PUSH2 0x1DB1 JUMP JUMPDEST DUP1 PUSH1 0x1F ADD PUSH1 0x20 DUP1 SWAP2 DIV MUL PUSH1 0x20 ADD PUSH1 0x40 MLOAD SWAP1 DUP2 ADD PUSH1 0x40 MSTORE DUP1 SWAP3 SWAP2 SWAP1 DUP2 DUP2 MSTORE PUSH1 0x20 ADD DUP3 DUP1 SLOAD PUSH2 0x118B SWAP1 PUSH2 0x1DB1 JUMP JUMPDEST DUP1 ISZERO PUSH2 0x11D8 JUMPI DUP1 PUSH1 0x1F LT PUSH2 0x11AD JUMPI PUSH2 0x100 DUP1 DUP4 SLOAD DIV MUL DUP4 MSTORE SWAP2 PUSH1 0x20 ADD SWAP2 PUSH2 0x11D8 JUMP JUMPDEST DUP3 ADD SWAP2 SWAP1 PUSH1 0x0 MSTORE PUSH1 0x20 PUSH1 0x0 KECCAK256 SWAP1 JUMPDEST DUP2 SLOAD DUP2 MSTORE SWAP1 PUSH1 0x1 ADD SWAP1 PUSH1 0x20 ADD DUP1 DUP4 GT PUSH2 0x11BB JUMPI DUP3 SWAP1 SUB PUSH1 0x1F AND DUP3 ADD SWAP2 JUMPDEST POP POP POP POP POP SWAP1 DUP1 PUSH1 0x1 ADD DUP1 SLOAD PUSH2 0x11ED SWAP1 PUSH2 0x1DB1 JUMP JUMPDEST DUP1 PUSH1 0x1F ADD PUSH1 0x20 DUP1 SWAP2 DIV MUL PUSH1 0x20 ADD PUSH1 0x40 MLOAD SWAP1 DUP2 ADD PUSH1 0x40 MSTORE DUP1 SWAP3 SWAP2 SWAP1 DUP2 DUP2 MSTORE PUSH1 0x20 ADD DUP3 DUP1 SLOAD PUSH2 0x1219 SWAP1 PUSH2 0x1DB1 JUMP JUMPDEST DUP1 ISZERO PUSH2 0x1266 JUMPI DUP1 PUSH1 0x1F LT PUSH2 0x123B JUMPI PUSH2 0x100 DUP1 DUP4 SLOAD DIV MUL DUP4 MSTORE SWAP2 PUSH1 0x20 ADD SWAP2 PUSH2 0x1266 JUMP JUMPDEST DUP3 ADD SWAP2 SWAP1 PUSH1 0x0 MSTORE PUSH1 0x20 PUSH1 0x0 KECCAK256 SWAP1 JUMPDEST DUP2 SLOAD DUP2 MSTORE SWAP1 PUSH1 0x1 ADD SWAP1 PUSH1 0x20 ADD DUP1 DUP4 GT PUSH2 0x1249 JUMPI DUP3 SWAP1 SUB PUSH1 0x1F AND DUP3 ADD SWAP2 JUMPDEST POP POP POP POP POP SWAP1 DUP1 PUSH1 0x2 ADD SLOAD SWAP1 POP DUP4 JUMP JUMPDEST PUSH1 0x0 PUSH1 0x9 PUSH1 0x0 DUP4 PUSH20 0xFFFFFFFFFFFFFFFFFFFFFFFFFFFFFFFFFFFFFFFF AND PUSH20 0xFFFFFFFFFFFFFFFFFFFFFFFFFFFFFFFFFFFFFFFF AND DUP2 MSTORE PUSH1 0x20 ADD SWAP1 DUP2 MSTORE PUSH1 0x20 ADD PUSH1 0x0 KECCAK256 SWAP1 POP PUSH2 0x12C7 DUP3 DUP3 PUSH1 0x5 ADD SLOAD PUSH2 0x1320 JUMP JUMPDEST POP POP JUMP JUMPDEST PUSH1 0x0 PUSH1 0x9 PUSH1 0x0 DUP4 PUSH20 0xFFFFFFFFFFFFFFFFFFFFFFFFFFFFFFFFFFFFFFFF AND PUSH20 0xFFFFFFFFFFFFFFFFFFFFFFFFFFFFFFFFFFFFFFFF AND DUP2 MSTORE PUSH1 0x20 ADD SWAP1 DUP2 MSTORE PUSH1 0x20 ADD PUSH1 0x0 KECCAK256 SWAP1 POP PUSH2 0x131C DUP3 DUP3 PUSH1 0x4 ADD SLOAD PUSH2 0x1320 JUMP JUMPDEST POP POP JUMP JUMPDEST PUSH1 0x0 PUSH20 0xFFFFFFFFFFFFFFFFFFFFFFFFFFFFFFFFFFFFFFFF AND DUP3 PUSH20 0xFFFFFFFFFFFFFFFFFFFFFFFFFFFFFFFFFFFFFFFF AND SUB PUSH2 0x138F JUMPI PUSH1 0x40 MLOAD PUSH32 0x8C379A000000000000000000000000000000000000000000000000000000000 DUP2 MSTORE PUSH1 0x4 ADD PUSH2 0x1386 SWAP1 PUSH2 0x2161 JUMP JUMPDEST PUSH1 0x40 MLOAD DUP1 SWAP2 SUB SWAP1 REVERT JUMPDEST PUSH2 0x139B PUSH1 0x0 DUP4 DUP4 PUSH2 0x198B JUMP JUMPDEST DUP1 PUSH1 0x2 PUSH1 0x0 DUP3 DUP3 SLOAD PUSH2 0x13AD SWAP2 SWAP1 PUSH2 0x1E11 JUMP JUMPDEST SWAP3 POP POP DUP2 SWAP1 SSTORE POP DUP1 PUSH1 0x0 DUP1 DUP5 PUSH20 0xFFFFFFFFFFFFFFFFFFFFFFFFFFFFFFFFFFFFFFFF AND PUSH20 0xFFFFFFFFFFFFFFFFFFFFFFFFFFFFFFFFFFFFFFFF AND DUP2 MSTORE PUSH1 0x20 ADD SWAP1 DUP2 MSTORE PUSH1 0x20 ADD PUSH1 0x0 KECCAK256 PUSH1 0x0 DUP3 DUP3 SLOAD ADD SWAP3 POP POP DUP2 SWAP1 SSTORE POP DUP2 PUSH20 0xFFFFFFFFFFFFFFFFFFFFFFFFFFFFFFFFFFFFFFFF AND PUSH1 0x0 PUSH20 0xFFFFFFFFFFFFFFFFFFFFFFFFFFFFFFFFFFFFFFFF AND PUSH32 0xDDF252AD1BE2C89B69C2B068FC378DAA952BA7F163C4A11628F55A4DF523B3EF DUP4 PUSH1 0x40 MLOAD PUSH2 0x145E SWAP2 SWAP1 PUSH2 0x1C2E JUMP JUMPDEST PUSH1 0x40 MLOAD DUP1 SWAP2 SUB SWAP1 LOG3 PUSH2 0x1472 PUSH1 0x0 DUP4 DUP4 PUSH2 0x1990 JUMP JUMPDEST POP POP JUMP JUMPDEST PUSH1 0x0 CALLER SWAP1 POP SWAP1 JUMP JUMPDEST PUSH1 0x0 PUSH20 0xFFFFFFFFFFFFFFFFFFFFFFFFFFFFFFFFFFFFFFFF AND DUP4 PUSH20 0xFFFFFFFFFFFFFFFFFFFFFFFFFFFFFFFFFFFFFFFF AND SUB PUSH2 0x14ED JUMPI PUSH1 0x40 MLOAD PUSH32 0x8C379A000000000000000000000000000000000000000000000000000000000 DUP2 MSTORE PUSH1 0x4 ADD PUSH2 0x14E4 SWAP1 PUSH2 0x21F3 JUMP JUMPDEST PUSH1 0x40 MLOAD DUP1 SWAP2 SUB SWAP1 REVERT JUMPDEST PUSH1 0x0 PUSH20 0xFFFFFFFFFFFFFFFFFFFFFFFFFFFFFFFFFFFFFFFF AND DUP3 PUSH20 0xFFFFFFFFFFFFFFFFFFFFFFFFFFFFFFFFFFFFFFFF AND SUB PUSH2 0x155C JUMPI PUSH1 0x40 MLOAD PUSH32 0x8C379A000000000000000000000000000000000000000000000000000000000 DUP2 MSTORE PUSH1 0x4 ADD PUSH2 0x1553 SWAP1 PUSH2 0x2285 JUMP JUMPDEST PUSH1 0x40 MLOAD DUP1 SWAP2 SUB SWAP1 REVERT JUMPDEST DUP1 PUSH1 0x1 PUSH1 0x0 DUP6 PUSH20 0xFFFFFFFFFFFFFFFFFFFFFFFFFFFFFFFFFFFFFFFF AND PUSH20 0xFFFFFFFFFFFFFFFFFFFFFFFFFFFFFFFFFFFFFFFF AND DUP2 MSTORE PUSH1 0x20 ADD SWAP1 DUP2 MSTORE PUSH1 0x20 ADD PUSH1 0x0 KECCAK256 PUSH1 0x0 DUP5 PUSH20 0xFFFFFFFFFFFFFFFFFFFFFFFFFFFFFFFFFFFFFFFF AND PUSH20 0xFFFFFFFFFFFFFFFFFFFFFFFFFFFFFFFFFFFFFFFF AND DUP2 MSTORE PUSH1 0x20 ADD SWAP1 DUP2 MSTORE PUSH1 0x20 ADD PUSH1 0x0 KECCAK256 DUP2 SWAP1 SSTORE POP DUP2 PUSH20 0xFFFFFFFFFFFFFFFFFFFFFFFFFFFFFFFFFFFFFFFF AND DUP4 PUSH20 0xFFFFFFFFFFFFFFFFFFFFFFFFFFFFFFFFFFFFFFFF AND PUSH32 0x8C5BE1E5EBEC7D5BD14F71427D1E84F3DD0314C0F7B2291E5B200AC8C7C3B925 DUP4 PUSH1 0x40 MLOAD PUSH2 0x163A SWAP2 SWAP1 PUSH2 0x1C2E JUMP JUMPDEST PUSH1 0x40 MLOAD DUP1 SWAP2 SUB SWAP1 LOG3 POP POP POP JUMP JUMPDEST PUSH1 0x0 PUSH2 0x1653 DUP5 DUP5 PUSH2 0x10B5 JUMP JUMPDEST SWAP1 POP PUSH32 0xFFFFFFFFFFFFFFFFFFFFFFFFFFFFFFFFFFFFFFFFFFFFFFFFFFFFFFFFFFFFFFFF DUP2 EQ PUSH2 0x16CD JUMPI DUP2 DUP2 LT ISZERO PUSH2 0x16BF JUMPI PUSH1 0x40 MLOAD PUSH32 0x8C379A000000000000000000000000000000000000000000000000000000000 DUP2 MSTORE PUSH1 0x4 ADD PUSH2 0x16B6 SWAP1 PUSH2 0x22F1 JUMP JUMPDEST PUSH1 0x40 MLOAD DUP1 SWAP2 SUB SWAP1 REVERT JUMPDEST PUSH2 0x16CC DUP5 DUP5 DUP5 DUP5 SUB PUSH2 0x147E JUMP JUMPDEST JUMPDEST POP POP POP POP JUMP JUMPDEST PUSH1 0x0 PUSH20 0xFFFFFFFFFFFFFFFFFFFFFFFFFFFFFFFFFFFFFFFF AND DUP4 PUSH20 0xFFFFFFFFFFFFFFFFFFFFFFFFFFFFFFFFFFFFFFFF AND SUB PUSH2 0x1742 JUMPI PUSH1 0x40 MLOAD PUSH32 0x8C379A000000000000000000000000000000000000000000000000000000000 DUP2 MSTORE PUSH1 0x4 ADD PUSH2 0x1739 SWAP1 PUSH2 0x2383 JUMP JUMPDEST PUSH1 0x40 MLOAD DUP1 SWAP2 SUB SWAP1 REVERT JUMPDEST PUSH1 0x0 PUSH20 0xFFFFFFFFFFFFFFFFFFFFFFFFFFFFFFFFFFFFFFFF AND DUP3 PUSH20 0xFFFFFFFFFFFFFFFFFFFFFFFFFFFFFFFFFFFFFFFF AND SUB PUSH2 0x17B1 JUMPI PUSH1 0x40 MLOAD PUSH32 0x8C379A000000000000000000000000000000000000000000000000000000000 DUP2 MSTORE PUSH1 0x4 ADD PUSH2 0x17A8 SWAP1 PUSH2 0x2415 JUMP JUMPDEST PUSH1 0x40 MLOAD DUP1 SWAP2 SUB SWAP1 REVERT JUMPDEST PUSH2 0x17BC DUP4 DUP4 DUP4 PUSH2 0x198B JUMP JUMPDEST PUSH1 0x0 DUP1 PUSH1 0x0 DUP6 PUSH20 0xFFFFFFFFFFFFFFFFFFFFFFFFFFFFFFFFFFFFFFFF AND PUSH20 0xFFFFFFFFFFFFFFFFFFFFFFFFFFFFFFFFFFFFFFFF AND DUP2 MSTORE PUSH1 0x20 ADD SWAP1 DUP2 MSTORE PUSH1 0x20 ADD PUSH1 0x0 KECCAK256 SLOAD SWAP1 POP DUP2 DUP2 LT ISZERO PUSH2 0x1842 JUMPI PUSH1 0x40 MLOAD PUSH32 0x8C379A000000000000000000000000000000000000000000000000000000000 DUP2 MSTORE PUSH1 0x4 ADD PUSH2 0x1839 SWAP1 PUSH2 0x24A7 JUMP JUMPDEST PUSH1 0x40 MLOAD DUP1 SWAP2 SUB SWAP1 REVERT JUMPDEST DUP2 DUP2 SUB PUSH1 0x0 DUP1 DUP7 PUSH20 0xFFFFFFFFFFFFFFFFFFFFFFFFFFFFFFFFFFFFFFFF AND PUSH20 0xFFFFFFFFFFFFFFFFFFFFFFFFFFFFFFFFFFFFFFFF AND DUP2 MSTORE PUSH1 0x20 ADD SWAP1 DUP2 MSTORE PUSH1 0x20 ADD PUSH1 0x0 KECCAK256 DUP2 SWAP1 SSTORE POP DUP2 PUSH1 0x0 DUP1 DUP6 PUSH20 0xFFFFFFFFFFFFFFFFFFFFFFFFFFFFFFFFFFFFFFFF AND PUSH20 0xFFFFFFFFFFFFFFFFFFFFFFFFFFFFFFFFFFFFFFFF AND DUP2 MSTORE PUSH1 0x20 ADD SWAP1 DUP2 MSTORE PUSH1 0x20 ADD PUSH1 0x0 KECCAK256 PUSH1 0x0 DUP3 DUP3 SLOAD ADD SWAP3 POP POP DUP2 SWAP1 SSTORE POP DUP3 PUSH20 0xFFFFFFFFFFFFFFFFFFFFFFFFFFFFFFFFFFFFFFFF AND DUP5 PUSH20 0xFFFFFFFFFFFFFFFFFFFFFFFFFFFFFFFFFFFFFFFF AND PUSH32 0xDDF252AD1BE2C89B69C2B068FC378DAA952BA7F163C4A11628F55A4DF523B3EF DUP5 PUSH1 0x40 MLOAD PUSH2 0x1930 SWAP2 SWAP1 PUSH2 0x1C2E JUMP JUMPDEST PUSH1 0x40 MLOAD DUP1 SWAP2 SUB SWAP1 LOG3 PUSH2 0x1943 DUP5 DUP5 DUP5 PUSH2 0x1990 JUMP JUMPDEST POP POP POP POP JUMP JUMPDEST PUSH1 0x0 DUP2 DUP4 PUSH2 0x1957 SWAP2 SWAP1 PUSH2 0x2041 JUMP JUMPDEST SWAP1 POP SWAP3 SWAP2 POP POP JUMP JUMPDEST PUSH1 0x0 DUP2 DUP4 PUSH2 0x196D SWAP2 SWAP1 PUSH2 0x24F6 JUMP JUMPDEST SWAP1 POP SWAP3 SWAP2 POP POP JUMP JUMPDEST PUSH1 0x0 DUP2 DUP4 PUSH2 0x1983 SWAP2 SWAP1 PUSH2 0x1E11 JUMP JUMPDEST SWAP1 POP SWAP3 SWAP2 POP POP JUMP JUMPDEST POP POP POP JUMP JUMPDEST POP POP POP JUMP JUMPDEST PUSH1 0x0 DUP2 MLOAD SWAP1 POP SWAP2 SWAP1 POP JUMP JUMPDEST PUSH1 0x0 DUP3 DUP3 MSTORE PUSH1 0x20 DUP3 ADD SWAP1 POP SWAP3 SWAP2 POP POP JUMP JUMPDEST PUSH1 0x0 JUMPDEST DUP4 DUP2 LT ISZERO PUSH2 0x19CF JUMPI DUP1 DUP3 ADD MLOAD DUP2 DUP5 ADD MSTORE PUSH1 0x20 DUP2 ADD SWAP1 POP PUSH2 0x19B4 JUMP JUMPDEST PUSH1 0x0 DUP5 DUP5 ADD MSTORE POP POP POP POP JUMP JUMPDEST PUSH1 0x0 PUSH1 0x1F NOT PUSH1 0x1F DUP4 ADD AND SWAP1 POP SWAP2 SWAP1 POP JUMP JUMPDEST PUSH1 0x0 PUSH2 0x19F7 DUP3 PUSH2 0x1995 JUMP JUMPDEST PUSH2 0x1A01 DUP2 DUP6 PUSH2 0x19A0 JUMP JUMPDEST SWAP4 POP PUSH2 0x1A11 DUP2 DUP6 PUSH1 0x20 DUP7 ADD PUSH2 0x19B1 JUMP JUMPDEST PUSH2 0x1A1A DUP2 PUSH2 0x19DB JUMP JUMPDEST DUP5 ADD SWAP2 POP POP SWAP3 SWAP2 POP POP JUMP JUMPDEST PUSH1 0x0 PUSH1 0x20 DUP3 ADD SWAP1 POP DUP2 DUP2 SUB PUSH1 0x0 DUP4 ADD MSTORE PUSH2 0x1A3F DUP2 DUP5 PUSH2 0x19EC JUMP JUMPDEST SWAP1 POP SWAP3 SWAP2 POP POP JUMP JUMPDEST PUSH1 0x0 DUP1 REVERT JUMPDEST PUSH1 0x0 PUSH20 0xFFFFFFFFFFFFFFFFFFFFFFFFFFFFFFFFFFFFFFFF DUP3 AND SWAP1 POP SWAP2 SWAP1 POP JUMP JUMPDEST PUSH1 0x0 PUSH2 0x1A77 DUP3 PUSH2 0x1A4C JUMP JUMPDEST SWAP1 POP SWAP2 SWAP1 POP JUMP JUMPDEST PUSH2 0x1A87 DUP2 PUSH2 0x1A6C JUMP JUMPDEST DUP2 EQ PUSH2 0x1A92 JUMPI PUSH1 0x0 DUP1 REVERT JUMPDEST POP JUMP JUMPDEST PUSH1 0x0 DUP2 CALLDATALOAD SWAP1 POP PUSH2 0x1AA4 DUP2 PUSH2 0x1A7E JUMP JUMPDEST SWAP3 SWAP2 POP POP JUMP JUMPDEST PUSH1 0x0 PUSH1 0x20 DUP3 DUP5 SUB SLT ISZERO PUSH2 0x1AC0 JUMPI PUSH2 0x1ABF PUSH2 0x1A47 JUMP JUMPDEST JUMPDEST PUSH1 0x0 PUSH2 0x1ACE DUP5 DUP3 DUP6 ADD PUSH2 0x1A95 JUMP JUMPDEST SWAP2 POP POP SWAP3 SWAP2 POP POP JUMP JUMPDEST PUSH1 0x0 DUP2 SWAP1 POP SWAP2 SWAP1 POP JUMP JUMPDEST PUSH2 0x1AEA DUP2 PUSH2 0x1AD7 JUMP JUMPDEST DUP2 EQ PUSH2 0x1AF5 JUMPI PUSH1 0x0 DUP1 REVERT JUMPDEST POP JUMP JUMPDEST PUSH1 0x0 DUP2 CALLDATALOAD SWAP1 POP PUSH2 0x1B07 DUP2 PUSH2 0x1AE1 JUMP JUMPDEST SWAP3 SWAP2 POP POP JUMP JUMPDEST PUSH1 0x0 DUP1 PUSH1 0x40 DUP4 DUP6 SUB SLT ISZERO PUSH2 0x1B24 JUMPI PUSH2 0x1B23 PUSH2 0x1A47 JUMP JUMPDEST JUMPDEST PUSH1 0x0 PUSH2 0x1B32 DUP6 DUP3 DUP7 ADD PUSH2 0x1A95 JUMP JUMPDEST SWAP3 POP POP PUSH1 0x20 PUSH2 0x1B43 DUP6 DUP3 DUP7 ADD PUSH2 0x1AF8 JUMP JUMPDEST SWAP2 POP POP SWAP3 POP SWAP3 SWAP1 POP JUMP JUMPDEST PUSH1 0x0 DUP2 ISZERO ISZERO SWAP1 POP SWAP2 SWAP1 POP JUMP JUMPDEST PUSH2 0x1B62 DUP2 PUSH2 0x1B4D JUMP JUMPDEST DUP3 MSTORE POP POP JUMP JUMPDEST PUSH1 0x0 PUSH1 0x20 DUP3 ADD SWAP1 POP PUSH2 0x1B7D PUSH1 0x0 DUP4 ADD DUP5 PUSH2 0x1B59 JUMP JUMPDEST SWAP3 SWAP2 POP POP JUMP JUMPDEST PUSH2 0x1B8C DUP2 PUSH2 0x1AD7 JUMP JUMPDEST DUP3 MSTORE POP POP JUMP JUMPDEST PUSH1 0x0 PUSH2 0x140 DUP3 ADD SWAP1 POP PUSH2 0x1BA8 PUSH1 0x0 DUP4 ADD DUP14 PUSH2 0x1B83 JUMP JUMPDEST PUSH2 0x1BB5 PUSH1 0x20 DUP4 ADD DUP13 PUSH2 0x1B83 JUMP JUMPDEST PUSH2 0x1BC2 PUSH1 0x40 DUP4 ADD DUP12 PUSH2 0x1B83 JUMP JUMPDEST PUSH2 0x1BCF PUSH1 0x60 DUP4 ADD DUP11 PUSH2 0x1B83 JUMP JUMPDEST PUSH2 0x1BDC PUSH1 0x80 DUP4 ADD DUP10 PUSH2 0x1B83 JUMP JUMPDEST PUSH2 0x1BE9 PUSH1 0xA0 DUP4 ADD DUP9 PUSH2 0x1B83 JUMP JUMPDEST PUSH2 0x1BF6 PUSH1 0xC0 DUP4 ADD DUP8 PUSH2 0x1B83 JUMP JUMPDEST PUSH2 0x1C03 PUSH1 0xE0 DUP4 ADD DUP7 PUSH2 0x1B83 JUMP JUMPDEST PUSH2 0x1C11 PUSH2 0x100 DUP4 ADD DUP6 PUSH2 0x1B83 JUMP JUMPDEST PUSH2 0x1C1F PUSH2 0x120 DUP4 ADD DUP5 PUSH2 0x1B83 JUMP JUMPDEST SWAP12 SWAP11 POP POP POP POP POP POP POP POP POP POP POP JUMP JUMPDEST PUSH1 0x0 PUSH1 0x20 DUP3 ADD SWAP1 POP PUSH2 0x1C43 PUSH1 0x0 DUP4 ADD DUP5 PUSH2 0x1B83 JUMP JUMPDEST SWAP3 SWAP2 POP POP JUMP JUMPDEST PUSH1 0x0 DUP1 PUSH1 0x0 PUSH1 0x60 DUP5 DUP7 SUB SLT ISZERO PUSH2 0x1C62 JUMPI PUSH2 0x1C61 PUSH2 0x1A47 JUMP JUMPDEST JUMPDEST PUSH1 0x0 PUSH2 0x1C70 DUP7 DUP3 DUP8 ADD PUSH2 0x1A95 JUMP JUMPDEST SWAP4 POP POP PUSH1 0x20 PUSH2 0x1C81 DUP7 DUP3 DUP8 ADD PUSH2 0x1A95 JUMP JUMPDEST SWAP3 POP POP PUSH1 0x40 PUSH2 0x1C92 DUP7 DUP3 DUP8 ADD PUSH2 0x1AF8 JUMP JUMPDEST SWAP2 POP POP SWAP3 POP SWAP3 POP SWAP3 JUMP JUMPDEST PUSH1 0x0 PUSH1 0xFF DUP3 AND SWAP1 POP SWAP2 SWAP1 POP JUMP JUMPDEST PUSH2 0x1CB2 DUP2 PUSH2 0x1C9C JUMP JUMPDEST DUP3 MSTORE POP POP JUMP JUMPDEST PUSH1 0x0 PUSH1 0x20 DUP3 ADD SWAP1 POP PUSH2 0x1CCD PUSH1 0x0 DUP4 ADD DUP5 PUSH2 0x1CA9 JUMP JUMPDEST SWAP3 SWAP2 POP POP JUMP JUMPDEST PUSH2 0x1CDC DUP2 PUSH2 0x1A6C JUMP JUMPDEST DUP3 MSTORE POP POP JUMP JUMPDEST PUSH1 0x0 PUSH1 0x20 DUP3 ADD SWAP1 POP PUSH2 0x1CF7 PUSH1 0x0 DUP4 ADD DUP5 PUSH2 0x1CD3 JUMP JUMPDEST SWAP3 SWAP2 POP POP JUMP JUMPDEST PUSH1 0x0 DUP1 PUSH1 0x40 DUP4 DUP6 SUB SLT ISZERO PUSH2 0x1D14 JUMPI PUSH2 0x1D13 PUSH2 0x1A47 JUMP JUMPDEST JUMPDEST PUSH1 0x0 PUSH2 0x1D22 DUP6 DUP3 DUP7 ADD PUSH2 0x1A95 JUMP JUMPDEST SWAP3 POP POP PUSH1 0x20 PUSH2 0x1D33 DUP6 DUP3 DUP7 ADD PUSH2 0x1A95 JUMP JUMPDEST SWAP2 POP POP SWAP3 POP SWAP3 SWAP1 POP JUMP JUMPDEST PUSH1 0x0 PUSH1 0x60 DUP3 ADD SWAP1 POP DUP2 DUP2 SUB PUSH1 0x0 DUP4 ADD MSTORE PUSH2 0x1D57 DUP2 DUP7 PUSH2 0x19EC JUMP JUMPDEST SWAP1 POP DUP2 DUP2 SUB PUSH1 0x20 DUP4 ADD MSTORE PUSH2 0x1D6B DUP2 DUP6 PUSH2 0x19EC JUMP JUMPDEST SWAP1 POP PUSH2 0x1D7A PUSH1 0x40 DUP4 ADD DUP5 PUSH2 0x1B83 JUMP JUMPDEST SWAP5 SWAP4 POP POP POP POP JUMP JUMPDEST PUSH32 0x4E487B7100000000000000000000000000000000000000000000000000000000 PUSH1 0x0 MSTORE PUSH1 0x22 PUSH1 0x4 MSTORE PUSH1 0x24 PUSH1 0x0 REVERT JUMPDEST PUSH1 0x0 PUSH1 0x2 DUP3 DIV SWAP1 POP PUSH1 0x1 DUP3 AND DUP1 PUSH2 0x1DC9 JUMPI PUSH1 0x7F DUP3 AND SWAP2 POP JUMPDEST PUSH1 0x20 DUP3 LT DUP2 SUB PUSH2 0x1DDC JUMPI PUSH2 0x1DDB PUSH2 0x1D82 JUMP JUMPDEST JUMPDEST POP SWAP2 SWAP1 POP JUMP JUMPDEST PUSH32 0x4E487B7100000000000000000000000000000000000000000000000000000000 PUSH1 0x0 MSTORE PUSH1 0x11 PUSH1 0x4 MSTORE PUSH1 0x24 PUSH1 0x0 REVERT JUMPDEST PUSH1 0x0 PUSH2 0x1E1C DUP3 PUSH2 0x1AD7 JUMP JUMPDEST SWAP2 POP PUSH2 0x1E27 DUP4 PUSH2 0x1AD7 JUMP JUMPDEST SWAP3 POP DUP3 DUP3 ADD SWAP1 POP DUP1 DUP3 GT ISZERO PUSH2 0x1E3F JUMPI PUSH2 0x1E3E PUSH2 0x1DE2 JUMP JUMPDEST JUMPDEST SWAP3 SWAP2 POP POP JUMP JUMPDEST PUSH32 0x4F6E6C79207468652074656E616E742063616E2063616C6C2074686973206675 PUSH1 0x0 DUP3 ADD MSTORE PUSH32 0x6E6374696F6E0000000000000000000000000000000000000000000000000000 PUSH1 0x20 DUP3 ADD MSTORE POP JUMP JUMPDEST PUSH1 0x0 PUSH2 0x1EA1 PUSH1 0x26 DUP4 PUSH2 0x19A0 JUMP JUMPDEST SWAP2 POP PUSH2 0x1EAC DUP3 PUSH2 0x1E45 JUMP JUMPDEST PUSH1 0x40 DUP3 ADD SWAP1 POP SWAP2 SWAP1 POP JUMP JUMPDEST PUSH1 0x0 PUSH1 0x20 DUP3 ADD SWAP1 POP DUP2 DUP2 SUB PUSH1 0x0 DUP4 ADD MSTORE PUSH2 0x1ED0 DUP2 PUSH2 0x1E94 JUMP JUMPDEST SWAP1 POP SWAP2 SWAP1 POP JUMP JUMPDEST PUSH32 0x4465706F73697420616D6F756E7420646F6573206E6F74206D61746368000000 PUSH1 0x0 DUP3 ADD MSTORE POP JUMP JUMPDEST PUSH1 0x0 PUSH2 0x1F0D PUSH1 0x1D DUP4 PUSH2 0x19A0 JUMP JUMPDEST SWAP2 POP PUSH2 0x1F18 DUP3 PUSH2 0x1ED7 JUMP JUMPDEST PUSH1 0x20 DUP3 ADD SWAP1 POP SWAP2 SWAP1 POP JUMP JUMPDEST PUSH1 0x0 PUSH1 0x20 DUP3 ADD SWAP1 POP DUP2 DUP2 SUB PUSH1 0x0 DUP4 ADD MSTORE PUSH2 0x1F3C DUP2 PUSH2 0x1F00 JUMP JUMPDEST SWAP1 POP SWAP2 SWAP1 POP JUMP JUMPDEST PUSH32 0x4F6E6C7920746865206F776E65722063616E2063616C6C20746869732066756E PUSH1 0x0 DUP3 ADD MSTORE PUSH32 0x6374696F6E000000000000000000000000000000000000000000000000000000 PUSH1 0x20 DUP3 ADD MSTORE POP JUMP JUMPDEST PUSH1 0x0 PUSH2 0x1F9F PUSH1 0x25 DUP4 PUSH2 0x19A0 JUMP JUMPDEST SWAP2 POP PUSH2 0x1FAA DUP3 PUSH2 0x1F43 JUMP JUMPDEST PUSH1 0x40 DUP3 ADD SWAP1 POP SWAP2 SWAP1 POP JUMP JUMPDEST PUSH1 0x0 PUSH1 0x20 DUP3 ADD SWAP1 POP DUP2 DUP2 SUB PUSH1 0x0 DUP4 ADD MSTORE PUSH2 0x1FCE DUP2 PUSH2 0x1F92 JUMP JUMPDEST SWAP1 POP SWAP2 SWAP1 POP JUMP JUMPDEST PUSH32 0x4E6F2072656E7420617661696C61626C6520746F207769746864726177000000 PUSH1 0x0 DUP3 ADD MSTORE POP JUMP JUMPDEST PUSH1 0x0 PUSH2 0x200B PUSH1 0x1D DUP4 PUSH2 0x19A0 JUMP JUMPDEST SWAP2 POP PUSH2 0x2016 DUP3 PUSH2 0x1FD5 JUMP JUMPDEST PUSH1 0x20 DUP3 ADD SWAP1 POP SWAP2 SWAP1 POP JUMP JUMPDEST PUSH1 0x0 PUSH1 0x20 DUP3 ADD SWAP1 POP DUP2 DUP2 SUB PUSH1 0x0 DUP4 ADD MSTORE PUSH2 0x203A DUP2 PUSH2 0x1FFE JUMP JUMPDEST SWAP1 POP SWAP2 SWAP1 POP JUMP JUMPDEST PUSH1 0x0 PUSH2 0x204C DUP3 PUSH2 0x1AD7 JUMP JUMPDEST SWAP2 POP PUSH2 0x2057 DUP4 PUSH2 0x1AD7 JUMP JUMPDEST SWAP3 POP DUP3 DUP3 MUL PUSH2 0x2065 DUP2 PUSH2 0x1AD7 JUMP JUMPDEST SWAP2 POP DUP3 DUP3 DIV DUP5 EQ DUP4 ISZERO OR PUSH2 0x207C JUMPI PUSH2 0x207B PUSH2 0x1DE2 JUMP JUMPDEST JUMPDEST POP SWAP3 SWAP2 POP POP JUMP JUMPDEST PUSH32 0x45524332303A2064656372656173656420616C6C6F77616E63652062656C6F77 PUSH1 0x0 DUP3 ADD MSTORE PUSH32 0x207A65726F000000000000000000000000000000000000000000000000000000 PUSH1 0x20 DUP3 ADD MSTORE POP JUMP JUMPDEST PUSH1 0x0 PUSH2 0x20DF PUSH1 0x25 DUP4 PUSH2 0x19A0 JUMP JUMPDEST SWAP2 POP PUSH2 0x20EA DUP3 PUSH2 0x2083 JUMP JUMPDEST PUSH1 0x40 DUP3 ADD SWAP1 POP SWAP2 SWAP1 POP JUMP JUMPDEST PUSH1 0x0 PUSH1 0x20 DUP3 ADD SWAP1 POP DUP2 DUP2 SUB PUSH1 0x0 DUP4 ADD MSTORE PUSH2 0x210E DUP2 PUSH2 0x20D2 JUMP JUMPDEST SWAP1 POP SWAP2 SWAP1 POP JUMP JUMPDEST PUSH32 0x45524332303A206D696E7420746F20746865207A65726F206164647265737300 PUSH1 0x0 DUP3 ADD MSTORE POP JUMP JUMPDEST PUSH1 0x0 PUSH2 0x214B PUSH1 0x1F DUP4 PUSH2 0x19A0 JUMP JUMPDEST SWAP2 POP PUSH2 0x2156 DUP3 PUSH2 0x2115 JUMP JUMPDEST PUSH1 0x20 DUP3 ADD SWAP1 POP SWAP2 SWAP1 POP JUMP JUMPDEST PUSH1 0x0 PUSH1 0x20 DUP3 ADD SWAP1 POP DUP2 DUP2 SUB PUSH1 0x0 DUP4 ADD MSTORE PUSH2 0x217A DUP2 PUSH2 0x213E JUMP JUMPDEST SWAP1 POP SWAP2 SWAP1 POP JUMP JUMPDEST PUSH32 0x45524332303A20617070726F76652066726F6D20746865207A65726F20616464 PUSH1 0x0 DUP3 ADD MSTORE PUSH32 0x7265737300000000000000000000000000000000000000000000000000000000 PUSH1 0x20 DUP3 ADD MSTORE POP JUMP JUMPDEST PUSH1 0x0 PUSH2 0x21DD PUSH1 0x24 DUP4 PUSH2 0x19A0 JUMP JUMPDEST SWAP2 POP PUSH2 0x21E8 DUP3 PUSH2 0x2181 JUMP JUMPDEST PUSH1 0x40 DUP3 ADD SWAP1 POP SWAP2 SWAP1 POP JUMP JUMPDEST PUSH1 0x0 PUSH1 0x20 DUP3 ADD SWAP1 POP DUP2 DUP2 SUB PUSH1 0x0 DUP4 ADD MSTORE PUSH2 0x220C DUP2 PUSH2 0x21D0 JUMP JUMPDEST SWAP1 POP SWAP2 SWAP1 POP JUMP JUMPDEST PUSH32 0x45524332303A20617070726F766520746F20746865207A65726F206164647265 PUSH1 0x0 DUP3 ADD MSTORE PUSH32 0x7373000000000000000000000000000000000000000000000000000000000000 PUSH1 0x20 DUP3 ADD MSTORE POP JUMP JUMPDEST PUSH1 0x0 PUSH2 0x226F PUSH1 0x22 DUP4 PUSH2 0x19A0 JUMP JUMPDEST SWAP2 POP PUSH2 0x227A DUP3 PUSH2 0x2213 JUMP JUMPDEST PUSH1 0x40 DUP3 ADD SWAP1 POP SWAP2 SWAP1 POP JUMP JUMPDEST PUSH1 0x0 PUSH1 0x20 DUP3 ADD SWAP1 POP DUP2 DUP2 SUB PUSH1 0x0 DUP4 ADD MSTORE PUSH2 0x229E DUP2 PUSH2 0x2262 JUMP JUMPDEST SWAP1 POP SWAP2 SWAP1 POP JUMP JUMPDEST PUSH32 0x45524332303A20696E73756666696369656E7420616C6C6F77616E6365000000 PUSH1 0x0 DUP3 ADD MSTORE POP JUMP JUMPDEST PUSH1 0x0 PUSH2 0x22DB PUSH1 0x1D DUP4 PUSH2 0x19A0 JUMP JUMPDEST SWAP2 POP PUSH2 0x22E6 DUP3 PUSH2 0x22A5 JUMP JUMPDEST PUSH1 0x20 DUP3 ADD SWAP1 POP SWAP2 SWAP1 POP JUMP JUMPDEST PUSH1 0x0 PUSH1 0x20 DUP3 ADD SWAP1 POP DUP2 DUP2 SUB PUSH1 0x0 DUP4 ADD MSTORE PUSH2 0x230A DUP2 PUSH2 0x22CE JUMP JUMPDEST SWAP1 POP SWAP2 SWAP1 POP JUMP JUMPDEST PUSH32 0x45524332303A207472616E736665722066726F6D20746865207A65726F206164 PUSH1 0x0 DUP3 ADD MSTORE PUSH32 0x6472657373000000000000000000000000000000000000000000000000000000 PUSH1 0x20 DUP3 ADD MSTORE POP JUMP JUMPDEST PUSH1 0x0 PUSH2 0x236D PUSH1 0x25 DUP4 PUSH2 0x19A0 JUMP JUMPDEST SWAP2 POP PUSH2 0x2378 DUP3 PUSH2 0x2311 JUMP JUMPDEST PUSH1 0x40 DUP3 ADD SWAP1 POP SWAP2 SWAP1 POP JUMP JUMPDEST PUSH1 0x0 PUSH1 0x20 DUP3 ADD SWAP1 POP DUP2 DUP2 SUB PUSH1 0x0 DUP4 ADD MSTORE PUSH2 0x239C DUP2 PUSH2 0x2360 JUMP JUMPDEST SWAP1 POP SWAP2 SWAP1 POP JUMP JUMPDEST PUSH32 0x45524332303A207472616E7366657220746F20746865207A65726F2061646472 PUSH1 0x0 DUP3 ADD MSTORE PUSH32 0x6573730000000000000000000000000000000000000000000000000000000000 PUSH1 0x20 DUP3 ADD MSTORE POP JUMP JUMPDEST PUSH1 0x0 PUSH2 0x23FF PUSH1 0x23 DUP4 PUSH2 0x19A0 JUMP JUMPDEST SWAP2 POP PUSH2 0x240A DUP3 PUSH2 0x23A3 JUMP JUMPDEST PUSH1 0x40 DUP3 ADD SWAP1 POP SWAP2 SWAP1 POP JUMP JUMPDEST PUSH1 0x0 PUSH1 0x20 DUP3 ADD SWAP1 POP DUP2 DUP2 SUB PUSH1 0x0 DUP4 ADD MSTORE PUSH2 0x242E DUP2 PUSH2 0x23F2 JUMP JUMPDEST SWAP1 POP SWAP2 SWAP1 POP JUMP JUMPDEST PUSH32 0x45524332303A207472616E7366657220616D6F756E7420657863656564732062 PUSH1 0x0 DUP3 ADD MSTORE PUSH32 0x616C616E63650000000000000000000000000000000000000000000000000000 PUSH1 0x20 DUP3 ADD MSTORE POP JUMP JUMPDEST PUSH1 0x0 PUSH2 0x2491 PUSH1 0x26 DUP4 PUSH2 0x19A0 JUMP JUMPDEST SWAP2 POP PUSH2 0x249C DUP3 PUSH2 0x2435 JUMP JUMPDEST PUSH1 0x40 DUP3 ADD SWAP1 POP SWAP2 SWAP1 POP JUMP JUMPDEST PUSH1 0x0 PUSH1 0x20 DUP3 ADD SWAP1 POP DUP2 DUP2 SUB PUSH1 0x0 DUP4 ADD MSTORE PUSH2 0x24C0 DUP2 PUSH2 0x2484 JUMP JUMPDEST SWAP1 POP SWAP2 SWAP1 POP JUMP JUMPDEST PUSH32 0x4E487B7100000000000000000000000000000000000000000000000000000000 PUSH1 0x0 MSTORE PUSH1 0x12 PUSH1 0x4 MSTORE PUSH1 0x24 PUSH1 0x0 REVERT JUMPDEST PUSH1 0x0 PUSH2 0x2501 DUP3 PUSH2 0x1AD7 JUMP JUMPDEST SWAP2 POP PUSH2 0x250C DUP4 PUSH2 0x1AD7 JUMP JUMPDEST SWAP3 POP DUP3 PUSH2 0x251C JUMPI PUSH2 0x251B PUSH2 0x24C7 JUMP JUMPDEST JUMPDEST DUP3 DUP3 DIV SWAP1 POP SWAP3 SWAP2 POP POP JUMP INVALID LOG2 PUSH5 0x6970667358 0x22 SLT KECCAK256 0xC7 0xE1 0xA7 EQ COINBASE PUSH5 0x9ABCB034C2 0x2A SLT 0xEB SHL 0x4B 0xAC SWAP8 LOG1 DUP12 0xB8 MUL SWAP14 0xE0 DUP9 DUP12 REVERT SAR GASLIMIT MSTORE EXTCODECOPY COINBASE PUSH5 0x736F6C6343 STOP ADDMOD SLT STOP CALLER "
		},
		"gasEstimates": {
			"creation": {
				"codeDepositCost": "1913000",
				"executionCost": "infinite",
				"totalCost": "infinite"
			},
			"external": {
				"DecideNetRentmonth(address)": "infinite",
				"DecideNetRentyear(address)": "infinite",
				"DecideTokenprice(address)": "infinite",
				"DecideTotalInvestment(address)": "infinite",
				"PropertykiDetails(address)": "infinite",
				"PropertykiFinances(address)": "infinite",
				"allowance(address,address)": "infinite",
				"approve(address,uint256)": "infinite",
				"balanceOf(address)": "2931",
				"decimals()": "433",
				"decreaseAllowance(address,uint256)": "infinite",
				"depositAmount()": "2474",
				"getBalance()": "407",
				"hasPaidSecurityDeposit(address)": "2891",
				"increaseAllowance(address,uint256)": "infinite",
				"minttheTokenInvestment(address)": "infinite",
				"minttheTokenRentpermonth(address)": "infinite",
				"minttheTokenRentperyear(address)": "infinite",
				"minttheTokenprice(address)": "infinite",
				"name()": "infinite",
				"owner()": "2559",
				"payRent()": "infinite",
				"paySecurityDeposit()": "28835",
				"rentcollected()": "2540",
				"setTenant(address)": "24790",
				"symbol()": "infinite",
				"tenant()": "2603",
				"totalSupply()": "2527",
				"transfer(address,uint256)": "infinite",
				"transferFrom(address,address,uint256)": "infinite",
				"withdrawRent()": "infinite"
			}
		},
		"methodIdentifiers": {
			"DecideNetRentmonth(address)": "575e6cec",
			"DecideNetRentyear(address)": "44ba41db",
			"DecideTokenprice(address)": "976f5f61",
			"DecideTotalInvestment(address)": "88e20abb",
			"PropertykiDetails(address)": "e01fe4c3",
			"PropertykiFinances(address)": "0df9c426",
			"allowance(address,address)": "dd62ed3e",
			"approve(address,uint256)": "095ea7b3",
			"balanceOf(address)": "70a08231",
			"decimals()": "313ce567",
			"decreaseAllowance(address,uint256)": "a457c2d7",
			"depositAmount()": "419759f5",
			"getBalance()": "12065fe0",
			"hasPaidSecurityDeposit(address)": "255dbb53",
			"increaseAllowance(address,uint256)": "39509351",
			"minttheTokenInvestment(address)": "f857f752",
			"minttheTokenRentpermonth(address)": "fcf8f422",
			"minttheTokenRentperyear(address)": "beee50f7",
			"minttheTokenprice(address)": "089a6115",
			"name()": "06fdde03",
			"owner()": "8da5cb5b",
			"payRent()": "a709c4fe",
			"paySecurityDeposit()": "42c63dae",
			"rentcollected()": "4b7851f7",
			"setTenant(address)": "2e74a4de",
			"symbol()": "95d89b41",
			"tenant()": "adf07791",
			"totalSupply()": "18160ddd",
			"transfer(address,uint256)": "a9059cbb",
			"transferFrom(address,address,uint256)": "23b872dd",
			"withdrawRent()": "6322182e"
		}
	},
	"abi": [
		{
			"inputs": [],
			"stateMutability": "nonpayable",
			"type": "constructor"
		},
		{
			"anonymous": false,
			"inputs": [
				{
					"indexed": true,
					"internalType": "address",
					"name": "owner",
					"type": "address"
				},
				{
					"indexed": true,
					"internalType": "address",
					"name": "spender",
					"type": "address"
				},
				{
					"indexed": false,
					"internalType": "uint256",
					"name": "value",
					"type": "uint256"
				}
			],
			"name": "Approval",
			"type": "event"
		},
		{
			"anonymous": false,
			"inputs": [
				{
					"indexed": true,
					"internalType": "address",
					"name": "from",
					"type": "address"
				},
				{
					"indexed": true,
					"internalType": "address",
					"name": "to",
					"type": "address"
				},
				{
					"indexed": false,
					"internalType": "uint256",
					"name": "value",
					"type": "uint256"
				}
			],
			"name": "Transfer",
			"type": "event"
		},
		{
			"inputs": [
				{
					"internalType": "address",
					"name": "_property",
					"type": "address"
				}
			],
			"name": "DecideNetRentmonth",
			"outputs": [],
			"stateMutability": "nonpayable",
			"type": "function"
		},
		{
			"inputs": [
				{
					"internalType": "address",
					"name": "_property",
					"type": "address"
				}
			],
			"name": "DecideNetRentyear",
			"outputs": [],
			"stateMutability": "nonpayable",
			"type": "function"
		},
		{
			"inputs": [
				{
					"internalType": "address",
					"name": "_property",
					"type": "address"
				}
			],
			"name": "DecideTokenprice",
			"outputs": [],
			"stateMutability": "nonpayable",
			"type": "function"
		},
		{
			"inputs": [
				{
					"internalType": "address",
					"name": "_property",
					"type": "address"
				}
			],
			"name": "DecideTotalInvestment",
			"outputs": [],
			"stateMutability": "nonpayable",
			"type": "function"
		},
		{
			"inputs": [
				{
					"internalType": "address",
					"name": "",
					"type": "address"
				}
			],
			"name": "PropertykiDetails",
			"outputs": [
				{
					"internalType": "string",
					"name": "Fulladress",
					"type": "string"
				},
				{
					"internalType": "string",
					"name": "PropertyManager",
					"type": "string"
				},
				{
					"internalType": "uint256",
					"name": "OfferingPercent",
					"type": "uint256"
				}
			],
			"stateMutability": "view",
			"type": "function"
		},
		{
			"inputs": [
				{
					"internalType": "address",
					"name": "",
					"type": "address"
				}
			],
			"name": "PropertykiFinances",
			"outputs": [
				{
					"internalType": "uint256",
					"name": "Tokenprice",
					"type": "uint256"
				},
				{
					"internalType": "uint256",
					"name": "TokensNumbers",
					"type": "uint256"
				},
				{
					"internalType": "uint256",
					"name": "MonthlyCosts",
					"type": "uint256"
				},
				{
					"internalType": "uint256",
					"name": "NetRentyear",
					"type": "uint256"
				},
				{
					"internalType": "uint256",
					"name": "NetRentmonth",
					"type": "uint256"
				},
				{
					"internalType": "uint256",
					"name": "TotalInvestment",
					"type": "uint256"
				},
				{
					"internalType": "uint256",
					"name": "Interiorsize",
					"type": "uint256"
				},
				{
					"internalType": "uint256",
					"name": "Bedroom",
					"type": "uint256"
				},
				{
					"internalType": "uint256",
					"name": "Bathroom",
					"type": "uint256"
				},
				{
					"internalType": "uint256",
					"name": "LotSizeinsqft",
					"type": "uint256"
				}
			],
			"stateMutability": "view",
			"type": "function"
		},
		{
			"inputs": [
				{
					"internalType": "address",
					"name": "owner",
					"type": "address"
				},
				{
					"internalType": "address",
					"name": "spender",
					"type": "address"
				}
			],
			"name": "allowance",
			"outputs": [
				{
					"internalType": "uint256",
					"name": "",
					"type": "uint256"
				}
			],
			"stateMutability": "view",
			"type": "function"
		},
		{
			"inputs": [
				{
					"internalType": "address",
					"name": "spender",
					"type": "address"
				},
				{
					"internalType": "uint256",
					"name": "amount",
					"type": "uint256"
				}
			],
			"name": "approve",
			"outputs": [
				{
					"internalType": "bool",
					"name": "",
					"type": "bool"
				}
			],
			"stateMutability": "nonpayable",
			"type": "function"
		},
		{
			"inputs": [
				{
					"internalType": "address",
					"name": "account",
					"type": "address"
				}
			],
			"name": "balanceOf",
			"outputs": [
				{
					"internalType": "uint256",
					"name": "",
					"type": "uint256"
				}
			],
			"stateMutability": "view",
			"type": "function"
		},
		{
			"inputs": [],
			"name": "decimals",
			"outputs": [
				{
					"internalType": "uint8",
					"name": "",
					"type": "uint8"
				}
			],
			"stateMutability": "view",
			"type": "function"
		},
		{
			"inputs": [
				{
					"internalType": "address",
					"name": "spender",
					"type": "address"
				},
				{
					"internalType": "uint256",
					"name": "subtractedValue",
					"type": "uint256"
				}
			],
			"name": "decreaseAllowance",
			"outputs": [
				{
					"internalType": "bool",
					"name": "",
					"type": "bool"
				}
			],
			"stateMutability": "nonpayable",
			"type": "function"
		},
		{
			"inputs": [],
			"name": "depositAmount",
			"outputs": [
				{
					"internalType": "uint256",
					"name": "",
					"type": "uint256"
				}
			],
			"stateMutability": "view",
			"type": "function"
		},
		{
			"inputs": [],
			"name": "getBalance",
			"outputs": [
				{
					"internalType": "uint256",
					"name": "",
					"type": "uint256"
				}
			],
			"stateMutability": "view",
			"type": "function"
		},
		{
			"inputs": [
				{
					"internalType": "address",
					"name": "",
					"type": "address"
				}
			],
			"name": "hasPaidSecurityDeposit",
			"outputs": [
				{
					"internalType": "bool",
					"name": "",
					"type": "bool"
				}
			],
			"stateMutability": "view",
			"type": "function"
		},
		{
			"inputs": [
				{
					"internalType": "address",
					"name": "spender",
					"type": "address"
				},
				{
					"internalType": "uint256",
					"name": "addedValue",
					"type": "uint256"
				}
			],
			"name": "increaseAllowance",
			"outputs": [
				{
					"internalType": "bool",
					"name": "",
					"type": "bool"
				}
			],
			"stateMutability": "nonpayable",
			"type": "function"
		},
		{
			"inputs": [
				{
					"internalType": "address",
					"name": "_property",
					"type": "address"
				}
			],
			"name": "minttheTokenInvestment",
			"outputs": [],
			"stateMutability": "nonpayable",
			"type": "function"
		},
		{
			"inputs": [
				{
					"internalType": "address",
					"name": "_property",
					"type": "address"
				}
			],
			"name": "minttheTokenRentpermonth",
			"outputs": [],
			"stateMutability": "nonpayable",
			"type": "function"
		},
		{
			"inputs": [
				{
					"internalType": "address",
					"name": "_property",
					"type": "address"
				}
			],
			"name": "minttheTokenRentperyear",
			"outputs": [],
			"stateMutability": "nonpayable",
			"type": "function"
		},
		{
			"inputs": [
				{
					"internalType": "address",
					"name": "_property",
					"type": "address"
				}
			],
			"name": "minttheTokenprice",
			"outputs": [],
			"stateMutability": "nonpayable",
			"type": "function"
		},
		{
			"inputs": [],
			"name": "name",
			"outputs": [
				{
					"internalType": "string",
					"name": "",
					"type": "string"
				}
			],
			"stateMutability": "view",
			"type": "function"
		},
		{
			"inputs": [],
			"name": "owner",
			"outputs": [
				{
					"internalType": "address",
					"name": "",
					"type": "address"
				}
			],
			"stateMutability": "view",
			"type": "function"
		},
		{
			"inputs": [],
			"name": "payRent",
			"outputs": [],
			"stateMutability": "payable",
			"type": "function"
		},
		{
			"inputs": [],
			"name": "paySecurityDeposit",
			"outputs": [],
			"stateMutability": "payable",
			"type": "function"
		},
		{
			"inputs": [],
			"name": "rentcollected",
			"outputs": [
				{
					"internalType": "uint256",
					"name": "",
					"type": "uint256"
				}
			],
			"stateMutability": "view",
			"type": "function"
		},
		{
			"inputs": [
				{
					"internalType": "address",
					"name": "_tenant",
					"type": "address"
				}
			],
			"name": "setTenant",
			"outputs": [],
			"stateMutability": "nonpayable",
			"type": "function"
		},
		{
			"inputs": [],
			"name": "symbol",
			"outputs": [
				{
					"internalType": "string",
					"name": "",
					"type": "string"
				}
			],
			"stateMutability": "view",
			"type": "function"
		},
		{
			"inputs": [],
			"name": "tenant",
			"outputs": [
				{
					"internalType": "address",
					"name": "",
					"type": "address"
				}
			],
			"stateMutability": "view",
			"type": "function"
		},
		{
			"inputs": [],
			"name": "totalSupply",
			"outputs": [
				{
					"internalType": "uint256",
					"name": "",
					"type": "uint256"
				}
			],
			"stateMutability": "view",
			"type": "function"
		},
		{
			"inputs": [
				{
					"internalType": "address",
					"name": "to",
					"type": "address"
				},
				{
					"internalType": "uint256",
					"name": "amount",
					"type": "uint256"
				}
			],
			"name": "transfer",
			"outputs": [
				{
					"internalType": "bool",
					"name": "",
					"type": "bool"
				}
			],
			"stateMutability": "nonpayable",
			"type": "function"
		},
		{
			"inputs": [
				{
					"internalType": "address",
					"name": "from",
					"type": "address"
				},
				{
					"internalType": "address",
					"name": "to",
					"type": "address"
				},
				{
					"internalType": "uint256",
					"name": "amount",
					"type": "uint256"
				}
			],
			"name": "transferFrom",
			"outputs": [
				{
					"internalType": "bool",
					"name": "",
					"type": "bool"
				}
			],
			"stateMutability": "nonpayable",
			"type": "function"
		},
		{
			"inputs": [],
			"name": "withdrawRent",
			"outputs": [],
			"stateMutability": "payable",
			"type": "function"
		}
	]
}